:020000040800F2
:1000000048380020B902000893620008FF4A00083F
:100010009162000825200008C1A700080000000028
:10002000000000000000000000000000D181000876
:100030000126000800000000897C0008F5A00008E7
:10004000D3020008D3020008D3020008D17E0008C2
:10005000D3020008D3020008D3020008D30200082C
:10006000D3020008D3020008D3020008D30200081C
:10007000D3020008D3020008D3020008D30200080C
:10008000D3020008D3020008D3020008D3020008FC
:10009000D3020008D3020008D3020008D3020008EC
:1000A000D3020008D3020008D3020008D3020008DC
:1000B000D3020008D302000845A20008D3020008BA
:1000C000D3020008D3020008D3020008D3020008BC
:1000D000D30200083DA70008D3020008D30200089D
:1000E000D3020008D3020008D3020008D30200089C
:1000F000D3020008D3020008D3020008D30200088C
:10010000D3020008D3020008D3020008D30200087B
:10011000D3020008D302000879A20008D302000825
:10012000D3020008D3020008D3020008D30200085B
:1001300000F002F800F0B0F80AA090E8000C824449
:100140008344AAF10107DA4501D100F0A5F8AFF226
:10015000090EBAE80F0013F0010F18BFFB1A43F0A5
:100160000103184788BE0100A8BE01000A444FF0F1
:10017000000C10F8013B13F0070408BF10F8014B06
:100180001D1108BF10F8015B641E05D010F8016B4B
:10019000641E01F8016BF9D113F0080F1EBF10F8AF
:1001A000014BAD1C0C1B09D16D1E58BF01F801CBD2
:1001B000FAD505E014F8016B01F8016B6D1EF9D555
:1001C0009142D6D37047000000230024002500266A
:1001D000103A28BF78C1FBD8520728BF30C148BFAA
:1001E0000B6070476E2900F06A85702900F031823B
:1001F00066290FF0C28065290FF0BF8067290FF0D4
:10020000BC8061290FF0BB8003681B0A28BF41F046
:100210008001692900F06481642900F061817529F9
:1002200000F05E816F2901F03A80782900F0FD81AD
:10023000E92900F09181E42900F08E81F52900F090
:100240008B81EF2901F03780F82900F0FC810368E9
:10025000DB0928BF41F08001632900F08287732900
:1002600000F08787E32901F00182F32901F006827B
:10027000002070471FB501F029F80400002000217C
:100280000EF038F8401C6060002000210EF01CF8D1
:10029000E0601FBD10B510BD01F08EFA1146FFF7EA
:1002A000E9FF0CF033FE01F0B5FA03B4FFF7F2FFFB
:1002B00003BC0AF0DAFE00000948804709480047FD
:1002C000FEE7FEE7FEE7FEE7FEE7FEE7FEE7FEE706
:1002D000FEE7FEE704480549054A064B7047000063
:1002E0007BA1000831010008483200204838002076
:1002F00048340020483400207047B2F120030AD56A
:10030000C2F1200301FA02F120FA03F300FA02F02D
:1003100041EA0301704700FA03F14FF00000704713
:10032000B2F120030AD5C2F1200320FA02F001FA4B
:1003300003F321FA02F140EA0300704721FA03F0C7
:100340004FF000017047B2F120030AD5C2F120033B
:1003500020FA02F001FA03F341FA02F140EA030045
:10036000704741FA03F04FEAE17170471CB50C4643
:10037000064B7B4469460090204600F0C8FE0446C8
:100380000020694600F0D6FE20461CBDBF0D0000CF
:100390007CB51D4616460C00009001D02044401E3E
:1003A000074B7B442A4669460190304600F0AFFE79
:1003B00005461CB10020694600F0BCFE28467CBD05
:1003C000990D00000FB4044910B503AA029800F07B
:1003D000D5FE10BC5DF814FB140000200FB41CB552
:1003E000084B06AA7B4469460090059800F08FFEF2
:1003F00004460020694600F09DFE20461CBC5DF8C6
:1004000014FB00004D0D00000FB47CB50C0009AAD0
:10041000009001D02044401E084B7B446946019067
:10042000089800F074FE05461CB10020694600F0F3
:1004300081FE28467CBC5DF814FB0000210D000005
:1004400070B5044685690068C10601D5302600E014
:100450002026C00707D070BDD4E90121304690475F
:10046000206A401C20626D1EF6D570BD70B5044632
:1004700085690078C00707D170BDD4E9012120202B
:100480009047206A401C20626D1EF6D570BD70B585
:100490000C460546012A05D02878800600D5EA6971
:1004A000002302E0012305E05B1C934202D2E05CE2
:1004B0000028F9D1A869E618C01AA861286A18446A
:1004C00028622846FFF7BCFF04E0D5E9012114F8B3
:1004D000010B9047B442F8D32846FFF7C7FF70BD21
:1004E0002DE9F0410646002410687529314616A50D
:1004F00010D000F079FB002802DA404213A507E093
:1005000031688A0701D512A502E0490704D511A573
:10051000012401E000F071FB00210A2206F124070A
:1005200009E0B0FBF2FCB0FBF2F302FB1C00303040
:1005300078541846491C0028F3D123462A463046F1
:10054000BDE8F04100F062BB000000002D0000009B
:100550002B000000200000002DE9F0418046D21D54
:1005600022F007020025D2E90002F52915A614D0D1
:10057000011E72F1000106DA0023D0EB030063EBE9
:10058000020211A608E0D8F800108B0701D50FA6CB
:1005900002E0490701D50EA601251146002408F105
:1005A000240704E000F0D0FA30323A55641C50EAD7
:1005B0000102F7D12B46324621464046BDE8F041C4
:1005C00000F024BB000000002D0000002B00000004
:1005D00020000000F0B40D460188090502D5214C29
:1005E0007C4402E01F4C7C440E34002100F12406C0
:1005F00008E002F00F071209E75D42EA03721B09E7
:100600007754491C52EA0307F3D1027800231207FA
:1006100004D5702D06D009B1022311342246F0BC56
:1006200000F0F4BA01231034F8E770B504460D4623
:100630002146106800F0E1FA024629462046BDE84E
:1006400070400023C6E7D21D22F00703D3E9002340
:10065000C0E70368126843F0200303600823C36106
:100660000023B7E71CA601002DE9F05F8946044688
:100670004FF0000ADFF874B1FB44C0F820A0204618
:10068000E1688847002874D0252806D0D4E90121E4
:100690009047206A401C2062F1E700265F46204612
:1006A000E16888472028054607DB312D05D27819F7
:1006B00010F8200C08B10643F1E7B00701D526F089
:1006C0000406C4F81CA00027C4F818A02A2D09D0DD
:1006D00028460AF0C3FC38B304EB8708303DC8F85D
:1006E000185019E059F8041B204604EB8702916169
:1006F000E1688847012F054618D1E069002820DA13
:1007000026F020061DE0D8F8180000EB800005EB6D
:1007100040003038C8F818002046E1688847054690
:100720000AF09CFC0028EED1012F0AD02E2D08D112
:100730002046E16888477F1C0546022F46F02006C8
:10074000C4DBA069002803DA404246F00106A0613C
:10075000F00701D026F010066C2D0BD0682D09D0C3
:100760004C2D39D06A2D35D0742D35D07A2D33D01B
:1007700016E038E0E1682F4620468847B842054633
:1007800009D16C2F26D04FF48060E16806432046E3
:100790008847054604E06C2F1AD04FF4807006435A
:1007A0000DB3A5F14100192802D8203546F40066A2
:1007B0004A462946204626604E46FFF713FD80B183
:1007C00001280BD0F61D26F0070000F1080956E7B6
:1007D0004020E4E78020D8E70020D6E706F10409AE
:1007E0004DE7284652E7206ABDE8F09FACA501001E
:1007F00030B505460B462A4613F8014B12F8010B9B
:1008000008B1A042F8D01CB1002802D06D1CF1E75D
:10081000284630BD40EA0103024630B59B0710D19F
:100820004FF0013400E008C208C91D1B9D4315EAC2
:10083000C41FF8D013F0FF0102F8011B0DD01B0AF2
:10084000F8E711F8013B002B02F8013B05D011F845
:10085000013B002B02F8013BF3D130BD10B5431C26
:1008600002E010F8011B71B18107FAD14FF001329B
:1008700002C88C1A8C4314EAC211F9D0C01A0A06B5
:1008800003D0C01E10BDC01A10BD0A0401D0801EC6
:1008900010BD0902FCD0401E10BD40EA010370B536
:1008A0009B072ED14FF00136042A2AD308C810C95D
:1008B0009D1B9D43121F15EAC61517D0D8B2E1B291
:1008C000401A50EA056110D198B2A1B2401A50EA1C
:1008D00005410AD123F07F4024F07F41401A50EABD
:1008E000052102D1180EA0EB146070BDA342DBD02D
:1008F00018BA21BA884201D9012070BD4FF0FF30EB
:1009000070BD0AB9002070BD10F8013B11F8014B11
:1009100063B1A3420AD1521E08D010F8013B11F86E
:10092000014B1BB1A34201D1521EEDD1181B70BD6A
:10093000032A40F2308010F0030C00F0158011F80B
:10094000013BBCF1020F624498BF11F801CB00F8E3
:10095000013B38BF11F8013BA2F1040298BF00F837
:1009600001CB38BF00F8013B11F0030300F02580F4
:10097000083AC0F0088051F8043B083A51F804CB1B
:10098000A0E80810F5E7121D5CBF51F8043B40F8E1
:10099000043BAFF30080D20724BF11F8013B11F8EC
:1009A00001CB48BF11F8012B24BF00F8013B00F830
:1009B00001CB48BF00F8012B704710B5203AC0F0BA
:1009C0000B80B1E81850203AA0E81850B1E8185050
:1009D000A0E81850BFF4F5AF5FEA027C24BFB1E88D
:1009E0001850A0E8185044BF18C918C0BDE81040FE
:1009F0005FEA827C24BF51F8043B40F8043B08BF07
:100A00007047D20728BF31F8023B48BF11F8012BCD
:100A100028BF20F8023B48BF00F8012B704702F0C6
:100A2000FF0343EA032242EA024200F002B84FF019
:100A300000020429C0F0128010F0030C00F01B80AB
:100A4000CCF1040CBCF1020F18BF00F8012BA8BFB9
:100A500020F8022BA1EB0C0100F00DB85FEAC17C7D
:100A600024BF00F8012B00F8012B48BF00F8012B30
:100A700070474FF0000200B5134694469646203961
:100A800022BFA0E80C50A0E80C50B1F12001BFF447
:100A9000F7AF090728BFA0E80C5048BF0CC05DF8AD
:100AA00004EB890028BF40F8042B08BF704748BFFB
:100AB00020F8022B11F0804F18BF00F8012B70476F
:100AC0004FF0013C50F8042B51F8043B9A4221D1DD
:100AD000A2EB0C03934313EACC1317D150F8042B69
:100AE00051F8043B9A4215D1A2EB0C03934313EA4D
:100AF000CC130BD150F8042B51F8043B9A4209D186
:100B0000A2EB0C03934313EACC13DBD04FF00000AD
:100B1000704700BFD01A01BAB1FA81F101F0180193
:100B200022FA01F0CB40C1F12001DBB2C0B2C01A01
:100B30002CFA01F3D11A914311EAC311E6D170479F
:100B4000704770477047704730B5B0F10A024FEAFE
:100B5000900E71F100034EEA817EB0EB0E0061EB66
:100B600091014FEA101E4EEA017E10EB0E0041EBA0
:100B700011114FEA102E4EEA016E10EB0E0041EB00
:100B800011214FEA104E4EEA014E10EB0E0041EBE0
:100B90001141401841F100014FEAD00040EA417094
:100BA0004FEAD10110EB80054FEA810444EA9074CA
:100BB00044EB01046D1944EB0404521BA3414FF0B4
:100BC000000348BF0A3200D530BD401C41F100018E
:100BD00030BD10B500F07EFB006810BD10B50446B6
:100BE00000F078FB046010BD09684A0501D540B2E9
:100BF0007047C905FCD500B2704709684A0501D5A0
:100C0000C0B27047C905FCD580B270472DE9F047E6
:100C10000D4699469246044600F12408016888066C
:100C200004D5E06921F01001216000E00120A84214
:100C300001DD471B00E00027A1697A1902EB0900DA
:100C4000081AA0612078C00602D42046FFF7F8FBFE
:100C5000002608E0D4E901211AF806009047206A2E
:100C6000401C761C20624E45F4DB2078C0060AD575
:100C70002046FFF7E5FB06E0D4E90121302090474C
:100C8000206A401C2062381EA7F10107F4DC07E04F
:100C9000D4E9012118F805009047206A401C206221
:100CA000281EA5F10105F3DC2046FFF7DFFB2078C5
:100CB000000602D50220BDE8F0870120FBE711689D
:100CC0000268006A530501D508700AE0D30501D512
:100CD000088006E0130603D5C217C1E9000200E050
:100CE00008600120704770472DE9FF4F0C461E46F3
:100CF0004FF0FF378BB0D2E90001DDF860800A9039
:100D00008A46C1F30A5505B93D46002108464FF011
:100D10000000BAF1000F00F4400005DA00EB80009B
:100D20004FF4400101EA50004FEA9059B9F1010F28
:100D300000DDB9460A9850EA4A000ED044F6105039
:100D4000A5F2FF3545432F14B8F1000F1ED07542B0
:100D5000291E1EDDC9F100021CE0B8F1010F4FF0A1
:100D6000000001D0302103E0F24305E02154401C93
:100D7000B042FBDB30460022002121540B99C1F820
:100D80000880C1E900200FB0BDE8F08FBD1B6D1CCD
:100D9000DEE74A4600DA694206A800F073FC06ABBB
:100DA00093E8070003AB83E8070050460A9900F078
:100DB0003AFD8DE80700A0F500501F380090039819
:100DC000002D0ADD42F21F014A460844002303A910
:100DD0000390684600F0A3FF09E0A0F500504A46E2
:100DE0001F38002303A90390684600F0ADFF8DE88B
:100DF00007000004000C03D04FF0FF30410800E072
:100E00001046B8F1000F03D00022009215461EE0F4
:100E1000751E05D4FFF798FE303262556D1EF9D568
:100E2000B3460122084302D000227F1C04E0207850
:100E3000302801D100227F1E002A099784D01DE0AE
:100E4000112D07DAFFF780FE303262556D1C50EA33
:100E50000102F5D1084302D00098C8B10EE000218C
:100E6000681E05E0235C625C63542254401E491CEA
:100E70008142F7DBAB46A81B401E0990002004F816
:100E80000B000B98099AC0F80880C0E9002B7AE79C
:100E900011264FF0000857E72DE9F04F8846044629
:100EA000D21D22F0070191B0D1E90001CDE90A017C
:100EB00009F08FFD02460B98C00F01D02D2007E0EE
:100EC0002068810701D52B2002E0202101EAC00023
:100ED000032A099001D0072A05DB03464146204634
:100EE00000F07AFB0BE12078800601D5E06900E094
:100EF0000620B8F1650F814606D0B8F1660F18D00C
:100F0000B8F1670F70D131E00020B9F1110F0090F6
:100F100001DB112301E009F101030AAA01A90CA8D0
:100F2000FFF7E2FEDDE90C70002609F101058346BA
:100F300047E001204B4600904FF000470AAA01A964
:100F40000CA8FFF7D1FEDDE90DB00C995D46002637
:100F500010B909F101000D18B9EB050003D4C0F177
:100F6000FF3609F10105A5EB09002BE0B9F1010FEE
:100F700001DA4FF001090020B9F1110F0090484645
:100F800001DD112300E003460AAA01A90CA8FFF71E
:100F9000ABFEDDE90C704D46002683462078000745
:100FA0000AD4AB4500DA5D4601A8012D04DD4119E4
:100FB00011F8011C302907D04F4502DA17F1040F50
:100FC00004DA012082460FE06D1EEEE7002F02DCFE
:100FD000ED1B3E4403E0781CA84200DD7D1CB81BDD
:100FE00000F1010A4FF000472078000703D4AA451A
:100FF00001DB4FF0FF3A0021B7F1004F0DF143083C
:101000008DF8431024D002202B23002F01DA7F42D9
:101010002D230A21021EA0F1010000DC5FB197FB25
:10102000F1FC97FBF1F201FB1C7C17460CF1300C34
:1010300008F801CDEEE7A8F1010003702188090549
:1010400001D5452100E06521A0F1010800F8011C4F
:1010500009980FA9A1EB0807FF1D00B10120411954
:1010600001EBEA70A1693844081A401EA06120789B
:10107000C00602D42046FFF7E3F9099828B1D4E965
:1010800001219047206A401C20622078C00622D5AA
:101090002046FFF7D5F91EE0002E04DBB34502DD44
:1010A00001A8805D00E03020D4E901219047206A4A
:1010B000401C2062761CAAF101005FEA000A0AD1F6
:1010C00000F004F9C0680168405CD4E90121904750
:1010D000206A401C2062281EA5F10105DCDC07E027
:1010E000D4E9012118F8010B9047206A401C2062C6
:1010F000381EA7F10107F3DC2046FFF7B7F90320FC
:1011000011B041E601694A1C02610878704700B5D8
:101110008FB0CDE901310021059105497944CDE930
:10112000031011466846FFF79FFA0FB000BD00009C
:10113000E5FFFFFF0A6802F8010B0A607047D1E97A
:1011400000239A4202D2531C0B601070704710B5F6
:10115000436913B1AFF3008001E0FFF798F9012074
:1011600010BD127800F124010A7000224A70012299
:10117000EDE711684FF0FF32E9E70000074B70B56B
:101180000D467B44FFF7C3FF0446284600F0ECFA07
:1011900010B14FF0FF3070BD204670BD47B9000060
:1011A0002DE9FF5F15468A460446DFF8AC80F84417
:1011B0000027D8E900103E46CDE9001010E03AF8CB
:1011C00016106A4602A800F0D3FA411C07D0217815
:1011D000890603D5E269391891420DD80744761C77
:1011E0002078800602D5E069B84205DDAE42E6DB34
:1011F0003AF816000028E2D1A069C01BA061204681
:10120000FFF71EF9D8E90010CDE90010002017E023
:101210003AF818106A4602A800F0AAFAB0F1FF3FA7
:1012200081460BD000250DF1080B05E0D4E9012122
:101230001BF8050090476D1C4D45F7D308F10100E0
:10124000B0428046E4DB206A384420622046FFF743
:101250000DF9BDE8FF9F00008A9A010030B400211B
:1012600000F1240408E002F00705D208303542EA14
:101270004372DB086554491C52EA0305F3D1046844
:10128000002310A2250707D5A40600D421B1C46904
:1012900001230DA2641EC46130BCFFF7B7BC10B5BA
:1012A000044621461068FFF7A8FC02462046BDE828
:1012B00010400023D2E7D21D22F00701D1E900231C
:1012C000CCE700000000000030000000004870473C
:1012D0000432002000487047E43100202DE9F04F2F
:1012E00004460D46D21D22F0070089B0D0E90097D0
:1012F0004846394609F06DFB0246F80F01D02D2310
:1013000007E02068810701D52B2302E0202101EAB4
:10131000C0038DF820300BB1012000E00020032A2B
:10132000824601D0072A04DB2946204600F054F902
:101330003FE12078800601D40D2500E0E569C7F380
:101340000A560D2D49DA00214FEA175B08464FF087
:101350000000002F00F4400007DA00EB80004FF49B
:10136000400100EBD07001EA60008115012901DD28
:101370004FF0FF3100224FEA850CBCF1180F06D365
:101380001346ACF118004FF08052C24003E04FF416
:10139000801323FA0CF30CF10C0CBCF1200F04D3D6
:1013A000ACF1200C09FA0CF001E007FA0CF000296E
:1013B0004FF0004801DD18B90FE00ED140450CD3C5
:1013C00019EB02095F4121B9404502D19F4329EA47
:1013D0000209BBEB175F00D0761C2088000502D500
:1013E0007B48784402E07A487844193808AA3023C8
:1013F00002F80A30037C0AF10101002E0AF1020A08
:1014000053546A4602DC4FF0300101E04FF03101E5
:101410004FF001088DF8001002D0A6F2FF3603E06D
:1014200059EA470100D06B4E002D02DC21780907F4
:1014300004D54FF002082E218DF80110C44600217A
:101440000BE0C7F303433F01C35C491C6D1E02F868
:101450000830052908F1010801DA002DF1DC00212E
:101460000CE000EB1973491C1B786D1E082902F86B
:1014700008304FEA091908F1010801DA002DF0DC03
:1014800021688B0602D516E0A8F10108E04505DDCC
:1014900002EB080313F8013C302BF5D0B8F1000F34
:1014A00009DD02EB080313F8013C2E2B03D10907D9
:1014B00001D4A8F10108002D05DD3E2102F8081035
:1014C0006D1E08F10108407C002E02F8080008F1AA
:1014D000010804DA2D20764202F8080002E02B20F1
:1014E00002F808000A214FF47A70864208F10108D8
:1014F0000BDB96FBF0F3303302F8083096FBF0F389
:1015000008F1010800FB136601E0642E0CDB642087
:1015100096FBF0F3303302F8083096FBF0F308F155
:10152000010800FB136601E00A2E06DB96FBF1F0D2
:10153000303002F8080008F1010896FBF1F001FBD9
:101540001060303002F80800A16908F1010808EBCA
:10155000050202EB0A00081AA0612078C00602D436
:101560002046FEF76DFF216A08AE01EB0A002062FB
:1015700004E0D4E9012116F8010B9047BAF1010A01
:10158000F7D22078C00602D52046FEF759FF6E46F6
:1015900009E016F8010B3E280FD0D4E9012190474D
:1015A000206A401C2062B8F10108F2D22046FEF702
:1015B0005DFF09B00320BDE8F08F206A2844206257
:1015C00003E0D4E90121302090476D1EEBD3F8E70A
:1015D0009599010002FCFFFF2DE9F0411F460446EA
:1015E00003260168072A01F4006004DB08B116A590
:1015F00005E016A503E008B115A500E015A521F04A
:1016000010002060A069C01EA0610FB1401EA06143
:101610002046FEF715FF4FB1D4E901213846904727
:10162000206A401C2062C01C206206E0206AFAE7A3
:10163000D4E9012115F8010B9047761EF8D2204617
:10164000FEF714FFBDE8F0814E414E006E616E0062
:10165000494E4600696E660010B5436913B1AFF399
:10166000008001E0FFF79CFD012010BD128800F111
:10167000240182840022C2840122EDE711684FF028
:10168000FF32E9E72DE9F047814616468AB0354832
:1016900078440DC88DE80D0032487844801C03ACB6
:1016A0000DC884E80D0041F69B300844372190FBBB
:1016B000F1F290FBF1F5A5F1800501FB12041B3C52
:1016C00002D56442012000E00020DFF898A08046A7
:1016D0000027FA44AAF1BE0A0EE0E0070AD032461B
:1016E000684607EB470101230AEB810100F02CFB60
:1016F0008DE8070064107F1C002CEED1194F7F4449
:10170000AE3F19E0E80715D007EB04100DF1180AF9
:1017100090E80E008AE80E00C068F04201D19819E6
:1017200008903246012306A903A800F00DFB03AB85
:1017300083E807006D10641C002DE3D14FF0010316
:1017400032466946B8F1000F03A802D000F0E7FA6C
:1017500001E000F0F9FAC9E90001C9F808200AB06F
:10176000BDE8F08778970100007B00F080007047AB
:1017700070B516460C46054600F044F8036893F829
:101780000101012806D0FF2C0FD8185D68B1012097
:101790002C7070BDD3F807013246214603F20713BF
:1017A00003442846BDE8704018474FF0FF3070BD35
:1017B00000487047E43100207546FFF7F9FFAE4658
:1017C00005006946534620F00700854618B020B54D
:1017D000FEF780FDBDE820404FF000064FF0000707
:1017E0004FF000084FF0000B21F00701AC46ACE8C9
:1017F000C009ACE8C009ACE8C009ACE8C0098D4636
:101800007047000010B5FFF761FD001D10BD00BF5F
:10181000E5CA000010B50446AFF300802046BDE8DD
:101820001040FEF742BD5FEA400C08BF91F0000F88
:101830004FEA8C234FEAC12243EA51514FEA1C5030
:1018400018BF00F5F0404FEA300018BF41F00041EA
:101850005FEA6C5C00F02980BCF1FF3F08BF40F0FC
:1018600080407047130C06BF12044FF0100C4FF06D
:10187000000C130E04BF12020CF1080C130F04BF6E
:1018800012010CF1040C930F04BF92000CF1020C36
:10189000D30F04BF52000CF1010C11464FF00002AF
:1018A000A0F11F00A0EB0C00704711F0004F08BF23
:1018B000704731F000413FF4D5AF0B0C06BF09046F
:1018C0004FF0100C4FF0000C0B0E04BF09020CF18E
:1018D000080C0B0F04BF09010CF1040C8B0F04BFA3
:1018E00089000CF1020CCB0F04BF49000CF1010C74
:1018F000CCF12003A0EB0C0022FA03F302FA0CF265
:1019000041EA030100F10100704720F07F4C80EABA
:10191000030023F07F47ACEB070303F57C5300F093
:10192000004003F1FF032DE980494FEA154B09B44C
:101930004FEA144325EA0B4E24EA03480FF204262B
:1019400006EB132749083E785FEA320203FB06677D
:10195000C7F5000707FB06F64FEA54374FEAD646AD
:1019600006F1020607FB066CCCF1005C4FEA1C474F
:101970002CEA074C07FB06F40CFB06F504EB1546B6
:101980004FEA961634BF00204FF000404FEAD1379F
:1019900006FB07FC4FEA1C4C0CFB0BF7D21B03FBAE
:1019A0000CF761EB07010CFB0EF7B0EB074072EB95
:1019B00017420CFB08F734BFA2EB0742B2EB074219
:1019C00061EB17414FEA0C444FEA910706FB07FC15
:1019D0004FEA1C4C0CFB0BF7B0EBC74072EB5732D5
:1019E00003FB0CF734BFA2EBC742B2EBC74261EB7B
:1019F00057310CFB0EF7B0EBC70072EB57720CFBC4
:101A000008F734BFA2EBC702B2EBC70261EB577114
:101A1000039F4FEA816141EA921104EBCC044FEA43
:101A2000D1374FEA826206FB07FC42EA90124FEA86
:101A300080604FEA1C4C0CFB0BF7D21B03FB0CF72E
:101A400061EB07010CFB0EF7B0EB074072EB17429E
:101A50000CFB08F734BFA2EB0742B2EB074261EB85
:101A600017414FEA8C554FEA910704EB9C2406FB83
:101A700007FC4FEA1C4C0CFB0BF7B0EBC74072EBBA
:101A8000573203FB0CF734BFA2EBC742B2EBC7429D
:101A900061EB57310CFB0EF7B0EBC70072EB5772DE
:101AA0000CFB08F734BFA2EBC702B2EBC70261EB35
:101AB000577115EB4C254FEA816141EA92114FEACB
:101AC00082624FEAD13742EA901206FB07FC44F1EA
:101AD00000044FEA80604FEA1C4C0CFB0BF7D21B52
:101AE00003FB0CF761EB07010CFB0EF7B0EB0740B3
:101AF00072EB17420CFB08F734BFA2EB0742B2EBC4
:101B0000074261EB174115EB1C154FEA813141EAA1
:101B100092414FEA823242EA90424FEA80304FEAE5
:101B20000C7644F1000448EA03434EEA0B484FF0B8
:101B3000000EB2EB080C71EB030724BF6246394676
:101B40004EEB0E0E4FF0000B0018524149414BEB8B
:101B50000B0BB2EB080C71EB03077BF1000B24BFFE
:101B6000624639464EEB0E0E4FF0000B0018524104
:101B700049414BEB0B0BB2EB080C71EB03077BF10C
:101B8000000B24BF624639464EEB0E0E51EA0207A7
:101B900018BF46F0010616EB0E7655F1000254F11F
:101BA000000103D5BDE88901BDE80088BDE88901D1
:101BB000BDE80048B619524141EB0101A3F1010310
:101BC000704780807F7E7D7C7B7A797877767675AA
:101BD0007473727171706F6E6E6D6C6C6B6A6A6922
:101BE0006868676666656464636362616160605FBC
:101BF0005F5E5E5D5D5C5C5B5B5A5A595958585735
:101C0000575656555555545453535252525151509C
:101C100050504F4F4F4E4E4D4D4D4C4C4C4B4B4BEF
:101C20004A4A4A4949494848484747474746464635
:101C30004545454444444443434343424242424170
:101C40004141002B9C4630D477002BD01CB54FEA85
:101C5000370703B44FF010004FF01001BAF1000F36
:101C600006D0BCF1000FDCBF40F0080040F00801D6
:101C70004FF000000FBCBDE810400BF1010BBBF1B1
:101C8000010F08BF5FEA170722BF12F1010211F12D
:101C900001014FF0004143F1000300F0004043EA2E
:101CA00000007047F9D35708D0E746EA064613F11B
:101CB000400F4FEA16461FDD13F1200FDFBF16431A
:101CC0000A46002120335B42BED0C3F1200746EA1A
:101CD000064602FA07F74FEA164646EA0706C3F138
:101CE000200722FA03F201FA07F721FA03F14FF075
:101CF000000342EA0702A7E746EA020646EA06466A
:101D00004FEA164646EA0106BCBF46EA0646360CCE
:101D10004FF000034FF000024FF0000194E72DE96F
:101D2000804C9A46934670B491E8380007C831EA6F
:101D3000400C48BF34EA430C03D5FFF7E6FDFFF73C
:101D400080FFF0BCBDE8008C2DE9804C9A4693469C
:101D500070B491E8380007C810F0804F08BF13F046
:101D6000804F03D100F005F8FFF76BFFF0BCBDE832
:101D7000008C20F07F4780EA030023F07F4C07EBC4
:101D80000C03A3F57C5300F00040A3F1FE0392F096
:101D9000000F00F0B38095F0000F00F077802DE980
:101DA00001494FEA11404FEA144621EA004800FB7E
:101DB00006FC24EA064708FB06F607FB08F800FBCA
:101DC00007F718EB06484CEB164C4FEA124B18EB92
:101DD00007484FEA15464CEB174022EA0B4E0BFB27
:101DE00006FC25EA06470EFB06F607FB0EFE0BFB7C
:101DF00007F71EEB064E4CEB164C4FF000061EEBA1
:101E0000074E4CEB174B18EB0B0840F1000018EB9A
:101E10000E0B58EB000840F100008F1A4FF0000144
:101E20003CBFC943661B14BFB5EB040C00213CBF8B
:101E3000C943F61B4FEA17444EEA8E0E27EA0445C3
:101E40004FEA1C4704FB07622CEA074C05FB07F727
:101E50000CFB05F604FB0CFC16EB074642EB1742A5
:101E600016EB0C4642EB1C421BEB060658EB02023B
:101E7000414146EA9E0601D5BDE80189B6195241A5
:101E800041EB0101A3F10103BDE801894FEA1445CB
:101E90004FEA114724EA054621EA074C05FB07F4FF
:101EA00006FB07F70CFB06F105FB0CFC11EB0741E9
:101EB00044EB17444FEA124711EB0C4144EB1C442E
:101EC00022EA074C05FB07F206FB07F70CFB06F6B8
:101ED00005FB0CFC16EB074642EB174216EB0C46D3
:101EE00042EB1C456A1854F1000148BF7047B6190F
:101EF000524141EB0101A3F10103704795F0000F3E
:101F000037D04FEA11424FEA144721EA024624EA49
:101F1000074C02FB07F106FB07F70CFB06F402FB7C
:101F20000CFC14EB074441EB17414FEA154714EB47
:101F30000C4441EB1C4125EA074C02FB07F506FB6C
:101F400007F70CFB06F602FB0CFC16EB074645EB0D
:101F5000174516EB0C4645EB1C42121951F10001D6
:101F600048BF7047B619524141EB0101A3F101038B
:101F700070474FEA14454FEA114724EA054621EA23
:101F8000074C05FB07F106FB07F70CFB06F24FF0C9
:101F9000000605FB0CFC12EB074241EB174112EB6C
:101FA0000C4251EB1C4148BF7047921841EB0101B4
:101FB000A3F101037047000010B5044C207803F032
:101FC0007FF96078BDE8104003F066B96802002030
:101FD00070B505460E4CC00704D00EA12046FEF792
:101FE000FDF90444A80704D50BA12046FEF7F6F935
:101FF0000444680704D509A12046FEF7EFF904441C
:10200000E80603D506A12046FEF7E8F9004870BDB2
:10201000502F0020720000007700000073000000C5
:102020006D000000FEE700002DE9F74F8EB00600BE
:102030004FF00009514D5248C846CDF81090079016
:1020400000D101260124DFF83CA1DFF83CB1304685
:102050000DF000F80B9028460CF0FCFF0C90601C73
:102060000B9D0CF0F7FF01460C980CF0F9FE294689
:102070000D900CF0F5FE4FF07E510DF009F900EBDC
:102080000A025A4556D20CF0ADFF0546471C401CCB
:102090000CF0E0FF01460D980CF0E2FE039003996E
:1020A0000B980DF0EBF820F000400190781C0CF03C
:1020B000D1FF01460D980CF0D3FE029002990B98C7
:1020C0000DF0DCF820F000400146009001980CF083
:1020D000D5FF00D93D46DDE9001009950CF0CEFF93
:1020E00001D8019D00E0009DDDE900100CF0C6FF65
:1020F00001D8039F00E0029F284607990CF0BEFF1D
:1021000009D209981FFA84F91FFA80F81F48079529
:102110000497854212DD42F21070844202D304F229
:10212000E73407E0B4F57A7F01D3633402E0642C2E
:1021300000D30934641CB4F5803F90D30F99A1F803
:1021400000901098A0F8008004990B980DF096F874
:1021500020F000400CF0EAFD05460C4604980CF017
:10216000E5FD03948DE8230043464A46314608487E
:10217000FEF728F9049811B0BDE8F08F00A24A04D8
:10218000FFFF7F7F000038BD01FFB7040AD7233C63
:10219000E4BD0108054B4FF48071012803D00122F2
:1021A000184600F0B6BF0022FAE700000008014020
:1021B000044B012804D001220421184600F0A9BFD5
:1021C0000022F9E70014014010B5446A204600F0EF
:1021D00079FC0120207110BD10B5446A204600F042
:1021E00047FC0120207110BD10B5446A206940F001
:1021F00004002061204600F067FC0120207110BD22
:1022000010B5446A206940F004002061204600F0C7
:1022100031FC0120207110BD10B5406A00F053FC64
:1022200010BD10B5406A00F024FC10BD2DE9F0434C
:10223000524F2025524EB878DFF8488185B04FF4D0
:102240007849002438B101283BD002284CD0BC701A
:1022500005B0BDE8F08309F057FEB8B14AA0FEF71B
:10226000B1F830884F4680B2CDE900054B464CA20C
:10227000502102940A2003F070FB30883B4680B264
:10228000CDE900054BA27821029474E00120B870DA
:102290004CA0FEF797F83088029480B2CDE9000593
:1022A000B8F800004BA283B250210A2003F055FB7E
:1022B00030884CA283B202942EE000BF03F04DFBA5
:1022C000C6E73088029480B2CDE90005B8F8000076
:1022D00048A283B250210A2003F03FFB0220B870CD
:1022E00047A0FEF76FF8B3E704A903A809F064FE5E
:1022F000B8B149A0FEF766F8BC7030884B4680B292
:10230000CDE9000549A2502102940A2003F025FBE3
:1023100030884AA283B20294CDE9003578210A20A0
:10232000CCE79DF810209DF80C1048A0FEF74AF865
:102330009DF80C204FA15448FEF750F830880294C5
:1023400080B2CDE90005B8F80000474683B24E4A96
:1023500050210A2003F001FB9DF810204BA14A48B0
:10236000FEF73CF83088029480B2CDE90005388849
:10237000454A83B278210A20A0E7000064080020C3
:1023800000010020FC000020444854313120696ED7
:102390006974206661696C6564210D0A00000000A3
:1023A00053656E736F72204572726F722120202008
:1023B00000000000436865636B696E672E2E2E2057
:1023C00020202000444854313120696E6974204F28
:1023D0004B0D0A00496E6974204F4B2E2E2E202083
:1023E000202020002020202020202020202020200D
:1023F0002020000057616974696E672E2E2E000040
:10240000444854313120726561647920746F2072C0
:102410006561640D0A000000444854313120526562
:102420006164204572726F72210D0A005265616409
:10243000204572726F722120202020002020202051
:1024400020202020202020202020200054656D7096
:10245000657261747572653A20256420432C2048AA
:10246000756D69646974793A2025642025250D0A03
:102470000000000054656D703A2025642043202040
:102480002020202000000000D031002048756D6918
:102490003A2025642025252020202020200000002F
:1024A00030B590F840500124AC40C56B6C600468B6
:1024B00063604368102B036803D099600068C260B2
:1024C00030BD9A600068C16030BD00002DE9FE4358
:1024D000254C0025254FA0782026A0B109F012FE3A
:1024E000A07080B122A0FDF76DFF2AA12D48FDF755
:1024F00075FF38884FF4784380B2CDE90006294A49
:102500005021029524E009F0BFFD30B3A0F54071E1
:10251000523922D00CF086FD23490CF0E3FD0CF07B
:1025200005FC044688462246434620A0FDF74AFFA4
:102530002246434621A11B48FDF750FF38880295EB
:1025400080B2CDE900062148164A5021008883B2A6
:102550000A2003F002FABDE8FE831DA0FDF732FF5A
:102560000120A070F7E700004808002000010020CB
:1025700044533138423230204572726F723A2053E0
:10258000656E736F72206E6F7420666F756E642156
:102590000D0A000053656E736F72204572726F7280
:1025A00021000000BC310020CDCCCC3D54656D70C5
:1025B0003A20252E31662043200D0A0054656D70A7
:1025C0003A20252E3166204320200000FC00002008
:1025D00054656D7065726174757265206572726F95
:1025E000722C207265696E697469616C697A6174B4
:1025F000696F6E206E65656465640D0A00000000F9
:102600007047000003490878002801D0401E087078
:10261000704700000A0100202DE9FF4F83B090466B
:102620000E460746002514464FE000BF381BA6EBB8
:10263000050902901FFA89F180B2069A02F014FC93
:10264000381901901FFA89F180B2069A02F00CFC49
:10265000301981B2A7EB050900901FFA89F0069A9C
:1026600002F002FCA6EB040B1FFA8BF11FFA89F0B3
:10267000069A02F0F9FB019806EB050A1FFA8AF1A7
:1026800080B2069A02F0F0FB07EB05091FFA8BF106
:102690001FFA89F0069A02F0E7FB0098069A81B2C9
:1026A0001FFA89F002F0E0FB02981FFA8AF180B26B
:1026B000069A02F0D9FB6D1C05FB05F004FB040132
:1026C00008FB08F0814200DD641EA542AEDD07B0C4
:1026D000BDE8F08F0EB509F023FEFF2100200AF0BF
:1026E000CFF8A72101200AF0CBF8072102200AF039
:1026F000C7F8072103200AF0C3F8A72104200AF035
:10270000BFF8A72105200AF0BBF803200AF05CF807
:10271000002009F0F3FF0AF013F925A1C520CDE947
:1027200000012E4B2EA235A1032009F02BFE34A26E
:1027300035A1C6208DE80700284B29A22FA1032030
:1027400009F020FE37A239A1C7208DE80700234BEE
:1027500023A22AA1032009F015FE32A237A1C82026
:102760008DE807001D4B1EA224A1032009F00AFEDC
:1027700037A1C920CDE90001184B19A21FA10420DF
:1027800009F000FE3CA1CA20CDE90001134B14A2C0
:102790001AA1022009F0F6FD41A1CB20CDE90001EC
:1027A0000E4B0FA215A1012009F0ECFD0EBD00009B
:1027B000456173794C6F67676572E5889DE5A78B06
:1027C000E58C96E5AE8CE68890EFBC8CE5BD93E594
:1027D000898DE9858DE7BDAE3A000000AEF40008B2
:1027E0002E2E5C447269766572735C53595354455E
:1027F0004D5C5359535C7379732E630053595300E6
:10280000494E464F000000002D20E585A8E5B18027
:10281000E8BE93E587BAE7BAA7E588AB3A20257307
:1028200000000000E7A681E794A800002D20E8BE84
:1028300093E587BAE994813A202573002D20E9A217
:102840009CE889B2E8BE93E587BA3A202573000078
:10285000E8BF99E698AFE4B880E69DA144454255AB
:1028600047E7BAA7E588ABE79A84E6B58BE8AF956A
:10287000E697A5E5BF970000E8BF99E698AFE4B8F2
:1028800080E69DA15741524EE7BAA7E588ABE79A8B
:1028900084E6B58BE8AF95E697A5E5BF9700000005
:1028A000E8BF99E698AFE4B880E69DA14552524F43
:1028B00052E7BAA7E588ABE79A84E6B58BE8AF950F
:1028C000E697A5E5BF97000072B6FEE770B502F087
:1028D0005FF919490020087017480421001D08F00D
:1028E0005BFC1649002008F0B5FC1549012008F0F2
:1028F000B1FC1449022008F0ADFC1349032008F094
:10290000A9FC4FF4FA7440F2DC5522462946002017
:1029100008F022FC22462946012008F01DFC224630
:102920002946022008F018FC61002246BDE87040EC
:10293000032008F011BC00002C000020516A0008A0
:10294000BD70000871750008156B000870B505466C
:102950002021114800F0D8FB38B1002401210F4894
:1029600000F0D2FB18B1012202E00124F6E70022B8
:102970000B49144201D0012008E0144303D0087829
:10298000012802D003E0002000E002200870284661
:10299000BDE8704008F090BC001001400008014004
:1029A0002C00002010B502F031F9BDE810400221E2
:1029B000014808F099BD0000DC00002070B500223D
:1029C000042483880CE000BF056804EB4216AD5B6D
:1029D0008D4203D1006800EB421070BD521C92B2D0
:1029E0009342F1D8002070BD002803D00146024870
:1029F00008F0CCBF70470000740200202DE9F041C0
:102A00000F4B062400220425196808269B8813E032
:102A100005EB4217CF5B874207D10146234609A049
:102A2000FDF7D0FC2046BDE8F08106EB4217A41C60
:102A3000CF5B521C3C4492B29342E9D80020F2E7AB
:102A400074020020466F756E6420706172616D20A3
:102A5000494420256420617420696E6465782025CE
:102A6000642C20616464723A20256C750A000000B1
:102A700070477047704770B500B3F9B14379012BC7
:102A80001ED0012646710223037105682C6802F0EE
:102A9000100340F6FE729A409443D1E900210A43A4
:102AA0009A4022432A6001680A68C0249C40A243DD
:102AB0000A60067100214171084670BD012070BD99
:102AC000022070BD70477047704770B5040003D096
:102AD0002079002510B105E0012070BD6571204608
:102AE00000F008F8022020712561012020710020EB
:102AF00070BD000000B585B00021009101910291E8
:102B0000039100680E49884218D10E48C16941F00E
:102B10000051C161C16901F000510491816941F026
:102B2000040181618069694600F00400049010206E
:102B3000009003200190044800F0EAF905B000BDC0
:102B40000074004000100240000801402DE9F041EF
:102B50000400069817460D461BD0617901291BD049
:102B60000126667102212171C5B1E2682449916292
:102B7000E2682449D162E2682349116321680A6846
:102B800042F080520A6018B32268042823D01C3215
:102B900022E00120BDE8F0810220FBE7A2681B498A
:102BA0009162A2681A49D162A2681A491163216828
:102BB0000A6842F480520A6020B12268042804D0D6
:102BC000103203E02268083200E00C32A06804E012
:102BD0002268143200E01832E068394600F05CF9EF
:102BE0000021617120B1216941F004012161D1E727
:102BF00021680A6805F010039E4032430A60C9E765
:102C0000D92100082322000801220008C921000858
:102C100019220008E921000870B5040017D02068C7
:102C2000036801F010024FF480559540AB430360F8
:102C300020680368012505FA02F29343036041B15D
:102C4000D4F80C0000F007F82571002070BD0120B9
:102C500070BDA068F6E710B590F821100022022997
:102C600005D00421816380F82020012010BD016877
:102C70000B6823F00E030B6001680B6823F001035F
:102C80000B6090F84030C46B012101FA03F36360DC
:102C900080F8211080F82020104610BD2DE9F05F4B
:102CA00090F821100024022903D00421816301241B
:102CB00085E001680A6822F00E020A6001680A686D
:102CC00022F001020A603F4E3E4FB215DFF8F4C019
:102CD000DFF8F090DFF8ECA0DFF8E8B0DFF8E4E030
:102CE0000168783F13011502ACF1640CA9F1500999
:102CF000AAF13C0AABF1280BAEF1140E4FF4801888
:102D0000B14227D9B9420ED0614512D049451DD0F4
:102D1000514518D0594518D0714501D1424615E0AA
:102D2000294EB14201D1012210E0274E1436B142A2
:102D300001D110220AE0244E2836B14206D0224AA0
:102D40003C32914201D11A4600E02A461E49091F31
:102D50000A602BE0B94213D0614517D0494522D013
:102D600051451DD059451DD0714501D142461AE04B
:102D7000B14202D14FF0807215E0134EB14201D141
:102D8000012210E0104E1436B14201D110220AE0A7
:102D90000D4E2836B14206D00B4A3C32914201D149
:102DA0001A4600E02A46074980394A60012180F826
:102DB0002110002180F82010416B01B18847204686
:102DC000BDE8F09F800002400804024030B560B1C9
:102DD0001A4B026814219A4209D2194B1344B3FBCF
:102DE000F1F18900016417490AE0012030BD134B5D
:102DF0005B421344B3FBF1F1890001640F490839C8
:102E0000C163022180F82110136843F6F0718B43EF
:102E1000F0E901142143D0E902452C432143046920
:102E200021434469214384692143194311600021EE
:102E30004163012242770177084630BD0804024011
:102E4000F8FFFDBF0000024070B5044690F8200076
:102E5000002501280CD0012084F8200094F821607E
:102E60000020012E06D084F820000225284670BDDF
:102E7000022070BD022684F82160A06320680668E5
:102E800026F0010606602046FFF70AFB206801686D
:102E900041F001010160E9E770B5044690F82000B7
:102EA000002501280CD0012084F8200094F821602E
:102EB0000020012E06D084F820000225284670BD8F
:102EC000022070BD022684F82160A0632068066895
:102ED00026F0010606602046FFF7E2FAE06A0028C5
:102EE0002068016802D041F00E0106E021F00401E3
:102EF00001602068016841F00A01016020680168F2
:102F000041F001010160D9E780B208F0B3BF0000D1
:102F10002DE9F84FDFF8C8910024A9F1040B2346EE
:102F20000F2709F1040AABF1040ED1E00125A540F9
:102F300006EA0502AA4276D1DFF8A8C14E68A6EBE0
:102F40000C0866452BD00DDC032E34D005DC36B3DF
:102F5000012E19D0022E2FD11BE0112E16D0122EC9
:102F60002AD119E0B8F5881F19D006DCB8F5803FE2
:102F700015D0B8F5801F1FD111E0B8F5001F0ED095
:102F8000B8F5041F18D10AE0CB6815E0CB681B1D0B
:102F900012E0CB6808330FE0CB680C330CE08B6891
:102FA0002BB1012B4FF0080303D0456104E004234B
:102FB00002E0056100E00023FF2A01D8064601E097
:102FC00000F104064FEA840501D9A5F12005D6F8E1
:102FD000008007FA05FC28EA0C0803FA05F548EA20
:102FE0000508C6F800804D68ED0070D53E4DAE690D
:102FF00046F00106AE61AD6924F0030605F0010557
:1030000000953A4D06EB050CDCF80850A607360F84
:1030100007FA06F825EA0805DFF8D480404503D111
:103020004FF0000825E052E0DFF8C880404502D1AB
:103030004FF001081DE0DFF8C080404502D14FF09D
:10304000020816E0DFF8B480404502D14FF00308D3
:103050000FE0DFF8AC80404502D14FF0040808E0F3
:10306000DFF8A080404502D14FF0050801E04FF0A5
:10307000060808FA06F848EA0508CCF808804D6802
:10308000D9F80060ED024D4601D5164300E09643A5
:103090002E604D68DAF80060AD02554601D5164342
:1030A00000E096432E604D68DBF80060AD035D469E
:1030B00001D5164300E096432E604D68DEF80060AF
:1030C000ED03754601D5164300E096432E60641C5F
:1030D0000A681646E2407FF429AFBDE8F88F000089
:1030E00008040140000011100010024000000140DF
:1030F00000080140000C0140001001400014014094
:1031000000180140001C01408068084000D00120E8
:1031100070470AB1016170470904FBE70148806804
:10312000704700000000002070B5040025D094F81E
:103130003D00002520B984F83C50204600F0B8F846
:10314000242084F83D002068016821F0010101601D
:103150002068016841F4004101602068016821F4A1
:103160000041016000F00EFB4D4A6168914201D8B8
:103170004C4900E04C49884201D2012070BD4B49C6
:103180002368B0FBF1F15E6826F03F060E435E60F7
:103190006368934206D94FF4967359434FF47A7398
:1031A000B1FBF3F12368491C1E6A26F03F06314348
:1031B00019626168914210D84900401EB0FBF1F2DB
:1031C000521CC2F30B02042A01D2042022E0B0FBFD
:1031D000F1F0401CC0F30B001CE0A268F2B301EB5D
:1031E000C10303EB0116431EB3FBF6F35B1C43F470
:1031F00080431B0549D092B301EBC10202EB0111E0
:10320000401EB0FBF1F0401CC0F30B0040F48040C6
:1032100040F400402168CA694CF6FF739A4310439A
:10322000C861D4E9071001432068026822F0C00297
:1032300011430160D4E9030101432068826848F228
:10324000FF339A4311438160D4E9050108432168A3
:10325000CA6822F0FF021043C86001E00EE016E0E9
:103260002068016841F0010101602564202084F894
:103270003D00256384F83E50002070BD01EB4106FF
:10328000431EB3FBF6F35B1CB3E70120C2E701EB7F
:103290004101401EB0FBF1F0401CC0F30B00B7E74A
:1032A000A086010080841E0000093D0040420F00FE
:1032B00010B586B000210091019102910391006840
:1032C0000F4988421AD10F4CA06940F00800A06154
:1032D000A069694600F008000490C0200090122008
:1032E0000190032003900848FFF712FEE06940F4C4
:1032F0000010E061E06900F40010049006B010BD19
:103300000054004000100240000C014070B5040061
:1033100013D021684CF6CC400860216845F2555026
:103320000860D4E9000141602168A0688860FFF767
:10333000F5FE054641F23C360DE0012070BD00BFB0
:10334000FFF7ECFE401BB04205D92068C06880073B
:1033500001D0032070BD2068C0688007F0D12168CB
:103360004AF6AA200860002070BD00684AF6AA212B
:103370000160002070470000024881680278114413
:103380008160704700000020074810B5016841F0D7
:1033900010010160032000F075F80F2000F006F81E
:1033A00000F024F8002010BD0020024070B50D4D43
:1033B00004464FF47A712878B1FBF0F00A490968A5
:1033C000B1FBF0F000F0FEFD48B9102C07D200224E
:1033D0002146501E00F036F800206C6070BD0120C0
:1033E00070BD0000000000200C0000200C4808B553
:1033F000816941F001018161816901F00101009160
:10340000C16941F08051C161C06900F080500090F5
:103410000448416821F0E06141F00071416008BD5D
:103420000010024000000140002809DB00F01F02EC
:10343000012191404009800000F1E020C0F8001116
:1034400070470000F0B40E4B1B680C46C3F3022318
:10345000C3F10705042D00D90425191D072901D240
:10346000002300E0DB1E012606FA05F1491E21407B
:1034700099409E40761E16403143F0BC07F0BDBA1D
:103480000CED00E0064900F0070208684FF6FF0364
:10349000184040EA0220034A1043086070470000C9
:1034A0000CED00E00000FA050149012008627047B8
:1034B00000000E4210B501460020284C04292FD0F0
:1034C0000BDC012930D0022929D100F06BF96168A9
:1034D000C1F38131491C49001FE0082920D010297F
:1034E0001DD161682268D20119D51D48C1F38342FC
:1034F000C903805C0AD56168194AC1F34041921E34
:10350000515C184AB2FBF1F1484301E016494843C7
:103510006168490203D440000321B0FBF1F010BD03
:10352000BDE8104000F04EB9226AC2F30121012922
:1035300003D1920701D5C80310BD022905D1626AE3
:10354000920702D549F6404010BD0329FCD12168FD
:103550008903F9D54FF2244010BD0000001002404D
:1035600086F4000800127A0000093D002DE9F843B6
:1035700005460078354CC00754D0E0690026C000ED
:1035800008D4E06940F08050E061E069012600F075
:10359000805000902E480168C90512D40168804609
:1035A00041F480710160FFF7B9FD074605E000BFF7
:1035B000FFF7B4FDC01B642823D8D8F80000C0056D
:1035C000F6D5206A10F4407021D0A98801F440712A
:1035D00081421CD0206A1F49012220F440700A60F9
:1035E00000220A602062C00711D0FFF797FD07464E
:1035F00041F2883808E000BFFFF790FDC11B41454C
:1036000002D90320BDE8F883206A8007F4D5206A38
:10361000696820F44070084320621EB1E06920F020
:103620008050E0612878800705D56068A96820F49B
:103630004040084360602878C00605D56068696925
:1036400020F48000084360600020DBE700100240A7
:1036500000700040400442422DE9F0470F4605004B
:1036600061D0434E306800F00700B84209D230689C
:1036700020F0070038433060306800F00700B8429F
:1036800051D128683B4C810712D5400703D56068AB
:1036900040F4E06060602878000703D5606840F47B
:1036A000605060606068A96820F0F00008436060C6
:1036B0002878C00728D06868012810D0216802281F
:1036C00010D0890700292EDA616821F00301014337
:1036D0006160FFF723FD804641F288390DE02168E3
:1036E0008903EFE78901EDE7FFF718FDA0EB08017B
:1036F000494502D90320BDE8F0876068696800F099
:103700000C00B0EB810FEFD1306800F00700B84239
:103710000BD9306820F0070038433060306800F083
:103720000700B84201D00120E5E72878400705D519
:103730006068E96820F4E06008436060287800076A
:1037400006D56068296920F4605040EAC1006060D5
:1037500000F038F86168084AC1F30311515CC840B1
:103760000649086006480068FFF720FE0020C2E70F
:10377000002002400010024096F400080C000020D7
:10378000040000200448054900684968044AC1F360
:103790000221515CC84070470C000020001002401C
:1037A000A6F400080448054900684968044AC1F3C2
:1037B000C221515CC84070470C000020001002403C
:1037C000A6F400080E4A51680E4801F00C03042BC1
:1037D00011D0082B0FD10C48C1F38343C903C05C3F
:1037E0000AD55168084AC1F34041921E515C054A0E
:1037F0005043B0FBF1F07047044948437047000064
:103800000010024000127A0074F4000800093D0024
:103810002DE9F84F040070D02078C04DC00749D082
:103820006868C0F38100012807D06868C0F3810090
:10383000022809D16868C00306D52868800339D5F5
:1038400060680028E7D035E06068B0F5803F0BD0B5
:1038500010B1B0F5A02F11D0286820F48030286076
:10386000286820F4802002E0286840F48030286036
:10387000606890B1FFF752FC06460AE0286840F401
:1038800080202860F0E700BFFFF748FC801B642819
:1038900073D828688003F7D50CE0FFF73FFC064695
:1038A00005E000BFFFF73AFC801B6428F0D82868C9
:1038B0008003F7D420789A4E80074FF001094FF02B
:1038C000000839D5686810F00C0F07D06868C0F39D
:1038D0008100022809D16868C00306D428688007DF
:1038E00014D52069012808D110E02069B0B1C6F8CC
:1038F0000090FFF713FC074605E00AE1FFF70EFC16
:10390000C01B0228C4D828688007F7D528686169D9
:1039100020F0F80040EAC10028600DE0C6F8008001
:10392000FFF7FCFB074604E0FFF7F8FBC01B02288B
:1039300023D828688007F7D4207800072CD5794849
:10394000A169D9B1C0F80090FFF7E8FB074604E091
:10395000FFF7E4FBC01B02280FD8686A8007F7D581
:1039600071484FF4FA510068B0FBF1F0009000BFCD
:103970000098411E0091FAD20EE080E0C0F800806D
:10398000FFF7CCFB074604E0FFF7C8FBC01B02288B
:1039900075D8686A8007F7D42078400760D5E86951
:1039A0000027C00008D4E86940F08050E861E86969
:1039B000012700F0805000905C480168C90513D4CD
:1039C0000168834641F480710160FFF7A7FB8246DE
:1039D00006E000BFFFF7A2FBA0EB0A0064284ED868
:1039E000DBF80000C005F5D5E06801280AD008B171
:1039F000052813D0286A20F001002862286A20F0E8
:103A0000040002E0286A40F001002862E06841F208
:103A1000883B98B1FFF782FB82460BE0286A40F0B2
:103A200004002862EEE700BFFFF778FBA0EB0A0175
:103A300059455AD8286A8007F6D50CE0FFF76EFB87
:103A4000824605E0FFF76AFBA0EB0A0159454CD816
:103A5000286A8007F6D41FB1E86920F08050E86139
:103A6000E06988B36968C1F38101022944D0022862
:103A7000C6F8608004D0FFF751FB044638E034E01C
:103A8000FFF74CFB074604E0FFF748FBC01B02288A
:103A90002BD828688001F7D4206AB0F5803F05D183
:103AA0006868A16820F4003008436860D4E9080120
:103AB0000843696821F4741108436860C6F860908F
:103AC000FFF72CFB044606E025E000BFFFF726FBCE
:103AD000001B022809D828688001F7D51BE000BF29
:103AE000FFF71CFB001B022802D90320BDE8F88F5A
:103AF00028688001F4D40EE00128F7D06868226AB3
:103B000000F48031914204D1616A00F4701088425F
:103B100001D00120EAE70020E8E7000000100240A1
:103B200000004242800442420C000020007000402D
:103B3000024850F8210080B270470000006C00403D
:103B4000024800EB810091B201607047006C0040B8
:103B500070B5040003D0607C002610B105E00120A0
:103B600070BD2674204600F03DF8022060742046A7
:103B700000F07AF8042550BB204604F073F930BBFE
:103B80002068416821F007014160A06820B1144815
:103B9000016821F0010101601148001F0168A2685D
:103BA00021F46071114301606068411C04D101205F
:103BB000FFF780FC58B1401E2268C0F303419160BA
:103BC000216880B2C860204604F066F908B16574C7
:103BD000C5E7E67301206073A0736074002070BDB8
:103BE000306C0040F0B51E48C82591B00124046037
:103BF0001C4E306A40F001003062002705E06D1E67
:103C0000ADB20520FFF780F9C5B1306A8007F6D55F
:103C1000A5B104200090079703946846FFF7F8FDCC
:103C20004FF48070CDE90A400AA8FFF79FFC45F2E7
:103C30005001002009F00AFC11B0F0BD08200090EE
:103C4000079703946846FFF7E3FD4FF40070CDE952
:103C50000A400AA8FFF78AFC45F25101E9E7000093
:103C60003C0442420010024070B504000AD02068B3
:103C7000416821F008014160FFF750FA05464FF412
:103C80007A7608E0012070BDFFF748FA401BB04289
:103C900001D9032070BD206840680007F4D50020DA
:103CA00070BD70B5040009D0606A002540B125617F
:103CB0006561A56294F8510040B10CE0012070BD2F
:103CC0006068B0F5827FF4D0E561F2E784F8505087
:103CD000204600F03FF8022084F851002068016877
:103CE00021F040010160A088218900F4827001F474
:103CF00004410843A18901F400610843217C01F0DB
:103D000002010843217D01F001010843218B01F4E8
:103D100000710843217F01F03801084394F8201016
:103D200001F080010843218D01F40051084321680E
:103D30000860A069042101EA1040216848602068F9
:103D4000C16921F40061C1616565012084F85100F9
:103D5000002070BD30B585B0002400940194029419
:103D600003940068174988422AD11748816941F4B1
:103D700080518161816901F480510491816941F030
:103D8000080181618069114D00F00800049028202D
:103D90000090022001900320039069462846FFF717
:103DA000B7F81020CDE90004694628460294FFF7D1
:103DB000AFF80748416841F0E06141F0010141601E
:103DC00005B030BD0030014000100240000C014041
:103DD000000001402DE9FF4F81B01D469346044687
:103DE0004FF001090E9EFFF799F9074694F851002C
:103DF0006168012806D0B1F5827F3CD1A168C9BBBA
:103E0000042838D10298002871D0BBF1000FFBD0F4
:103E1000002DF9D094F8500001282CD04FF0010A61
:103E200084F850A094F85100042802D0052084F8AA
:103E300051004FF00008C4F85480C4F838B0E5874A
:103E4000A58702992163E586A586C4F84080C4F859
:103E5000448020680168490603D4016841F04001AC
:103E60000160E068B0F5006F606808D0F0B3012D24
:103E700049D081E0FFE7022005B0BDE8F08F08B12E
:103E8000012D39D1206B21680088C860206B801C0F
:103E90002063E08E401EE0862EE02068816889075E
:103EA0000FD5E18E69B1B9F1010F0AD1216B0988F3
:103EB000C160206B801C2063E08E401EE0864FF0C6
:103EC000000920688168C9070CD0E18F51B1C06832
:103ED000A16B0880A06B801CA063E08F401EE08770
:103EE0004FF00109FFF71AF9C01B01E00BE067E092
:103EF000B04201D3701C50D1E08E0028CDD1E08FAC
:103F00000028CAD13EE0206B216800780873206B3E
:103F1000401C2063E08E401EE0862DE02068816812
:103F200089070FD5E18E69B1B9F1010F0AD1216B73
:103F300009780173206B401C2063E08E401EE086F0
:103F40004FF0000920688168C9070CD0E18F51B19A
:103F5000C068A16B0870A06B401CA063E08F401E7E
:103F6000E0874FF00109FFF7D9F8C01BB04202D338
:103F7000701C01D011E086B1E08E0028CED1E08F18
:103F80000028CBD13A463146204604F0ABF850B178
:103F90002020606584F8508012E084F851A084F8F5
:103FA0005080032068E7A06818B92068C16880685D
:103FB000009084F851A084F85080606D0028F1D002
:103FC000012059E710B5401EB0F1807F01D30120D8
:103FD00010BD4FF0E02460610F21601706F00DFD69
:103FE0000020A06107202061002010BD70477047AD
:103FF00070B590F83C20012A2CD0012480F83C4078
:10400000022280F83D2003685A689D6822F07006FD
:104010000A6832435A60104B02689A420ED00F4B26
:104020009A420BD0B2F1804F08D00D4B9A4205D086
:104030000C4B9A4202D00C4B9A4204D1496825F0AD
:1040400080031943916080F83D40002180F83C10C6
:10405000084670BD022070BD002C014000340140B4
:104060000004004000080040000C004010B50400AF
:1040700003D094F83D0010B107E0012010BD0020EE
:1040800084F83C00204600F01FF8022084F83D0030
:10409000211D206806F0F6F8012084F8460084F817
:1040A0003E0084F83F0084F8400084F8410084F822
:1040B000420084F8430084F8440084F8450084F802
:1040C0003D00002010BD000008B501681048B1F1A6
:1040D000804F14D00F4A914219D1C16941F01001AB
:1040E000C161C069002200F0100000901146362026
:1040F000FFF7A8F9BDE808403620FFF795B9C16978
:1041000041F00101C161C06900F00100009008BDEB
:10411000001002400010004090F83D10012901D02D
:1041200001207047022180F83D1000680E49884246
:104130000ED00E4988420BD0B0F1804F08D00C4908
:10414000884205D00B49884202D00B49884204D1ED
:10415000816801F00701062903D0016841F00101DF
:104160000160002070470000002C01400034014035
:104170000004004000080040000C004090F83D1092
:10418000012901D001207047022180F83D1001680B
:10419000CA6842F00102CA6000680E4988420ED027
:1041A0000D4988420BD0B0F1804F08D00B498842AE
:1041B00005D00B49884202D00A49884204D181685F
:1041C00001F00701062903D0016841F001010160F7
:1041D00000207047002C01400034014000040040E2
:1041E00000080040000C004070B5044690F83C0008
:1041F0000025012817D0012684F83C60022084F8AD
:104200003D002068826822F0770222F47F428260BB
:104210000868502838D00DDC20284FD005DC90B33A
:10422000102811D14AE0022070BD302846D0402825
:104230000AD13BE060282FD070280DD0B0F5805F08
:1042400003D0B0F5005F12D0012584F83D60002056
:1042500084F83C00284670BDCB68D1E90121206874
:1042600006F06BF82068816841F0770109E0CB68BF
:10427000D1E90121206806F060F82068816841F4E6
:1042800080418160E1E719E0CA684968206806F06A
:1042900029F95021206806E0CA684968206806F0BC
:1042A00032F96021206806F052F8CEE7CA68496802
:1042B000206806F017F940212068F4E722680146DB
:1042C0001046F0E770472DE9F04104460068C668E3
:1042D00005694FF00007A90713D5B10711D5F91EDD
:1042E000016101202077206880698007204602D084
:1042F000FFF7E8FF04E000F0AFF8204600F06AF9AD
:104300002777680716D5700714D521686FF0040069
:104310000861022020772068806910F4407F2046E1
:1043200002D0FFF7CFFF04E000F096F8204600F03F
:1043300051F92777280715D5300713D521686FF075
:1043400008000861042020772068C06980072046A3
:1043500002D0FFF7B7FF04E000F07EF8204600F03F
:1043600039F92777E80616D5F00614D521686FF0DD
:1043700010000861082020772068C06910F4407F91
:10438000204602D0FFF79EFF04E000F065F82046CB
:1043900000F020F92777E80708D0F00706D0216859
:1043A0006FF001000861204600F0AEF9280608D53C
:1043B000300606D521686FF0800008612046FFF7BF
:1043C00015FE680608D5700606D521686FF0400016
:1043D0000861204600F0A2F9A8060AD5B00608D563
:1043E00021686FF0200008612046BDE8F041FFF72A
:1043F000FEBDBDE8F081000000B585B00021009150
:104400000191029103910068B0F1804F1BD10F48D8
:10441000816941F0080181618069694600F0080006
:1044200004904FF40060009002200190039008482F
:10443000FEF76EFD0748416821F4407141F0E061EC
:1044400041F40071416005B000BD00000010024061
:10445000000C014000000140704770B5044690F820
:104460003C0000260D4601280FD0012084F83C00B6
:104470006AB1042A1DD0082A2FD00C2A3FD0012669
:10448000002084F83C00304670BD022070BD2068DA
:1044900005F066FF2068816941F0080181612068AC
:1044A000816921F004018161206881692A691143D1
:1044B00011E0206805F084FF2068816941F4006103
:1044C00081612068816921F480618161206881694E
:1044D0002A6941EA02218161D2E7206805F0A6FF3E
:1044E0002068C16941F00801C1612068C16921F0FB
:1044F0000401C1612068C1692A69114311E0206883
:1045000005F0C8FF2068C16941F40061C1612068FD
:10451000C16921F48061C1612068C1692A6941EAE9
:104520000221C161ACE710B5040003D094F83D004E
:1045300010B107E0012010BD002084F83C002046A7
:1045400000F01EF8022084F83D00211D206805F0CF
:1045500099FE012084F8460084F83E0084F83F006C
:1045600084F8400084F8410084F8420084F8430055
:1045700084F8440084F8450084F83D00002010BD14
:1045800000B50068104985B088421BD10F48816989
:1045900041F008018161816901F008010491C1695C
:1045A00041F00201C161C069022100F002000490E3
:1045B0000120CDE9000102900320039069460448E0
:1045C000FEF7A6FC05B000BD00040040001002404C
:1045D000000C01407047000010B50446022249B1AA
:1045E00004290ED0082913D094F84100012816D0D0
:1045F000012010BD94F83E000128F9D184F83E2036
:104600000FE094F83F000128F2D184F83F2008E041
:1046100094F840000128EBD184F8402001E084F8B0
:1046200041200122206805F07BFE13492068134ACF
:10463000884201D0904203D1436C43F40043436469
:10464000206888420DD090420BD0B0F1804F08D046
:104650000B49884205D00B49884202D00A4988425A
:1046600004D1816801F00701062903D0016841F0F7
:1046700001010160002010BD002C01400034014008
:104680000004004000080040000C004030B5044623
:104690000D460068002205F043FE194B41F211114E
:1046A00020688A10984202D0164B984209D1036ABA
:1046B0000B4206D1036A134203D1436C23F4004337
:1046C00043642068036A0B4206D1016A114203D198
:1046D000016821F00101016001203DB1042D08D0E5
:1046E000082D09D084F84100002030BD84F83E0038
:1046F000FAE784F83F00F7E784F84000F4E70000A9
:10470000002C01400034014000680349884201D177
:1047100007F050BA70470000001000407047704723
:1047200070470000F8B5016804460868CA684B691C
:1047300010F00F0F4FF0000559D003F0010602F4FE
:104740009077374365D0C10705D0D10503D5616C9B
:1047500041F001016164410705D5D90703D0616CBF
:1047600041F002016164810705D5D90703D0616C6E
:1047700041F004016164010707D502F020013143D3
:1047800003D0616C41F008016164616C00293AD08A
:10479000800604D5900602D5204605F0F5FE206877
:1047A0004069616CC0F38010090700D460B32046F3
:1047B00005F0C3FE20684069400621D5206814300A
:1047C00050E8001F21F0400140E80012002AF5D116
:1047D000E06BA8B16D494163E06BFEF75FFA00281A
:1047E00011D0E06B416B01B0BDE8F0400847830693
:1047F0000FD593060DD52046BDE8F84005F0C4BEA0
:104800002046FFF78DFFF8BD2046FFF789FF65645E
:10481000F8BD266B2023012E7CD1C6067AD5D6069C
:1048200078D508684868009048694FF0020640064D
:1048300040D5E16B086840680004000CE8D0A28D08
:104840008242E5D9E085886920282DD020680C3087
:1048500050E8001F21F4807140E80012002AF5D1D1
:104860002068143050E8001F21F0010140E80012D8
:10487000002AF5D12068143050E8001F21F04001D3
:1048800040E80012002AF5D184F842302563206800
:104890000C3050E8001F21F0100140E80012002AFF
:1048A000F5D1E06BFEF7D7F96663A08DE18D401A74
:1048B00081B22AE0A08DE18D401A81B2E08D0028FE
:1048C000A6D00029A4D022680C3252E8000F20F4B0
:1048D000907042E80007002FF5D12068143050E8AE
:1048E000002F22F0010240E80027002FF5D184F8C4
:1048F0004230256320680C3050E8002F22F010026F
:1049000040E80023002BF5D166632046FFF707FF40
:10491000F8BDFFE705062BD5150629D594F841000B
:104920002128F5D1A068B0F5805F01D12069B0B130
:10493000206A411C2162216800784860E08C401E9A
:104940000004000CE084E3D12068C16821F08001FC
:10495000C1602068C16841F04001C160D8E7206AA9
:104960000088C0F308004860206A801C2062E5E7E8
:104970004006CDD55006CBD5CA68204622F040026D
:10498000CA6084F8413000F0B9F8C1E72BA50008EF
:1049900070B5040004D094F84100002510B106E081
:1049A000012070BD84F84050204600F023F82420F8
:1049B00084F841002068C16821F40051C16020469C
:1049C00005F044FE2068016921F4904101612068EE
:1049D000416921F02A0141612068C16841F4005118
:1049E000C1606564202084F8410084F8420065635A
:1049F000002070BD30B585B000240094019402946D
:104A000003940068184988422CD11848816941F400
:104A100080418161816901F480410491816941F0A3
:104A2000040181618069124D00F0040004904FF48C
:104A300000700090022001900320039069462846F0
:104A4000FEF766FA2815CDE9000469462846029467
:104A5000FEF75EFA002211462520FEF7F3FC252022
:104A6000FEF7E2FC05B030BD003801400010024006
:104A70000008014090F84230202B01D002207047FE
:104A800021B11AB10023036305F03CBE0120704739
:104A900030B400681449884224D1144801880A04BB
:104AA00016D4134A4C044FF00003127804D50A2A96
:104AB0000DD141F4004113E00D2A0FD0C1F30D04D4
:104AC0000C4D491C89B22A550180C72900D90380A1
:104AD00030BC012206490848FFF7CCBF41F48041B1
:104AE0000180F5E730BC704700380140100000201D
:104AF00018000020A80B0020B80A00207047FEE72D
:104B0000024A0121024806F027BD0000FD9000087E
:104B10004C05002070B51249002006F09BFB11499E
:104B2000012006F097FB1049022006F093FB4FF49A
:104B3000C8744FF4966522462946002006F00CFB07
:104B400022462946012006F007FB00224FF4FA61B5
:104B5000022006F001FB054901204870087070BD75
:104B6000DD650008ED6B0008817100084405002038
:104B700010B5FEF7D3FA05494A68821AB2F57A7F72
:104B800002D301224A70486010BD00004405002095
:104B9000F0B51B4885B0816941F0100181618169E0
:104BA00001F010010491816941F004018161816982
:104BB00001F004010491816941F00401816180697F
:104BC000002400F0040004902020012503268DE835
:104BD000710069460B48FEF79BF9E8038DE8710008
:104BE000094F69463846FEF793F90220039600956F
:104BF000CDE9014069463846FEF78AF905B0F0BDB7
:104C000000100240001001400008014070B5194832
:104C100086B0816941F004018161816901F004017C
:104C20000491816941F0200181618069124D00F099
:104C30002000049001200190029003204FF4807422
:104C40000390694600942846FEF762F904200B4E53
:104C5000009069463046FEF75BF90122214628465E
:104C6000FEF757FA012204213046FEF752FA06B049
:104C700070BD000000100240000801400014014017
:104C80001CB5044601208DF8000000208DF80400BA
:104C900006F000FA06F0EAF918B115A0FBF792FB4E
:104CA0001CBD19490822A1F1080006F08BFE012263
:104CB00001A9002006F0F0F913490422103901205F
:104CC00006F0EAF99DF804009DF8001088420AD029
:104CD0000E48FBF777FB01226946002006F00DFA2B
:104CE000002003F077FA204603F0BEF91CBD000057
:104CF000323443303220636865636B206661696CCF
:104D00006564210A000000007C0200202CB201082A
:104D10002DE9F0438046164800259946007816464E
:104D20000F462C46012802D0032803D101E050246D
:104D300000E050252A2000F0A1FE08EB050080B21B
:104D400000F091FE701980B200F08DFE2B2000F073
:104D500095FE381980B200F086FE09EB040080B29F
:104D600000F081FEBDE8F0432C2000F087BE00007B
:104D70000401002070B50D4A04464FF08040002524
:104D8000D46082E823001046FFF7CDFB074860217E
:104D900048300C2280E8320001464838FFF75DFBBE
:104DA000BDE870400C210148FFF716BC782D0020AB
:104DB00008B50548F023002100881A4680B200900B
:104DC000084600F07EF808BD000100202DE9FE4FE6
:104DD000161ACDE900104FF000085D1A47464FF053
:104DE000FF30002E02DD4FF0010102E003D14FF051
:104DF00000018B4602E08346C6F10006002D02DD6D
:104E00004FF0010002E003D14FF00000824602E0C3
:104E10008246C5F10005AE4201DD344600E02C4675
:104E2000601C4FF00009029019E000980C9A81B2C2
:104E3000019880B200F018F8B0442F44A04504DD7A
:104E40000198A8EB040858440190A74203DD00989C
:104E50003F1B5044009009F101001FFA80F90299AC
:104E60008945E2DBBDE8FE8F10B514460B460246CD
:104E7000FFF74EFF2046BDE8104000F0F4BD2DE9DD
:104E8000F8431D46089C1646884607460B46009484
:104E9000FFF79CFF3A462B46414610460094FFF729
:104EA00095FF2B463246194638460094FFF78EFF91
:104EB00032462B46414610460094FFF787FFBDE877
:104EC000F8832DE9F04780461F46581E83B21646E8
:104ED000501E82B20C464046DDF82090FFF718FFC6
:104EE0000AE0454604E0484600F0BDFD6D1CADB249
:104EF000B542F8D3641CA4B2BC42F2D3BDE8F0873B
:104F00002DE9F04F85B0484C00200290A06940F098
:104F10001000A061A06900F010000490A06940F0AA
:104F20001000A061A06900F010000490A06940F09A
:104F30001000A061A06900F010000490A06940F08A
:104F40000800A061A06900F008000490A06940F08A
:104F50000800A061A06900F008000490A06940F07A
:104F60000800A061A0694FF0030800F00800CDE937
:104F700003800127A5152D4ECDE90057694630461F
:104F8000FDF7C6FF4FF4007969463046CDF8009032
:104F9000FDF7BEFF4FF4806A69463046CDF800A0A9
:104FA000FDF7B6FF4FF0800B69462148CDF800B001
:104FB000FDF7AEFF69461E480095FDF7A9FFE069C1
:104FC00040F00100E061E06900F001000490A06998
:104FD00040F00800A061A069CDE9027800F0080067
:104FE0000490022001908002009069461048FDF76D
:104FF0008FFF1048416821F4407141F0E06141F4B5
:1050000000714160472140F2E140FFF7B3FE356196
:10501000C6F81090C6F810A005481030C0F800B0CF
:10502000056005B0BDE8F08F00100240001001409F
:10503000000C01400000014030B500224C081DE08A
:105040001D0602D4224492B217E00625B5EB531F89
:1050500003D10A4492B2801C10E00E25B5EB131F59
:1050600003D10A4492B2C01C08E01E25B5EBD30F51
:1050700003D10A4492B2001D00E0401C0378002BCB
:10508000DED1104630BD000038B5FFF739FF724C55
:105090004FF0806020616420FDF736FF201520610D
:1050A0006420FDF731FF6D4C607800F0F5F8642066
:1050B000FDF72AFF112000F0E1FC7820FDF724FF26
:1050C000207800F0FDF83A2000F0D8FC052000F030
:1050D000E1FCB22000F0D2FC1F2000F0DBFC1F201E
:1050E00000F0D8FC002000F0D5FC332000F0D2FC0A
:1050F000332000F0CFFCB72000F0C0FC002000F00F
:10510000C9FCBB2000F0BAFC3F2000F0C3FCC0206B
:1051100000F0B4FC2C2000F0BDFCC22000F0AEFC7E
:10512000012000F0B7FCC32000F0A8FC0F2000F025
:10513000B1FCC42000F0A2FC202000F0ABFCC62093
:1051400000F09CFC132000F0A5FCD02000F096FCA1
:10515000A42000F09FFCA12000F09CFCD62000F0D1
:105160008DFCA12000F096FCE02000F087FCF020F0
:1051700000F090FC062000F08DFC0D2000F08AFC71
:105180000B2000F087FC0A2000F084FC072000F0D0
:1051900081FC2E2000F07EFC432000F07BFC4520AB
:1051A00000F078FC382000F075FC142000F072FC50
:1051B000132000F06FFC252000F06CFC292000F08B
:1051C00069FCE12000F05AFCF02000F063FC0720AD
:1051D00000F060FC0A2000F05DFC082000F05AFCA2
:1051E000072000F057FC232000F054FC2E2000F094
:1051F00051FC332000F04EFC442000F04BFC3A20E0
:1052000000F048FC162000F045FC172000F042FC9E
:10521000262000F03FFC2C2000F03CFCE42000F0B5
:105220002DFC1D2000F036FC002000F033FC002097
:1052300000F030FC212000F021FC0948F02300217F
:1052400000881A4680B200900846FFF73AFEBDE893
:105250003840292000F012BC001001400401002059
:10526000000100202DE9F043C3B01546DDE94A678F
:10527000884681461C464DAA03A84C99FBF776F850
:105280008DE8D0002B4603AA4146484600F065FB56
:1052900043B0BDE8F0830000642800D964200649CB
:1052A00048700649CA680968521C42436420B2FB30
:1052B000F0F008647047000004010020782D002001
:1052C00010B50446032821D811480470362000F098
:1052D000D5FB34B1012C08D0022C08D0032C09D105
:1052E00012E0002000F0D6FB04E0C02000E07020B7
:1052F00000F0D0FBEF2300211A460846FFF708FD17
:10530000BDE81040FFF754BDA020F1E710BD00003C
:10531000040100202DE9FF4F81B00546DDF83C90E7
:1053200000904FEA59074FF00008780700D001209D
:1053300000EBD70000FB09FB203AD0B203900298A3
:1053400002994844401E83B2E819401E82B22846A2
:10535000FFF7DEFC00245DE0B9F10C0F10D0B9F1CD
:10536000100F08D0B9F1180F11D0B9F1200F15D0D6
:10537000B9F1400F17D02B48039900EB011016E04C
:105380000398294900EB400001EB80000FE00398EF
:10539000264900EB400001EB001008E02449039887
:1053A00001EB801003E02349039801EB0020002665
:1053B00010F804A0109800284FF0010000FA06F041
:1053C00000EA0A0011D020B12846049A0299FFF79A
:1053D0004BFD6D1C0098ADB2281AB84214D102984A
:1053E000009D401C80B2029012E008B1049800E0D9
:1053F0000E9800F038FB08F10100C0B2B0FBF7F1E5
:10540000804607FB118050B1761CF6B2082ED1D32E
:10541000641CA4B25C459FD305B0BDE8F08F4FF08B
:105420000008F5E731F90008BDF4000821FF000885
:10543000F1100108B12801082DE9FE4F9A46DDE977
:105440000D4817468B460546DDF8309027E01006DC
:105450002AD50620B0EB521F01D102260AE00E2009
:10546000B0EB121F01D1032604E01E20B0EBD20FD7
:105470001AD104260C2C24D0102C2DD0182C36D068
:10548000202C0FD1CDF80090CDE9014853463A4683
:105490005946284600F0A6F9281985B237443A78CB
:1054A000002AD4D1BDE8FE8FCDF80090CDE90148A7
:1054B0000126534659462846FFF72CFF05EB5400BA
:1054C000EBE7CDF80090CDE9014853463A465946FE
:1054D000284600F017F8DFE7CDF80090CDE9014845
:1054E00053463A465946284600F088F8D4E7CDF8A6
:1054F0000090CDE9014853463A465946284600F007
:10550000F9F8C9E72DE9FF4F83B00446DDE9115AE8
:1055100000904FF00008680700D0012000EBD50094
:1055200068430527DFF8D0900026019006EB46007F
:10553000C0EB461101EB090083460599FBF7C0FA61
:1055400078B1761CB6B2BE42F0D310993F228DE8F6
:1055500022042046069B0499FFF7DCFE07B0BDE855
:10556000F08F049804992844401E83B26019401EAD
:1055700082B22046FFF7CCFB002735E000260BEB7C
:10558000070900BFBAF1000F99F805104FF00100AC
:1055900000FA06F001EA000111D021B12046069A76
:1055A0000499FFF761FC641C0098A4B2201AA84279
:1055B00014D10498009C401C80B2049012E009B100
:1055C000069800E0109800F04EFA08F10100C0B211
:1055D000B0FBF5F1804605FB118048B1761CF6B2B0
:1055E000082ECFD37F1CFFB201988742C6D3B5E700
:1055F0004FF00008F6E70000B18701082DE9FF4FE2
:1056000083B00446DDE9115A00904FF000086807A6
:1056100000D0012000EBD50068430527DFF8D090CB
:105620000026019006EB860000EB461101EB090015
:1056300083460599FBF744FA78B1761CB6B2BE42B0
:10564000F0D310993F228DE822042046069B04994E
:10565000FFF760FE07B0BDE8F08F04980499284476
:10566000401E83B26019401E82B22046FFF750FBF5
:10567000002735E000260BEB070900BFBAF1000F49
:1056800099F805104FF0010000FA06F001EA000158
:1056900011D021B12046069A0499FFF7E5FB641C5E
:1056A0000098A4B2201AA84214D10498009C401C6F
:1056B00080B2049012E009B1069800E0109800F062
:1056C000D2F908F10100C0B2B0FBF5F1804605FB4C
:1056D000118048B1761CF6B2082ECFD37F1CFFB2E2
:1056E00001988742C6D3B5E74FF00008F6E70000FF
:1056F000428801082DE9FF4F83B00446DDE9115AC5
:1057000000904FF00008680700D0012000EBD500A2
:1057100068430627DFF8C890002601904D2000FB63
:10572000069083460599FBF7CBF978B1761CB6B2A3
:10573000BE42F3D310993F228DE822042046069BF7
:105740000499FFF7E7FD07B0BDE8F08F04980499CE
:105750002844401E83B26019401E82B22046FFF7E3
:10576000D7FA002734E000260BEB0709BAF1000F47
:1057700099F805104FF0010000FA06F001EA000167
:1057800011D021B12046069A0499FFF76DFB641CE5
:105790000098A4B2201AA84214D10498009C401C7E
:1057A00080B2049012E009B1069800E0109800F071
:1057B0005AF908F10100C0B2B0FBF5F1804605FBD3
:1057C000118048B1761CF6B2082ECFD37F1CFFB2F1
:1057D00001988742C7D3B6E74FF00008F6E700000C
:1057E000FB8801082DE9FF4F83B00446DDE9115A1B
:1057F00000904FF00008680700D0012000EBD500B2
:1058000068433E27DFF8D0900026019006EB860023
:1058100000EBC61101EB090083460599FBF750F92F
:1058200078B1761CB6B2BE42F0D310993F228DE813
:1058300022042046069B0499FFF76CFD07B0BDE8E3
:10584000F08F049804992844401E83B26019401ECA
:1058500082B22046FFF75CFA002735E000260BEB0A
:10586000070900BFBAF1000F99F805104FF00100C9
:1058700000FA06F001EA000111D021B12046069A93
:105880000499FFF7F1FA641C0098A4B2201AA84208
:1058900014D10498009C401C80B2049012E009B11D
:1058A000069800E0109800F0DEF808F10100C0B2A0
:1058B000B0FBF5F1804605FB118048B1761CF6B2CD
:1058C000082ECFD37F1CFFB201988742C6D3B5E71D
:1058D0004FF00008F6E70000C98A01082DE9FF4FE4
:1058E00083B00026DDE911B81D4682464FEA58070D
:1058F0003446B1462CE0281B401EC1B20A2007F0F6
:1059000022FB0599B1FBF0F00A21B0FBF1F201FB9B
:10591000120026B9691E8C4201DA58B101263030D6
:10592000C2B204FB07A0CDF800B0CDE9018980B276
:10593000109B08E0CDF800B004FB07A0CDE9018979
:10594000109B80B220220499FFF7E4FC641CE4B2AF
:10595000AC42D0D307B0BDE8F08F2DE9FF4F85B042
:105960001446DDE9136B05464FF0000862E0062798
:105970004FF00E094FF01E0A2078010610D4C2B273
:105980008DF80C208DF80D801298641C8DE841086C
:105990002846089B0699FFF7BDFC05EB560048E03A
:1059A000B7EB501F0BD1C0B28DF80C0014F8010FEB
:1059B000002842D08DF80D008DF80E802EE0B9EB56
:1059C000101F11D1C0B28DF80C0014F8010F00287F
:1059D00033D08DF80D0014F8010F00282DD08DF86C
:1059E0000E008DF80F8019E0BAEBD00F28D1C0B2AD
:1059F0008DF80C0014F8010F00281ED08DF80D0052
:105A000014F8010F002818D08DF80E0014F8010FBB
:105A1000002812D08DF80F008DF810801298641CA9
:105A20008DE8410803AA2846089B0699FFF704FD64
:105A3000A81985B22078002899D109B0BDE8F08F67
:105A400012983F228DE841082846089B0699FFF7E7
:105A500061FCA81985B214F8010F0028EDD00006EA
:105A60008AD5641CE6E710B50446000A00F012F877
:105A7000E0B2BDE8104000F00DB8000010B5044CD5
:105A80004FF40001216000F005F88020206010BD77
:105A9000100C0140F0B50C4D4FF080732B600B4A99
:105AA0000021DE135F00941513615FEA006C01D5DD
:105AB000166100E0176114614006491C000EC9B26E
:105AC0000829F1D32C60F0BD100C014000100140FA
:105AD00070B51D49002005F0BDFB1C49012005F0F3
:105AE000B9FB1B49022005F0B5FB4FF4C8744FF415
:105AF000966522462946002005F02EFB22462946BF
:105B0000012005F029FB00224FF4FA61022005F084
:105B100023FB1048104C4078E070142801D8002076
:105B20000CE0282801D8012008E03C2801D80220F8
:105B300004E0502801D8032000E0042005F01CFEFA
:105B400001206070207070BD0D680008356E00087F
:105B500035730008680200206007002010B507496F
:105B6000022005F077FB00224FF4FA61022005F0D5
:105B7000F3FA034801210170417010BDF973000868
:105B80006408002010B50749022005F063FB0022DD
:105B90004FF4FA61022005F0DFFA03480121017099
:105BA000417010BDAF7300084808002070B514495B
:105BB000002005F04FFB1349012005F04BFB124973
:105BC000022005F047FB4FF4C8744FF49665224657
:105BD0002946002005F0C0FA22462946012005F09A
:105BE000BBFA00224FF4FA61022005F0B5FA07482B
:105BF000007805F0C1FD064901204870087070BDAD
:105C0000C1670008E96D0008FF7200086802002003
:105C1000E006002070B51249002005F01BFB114979
:105C2000012005F017FB1049022005F013FB4FF48B
:105C3000C8744FF4966522462946002005F08CFA78
:105C400022462946012005F087FA00224FF4FA6126
:105C5000022005F081FA054901204870087070BDE6
:105C6000756700089D6D0008C9720008780600205D
:105C700070B51249002005F0EDFA1149012005F038
:105C8000E9FA1049022005F0E5FA4FF4C8744FF420
:105C9000966522462946002005F05EFA22462946EE
:105CA000012005F059FA00224FF4FA61022005F0B4
:105CB00053FA054901204870087070BD0967000853
:105CC0002D6D0008777200085806002010B51149A4
:105CD000002005F0BFFA1049012005F0BBFA0F497A
:105CE000022005F0B7FA6422D4002146002005F016
:105CF00033FA64222146012005F02EFA002240F6F4
:105D0000B831022005F028FA0549012048700870D2
:105D100010BD000099660008A96C000825720008F3
:105D20003406002070B51249002005F093FA11499D
:105D3000012005F08FFA1049022005F08BFA4FF48C
:105D4000C8744FF4966522462946002005F004FAEF
:105D500022462946012005F0FFF900224FF4FA619E
:105D6000022005F0F9F9054901204870087070BD5E
:105D700001660008116C0008B97100086405002074
:105D800070B51449002005F065FA1349012005F0AB
:105D900061FA1249022005F05DFA4FF4C8744FF41D
:105DA000966522462946002005F0D6F92246294666
:105DB000012005F0D1F900224FF4FA61022005F02C
:105DC000CBF90748807805F0D7FC064901204870D8
:105DD000087070BD59680008816E0008797300086A
:105DE00068020020F807002070B51249002005F075
:105DF00031FA1149012005F02DFA1049022005F071
:105E000029FA4FF4C8744FF49665224629460020BB
:105E100005F0A2F922462946012005F09DF900224D
:105E20004FF4FA61022005F097F905490120487006
:105E3000087070BD4D6600085D6C0008EF710008C9
:105E4000E405002010B51149002005F003FA1049BF
:105E5000012005F0FFF90F49022005F0FBF964224B
:105E6000D4002146002005F077F964222146012064
:105E700005F072F9002240F6B831022005F06CF905
:105E8000054901204870087010BD000061690008D4
:105E90009D6F0008CB7400080809002010B5114957
:105EA000002005F0D7F91049012005F0D3F90F497A
:105EB000022005F0CFF96422D4002146002005F02D
:105EC0004BF964222146012005F046F9002240F6F4
:105ED000B831022005F040F90549012048700870EA
:105EE00010BD0000F1680008196F000879740008FF
:105EF000E808002070B51249002005F0ABF91149FF
:105F0000012005F0A7F91049022005F0A3F94FF48C
:105F1000C8744FF4966522462946002005F01CF906
:105F200022462946012005F017F900224FF4FA61B4
:105F3000022005F011F9054901204870087070BD74
:105F4000A5680008CD6E0008437400088008002092
:105F500010B51149002005F07DF91049012005F028
:105F600079F90F49022005F075F96422D400214621
:105F7000002005F0F1F864222146012005F0ECF83C
:105F8000002240F6B831022005F0E6F8054901206C
:105F90004870087010BD0000D16900082170000829
:105FA0001D750008280900201CB500240C49009428
:105FB0000A48019408600846FCF787FD08B1FCF721
:105FC00083FC00940022694605480194FCF753FDC8
:105FD000002801D0FCF778FC1CBD000000740040D4
:105FE00048090020114808B5816941F0100181611C
:105FF000816901F010010091816941F02001816106
:10600000816901F020010091816941F00401816101
:10601000816901F004010091816941F00801816109
:10602000806900F00800009008BD000000100240E8
:106030000D4810B50B4901600C49416000214FF437
:1060400080428160C0E9031241618161C1610162E6
:10605000FDF76AF8002803D0BDE81040FCF734BC17
:1060600010BD0000005400405C090020A086010023
:10607000094810B5074901600521416040F63541E6
:106080008160FDF743F9002803D0BDE81040FCF71C
:106090001BBC10BD00300040B00900200A4810B5FC
:1060A000084901604FF0FF3141604FF48071816019
:1060B000FDF74EFD002803D0BDE81040FCF704BCFE
:1060C00010BD000000280040BC09002010B5124C93
:1060D0001048022120604FF4827060600020A060B0
:1060E000C4E90301012161614902A1613821C4E9C8
:1060F00007106062A0620A20E0622046FDF7D1FD31
:1061000008B1FCF7E1FB2068016841F04001016043
:1061100010BD000000300140D009002010B58EB045
:1061200000240794089409940A940B941C2168464F
:106130000C94FAF79EFC21484FF080410160472102
:10614000C0E9011440F2E141C0E9031480218161FA
:10615000FDF78CFF08B1FCF7B7FB4FF480500790B8
:1061600007A91648FEF740F808B1FCF7ADFB134845
:10617000FEF7D9F908B1FCF7A7FB0B940BA90F4860
:106180000C94FDF735FF08B1FCF79EFB60200090F2
:106190006420CDE901040C22694608480494FEF706
:1061A0005CF908B1FCF790FB0C210448FEF714FAE7
:1061B0000248FEF721F90EB010BD0000280A0020A9
:1061C0001CB5002412480094104901940160472135
:1061D000C0E9011440F2E731C16080218161FDF71F
:1061E00045FF08B1FCF770FB00946946084801942C
:1061F000FDF7FEFE08B1FCF767FB0548FDF7BEFFA3
:10620000002801D0FCF760FB1CBD0000001000401E
:10621000700A00200E4810B50C4901604FF4E131BE
:106220004160002181600C22C160C0E904128161DB
:10623000C161FEF7ADFB08B1FCF746FBBDE81040BD
:10624000012204490248FEF715BC00000038014055
:10625000B80A00201800002000B50A4887B08078EE
:1062600007F002F9182208496846FAF7A6FB6846C3
:1062700005F01EFA05F064FA04490120487007B0E1
:1062800000BD000068020020E8AB010844050020C2
:10629000FEE7FEE7054A002011780A2905D20448E6
:1062A00010EB411001D0491C117070470A01002009
:1062B000102E002010B5002005F0BCF9BDE81040FC
:1062C000002005F0B7B910B5002005F0B3F9BDE81E
:1062D0001040002005F0AEB910B5002005F0AAF975
:1062E000BDE81040002005F0A5B90000064810B533
:1062F0004078FEF7D1FF002005F09CF9BDE8104082
:10630000002005F097B900006802002010B50020B9
:1063100005F090F9BDE81040002005F08BB910B5EC
:10632000002005F087F9BDE81040002005F082B993
:10633000024A0621024805F00FB900004D85000809
:1063400068070020114810B58078114C05280ED23E
:10635000DFE800F0030507090B00142008E02820FF
:1063600006E03C2004E0502002E0642000E0607879
:106370006070FEF791FF601C01F05AFF002005F0ED
:1063800059F9BDE81040002005F054B9600700201D
:106390006802002010B5044686B010A0FAF712F883
:1063A0000DF1080C17A318A218A119A08CE80F0072
:1063B00018A11AA0CDE900011AA31CA21DA11EA0BC
:1063C000FAF700F8204603F003FB29A0F9F7FAFFDB
:1063D000204605F06DFB06B0002010BD0A2D2D2DC6
:1063E0002D2D2D2D2D6572726F72206C69737420A6
:1063F0007374617274202D2D2D2D2D2D2D2D2D2D8D
:106400000A0000006D6178006D696E0064656600C9
:1064100076616C0061747472000000006C656E67D8
:106420007468000074797065000000006E616D652D
:10643000000000006964000025347320202020251E
:106440002D32347320252D387320252D38732025C7
:106450002D387320252D31307320252D31307320B8
:10646000252D31307320252D3130730A00000000B6
:106470002D2D2D2D2D2D2D2D6572726F72206C6995
:10648000737420656E64202D2D2D2D2D2D2D2D2D19
:106490002D2D2D0A0000000010B5064A01210648E6
:1064A00005F05AF8BDE810400A224FF47A7103480B
:1064B00005F00ABB09870008680800202D220008A3
:1064C000014805F03DBB00002D22000810B5064A2A
:1064D0000121064805F040F80A22BDE81040642179
:1064E000034805F0F1BA0000758700084C08002049
:1064F000CD240008014805F023BB0000CD2400088E
:10650000084810B5084980780870FEF7D9FE06489B
:1065100001F08EFE002005F08DF8BDE8104000204F
:1065200005F088B8E006002068020020024A052134
:10653000024805F011B80000E1870008E8060020D5
:10654000024A0421024805F007B8000089890008C2
:106550008006002010B5094A0121094804F0FCFF1B
:106560000848FCF741FA002807D041690A78044935
:1065700008398A7080690078C87010BD318B0008B6
:10658000600600207E03002010B50B4A01210B4855
:1065900004F0E2FF0A48FCF727FA084C0C3C28B14B
:1065A00041690988618080690088A080044800886A
:1065B00001F020FAA06010BD798C00084006002090
:1065C0007C030020024A0521024804F0C5BF0000F8
:1065D000B58D00086C0500207047000010B504461A
:1065E00004F0FCFD002808D10221204604F010FE32
:1065F000002802D001490120487010BD4405002048
:1066000070B5064604F0EAFD01240F4D002821462E
:1066100030460CD004F0FCFD18B1012005F0E0F884
:106620006C703046BDE87040022104F0F1BD04F00A
:10663000EFFD0221304604F0EBFD002803D00120DD
:1066400005F0CEF86C7070BD6405002070B506468C
:1066500004F0C4FD01240F4D0028214630460CD023
:1066600004F0D6FD18B1012005F0BAF86C70304680
:10667000BDE87040022104F0CBBD04F0C9FD022149
:10668000304604F0C5FD002803D0012005F0A8F82D
:106690006C7070BDE40500202DE9F041064604F061
:1066A0009DFD0125164F174C00282946304612D073
:1066B00004F0AEFD48B13888A188143080B2884219
:1066C00003D801F097F9A06065703046BDE8F0414D
:1066D000022104F09DBD04F09BFD0221304604F030
:1066E00097FD002809D03888A188401D80B28842D3
:1066F00003D801F07FF9A0606570BDE8F08100006B
:106700007C030020340600202DE9F041064604F009
:1067100065FD0125154F164C00282946304611D03D
:1067200004F076FD40B1B878E178401DC0B28842EF
:1067300002D801F029F965703046BDE8F041022128
:1067400004F066BD04F064FD0221304604F060FDF3
:10675000002808D0B878E178401CC0B2884202D83E
:1067600001F012F96570BDE8F08100007C030020A3
:106770005806002070B5064604F030FD01240F4D88
:106780000028214630460CD004F042FD18B101200B
:1067900005F026F86C703046BDE87040022104F028
:1067A00037BD04F035FD0221304604F031FD0028EC
:1067B00003D0012005F014F86C7070BD780600203D
:1067C00070B5064604F00AFD01240F4D002821464D
:1067D00030460CD004F01CFD18B1012005F000F883
:1067E0006C703046BDE87040022104F011BD04F029
:1067F0000FFD0221304604F00BFD002803D00120DC
:1068000004F0EEFF6C7070BDE006002070B5064627
:1068100004F0E4FC01240F4D0028214630460CD042
:1068200004F0F6FC18B1012004F0DAFF6C70304679
:10683000BDE87040022104F0EBBC04F0E9FC022149
:10684000304604F0E5FC002803D0012004F0C8FF26
:106850006C7070BD6007002070B5064604F0BEFC89
:1068600001240F4D0028214630460CD004F0D0FC06
:1068700018B1012004F0B4FF6C703046BDE87040E0
:10688000022104F0C5BC04F0C3FC0221304604F030
:10689000BFFC002803D0012004F0A2FF6C7070BD83
:1068A000F807002070B5064604F098FC01240F4D4F
:1068B0000028214630460CD004F0AAFC18B1012073
:1068C00004F08EFF6C703046BDE87040022104F089
:1068D0009FBC04F09DFC0221304604F099FC002886
:1068E00003D0012004F07CFF6C7070BD8008002094
:1068F0002DE9F041074604F071FC0126164D174CB6
:1069000000283146384612D004F082FC48B128886D
:10691000A188401D80B2884203D8288003F09CFBE8
:1069200066703846BDE8F041022104F071BC04F005
:106930006FFC0221384604F06BFC002809D028883F
:10694000A188401C80B2884203D8288003F084FBD1
:106950006670BDE8F081000080030020E808002098
:106960002DE9F041074604F039FC0126164D174C7D
:1069700000283146384612D004F04AFC48B16888F5
:10698000A188143080B2884203D8688003F024FBC9
:1069900066703846BDE8F041022104F039BC04F0CD
:1069A00037FC0221384604F033FC002809D06888FF
:1069B000A188401D80B2884203D8688003F00CFB98
:1069C0006670BDE8F0810000800300200809002007
:1069D0002DE9F041074604F001FC01261A4D1B4C3D
:1069E00000283146384618D004F012FC78B1A88847
:1069F000A1881E3080B2884205D94FF4B471B0FB33
:106A0000F1F201FB1200A88003F064FB66703846C7
:106A1000BDE8F041022104F0FBBB04F0F9FB0221C8
:106A2000384604F0F5FB00280CD0A888A188401D4A
:106A300080B2884202D9A0F5B47080B2A88003F079
:106A400049FB6670BDE8F081800300202809002022
:106A500010B504461848007800282CD1204604F0D0
:106A6000BDFB00284FF00101204613D004F0D0FBFD
:106A700028B1002004F04EFD10A0F9F7A3FC02217C
:106A8000204604F0C5FB002815D013A0BDE8104037
:106A9000F9F798BC04F0BCFB10B116A0F9F792FC12
:106AA0000221204604F0B4FB002804D0002004F0AA
:106AB00031FD14A0EAE710BD2C0000204B455930F1
:106AC000206C6F6E672070726573732064657465E7
:106AD000637465640D0A00004B455930206C6F6E7D
:106AE000672070726573732072656C65617365648D
:106AF0000D0A00004B455930207072657373656450
:106B00000D0A00004B4559302072656C6561736554
:106B1000640D0A0010B5044604F060FB00284FF035
:106B20000101204613D004F073FB28B1012004F0CA
:106B3000F1FC10A0F9F746FC0221204604F068FBA6
:106B4000002815D014A0BDE81040F9F73BBC04F0B4
:106B50005FFB10B119A0F9F735FC0221204604F0C3
:106B600057FB002804D0012004F0D4FC19A0EAE768
:106B700010BD00004B6579305F3120636F6D626F2F
:106B8000206C6F6E67207072657373206465746526
:106B9000637465640D0A00004B6579305F312063D2
:106BA0006F6D626F206C6F6E6720707265737320FB
:106BB00072656C65617365640D0A00004B65793020
:106BC0005F3120636F6D626F2070726573736564EF
:106BD0000D0A00004B6579305F3120636F6D626F85
:106BE0002072656C65617365640D0A0010B504461A
:106BF00004F0F4FA002808D10221204604F008FB32
:106C0000002802D001490120487010BD4405002031
:106C100070B5064604F0E2FA01240F4D0028214623
:106C200030460CD004F0F4FA18B1012004F0BAFD9B
:106C30006C703046BDE87040022104F0E9BA04F0FF
:106C4000E7FA0221304604F0E3FA002803D00120DD
:106C500004F0A8FD6C7070BD6405002070B5064698
:106C600004F0BCFA01240F4D0028214630460CD018
:106C700004F0CEFA18B1012004F094FD6C70304697
:106C8000BDE87040022104F0C3BA04F0C1FA022149
:106C9000304604F0BDFA002803D0012004F082FD44
:106CA0006C7070BDE40500202DE9F041064604F04B
:106CB00095FA01251B4F1C4C0028294630460BD065
:106CC00004F0A6FA38B36188388801F114029042C2
:106CD0001AD3143880B21AE004F09AFA022130462E
:106CE00004F096FA00280DD060883988421D914240
:106CF00002D3491F88B201E0814203D900F07AFE35
:106D0000A0606570BDE8F081884204D9084600F0B3
:106D100071FEA06065703046BDE8F041022104F0CC
:106D200077BA00007C030020340600202DE9F041F2
:106D3000064604F053FA0125164F174C0028294641
:106D4000304612D004F064FA48B1A078B978401DFA
:106D5000814204D3491FC8B200F016FE6570304668
:106D6000BDE8F041022104F053BA04F051FA0221C7
:106D7000304604F04DFA002809D0A178B878491CB3
:106D8000884204D3401EC0B200F0FEFD6570BDE82D
:106D9000F08100007C0300205806002070B50646F4
:106DA00004F01CFA01240F4D0028214630460CD077
:106DB00004F02EFA18B1012004F0F4FC6C70304697
:106DC000BDE87040022104F023BA04F021FA022148
:106DD000304604F01DFA002803D0012004F0E2FC44
:106DE0006C7070BD7806002070B5064604F0F6F9A8
:106DF00001240F4D0028214630460CD004F008FA3B
:106E000018B1012004F0CEFC6C703046BDE8704033
:106E1000022104F0FDB904F0FBF90221304604F030
:106E2000F7F9002803D0012004F0BCFC6C7070BDA1
:106E3000E006002070B5064604F0D0F901240F4D9D
:106E40000028214630460CD004F0E2F918B10120A8
:106E500004F0A8FC6C703046BDE87040022104F0DC
:106E6000D7B904F0D5F90221304604F0D1F9002851
:106E700003D0012004F096FC6C7070BD6007002008
:106E800070B5064604F0AAF901240F4D00282146EA
:106E900030460CD004F0BCF918B1012004F082FC9B
:106EA0006C703046BDE87040022104F0B1B904F0C6
:106EB000AFF90221304604F0ABF9002803D00120DD
:106EC00004F070FC6C7070BDF807002070B50646C9
:106ED00004F084F901240F4D0028214630460CD0DF
:106EE00004F096F918B1012004F05CFC6C70304697
:106EF000BDE87040022104F08BB904F089F9022149
:106F0000304604F085F9002803D0012004F04AFC43
:106F10006C7070BD800800202DE9F041074604F038
:106F20005DF901261B4C1C4D0028314638460BD01C
:106F300004F06EF938B3698820884A1D90421BD34B
:106F4000401F80B220801BE004F062F90221384625
:106F500004F05EF900280DD068882188421C914217
:106F600002D3491E88B201E0814203D9208003F098
:106F700073F86E70BDE8F081884204D9218008461C
:106F800003F06AF86E703846BDE8F041022104F063
:106F90003FB9000080030020E80800202DE9F041FF
:106FA000074604F01BF901261B4C1C4D00283146F6
:106FB00038460CD004F02CF940B36988608801F1A0
:106FC000140290421BD3143880B260801BE004F09E
:106FD0001FF90221384604F01BF900280DD06888FB
:106FE0006188421D914202D3491F88B201E081426B
:106FF00003D9608002F0F0FF6E70BDE8F081884236
:1070000004D96180084602F0E7FF6E703846BDE89B
:10701000F041022104F0FCB88003002008090020A0
:107020002DE9F041074604F0D9F80126214D224C04
:107030000028314638460AD004F0EAF858B361888F
:10704000A88801F11E0290421DD31E3827E004F0EB
:10705000DFF80221384604F0DBF800280DD0608804
:10706000A988421D914202D3491F88B201E08142A2
:1070700005D9A88003F02EF86670BDE8F081FCD138
:1070800040F26710F5E7884206D9A9804FEA01006F
:1070900003F020F8667005E004D100F5A57080B219
:1070A000A880F5E73846BDE8F0414FF0020104F052
:1070B000AFB80000800300202809002010B5044666
:1070C0001848007800282CD1204604F087F80028C2
:1070D0004FF00101204613D004F09AF828B10120A6
:1070E00004F018FA10A0F9F76DF90221204604F017
:1070F0008FF8002815D013A0BDE81040F9F762B949
:1071000004F086F810B116A0F9F75CF902212046C8
:1071100004F07EF8002804D0012004F0FBF914A04C
:10712000EAE710BD2C0000204B657931206C6F6EB2
:107130006720707265737320646574656374656439
:107140000D0A00004B657931206C6F6E67207072FC
:107150006573732072656C65617365640D0A000068
:107160004B65793120707265737365640D0A000098
:107170004B6579312072656C65617365640D0A0039
:1071800010B5044604F02AF850B10121204604F05D
:107190003FF8002803D0074801210170417010BD5D
:1071A0000221204604F034F80028F8D0BDE8104051
:1071B00004F0E4B94405002010B5044604F00EF8CC
:1071C00058B10121204604F023F8002804D0012002
:1071D00004F030FA0028FAD010BD0221204604F055
:1071E00017F80028F8D0BDE8104004F0C7B910B572
:1071F000044603F0F3FF50B10121204604F008F8E3
:1072000000280ED0BDE81040012004F013BA02217E
:10721000204603F0FDFF002803D0BDE8104004F035
:10722000ADB910BD10B5044603F0D8FF00284FF0EB
:10723000010120460FD003F0EBFF30B100F098FBC6
:10724000012004F0F7F90028FAD02046BDE81040EC
:10725000022103F0DDBF03F0DBFF0221204603F033
:10726000D7FF002806D000F083FBBDE810400020C7
:1072700004F0E0B910BD10B5044603F0AFFF0028DC
:107280004FF0010120460FD003F0C2FF30B100F0F3
:107290006FFB012004F0CEF90028FAD02046BDE8AB
:1072A0001040022103F0B4BF03F0B2FF02212046D8
:1072B00003F0AEFF002806D000F05AFBBDE81040F6
:1072C000002004F0B7B910BD10B5044603F086FFE6
:1072D00058B10121204603F09BFF002804D0012073
:1072E00004F0A8F90028FAD010BD0221204603F0CE
:1072F0008FFF0028F8D0BDE8104004F03FB910B56A
:10730000044603F06BFF58B10121204603F080FFD3
:10731000002804D0012004F08DF90028FAD010BD17
:107320000221204603F074FF0028F8D0BDE8104089
:1073300004F024B910B5044603F050FF78B10121E0
:10734000204603F065FF002808D00A484078FDF782
:10735000A3FF012004F06EF90028FAD010BD02212D
:10736000204603F055FF0028F8D0BDE8104004F097
:1073700005B900006802002010B5044603F02EFF96
:1073800058B10121204603F043FF002804D001201A
:1073900004F050F90028FAD010BD0221204603F075
:1073A00037FF0028F8D0BDE8104004F0E7B810B56A
:1073B000044603F013FF00284FF0010120460DD0D2
:1073C00003F026FF20B1012004F034F90028FAD0A0
:1073D0002046BDE81040022103F01ABF03F018FF59
:1073E0000221204603F014FF002804D0BDE810401D
:1073F000002004F01FB910BD10B5044603F0EEFEE6
:1074000000284FF0010120460DD003F001FF20B10C
:10741000012004F00FF90028FAD02046BDE8104002
:10742000022103F0F5BE03F0F3FE0221204603F033
:10743000EFFE002804D0BDE81040002004F0FAB8A8
:1074400010BD10B5044603F0C9FE50B1012120461D
:1074500003F0DEFE00280ED0BDE81040012004F04D
:10746000E9B80221204603F0D3FE002803D0BDE88E
:10747000104004F083B810BD10B5044603F0AEFE12
:1074800000284FF0010120460FD003F0C1FE30B1BB
:1074900002F092FD012004F0CDF80028FAD0204639
:1074A000BDE81040022103F0B3BE03F0B1FE02219B
:1074B000204603F0ADFE002806D002F07DFDBDE8B9
:1074C0001040002004F0B6B810BD10B5044603F01B
:1074D00085FE00284FF0010120460FD003F098FEF2
:1074E00030B102F069FD012004F0A4F80028FAD0C0
:1074F0002046BDE81040022103F08ABE03F088FE5A
:107500000221204603F084FE002806D002F054FD3C
:10751000BDE81040002004F08DB810BD10B5044641
:1075200003F05CFE00284FF0010120460FD003F06D
:107530006FFE30B102F040FD012004F07BF800281E
:10754000FAD02046BDE81040022103F061BE03F0EE
:107550005FFE0221204603F05BFE002806D002F009
:107560002BFDBDE81040002004F064B810BD000001
:1075700010B5044603F032FE00284FF0010120460A
:1075800013D003F045FE28B1012003F0C3FF10A083
:10759000F8F718FF0221204603F03AFE002815D024
:1075A00012A0BDE81040F8F70DBF03F031FE10B196
:1075B00015A0F8F707FF0221204603F029FE002856
:1075C00004D0012003F0A6FF13A0EAE710BD0000DD
:1075D0004B657932206C6F6E672070726573732013
:1075E00064657465637465640D0A00004B657932E7
:1075F000206C6F6E672070726573732072656C65A6
:10760000617365640D0A00004B6579322070726504
:10761000737365640D0A00004B6579322072656CE6
:1076200065617365640D0A00024A0321024803F094
:1076300093BF0000558F00080008002010B50948CE
:10764000094C8078A07000B1012005F00DFFA01C4E
:1076500000F0EEFD002003F0EDFFBDE8104000203B
:1076600003F0E8BFF8070020680200202DE9F04190
:1076700017460C46060018D0BFB1184841680029CB
:1076800017D98C4200D98CB205202246314603F02E
:1076900003FD002C1FD01248F8F794FE224611A1DA
:1076A00012A0F8F78FFE00250DE04FF0FF30BDE887
:1076B000F081002411A0F8F785FE0CE0715D1CA09C
:1076C000F8F780FE6D1CA542F8DB1BA0F8F77AFEE8
:1076D0000348F8F777FE3C800020E8E768020020C6
:1076E000C8B10108097265616400000025733A2081
:1076F0005B25645D202D3E20000000004F6E4C6F26
:10770000616443616C6C6261636B3A2052656164D1
:1077100020636F6D706C6574652C20746F74616C80
:10772000206C656E6774683D256C750A000000006A
:1077300025303278200000000A00000010B500F06B
:10774000FDF8BDE81040024A0321024803F004BFDF
:10775000E5920008EC05002000F0D8B82DE9F041D2
:107760000D461C4C07004FF0FF3107D045B1A06813
:107770004219FF2A12D90846BDE8F081002DFAD13E
:1077800014490422091D012003F0B7FC12A061680E
:10779000F8F718FE0020A0600020EDE7401D80B241
:1077A0002A46394603F0A9FC2A4618A119A0F8F781
:1077B00009FE002604E0B95D1AA0F8F703FE761C66
:1077C000AE42F8DB19A0F8F7FDFDA0682844A060E0
:1077D0006060E1E7680200204F6E536176654361A7
:1077E0006C6C6261636B3A205361766520636F6DE8
:1077F000706C6574652C20746F74616C206C656EA0
:107800006774683D256C750A00000000097772698D
:107810007465000025733A205B25645D202D3E20B1
:107820000000000025303278200000000A0000002F
:1078300010B50B4A01210B4803F08EFE0A4CA01C28
:10784000FBF7D2F838B141690A88064908394A80FD
:107850008069008888806088BDE8104002F0BCBB69
:1078600031950008100900208003002010B50B4A54
:1078700001210B4803F070FE0A48FBF7B5F838B158
:1078800041690A88064908394A80806900888880E9
:1078900004480088BDE8104002F0DEBBE595000812
:1078A000F00800208003002010B502F05BFB054AC1
:1078B0000421054803F050FE0348012108384170B7
:1078C000017010BD9D9600088808002002F02EBBB4
:1078D00010B50B4A01210B4803F03EFE0A4C201D57
:1078E000FBF782F838B141690A88064908394A80AD
:1078F000806900888880A088BDE8104002F0EABB5B
:1079000019990008300900208003002010B50821D3
:107910000348FCF7BBFEBDE8104002A0F8F752BDDB
:10792000B80C002050574D2067656E657261746F0A
:10793000722073746F707065640D0A0038B50A4C5C
:10794000208800F057F80546A07800F01DF828467A
:1079500007F0ECF9A2780092248802460B462146F3
:107960000248F8F72FFD38BD7C0300209CBD0108BC
:1079700010B5044800F05CFC0248BDE81040801CD3
:1079800000F056BC7C03002030B4642800D9642089
:107990000C490D4B64248870998989B24A1C424372
:1079A000B2FBF4F2521E1204120C00D101228A42E0
:1079B00000D90A461968CA63014630BC03A0F8F72B
:1079C00001BD00007C030020B80C002044757479D0
:1079D000206379636C6520757064617465642074DC
:1079E0006F20256425252C2050756C73653D25641A
:1079F0000D0A000070B58AB048B34FF47A7188421E
:107A000000D908461F4C07AA08A92080FAF70CFBEA
:107A1000064608211C48FCF739FE1B481B49002577
:107A20000160BDF82010C0E90115BDF81C10C1604F
:107A3000FCF779FDBDF81C10A0784A1C5043642265
:107A4000B0FBF2F0401E0404240C02D002E001203E
:107A5000D8E701248C4200D90C461C216846F9F76E
:107A600008F860208DE83100082269460648049530
:107A7000FCF7F3FC08210448FCF7AEFD0AB03046E1
:107A800070BD00007C030020B80C00200004004002
:107A90002DE9FC47044680790D460B287DD2DFE8AE
:107AA00000F0060F18212A36424E5C698000002043
:107AB000CDE90000227A6946284602F045FE22E020
:107AC0000020CDE90000227A6946284602F03CFEFB
:107AD00025E00020CDE90000227A6946284602F020
:107AE00033FE28E00020CDE90000227A69462846CE
:107AF00002F02AFE2BE00020CDE90000227A694640
:107B0000284602F03FFEE168009808704EE0002031
:107B1000CDE90000227A6946284602F033FEE1688A
:107B20000098088042E00020CDE90000227A6946F2
:107B3000284602F027FEE1680098086036E0002041
:107B4000CDE90000227A6946284602F01BFEDDE9F5
:107B50000001E268C2E9000128E00020E368024673
:107B600015F8011BD600B1400843521C042AF7D374
:107B700018601BE00026D4F80C90B0463746B24699
:107B800015F8010B5146FA00F8F7B7FB06437F1CC6
:107B900041EA0808082FF3D300E00AE0C9E90068C9
:107BA00004E022892946E068F8F7C2FE2089BDE892
:107BB000FC870020FBE72DE9F8430C46002861D044
:107BC000002C5FD0A1790B295CD2DFE801F0060C14
:107BD000151A20252D3238445400217A0091E1688D
:107BE00091F9002004E0217A0091E168B1F90020C8
:107BF000D31700F007FC42E0217A0091E1680A689F
:107C0000F6E7217A0091E168D1E90023F1E7217AD2
:107C10000091E1680A7803E0217A0091E1680A881E
:107C2000002300F004FC2AE0217A0091E1680A6850
:107C3000F6E7217A0091E168D1E90023F1E7E168F4
:107C400000220968D30021FA03F3521C00F8013B1B
:107C5000042AF7D313E0E16807460026D1E900853E
:107C6000F20040462946F8F75BFB761C07F8010B4B
:107C7000082EF5D303E02289E168F8F759FE208940
:107C8000BDE8F8830020FBE77047F0B50023067AD3
:107C90001C46012736B14FF6FF75012E09D0022E82
:107CA0003ED12AE001293BD107728480C4808470D0
:107CB00036E011B1817879B132E002210172C480DD
:107CC0008188028A914203D28178491C817027E021
:107CD000407B80070FD423E081886C1A944201D244
:107CE000858001E0114481808188028A914217D306
:107CF000407BC00714D0012312E0C688A5EB060C18
:107D0000944501D2C58001E03244C280C288C58951
:107D1000AA4202D90123047202E0012900D10772AC
:107D20001846F0BDF0B50024057A2346012625B19A
:107D3000012D09D0022D24D10EE0012921D1067296
:107D40008380C38083701CE0D9B902210172C38093
:107D50008178491C817014E0C5884FF6FF77A7EB46
:107D6000050C944501D2C78001E02A44C280C28834
:107D7000C589AA4202D90124037202E0012900D177
:107D800006722046F0BDF0B50023067A1C464FF679
:107D9000FF75052E36D2DFE806F00306341D3400E9
:107DA000012911D02EE029B181886E1A964204D2A1
:107DB000858004E00221017218E0114481808188ED
:107DC000028A91421ED3032101728480407BC00746
:107DD0000CD117E029B181886E1A964208D28580AD
:107DE00008E004210172407B80070BD5012309E0E4
:107DF00011448180C18929B182888A4202D9848054
:107E0000F4E704721846F0BDF0B50023057A1C466D
:107E100025B1012D0AD0022D22D120E001291FD148
:107E200001728480407BC00710D119E049B1C1893B
:107E3000B1B186884FF6FF75AF1B974208D2858097
:107E400008E002210172407B800709D5012307E089
:107E50003244828082888A4202D98480F6E70472A2
:107E60001846F0BD70B50446FBF758F905464FF4C7
:107E70007A7606E0FBF752F9401BB04201D90320A5
:107E800070BD206840688006F4D52068416841F0E4
:107E900010014160002070BD70B504460068416863
:107EA00021F010014160FBF739F905464FF47A766D
:107EB00007E000BFFBF732F9401BB04201D90320B5
:107EC00070BD206840688006F4D5002070BD0000B9
:107ED0003EB5154C20684068C00706D005F03CF957
:107EE0002068416821F001014160206841688907EC
:107EF00010D5416821F0020141600B48143001782F
:107F0000837842788DE80E00C3798279818807A052
:107F1000F8F758FA2068416821F0040141602068B0
:107F200041688906FCD53EBDDC2D0020416C6172A4
:107F30006D2054696D653A25642D25642D256420D6
:107F400025643A25643A25640A00000070B510489B
:107F50000078B8B920210F48FBF7D6F8A0B100256A
:107F60000D4C4FF400412046FBF7CEF870B10020D5
:107F700045EA400501212046FBF7C6F845EA8000A6
:107F8000012800D0002070BD0125E9E70120EFE7BE
:107F90002C00002000100140000801400248007839
:107FA000012800D0002070472C00002070B5114837
:107FB0000078B8B920211048FBF7A6F8A0B1002539
:107FC0000E4C4FF400412046FBF79EF870B10020A4
:107FD00045EA400501212046FBF796F845EA800076
:107FE000022805D0002070BD0125E9E70120EFE758
:107FF000012070BD2C00002000100140000801404D
:1080000070B520210F48FBF77FF8A8B15FF000059D
:108010000D4C4FF400412046FBF776F870B100207C
:1080200045EA400501212046FBF76EF845EA80004D
:10803000042805D0002070BD0125E9E70120EFE705
:10804000012070BD001001400008014042890189F3
:108050008A4201D2012100E00021142A01D300222A
:10806000428108467047000010B50446C2B00E4871
:10807000F8F7A8F91CB10D490D4803F021FC0020C8
:10808000ADF8000140AA4FF480716846FFF7EEFAA0
:10809000BDF800216946064803F048FC0548F8F79A
:1080A00091F942B010BD000078B201089563000854
:1080B00074020020E4B0010810B588B1817A490744
:1080C0000ED581790A2905D002890169C068F8F7BF
:1080D0002FFC03E00169C068F8F79CFB012010BD8C
:1080E000002010BDF8B515460E460B46009204461A
:1080F0000122022100F010F840B93346002280210D
:108100002046009500F008F8002804D0606D40F08B
:10811000200060650320F8BD2DE9F8431E46914616
:1081200088460446089DFAF7F9FF401B351AFAF70E
:10813000F5FF074625480068C0F3CB30684338E0B8
:10814000701C37D0FAF7EAFFC01BA84203D215B162
:10815000009860B32CE02068416821F0E0014160A4
:108160006068B0F5827F0BD1A068B0F5004F02D0F7
:10817000B0F5806F04D12068016821F040010160F2
:10818000A06AB0F5005F09D12068016821F40051B0
:1081900001602068016841F400510160012084F809
:1081A0005100002084F850000320BDE8F88300252A
:1081B000401E00902068816838EA010004D0002148
:1081C0004945BDD10020F0E70121F9E70C0000206E
:1081D0007047000010B50446C2B01148F8F7F2F835
:1081E0001CB11049104803F06BFB00204090694619
:1081F0000D4803F030FC4090042240A9012002F019
:108200007CFF409881B26846FFF7A8FA00216846D3
:10821000FFF7A4FA0548F8F7D5F842B010BD000002
:10822000C4B20108956300087402002030B101084F
:10823000F0B58DB004004FF0FF365AD001462E48FD
:1082400003F0A4FB050054D0A9882CA02A68F8F7F5
:10825000B9F8A8790B282DD2DFE800F0060F162C0C
:108260000A13192C1C23290094F900102CA001E0FA
:10827000217830A0F8F7A6F81FE0B4F9001032A07A
:10828000F8E7218835A0F5E739A02168F2E73DA09D
:108290002168EFE7206806F049FD02460B463EA044
:1082A00002E0D4E9002341A0F8F78CF805E021466C
:1082B00044A0DFE748A0F8F785F801ACA888FAF7F2
:1082C0009DFB070015D0A8882A8960F31F22022091
:1082D0000090D317204600F0AAF82946FFF76BFC60
:1082E000801C82B2B8B201A902F007FF00200DB0D5
:1082F000F0BD3046FBE70000740200205361766554
:1083000020706172616D3A2049443D25642C204EF5
:10831000616D653D25732C20547970653D0000002A
:10832000494E54382C2056616C75653D25640D0A04
:108330000000000055494E54382C2056616C75657C
:108340003D25750D0A000000494E5431362C20564B
:10835000616C75653D25640D0A00000055494E5459
:1083600031362C2056616C75653D25750D0A00006F
:10837000494E5433322C2056616C75653D256C6432
:108380000D0A000055494E5433322C2056616C754D
:10839000653D256C750D0A00464C4F41542C205606
:1083A000616C75653D252E33660D0A00444F5542BC
:1083B0004C452C2056616C75653D252E336C660D41
:1083C0000A000000535452494E472C2056616C75E8
:1083D000653D25730D0A0000554E4B4E4F574E0D0F
:1083E0000A00000010B5FAF799FEFAF7AFFABDE8F7
:1083F000104003F013BA10B5FAF790FEBDE8104034
:1084000002F0D4BF2DE9F0411546984606460024F7
:10841000069F07E0E20041462846F7F794FF06F87A
:10842000010B641CBC42F5DB3046BDE8F0812DE950
:10843000F0411546984606460024069F07E0E200F4
:1084400041462846F7F76CFF06F8010B641CBC4256
:10845000F5DB3046BDE8F081052812D2094910D27B
:10846000DFE800F0030507090B00142006E02820D0
:1084700004E03C2002E0502000E06420C870FCF7DB
:108480000BBF70476007002010B588B00020069031
:108490001048F7F797FF02AC0FA310A210A111A08C
:1084A00084E80F0010A112A0CDE9000112A314A2CC
:1084B00015A116A0F7F786FF06A9224803F0ACFA2B
:1084C000044601F085FA002CF6D11F48F7F77AFF31
:1084D00008B010BD10B301086D6178006D696E00C1
:1084E0006465660076616C0061747472000000005F
:1084F0006C656E6774680000747970650000000038
:108500006E616D6500000000696400002534732011
:10851000202020252D32347320252D387320252D41
:10852000387320252D387320252D31307320252DCB
:1085300031307320252D31307320252D3130730AD1
:1085400000000000740200207CB101082DE9FF5FEB
:10855000694C0546607800287ED006208DF80C0016
:1085600003A9284603F0D2F869789DF80C00DFF8DB
:108570008CA1B1FBF0F141436068CFB24FF0200B0A
:108580004FF00009874203D001202070676002E0AD
:10859000207800285DD0FCF70BFC287904F018FB4C
:1085A00080462021FCF748FD554BC0F1F00000EB60
:1085B000D0701B88CDF808909BB2CDE9003BBAF88B
:1085C0000010C0F34F008BB2564642460021FDF723
:1085D000C4F93088202380B20090EF221946002091
:1085E000FCF7F4FB00262EE0B81900F0FF08B8F104
:1085F000060F26D205EB8800007B04F0E9FA02465C
:1086000024206B7800EB461081B2434509D1BAF8BB
:108610000000CDF8089080B2CDE9000B3848008802
:108620000BE0DFF8DCC0BCF800C01FFA8CFCCDF812
:1086300000C0CDE901B9BAF8000083B20020FDF70F
:108640008CF9761CB6B29DF80C008642CCD384F827
:1086500000906978A07800E04CE0814246D0C11BD0
:10866000CEB29DF80C108E4217D2062815D205EB1B
:108670008000007B04F0ACFA0246242000EB461197
:108680001F4E3688CDF80890B6B2CDE9006BBAF827
:10869000000083B20020FDF760F96878052802D257
:1086A000FFF7DAFE03E017484078FCF7F5FD68783D
:1086B000C11BCEB29DF80C108E4217D2062815D2DF
:1086C00005EB8000007B04F083FA0246242000EBD7
:1086D0004611BAF800600A48B6B2CDE9006BCDF891
:1086E0000890008883B20020FDF737F96878A07001
:1086F00084F80190BDE8FF9F60070020FC00002087
:108700000001002068020020FEB5174C20780028E8
:1087100029D06078002528B3FCF74AFB222004F01A
:1087200057FA06462021FCF787FC10492022104FFB
:108730000988C0F1F00089B28DE82600398800EB85
:10874000D0708BB2C0F34F0032460021FDF705F91F
:108750003888202380B20090EF2219460020FCF7D1
:1087600035FB65702570FEBD640800200001002007
:10877000FC000020FEB5174C2078002829D0607836
:10878000002528B3FCF714FB212004F021FA06464B
:108790002021FCF751FC10492022104F0988C0F11C
:1087A000F00089B28DE82600398800EBD0708BB2DA
:1087B000C0F34F0032460021FDF7CFF83888202360
:1087C00080B20090EF2219460020FCF7FFFA657096
:1087D0002570FEBD4808002000010020FC0000209C
:1087E0002DE9FF5F654C0546607800287ED00620A5
:1087F0008DF80C0003A9284602F088FF69789DF8DF
:108800000C00DFF87CA1B1FBF0F141436068CFB20E
:108810004FF0200B4FF00009874203D00120207059
:10882000676002E0207800285ED0FCF7C1FA287962
:1088300004F0CEF980462021FCF7FEFB514BC0F13D
:10884000F00000EBD0701B88CDF808909BB2CDE90A
:10885000003BBAF80010C0F34F008BB256464246B8
:108860000021FDF77AF83088202380B20090EF22B3
:1088700019460020FCF7AAFA00262FE0B81900F0EC
:10888000FF08B8F1050F27D205EB8800007B04F044
:108890009FF9024624206B7800EB461081B24345D5
:1088A0000AD1BAF800C037481FFA8CFCCDF800C0D6
:1088B000CDE901B900880BE0DFF8C8C0BCF800C002
:1088C0001FFA8CFCCDF800C0CDE901B9BAF8000060
:1088D00083B20020FDF741F8761CB6B29DF80C007B
:1088E0008642CBD384F80090697800E043E0A0781A
:1088F00081423CD0C11BCEB29DF80C108E4217D2E3
:10890000052815D205EB8000007B04F061F90246D2
:10891000242000EB46111B4E3688CDF80890B6B2E5
:10892000CDE9006BBAF8000083B20020FDF715F81E
:108930006878C11BCEB29DF80C108E4217D2052864
:1089400015D205EB8000007B04F042F9024624209A
:1089500000EB4611BAF800600A48B6B2CDE9006BE8
:10896000CDF80890008883B20020FCF7F6FF687805
:10897000A07084F80190BDE8FF9F0000E006002091
:10898000FC000020000100202DE9FF5F654C05463A
:10899000607800287ED006208DF80C0003A92846B8
:1089A00002F0B4FE69789DF80C00DFF87CA1B1FB01
:1089B000F0F141436068CFB24FF0200B4FF0000957
:1089C000874203D001202070676002E020780028F1
:1089D0005ED0FCF7EDF9287904F0FAF88046202102
:1089E000FCF72AFB514BC0F1F00000EBD0701B8864
:1089F000CDF808909BB2CDE9003BBAF80010C0F367
:108A00004F008BB2564642460021FCF7A6FF308845
:108A1000202380B20090EF2219460020FCF7D6F9FF
:108A200000262FE0B81900F0FF08B8F1040F27D294
:108A300005EB8800007B04F0CBF8024624206B781D
:108A400000EB461081B243450AD1BAF800C037485E
:108A50001FFA8CFCCDF800C0CDE901B900880BE00D
:108A6000DFF8C8C0BCF800C01FFA8CFCCDF800C00D
:108A7000CDE901B9BAF8000083B20020FCF76DFF20
:108A8000761CB6B29DF80C008642CBD384F80090D9
:108A9000697800E043E0A07881423CD0C11BCEB2AF
:108AA0009DF80C108E4217D2042815D205EB8000D9
:108AB000007B04F08DF80246242000EB46111B4E8B
:108AC0003688CDF80890B6B2CDE9006BBAF8000050
:108AD00083B20020FCF741FF6878C11BCEB29DF83D
:108AE0000C108E4217D2042815D205EB8000007BB3
:108AF00004F06EF80246242000EB4611BAF800603C
:108B00000A48B6B2CDE9006BCDF80890008883B270
:108B10000020FCF722FF6878A07084F80190BDE87F
:108B2000FF9F000078060020FC00002000010020CC
:108B30002DE9F04F444D064687B0687800287CD078
:108B400028780024DFF80491DFF804A14FF0200812
:108B500000283FD0FCF72CF9307904F039F883462F
:108B60002021FCF769FAB9F80020029492B2CDE90D
:108B70000028BAF80010C0F1F00000EBD0708BB202
:108B8000C0F34F004F4656465A460021FCF7E5FE1B
:108B90003088202380B20090EF2219460020FCF795
:108BA00015F93988029489B2CDE90018308829A2D4
:108BB00083B228210A20FCF7D0FE3988029489B2BA
:108BC000CDE90018308825A283B26E210A20FCF777
:108BD000C4FE2C7023488678304606F03BFA686065
:108BE000324621A103A8F7F7F9FBB9F80000474680
:108BF00080B2CDE900070294BAF800005A26C846B0
:108C000083B2D14603AA28213046FCF7A6FE686845
:108C100006F08CF802460B4615A103A8F7F7DEFB19
:108C2000B8F80000029480B2CDE90007B9F800005E
:108C300003AA83B26E21304600E002E0FCF78DFE0D
:108C40006C7007B0BDE8F08F5806002000010020CE
:108C5000FC0000205365743A000000005265616C0E
:108C60003A0000007C030020256425252000000038
:108C7000252E3166252520002DE9F04F414D064671
:108C800087B0687800287AD02878DFF8FC90DFF881
:108C9000FCA000244FF02008E8B3FCF789F83079F5
:108CA00003F096FF83462021FCF7C6F9B9F80020AF
:108CB000029492B2CDE90028BAF80010C0F1F00099
:108CC00000EBD0708BB2C0F34F004F4656465A4669
:108CD0000021FCF742FE3088202380B20090EF2272
:108CE00019460020FCF772F83988029489B2CDE960
:108CF0000018308826A283B228210A20FCF72DFE16
:108D00003988029489B2CDE9001830886E2183B287
:108D100021A20A2000E002E0FCF71FFE2C70204890
:108D200020A1028803A8F7F759FBB9F800004746CD
:108D300080B2CDE900070294BAF800005A26C8466E
:108D400083B2D14603AA28213046FCF706FEA86864
:108D500005F0ECFF02460B4614A103A8F7F73EFB13
:108D6000B8F80000029480B2CDE90007B9F800001D
:108D700003AA83B26E213046FCF7EFFD6C7007B09A
:108D8000BDE8F08F3406002000010020FC00002028
:108D90005365743A000000005265613A000000001B
:108DA0007C0300202564487A20000000252E3366CD
:108DB000487A20002DE9FF5F634D0446687800285B
:108DC0007CD006208DF80C0003A9204602F09EFC02
:108DD00062789DF80C10A846B2FBF1F04843C6B289
:108DE0006868DFF868B1DFF8689100254FF0200A65
:108DF000864205D0012188F80010C8F8046003E01D
:108E000098F80030002B5BD0FBF7D2FF207903F0FD
:108E1000DFFE07462021FCF70FF9BBF800300022E7
:108E20009BB20093CDE901A2B9F80010C0F1F000A7
:108E300000EBD0708BB2C0F34F004D463A46002194
:108E4000FCF78BFD2888202380B20090EF22194682
:108E50000020FBF7BBFF002529E07019C7B2052FE2
:108E600023D204EB8700007B03F0B2FE02462420ED
:108E700000EB451081B26078B8424FF0000008D195
:108E8000B9F80070BFB20097CDE901A0BBF80000AF
:108E900007E0BBF80070BFB20097CDE901A0B9F8B8
:108EA000000083B20020FCF758FD6D1CADB29DF8A8
:108EB0000C008542D1D3002088F80000BDE8FF9F58
:108EC00098F8020082423BD0831B921BDFB2D6B2DD
:108ED0008F4216D2052814D204EB8000007B03F0E9
:108EE00077FEBBF8003002469BB2CDE9003A242061
:108EF00000EB47110295B9F8000083B20020FCF79F
:108F00002CFD9DF80C00864217D26078052814D2FB
:108F100004EB8000007B03F05BFEB9F800300246F2
:108F20009BB2CDE9003A242000EB46110295BBF834
:108F3000000083B20020FCF710FD617888F8021071
:108F400088F80150BAE70000640500200001002005
:108F5000FC0000202DE9FF5F654C05466078002885
:108F60007ED006208DF80C0003A9284602F0CEFB27
:108F700069789DF80C00DFF87CA1B1FBF0F141436A
:108F80006068CFB24FF0200B4FF00009874203D04A
:108F900001202070676002E0207800285ED0FBF797
:108FA00007FF287903F014FE80462021FCF744F8DF
:108FB000514BC0F1F00000EBD0701B88CDF8089049
:108FC0009BB2CDE9003BBAF80010C0F34F008BB262
:108FD000564642460021FCF7C0FC3088202380B270
:108FE0000090EF2219460020FBF7F0FE00262FE04C
:108FF000B81900F0FF08B8F1030F27D205EB88007D
:10900000007B03F0E5FD024624206B7800EB461060
:1090100081B243450AD1BAF800C037481FFA8CFC28
:10902000CDF800C0CDE901B900880BE0DFF8C8C079
:10903000BCF800C01FFA8CFCCDF800C0CDE901B926
:10904000BAF8000083B20020FCF787FC761CB6B2A9
:109050009DF80C008642CBD384F80090697800E03C
:1090600043E0A07881423CD0C11BCEB29DF80C10E9
:109070008E4217D2032815D205EB8000007B03F047
:10908000A7FD0246242000EB46111B4E3688CDF882
:109090000890B6B2CDE9006BBAF8000083B20020A8
:1090A000FCF75BFC6878C11BCEB29DF80C108E42B9
:1090B00017D2032815D205EB8000007B03F088FD52
:1090C0000246242000EB4611BAF800600A48B6B206
:1090D000CDE9006BCDF80890008883B20020FCF742
:1090E0003CFC6878A07084F80190BDE8FF9F000008
:1090F000F8070020FC000020000100202DE9F04FBF
:109100006A4895B0417800297ED0804600780024D6
:10911000674D202728B3FBF74BFE032003F058FDD3
:1091200081462021FBF788FF2988624E89B2CDE96C
:10913000001702943188C0F1F00000EBD0708BB2C0
:10914000C0F34F004A460021FCF707FC308820237B
:1091500080B20090EF2219460020FBF737FE88F816
:10916000004003F0F9FF544E54A2F179B079CDE9F3
:109170000001B388202103A8F7F746F9337853A2FA
:10918000042111A8F7F740F9737850A2042112A81E
:10919000F7F73AF9B3784DA2042113A8F7F734F999
:1091A0004CA1D1E90001CDE90F01307A0FA9085C8B
:1091B00003F00EFD034649A210210BA8F7F724F98E
:1091C000202103A8FBF738FFC0F1F00000EBD070BE
:1091D000C0F34F0A20210BA8FBF72EFFC0F1F000CF
:1091E00000EBD070C0F34F0B2888324E80B2CDE92F
:1091F0000007029430884FF0080983B23C2103AA8B
:109200005046FCF7AAFB00E04DE02A8848464FF0A4
:10921000400992B2CDE900290294318811AA8BB29B
:109220006421FCF79AFB2988029489B2CDE90017E2
:1092300031884FF0740A8BB2482029A25146FCF7BE
:109240008CFB2A88029492B2CDE9002931885820FB
:109250008BB212AA6421FCF780FB2988029489B2A0
:10926000CDE90017318898208BB21DA25146FCF73A
:1092700074FB2A88029492B2CDE900293188A82093
:109280008BB213AA6421FCF768FB2888029480B291
:10929000CDE900073088AA2183B20BAA5846FCF713
:1092A0005CFB88F8014015B0BDE8F08F4405002054
:1092B00000010020FC000020F02D00202530346447
:1092C0002D253032642D2530326400002530326483
:1092D000000000000405060708090A0025730000C5
:1092E0003A0000002DE9F04F874D044691B06878B0
:1092F000002872D006208DF80C0003A9204602F049
:1093000005FA62789DF80C10A946B2FBF1F04843CB
:10931000C6B26868DFF8F481DFF8F4A100254FF0E9
:10932000200B864205D0012189F80010C9F804609D
:1093300003E099F80030002B74D0FBF739FD207959
:1093400003F046FC07462021FBF776FE714B002117
:10935000C0F1F0001B8800EBD0709BB20093CDE908
:1093600001B1BAF80010C0F34F008BB255463A462F
:109370000021FCF7F2FA2888202380B20090EF2227
:1093800019460020FBF722FD002540E07019C7B206
:10939000032F3AD204EB8700007B03F019FC01464F
:1093A000242000EB451080B20E908FB1012F15D014
:1093B00006A8F7F72FFA6078B84217D1BAF800007C
:1093C000002180B2CDE9000B52480291008816E0DE
:1093D0000A46B8F8003050A104E01FE098F80230C7
:1093E0000A4650A106A8F6F7F9FFE4E7494A00202B
:1093F000128892B20092CDE901B0BAF8000006AA34
:1094000083B200200E99FCF7A8FA6D1CADB29DF84E
:109410000C008542BAD3002089F8000011B0BDE8E5
:10942000F08FFFE799F8020082424AD0831BDFB237
:109430008F421FD203281DD204EB8000007B03F073
:10944000C7FB014699F80200E8B3012846D005A8F9
:10945000F7F7E0F9242000EB47112E4805AA008811
:10946000029580B2CDE9000BBAF8000083B200206B
:10947000FCF773FA6078811BCEB29DF80C108E4217
:109480001FD203281DD2C0B204EB8000007B03F082
:109490009FFB0146607848B301282CD004A8F7F759
:1094A000B9F9BAF80020242000EB461192B219480D
:1094B000CDE9002B0295008804AA83B20020FCF7B6
:1094C0004CFA617800E004E089F8021089F8015054
:1094D000A4E70A46B8F800300FA103E098F802307C
:1094E0000A4610A105A8F6F779FFB3E70A46B8F8CF
:1094F000003009A103E098F802300A4609A104A847
:10950000F6F76CFFCDE70000E40500207C030020A7
:10951000FC0000200001002025733A20256420482B
:109520007A00000025733A202564252500000000FC
:109530002DE9F041264D804688B06878002844D057
:109540002878244F244E002420B3FBF731FC98F8F0
:10955000040003F03DFB80462021FBF76DFD3988B8
:10956000202289B28DE816003188C0F1F00000EBAE
:10957000D0708BB2C0F34F0042460021FCF7EDF9EA
:109580003088202380B20090EF2219460020FBF79C
:109590001DFC2C70114812A1428803A8F6F71EFF8B
:1095A00003A8F7F75BF93A88402392B28DE81C00D4
:1095B0008001F0213288A1EB500093B2C0F34F003C
:1095C000582103AAFCF7C9F96C7008B0BDE8F08116
:1095D0000809002000010020FC000020800300207A
:1095E000256400002DE9F041264D804688B068785A
:1095F000002844D02878244F244E002420B3FBF7C1
:10960000D7FB98F8040003F0E3FA80462021FBF72B
:1096100013FD3988202289B28DE816003188C0F107
:10962000F00000EBD0708BB2C0F34F004246002137
:10963000FCF793F93088202380B20090EF2219467E
:109640000020FBF7C3FB2C70114812A1028803A86D
:10965000F6F7C4FE03A8F7F701F93A88402392B25F
:109660008DE81C008001F0213288A1EB500093B2FC
:10967000C0F34F00582103AAFCF76FF96C7008B0D3
:10968000BDE8F081E808002000010020FC00002077
:10969000800300202564487A000000002DE9F04F87
:1096A000914D044695B06878002875D006208DF855
:1096B0002C000BA9204602F029F862789DF82C10A6
:1096C000A946B2FBF1F04843C7B26868874DDFF89E
:1096D00020A24FF0200B4FF00008874205D0012157
:1096E00089F80010C9F8047003E099F80030002BE5
:1096F0007DD0FBF75DFB207903F06AFA202104900E
:10970000FBF79AFC7B4B0022C0F1F0001B8800EBBA
:10971000D0709BB20093CDE901B2BAF80010C0F34B
:109720004F008BB256460021049AFCF716F9308898
:10973000202380B20090EF2219460020FBF746FB61
:10974000002649E0B81900F0FF08B8F1040F41D233
:1097500004EB8800007B03F03BFA0146242000EB79
:10976000461080B205905FEA080016D0012818D094
:10977000B8F1020F1CD00CA8F7F74CF861784FF045
:109780000000414518D1BAF8002092B20092CDE90C
:1097900001B05848008817E025E00A462B8856A1FA
:1097A00002E06B880A4657A10CA8F6F717FEE5E71A
:1097B0000A46AB8855A1F7E74E4A128892B200924A
:1097C000CDE901B0BAF800000CAA83B200200599D7
:1097D000FCF7C3F8761CB6B29DF82C008642B1D3D4
:1097E000002089F8000015B0BDE8F08FFFE799F878
:1097F0000200824252D0C31BDEB28E4222D2042823
:1098000020D204EB8000007B03F0E2F9014699F8D6
:109810000200E8B301284BD0022850D00CA8F6F77C
:10982000F9FF344B242000EB46111B88CDF808804B
:109830009BB2CDE9003BBAF800000CAA83B200202D
:10984000FCF78BF86078C11BCEB29DF82C108E42CD
:1098500024D2042822D2C0B204EB8000007B03F0A3
:10986000B7F90146607870B3012831D0022836D0AC
:1098700003A8F6F7CFFFBAF80030242000EB46111A
:109880009BB21C48CDE9003BCDF80880008800E081
:109890000AE083B203AA0020FCF75FF8617889F838
:1098A000021089F801809EE70A462B8812A102E087
:1098B0006B880A4613A10CA8F6F790FDB1E70A469B
:1098C000AB8812A1F7E7FFE70A462B880AA102E05E
:1098D0006B880A460BA103A8F6F780FDCBE70A4682
:1098E000AB880AA1F7E70000800800208003002071
:1098F000FC0000200001002025733A202564204848
:109900007A00000025733A202564000025733A2070
:109910002564C2B0000000002DE9F041264D8046CC
:1099200088B06878002844D02878244F244E00243A
:1099300020B3FBF73DFA98F8040003F049F980469C
:109940002021FBF779FB3988202289B28DE81600A7
:109950003188C0F1F00000EBD0708BB2C0F34F0043
:1099600042460021FBF7F9FF3088202380B20090A7
:10997000EF2219460020FBF729FA2C70114812A19A
:10998000828803A8F6F72AFD03A8F6F767FF3A884E
:10999000402392B28DE81C008001F0213288A1EBB7
:1099A000500093B2C0F34F00582103AAFBF7D5FF34
:1099B0006C7008B0BDE8F08128090020000100208B
:1099C000FC000020800300202564C2B000000000DD
:1099D0007FB504007AD0A0790B2878D2DFE800F0B8
:1099E00006366087B4D9F3F2F1F0EF00A07AF8F709
:1099F000EFFAE1682289E8A391F900100092CDE91D
:109A00000101A188E6A02268F6F7DCFCA07A4007F5
:109A100004D5206990F90010EBA001E0ECA1EDA0C5
:109A2000F6F7D0FCA07AC00609D5606990F900105D
:109A3000E5A0F6F7C7FCA06990F900102EE0E4A1BC
:109A4000E4A0F6F7BFFCE2A1E2A0CCE0A07AF8F730
:109A5000BFFAE1682289E1A3B1F900100092CDE9D3
:109A60000101A188CEA02268F6F7ACFCA07A4007DD
:109A700004D52069B0F90010D3A001E0D4A1D5A08D
:109A8000F6F7A0FCA07AC006D9D56069B0F900103D
:109A9000CDA0F6F797FCA069B0F90010CAA0A2E02B
:109AA000A07AF8F795FAE1682289CEA309680092B6
:109AB000CDE90101A188BAA02268F6F783FCA07A5B
:109AC000400705D520690168BFA003E062E18CE092
:109AD000BFA1C0A0F6F776FCA07AC006AFD560693A
:109AE0000168B9A0F6F76EFCA0690168D6E7A07A14
:109AF000F8F76EFAE168BDA3D1E90021CDE90221B2
:109B00002189CDE90010A188BAA02268F6F75AFC95
:109B1000A07A400706D52069D0E90023BFA0F6F758
:109B200051FC03E0AAA1ABA0F6F74CFCA07AC0065A
:109B300085D56069D0E90023B8A0F6F743FCA06999
:109B4000D0E90023B5A00DE1A07AF8F741FAE16869
:109B50002289B5A309780092CDE90101A188B4A0BA
:109B60002268F6F72FFCA07A400703D52069017818
:109B7000B9A001E096A10BE1F6F724FCA07AC0069B
:109B8000ACD560690178B4A0F6F71CFCA069017837
:109B900028E0A07AF8F71CFAE1682289B0A30988C6
:109BA0000092CDE90101A188A1A02268F6F70AFC84
:109BB000A07A400708D520690188A7A006E0D4E074
:109BC000A4E06AE03CE016E081A182A0F6F7FAFB8F
:109BD000A07AC006ACD5606901889FA0F6F7F2FBB9
:109BE000A06901889CA0F6F7EDFB04B09FA0BDE83A
:109BF0007040F6F7E7BBA07AF8F7EAF9E168228946
:109C00009BA309680092CDE90101A18888A0226880
:109C1000F6F7D8FBA07A400703D5206901688EA02B
:109C200001E06BA16BA0F6F7CDFBA07AC006A7D52B
:109C30006069016888A0F6F7C5FBA0690168D1E7F3
:109C4000A07AF8F7C5F9E1688CA3D1E90021CDE944
:109C500002212189CDE90010A1888BA02268F6F7A6
:109C6000B1FBA07A400706D52069D0E9002390A077
:109C7000F6F7A8FB03E056A156A0F6F7A3FBA07ADF
:109C8000C006A7D56069D0E9002389A0F6F79AFB42
:109C9000A069D0E9002386A064E0E068006805F0D0
:109CA00045F805460E46A07AF8F792F9CDE9025636
:109CB00002462089CDE90002A18880A381A0226804
:109CC000F6F780FBA07A400709D52069006805F007
:109CD0002DF802460B4685A0F6F774FB03E03CA185
:109CE0003CA0F6F76FFBA07AC006A0D560690068BB
:109CF00005F01CF802460B467CA0F6F763FBA06952
:109D0000006805F013F802460B462AE0A07AF8F73F
:109D10005FF9E16877A3D1E90021CDE9022121892A
:109D2000CDE90010A18867A02268F6F74BFBA07A66
:109D3000400706D52069D0E900236CA0F6F742FB66
:109D400003E023A123A0F6F73DFBA07AC00698D537
:109D50006069D0E9002365A0F6F734FBA069D0E97B
:109D6000002362A0F6F72EFB3FE7A07AF8F730F960
:109D70002289E1680092CDE90101A1885FA361A079
:109D80002268F6F71FFBA07A40077FF5F3AE216942
:109D900010A0F1E67FBD0000696E74385F740000AA
:109DA00020252D3464202020252D32347320252DAC
:109DB00031307320252D366420252D387320252D34
:109DC0003130642000000000252D31306420000077
:109DD0002D000000252D313073200000696E743194
:109DE000365F7400696E7433325F7400696E743666
:109DF000345F740020252D3464202020252D32343A
:109E00007320252D31307320252D366420252D38E3
:109E10007320252D31306C6C64200000252D3130ED
:109E20006C6C64200000000075696E74385F74000B
:109E300020252D3464202020252D32347320252D1B
:109E400031307320252D366420252D387320252DA3
:109E50003130752000000000252D313075200000C4
:109E600075696E7431365F74000000000A000000EE
:109E700075696E7433325F740000000075696E742A
:109E800036345F740000000020252D34642020202B
:109E9000252D32347320252D31307320252D366445
:109EA00020252D387320252D31306C6C7520000055
:109EB000252D31306C6C752000000000666C6F61E0
:109EC0007400000020252D3464202020252D3234FC
:109ED0007320252D31307320252D366420252D3813
:109EE0007320252D3130662000000000252D3130F3
:109EF00066200000646F75626C650000737472699F
:109F00006E67000020252D3464202020252D32345A
:109F10007320252D31307320252D366420252D38D2
:109F20007320252D313073200000000010B5002172
:109F30000348F8F771FEBDE8104002A0F6F742BAF8
:109F4000640D002053696E65207761766520676532
:109F50006E657261746F722073746F707065640DDA
:109F60000A00000070B50F4C6421608801F082FE89
:109F70002088642148430C490C4AB1FBF0F0401E94
:109F800085B20B49012001F0F7FE0022294664202A
:109F900001F0B6FEA38862882188BDE870400548BC
:109FA000F6F710BA8003002000A24A04780D0020C2
:109FB0000874004084BE010810B50648FEF738F961
:109FC000044CA01CFEF734F9201DBDE81040FEF73C
:109FD0002FB900008003002070B50446642801D228
:109FE000642404E04FF40060844200D904460E4D1E
:109FF00000210E486C80F8F70FFE6421204601F026
:10A0000039FE28886421484309490022B1FBF0F059
:10A01000401E81B2642001F073FE2146BDE870400D
:10A0200004A0F6F7CFB9000080030020640D0020E3
:10A0300000A24A0453696E65207761766520616DE0
:10A04000706C6974756465207570646174656420F2
:10A05000746F2025640D0A0070B5040047F230507B
:10A060001BD0844200D904460D486421048004FBBF
:10A0700001F00C49B1FBF0F0401E85B200210A4806
:10A08000F8F7CAFD00222946642001F039FE214676
:10A09000BDE8704005A0F6F795B90124E4E700009B
:10A0A0008003002000A24A04640D002053696E65FD
:10A0B0002077617665206672657175656E637920BB
:10A0C0007570646174656420746F202564487A0D2E
:10A0D0000A0000004FF4B471884200D908460349D1
:10A0E000888001460248F6F76DB900008003002021
:10A0F00030BE0108F9F740B970B596B0282168461E
:10A10000F6F7B7FC14210AA8F6F7B3FC18210FA83C
:10A11000F6F7AFFC01240D20009000254FF48030AD
:10A12000CDE902540190049402260694CDE907601B
:10A130004FF4E01009906846F9F76AFB08B172B66F
:10A14000FEE70F20CDE90A064FF48060CDE90C5000
:10A1500002210AA80E95F9F77FFA08B172B6FEE758
:10A160004FF48070CDE90F400FA8F9F7FFF90028F0
:10A1700001D072B6FEE716B070BD704710B5F8F7A3
:10A18000A9FA0A4841684820884700F083FF02F096
:10A19000E3FE0120FAF774FDFEF776F9FAF774FF93
:10A1A000F7F70AFFBDE81040FCF756B8340400206A
:10A1B0001CB5F8F78BFBF8F7F5FB482001F054FECF
:10A1C0004FF4E13003F006FA03F062F800211420A6
:10A1D000CDE900010A230F22082140F2E97003F0C3
:10A1E000C5F8084841684820884740F635410520B1
:10A1F00002F080FEBDE81C4041F61F41C72002F07E
:10A20000F7BC00003404002010B501F0AFFC0522BB
:10A210001421094801F058FC06221421074801F0D6
:10A2200053FC05224FF47A71054801F04DFCBDE85E
:10A23000104001F0FFBC0000E5830008F783000830
:10A24000CFA9000810B50A4C2068C068C043C007F9
:10A2500009D10848006980472168002048622168C8
:10A260006420C862E06021686FF00100086110BDE1
:10A270005C2F0020340400200148FAF724B80000C5
:10A28000700A0020F0B50268204C214D214E224F6B
:10A29000224B4FF0804CA04209D0984207D0604535
:10A2A00005D0A84203D0B04201D0B84204D122F078
:10A2B000700E4A6842EA0E02A04209D0984207D0C6
:10A2C000604505D0A84203D0B04201D0B84203D1C6
:10A2D00022F44075CA682A434D6922F080022A435D
:10A2E00002608A68C2620A688262A04201D0984213
:10A2F00001D109690163012141610169C90703D0E5
:10A30000016921F001010161F0BD0000002C014054
:10A310000004004000080040000C004000340140F0
:10A3200010B501F01F030121046A99408C430462B7
:10A33000016A9A401143016210BD10B5846842EA77
:10A34000032224F47F440A432243826010BD8268C2
:10A3500022F070020A4342F007018160704700005A
:10A36000F0B5036A026A22F001020262426884695F
:10A37000124E24F073050C682C4323F002058B6801
:10A380002B430D4DA84201D0B04205D123F0080760
:10A39000CB683B4323F00403A84201D0B04205D16F
:10A3A0004D6922F4407215438A692A4342608461F0
:10A3B000496841630362F0BD002C01400034014054
:10A3C000F0B5026A036A23F01003036243688469EC
:10A3D0000D6824F4E64444EA05248D6822F0200246
:10A3E00042EA05120F4D104EA84201D0B04206D1EC
:10A3F000CF6822F0800242EA071222F04002A8420F
:10A4000001D0B04207D14D6923F4406343EA85038C
:10A410008D6943EA85034360846149688163026210
:10A42000F0BD0000002C014000340140F0B5026A8C
:10A43000036A23F4807303624368C46922F40072E0
:10A4400024F073050C68124E2C438D6842EA0522F5
:10A450000E4DA84201D0B04206D1CF6822F400626E
:10A4600042EA072222F48062A84201D0B04207D11A
:10A470004D6923F4405343EA05138D6943EA0513FC
:10A480004360C4614968C1630262F0BD002C0140B1
:10A490000034014030B5046A026A22F4805202623C
:10A4A0004268C3690D6823F4E64343EA05238D68D7
:10A4B00024F4005444EA0534084DA84202D0084D63
:10A4C000A84204D14D6922F4804242EA85124260DA
:10A4D000C36149680164046230BD0000002C014082
:10A4E0000034014010B5036A046A24F001040462D8
:10A4F000846924F0F00444EA021423F00A020A43B7
:10A500008461026210BD10B5036A046A24F010046D
:10A510000462846923F0A00324F4704444EA023204
:10A5200043EA01118261016210BD10B5406A002149
:10A53000C185C184FAF7F4F810BD01680C3151E807
:10A54000002F22F4907241E80023002BF5D101681E
:10A55000143151E8002F22F0010241E80023002BC2
:10A56000F5D1016B012909D101680C3151E8002FA7
:10A5700022F0100241E80023002BF5D1202180F8C1
:10A58000421000210163704708B590F8421022295B
:10A5900001D0022008BD82684FF480539A4201D155
:10A5A000016921B1816A9A421BD04AB10AE002686E
:10A5B000816A5268C2F308020A80816A891C08E035
:10A5C000026972B10268526802F07F020A70816A01
:10A5D000491C8162C18D491E0904090CC18503D043
:10A5E0001BE002685268F1E70168CA6822F02002A5
:10A5F000CA600168CA6822F48072CA6001684A6948
:10A6000022F001024A61202180F8421000214163BA
:10A61000026B012A03D0FAF73BFA002008BD016360
:10A6200001680C3151E8002F22F0100241E80023AC
:10A63000002BF5D101680A68D20602D50A6849687C
:10A640000091818DFAF76BF8E7E7000070B50446DA
:10A6500000680169E26821F44051114301612169F8
:10A66000A0680843616908432168CA6841F20C6325
:10A670009A430243CA6020684169A26921F440718B
:10A68000114341611E492068884202D1F9F78AF8D6
:10A6900001E0F9F777F800EBC00101EB0012606808
:10A6A00064218000B2FBF0F3B3FBF1F36FF0180606
:10A6B0007343B2FBF0F5B2FBF0F605EB83053223F2
:10A6C00003EB0515B5FBF1F5B6FBF1F605F0F0056A
:10A6D00005EB0615B2FBF0F6B2FBF0F0B0FBF1F0C3
:10A6E0006FF01802504306EB800003EB0010B0FB44
:10A6F000F1F0216800F00F002844886070BD000070
:10A700000038014081628285C28500214164222196
:10A7100080F84210016921B10168CA6842F4807270
:10A72000CA6001684A6942F001024A610068C16872
:10A7300041F02001C1600020704700000148F9F796
:10A74000F1BF0000B80A00202DE9F04106460020C4
:10A750000D461746C5E90000044680460DE000BFDF
:10A7600016F8010B4146E200F5F7C7FDD5E90023D5
:10A7700010431943C5E90001641CBC42F0DB3046BC
:10A78000BDE8F0812DE9F041064600200D46174650
:10A79000C5E90000044680460DE000BF16F8010B35
:10A7A0004146E200F5F7A9FDD5E90023104319431E
:10A7B000C5E90001641CBC42F0DB3046BDE8F08115
:10A7C000FEE770B50446807A0D46C0061CD5A17917
:10A7D00000200B2918D2DFE801F00618273747526E
:10A7E000606B7B8FA000D5E90001626992F90020BF
:10A7F000D317821A71EB03027DDBA26992F9002064
:10A80000D317101A8B4175DB99E06269D5E9001006
:10A81000B2F90020D3178A1A70EB03026BDBA2692E
:10A82000B2F90030DA171BE06269D5E9001012684E
:10A83000D3178A1A70EB030276DBA2691268D3176A
:10A84000511A834179DB7AE0D5E900106369D3E9D5
:10A8500000238A1A70EB030266DBA269D2E9003298
:10A86000591A824169DB6AE06369D5E900211B78E6
:10A87000D31A71EB000357D3A3691B7809E063690E
:10A88000D5E900211B88D31A71EB00034CD3A369CF
:10A890001B889A1A884150D351E06369D5E9002199
:10A8A0001B68D31A71EB00033ED3A3691B68F0E762
:10A8B0006269D5E90010D2E90032CB1A70EB0202CE
:10A8C00032D3A269D2E90032591A824135D336E037
:10A8D0006069006804F02AFAD5E9002304F0FAF868
:10A8E00022D3A069006804F021FAD5E9002303F01F
:10A8F000B7FF24D221E017E06069D0E90023D5E951
:10A90000000103F0ADFF0FD3A069D0E90023D5E922
:10A91000000104F0DFF812D20FE02846F5F79EFFA1
:10A9200061690978884201D2012070BD2846F5F797
:10A9300095FFA1690978884201D9022070BD0020E5
:10A9400070BD00007FB5054600200C4600900190C8
:10A9500002900390A9790B2937D2DFE801F00609AC
:10A96000101E1214181E1A1E210094F9000001E096
:10A97000B4F900005FEAE071CDE900011FE0206852
:10A98000F8E7217800E02188CDE9001017E0216880
:10A99000FAE7206804F0CAF9EEE7D4E90001EBE732
:10A9A0002046F5F75BFF0F2801D30E2002E020467A
:10A9B000F5F754FF024621466846F5F7B9FF6946A8
:10A9C0002846FFF7FEFE04B070BD0020FBE702F052
:10A9D0008BBA490050EAC12018BF04204A0D18BFA5
:10A9E00040F0010040F2FF72B2EB515F08BF40F04F
:10A9F0000200012808BF052070470907090E00283A
:10AA000004DB00F1E02080F80014704700F00F0034
:10AA100000F1E02080F8141D704700002DE9F74F89
:10AA2000144694B00021C4E902111599079121F050
:10AA30000045C9498D4206DC1599C4E9000117B0EB
:10AA40000020BDE8F08FC549DFF814A3A9423CDD22
:10AA50000799C44E0029C44FC44A1599534619DDBD
:10AA600004F07AF8554506D0C14AC24B04F074F898
:10AA7000C4E900010AE04FF0D352BE4B04F06CF879
:10AA800032463B4604F068F8C4E9000117B00120E3
:10AA9000BDE8F08F03F076FC554506D0B44AB54BBF
:10AAA00003F070FCC4E900010AE04FF0D352B14B4F
:10AAB00003F068FC32463B4603F064FCC4E9000145
:10AAC00017B04FF0FF30BDE8F08FAB49A9421599A0
:10AAD00078DB21F0004183468846A84AA84B03F062
:10AAE000FBFE0022A74B03F04DFC03F05FFE099034
:10AAF00003F08BFE06460F469C4A534603F0ECFEDD
:10AB000043465A4604F01CF880468A46984A994BB8
:10AB10003046394603F0E0FE2A0D01250B924246ED
:10AB2000534604F00DF8032DC4E9000139D00B9809
:10AB3000C1F30A51401A05EB45111139814230DA4F
:10AB40009148C346784400EB0510CDF80CA00C905A
:10AB5000D0E900233046394603F0BEFE02460B46DC
:10AB6000049106905846039903F0F6FF80468A4602
:10AB700002460B465846039903F0EEFF049B069AE3
:10AB800003F0EAFF83460C9803913946D0E902238B
:10AB9000304603F0A1FE5A46039B03F0DDFF6D1C17
:10ABA000BDE707980028A2BF099817B0BDE8F08F4D
:10ABB000616881F000416160099817B04042BDE8CA
:10ABC000F08FFFE784461598C1F31301C0F30A50D4
:10ABD000A0F2F5304FEA601800F01F06C6F1200021
:10ABE000139000200690079041F4801E05206D46CA
:10ABF00076B1664A08EB00017A4452F8213002EB44
:10AC00008101B3404A68139922FA01F1194305E022
:10AC10005F4908EB0002794451F82210A1FB0E278E
:10AC2000A1FB0C131A449A4234BF0123002303EB07
:10AC3000070A05EB8003D3E901B70F448F4234BF05
:10AC40000121002193448B4411B1934502D903E0C3
:10AC5000934501D2012100E00021C3E901B751442D
:10AC600045F82010011EA0F10100C1DC0298059FEB
:10AC700000F10050800F12900298DDE90356800029
:10AC800003F0C3FD834628460D9103F0D5FD6FF018
:10AC90001D0204F0A8FBCDE90E01304603F0CCFD07
:10ACA0006FF03D0204F09FFB80468A46384603F071
:10ACB000C3FD6FF05D0204F096FB07464246534623
:10ACC000119103F05FFBDDE90E2303F05BFB5A46B5
:10ACD0000D9B03F057FB00250E465A4628460D9B58
:10ACE00003F03AFFDDE90E2303F036FF42465346F8
:10ACF00003F032FF3A46119B03F022FFDFF898A0E1
:10AD0000244A534603F0E8FD07468846234A244B6D
:10AD10003146284603F0E0FD3A46434603F032FB55
:10AD2000074688464FF0A84253463146284603F06E
:10AD3000D3FD3A46434603F025FB159A12F0004F27
:10AD400004D0129A81F0004152421292C4E90001EB
:10AD5000129817B0BDE8F08FFB21E93F7CD9024083
:10AD6000FB21F93F7370032E8A19A33B0000405466
:10AD70003163621A61B4D03DFB21394183C8C96D8A
:10AD8000305FE43F0000E03F30010100AC00010013
:10AD90008E000100182D4454FB21F93D3326A611E5
:10ADA000460B113C2DE9FF4D21F0004807460C46AB
:10ADB000B8F1795F08DA03F0F9FC002801BF002040
:10ADC000324904B0BDE8F08D3A4623461046194694
:10ADD00003F082FD054602462D480E460B4606212D
:10ADE000784400F05DF82A46334603F075FDDDE94E
:10ADF000022382468B463846214603F06DFD044609
:10AE00000F4652465B462846314603F065FD224612
:10AE10003B4603F0A1FE07468A464FF0FF32284624
:10AE2000314604F0E0FA1B4A90450ADA3A465346A6
:10AE300003F092FE04B00022BDE8F04D134B03F086
:10AE40007FBE154A4245A8BFA8F500154FF0000483
:10AE5000B8BF124D22462B4603F07EFE06468846BA
:10AE600022462B460020094903F076FE04460D4693
:10AE70003A4653463046414603F06EFE04B0224641
:10AE80002B46BDE8F04D03F05BBE00000000F03F34
:10AE900064FE00003333D33F0000E93F0000D23F9F
:10AEA0002DE9F0414F1E00EBC7010446D1E9000136
:10AEB00015461E4637F006020DD02A46334603F0EB
:10AEC0000BFD7F1E04EBC703D3E9002303F05AFAFE
:10AED00037F00602F1D1022F25D0042F13D0062F10
:10AEE00018BFBDE8F0812A46334603F0F5FCD4E9EB
:10AEF0000A2303F047FA2A46334603F0EDFCD4E96F
:10AF0000082303F03FFA2A46334603F0E5FCD4E970
:10AF1000062303F037FA2A46334603F0DDFCD4E972
:10AF2000042303F02FFA2A46334603F0D5FCD4E974
:10AF3000022303F027FA2A46334603F0CDFCD4E976
:10AF40000023BDE8F04103F01DBA00002DE9FF4DDC
:10AF5000054621F0004084B00C46B0F1795F0BDA71
:10AF60002846FFF736FD042808BF00F06FF8284692
:10AF700008B02146BDE8F08D2A460B46104603F086
:10AF8000ABFC06460F462A46234603F0A5FC804646
:10AF900026488A4632463B4605217844FFF780FF23
:10AFA00083461098029160B3214A224B4046514695
:10AFB00003F092FCCDE900015A4640465146029BFF
:10AFC00003F08AFC82468846DDE906014FF0FF3235
:10AFD00004F009FA5246434603F0BEFD32463B46B2
:10AFE00003F07AFCDDE9062303F0B6FDDDE900237A
:10AFF00003F0B2FD08B02A462346BDE8F04D03F049
:10B000009FBD0B465A463046394603F065FC084A58
:10B01000084B03F0B7F94246534603F05DFC08B015
:10B020002A462346BDE8F04D03F0ACB9A2FD00006E
:10B03000495555555555C5BF012204F0D4B90022D4
:10B0400013461046114603F059BA0000024A002088
:10B05000110704F0C8B9000001FDFFFF30380A28CD
:10B0600001D20120704700207047704710B5FF24BF
:10B07000204600F021F855280AD05521204600F03E
:10B080004CF8204600F018F8552801D0012010BDDA
:10B09000002010BD01F0FABD70B514460D460646FD
:10B0A00006E03046711C8EB200F006F805F8010B80
:10B0B000641EA4B2F5D270BD10B5044601F09AFE2C
:10B0C000200AA02101EB4000C0B201F063FE01F0B4
:10B0D000D7FEE0B201F05EFE01F0D2FE01F08AFE82
:10B0E000A12001F057FE01F0CBFE002001F01EFE72
:10B0F000044601F0A5FE204610BD70B516460C466C
:10B10000054606E02178284600F007F86D1CADB230
:10B11000641C761EB6B2F5D270BD70B50D460446FD
:10B1200001F068FE200AA02101EB4000C0B201F04E
:10B1300031FE01F0A5FEE0B201F02CFE01F0A0FE10
:10B14000284601F027FE01F09BFE01F079FEBDE8E4
:10B1500070400A20F7F7D8BE10B50E4C23681BB11B
:10B1600064680CB1A04202D34FF0FF3010BD00EB79
:10B17000800003EBC0000124047681834283017ABE
:10B1800029B900F118010C300EC980E80E0000202A
:10B1900010BD000020000020F0B50F4D00240F4628
:10B1A0002646C5E9000113E02A6804EB840102EB9E
:10B1B000C10086708680C68002F831600672002168
:10B1C000204600F047F8204600F05EF8641CE4B228
:10B1D000BC42E9D30020F0BD200000200B4A1168DA
:10B1E00079B152686AB190420BD200EB800001EB5A
:10B1F000C000017B012904D1007A032803D0042870
:10B2000001D000207047012070470000200000207E
:10B210000F4A1368BBB15268AAB1904213D20C4BCB
:10B2200000EB8000CA071B6803EBC00004D0027A61
:10B23000012A0AD0032A08D0890704D5007A0228F7
:10B2400003D0042801D0002070470120704700007F
:10B25000200000200B4B1A681AB15B680BB19842B2
:10B2600002D34FF0FF30704700EB800002EBC000CC
:10B270000162027A22B9D0E90623C260C0E9043132
:10B2800000207047200000200A4A116819B1526856
:10B290000AB1904202D34FF0FF30704700EB8000BC
:10B2A000032201EBC00000214276017681834183B5
:10B2B00008467047200000202DE9F0413A4C064630
:10B2C0004FF00008206820B1606810B1A06820B17C
:10B2D00004E04FF0FF30BDE8F081A66000250CE0EF
:10B2E000206805EB850700EBC700406A80472168AE
:10B2F0006D1C01EBC701EDB2487060688542EFD369
:10B3000000254AE0206805EB850710F8371000EBB0
:10B31000C7004278914200D11146027B32B1012A26
:10B320000AD0022A1ED0032A0CD121E02289B21AA7
:10B3300092B2FCF769FD04E02289B21A92B2FCF7DE
:10B3400022FD8046B8F1000F06D0206800EBC70050
:10B35000416909B128468847216801EBC700027A94
:10B3600062B115E02289B21A92B2FCF7DBFCE8E781
:10B370002289B21A92B2FCF788FCE2E700F11802C7
:10B3800000F10C0E92E80C108EE80C100022827076
:10B3900040786D1C01F83700EDB260688542B1D38A
:10B3A0000020A66097E70000200000202DE9F04172
:10B3B0004C4D0746286820B1686810B1A86820B1D4
:10B3C00004E04FF0FF30BDE8F081AF6000244FF69D
:10B3D000FF76A04671E02868AB6800EB0410FB1A0A
:10B3E0008188721A9A4201D2868001E019448180D4
:10B3F000C178CA0701D0827862B1CA060ED5FCF7BF
:10B4000025FE0146286800EB0410C27861F3820231
:10B41000C2700DE04A0862F3820108E0427800EB56
:10B42000D20302F007021B7AD34063F38201C1709A
:10B43000286800EB0410C178C9062AD54189AB6899
:10B44000721AFB1A9A4201D2468101E019444181E5
:10B450008288C1888A422ED9A0F80480C178090761
:10B46000018909D5491C89B20181142923D3C178E6
:10B4700021F00801C1701EE0491E0904090C018178
:10B4800019D1C17841F00801C17011E0491E8170E5
:10B4900011E08188C28891420DD3A0F804804278DF
:10B4A0004146521CD2B2427003789A4203D3417093
:10B4B00081780029EAD1641CA4B2686884428AD3E6
:10B4C000002409E0286800EB0411C878C968C0F3BB
:10B4D00080008847641CA4B268688442F2D30020CC
:10B4E000AF6070E7D0000020094A10B5C2E9000142
:10B4F0000022134607E000BF00EB0214521C236039
:10B500006360D2B2A3608A42F6D3002010BD00006F
:10B51000D00000200F4A116819B152680AB1904258
:10B5200002D34FF0FF307047642201EB001000217E
:10B53000C2808180027A5AB10022027241700122D7
:10B5400002708170C17821F01301C1700020704732
:10B550000122F2E7D0000020074B10B51B6813B1A1
:10B560001C693CB902E04FF0FF3010BD186119773B
:10B5700002B1DA60002010BDFC2D00202DE9FC4155
:10B580002B4D4FF0FF362C68002C4FD02069E8B3CC
:10B59000287CC0074AD0FAF77DFEB8B3A27F2169A4
:10B5A00002EB4202142351F832104160A27F21695C
:10B5B00002EB420203EBC2020C2689588160002193
:10B5C00001610177E268C260A37F226903EB430354
:10B5D00006EBC3031027D2584261A67F236906EB0E
:10B5E000460607EBC6069B59836181770121C17727
:10B5F0000460EA602860A17F226901EB4103042115
:10B6000001EBC303D25872B1426800E00EE0009231
:10B6100080680190A27F206902EB420201EBC20127
:10B620004158684688470020BDE8FC813046FBE76A
:10B63000FC2D00202DE9FC411C4C05464FF0FF324B
:10B64000206880B3217CC9072ED0016859B32160DE
:10B650004969E160F6F7D6FF2068817F026901EB56
:10B660004103082101EBC3030026D258AAB1827F0F
:10B67000036902EB420253F832700097142707EB7C
:10B68000C2029A580192C6770269807F00EB40009F
:10B6900001EBC0001158684688470DB120688677D5
:10B6A0000020BDE8FC81FFE71046FAE7FC2D0020F2
:10B6B0002DE9F041134E05464FF0FF373068F0B9E1
:10B6C000114800240470FAF7E5FDC0B12968416013
:10B6D000696904608160E968C46041612A69046144
:10B6E0008261047784774477C47730603474686803
:10B6F0007060A868C6E902010020BDE8F081384604
:10B70000FBE70000FC2D00200A01002058B151B1D8
:10B710000B780278934200D90A70427883789A4273
:10B7200004D2827009E04FF0FF3070470978D31AD5
:10B730008B4202DB511A491C8170002070470000C7
:10B740001CB50C4C206810B1217CC90702D04FF009
:10B75000FF301CBD616829B1426800928068019089
:10B76000684688470120207420684069E060002016
:10B770001CBD0000FC2D0020094A10B511684FF0D7
:10B78000FF3339B10C692CB1127CD20702D00A7F89
:10B79000824201D8184610BD8877002010BD0000F5
:10B7A000FC2D00200D4A10B511684FF0FF3461B137
:10B7B0000B6953B1127CD20707D00A7F8B7F521ED0
:10B7C000934204DA5B1C8B7704E0204610BD18B16D
:10B7D00000208877002010BD8A77F6E7FC2D002036
:10B7E0000D4A10B511684FF0FF3349B10C693CB1F7
:10B7F000127CD20704D08A7F22B1521E8A7705E0DC
:10B80000184610BD20B1087F401E8877002010BD6B
:10B8100000208877F4E70000FC2D0020F0B5274CCD
:10B82000ADB02068F8B1217CC9071CD0E16839B1FE
:10B8300042682B9280682C902BA888470020E060FB
:10B84000206802696AB3017F8DF80010817F8DF84E
:10B850000110417F8DF802104168019181680291C9
:10B8600000216B460FE04FF0FF302DB0F0BD00BF60
:10B8700001EB410602EBC60603EB81053768EF607A
:10B880007669491CEE659DF800508D4201DD142952
:10B89000EEDBC16809B11846884721689DF80200AF
:10B8A00048772068816931B141682B9181682C917A
:10B8B00081692BA888470020D7E70000FC2D0020D5
:10B8C0002DE9F0478946050004D000240C264FF0EE
:10B8D0001C0826E04FF0FF30BDE8F087286806EB33
:10B8E0004417C15900EB4410FFF72CF8010006D0B3
:10B8F000B9F1000F14D0286800EB44100EE028685E
:10B9000008EB4411415859B1C059884740B1B9F1C9
:10B91000000F05D02868032100EB44104A469047E9
:10B92000641CA888A042D9DC0020D5E72DE9FC41A1
:10B930005FEA000806D00020CDE90000481C0E7820
:10B94000541E1FE04FF0FF30BDE8FC8132466946CF
:10B95000FEF718FF0746DDE900010A0642EA10215A
:10B96000C5B2A819C9B2A0420ED87019241A40460F
:10B97000F7F724F828B10189A94202D13946FCF72A
:10B9800087F87819B442E1D80020DDE770B550EAB5
:10B99000010215D000220C2483880BE0056804EB1B
:10B9A0004216AD598D4203D1006800EB421004E00D
:10B9B000521C92B29342F1D80020817AC90700D17B
:10B9C000002070BDF0B54FF0FF3618B311B300245E
:10B9D0001AE000BF01EB44139D690DB15D691DB90B
:10B9E0009D7A25F010059D729D7AEF0702D125F012
:10B9F00002059D721D691DB99D7A25F004059D7291
:10BA0000DB683BB1641CA4B29442E3D30160828042
:10BA10000020F0BD3046F0BD70B5002320B119B153
:10BA200084880A68A24210D9002070BD056804EB22
:10BA30004216AD5DED0705D0006800EB4213521CC5
:10BA40000A6006E0521C0A6000E00A248588AA42C7
:10BA5000ECD3184670BD2DE9F84306000C4606D01D
:10BA60004FF00208601C81F8008000251BE00020D8
:10BA7000BDE8F8833168042202EB45128B5A082294
:10BA800002EB45128A5ACDF8008063F31F22D317C8
:10BA9000FCF7CDFC0746306800EB45113846FCF753
:10BAA0008AF838446D1CB188A942E3DC001BDFE74B
:10BAB00010B54FF0FF3420B1FCF7FEFA08B10020BA
:10BAC00010BD204610BD00002DE9F0478246052A32
:10BAD00001D2052202E0FA2A00D9FA22174D0020ED
:10BAE00000EB400305EB83039B7A934222D300EBE8
:10BAF000400305EB830300261C7A8CB10924A94678
:10BB00000CE000BF04EB440709EB87052D1F641E02
:10BB1000B5E88011A5E8801105F8186C8442F1DCC5
:10BB2000012018725E72D981C3F810A099819A72AF
:10BB3000BDE8F087401C0A28D2DBF9E7000B0020A3
:10BB4000094A002101EB410302EB83031B69834295
:10BB500006D101EB410102EB810100200872704720
:10BB6000491C0A29EEDB7047000B002010B50020AD
:10BB70000F490346FF240870C1F8040003EB430299
:10BB800001EB82025B1C10725072D08110619081B7
:10BB900094720A2BF2DB002201EBC203521CA3F8C1
:10BBA0008200C3F88400A3F88000052AF4DB10BDEE
:10BBB000000B002070B51E4C00212078002835D0E5
:10BBC0006068401C606010E0027A52B1828942B124
:10BBD000521E1204120C828103D1C2898281012279
:10BBE0004272491CC9B20A2906D201EB410004EB9A
:10BBF00080000269002AE7D1002511E0B0F880102A
:10BC000051B1491E0904090CA0F8801004D1B0F804
:10BC10008210A0F8801090476D1CEDB2052D05D262
:10BC200004EBC500D0F88420002AE7D170BD0000E5
:10BC3000000B00200E4C01200026207000200FE099
:10BC4000297A49B1697A39B100EB400004EB8000F0
:10BC5000006980476E72F1E7401CC0B20A28EDD23D
:10BC600000EB400104EB810529690029E6D0E7E7F4
:10BC7000000B00202DE9F04782460E46084602F0F0
:10BC8000DBFD02460B461948194902F037FC02F069
:10BC900047FB81460024DFF85C8022E0204603F069
:10BCA000D9F9494603F01EFA03F040F801F0E4FB2D
:10BCB0000022114B02F066FB07460D46504602F08B
:10BCC000BBFD3A462B4602F007FE02F029FB404539
:10BCD00000DD404603F086F9084921F81400641C91
:10BCE000E4B2B442DAD3BDE8F08700002BE741307C
:10BCF000FD21194000F07F450000F03F780D002045
:10BD0000F0B595B00E4607461546482101A8F4F750
:10BD1000B0FE0024154813941494C16941F0200129
:10BD2000C161C06900F0200000901148CDE9010513
:10BD3000CDE9034601A8F8F799F92020CDE91304CD
:10BD400013A901A8F8F754F901A8F8F7E5F90021BB
:10BD50000848F6F761FF074A3B46143200210548C0
:10BD60000094F6F7F3FE15B0F0BD0000001002409D
:10BD700000140040640D00202DE9F04389B0002636
:10BD800091460F4605460596069601281ED0DFF817
:10BD9000C0803048816941F004018161816901F00E
:10BDA00004010791C16941F00051C161C16901F00D
:10BDB00000510791416941F002014161406900F081
:10BDC0000200079005D14FF0100004E0DFF88880F2
:10BDD000DFE74FF0200001904FF00300029001A92F
:10BDE0001E48F7F795F81E4C1020C4F80080C4E9EF
:10BDF00001068020E060400020618000606120201A
:10BE0000A061C001E0612046F6F7E0FF00233A465A
:10BE100049462046F7F718F804F1440011498460B8
:10BE200060620160F6F751FE142005900220069032
:10BE3000012D0AD0022D05D11022094805A9443050
:10BE4000F6F719FE09B0BDE8F0830022F5E700001F
:10BE50004404024000100240300402400008014047
:10BE6000200D002000740040014908607047000068
:10BE70001C0000204FF47A71484300F001B8000024
:10BE800070B54FF0E024002265690949A36909688B
:10BE90004843A1699942FCD002D2A3EB010302E01E
:10BEA000A5EB010633441A440B468242F1D370BD20
:10BEB0001C00002070B500242546124E04E0641CCE
:10BEC000E4B20120FFF7DCFF02213046F7F71CF94E
:10BED00010B1642CF3D30FE0642C0DD2002404E0E5
:10BEE000641CE4B20120FFF7CBFF02213046F7F7D4
:10BEF0000BF920B1642C00D30125284670BD642CB9
:10BF0000EED3F9E7000801400E4800B5816985B01D
:10BF100041F0040181618069694600F004000490E9
:10BF20000220009011200190012002900320039034
:10BF30000548F6F7EDFF00F067F8FFF7BBFF05B027
:10BF400000BD000000100240000801402DE9F04152
:10BF50000020184E05464006070E002404E0641C2D
:10BF6000E4B20120FFF78CFF02213046F7F7CCF84E
:10BF700008B1642CF3D3002404E0641CE4B2012073
:10BF8000FFF77EFF02213046F7F7BEF808B9642CB0
:10BF9000F3D32820FFF774FF02213046F7F7B4F8F7
:10BFA00000B101206D1C3843EDB2082DD3D3BDE89C
:10BFB000F0810000000801402DE9FC410D460646D5
:10BFC00000F022F8FFF776FF10B10120BDE8FC81F8
:10BFD00000246F46FFF7BAFF3855641CE4B2052C05
:10BFE000F8D39DF800109DF801009DF803300A1861
:10BFF0009DF8020003441A449DF804309A4201D18E
:10C00000297030700020E1E710B5094C00220221B0
:10C010002046F7F77EF81420FFF72CFF01220221BB
:10C020002046F7F776F8BDE810401E20FFF728BF3E
:10C030000008014070B500242546124E04E0641C3F
:10C04000E4B20120FFF71CFF02213046F7F75CF84D
:10C0500010B1C82CF3D30FE0C82C0DD2002404E09B
:10C06000641CE4B20120FFF70BFF02213046F7F712
:10C070004BF820B1F02C00D30125284670BDF02CE0
:10C08000EED3F9E70008014070B5012500F088F80B
:10C09000FFF7D0FFCC2000F09BF8442000F098F888
:10C0A00000F07EF8FFF7C6FFCC2000F091F8BE202C
:10C0B00000F08EF800F048F8044600F045F8072834
:10C0C00004D9C043E143C0B2CCB2002504EB002048
:10C0D0000B4C00B24DB102F098FB0022234602F057
:10C0E000FBFB02F063FB00B270BD401C02F08DFB55
:10C0F0000022234602F0F0FB02F058FB4042F2E738
:10C100000000E43F0E4800B5816985B041F00401AC
:10C1100081618069694600F004000490022000906B
:10C120001120019001200290032003900548F6F7AA
:10C13000EFFE00F035F8FFF77DFF05B000BD000011
:10C1400000100240000801402DE9F0410026134F85
:10C1500035460024224602213846F6F7DAFF02204F
:10C16000FFF78EFE012202213846F6F7D2FF0C209F
:10C17000FFF786FE02213846F6F7C6FF00B101241C
:10C180003220FFF77DFEAC4034436D1CEDB2E6B2C9
:10C19000082DDED33046BDE8F081000000080140E4
:10C1A00010B50A4C002202212046F6F7B2FF40F2F9
:10C1B000EE20FFF765FE012202212046F6F7A9FFD7
:10C1C000BDE810400F20FFF75BBE000000080140F3
:10C1D00070B5144E05460124E8074FF000024FF0F9
:10C1E000020130460BD0F6F794FF0220FFF748FE1D
:10C1F000012202213046F6F78CFF3C200AE0F6F7D8
:10C2000088FF3C20FFF73CFE012202213046F6F772
:10C2100080FF0220FFF734FE641C6D08E4B2082C96
:10C22000DAD970BD00080140F0B585B0070007D12C
:10C230001F4840F2FB120368A3B11E491EA0984795
:10C24000224D0024052695F8F000002819D000F0B2
:10C2500045FA00BF04EB4410411991F85100012840
:10C2600012D017E01348CDE90302009212A118A3DF
:10C27000CDE9013103461FA227A1002000F082F87A
:10C28000FEE705B03046F0BD1E2238463231F4F7E5
:10C2900004FB30B1641CE4B2052CDBD300F044FA9B
:10C2A000EFE704EB4410284490F83160F6E7000013
:10C2B0002805002075AB010874616720213D202806
:10C2C00028766F6964202A2930290000A4300020D4
:10C2D0002825732920686173206173736572742047
:10C2E0006661696C65642061742025733A256C640D
:10C2F0002E0000002E2E5C4D6964646C65776172BF
:10C30000655C456173794C6F676765725C737263D6
:10C310005C656C6F672E6300656C6F6700000000E2
:10C320002DE9F041164D002095F8F010012925D097
:10C3300000F03CFA060021D1012000F0DFF90027CF
:10C3400085F8F37085F8F470052000F03DFA0024BC
:10C350004FEA070804EB4410471907F132001F2188
:10C36000F4F765FB641C87F83180E4B287F85180EC
:10C37000052CEFD3012085F8F0003046BDE8F081B0
:10C38000A43000200FB42DE9F04F06468BB08B4649
:10C390000846F4F763FA00240A940746A046099475
:10C3A0000594069407940894052E08D9A44840F2F1
:10C3B00065220368002B7DD0A249A3A09847A94D10
:10C3C00095F8F100002876D02878B04273D358460B
:10C3D000FFF72AFFB0426ED3A946691C5846F4F70E
:10C3E00007FA002867D00DF1680A00F077F90121FB
:10C3F000304600F077FBA5F5807540B1904829469E
:10C40000001D50F82620204600F0E2FA04460221E2
:10C41000304600F067FBC8B129195A46204600F0A3
:10C42000D7FA04440F2F0BD8C7F10F01202205A81B
:10C43000F4F7F5FA291905AA204600F0C9FA0444D0
:10C44000291989A2204600F0C3FA04441C21304671
:10C4500000F048FB00284BD0291984A2204600F0A8
:10C46000B7FA04440421304600F03CFB90B100F0E0
:10C4700081F902462919204600F0AAFA044418213D
:10C48000304600F02FFB28B1291977A2204600F092
:10C490009FFA04440821304600F024FBA8B100F0C4
:10C4A00053F902462919204600F092FA044410215B
:10C4B000304601E023E0BEE000F014FB28B129196A
:10C4C00069A2204600F084FA04441021304600F0AE
:10C4D00009FB38B100F048F902462919204600F05E
:10C4E00077FA0444291962A2204600F071FA044444
:10C4F00020213046169A00F059FBE0B90EE0514871
:10C50000CDE90302009250A15AA3CDE901310346BF
:10C5100061A26AA10020FFF735FFFEE74021304607
:10C52000179A00F043FB30B980213046189A00F08A
:10C5300046FB002856D0291962A2204600F048FA8E
:10C54000044420213046169A00F030FBD0B129195E
:10C550002046169A00F03CFA044440213046179ACF
:10C5600000F024FB10B1291957A207E080213046C2
:10C57000189A00F024FB28B129193BA2204600F0AC
:10C5800027FA044480213046189A00F018FBB8B10D
:10C590004EA2052109A8189BF3F736FF291909AA0D
:10C5A000204600F015FA044440213046179A00F066
:10C5B000FDFA28B129192CA2204600F009FA0444FA
:10C5C00040213046179A00F0F1FA28B12919204687
:10C5D000179A00F0FDF9044429193DA2204600F005
:10C5E000F7F90444C4F5807128195346199AF3F7F2
:10C5F000CFFE04444FF48072944204D8002802DB3A
:10C60000A01C904200D9FE2499F8200040B11549A1
:10C6100005F804802031A1F59070F4F7E9F840B1F5
:10C6200029192CA2204600F0D3F901192A4800F05C
:10C63000BFF800F079F80BB0BDE8F00F5DF814FB1F
:10C64000280500208DAB01086C6576656C203C3DAB
:10C6500020454C4F475F4C564C5F564552424F5316
:10C6600045000000A4300020200000005B00000016
:10C670005D20000028257329206861732061737391
:10C68000657274206661696C65642061742025732D
:10C690003A256C642E0000002E2E5C4D6964646C9B
:10C6A00065776172655C456173794C6F6767657228
:10C6B0005C7372635C656C6F672E6300656C6F679B
:10C6C00000000000280000003A000000256C640013
:10C6D000290000000D0A0000A42F002070B5064CB0
:10C6E000012594F8F20020B100F06AF884F8F450C3
:10C6F00070BD84F8F35070BDA430002009490028B3
:10C7000081F8F2000DD0074891F8F41090F8F3008A
:10C7100019B1002805D100F055B8002801D000F06B
:10C720004FB87047A430002070B5064C002594F82F
:10C73000F20020B100F046F884F8F45070BD84F89F
:10C74000F35070BDA430002010B503A2102105489D
:10C75000F3F75AFE034810BD53544D33324631307F
:10C7600033000000AC31002000A070476D61696E9D
:10C77000000000001CB500F0EFFC0648827841780C
:10C78000CDE90012037804A210210748F3F73CFE1C
:10C7900005481CBDF02D0020253032643A2530328A
:10C7A000643A2530326400009C310020002070473C
:10C7B000024601A0F3F706BE252E2A7300000000F2
:10C7C00072B6704762B6704710B586B00446052849
:10C7D00007D90D4840F26312036833B10B490CA02E
:10C7E00098471248047006B010BD0848CDE903020E
:10C7F000009207A10EA3CDE90131034615A21EA1A7
:10C800000020FFF7BFFDFEE72805002049AB010827
:10C810006C6576656C203C3D20454C4F475F4C561F
:10C820004C5F564552424F5345000000A430002053
:10C8300028257329206861732061737365727420E1
:10C840006661696C65642061742025733A256C64A7
:10C850002E0000002E2E5C4D6964646C6577617259
:10C86000655C456173794C6F676765725C73726371
:10C870005C656C6F672E6300656C6F67000000007D
:10C8800030B585B00D460446052807D90E484FF44B
:10C89000A37203684BB10D490DA09847134800EBF4
:10C8A0008400C0F8D85005B030BD0848CDE9030277
:10C8B000009207A10EA3CDE90131034615A21EA1E6
:10C8C0000020FFF75FFDFEE7280500202CAB0108E4
:10C8D0006C6576656C203C3D20454C4F475F4C565F
:10C8E0004C5F564552424F5345000000A430002093
:10C8F0002825732920686173206173736572742021
:10C900006661696C65642061742025733A256C64E6
:10C910002E0000002E2E5C4D6964646C6577617298
:10C92000655C456173794C6F676765725C737263B0
:10C930005C656C6F672E6300656C6F6700000000BC
:10C940000EB50A4890F8F01000290DD0012180F8AA
:10C95000F11007A208A1F2208DE80700104B11A2E8
:10C9600019A10320FFF70EFD0EBD0000A43000202A
:10C97000322E322E39390000456173794C6F67676A
:10C9800065722056257320697320696E6974696128
:10C990006C697A6520737563636573732E0000009C
:10C9A000FFAA01082E2E5C4D6964646C6577617284
:10C9B000655C456173794C6F676765725C73726320
:10C9C0005C656C6F672E6300656C6F67000000002C
:10C9D0002DE9F043DFF88C90DFF88C8085B00D00F6
:10C9E00006461446174606D1D8F800302BB11A2255
:10C9F00049461EA098477CB12CE01CA202921A2046
:10CA0000CDE903901AA3CDE90003164B21A22CA176
:10CA10000020FFF7B7FCFEE7D8F8003023B11B2257
:10CA2000104929A0984715E027A202921B20CDE9C2
:10CA300003900FA3CDE900030A4B16A220A100200A
:10CA4000FFF7A0FCFEE73146761CFF2905D805F864
:10CA5000010B641C20780028F5D105B0E01BBDE86F
:10CA6000F0830000C5AB0108280500206473740042
:10CA7000282573292068617320617373657274209F
:10CA80006661696C65642061742025733A256C6465
:10CA90002E0000002E2E5C4D6964646C6577617217
:10CAA000655C456173794C6F676765725C7372632F
:10CAB0005C656C6F675F7574696C732E6300000052
:10CAC000656C6F67000000007372630004490A68B8
:10CAD0005206FCD5024AC1B2121D11607047000017
:10CAE0000038014030B585B00D460446052807D909
:10CAF000104840F22E32036863B10F490FA09847E7
:10CB0000154800EB8400D0F8D800284000D0012060
:10CB100005B030BD0848CDE90302009207A10FA37C
:10CB2000CDE90131034616A21EA10020FFF72AFC21
:10CB3000FEE700002805002099AB01086C657665CA
:10CB40006C203C3D20454C4F475F4C564C5F564552
:10CB500052424F5345000000A4300020282573297D
:10CB60002068617320617373657274206661696CFB
:10CB700065642061742025733A256C642E000000E2
:10CB80002E2E5C4D6964646C65776172655C4561ED
:10CB900073794C6F676765725C7372635C656C6F09
:10CBA000672E6300656C6F670000000010B522B14E
:10CBB000FFF798FF08B1012010BD002010BD10B58F
:10CBC00022B1FFF78FFF08B1012010BD002010BD7A
:10CBD0000649252807D201F10C02097802EBC000B2
:10CBE00050F8210070474868704700000C01002091
:10CBF00030B587B00D4604461C216846F3F739FF6F
:10CC00000C4A0B48C2E900050020C2E902041046A4
:10CC1000F7F789FC602000906008019002200290E4
:10CC2000082269460348F7F718FC07B030BD00003A
:10CC300000040040B80C002070B5134D4FF40064A0
:10CC4000002221462846F6F764FA0220FFF718F979
:10CC50000122160331462846F6F75BFA0220FFF759
:10CC60000FF9002231462846F6F753FA0220FFF763
:10CC700007F9012221462846F6F74BFABDE8704035
:10CC80000220FFF7FDB8000000100140154810B564
:10CC9000816986B041F010018161816901F0100164
:10CCA0000491816941F01001816180690E4C00F0AE
:10CCB000100004904FF480500090012001900290E9
:10CCC0000320039069462046F6F722F9E01400900D
:10CCD0001120019069462046F6F71AF900F0B0F8E5
:10CCE00006B010BD001002400010014070B50E4C9F
:10CCF0000122D1022046F6F70CFA0220FFF7C0F815
:10CD00000122150329462046F6F703FA0220FFF711
:10CD1000B7F8002229462046F6F7FBF9BDE8704037
:10CD20000220FFF7ADB80000001001402DE9F047E8
:10CD30000024174E804625464FF400694FF4805773
:10CD40006006040E012239463046F6F7E2F9022069
:10CD5000FFF796F849463046F6F7D6F908B1641C55
:10CD6000E4B2002239463046F6F7D3F90220FFF745
:10CD700087F86D1CEDB2082DE2D3B8F1000F04D096
:10CD8000FFF75AFF2046BDE8F087FFF7AFFFF9E74E
:10CD9000001001402DE9F041154F002405464FF4E5
:10CDA0000068BE14280601D5012200E00022414699
:10CDB0003846F6F7AEF90220FFF762F80122314655
:10CDC0003846F6F7A6F90220FFF75AF80022314656
:10CDD0003846F6F79EF96806641C050EE4B2082C86
:10CDE000E0D341463846BDE8F0410122F6F791B95B
:10CDF0000010014070B50122104DD4022146284692
:10CE0000F6F787F90122160331462846F6F781F92D
:10CE10000220FFF735F8002221462846F6F779F977
:10CE20000220FFF72DF8002231462846F6F771F967
:10CE3000BDE870400220FFF723B800000010014059
:10CE400070B50E4D4FF40064002221462846F6F7D7
:10CE500060F90220FFF714F8012211032846F6F7C3
:10CE600058F90220FFF70CF8012221462846F6F770
:10CE700050F9BDE870400220FFF702B800100140F1
:10CE80002DE9F0410122174E0024D70225463946EC
:10CE90003046F6F73EF90220FEF7F2FF4FF48058D5
:10CEA000012241463046F6F734F90220FEF7E8FF4A
:10CEB00007E0641CE4B2FA2C03D9FFF7C1FF012597
:10CEC00005E039463046F6F71FF90028F1D1002277
:10CED00041463046F6F71DF90220FEF7D1FF2846FD
:10CEE000BDE8F081001001400148F6F73EBA0000AD
:10CEF000000D0020044A034B1360C2E901011046F3
:10CF0000F6F704BA00300040000D0020F6F73CFAB6
:10CF1000FDF7F2F8F9F766F8F9F752F9F9F77AF947
:10CF2000F9F786F8F9F7FAF8F9F73EF8F9F7A0F803
:10CF3000F9F7CCF8F9F7B2F8FDF73AF9FDF71EF971
:10CF4000FDF762F9FEE70246012000E05043491E6A
:10CF5000C9B2FBD27047000030B5224885B0816964
:10CF600041F00401816180691F4D00F004000490CC
:10CF70000420009001200190029003200390694654
:10CF80002846F5F7C5FF012204212846F6F7C1F827
:10CF900000F0C2FA002000F003FB00F029F813496A
:10CFA0000880A0F56F41183919D1032000F044F82A
:10CFB0000446C00713D100F061F844F002010320D9
:10CFC00000F070F8002204212846F6F7A2F8B720F6
:10CFD00000F0D6FA012204212846F6F79AF805B0A7
:10CFE00030BD000000100240000801400801002090
:10CFF00070B5104D002204212846F6F78AF89020DB
:10D0000000F0BEFA002000F0BBFA002000F0B8FAF1
:10D01000002000F0B5FAFF2000F0B2FA0402FF2071
:10D0200000F0AEFA0443012204212846F6F771F815
:10D03000204670BD0008014070B5012803D00228C9
:10D0400003D0032803D0052402E0352400E0152492
:10D05000094D002204212846F6F75BF8204600F02F
:10D060008FFAFF2000F08CFA0446012204212846A2
:10D07000F6F74FF8204670BD0008014010B5084C87
:10D08000002204212046F6F744F8062000F078FA42
:10D0900020460122BDE810400421F6F73AB800000E
:10D0A0000008014070B50E46012803D0022803D0C5
:10D0B000032803D0012402E0312400E01124094DAB
:10D0C000002204212846F6F724F8204600F058FAFA
:10D0D000304600F055FA2846BDE870400122042190
:10D0E000F6F717B80008014000687047F0B5891ED0
:10D0F000DDE9055449B2002903DC0C31401E49B278
:10D1000080B26426B0FBF6F7461E40F26D1C06FBAB
:10D110000CF606EB9006F61B4FF4C877B0FBF7F061
:10D12000064440F26F1041430C2091FBF0F01D309B
:10D130003044521E07491044084400EB400003EB02
:10D14000C000C0EB001005EB8000C0EB001004EB4A
:10D150008000F0BDC606F5FF2DE9FE4F33A107C9DB
:10D160008DE80700344800683349091D0968DFF875
:10D17000CC8001EB0047B7FBF8F43148314D018812
:10D18000A1422DD0048040F2B2764FF4B77A4FF42A
:10D19000B6790CE0304600F0CBF820B1544508D306
:10D1A000A4F5B77401E0A4F26D14761CB6B24C4538
:10D1B000F0D8AE800026E9460CE0A88800F0B8F868
:10D1C00008B1012E2ED019F80600A04204D8241A66
:10D1D000761CB6B21C2CF0D2761CAE71641CEC71BD
:10D1E000B7FBF8F008FB10704FF46161B0FBF1F28F
:10D1F0002A70B0FBF1F201FB12033C22B3FBF2F305
:10D200006B70B0FBF1F301FB1300B0FBF2F102FB1A
:10D210001100A870EA79A979A88800F015F8287299
:10D22000BDE8FE8F1D2CD7D31D3CD1E71F1C1F1E50
:10D230001F1E1F1F1E1F1E1F1828004080510100A7
:10D2400006010020F02D002010B5032903D20C3177
:10D25000401EC9B280B24B1C02EB410103EB4303F9
:10D260000524B3FBF4F36422B0FBF2F21944014449
:10D2700001EB9001891A4FF4C872B0FBF2F0084438
:10D280000721401C90FBF1F201FB1200C0B210BD5F
:10D290007CB52448C16941F08051C161C16901F088
:10D2A00080510091C16941F00061C161C06900F025
:10D2B00000600090F6F7F8F8002000F04DF81B4DE4
:10D2C0000446194828604FF0FF300026C5E90106E2
:10D2D0002846F6F73DFC08B101207CBDA4F5A0402E
:10D2E00050380DD0A4F5A040513809D01420CDE914
:10D2F00000060A230E22082140F2E97000F06EF8C1
:10D300002868016841F00101016000220221032028
:10D31000F6F798F80320F6F787F8FFF71DFF0020CF
:10D320007CBD00000010024000280040DC2D0020E1
:10D33000810705D16421B0FBF1F201FB120141B973
:10D340004FF4C871B0FBF1F201FB120008B10020EC
:10D35000704701207047000010B5411C0248F6F7E5
:10D36000E7FB80B210BD0000DC2D00207CB5DDE9BC
:10D370000645CDE90045FFF7B9FE04461448C169EA
:10D3800041F08051C161C16901F080510091C169D2
:10D3900041F00061C161C06900F000600090F6F7E3
:10D3A00083F80C49086840F010000860094AA0B2F0
:10D3B00020321060200C121F1060086820F010004E
:10D3C00008600548006841688906FCD500207CBDDE
:10D3D0000010024004280040DC2D00207CB5DDE96F
:10D3E0000645CDE90045FFF781FE04461448C169B2
:10D3F00041F08051C161C16901F080510091C16962
:10D4000041F00061C161C06900F000600090F6F772
:10D410004BF80C49086840F010000860094AA0B2B7
:10D4200018321060200C121F1060086820F01000E5
:10D4300008600548006841688906FCD500207CBD6D
:10D440000010024004280040DC2D002070B50C467E
:10D450000546F6F729F82246691CBDE870400148E8
:10D46000F6F76EBBDC2D0020022801D201490870BE
:10D47000704700000C01002000B5254B21F0004250
:10D4800087B09A4203DC0022134600922BE0214B26
:10D490009A4208D140B94FF00100F3F79FFBFDF726
:10D4A000CEFD07B000BD03DBFDF7C6FD07B000BD34
:10D4B00002AAFDF7B3FA10F003014FF001000DD0FE
:10D4C000012914D002291AD00DF1080C9CE80F0094
:10D4D000FDF768FC07B081F0004100BD0DF1080CBC
:10D4E00000909CE80F00FDF731FD07B000BD0DF185
:10D4F000080C9CE80F00FDF755FC07B000BD0DF1CE
:10D50000080C00909CE80F00FDF720FDE2E700000A
:10D51000FB21E93F0000F07F38B51648816941F4EE
:10D52000805181618069154C00F480500090124850
:10D5300020604FF48270606000200221A060C4E986
:10D540000301012161614902A1613821C4E9071089
:10D550006062A0620720E0622046F6F7A2FB206826
:10D56000016841F040010160BDE83840FF2000F053
:10D5700007B800000010024000300140D009002030
:10D5800001B582B04FF47A700090012301AA02A97C
:10D590000248F6F71FFC9DF804000EBDD0090020DC
:10D5A0000B4910B50A68136823F0400313600A683A
:10D5B00013684FF6C774234013600A68136843EA80
:10D5C000C00010600868016841F04001016010BDB2
:10D5D000D00900200B4910B5094AC1E900200020FC
:10D5E0008860C860086188610C2048610846F7F7C8
:10D5F000CFF9BDE81040012203490248F7F73ABAD3
:10D6000000380140700C00201800002070B596B062
:10D61000054614AB01AA03A900F0DEF9002824D1C5
:10D620008DF84C001D4C042615E000BF216806EB68
:10D63000C00014AB08586A460BA900F0CDF90028C9
:10D6400013D103A90BA800F0ECFB80B19DF84C00AE
:10D65000401C8DF84C00217DC0B28142E6D8207D6F
:10D660009DF84C1088420ED1042016B070BD9DF874
:10D6700000009DF80410884201D90220F5E79DF8CA
:10D680004C00A075EBE713A9284600F05DFA0028CE
:10D69000EBD19DF84C0060750020E6E734040020D3
:10D6A0002DE9F0417F4C9AB0A57D207DA8427DD91F
:10D6B0000421206801EBC50119AB405810AA11A93B
:10D6C00000F08AF911A978A0F2F77CFE00270DF18D
:10D6D000180833E0208B0121B940084217D02221DD
:10D6E00073A0F2F76FFE384600F0A8FA011971A096
:10D6F0002431F2F767FE22216DA0F2F763FE38466F
:10D7000000F09CFA2044243048F827000CE038460A
:10D7100000F094FA2044416A48F82710E07D08B3ED
:10D7200065A000BFF2F74EFE9DF84000401E874204
:10D7300002D063A0F2F746FE7F1CFFB29DF84000C6
:10D740008742C7D35FA0F2F73DFE00F0A7FD607DE2
:10D750000B2814D2DFE800F0080D31384048525E43
:10D760006B78880058A0DDE7206850F835008047C6
:10D7700004E0206850F8351006988847064600F007
:10D7800051FD9DF8640001287DD050A0F2F71AFEEB
:10D7900094F8EC0000280DD0D4F8F0100A20B1FB6A
:10D7A000F0F200FB1212B1FBF0F100E002E048A041
:10D7B000F2F708FE1AB0BDE8F081206850F8352075
:10D7C000DDE906019047D9E7206806AE50F835300C
:10D7D00096E807009847D1E7206806AE50F8355024
:10D7E00096E80F00A847C9E70A980090206806AE9F
:10D7F00050F8355096E80F00A847BFE7DDE90A0169
:10D80000CDE90001206806AE50F8355096E80F00CB
:10D81000A847B3E70AAB06AE93E807008DE8070018
:10D82000206850F8355096E80F00A847A6E70AAEE2
:10D8300096E80F008DE80F00206806AE50F83550CE
:10D8400096E80F00A84799E70BAE96E80F0001AEE7
:10D8500086E80F000A980090206806AE50F8355010
:10D8600096E80F00A84789E70CAE96E80F0002AED5
:10D8700086E80F00DDE90A01CDE90001206806AE67
:10D8800050F8355000E003E096E80F00A84775E730
:10D89000E07D314618B116A0F2F794FD78E717A0A5
:10D8A000FAE70000340400200D0A25732800000068
:10D8B0002563000025730000305825580000000043
:10D8C0002C00000029000000256C64003B0D0A00BC
:10D8D00046756E6374696F6E2052756E2054696D63
:10D8E000653A25642E2531646D730D0A0000000031
:10D8F0003D305825583B0D0A000000003D256C7551
:10D900003B0D0A00F0B504460020074606460546D2
:10D9100023782C2B03D0292B04D01BB103E015B99D
:10D92000012700E015B31EB1222B2BD0F7B92FE051
:10D93000A3F1300CBCF1090F19D92D2B17D02B2BCB
:10D9400015D0A3F1610CBCF1050F10D9A3F1410C66
:10D95000BCF1050F0BD9582B09D0782B07D0222BFF
:10D960000CD0202B1DD02C2B1BD0FF260CE05FB938
:10D97000612B00D3203B01F8013B12E027B90126BF
:10D9800035460EE0002567B100230B701670F0BD20
:10D990003DB15C2B02D1401CC0B2641C237801F85D
:10D9A000013B401CC0B2641CB2E730B500251570C5
:10D9B0000AE001F8014B1478401C641CE4B21470B6
:10D9C0009C4201D3012030BD0478202C01D0002CD2
:10D9D000EFD10D70002030BD2DE9FF4F002582B042
:10D9E000984604462F462E464FF0010BAA462A467B
:10D9F000A94615E0202910D002F07F03052B0CD298
:10DA000002B9802202F07F03042B01D12A290AD116
:10DA1000521C0DF80310D2B201E0852A04D0401C3C
:10DA200001780029E6D162B102F07F0244A10DF82D
:10DA30000290684600F0F5F938B1012188F800102D
:10DA400000224FF00008234614E088F80090F7E722
:10DA500008F1010000F0FF0813F8010F202801D0A1
:10DA60002A2807D1184600F069F9282802D02A2868
:10DA700000D047461878282801D00028E8D10FB1F7
:10DA80003C44641C00273946207888B1282804D0FB
:10DA9000292806D022280FD010E079B96D1CEDB2EC
:10DAA0000CE059B925B16D1E15F0FF0501D00CE051
:10DAB0000127012E32D039E049B100214DB12C2887
:10DAC0000FD020281FD028281DD07AB117E00121BF
:10DAD000F4E7202820D0039B18700398401C039083
:10DAE0001AE0521C4FF0010BD2B20CE0BAF1050F54
:10DAF00005D20DF80A000AF1010000F0FF0A0BF14F
:10DB0000010000F0FF0B012D06D1BBF1020F03D184
:10DB1000761C4FF0030BF6B2641CB5E70DF80A90C3
:10DB200007A1684600F07DF900B900260498067048
:10DB3000039880F8009006B03846BDE8F08F0000EA
:10DB4000766F6964000000002DE9F04300248946E7
:10DB5000314DB5B0214622466B18491CC9B29A76A0
:10DB60000A29F9D303E000BF10F8011F91B1017831
:10DB70002829F9D1461C012733AA69463046FFF708
:10DB8000C1FE06449DF8CC0040B1012824D0FF28F6
:10DB900039D10BE0012035B0BDE8F0839DF80000DD
:10DBA00080B334A9684600F0D1F808B10220F2E74A
:10DBB000204600F043F8284434994162288B07FA44
:10DBC00004F188432883042029198876641CE4B270
:10DBD0000A2C18D90320DEE7684600F037F900F177
:10DBE0000108204600F02AF841196846243100F067
:10DBF00024F9288B07FA04F108432919288381F8AE
:10DC00001A80E3E7FFE73078292801D00028B3D154
:10DC100089F800400020BEE73404002005490020B8
:10DC20000A88130405D5044BD0B200221A541846B2
:10DC30000A80704710000020A80B0020024610B593
:10DC400000200146054B05E05C18491CA47EC9B2C2
:10DC50002044C0B29142F7D310BD0000340400202C
:10DC600000EBC00101EB00104FF0FF3101EB800031
:10DC700010B581B24FF47A7000F0ECFA014901203E
:10DC8000C87510BD340400200246012000E0504356
:10DC9000491EC9B2FBD2704770B5FFF7BFFF050040
:10DCA00022D0124EB1688847040013D0284600F0F5
:10DCB000D7F8012801D0040016D0012C0ED0022C78
:10DCC0000ED0032C0ED0042C0ED109A0BDE870405C
:10DCD000F2F778BBF068BDE8704000470BA0F5E7AD
:10DCE0000EA0F3E711A0F1E770BD0000340400209E
:10DCF000E69CAAE689BEE588B0E58CB9E9858DE7A2
:10DD00009A84E587BDE695B0210D0A00E587BDE65A
:10DD100095B0E99499E8AFAF210D0A00E58F82E64E
:10DD200095B0E99499E8AFAF210D0A00E58F82E63E
:10DD300095B0E5A4AAE5A49A210D0A0010F8011FE8
:10DD4000202901D10028F9D1C8B270472DE9F0434C
:10DD50000D4600244FF00A09264601462C600A7839
:10DD6000A2F13003092B14D903782D2B01D02B2BD2
:10DD700000D174B1A2F14103052B0AD9582A05D06C
:10DD800012F0FF0F17D00120BDE8F083012C02D064
:10DD9000F9E7412A01D34FF0100902782D2A04D067
:10DDA0002B2A04D0641CE4B203E0022600E0012622
:10DDB000401C491CD3E70746B9F1100F01D084B1CC
:10DDC00012E0032C01D20220DEE73878302802D19D
:10DDD0007878582801D00320D6E7A41EE4B2BF1CEF
:10DDE00001E00420D0E70CB1641EE4B23878A0F161
:10DDF0003001092901D8884601E0A0F13708214601
:10DE00004846FFF741FF2A6808FB0020286017F802
:10DE1000011F0029E7D1022E01D1404228600020D5
:10DE2000B2E702780B789A4201D00120704712B114
:10DE3000401C491CF5E70020704702780A70027800
:10DE4000002A02D0401C491CF7E7704700210278E5
:10DE50001AB1491CC9B2401CF9E7084670470000D6
:10DE6000F0B58DB004461E236A4602A9FFF79DFD5A
:10DE70000190002872D19DF80000271800267E4CE2
:10DE80008DF800609DF8000054F8201002A8FFF7FC
:10DE9000C8FF38B19DF80000401CC0B28DF80000EA
:10DEA0000728EFD39DF800000425744C072855D2AD
:10DEB000DFE800F00404395A81A0BF0070A0F2F737
:10DEC00081FA7048F2F77EFA6F48F2F77BFA6F48F2
:10DED000F2F778FA6E48F2F775FA6E48F2F772FACE
:10DEE0006D48F2F76FFA6DA0F2F76CFA73A0F2F7D3
:10DEF00069FA7DA0F2F766FA83A0F2F763FA8AA0C6
:10DF0000F2F760FA90A0F2F75DFA9848F2F75AFA41
:10DF10009748F2F757FA9748F2F754FA9648F2F70B
:10DF200051FA96481BE056A0F2F74CFA9448F2F7E3
:10DF300049FA8DF800600BE0216805EBC000095834
:10DF400090A0F2F73FFA9DF80000401C8DF8000009
:10DF5000217D9DF800008142EED889E08AE0F2F749
:10DF600031FA00200DB0F0BD45A0F2F72BFA87483A
:10DF7000F2F728FA8DF8006017E000BF216805EB82
:10DF8000C0000BAB08580AAA02A9FFF725FD9DF8AF
:10DF90000010206850F8312002A97DA0F2F712FA93
:10DFA0009DF80000401C8DF80000217D9DF80000C8
:10DFB0008142E3D85CE032A0F2F704FA6A4602A993
:10DFC0003846FFF79FFC9DF80000002843D101A9C7
:10DFD00002A8FFF7BBFE8DF8000010B104283AD16B
:10DFE00002E070A001991CE071A0F2F7EBF90120AA
:10DFF000E0753DE022A0F2F7E5F96A4602A938464D
:10E00000FFF780FC9DF8000028BB01A902A8FFF7DC
:10E010009DFE8DF8000010B104281CD104E06AA018
:10E020000199F2F7CFF923E06AA0F2F7CBF9E67590
:10E030001EE013A0F2F7C6F96A4602A93846FFF7B8
:10E0400061FC9DF8000030B901A902A8FFF77EFE2F
:10E050008DF8000008B1022084E7019810F0FF005D
:10E0600084F8EC0001D061A000E067A0F2F7AAF903
:10E0700003A074E7012075E7880300203404002022
:10E080000D0A000030B4010844B501086CB701085E
:10E09000C8B7010880B60108E4B50108E68A80E641
:10E0A0009CAFE694AFE68C813A7777772E6F7065F8
:10E0B0006E6564762E636F6D0D0A000055534D41F9
:10E0C0005254E69C8937E4B8AAE7B3BBE7BB9FE5A7
:10E0D00091BDE4BBA428E5BF85E9A1BBE5B08FE510
:10E0E0008699293A0D0A00003F3A2020202020205E
:10E0F000E88EB7E58F96E5B8AEE58AA9E4BFA1E65C
:10E1000081AF0D0A0000000068656C703A20202085
:10E11000E88EB7E58F96E5B8AEE58AA9E4BFA1E63B
:10E1200081AF0D0A000000006C6973743A20202052
:10E13000E58FAFE794A8E79A84E587BDE695B0E55B
:10E140008897E8A1A80D0A0069643A2020202020C1
:10E15000E58FAFE794A8E587BDE695B0E79A8449D7
:10E1600044E58897E8A1A80D0A00000024B701083B
:10E17000DCB601083CB6010898B5010874B4010882
:10E18000FCB4010825730D0A00000000B8B40108B2
:10E1900025732069642069733A0D0A305825303898
:10E1A000580D0A004845583A305825580D0A0000C5
:10E1B0003136E8BF9BE588B6E58F82E695B0E698F4
:10E1C000BEE7A4BA210D0A004445433A256C750DFB
:10E1D0000A0000003130E8BF9BE588B6E58F82E693
:10E1E00095B0E698BEE7A4BA210D0A0052756E20DC
:10E1F00054696D652043616C63756C6174696F6E01
:10E20000204F4E0D0A00000052756E2054696D6556
:10E210002043616C63756C6174696F6E204F464674
:10E220000D0A0000094800680169C943CA07084986
:10E23000D1F8F02004D14FF6FF731A44C1F8F02052
:10E24000406A1044C1F8F000704700005C2F0020C5
:10E25000340400200E4A10B5D36943F00403D3619F
:10E260000D4A0C4BC2E900310021C2E902101046F0
:10E270001161F5F7FBFE0848F5F780FF0322114610
:10E280001E20F5F7DFF8BDE810401E20F5F7CCB8EA
:10E2900000100240000800405C2F002007486FF08B
:10E2A0000101026811610268090CD162C160006855
:10E2B000002141620248C0F8F01070475C2F002036
:10E2C000340400200160704710B500290AD0087896
:10E2D000002807D005487844F2F7F2FB002801D067
:10E2E000002010BD0248784410BD000036DD00005B
:10E2F0002EDD000010B500290AD00878002807D0CC
:10E3000005487844F2F7DCFB002801D0002010BD5E
:10E310000248784410BD000026DD00001EDD00002C
:10E3200021F00042A2F16052B2F5801F01F00043DB
:10E3300028BFD2F17F6C0BD95FEA001C43EAC2020E
:10E3400042EB507018BF704728BF20F001007047A3
:10E35000B2F5801FBCBF184670474FEA410C1CF550
:10E36000001F02D2084600F084BF70B500F05EFBCB
:10E3700000000089FFF7F6BF4FF00040A0F58000D5
:10E380007047000010B591EA030F48BF83F00043C7
:10E3900000F1EA83841A71EB030C05D2121943EBE6
:10E3A0000C03001B61EB0C01DFF824E14FEA115470
:10E3B000A4EB135C1EEA430F18BF9EEA445F73D0C0
:10E3C00023EA0E03DCF1200E21EA045143F480130A
:10E3D00032D322FA0CFE10EB0E0023FA0CFE41EBB6
:10E3E0000E01CCF1200E03FA0EFE10EB0E0051F1DF
:10E3F0000001B1F5801FCCF1200E32D201EB0451A7
:10E4000012FA0EF2BDE8104058BF7047401C38BFEA
:10E410005FEA420218BF7047002814BF20F00100D5
:10E4200041F100014FEA410313F5001F38BF704767
:10E43000A1F1C04100F048BB012A43EB0302ACF15B
:10E44000200CDCF11F0E32BF4FF0000E23FA0CF34C
:10E4500010EB030041EB0451B4EB115FD0D0A1EB02
:10E46000045101F5801149085FEA300001EB0451C5
:10E470000ED350F1000038BF12FA0EFE08D1BDE8ED
:10E480001040C9E7401C38BF5FEA4202CAD1C3E767
:10E49000BDE810404FEA410313F5001F38BF704735
:10E4A000A1F1C04100F010BB9EEA445F08D011EA20
:10E4B0005E0FBDE8104004BF01F00041002070472E
:10E4C000BDE8104070B500F0B1FA00BF64FBBE3E7D
:10E4D0000000E0FF02494FF0000000F052BF00BF13
:10E4E0000000F87F491058BFC1F140415B1058BF90
:10E4F000C3F140438B42EFF3008070472DE9C041E8
:10E5000030B4DFF8A0C23CEA111418BF3CEA13147F
:10E5100000F0EC8081EA03051CEA111444EAD5748A
:10E5200018BF1CEA131500F0C780A4EB05044FF0D8
:10E53000004545EAC12145EAC32341EA505143EA77
:10E54000525304F17F74994204F500344FEAC0201D
:10E550004FEAC22208BF904200F09C804FEA136548
:10E560000FF24016765D4FEA134506FB05F7C7F13B
:10E57000807706FB07F74FEAD737A7FB0368764299
:10E58000C8F58038A7FB06CE38BFA8F1010807FB05
:10E5900008E64FF0000EA6FB028CE6FB03CEDCF192
:10E5A000000CCEF1004E38BFAEF1010EA6FB0C58A8
:10E5B0004FF000074FF00005E6FB0E87A1FB08C6F1
:10E5C000A0FB07CE16EB0E0645F10005E1FB076543
:10E5D00015F1E04E7EBFA4F580345FEA46066D413A
:10E5E00016F1800745F100054FEA17274FEA066646
:10E5F00047EA0567A6F1DE46B6F1805F4FEA1525CA
:10E600001FD9384624F0010C05EBC471BCF1FE6F34
:10E6100001EB0C1102D8F0BCBDE8008124425CBFC4
:10E6200001F5801E9EEAC47F02D4F0BCBDE80081E3
:10E63000244238D4F0BCA1F1C041BDE8004100F053
:10E6400043BA4FEAD22242EA43524FEAD323A7FB0E
:10E6500002864FEAD02040EA415007FB03661EEADB
:10E660000E0F4FEAD12105FB026658BFA6EB0056FC
:10E67000B6EB00564FEA520E4EEAC37E18EB0E0E72
:10E6800056EB530EBDD518EB02085E417F1C55F1C9
:10E690000005B6E74FF480154FF000074FF0000675
:10E6A0004FF00008ADE7F0BC4FF0000001F1C041B1
:10E6B00001F00041BDE8008111EA0C1F0CEA1315BE
:10E6C00000D00CE013EA0C1F00F025804FF0000092
:10E6D000F0BC81EA030101F00041BDE80081F0BC1B
:10E6E000BDE8004181EA030100F0EEB9F0BCBDE8ED
:10E6F000004170B500F09AF9097EFC3E00F007B8C1
:10E7000081EA03014FF0000001F00041704781EA07
:10E71000030100F0D9B9F0BCBDE800414FF00000A2
:10E7200021497047FFFDFBF9F7F5F4F2F0EEEDEB50
:10E73000E9E8E6E4E3E1E0DEDDDBDAD8D7D5D4D3FF
:10E74000D1D0CFCDCCCBCAC8C7C6C5C4C2C1C0BF4B
:10E75000BEBDBCBBBAB9B8B7B6B5B4B3B2B1B0AF51
:10E76000AEADACABAAA9A8A8A7A6A5A4A3A3A2A135
:10E77000A09F9F9E9D9C9C9B9A99999897979695F0
:10E7800095949393929191908F8F8E8E8D8C8C8B8C
:10E790008B8A898988888787868585848483838214
:10E7A000828181800000FF070000F87F4FEA41036B
:10E7B0004FEA5353A3F58063D3F11E03C8BFD3F1CF
:10E7C000210C0CDD4FF0004242EAC12242EA5052D5
:10E7D00032FA03FC8CEAE17CACEBE1707047102B61
:10E7E000C4BF0020704703F5787CBCF1FF3F04D024
:10E7F0006FF0004282EA2100704770B500F016F910
:10E800004992248000207047F2E710F0004248BF90
:10E810004042B0FA80F310FA03F10AD0C3F11D03AD
:10E8200003F580634FEA415002EB035202EBD12122
:10E8300070474FF000007047B0FA80F310FA03F110
:10E840000AD0C3F11D0303F580634FEA41504FEA3C
:10E85000035202EBD12170474FF0000070470000D7
:10E8600051EA030C17D41CF5801F58BFBCF5801F5C
:10E8700000F10680994218BF704708BF9042704768
:10E8800007D711F5801F58BF13F5801F19D499427F
:10E890007047894270471CF5801F08D5BCF5801F62
:10E8A000F7D58B4218BF704708BF824270474FF4BC
:10E8B000001C1CEB410F38BF1CEB430F01D28B42F5
:10E8C000704770B500F0B2F8922449004FF0005143
:10E8D0004FF08053FFF706BEDFF848C170B51CEA61
:10E8E000111E1EBF1CEA13159EEA0C0F95EA0C0FB1
:10E8F00000F06F8081EA030423EA4C134EEAD47ED1
:10E9000021EA4C1141F4801143F48013AE44A1FB81
:10E91000024CA0FB0365AEF17F7E361955EB0C056A
:10E92000A1FB034C4CF10003A0FB021C16EB0C06F0
:10E93000654153F10003094218BF46F0010613F484
:10E94000007F0BD14FEA03314FEA0530340341EA2F
:10E95000155140EA16506FF003020AE04FEAC32156
:10E960004FEAC520F40241EA555140EA56506FF093
:10E97000020202EB2E4201EB025585EACE710AD06B
:10E980005FEA440C18BF24F0004450F1000041F14C
:10E99000000120EAD47040F2FE7C624500D270BDD6
:10E9A000A84214BF4FF080444FF04044002E08BFEF
:10E9B0000024BEF1806FA8BFA1F1C041BDE8704046
:10E9C00080F282804FF0000001F1C04101F000416F
:10E9D00070479EEA0C0F0CEA131518BF95EA0C0F4E
:10E9E00006D04FF0000081EA030E0EF0004170BD2A
:10E9F00000F01CF88900013E00F007B800F009B8EB
:10EA00004FEA430C5FEA5C5C08D081EA030100F046
:10EA10005BB84FEA410C5FEA5C5CF6D14FF0000056
:10EA2000014970470000FF070000F87F0EF1020E59
:10EA30002EF0030E5EF8046B364205D4012A43EB38
:10EA4000030515F5001F12D8012841EB010C1CF538
:10EA5000001F0CD80ED14FEAD17C15F5001F0CEB2E
:10EA60004C0C0CF1020C08BF4CEBD37C04E04FF0D3
:10EA7000080C01E04FEAD37C0CEB4C0526FA05F6B6
:10EA800006F00706B6F1040C06D20EEB860CBDE8C4
:10EA900070404CF0010C6047DFE80CF0090B0202FB
:10EAA0004FF000414FF00000A1F5002170BD194664
:10EAB0001046012851EB010418BFD4F5001484BF9F
:10EAC000002001F0004170BD0808A0F500114FEAD8
:10EAD0003101704753EA010C17D41CF5801F58BF51
:10EAE000BCF5801F00F106808B4218BF704708BF3D
:10EAF0008242704707D713F5801F58BF11F5801F5A
:10EB000019D48B4270479B4270471CF5801F08D573
:10EB1000BCF5801FF7D5994218BF704708BF9042D7
:10EB200070474FF4001C1CEB430F38BF1CEB410F28
:10EB300001D2994270470FB40CBC03BCFFF7C1BEB1
:10EB400091EA030F10B581F000413FF523AC83F04B
:10EB5000004300F009B8000010B591EA030F48BF68
:10EB600083F000433FF516AC841A71EB030C07D217
:10EB700012198CF0004C43EB0C03001B61EB0C01F1
:10EB8000DFF8A4E14FEA1154A4EB135C1EEA430F33
:10EB900018BF9EEA445F00F0B08023EA6E03524241
:10EBA00021EA0451C3EB6E0338BF5B1EDCF1200E7B
:10EBB00025D322FA0CFE10EB0E0043FA0CFE41EBBB
:10EBC0000E01CCF1200E03FA0EFE10EB0E0051F1F7
:10EBD0000001CCF1200E29D412FA0EF201EB0451FF
:10EBE000BDE8104058BF7047401C1CBFB2F1004F39
:10EBF000704700280CBF491C20F00100704712EB41
:10EC0000020E43EB030218BF4FF0010E4EEA420220
:10EC1000ACF1200CDCF11E0E54D943FA0CFE10EBC3
:10EC20000E0051F1FF31CCF11E0ED5D50EF1010EC3
:10EC300012FA0EFE404141EB010101EB445C5FEA38
:10EC40005C5C10D910EBDE7001EB045138BFBEF1F3
:10EC5000004FBDE8104018BF704700280CBF491C8A
:10EC600020F00100704730D24FEAD42C11F500118A
:10EC700024F400641BD0B1FA81F20B3AA41AA41E4A
:10EC8000D2F12003914030FA03F31943904001EB95
:10EC9000CC71002C01EB0451BDE81040A8BF7047B7
:10ECA00001F1C0414FF0000001F000417047B0FA9F
:10ECB00080F310FA03F100D110BDE41A173C4805A7
:10ECC000C90AE4E701EB045110BD491001EB0451FE
:10ECD000BDE810404FEA300002E04FF000017047FD
:10ECE0004A0008BF0042F8D0B2F5001F28BF7047A5
:10ECF00001F000414FF0000070479EEA445F07D0EA
:10ED000011EA5E0FBDE8104004BF002100207047EB
:10ED1000BDE8104070B5FFF789FE00BF40DFF63E4A
:10ED200083F00041104670470000E0FF43004FEAC7
:10ED3000D30C4FEA3C0C43401FBF40070CF160511D
:10ED400013F0FE4F70471CF0006F03D100200CF051
:10ED5000004170470CF0004343EA507010B540EAA0
:10ED6000CC0000F040FA00BF000000924FEA000122
:10ED7000FFF7AABE4FF000414FF00000A1F50021BF
:10ED80007047000090EA010F48BF81F0004100F198
:10ED90008682421A3CBF801A89184FEAD0524FF03F
:10EDA0007F4C1CEA410FA2EBD15318BF9CEA026FC3
:10EDB00000F03B804FF0004C4CEA00204CEA01216F
:10EDC00021FA03FC10EB0C0C1ED202F1FF325FEAB9
:10EDD0001C2040EBC25038BF70471CF07F0F4FEA39
:10EDE000400C18BFBCF17F4F38BF7047C3F1200300
:10EDF000994008BF20F00100BCF17F4F38BF704739
:10EE0000A0F1C04000F035BA4FEA3C00000A40EBE8
:10EE1000C25028BF1CF0FF0F4FEA400CE6D018BFCD
:10EE2000BCF17F4F38BF7047EAE79CEA026F05D01C
:10EE300010EA5C0F08BF00F00040704710B500F00A
:10EE4000D2F900BF64FBBE3E401058BFC0F1404045
:10EE5000491058BFC1F140418142EFF30080704733
:10EE60004FF47F0C1CEAD0121EBF1CEAD11392EAA9
:10EE70000C0F93EA0C0F00F0858090EA010F48BF59
:10EE800042F4807240F4000C41F400002CF07F4109
:10EE900020F07F4000B58142A2EB03020FF2081C74
:10EEA000ACEB504EC0F100009EF800E04FEA4E0E71
:10EEB00000FB0EFC38BF49004FEA2C1C02F5FA0299
:10EEC0000CFB0EF34FEACE1E4FEA112C4FEAC12184
:10EED0000EEB635E42EB22420EFB0CFC4FEA1C532E
:10EEE00000FB03114FEA112C4FEA01310EFB0CFC21
:10EEF0004FEADC4C00FB0C11C14228BF09184CEB57
:10EF000003335DF804EB10EB410143EBC250B2F563
:10EF10007C0F38BF704729D512F0F00F1CBF00F1ED
:10EF2000C04000F00040704700818283848586875E
:10EF300088898B8C8D8E8F919293959697999A9CB8
:10EF40009D9FA0A2A3A5A7A8AAACAEB0B2B3B5B727
:10EF5000B9BCBEC0C2C5C7C9CCCED1D4D7D9DCDFFD
:10EF6000E2E6E9ECF0F3F7FAFE0000004FEA400CAD
:10EF70000CF1807CBCF17E4F28BF7047B0F1C040DF
:10EF800000F077B990EA010F0CEAD11348BF42F4C0
:10EF90008072624538BF634507D213F47F0F16D0E5
:10EFA00080EA010000F00040704710B500F01BF946
:10EFB000097EFC3E00F005B880EA010000F0004048
:10EFC000704780EA010000F0004000F052B912F4EE
:10EFD0007F0F04BF0248704780EA010000F049B982
:10EFE0000000C07FC10DD1F19E0206DB4FEA002375
:10EFF00043F0004323FA02F07047004207D54FEA7E
:10F000004001B1F1FE4F02D24FF00000704710B541
:10F0100000F0E9F849922480002070476FEA200050
:10F020007047000010F0004148BF4042B0FA80F342
:10F0300010FA03F2C3F19D030BD051EAC35101EB67
:10F040001220530638BF704700F1010008BF20F0BE
:10F0500001007047B0FA80F310FA03F2C3F19D0388
:10F060000AD0D90501EB1220530638BF704700F1D2
:10F07000010008BF20F001007047000050EA010CB9
:10F0800000F113801CF5000F58BFBCF5000F01D430
:10F090008842704707D710F5000F58BF11F5000FD1
:10F0A00015D488427047894270471CF5000F04D57B
:10F0B000BCF5000FF7D5814270474FF0807C1CEB08
:10F0C000400F38BF1CEB410F01D28142704710B591
:10F0D00000F089F8922449004FF000504FF0805121
:10F0E000FFF7B2BE4FF47F0C1CEAD0121EBF1CEA21
:10F0F000D11392EA0C0F93EA0C0F00F0478090EACC
:10F10000010F48BF42F480724FF0004C4CEA0020DF
:10F110004CEA012102EB0302A0FB0113A2F500025D
:10F12000002918BF43F001035B0028BF4FEA3303F7
:10F1300042EB22425FEA132C4CEBC2502EBFBCEBD9
:10F14000436FB2F57C0F70474FEA036CBCF1004F80
:10F1500008BF20F00100B2F57C0F38BF70470BD517
:10F1600082F0FF0212F5803FC8BF704700F1C04037
:10F17000D8BF00F00040704700F5000C5FEA4C0C6F
:10F1800048BF7047B0F1C04000F073B890EA010F7B
:10F190000CEAD11348BF42F48072624538BF634520
:10F1A00004D280EA010000F00040704710B500F082
:10F1B0001AF800BF8900013E00F007B800F009B856
:10F1C0005FEA410C5FEA1C6C08D080EA010000F0A5
:10F1D00050B85FEA400C5FEA1C6CF6D14FF000407B
:10F1E000A0F5800070470EF1020E2EF0030E5EF8BF
:10F1F000044B244204D44FEA4102B2F17F4F11D8AC
:10F200004FEA4003B3F17F4F0CD80ED14FEAD07CC8
:10F21000B2F17F4F0CEB4C0C0CF1020C08BF4CEB25
:10F22000D17C04E04FF0080C01E04FEAD17C0CEBFC
:10F230004C0324FA03F404F00704B4F1040C06D2DE
:10F240000EEB840CBDE810404CF0010C6047DFE889
:10F250000CF0070802024FF00040A0F5800010BD3E
:10F260000846420018BFD2F1807288BF00F000400B
:10F2700010BDFF2141EAD050C005704780F000402A
:10F2800090EA010F7FF585AD81F0004100F007B8ED
:10F2900090EA010F48BF81F000413FF57AAD421A74
:10F2A00004D882F00042A0EB020011444FEAD05291
:10F2B0004FF07F4C1CEA410FA2EBD15318BF9CEAE0
:10F2C000026F4AD04FF0004C4CEA00204CEA01217A
:10F2D00021FA03FCB0EB0C0C0FD412F0FE0F36D069
:10F2E0005FEA4C001DD5001240EBC25038BF70479A
:10F2F0001CF03F0F18BF70470BE0A2F101025FEA5C
:10F300001C2040EBC25038BF70471CF07F0F18BF65
:10F310007047C3F12003994014BF401E20F0010044
:10F32000704780084FEA122308BF7047B0FA80FC8C
:10F33000A2EB0C02CCF1280C60FA0CF093EA122F2D
:10F3400004BF00EBC25070474FEAC3707047130A06
:10F350005FEADC1008BF7047F6E79CEA026F04D052
:10F3600010EA5C0F08BF0020704710B5FFF73BFFA5
:10F3700040DFF63E81F000407047F1F78DBDF1F7B8
:10F38000ADBF0CF00F03092B08BF082000F0598017
:10F390000A2B0BD0082B18BF704708BF1CF0400F7A
:10F3A0000AD04FF000004FF0000170471CF0400FF2
:10F3B00018BF4FF0004070471CF0100F08D020F02D
:10F3C000704300F07F4242EAD3014FEA4370704736
:10F3D00000F0604021F07F4242EA000201F07F40ED
:10F3E00040EA727070474FF0FF0C4CF4E06C1CEA7E
:10F3F00011531CBF9CEA030C9445C2BFDA4201EBD7
:10F4000002517047002B0DD0BCF1000F0FD0002A25
:10F4100001F00041A4BF41F0E04141F07F614FF0B5
:10F420000000704701F000414FF00000704750EAC3
:10F4300001334FF09B0C18BF4CF0806C7FF44AA84E
:10F4400070471CF4801F11D01CF4E02F03D06FEA2A
:10F45000CC31490070474FF04050EFF3008222F06A
:10F46000704242EA000282F3008870474FF00000C9
:10F470007047010202030405060708090A0B0C0D78
:10F480000E0F1010010202030405060708090A0BFB
:10F490000C0D0E0F10100000000000000000010213
:10F4A0000304060708090000000001020304456187
:10F4B00073794C6F67676572496E6974000000006C
:10F4C0000000000000000000000000040404040428
:10F4D000000004000014140A0000000000000000F6
:10F4E0000000000A0A1F0A0A1F0A0A000000040E90
:10F4F0001505060C14150E0400000012150D152E2E
:10F500002C2A1200000000040A0A361515291600DC
:10F5100000020201000000000000000000100808C6
:10F52000040404040408081000020404080808087D
:10F53000080404020000000004150E0E150400006B
:10F540000000000008083E0808000000000000005D
:10F5500000000000000202010000000000003F0067
:10F560000000000000000000000000000000020099
:10F570000000201010080804040202010000000E20
:10F580001111111111110E000000000406040404F1
:10F5900004040E000000000E1111080402011F00F7
:10F5A0000000000E11100C1010110E0000000008D9
:10F5B0000C0C0A091F081C000000001F01010F119C
:10F5C00010110E000000000C12010D1311110E009D
:10F5D0000000001E10080804040404000000000ECF
:10F5E00011110E1111110E000000000E111119164B
:10F5F00010090600000000000004000000000400E4
:10F6000000000000000004000000040400000010DE
:10F61000080402020408100000000000003F003F40
:10F62000000000000000000204081010080402009E
:10F630000000000E11110804040004000000001C6A
:10F6400022292D2D1D221C0000000004040C0A0A92
:10F650001E1233000000000F12120E1212120F00C1
:10F660000000001E1101010101110E000000000F39
:10F670001212121212120F000000001F120A0E0ABC
:10F6800002121F000000001F120A0E0A02020700E9
:10F690000000001C1201013911120C00000000339F
:10F6A00012121E12121233000000001F0404040480
:10F6B00004041F000000003E0808080808080809A4
:10F6C00007000037120A060A12123700000000076E
:10F6D0000202020202223F000000003B1B1B1B151E
:10F6E000151535000000003B1216161A1A121700E5
:10F6F0000000000E1111111111110E000000000F79
:10F7000012120E02020207000000000E1111111168
:10F7100017190E180000000F12120E0A12123700ED
:10F720000000001E1101060810110F000000001F4C
:10F730001504040404040E00000000331212121217
:10F7400012120C000000003312120A0A0C0404000A
:10F75000000000151515150E0A0A0A000000001B0E
:10F760000A0A04040A0A1B000000001B0A0A0A0411
:10F7700004040E000000001F0908040402121F0008
:10F78000001C0404040404040404041C0000020219
:10F790000404040808081010000E080808080808E7
:10F7A0000808080E00040A00000000000000000025
:10F7B0000000000000000000000000003F02040004
:10F7C00000000000000000000000000000000C121B
:10F7D0001C123C000000030202020E1212120E0064
:10F7E0000000000000001C1202120C0000001810A3
:10F7F00010101C1212123C000000000000000C123D
:10F800001E021C000000182404041E0404041E0030
:10F810000000000000003C120C021C221C0003022D
:10F8200002020E1212123700000004040000060447
:10F8300004040E000000080800000C08080808086E
:10F840000700030202021A0A060A13000000070456
:10F850000404040404041F000000000000000F154D
:10F86000151515000000000000000F1212123700DD
:10F870000000000000000C1212120C00000000003A
:10F8800000000F1212120E020700000000001C12EE
:10F8900012121C103800000000001B0602020700B4
:10F8A0000000000000001E020C101E0000000000FE
:10F8B00004041E0404041C000000000000001B12CD
:10F8C00012123C000000000000001B0A0A040400A1
:10F8D00000000000000015150E0A0A0000000000DC
:10F8E00000001B0A040A1B00000000000000331285
:10F8F000120C08040300000000001E0804041E008F
:10F900000018080808080C08080808180008080863
:10F91000080808080808080808060404040408047D
:10F9200004040406001609000000000000000000A6
:10F9300000000000000000000000000000000000C7
:10F94000000000000808080808080800001818004F
:10F950000000486C241200000000000000000000BD
:10F96000000000002424247F1212127F12121200C1
:10F97000000000081C2A2A0A0C1828282A2A1C0819
:10F980000800000022251515152A58545454220049
:10F99000000000000C1212120A76252911916E0047
:10F9A0000000060604030000000000000000000044
:10F9B0000000402010100808080808081010204017
:10F9C00000000204080810101010101008080402AB
:10F9D000000000000008086B1C1C6B0808000000F9
:10F9E0000000000000080808087F08080808000058
:10F9F00000000000000000000000000000060604F7
:10FA0000030000000000000000FE000000000000F5
:10FA100000000000000000000000000000060600DA
:10FA2000000000804040202010100808040402025A
:10FA30000000000018244242424242424224180080
:10FA400000000000080E08080808080808083E0022
:10FA5000000000003C4242422020100804427E0088
:10FA6000000000003C4242201820404042221C007E
:10FA700000000000203028242422227E202078004C
:10FA8000000000007E0202021A26404042221C00B2
:10FA900000000000382402021A26424242241800C4
:10FAA000000000007E222210100808080808080044
:10FAB000000000003C4242422418244242423C00E2
:10FAC00000000000182442424264584040241C00B8
:10FAD00000000000000000181800000000181800C6
:10FAE00000000000000000000800000000000808FE
:10FAF0000400000040201008040204081020400008
:10FB0000000000000000007F0000007F00000000F7
:10FB10000000000002040810204020100804020029
:10FB2000000000003C42424640201010001818001F
:10FB3000000000001C225A555555552D42221C002C
:10FB4000000000000808181414243C224242E70078
:10FB5000000000001F2222221E22424242221F00D9
:10FB6000000000007C4242010101010142221C0010
:10FB7000000000001F2242424242424242221F0035
:10FB8000000000003F4212121E12120242423F00C9
:10FB9000000000003F4212121E1212020202070071
:10FBA000000000003C2222010101712122221C00E0
:10FBB00000000000E7424242427E42424242E700E9
:10FBC000000000003E0808080808080808083E0071
:10FBD000000000007C1010101010101010101011F8
:10FBE0000F0000007722120A0E0A1212222277005A
:10FBF00000000000070202020202020202427F002D
:10FC00000000000077363636362A2A2A2A2A6B0068
:10FC100000000000E346464A4A52525262624700E0
:10FC2000000000001C2241414141414141221C0091
:10FC3000000000003F424242423E02020202070030
:10FC4000000000001C2241414141414D53321C60E3
:10FC5000000000003F4242423E1212222242C700F0
:10FC6000000000007C4242020418204042423E0054
:10FC7000000000007F4908080808080808081C0060
:10FC800000000000E74242424242424242423C00FF
:10FC900000000000E742422224241414180808003F
:10FCA000000000006B49494949555536222222007F
:10FCB00000000000E7422424181818242442E7001A
:10FCC00000000000772222141408080808081C000D
:10FCD000000000007E2120101008040442423F0072
:10FCE00000007808080808080808080808080878C4
:10FCF0000000000202040408080810102020204020
:10FD000040001E1010101010101010101010101EB7
:10FD10000000384400000000000000000000000067
:10FD200000000000000000000000000000000000D3
:10FD3000FF000608000000000000000000000000B6
:10FD400000000000000000003C4278444242FC00F9
:10FD500000000000030202021A26424242261A0054
:10FD60000000000000000000384402020244380095
:10FD70000000000060404040784442424264D800A5
:10FD800000000000000000003C427E0202423C00F5
:10FD900000000000F08808087E08080808083E00F7
:10FDA00000000000000000007C22221C023C4242B5
:10FDB0003C000000030202023A4642424242E7008F
:10FDC000000000000C0C00000E08080808083E00A7
:10FDD00000000000303000003820202020202022A9
:10FDE0001E0000000302020272120A16122277009D
:10FDF000000000000E0808080808080808083E006F
:10FE000000000000000000007F9292929292B700E2
:10FE100000000000000000003B4642424242E70072
:10FE200000000000000000003C42424242423C0010
:10FE300000000000000000001B26424242221E0279
:10FE4000070000000000000078444242424478402D
:10FE5000E000000000000000774C040404041F00D0
:10FE600000000000000000007C42023C40423E00D6
:10FE700000000000000008083E08080808083000DC
:10FE80000000000000000000634242424262DC00C9
:10FE90000000000000000000E742242414080800CD
:10FEA0000000000000000000EB49495555222200E7
:10FEB00000000000000000007624181818246E00CE
:10FEC0000000000000000000E74224241418080885
:10FED00007000000000000007E22100808447E0099
:10FEE0000000C0202020202010202020202020C022
:10FEF0000010101010101010101010101010101012
:10FF0000100006080808080810080808080808066D
:10FF1000000C32C2000000000000000000000000E1
:10FF200000000000000000000000000000000000D1
:10FF300000000000000000000000000000000000C1
:10FF400000000000000000000000000000000000B1
:10FF50000000000000000000006000600060006021
:10FF600000600060006000400020002000200000D1
:10FF70000000000000600060006000000000000061
:10FF8000000000000060066006300398018800440D
:10FF90000000000000000000000000000000000061
:10FFA0000000000000000000000000000000000051
:10FFB00000000000000000000010021002100210FB
:10FFC00002FE07FE0708020801080108010801FEF9
:10FFD00007FE070401040104010401000000000001
:10FFE0000000000000000040004000F00158034CF9
:10FFF00003CC034C0058007000E000C001C0014079
:020000040801F1
:10000000034C035C034C034801F000400040000037
:100010000000000000000000000E010A01910091A4
:10002000009100510051003A00AE03A0025004506C
:1000300004480448044804840284030000000000CB
:1000400000000000000000000038006C006C006C34
:10005000006C006C002C0098071C011A013301335E
:10006000016301E300C308C6093C0700000000006B
:1000700000000000000C001C00100010000800042C
:100080000000000000000000000000000000000070
:100090000000000000000000000000000000000060
:1000A0000000000000000400020001800080004009
:1000B0000040002000200020002000200020002020
:1000C00000400040008000800000010002000400A9
:1000D00000000000000200040008001000100020D2
:1000E0000020004000400040004000400040004030
:1000F0000020002000100010000800040002000092
:10010000000000000000000000000000004000C0EF
:10011000004000460C4E0FD001F0015E0F460C402F
:10012000004000400000000000000000000000004F
:10013000000000000000000000000000000000407F
:10014000004000400040004000FE0F4000400040E2
:10015000004000400000000000000000000000001F
:10016000000000000000000000000000000000008F
:10017000000000000000000000000000000000007F
:1001800000000000000C001C00100010000800041B
:10019000000000000000000000000000000000005F
:1001A000000000000000000000FE0700000000004A
:1001B000000000000000000000000000000000003F
:1001C000000000000000000000000000000000002F
:1001D000000000000000000000000000000000001F
:1001E00000000000001C001C001C000000000000BB
:1001F00000000000000004000600020003000100EF
:1002000001800080004000400060002000200010BD
:10021000001000080008000C0004000600020000A6
:100220000000000000000000000000F00098010C39
:10023000030C03060606060606060606060606065E
:100240000606060C030C039801F0000000000000F5
:10025000000000000000000000000040007C006082
:10026000006000600060006000600060006000608E
:10027000006000600060006000FC030000000000FF
:100280000000000000000000000000F800840102EF
:100290000306030603000300018001C00060002084
:1002A000001000080204020602FE03000000000025
:1002B00000000000000000000000007800C600867A
:1002C00001860180018001C00070008001000100F2
:1002D000030003060306038601F800000000000087
:1002E000000000000000000000000080018001C04C
:1002F00001A001A00190018801880184018201FE12
:100300000F8001800180018001E0070000000000F3
:100310000000000000000000000000FC03040004D6
:1003200000040004000400F4008C01040300030036
:10033000030603060382018401F8000000000000A8
:100340000000000000000000000000E00118030CA5
:10035000030C0004000600E60116030E060606065E
:1003600006060604060C021803F000000000000058
:100370000000000000000000000000F8070C060468
:1003800002040100010001800080004000400040A4
:10039000006000600060006000600000000000007D
:1003A0000000000000000000000000F8010C03063F
:1003B00006060606060C021C03F000C8010C030624
:1003C000060606060606060C03F001000000000003
:1003D0000000000000000000000000F0000C010C14
:1003E00003060206060606060606078C06780600C1
:1003F00006000300030C018C0178000000000000DF
:1004000000000000000000000000000000000000EC
:100410000000000000E000E000E00000000000003C
:100420000000000000E000E000E00000000000002C
:1004300000000000000000000000000000000000BC
:1004400000000000006000600000000000000000EC
:10045000000000000000006000600040002000205C
:100460000000000000000000000004000200018005
:1004700000400020001000080004000800100020C8
:1004800000400080000001000200040000000000A5
:10049000000000000000000000000000000000005C
:1004A0000000000000FE07000000000000FE070042
:1004B000000000000000000000000000000000003C
:1004C00000000000000000000004000800100020F0
:1004D00000400080000001000200040002000180D2
:1004E0000040002000100008000400000000000090
:1004F0000000000000000000000000E003180604F7
:100500000C040C0C0C0C0C00078001400040004057
:100510000000000000E000E000E00000000000003B
:10052000000000000000000000E00018030C02CCF6
:100530000564056605A605B604B604B604B604B699
:1005400002E4010C040C021803F00000000000009B
:10055000000000000000000000000060006000508B
:1005600000D00090009000880088010801F8010484
:100570000304030402020202060F0F000000000041
:100580000000000000000000000000FE008C030CD2
:10059000030C030C030C038C01FC000C030C020C79
:1005A000060C060C060C060C03FE01000000000001
:1005B0000000000000000000000000E00318030C31
:1005C000060C0404040600060006000600060006E9
:1005D0000006040C040C021803F0000000000000E8
:1005E00000000000000000000000007F008C010CF3
:1005F000030C030C060C060C060C060C060C060C71
:10060000060C060C030C038C017F000000000000A8
:100610000000000000000000000000FF03060306C9
:10062000040604060086008600FE0086008600861A
:10063000000600060406040602FF03000000000096
:100640000000000000000000000000FF0306030699
:10065000040604060086008600FE008600860086EA
:100660000006000600060006001F00000000000053
:100670000000000000000000000000F00018010C65
:10068000020C0204020600060006000600C60F0661
:100690000306030C030C031803F000000000000025
:1006A00000000000000000000000000F0F0606061A
:1006B000060606060606060606FE070606060606E1
:1006C0000606060606060606060F0F0000000000D6
:1006D0000000000000000000000000FC036000605B
:1006E000006000600060006000600060006000600A
:1006F000006000600060006000FC0300000000007B
:100700000000000000000000000000F807C000C06A
:1007100000C000C000C000C000C000C000C000C0D9
:1007200000C000C000C000C000C000C60066003CA1
:100730000000000000000000000000CF038601C69A
:100740000046002600160036002E006E004600C649
:100750000086008601060106038F070000000000E6
:1007600000000000000000000000001F000600065E
:100770000006000600060006000600060006000649
:10078000000600060406040602FF03000000000045
:10079000000000000000000000000007078603863C
:1007A000038E038E034E034E034A035A035A033A41
:1007B00003320332033203120387070000000000F4
:1007C00000000000000000000000008E0F0C021C62
:1007D000021C0234023402640264024402C4028431
:1007E0000284038403040304031F020000000000CA
:1007F0000000000000000000000000F00098010C64
:10080000030C020606060606060606060606060689
:100810000606060C020C039801F000000000000020
:100820000000000000000000000000FF00060306BA
:100830000606060606060606068603FE00060006EF
:100840000006000600060006001F00000000000071
:100850000000000000000000000000F00098010C03
:10086000030C020606060606060606060606060629
:100870000676064C02CC039801F0008007000300C6
:100880000000000000000000000000FF0106030659
:10089000060606060606060603FE004600C6008695
:1008A0000086010603060306060F0E000000000086
:1008B0000000000000000000000000F8020C030629
:1008C00002060206000E003C00F800E00380030070
:1008D000070206020606060C03F0010000000000F5
:1008E0000000000000000000000000FE076204613C
:1008F00008610860006000600060006000600060E7
:10090000006000600060006000F80100000000006E
:1009100000000000000000000000001E070C020C98
:10092000020C020C020C020C020C020C020C020C57
:10093000020C020C020C021801F000000000000082
:1009400000000000000000000000000F0706020485
:100950000104010C010C01880088009800980050E7
:100960000050007000300020002000000000000057
:100970000000000000000000000000F70E620442CA
:10098000044604460464026402E402E4029C029CFD
:10099000019801980188018800880000000000008B
:1009A00000000000000000000000009E070C01088D
:1009B0000118019000B0006000200060006000D0CD
:1009C0000090008801080104038E07000000000069
:1009D00000000000000000000000000F0F060404EB
:1009E000020C0208011801B800B00070006000603D
:1009F000006000600060006000F80100000000007E
:100A00000000000000000000000000FC070C0206CF
:100A100003020180018000400040002000200010FF
:100A200000180008040C040402FE0300000000008B
:100A30000000000000E00320002000200020002033
:100A400000200020002000200020002000200020A6
:100A500000200020002000200020002000E00300F3
:100A6000000000000000000000040004000800086E
:100A7000001000100010002000200040004000C0C6
:100A8000008000800000010001000200020002005E
:100A900004000000007C0040004000400040004096
:100AA0000040004000400040004000400040004046
:100AB000004000400040004000400040007C00003A
:100AC000000000600090000801000000000000002D
:100AD0000000000000000000000000000000000016
:100AE0000000000000000000000000000000000006
:100AF00000000000000000000000000000000000F6
:100B000000000000000000000000000000000000E5
:100B1000000000000000000000000000000000FFD6
:100B20000F0000000018006000000000000000003E
:100B300000000000000000000000000000000000B5
:100B400000000000000000000000000000000000A5
:100B50000000000000000000000000000000000095
:100B60000000000000F0010C030C030003E0031C74
:100B7000030E03060306038E0B7C0E00000000002C
:100B800000000000000000000008000E000C000C37
:100B9000000C000C00CC013C031C060C060C060CDF
:100BA000060C060C060C021C03E401000000000009
:100BB0000000000000000000000000000000000035
:100BC0000000000000F0008C018C01860106000688
:100BD00000060006020C020C01F0000000000000FC
:100BE0000000000000000000000002C0030003003D
:100BF000030003000378038C030C030603060306BB
:100C0000030603060304038C0778010000000000BC
:100C100000000000000000000000000000000000D4
:100C20000000000000E001180308020C060C06FC9E
:100C3000070C000C0018041802E00100000000007E
:100C40000000000000000000000000C0036006304B
:100C50000630003000FE013000300030003000303F
:100C6000003000300030003000FC010000000000C7
:100C70000000000000000000000000000000000074
:100C80000000000000F007D8068C018C018C019850
:100C900001F8000C00FC00CC03060306038E03F8E9
:100CA00000000000000000000008000E000C000C16
:100CB000000C000C00EC011C030C030C030C030CD7
:100CC000030C030C030C030C039E07000000000040
:100CD0000000000000000000000000600060000054
:100CE00000000040007C0060006000600060006068
:100CF000006000600060006000FC03000000000075
:100D00000000000000000000000000C001C0010061
:100D10000000000001F0018001800180018001805D
:100D200001800180018001800180018001CC007C74
:100D300000000000000000000008000E000C000C85
:100D4000000C000C008C038C008C004C006C005CD0
:100D5000008C008C010C010C039E070000000000B9
:100D600000000000000000000040007C0060006007
:100D70000060006000600060006000600060006073
:100D8000006000600060006000FC030000000000E4
:100D90000000000000000000000000000000000053
:100DA00000000000003707EE066606660666066667
:100DB000066606660666066606FF0F00000000006F
:100DC0000000000000000000000000000000000023
:100DD0000000000000EE011C030C030C030C030CCC
:100DE000030C030C030C030C039E0700000000001F
:100DF00000000000000000000000000000000000F3
:100E00000000000000F00098010C0306060606062C
:100E100006060606060C030C03F0000000000000A6
:100E200000000000000000000000000000000000C2
:100E30000000000000EE011C030C060C060C060C62
:100E4000060C060C060C031C03EC010C000C003E07
:100E50000000000000000000000000000000000092
:100E6000000000000078028C030C03060306030652
:100E7000030603060304038C03780300030003C086
:100E8000070000000000000000000000000000005B
:100E900000000000009F03580638061800180018CC
:100EA000001800180018001800FF000000000000E3
:100EB0000000000000000000000000000000000032
:100EC0000000000000F0031C030C020C023800F0CC
:100ED00000C003040304038C03FC010000000000B5
:100EE00000000000000000000000000000200020C2
:100EF0000030003000FE01300030003000300030A3
:100F0000003000300030023002E00100000000003C
:100F100000000000000000000000000000000000D1
:100F200000000008028E030C030C030C030C030CDE
:100F3000030C030C030C039C077801000000000065
:100F400000000000000000000000000000000000A1
:100F500000000000001E070C0208010801180190A3
:100F600000B000B000600060002000000000000041
:100F70000000000000000000000000000000000071
:100F80000000000000F70E6204460464026402ECF4
:100F9000029C0198019801980108000000000000DF
:100FA0000000000000000000000000000000000041
:100FB0000000000000BC0718011001B000600060D4
:100FC00000E0009000080108039E070000000000F8
:100FD0000000000000000000000000000000000011
:100FE00000000000009E0708010801080190009021
:100FF00000B0006000600060002000200024001CA1
:1010000000000000000000000000000000000000E0
:101010000000000000FC018401C4004400600020C6
:10102000003000180208020C03FC01000000000060
:10103000000000000000038000800080008000802D
:101040000080008000800040002000400080008080
:10105000008000800080008000800080000003008D
:101060000040004000400040004000400040004080
:101070000040004000400040004000400040004070
:101080000040004000400040004000400040004060
:1010900000000000000C00100010001000100010F4
:1010A0000010001000100020004000200010001070
:1010B000001000100010001000100010000C0000C4
:1010C0000000001C002204C2048003000000000095
:1010D0000000000000000000000000000000000010
:1010E0000000000000000000000000000000000000
:1010F00000000000000000000000000000000000F0
:1011000000000000000000000000000000000000DF
:1011100000000000000000000000000000000000CF
:1011200000000000000000000000000000000000BF
:101130000000000000000000000000C001C001C06D
:1011400001C001C001C001C001800080008000809A
:10115000008000800080000000000000000000808F
:1011600001C003C003800100000000000000000077
:1011700000000000000000E01CE01CF01E700E38B3
:1011800007180308018400000000000000000000B0
:10119000000000000000000000000000000000004F
:1011A000000000000000000000000000000000003F
:1011B00000000000000000000000000000201020DF
:1011C00010201020102010FE7FFE7F100810081045
:1011D000081008100810081008FE7FFE7F08040899
:1011E00004080408040804000000000000000000D7
:1011F00000000000000000000000010001C00760C6
:1012000019103118311839183938017001E001C04E
:10121000038007000F001D003900311C311C310C08
:10122000310C11180DE00700010001000100000061
:10123000000000000000000000000000001C10364C
:10124000186308630C63046304630263026301367A
:101250001D9C37802280634063406320632063309D
:101260006310221836081C00000000000000000077
:1012700000000000000000000000000000F00098E6
:10128000018C018C018C018C018C00CC0078001841
:101290003E1C083608320863046304C304C3038396
:1012A0004306438E26781C0000000000000000006A
:1012B000000000000000001C003C003C003000303A
:1012C0000010000C000600000000000000000000FC
:1012D000000000000000000000000000000000000E
:1012E00000000000000000000000000000000000FE
:1012F0000000000000000000400020001000080076
:101300000C0004000600030003000380018001803C
:101310000180018001800180018001000300030041
:101320000300060006000C0008001000200040002A
:10133000000000000000000200040008001000305F
:101340000020006000C000C000C00080018001805B
:101350000180018001800180018001C000C000C0C7
:10136000006000600030001000080004000200006F
:10137000000000000000000000000000000000006D
:101380000000018003800300011C713C79783DC09E
:10139000070001C007783D3C791C71000180038083
:1013A00003800100000000000000000000000000B9
:1013B000000000000000000000000000000000002D
:1013C0000000000001000100010001000100010017
:1013D00001FC7F000100010001000100010001008B
:1013E00001000000000000000000000000000000FC
:1013F00000000000000000000000000000000000ED
:1014000000000000000000000000000000000000DC
:1014100000000000000000000000000000000000CC
:10142000001C003C003C003000300010000C0006A6
:1014300000000000000000000000000000000000AC
:10144000000000000000000000000000000000009C
:1014500000FE7F000000000000000000000000000F
:10146000000000000000000000000000000000007C
:10147000000000000000000000000000000000006C
:10148000000000000000000000000000000000005C
:101490000000000000000000000000000000001834
:1014A000003C003C001800000000000000000000AC
:1014B000000000000000000040006000200030003C
:1014C0001000180008000C000400060002000300D1
:1014D0000180018000C0004000600020003000104A
:1014E00000180008000C00040006000200000000C4
:1014F00000000000000000000000000000C00760C5
:101500000C30181830183018200C600C600C600C6F
:10151000600C600C600C600C600C601820183018B7
:10152000303018600CC00700000000000000000010
:10153000000000000000000000000000000001802A
:1015400001F801800180018001800180018001801B
:101550000180018001800180018001800180018083
:10156000018001C003F81F0000000000000000001F
:1015700000000000000000000000000000E0071074
:101580001C0818043004300C300C300030001800F7
:101590000800040002000180004000202010200804
:1015A000200430FC1FFC1F000000000000000000B1
:1015B00000000000000000000000000000E0031830
:1015C0000E0C0C0C180C180C180018000C0006C09F
:1015D00003000E00180010003000300C300C300CEE
:1015E000100C18180CE003000000000000000000C0
:1015F00000000000000000000000000000000C00DF
:101600000E000E000F800E800E400E600E200E1099
:101610000E100E080E040E040EFE7F000E000E00CB
:101620000E000E000E000EC07F0000000000000043
:1016300000000000000000000000000000F03FF08B
:101640003F10001000100008000800C807280C1800
:1016500018081000300030003000300C300C30041E
:10166000180418080CF0030000000000000000003F
:1016700000000000000000000000000000800FC01B
:1016800010203010301800180008000C008C0F6C6F
:10169000183C301C600C600C600C600C601860180A
:1016A0002030306018C0070000000000000000007B
:1016B00000000000000000000000000000F83FF8FB
:1016C0003F1C100C0804080404000400020002007F
:1016D0000100010001800080008000C000C000C047
:1016E00000C000C000C000000000000000000000BA
:1016F00000000000000000000000000000E00730D3
:101700000C18180C300C300C301C3038187008E0F5
:1017100007B007180E0C1C063806300630063006D7
:10172000300C18180CE0030000000000000000005E
:1017300000000000000000000000000000E00318AE
:10174000040C080C18061006300630063006300669
:10175000380C3C1836F03100300018001800180C16
:101760000C0C060C03F0010000000000000000005B
:101770000000000000000000000000000000000069
:1017800000000000000000000000008001C003C055
:101790000380010000000000000000000000008045
:1017A00001C003C003800100000000000000000031
:1017B0000000000000000000000000000000000029
:1017C0000000000000000000000000C000C0000099
:1017D0000000000000000000000000000000000009
:1017E000000000C000C000800080004000400000F9
:1017F00000000000000000000000000020001000B9
:10180000080004000600038001C0006000300018DA
:10181000000C00180030006000C0008001000300D0
:101820000600040008001000200000000000000076
:1018300000000000000000000000000000000000A8
:101840000000000000000000000000FE7F0000001B
:1018500000000000000000FE7F000000000000000B
:101860000000000000000000000000000000000078
:10187000000000000000000000000004000800104C
:101880000020006000C000800100030006000C0082
:101890001800300018000C000600038001C0006032
:1018A00000200010000800040000000000000000FC
:1018B0000000000000000000000000C00730180811
:1018C0003008600C601C601C601C600030001C0054
:1018D0000600018000800080008000000000008081
:1018E00001C003C0038001000000000000000000F0
:1018F00000000000000000000000000000C00760C1
:1019000018103018200C2F8C4D864CC64CC64C66D7
:101910004C66446644662666266615CC1C0C400858
:101920002018303018C00700000000000000000040
:1019300000000000000000000000000001C001C025
:1019400001C0014001600320032003200330061082
:101950000610061006F80F080C080C080C0C0C04F6
:1019600018041806181F7C0000000000000000008A
:1019700000000000000000000000000000FE07184A
:101980001C183818301830183018301818180CF87F
:101990000718181830182018601860186018601898
:1019A0006018301818FE0F00000000000000000052
:1019B00000000000000000000000000000C02760E0
:1019C00038103018200C400C4004000600060006B9
:1019D00000060006000600060006000C400C400C45
:1019E0002018303018C00700000000000000000080
:1019F00000000000000000000000000000FE0318CE
:101A00000E18181830183018301860186018601840
:101A10006018601860186018601860183018301866
:101A2000101818180EFE030000000000000000004F
:101A300000000000000000000000000000FE3F1851
:101A400030182018601840180018081808180CF8EA
:101A50000F180C180818081800180018001840185B
:101A60004018201830FE3F00000000000000000079
:101A700000000000000000000000000000FE7F18D1
:101A800070184018C018801800181018101818F88E
:101A90001F1818181018101800180018001800182F
:101AA00000180018007E0000000000000000000088
:101AB00000000000000000000000000000C01370E3
:101AC0001C101018100C200C200400060006000644
:101AD000000600060006FC063006300C300C3018FC
:101AE0003018303008C0070000000000000000007F
:101AF000000000000000000000000000003F7E0C1D
:101B0000180C180C180C180C180C180C180C180CB5
:101B100018FC1F0C180C180C180C180C180C180CAE
:101B2000180C180C183F7E00000000000000000098
:101B300000000000000000000000000000F81F800E
:101B4000018001800180018001800180018001808D
:101B5000018001800180018001800180018001807D
:101B60000180018001F81F0000000000000000005B
:101B700000000000000000000000000000E07F0006
:101B80000600060006000600060006000600060025
:101B90000600060006000600060006000600060015
:101BA0000600060006000600060E060E038E01FC67
:101BB000000000000000000000000000007E7C1813
:101BC000181808180418061802180198019801D866
:101BD00001B803380318071806180E180C181C183B
:101BE00018183018307EFC000000000000000000D3
:101BF000000000000000000000000000007E00184F
