:020000040800F2
:1000000000B60120A10200087F37000897310008E0
:100010007D370008D10E0008554D00080000000093
:10002000000000000000000000000000514800082F
:10003000310F000800000000BD3A00086F480008BA
:10004000BB020008BB020008BB020008BB0200089C
:10005000BB020008BB020008BB020008BB0200088C
:10006000BB020008BB020008BB020008BB0200087C
:10007000BB020008BB020008BB020008BB0200086C
:10008000BB020008BB020008BB020008BB0200085C
:10009000BB020008BB020008BB020008BB0200084C
:1000A000BB020008BB020008BB020008BB0200083C
:1000B000BB020008BB02000819490008BB02000887
:1000C000BB020008BB020008BB020008BB0200081C
:1000D000BB0200080D4D0008194D0008BB020008C6
:1000E000BB020008BB020008BB020008BB020008FC
:1000F000BB020008BB020008BB020008BB020008EC
:10010000BB020008BB020008BB020008BB020008DB
:10011000BB020008BB0200084D490008BB020008F2
:10012000BB020008BB020008BB020008BB020008BB
:100130000D0F0008BB020008BB020008BB0200084C
:10014000BB020008BB020008BB020008BB0200089B
:10015000BB020008BB020008BB020008BB0200088B
:10016000BB020008BB020008BB020008BB0200087B
:10017000BB020008BB020008BB0200080000000030
:10018000BB020008BB02000800F002F800F079F89A
:100190000AA090E8000C82448344AAF10107DA45E2
:1001A00001D100F06EF8AFF2090EBAE80F0013F0BB
:1001B000010F18BFFB1A43F001031847DCDA0300F4
:1001C0001CDB03000A444FF0000C10F8013B13F055
:1001D000070408BF10F8014B1D1108BF10F8015BA0
:1001E000641E05D010F8016B641E01F8016BF9D193
:1001F00013F0080F1EBF10F8014BAD1C0C1B09D1EA
:100200006D1E58BF01F801CBFAD505E014F8016B5B
:1002100001F8016B6D1EF9D59142D6D370470000ED
:100220000023002400250026103A28BF78C1FBD8FF
:10023000520728BF30C148BF0B60704703681B0AD4
:1002400028BF41F08001642900F07481752900F015
:100250007181782900F0E881E42900F0A781632901
:1002600000F0CE84732900F0D384002070471FB5BE
:100270000FF042F99DE8030000F0E4FB1FBD10B54C
:1002800010BD00F01CFD1146FFF7F1FF0CF0D8F88F
:1002900000F03AFD03B4FFF7F2FF03BC04F072FD77
:1002A0000948804709480047FEE7FEE7FEE7FEE70A
:1002B000FEE7FEE7FEE7FEE7FEE7FEE70448054946
:1002C000054A064B704700000949000889010008EB
:1002D00000B0012000B6012000B2012000B20120D0
:1002E000704770B5064600F091FB056806F10B00FB
:1002F00020F00704B4429CBF002070BD2B466A6802
:10030000BAB11068A04210D304F1080188423CBF82
:100310005068586007D35168101941601168091B73
:10032000016058601460101D70BD13465268002AA9
:10033000E7D12146284600F071FB0028DED170BDD0
:1003400070B50446051F00F061FB0068002C14BF67
:10035000446870BD002C18BFAC423CBF20466468A6
:10036000F8D301680A18AA4218BF456003D12A6869
:1003700005461144016028684119A1421CBF6C6008
:1003800070BD6168696021680844286070BD53EAE7
:10039000020C00F069802DE9F04B4FF00006002BB5
:1003A0001FBFB3FA83F503FA05F424FA05F65E409D
:1003B00012BF1643B2FA82F502FA05F4C5F1200520
:1003C0001EBF22FA05FC44EA0C04203556EA044C10
:1003D0004FEA144418BF641C4FF000084FF00009A6
:1003E000904271EB030C39D3002919BFB1FA81F7A0
:1003F00001FA07F6B0FA80F700FA07F6C7F120070E
:100400001EBF20FA07FC46EA0C062037B6FBF4FCB8
:10041000A7EB0507103F07F01F0BCBF120060CFAE6
:100420000BFB2CFA06F644BFB3460026202FA4BFD0
:100430005E464FF0000B5BEA060C08BF4FF0010B65
:1004400019EB0B09ABFB027C48EB0608C01B06FB53
:1004500002CC0BFB03CC71EB0C01C1E70B4602464F
:1004600041464846BDE8F08B13B54FF000004FF011
:100470000001AFF30080BDE81C4070470FB4044991
:1004800010B503AA029800F0C7FB10BC5DF814FB7E
:100490001C00002070B5044685690068C10601D5BE
:1004A000302600E02026C00707D070BDD4E9012126
:1004B00030469047206A401C20626D1EF6D570BD04
:1004C00070B5044685690078C00707D170BDD4E9CE
:1004D000012120209047206A401C20626D1EF6D525
:1004E00070BD70B50C460546012A05D028788006F7
:1004F00000D5EA69002302E0012305E05B1C93427A
:1005000002D2E05C0028F9D1A869E618C01AA861F7
:10051000286A184428622846FFF7BCFF04E0D5E9A2
:10052000012114F8010B9047B442F8D32846FFF795
:10053000C7FF70BD2DE9F0410646002410687529FB
:10054000314616A510D0AFF30080002802DA4042F1
:1005500013A507E031688A0701D512A502E0490713
:1005600004D511A5012401E0AFF3008000210A2287
:1005700006F1240709E0B0FBF2FCB0FBF2F302FB4A
:100580001C00303078541846491C0028F3D123460B
:100590002A463046BDE8F04100F0CFBA0000000026
:1005A0002D0000002B000000200000002DE9F0418C
:1005B0008046D21D22F007020025D2E90002F5296B
:1005C00015A614D0011E72F1000106DA0023D0EB4B
:1005D000030063EB020211A608E0D8F800108B07B5
:1005E00001D50FA602E0490701D50EA60125114647
:1005F000002408F1240704E000F05AFA30323A559A
:10060000641C50EA0102F7D12B463246214640468F
:10061000BDE8F04100F091BA000000002D0000009C
:100620002B0000002000000070B504460D46214656
:100630001068AFF300802188090502D50F4A7A447B
:1006400002E00E4A7A440E32002104F1240305E050
:1006500000F00F060009965D5E54491C0028F7D192
:1006600020780023000704D5702D02D009B10223A1
:1006700011322046BDE8704000F05FBA90CA030016
:100680002DE9F05F894604464FF0000ADFF874B1A7
:10069000FB44C0F820A02046E1688847002874D0B9
:1006A000252806D0D4E901219047206A401C206209
:1006B000F1E700265F462046E16888472028054686
:1006C00007DB312D05D2781910F8200C08B106434C
:1006D000F1E7B00701D526F00406C4F81CA00027F6
:1006E000C4F818A02A2D09D0284604F044FB38B3DA
:1006F00004EB8708303DC8F8185019E059F8041B7E
:10070000204604EB87029161E1688847012F054686
:1007100018D1E069002820DA26F020061DE0D8F87C
:10072000180000EB800005EB40003038C8F81800D6
:100730002046E1688847054604F01DFB0028EED1FD
:10074000012F0AD02E2D08D12046E16888477F1C52
:100750000546022F46F02006C4DBA069002803DA14
:10076000404246F00106A061F00701D026F01006D5
:100770006C2D0BD0682D09D04C2D39D06A2D35D079
:10078000742D35D07A2D33D016E038E0E1682F464D
:1007900020468847B842054609D16C2F26D04FF431
:1007A0008060E168064320468847054604E06C2FD8
:1007B0001AD04FF4807006430DB3A5F141001928FB
:1007C00002D8203546F400664A462946204626606F
:1007D0004E46FFF733FD80B101280BD0F61D26F001
:1007E000070000F1080956E74020E4E78020D8E739
:1007F0000020D6E706F104094DE7284652E7206AB3
:10080000BDE8F09F66CA0300401ECAB210F8011F7F
:100810008A4202D00029F9D10020704740EA010342
:1008200010B59B070FD1042A0DD310C808C9121F99
:100830009C42F8D020BA19BA884201D9012010BDD3
:100840004FF0FF3010BD1AB1D30703D0521C07E0A0
:10085000002010BD10F8013B11F8014B1B1B07D104
:1008600010F8013B11F8014B1B1B01D1921EF1D175
:10087000184610BD032A40F2308010F0030C00F03F
:10088000158011F8013BBCF1020F624498BF11F8CA
:1008900001CB00F8013B38BF11F8013BA2F1040283
:1008A00098BF00F801CB38BF00F8013B11F00303FB
:1008B00000F02580083AC0F0088051F8043B083A5F
:1008C00051F804CBA0E80810F5E7121D5CBF51F801
:1008D000043B40F8043BAFF30080D20724BF11F87B
:1008E000013B11F801CB48BF11F8012B24BF00F8E0
:1008F000013B00F801CB48BF00F8012B704710B551
:10090000203AC0F00B80B1E81850203AA0E8185007
:10091000B1E81850A0E81850BFF4F5AF5FEA027CC8
:1009200024BFB1E81850A0E8185044BF18C918C037
:10093000BDE810405FEA827C24BF51F8043B40F8D8
:10094000043B08BF7047D20728BF31F8023B48BFBD
:1009500011F8012B28BF20F8023B48BF00F8012BFB
:10096000704702F0FF0343EA032242EA024200F02A
:1009700002B84FF000020429C0F0128010F0030CFE
:1009800000F01B80CCF1040CBCF1020F18BF00F882
:10099000012BA8BF20F8022BA1EB0C0100F00DB831
:1009A0005FEAC17C24BF00F8012B00F8012B48BF8F
:1009B00000F8012B70474FF0000200B51346944633
:1009C0009646203922BFA0E80C50A0E80C50B1F1A7
:1009D0002001BFF4F7AF090728BFA0E80C5048BFBB
:1009E0000CC05DF804EB890028BF40F8042B08BF59
:1009F000704748BF20F8022B11F0804F18BF00F855
:100A0000012B704770477047704770470048704728
:100A1000A0F50120704770477047704738B504460D
:100A20000A4600206946AFF30080002808BF38BDA1
:100A300002460099204600F005F9012038BD01204A
:100A400000F036B9F8B5AFF30080054600200C463B
:100A5000102000BF0646A819A0420DD932466946AB
:100A60000020AFF30080070008BF00F021F90098D4
:100A7000A04218BF0546C419FFF7C8FF0560074626
:100A8000F01D20F007004619284600F00AF8B4428D
:100A900008BFF8BDA21B31463868BDE8F84000F039
:100AA000D1B800210160C0E90110704710207047E3
:100AB00030B5B0F10A024FEA900E71F100034EEA30
:100AC000817EB0EB0E0061EB91014FEA101E4EEA01
:100AD000017E10EB0E0041EB11114FEA102E4EEA91
:100AE000016E10EB0E0041EB11214FEA104E4EEA61
:100AF000014E10EB0E0041EB1141401841F1000195
:100B00004FEAD00040EA41704FEAD10110EB800576
:100B10004FEA810444EA907444EB01046D1944EBFC
:100B20000404521BA3414FF0000348BF0A3200D512
:100B300030BD401C41F1000130BD2DE9F0470D46AC
:100B400099469246044600F124080168880604D5B7
:100B5000E06921F01001216000E00120A84201DDE0
:100B6000471B00E00027A1697A1902EB0900081A67
:100B7000A0612078C00602D42046FFF78BFC002637
:100B800008E0D4E901211AF806009047206A401CC9
:100B9000761C20624E45F4DB2078C0060AD520463C
:100BA000FFF778FC06E0D4E9012130209047206A65
:100BB000401C2062381EA7F10107F4DC07E0D4E9ED
:100BC000012118F805009047206A401C2062281E69
:100BD000A5F10105F3DC2046FFF772FC2078000642
:100BE00002D50220BDE8F0870120FBE710B543697C
:100BF00013B1AFF3008001E0FFF773FC012010BDDB
:100C0000127800F124010A7000224A700122EDE7F7
:100C100011684FF0FF32E9E7074B70B50D467B4492
:100C200000F02FF80446284600F03EF810B14FF0CF
:100C3000FF3070BD204670BD0B7C0000004870473F
:100C400098F50120034640688C46002818BF88426A
:100C50003CBF03464068F8D318681844884207D060
:100C60000CF1030020F00700001D411A521A014642
:100C7000081D0A60FFF764BB01694A1C026108781D
:100C8000704700B58FB0CDE90131002105910549CC
:100C90007944CDE9031011466846FFF7F1FC0FB027
:100CA00000BD0000E5FFFFFF007B00F08000704703
:100CB00010B500F037F8BDE8104000F02EB87546CA
:100CC000FFF7BCFFAE4605006946534620F007001B
:100CD000854618B020B5FFF7F1FABDE820404FF087
:100CE00000064FF000074FF000084FF0000B21F016
:100CF0000701AC46ACE8C009ACE8C009ACE8C009E3
:100D0000ACE8C0098D46704710B50446AFF30080CB
:100D10002046BDE81040FFF7BDBA002801D004F01E
:100D200031B8704710B5012805D0002103A000F0AC
:100D300021F8012010BD09A1F8E7000053494752EE
:100D4000544D454D3A204F7574206F66206865619B
:100D500070206D656D6F7279000000003A20486563
:100D60006170206D656D6F727920636F727275703E
:100D70007465640070B505460C460A2000E06D1CE1
:100D800004F001F835B128780028F8D102E0641C9D
:100D900003F0F9FF14B120780028F8D1BDE87040C5
:100DA0000A2003F0F0BF0000464910B54A6822F45B
:100DB00040324A604A6843681A434A6001684A6898
:100DC00022F480724A6001684A68036942EA032299
:100DD0004A6001684A6822F040724A6001684A68C5
:100DE00083681A434A6001688A6822F400628A6054
:100DF00001688A68C3681A438A60816A6FF070620A
:100E0000D14201688A6822F070628A6001688A684B
:100E10000CD0836A1A438A6001688A6822F04052C3
:100E20008A6001688A68C36A1A4301E022F040526E
:100E30008A6001688A6822F002028A6001688A6812
:100E4000037E42EA43028A6090F82010002901687C
:100E50004A680FD042F400624A6001684A6822F48E
:100E600060424A6001684A68174C436A04EB4333A6
:100E70001A4301E022F400624A600168CA6A22F45F
:100E80007002CA620168CA6A838B104C04EB035378
:100E90001A43CA6201688A6822F400728A60016893
:100EA0008A6890F8303042EA43228A6001688A6892
:100EB00022F480628A6001688A68406942EA802080
:100EC000886010BD0023014000E0FFFF0000F0FF3C
:100ED000FEE70000054B4FF40071012803D001220A
:100EE000184600F04ABC0022FAE700000014024055
:100EF000054B4FF48061012803D00122184600F011
:100F00003CBC0022FAE700000014024006480068DA
:100F1000800608D50549012008700348083001689B
:100F200041F0200101607047046402402C00002061
:100F3000704772B6FEE7000070B502F023FA042194
:100F4000154804F0E3F81549002004F03DF9144970
:100F5000012004F039F91349022004F035F912494F
:100F6000032004F031F94FF4FA7440F2DC552246C4
:100F70002946002004F094F822462946012004F076
:100F80008FF8C821022004F06DF8BDE87040C82138
:100F9000032004F067B8000010C00120813700086A
:100FA00039380008F1380008D939000810B502F0C6
:100FB00039FABDE810400221014804F04FBA0000A0
:100FC000B0C0012030B5B3F5804F05D06FF070414F
:100FD00040F82210002030BD8C690B688D682343D7
:100FE0004C688989240144EA0524234343EA0141EA
:100FF00050F82230014C23401943E9E70000F0CFBC
:1010000010B50A6850F8223023F0010340F822306E
:101010008C68082C23D000234A682243CC681C43E8
:101020000B6922431A434B690E4C1A43CB691A438E
:101030000B6A1A434B6A1A438B6A1A43CB6A1A43E8
:101040000B6B1A438B691343CA6B09681A4350F838
:101050002130A343134340F82130002010BD40232A
:10106000DAE700007FFF0F0030B5D1E9003443EA32
:1010700004138C688D89240244EA054423430C8AB6
:10108000074D00EB820005EB045423430C7D6D01FA
:1010900005EB0464896923430B434360002030BDA2
:1010A0000000F0FF78B50024009490F83C20012A5D
:1010B00019D0012280F83C200A6807230568092A14
:1010C00013D9EE680A3A02EB420293409E43EE6067
:1010D0000B788A680A3B03EB43039A400368DD6898
:1010E0002A43DA6010E0022078BD2E6902EB42024A
:1010F00093409E432E610B788A6803EB43039A402A
:1011000003681D692A431A614A681F23072A13D2FC
:1011100005686E6B521E02EB820293409E436E6323
:101120000B790A885B1E92B203EB83039A40036833
:101130005D6B2A435A6327E005680D2A12D22E6B95
:10114000D21F02EB820293409E432E630B790A88E2
:10115000DB1F92B203EB83039A4003681D6B2A43A3
:101160001A6311E0EE6A0D3A02EB820293409E434D
:10117000EE620B790A880D3B92B203EB83039A402F
:101180000368DD6A2A43DA62164B0568144A9D42F9
:1011900006D10D68122D03D1556845F480055560C0
:1011A00005689D4218D10B68102B01D0112B13D16B
:1011B000536843F400035360096810290CD10A49AD
:1011C0000A4A0968B1FBF2F101EB8101490000E034
:1011D000491E00910029FBD180F83C40002078BDD9
:1011E00000230140002001401400002040420F0075
:1011F00070B504004FF0000503D0206C002610B13C
:1012000007E0012070BD204600F01CF8666484F8F9
:101210003C60206CC00610D4206C20F4885040F054
:10122000020020642046FFF7BFFD6664206C20F0BA
:10123000020040F00100206400E0012584F83C60D9
:10124000284670BD10B586B0044614216846FFF7E5
:10125000B2FB1149206888421CD110480021026865
:1012600042F480720260006800F4807005900B48C0
:101270001438026842F001020260006800F00100C8
:101280000590202000900320CDE901016946044823
:1012900000F076F906B010BD00200140443802404D
:1012A00000000240704770B500B3F9B14379012BDB
:1012B0001ED0012646710223037105682C6802F0D6
:1012C000100340F6FE729A409443D1E900210A438C
:1012D0009A4022432A6001680A68C0249C40A243C5
:1012E0000A60067100214171084670BD012070BD81
:1012F000022070BD70472DE9F04104460068066881
:10130000456BB1044FF0040710D5A9040ED5277121
:10131000216941F001012161F902416320680168FE
:1013200021F4805101602046FFF7E4FFB00014D59E
:10133000A80012D52771206940F0020020612168C1
:101340004FF0005048632068016821F0805101602F
:101350002046BDE8F041FFF7A5BFBDE8F08170B5BC
:10136000040003D02079002510B105E0012070BDF4
:101370006571204600F008F80220207125610120E7
:101380002071002070BD000010B586B00446142105
:101390006846FFF710FB15492068884224D114489D
:1013A0000021026842F000520260006800F0005024
:1013B00005900F481038026842F001020260006890
:1013C00000F001000590102000900320CDE90101FC
:1013D0006946084800F0D4F800221146362000F093
:1013E0003FFA362000F02EFA06B010BD007400401F
:1013F000403802400000024018B50024009440B17B
:1014000000680090104431B1143000900360002057
:1014100018BD012018BD0830F7E72DE9F04104465A
:10142000876D00F0AFF9064694F8350000250228D4
:1014300006D08020606584F834500120BDE8F0813A
:101440002068016821F0160101602068416921F0DF
:1014500080014161206C08B9A06C20B1206801684E
:1014600021F0080101602068016821F0010101609C
:101470000CE000F087F9801B052807D92020606563
:10148000032084F8350084F83450D7E720680068DA
:10149000C007EED194F85C103F208840B86001206E
:1014A00084F8350084F834500020C7E790F83510F0
:1014B000022903D08021416501207047052180F871
:1014C00035100068016821F00101016000207047BB
:1014D00080B204F0EBBB00002DE9F04186B014218E
:1014E0006846FFF768FA20480168002939D10121D0
:1014F00001601E480024016841F00101016000689C
:101500004FF4805800F001000C27CDF80080CDE9A1
:101510000470032602250396CDE901546946144858
:1015200000F02EF84FF68070CDE9000502AA69465A
:1015300082E8D0000F4800F023F84CF23370CDE978
:10154000000502AA694682E8D0000B4800F018F8AE
:1015500002AA694682E8D000CDE90085074800F07C
:101560000FF806B0BDE8F0810000002038380240D6
:101570000014024000100240000C0240001802401B
:101580002DE9F84FDFF8BCA10022012503264FF01A
:101590000F090AF1040BAAF1040E00BF0B6805FA4B
:1015A00002F42340A34270D10F7907F00307012F03
:1015B00001D0022F16D187684FEA420806FA08FCCC
:1015C00027EA0C07D1F80CC00CFA08FC4CEA070C0F
:1015D000C0F808C04768A7430C79C4F300149440CE
:1015E0003C4344600C79E443A4070AD0C4684FEA42
:1015F000420C06FA0CF7BC438F6807FA0CF7274336
:10160000C7600C7904F00304022C12D1D40800EB5B
:10161000840CDCF820405707FF0E09FA07F824EA8B
:101620000804D1F8108008FA07F848EA0408CCF852
:10163000208004684FEA420C06FA0CF7BC430F798D
:1016400007F0030707FA0CF7274307604C6814F408
:10165000403F70D03C4C276847F48047276024689F
:1016600022F0030704F480440094384C07EB040C88
:10167000DCF8084897074FEA177809FA08F7BC43DF
:10168000334FB84202D1002724E054E0314FB84232
:1016900001D101271EE0304FB84201D1022719E0E5
:1016A0002E4FB84201D1032714E02D4FB84201D18B
:1016B00004270FE02B4FB84201D105270AE02A4F3B
:1016C000B84201D1062705E0284FB84201D10727CB
:1016D00000E0082707FA08F72743CCF80878DAF87B
:1016E00000405746D1F804C09C435FEACC2C00D59B
:1016F0001C433C60DBF800405F46D1F804C09C43CB
:101700005FEA8C2C00D51C433C60DEF80040774635
:10171000D1F804C09C435FEA8C3C00D51C433C607C
:10172000084F083F3C68D1F804C09C435FEACC3CBA
:1017300000D51C433C60521C102AFFF42FAFBDE8BB
:10174000F88F0000083C014044380240003001405E
:10175000000002400004024000080240000C024069
:10176000001002400014024000180240001C024019
:101770000069084000D0012070470AB181617047BC
:101780000904FBE70148806870470000080000205A
:101790000248816802781144816070470800002087
:1017A0000B4810B5016841F400710160016841F413
:1017B00080610160016841F480710160032000F0E4
:1017C0006FF80F2000F006F800F024F8002010BD9C
:1017D000003C024070B50D4D04464FF47A712878F4
:1017E000B1FBF0F00A490968B1FBF0F001F0ACF888
:1017F00048B9102C07D200222146501E00F030F8C4
:1018000000206C6070BD012070BD00000800002049
:10181000140000200A4808B5016841F480410160C5
:10182000006800F4804000900548001F016841F006
:1018300080510160006800F08050009008BD0000F9
:1018400044380240002809DB00F01F0201219140CA
:101850004009800000F1E020C0F80011704700004E
:10186000F0B40E4B1B680C46C3F30223C3F107050B
:10187000042D00D90425191D072901D2002300E0F9
:10188000DB1E012606FA05F1491E214099409E40C3
:10189000761E16403143F0BC03F05DBA0CED00E05B
:1018A000064900F0070208684FF6FF03184040EAB7
:1018B0000220034A10430860704700000CED00E06E
:1018C0000000FA052DE9F0470E46050065D0DFF867
:1018D0001481D8F80000F7B200F00700B04207D238
:1018E00088F80070D8F8000000F00700B04254D12A
:1018F00028683D4C810712D5400703D5206840F485
:10190000E05020602878000703D5206840F460404C
:1019100020602068A96820F0F00008432060287843
:10192000C0072DD0304968680839012812D0022834
:1019300013D0032811D00968890700292DDA2168FE
:1019400021F0030101432160FFF71CFF814641F2B2
:10195000883A0EE009688903EFE709688901ECE736
:10196000FFF710FFA0EB0901514502D90320BDE8A4
:10197000F0872068696800F00C00B0EB810FEFD1B0
:10198000D8F80010404601F00701B14207D90770AE
:10199000006800F00700B04201D00120E7E7287896
:1019A000400705D52068E96820F4E050084320602E
:1019B0002878000706D52068296920F4604040EAAD
:1019C000C100206000F038F82168084AC1F3031113
:1019D000515CC8400649086006480068FFF7FAFEF7
:1019E0000020C4E7003C02400838024002F500082D
:1019F000140000200C000020044805490068096814
:101A0000044AC1F38221515CC84070471400002091
:101A10000838024012F500080448054900680968C2
:101A2000044AC1F34231515CC840704714000020A1
:101A30000838024012F50008154810B5006810F08B
:101A40000C02144813D01449042A0FD0082A0ED1CE
:101A50000F4C241F2268236802F03F025B0207D567
:101A60002068C0F38810A0FB010106E0084610BD05
:101A70002168C1F38811A1FB00010023FEF787FC58
:101A80002168C1F30141491C4900B0FBF1F010BDD0
:101A9000083802400024F40040787D012DE9F84F19
:101AA00004006ED02078DFF84C93C007A9F104053C
:101AB0004AD009F104000168C1F38101012908D06D
:101AC0000068C0F3810002280AD1D9F80000400262
:101AD00006D52868800337D560680028E1D033E058
:101AE0006068B0F5803F10D0B0F5A02F286810D006
:101AF00020F480302860286820F480202860606806
:101B0000A8B1FFF73FFE06460DE0286840F480309C
:101B1000F4E740F480202860F7E700BFFFF732FECB
:101B2000801B642873D828688003F7D50CE0FFF782
:101B300029FE064605E000BFFFF724FE801B64284F
:101B4000F0D828688003F7D42078DFF8AC828007CB
:101B50004FF0000A3ED5A748001D016811F00C0F98
:101B600008D00068C0F3810002280BD1D9F800002A
:101B7000400207D42868800716D5E068012800D104
:101B800012E033E1E068B8B10120C8F80000FFF7C7
:101B9000F9FD064605E000BFFFF7F4FD801B0228B3
:101BA000C0D828688007F7D52868216920F0F80098
:101BB00040EAC10028600DE0C8F800A0FFF7E2FD90
:101BC000064604E0FFF7DEFD801B02281FD82868C8
:101BD0008007F7D42078000722D5864F87486169AF
:101BE000703771B101210160FFF7CCFD064604E0BA
:101BF000FFF7C8FD801B022809D838688007F7D591
:101C00000EE0C0F800A0FFF7BDFD064605E082E04B
:101C1000FFF7B8FD801B02287DD838688007F7D40D
:101C20002078400768D5DFF8CCB100270BF13C0BDA
:101C3000DBF80000C0000BD4DBF8001041F080514D
:101C4000CBF80010DBF80000012700F08050009076
:101C50006B4E3068C00510D4306840F4807030603E
:101C6000FFF790FD009005E0FFF78CFD0099401A0A
:101C7000022850D83068C005F6D55E4EA0686C3694
:101C800001280FD00528306810D020F00100306006
:101C9000306820F004003060A068B8B1FFF772FD32
:101CA00000900FE0306840F00100F4E740F00400DD
:101CB0003060F7E7FFF766FD0099411A41F288307E
:101CC000814266D830688007F4D50EE0FFF75AFDF0
:101CD000009007E0FFF756FD0099411A41F2883065
:101CE000814256D830688007F4D42FB1DBF8001059
:101CF00021F08051CBF80010A069C8B33D49091DFF
:101D00000968C1F3810102294AD00228504607D050
:101D1000C8F8600000E03CE0FFF734FD04463BE01B
:101D20004746C8F86000FFF72DFD064605E000BFF6
:101D3000FFF728FD801B02282BD828688001F7D4E4
:101D4000D4E907010843A16A2E4A490802EB014180
:101D5000626A41EA8211084394F82C1040EA01615A
:101D6000C9F8001001203866FFF70CFD044606E0B4
:101D70003EE000BFFFF706FD001B022809D82868D7
:101D80008001F7D534E000BFFFF7FCFC001B022800
:101D900002D90320BDE8F88F28688001F4D427E039
:101DA0000128F7D0D9F80000E26900F480019142DF
:101DB0001CD1226A00F03F01914217D147F6C07151
:101DC000626A0140B1EB821F10D1A26A4FF0FF336B
:101DD00000F4403103EB5202B1EB024F06D194F80C
:101DE0002C1000F07060B0EB016F01D00120D1E742
:101DF0000020CFE70438024000004742800E4742EF
:101E0000007000400000FFFF2DE9FE43044600265D
:101E100003200D4684F83400606C03285ED0B5F5CD
:101E2000805F5BD04FF4006700204FF08068BD42B8
:101E30001FD18146009001900021206802F006F831
:101E4000800113D46946204602F02CFB07000DD117
:101E50000198400334D5B4F850000104206802F022
:101E600026F8070002D10221206823E0A06B384346
:101E700028E01DB1A06B40F0006023E08146009097
:101E800001900021206801F0E1FF8001EED4694655
:101E9000204602F007FB0700E8D10198C0030FD5E8
:101EA000B4F850000104206802F001F80700DDD109
:101EB0000021206802F047F80700D7D14F46D5E748
:101EC0004746D3E7A063A06B144F4FF0010848B119
:101ED0002068876384F8348001260EE0A06B40F010
:101EE0008050EFE7211DD4E9050C0EC9CDE9005063
:101EF000CDF808C0206801F0ACFF4FF400712068F5
:101F000002F008F828B121688F63A16B0143A16337
:101F1000012684F834803046BDE8FE83FF0540008A
:101F2000F0B5426E920F0A70426EC2F383624A703D
:101F3000426EC2F301628A70426E120CCA70B0F82F
:101F40006420120A0A7190F864204A71826E120DA0
:101F5000CA80826EC2F303420A72B0F86820C2F3EC
:101F6000C0324A72B0F86820C2F380328A72B0F888
:101F70006820C2F34032CA72B0F86820C2F300325F
:101F80000A7300264E73426C4FF40075012462B14F
:101F9000012A3AD0026847499163816B41F0805130
:101FA000816380F834400120F0BDB0F86820C36E32
:101FB0009205120D42EA93720A61C26EC2F3C262C6
:101FC0000A75C26EC2F302624A75C26EC2F3425211
:101FD0008A75C26EC2F38242CA75C26EC2F3C23241
:101FE0000A760A69521C42650B7E03F007039B1CAC
:101FF0009A4042650B7A03F00F0704FA07F38365F2
:102000005B0A5A43C0E917250EE090F86820C36EBA
:102010009206920A42EA13420A610A69521C92022B
:102020004265C0E91652056630F86C2FC2F3803263
:1020300001F8192F0288C2F3C6124A70027802F022
:102040007F028A704268D20FCA704268C2F341723E
:102050000A714268C2F382624A714268C2F38352D3
:102060008A714268C2F34052CA710E724268C2F36A
:1020700000424A728288C2F3C0328A728288C2F3F6
:102080008032CA728288C2F340320A738288C2F3F5
:1020900000324A738288C2F381228A738288C2F333
:1020A0000122CA730079C0F3460008744C74002002
:1020B000F0BD0000FF054000426C0A60826C4A607F
:1020C000C26C8A60026DCA60426D0A61826D4A61AB
:1020D000C26D8A61006EC8610020704770B5044609
:1020E000B0F8500000250104206802F014F818B17F
:1020F000A16B0143A16304E00021206801F0A6FE6A
:102100000546C5F3432070BD70B504000ED094F8A9
:102110003400002518B92577204600F04DF803203B
:1021200084F83400204600F00BF808B1012070BD9F
:10213000A5632563012084F83400002070BD0000F1
:10214000FEB50025044676200095CDE901502B46CA
:102150002A462946206801F07CFE154E46F8A05F0D
:10216000206801F088FE012535600220FFF7B0F9F4
:10217000204602F07FFA28B184F83450A16B014365
:10218000A16313E0204602F0FDF90028F4D14FF4DA
:102190000071206801F0BEFE002808D022680549C1
:1021A0009163A16B0143A16384F834500120FEBD0B
:1021B00000802542FF05400070B586B0044614211A
:1021C0006846FEF7F8FB1B492068884230D11A4860
:1021D000016841F400610160006800F4006005904E
:1021E00015481438016841F004010160016801F0EC
:1021F00004010591016841F00801016000680224B2
:1022000000F0080005904FF4885001258DE831005A
:102210000C26CDE9034669460848FFF7B1F90420CA
:102220008DE83100CDE9034669460548FFF7A8F976
:1022300006B070BD002C0140443802400008024046
:10224000000C02402DE9F04F87B09B4616460D4624
:102250000446FFF797FA00903DB194F83400012846
:1022600007D0A06B40F000500DE0A06B40F0006084
:1022700009E00020A063E26D06EB0B01914204D956
:10228000A06B40F00070A0638AE0032184F8341052
:102290002168C862616C012900D076024FF0FF31DD
:1022A00001914FEA4B2102914FF0010803AA9021BE
:1022B00002278146CDF8188082E8820201A92068B1
:1022C00001F0AEFDBBF1010F05D92763314620684F
:1022D00001F092FE05E0C4F830803146206801F03C
:1022E000A4FEDFF83CA130B12268C2F838A0A16B8F
:1022F0000143A16350E0029E1FE0406B000413D530
:1023000096B10027206801F0BAFD05F8010B010A1B
:1023100005F8011B010C05F8021B000E361F7F1C7F
:1023200005F8010C082FEDD3FFF72CFA01460098B1
:10233000091A1098814220D2F8B12068426B40F20D
:102340002A310A42D9D0416BC90509D5BBF1010F29
:1023500006D9616C032903D001F00EFF0028C3D118
:102360002068416B090702D4416B89051AD5C0F872
:1023700038A0A06B40F0080050E02168C1F838A0F8
:10238000A06B40F00040A06384F83480C4F8309023
:10239000032007B0BDE8F08F84F83480C4F8309093
:1023A0000120F6E7416B890705D5C0F838A0A06B7E
:1023B00040F0020032E0416B89061BD5C0F838A01E
:1023C000A06B40F0200029E001F059FD05F8010B59
:1023D000010A05F8011B010C05F8021B000E05F8A7
:1023E000010C361FFFF7CEF90099411A109881426F
:1023F0000ED268B12068416B890201D5002EE3D16D
:10240000216840F23A50886384F834800020C0E7A5
:102410002168C1F838A0A06B40F00040A063BBE782
:10242000FF0540002DE9F04F8DB09B4616460D4646
:102430000446FFF7A7F90A903DB194F8340001284B
:1024400007D0A06B40F000500DE0A06B40F00060A2
:1024500009E00020A063E26D06EB0B01914204D974
:10246000A06B40F00070A0637AE0032184F8341080
:102470002168C862616C012900D076024FF0FF31FB
:1024800003914FEA4B2104919021CDE905104FF0C3
:102490000109CDE90709824603A9206801F0C0FCC3
:1024A000BBF1010F06D9202020633146206801F0DE
:1024B0007DFE05E0102020633146206801F08FFE8C
:1024C0005FEA000806D0216841488863A06B40EAB3
:1024D000080074E0049E27E0406B40041CD5DEB188
:1024E0005FF0000715F8010B009015F8011B361F6F
:1024F00040EA0120009015F8021B40EA01400090DC
:1025000015F8011C40EA016000906946206801F05E
:10251000C9FC7F1C082FE5D3FFF734F90A99411A4B
:102520001698814220D2F8B12068416B40F21A32ED
:102530001142D1D0416BC90523D5BBF1010F20D980
:10254000616C03291DD001F017FED0B1226820492B
:102550009163A16B0143A16384F83490C4F830A067
:1025600001200DB0BDE8F08F216819488863A06B89
:1025700040EA0800A06384F83490C4F830A0032037
:10258000EFE72068416B090702D4416B890505D547
:102590000F498163A06B40F0080010E0416B890790
:1025A00005D50B498163A06B40F0020007E0416B49
:1025B000C90606D506498163A06B40F01000A063F0
:1025C000CAE740F23A51816384F834900020C8E7AA
:1025D000FF05400070B5040009D0606A002540B1D5
:1025E00025616561A56294F8510040B10CE00120BD
:1025F00070BD6068B0F5827FF4D0E561F2E784F8E1
:102600005050204600F044F8022084F85100206821
:10261000016821F040010160A088218900F48270E6
:1026200001F404410843A18901F400610843217CBD
:1026300001F002010843217D01F001010843218BD3
:1026400001F400710843217F01F03801084394F838
:10265000201001F080010843218D01F4005108434E
:1026600021680860A069042101EA104094F8241050
:1026700001F010010843216848602068C16921F415
:102680000061C1616565012084F85100002070BDC2
:1026900010B586B0044614216846FEF78CF913493C
:1026A0002068884220D112480021026842F48052FA
:1026B0000260006800F4805005900D4814380268EC
:1026C00042F002020260006800F00200059038202B
:1026D00000900220CDE90101032003900520049021
:1026E00069460448FEF74CFF06B010BD00300140BB
:1026F00044380240000402402DE9FF4F81B01D46DE
:10270000934604464FF001090E9EFFF73BF807463B
:1027100094F851006168012806D0B1F5827F3CD160
:10272000A168C9BB042838D10298002871D0BBF138
:10273000000FFBD0002DF9D094F8500001282CD0C8
:102740004FF0010A84F850A094F85100042802D0F8
:10275000052084F851004FF00008C4F85480C4F8F4
:1027600038B0E587A58702992163E586A586C4F878
:102770004080C4F8448020680168490603D4016899
:1027800041F040010160E068B0F5006F606808D07A
:10279000F0B3012D49D081E0FFE7022005B0BDE88C
:1027A000F08F08B1012D39D1206B21680088C860F5
:1027B000206B801C2063E08E401EE0862EE02068A7
:1027C000816889070FD5E18E69B1B9F1010F0AD18E
:1027D000216B0988C160206B801C2063E08E401E45
:1027E000E0864FF0000920688168C9070CD0E18FAE
:1027F00051B1C068A16B0880A06B801CA063E08F02
:10280000401EE0874FF00109FEF7BCFFC01B01E04E
:102810000BE067E0B04201D3701C50D1E08E00287D
:10282000CDD1E08F0028CAD13EE0206B216800782E
:102830000873206B401C2063E08E401EE0862DE074
:102840002068816889070FD5E18E69B1B9F1010F60
:102850000AD1216B09780173206B401C2063E08E44
:10286000401EE0864FF0000920688168C9070CD03F
:10287000E18F51B1C068A16B0870A06B401CA063D0
:10288000E08F401EE0874FF00109FEF77BFFC01B81
:10289000B04202D3701C01D011E086B1E08E002856
:1028A000CED1E08F0028CBD13A463146204601F008
:1028B0003BFF50B12020606584F8508012E084F81E
:1028C00051A084F85080032068E7A06818B92068F8
:1028D000C1688068009084F851A084F85080606DD1
:1028E0000028F1D0012059E770B515460E460400C6
:1028F00003D094F8490010B107E0012070BD00201A
:1029000084F84800204600F01DF804F10801206812
:10291000FEF776FB3146A2682068FEF7A5FBD4E9F6
:1029200001022946236BFEF74DFB2168A06851F890
:10293000202042F0010241F82020012084F84900C3
:10294000002070BDFEF7C8BD10B5401EB0F1807FFD
:1029500001D3012010BD4FF0E02460610F2160170A
:1029600002F0F9F90020A06107202061002010BDCD
:102970007047704770B590F83C20012A32D001248E
:1029800080F83C40022280F83D2003685A689D6828
:1029900022F070060A6832435A60134B02689A426A
:1029A00014D0B2F1804F11D0104B9A420ED0104B80
:1029B0009A420BD00F4B9A4208D00F4B9A4205D047
:1029C0000E4B9A4202D00E4B9A4204D1496825F030
:1029D00080031943916080F83D40002180F83C104D
:1029E000084670BD022070BD000001400004004098
:1029F00000080040000C004000040140004001407D
:102A00000018004010B5040003D094F83D0010B148
:102A100007E0012010BD002084F83C00204600F0B3
:102A20001FF8022084F83D00211D206801F09CFF62
:102A3000012084F8460084F83E0084F83F0084F8C2
:102A4000400084F8410084F8420084F8430084F890
:102A5000440084F8450084F83D00002010BD0000CB
:102A600008B500680B49884212D10B48016841F053
:102A7000100101600068002200F010000090114673
:102A80003620FEF7EDFEBDE808403620FEF7DABE40
:102A900008BD0000001000404038024090F83D1092
:102AA000012901D001207047022180F83D10016802
:102AB000CA6842F00102CA6000681149884214D015
:102AC000B0F1804F11D00F4988420ED00E49884294
:102AD0000BD00E49884208D00D49884205D00D49D7
:102AE000884202D00C49884204D1816801F0070174
:102AF000062903D0016841F0010101600020704700
:102B0000000001400004004000080040000C0040AC
:102B100000040140004001400018004070472DE9CA
:102B2000F04104460068C66805694FF00007A90730
:102B300013D5B10711D5F91E016101202077206856
:102B400080698007204602D0FFF7E8FF04E000F02C
:102B50007EF8204600F07CF82777680716D57007C6
:102B600014D521686FF004000861022020772068E6
:102B7000806910F4407F204602D0FFF7CFFF04E0C9
:102B800000F065F8204600F063F82777280715D590
:102B9000300713D521686FF0080008610420207702
:102BA0002068C0698007204602D0FFF7B7FF04E025
:102BB00000F04DF8204600F04BF82777E80616D5D0
:102BC000F00614D521686FF0100008610820207706
:102BD0002068C06910F4407F204602D0FFF79EFFB6
:102BE00004E000F034F8204600F032F82777E807D8
:102BF00008D0F00706D021686FF001000861204678
:102C000000F028F8280608D5300606D521686FF0B0
:102C1000800008612046FFF7ABFE680608D5700605
:102C200006D521686FF040000861204600F01CF8CE
:102C3000A8060AD5B00608D521686FF02000086103
:102C40002046BDE8F041FFF794BEBDE8F081704733
:102C50007047000000680349884201D102F0C2BCFD
:102C60007047000000100040704770477047000038
:102C7000F8B5016804460868CA684B6910F00F0F80
:102C80004FF0000559D003F0010602F49077374366
:102C900065D0C10705D0D10503D5616C41F00101B4
:102CA0006164410705D5D90703D0616C41F0020189
:102CB0006164810705D5D90703D0616C41F0040137
:102CC0006164010707D502F02001314303D0616C34
:102CD00041F008016164616C00293AD0800604D596
:102CE000900602D5204601F0D5FE20684069616C4F
:102CF000C0F38010090700D460B3204601F0A3FEA2
:102D000020684069400621D52068143050E8001F33
:102D100021F0400140E80012002AF5D1E06BA8B193
:102D200072490165E06BFEF7C1FB002811D0E06B32
:102D3000016D01B0BDE8F040084783060FD593064A
:102D40000DD52046BDE8F84001F0A4BE2046FFF7AF
:102D50008DFFF8BD2046FFF789FF6564F8BD266B3F
:102D60002023012E7ED1C6067CD5D6067AD50868EA
:102D70004868009048694FF0020640064DD5E26B66
:102D8000106840684FF480770004000C3AD0A18DA1
:102D9000814237D9E085D069B8422DD020680C3007
:102DA00050E8001F21F4807140E80012002AF5D19C
:102DB0002068143050E8001F21F0010140E80012A3
:102DC000002AF5D12068143050E8001F21F040019E
:102DD00040E80012002AF5D184F8423025632068CB
:102DE0000C3050E8001F21F0100140E80012002ACA
:102DF000F5D1E06BFEF711FB6663A08DE18D401A03
:102E000081B206E0A18D8142A8D1D069B842A5D196
:102E100066632046FFF729FFF8BDA08DE18D401ABB
:102E200081B2E08D0028F7D00029F5D020680C3061
:102E300050E8002F22F4907240E80027002FF5D1CF
:102E40002068143050E8002F22F0010240E80027EB
:102E5000002FF5D184F84230256320680C3050E80B
:102E6000002F00E006E022F0100240E80023002BD3
:102E7000F3D1CDE705062BD5150629D594F84100E9
:102E80002128C9D1A068B0F5805F01D12069B0B117
:102E9000206A411C2162216800784860E08C401E55
:102EA0000004000CE084B7D12068C16821F08001E3
:102EB000C1602068C16841F04001C160F8BD206A6E
:102EC0000088C0F308004860206A801C2062E5E7A3
:102ED0004006F3D55006F1D5CA68204622F04002DC
:102EE000CA6084F8413000F055F9F8BD394A00084D
:102EF00070B5040004D094F84100002510B106E03C
:102F0000012070BD84F84050204600F023F82420B2
:102F100084F841002068C16821F40051C160204656
:102F200001F01AFE2068016921F4904101612068D6
:102F3000416921F02A0141612068C16841F40051D2
:102F4000C1606564202084F8410084F84200656314
:102F5000002070BD10B586B0044614216846FDF708
:102F60002AFD14492068884221D1134800210268B3
:102F700042F010020260006800F0100005900E4858
:102F80001438026842F001020260006800F001009B
:102F900005904FF4C06000900220CDE901010320AC
:102FA00003900720049069460448FEF7E9FA06B04A
:102FB00010BD0000001001404438024000000240F3
:102FC0002DE9F84F044690F842009A4616460D4601
:102FD000202802D00220BDE8F88FB5B1AEB10020A4
:102FE0006064222184F842102063FEF7CBFBA685A3
:102FF0008146E685A0684FF480582027404501D1DE
:10300000206920B12E46002529E00120E3E70026B3
:1030100025E04B46002220212046CDF800A001F0FB
:103020003CFE18B184F842700320D4E726B1A068B2
:1030300040451AD038B108E020684068C0F3080065
:1030400025F8020B08E0206978B12068406800F09C
:103050007F0000BF06F8010BE08D401EE085E08D8B
:103060000028D6D184F84270B5E720684068F1E7BF
:1030700090F84230202B01D00220704721B11AB1C4
:103080000023036301F0EEBD0120704730B40068F7
:103090001549884225D1154841880A0416D40246AC
:1030A0004C0412784FF0000304D50A2A0DD141F4E4
:1030B000004114E00D2A10D0C1F30D040C4D491C41
:1030C00089B22A554180C72900D943800848012286
:1030D00030BC0649C830FFF7CBBF41F48041418086
:1030E000F4E730BC704700000010014000C0012030
:1030F000B8C301202DE9F843044690F841009846F2
:1031000016460D46202802D00220BDE8F88385B17E
:103110007EB100206064212084F84100FEF732FB7C
:10312000A6848146E684A0682027B0F5805F02D09F
:1031300003E00120E9E7206910B12E4600250EE0EA
:1031400000260CE08021204601F0A7FDA8B9C6B1F9
:1031500016F8010B21684860E08C401EE084E08C8A
:103160004B464FF00002CDF800800028EAD14FF026
:103170004001204601F091FD40B184F841700320E8
:10318000C3E735F8020BC0F30800E3E784F84170A9
:103190000020BAE77047FEE770B586B003F0E6F9A5
:1031A000474C012247A1206804F04AFB012246A1B6
:1031B000606804F045FB10244FF478450D281ED1BB
:1031C00042A0CDE900401023C822962102951E207E
:1031D00008F083FF0022630111463BA003F088FD45
:1031E000B8B141A0CDE900401023C8229621029534
:1031F0001E2008F072FF4FF47A7002F057FD4FF670
:10320000FF76A623F02296211E20009608F04AFBA6
:103210001BE03CA004F0DCFE3DA0E3E743A0CDE9C9
:1032200000401023C822962102951E2008F055FF69
:10323000C82002F03BFDA623F02296211E20009616
:1032400008F030FBC82002F031FD04AA03A93DA01C
:1032500003F074F90028E1D13BA0CDE900401F251F
:103260001023C822962102951E2008F036FF39A0AF
:10327000CDE900401023C822AA2102951E2008F0A3
:103280002CFF3AA0CDE900401023C822BE210295B0
:103290001E2008F022FF0398CDE90045820A05238D
:1032A000AA218E2008F0E0FE0498CDE90045820AAC
:1032B0000523BE218E2008F0D7FE06B070BD0000A9
:1032C000E8C10120303A0000313A0000466C6173D9
:1032D00068204469736B20466F726D617474696E07
:1032E000672E2E2E00000000466C61736820446932
:1032F000736B20466F726D6174204572726F72201D
:1033000000000000313A414C49454E54454B000005
:10331000466C617368204469736B20466F726D61FF
:10332000742046696E6973680000000053442043AE
:10333000617264204661746673204572726F7221F7
:1033400000000000300000004641544653204F4B1F
:1033500021000000534420546F74616C2053697A3B
:10336000653A20202020204D420000005344204692
:103370007265652053697A653A2020202020204D0F
:1033800042000000F0B5244887B00025016841F0F4
:1033900010010160016801F010010591016841F020
:1033A00010010160016801F010010591016841F010
:1033B00010010160016801F010010591016841F000
:1033C000010101600068022400F001000590102056
:1033D000012603948DE86100104F69463846FEF7D8
:1033E000CFF8082003948DE8610069463846FEF75F
:1033F000C7F8042003948DE8610069463846FEF75B
:10340000BFF80096CDE90154694605480394FEF7DC
:10341000B7F807B0F0BD000030380240001002409D
:103420000000024070B5184886B0016841F02001E4
:103430000160016801F020010591016841F020015F
:1034400001600068114E00F02000059001200190FD
:103450000290022004020390694600943046FEF771
:103460008FF86500694630460095FEF789F801221D
:1034700021463046FEF781F9012229463046FEF703
:103480007CF906B070BD00003038024000140240E4
:103490007FB50024154800940194029412490394C6
:1034A00001604FF48031C0E9011401250461057603
:1034B00080F820400E49C0E90A14C561C46080F854
:1034C00030404561FDF794FE08B1FDF732FD05205F
:1034D000CDE90005694602940448FDF7E3FD0028A4
:1034E00001D0FDF726FD7FBD00200140FCC1012079
:1034F0000100000F1CB500240C4900940A480194F7
:1035000008600846FDF72BFF08B1FDF712FD009497
:103510000022694605480194FDF7C5FE002801D048
:10352000FDF707FD1CBD0000007400409401002061
:1035300010B58EB01C216846FDF73DFA1C2107A886
:10354000FDF739FA1A484FF020411022016019495D
:103550004160062181600021C160C0E904128161DF
:10356000C16113020162C0E909139302C0E90B13A0
:103570004163816341640F203C230090CDE9010346
:1035800003AC112384E80E0009240691CDE907401D
:103590000AA8099480E80E000D9107AA694604481C
:1035A000FFF7A2F9002801D0FDF7C3FC0EB010BD53
:1035B00044C20120040100A070B586B01421684601
:1035C000FDF7F9F92A480024016841F0040101607F
:1035D000016801F004010591016841F0800101607A
:1035E000016801F080010591016841F0010101606D
:1035F000016801F001010591016841F020010160BD
:10360000016801F020010591016841F0100101609D
:10361000016801F010010591016841F002010160AB
:10362000016801F002010591016841F008010160A3
:10363000016801F008010591016841F04001016055
:1036400000680C4E00F040004FF400450590002249
:1036500029463046FEF791F801200095CDE9010496
:10366000694630460394FDF78BFF06B070BD00003D
:1036700030380240000402400A4810B50849016091
:10368000002141608160C160016141618161FEF79B
:103690003BFD002803D0BDE81040FDF74ABC10BD3B
:1036A000002C014094C2012010B5124C1048022198
:1036B00020604FF4827060600020A060C4E90301C4
:1036C000012161614902A1613821C4E907106062EA
:1036D000A0620A20E0622046FEF77CFF08B1FDF7F9
:1036E00028FC2068016841F04001016010BD000025
:1036F0000030014018C301201CB50024104800947C
:103700000E490194016040F2E731C0E901145321F0
:10371000C16080218161FFF775F908B1FDF709FCEF
:103720000094694606480194FFF724F908B1FDF7B3
:1037300000FC0348FFF7B2F91CBD00000010004078
:10374000A80100200C4810B50A4901604FF4E1318E
:103750004160002181600C22C160C0E904128161D6
:10376000C161FFF7C5FB002803D0BDE81040FDF79D
:10377000E0BB10BD0010014070C30120FEE7FEE772
:1037800010B5044601F0E4FC00284FF0010120468A
:1037900013D001F0F7FC28B1002001F075FE10A055
:1037A000FCF76CFE0221204601F0ECFC002815D04D
:1037B00012A0BDE81040FCF761BE01F0E3FC10B1BF
:1037C00015A0FCF75BFE0221204601F0DBFC00287F
:1037D00004D0002001F058FE13A0EAE710BD00005D
:1037E0004B455930206C6F6E672070726573732083
:1037F00064657465637465640D0A00004B45593057
:10380000206C6F6E672070726573732072656C65D3
:10381000617365640D0A00004B4559302070726574
:10382000737365640D0A00004B4559302072656C56
:1038300065617365640D0A0010B5044601F088FCEB
:1038400000284FF00101204613D001F09BFC28B165
:10385000012001F019FE10A0FCF710FE0221204605
:1038600001F090FC002815D012A0BDE81040FCF734
:1038700005BE01F087FC10B115A0FCF7FFFD022189
:10388000204601F07FFC002804D0012001F0FCFD5F
:1038900013A0EAE710BD00004B657931206C6F6E14
:1038A0006720707265737320646574656374656402
:1038B0000D0A00004B657931206C6F6E67207072C5
:1038C0006573732072656C65617365640D0A000031
:1038D0004B65793120707265737365640D0A000061
:1038E0004B6579312072656C65617365640D0A0002
:1038F00010B501F0F5FB0446012815D0022C18D0B4
:10390000032C1ED0042C24D02ED902464FF00003E5
:103910004FF0C8014FF0010001F0D8FD2146BDE88D
:10392000104012A0FCF7AABD012001F0ADFD15A0CA
:1039300016E000230222C821012001F0C7FD16A0D5
:103940000EE000230322C821012001F0BFFD17A0D3
:1039500006E000230422C821012001F0B7FD18A0D1
:10396000BDE81040FCF78ABD10BD00004B65793200
:1039700020636C69636B65642025642074696D65E0
:10398000730D0A004B6579322073696E676C652090
:10399000636C69636B0D0A004B65793220646F7547
:1039A000626C6520636C69636B0D0A004B6579324C
:1039B00020747269706C6520636C69636B0D0A001A
:1039C0004B65793220717561647275706C65206326
:1039D0006C69636B0D0A000010B501F081FB0446B1
:1039E000012814D0022C17D0032C1DD0042C23D076
:1039F0002DD94FF0000302464FF0C801184601F0E0
:103A000065FD2146BDE8104011A0FCF737BD002040
:103A100001F03AFD14A016E000230222C821184646
:103A200001F054FD15A00EE000230322C821184622
:103A300001F04CFD16A006E000230422C821184620
:103A400001F044FD17A0BDE81040FCF717BD10BD04
:103A5000574B555020636C69636B65642025642067
:103A600074696D65730D0A00574B55502073696E6C
:103A7000676C6520636C69636B0D0A00574B55508A
:103A800020646F75626C6520636C69636B0D0A005E
:103A9000574B555020747269706C6520636C696374
:103AA0006B0D0A00574B555020717561647275702B
:103AB0006C6520636C69636B0D0A00007047F0B59C
:103AC0000023067A1C46012736B14FF6FF75012EFA
:103AD00009D0022E3ED12AE001293BD10772848011
:103AE000C480847036E011B1817879B132E002216E
:103AF0000172C4808188028A914203D28178491C74
:103B0000817027E0407B80070FD423E081886C1A06
:103B1000944201D2858001E0114481808188028A2B
:103B2000914217D3407BC00714D0012312E0C6880E
:103B3000A5EB060C944501D2C58001E03244C28059
:103B4000C288C589AA4202D90123047202E0012970
:103B500000D107721846F0BDF0B50024057A23465F
:103B6000012625B1012D09D0022D24D10EE0012915
:103B700021D106728380C38083701CE0D9B90221F1
:103B80000172C3808178491C817014E0C5884FF6AA
:103B9000FF77A7EB050C944501D2C78001E02A44CA
:103BA000C280C288C589AA4202D90124037202E0F8
:103BB000012900D106722046F0BDF0B50023067A37
:103BC0001C464FF6FF75052E36D2DFE806F00306D9
:103BD000341D3400012911D02EE029B181886E1ADC
:103BE000964204D2858004E00221017218E011445B
:103BF00081808188028A91421ED3032101728480D0
:103C0000407BC0070CD117E029B181886E1A96421B
:103C100008D2858008E004210172407B80070BD523
:103C2000012309E011448180C18929B182888A4237
:103C300002D98480F4E704721846F0BDF0B5002381
:103C4000057A1C4625B1012D0AD0022D22D120E093
:103C500001291FD101728480407BC00710D119E077
:103C600049B1C189B1B186884FF6FF75AF1B974244
:103C700008D2858008E002210172407B800709D5C7
:103C8000012307E03244828082888A4202D98480FC
:103C9000F6E704721846F0BD70B5134C10212046AB
:103CA000FDF766FDD0B1002508212046FDF760FD37
:103CB000B0B1002045EA400504212046FDF758FD3B
:103CC00080B1002045EA800401210848FDF750FD3D
:103CD00044EAC000012800D0002070BD0125E3E7C0
:103CE0000120E7E70120EDE700100240000002405C
:103CF00070B5144C10212046FDF73AFDD0B10025D7
:103D000008212046FDF734FDB0B1002045EA40050A
:103D100004212046FDF72CFD80B1002045EA8004F7
:103D200001210948FDF724FD44EAC000022807D01C
:103D3000002070BD0125E3E70120E7E70120EDE762
:103D4000012070BD001002400000024070B5144C0C
:103D500010212046FDF70CFDD0B10025082120469A
:103D6000FDF706FDB0B1002045EA400504212046DC
:103D7000FDF7FEFC80B1002045EA800401210948DE
:103D8000FDF7F6FC44EAC000042807D0002070BD0F
:103D90000125E3E70120E7E70120EDE7012070BD01
:103DA0000010024000000240428901898A4201D28B
:103DB000012100E00021142A01D30022428108469B
:103DC0007047000070B5144C10212046FDF7D0FC60
:103DD000D0B1002508212046FDF7CAFCB0B1002073
:103DE00045EA400504212046FDF7C2FC80B10020D1
:103DF00045EA800401210948FDF7BAFC44EAC00005
:103E0000082807D0002070BD0125E3E70120E7E77F
:103E10000120EDE7012070BD0010024000000240CB
:103E20000A6842624A688262D1E902231A43D1E9F0
:103E300004310B43C16A1A4321F0F7011143C162F7
:103E400000207047006800F0030070470844406994
:103E5000704770B50DF1100C11439CE870002343BE
:103E6000194329434268314347F6FF639A430A43A3
:103E70004260002070BD0321016000207047D0F82F
:103E8000800070470A688260D1E901231A43D1E9B2
:103E900003310B43C1681A436FF30B011143C16037
:103EA000002070470968C0F880100020704710B5E6
:103EB00085B004463720CDE9001040200290002054
:103EC00003904FF48060049069462046FFF7DAFFC4
:103ED00041F288323721204600F09AF905B010BD32
:103EE00010B504460A4885B001432920CDE90010E9
:103EF00040200290002003904FF4806004906946B7
:103F00002046FFF7BFFF204600F03AFA05B010BD8B
:103F10000000108010B585B004461020CDE90010D7
:103F200040200290002003904FF480600490694686
:103F30002046FFF7A7FF41F288321021204600F00B
:103F400067F905B010BD10B585B004460620CDE96F
:103F5000001040200290002003904FF480600490F5
:103F600069462046FFF78EFF41F28832062120463F
:103F700000F04EF905B010BD30B585B000240546FF
:103F8000009401944FF480600294CDE903406946A7
:103F90002846FFF777FF0B484FF4FA510068B0FB53
:103FA000F1F041F288314843401E03D24FF0004007
:103FB00005B030BD696B0906F6D5C520A86320465B
:103FC000F6E700001400002010B585B004464FF459
:103FD000D5700090082001904020029000200390AE
:103FE0004FF48060049069462046FFF74BFF20465F
:103FF00000F02CFA05B010BD10B585B004461220B3
:10400000CDE9001040200290002003904FF4806022
:10401000049069462046FFF735FF41F288321221AD
:10402000204600F0F5F805B010BD10B585B0044687
:104030001120CDE9001040200290002003904FF4A1
:104040008060049069462046FFF71CFF41F28832E9
:104050001121204600F0DCF805B010BD10B585B088
:1040600004460720CDE90020402002900020039064
:104070004FF48060049069462046FFF703FF41F249
:1040800088320721204600F0C3F805B010BD10B5F6
:1040900085B0044600210220CDE90010C020CDE902
:1040A00002014FF48060049069462046FFF7EAFE63
:1040B000204600F03DF905B010BD10B585B00446AE
:1040C0000920CDE90010C0200290002003904FF499
:1040D0008060049069462046FFF7D4FE204600F039
:1040E00027F905B010BD10B585B004460021332076
:1040F000CDE900104020CDE902010001049069469D
:104100002046FFF7BFFE41F288323321204600F0FF
:104110007FF805B010BD10B585B004460D20CDE97F
:10412000001040200290002003904FF48060049023
:1041300069462046FFF7A6FE41F288320D2120464F
:1041400000F066F805B010BD30B585B00C460546E8
:1041500000210320CDE900104020CDE9020100013B
:10416000049069462846FFF78DFE22460321284623
:1041700000F028F905B030BD10B585B00446002127
:104180000C20CDE900104020CDE90201000104908F
:1041900069462046FFF776FE034A0C21204600F0D0
:1041A00037F805B010BD000000E1F50510B585B089
:1041B00004461920CDE90010402002900020039011
:1041C0004FF48060049069462046FFF75BFE41F2A1
:1041D00088321921204600F01BF805B010BD10B53B
:1041E00085B004461820CDE9001040200290002040
:1041F00003904FF48060049069462046FFF742FE2A
:1042000041F288321821204600F002F805B010BDB6
:10421000454B10B51B684FF4FA54B3FBF4F353430A
:104220005B1E02D24FF0004010BD426B12F0450FF2
:10423000F6D01205F4D4426B520703D504218163F2
:10424000084610BD426BD20702D00121816305E010
:10425000C52282630269D2B28A4201D0012010BD18
:104260000021FFF7F3FD3149084201D1002010BDC4
:10427000002802DA4FF0007010BD410001D5402047
:1042800010BD810001D5802010BDC10002D54FF4C2
:10429000807010BD010102D54FF4007010BD4101C6
:1042A00002D54FF4806010BDC10102D54FF400600B
:1042B00010BD010202D54FF4805010BD410202D55D
:1042C0004FF4005010BD810202D54FF4804010BD64
:1042D000C10202D54FF4004010BD410302D54FF496
:1042E000003010BD810302D54FF4802010BDC10302
:1042F00002D54FF4002010BD010402D54FF4801008
:1043000010BD410402D54FF4001010BD810402D548
:104310004FF4800010BD000702D54FF4000010BD1F
:104320004FF4803010BD00001400002008E0FFFDB5
:1043300012494FF4FA520968B1FBF2F141F28832A6
:104340005143491E02D24FF000407047426B12F0B9
:10435000450FF6D01205F4D4416B490703D504216B
:10436000816308467047416BC90703D0012181630F
:1043700008467047C5218163002070471400002063
:104380000F494FF4FA520968B1FBF2F141F2883259
:104390005143491E02D24FF000407047426B12F069
:1043A000450FF6D01205F4D4416B490703D504211B
:1043B000816308467047C521816300207047000073
:1043C0001400002030B5204B4FF4FA541B68B3FBA7
:1043D000F4F341F2883463435B1E02D24FF0004095
:1043E00030BD446B14F0450FF6D02405F4D4436B74
:1043F0005B0703D504218163084630BD436BDB07AF
:1044000002D00121816303E00369DBB28B4201D05A
:10441000012030BDC52181630021FFF717FD10F495
:10442000604F04D0410406D54FF4005030BD000C5D
:104430001080002030BD000402D54FF4805030BD04
:104440004FF4803030BD00001400002014494FF4B8
:10445000FA520968B1FBF2F141F288325143491E28
:1044600002D24FF000407047426B12F0450FF6D079
:104470001205F4D4416B490703D504218163084632
:104480007047416BC90703D001218163084670471B
:10449000416B490601D5402181630020704700002F
:1044A000140000202DE9F04788B00D460446FDF7C2
:1044B00069F9002682460096019637460821206851
:1044C000FFF728FD00282CD1B4F850000104206823
:1044D000FFF7EDFC002824D1401E4FF00808CDE97D
:1044E000020830204FF00209CDE904090120CDE98E
:1044F000067002A92068FFF793FC2068FFF7F3FD20
:1045000000280ED16F462068416B11F02A0F0BD0A6
:10451000416B090702D4416B89051AD5C0F8388070
:10452000082008B0BDE8F087416B890205D5FFF788
:10453000A6FC47F82600761C02E0416B8904E7D50B
:10454000FDF720F9A0EB0A00401CDCD14FF0004041
:10455000E7E7416B890703D5C0F838900220E0E710
:10456000416B890603D5202181630846D9E740F2D3
:104570003A518163019800BA2860009800BA6860D7
:104580000020CEE710B590B004460120ADF8380009
:104590002068FFF757FC002854D0606C032842D0F5
:1045A0002068FFF774FD00284AD100212068FFF73A
:1045B0004DFC606704212068FFF748FCA0670821D4
:1045C0002068FFF743FCE0670C212068FFF73EFC02
:1045D000C4F88000606C032825D00EA92068FFF77E
:1045E000B3FD00282CD1606C03281CD0BDF8380026
:1045F000206501042068FFF760FD002820D100211C
:104600002068FFF723FC606604212068FFF71EFC8A
:10461000A06608212068FFF719FCE0660C212068DD
:10462000FFF714FC206704212068FFF70FFC000D42
:10463000E06403A92046FDF773FC30B14FF08050D1
:1046400010B010BD4FF08060FAE7B4F850000023BE
:1046500002042068FFF702FD0028F1D104F11000E8
:1046600007C88DE8070094E80F00FFF7F2FB002071
:10467000E6E700002DE9F84F00260446009635468F
:10468000B0460068FFF778FC002827D12068FFF7C4
:104690009BFC4FF0805B4FF001094FF6FF7748B16C
:1046A000A6642068FFF768FC002817D1A06C0128D9
:1046B00002D020E0C4F8489000212068FFF7F7FB03
:1046C00058B918E000212068FFF7F1FB002805D158
:1046D00051462068FFF704FC10B15846BDE8F88F3A
:1046E00000212068FFF7B2FB05464FEAD07800981A
:1046F000401C009002E0DFF82CA00098B84202D2E3
:10470000B8F1000FDED00098B84202D34FF08070AD
:10471000E4E7680002D5C4F8449000E06664002035
:10472000DCE70000000010C1F8B515460E460B4648
:10473000009204460122022100F02CF8A0B913488F
:1047400013490068B0FBF1F04FF47A7148430090D0
:104750006068B0F5827F0DD133460022802120466B
:10476000009500F017F870B1606D40F020006065B2
:104770000320F8BD009830B1401E0090206880688A
:10478000C0430006F6D50020F8BD0000140000204C
:1047900000366E012DE9F8431E46914688460446D0
:1047A000089DFCF7EFFF401B351AFCF7EBFF0746AF
:1047B00026480068C0F3CB3068430AE0701C09D07B
:1047C000FCF7E0FFC01BA8420FD275B10098B8B348
:1047D000401E00902068816838EA010033D0002133
:1047E0004945EBD10020BDE8F8832068416821F0FD
:1047F000E00141606068B0F5827F0BD1A068B0F540
:10480000004F02D0B0F5806F04D12068016821F01C
:1048100040010160A06AB0F5005F09D1206801681D
:1048200021F4005101602068016841F400510160E9
:10483000012084F85100002084F850000320D2E7C2
:10484000FFE70025C6E70121CAE7000014000020A9
:10485000704710B5FCF796FFBDE8104000F0E6BCCD
:1048600010B5FCF78FFFBDE8104000F059BDFCF714
:104870008FBF000030B593B030216846FCF79BF83D
:1048800014210CA8FCF797F81D480025016841F099
:1048900080510160006800F0805011901948016853
:1048A00041F4804101600068022400F480401190CE
:1048B0000120039010200490009406940820CDE974
:1048C0000750A820CDE9090407200B906846FDF7A2
:1048D000E5F808B172B6FEE70CA90F2081E83100B7
:1048E0004FF4A0500F904FF48050109005210CA869
:1048F000FCF7E8FF002801D072B6FEE713B030BD28
:1049000040380240007000400248016841F47001E4
:104910000160704788ED00E010B50A4C2068C0685F
:10492000C043C00709D108480069804721680020BA
:10493000486221686420C862E06021686FF001006D
:10494000086110BD50F50120F4C0012010B50448E5
:10495000FCF7D1FCBDE810400248FEF7E0B80000CB
:1049600094010020A8010020F0B50268274B284DD3
:10497000284E294F294C4FF0804C984209D0604571
:1049800007D0A84205D0B04203D0B84201D0A0421F
:1049900004D122F0700E4A6842EA0E0298421BD0FF
:1049A000604519D0A84217D0B04215D0B84213D0F4
:1049B000A04211D01A4DA8420ED01A4DA8420BD0D9
:1049C000194DA84208D0194DA84205D0184DA8424B
:1049D00002D0184DA84203D122F44075CA682A4378
:1049E0004D6922F080022A438D68C5620D68856298
:1049F000984201D0A04201D109690163016841F0E8
:104A000004010160012141610260F0BD000001402C
:104A10000004004000080040000C00400004014079
:104A2000004001400044014000480140001800409F
:104A3000001C00400020004010B5806B0021C185A3
:104A4000FEF714F910BD01680C3151E8002F22F473
:104A5000907241E80023002BF5D10168143151E830
:104A6000002F22F0010241E80023002BF5D1016B59
:104A7000012909D101680C3151E8002F22F0100200
:104A800041E80023002BF5D1202180F842100021BD
:104A90000163704708B590F84210222901D0022026
:104AA00008BD82684FF480539A4201D1016921B157
:104AB000816A9A421BD04AB10AE00268816A526850
:104AC000C2F308020A80816A891C08E0026972B197
:104AD0000268526802F07F020A70816A491C816292
:104AE000C18D491E0904090CC18503D01BE0026871
:104AF0005268F1E70168CA6822F02002CA600168C2
:104B0000CA6822F48072CA6001684A6922F0010210
:104B10004A61202180F8421000214163026B012A82
:104B200003D0FEF7B3FA002008BD016301680C3121
:104B300051E8002F22F0100241E80023002BF5D1AC
:104B400001680A68D20602D50A6849680091818D19
:104B5000FEF78BF8E7E7000070B5044600680169CE
:104B6000E26821F44051114301612169A068E269C2
:104B700008436169114308432168CA6849F20C631C
:104B80009A430243CA6020684169A26921F44071D6
:104B90001143416131492068884202D0304988423E
:104BA00002D1FCF739FF01E0FCF726FFE2690023A0
:104BB000192164253226B2F5004F626828D0A0FB87
:104BC0000101930F9200FBF7E2FB0146B0FBF5F009
:104BD0006FF01802504301EB800006EB0010B0FBB1
:104BE000F5F000F0F002B1FBF5F002EB0012B1FBC2
:104BF000F5F06FF01803584301EB800006EB00104E
:104C0000B0FBF5F000F00F0021681044886070BD23
:104C1000A0FB010192185B41FBF7B9FB0146B0FB19
:104C2000F5F00201B1FBF5F06FF01803584301EB0A
:104C3000800006EBC000B0FBF5F000F0F80002EBDE
:104C40004002B1FBF5F0584301EB800006EBC000D9
:104C5000B0FBF5F000F00700D6E7000000100140BF
:104C60000014014081628285C285002141642221B5
:104C700080F84210016921B10168CA6842F480726B
:104C8000CA6001684A6942F001024A610068C1686D
:104C900041F02001C160002070472DE9F84398469B
:104CA00017460D460446089E24E0701C22D0FCF7EF
:104CB00069FDA0EB0800B0421AD8CEB12068C168E7
:104CC000490717D5802D15D0402D13D00168C94351
:104CD00009070FD401680025406800902046FFF7BF
:104CE000B2FE0820606484F840500120BDE8F883DB
:104CF0000320FBE72068006835EA000004D00020AC
:104D0000B842D2D00020F1E70120F9E70148FDF7D1
:104D1000AFBF000080C401200C4808B500680068DF
:104D2000C043800611D44FF47A73012269460748C4
:104D3000FEF746F906480178402906D2034B9DF854
:104D4000002048335A54491C017008BDFC03002060
:104D5000D4C00120FEE70907090E002804DB00F19A
:104D6000E02080F80014704700F00F0000F1E02010
:104D700080F8141D704730380A2801D2012070478E
:104D80000020704770477047104882B000210268C9
:104D900042F48062026000680D4A00F48060009076
:104DA0000C4802604FF48032C0E90121C16001610A
:104DB000416101760122C261074A80F82010C0E9F2
:104DC0000912C16202B0FCF713BA00004438024075
:104DD00000220140F80200200100000F03F02CBF68
:104DE00030B50F4887B0016841F0200101600068CC
:104DF0004FF4807400F0200005900120CDE90040C0
:104E000002900220074D039069462846FCF7B8FB44
:104E1000002221462846FCF7B0FC07B030BD000058
:104E200030380240001402402DE9F05F0746406B25
:104E3000891E00EB1135C1F3C80601F007014FF0E0
:104E4000010B0BFA01F09A469146C4B229466D1C3B
:104E5000384608F0F7F810B10120BDE8F09F5A4637
:104E60004FF40073B91991F83C00204202D04FF082
:104E7000010801E04FF00008D04501D10220ECE725
:104E8000604081F83C00B9F101003A718146E4D0FC
:104E9000600010F0FF04E5D10124761C9E42E1D3AE
:104EA0000026D3E770B5044600202071401E206222
:104EB000204608F0C7F808B1042070BD04F23A207B
:104EC00007F0CCF94AF655260546B04206D10B222A
:104ED0002BA104F13C00FBF7A1FC40B194F83C008D
:104EE000EB2806D0E92804D0E82802D041E00120D0
:104EF00070BDB54207D1082224A104F18E00FBF752
:104F00008DFC0028F4D004F1470007F0A7F994F8CD
:104F10004910421E10422CD14FF40072904228D307
:104F2000904226D829B3481E014222D104F14A00FA
:104F300007F094F9E8B194F84C00401E012818D805
:104F400004F14D0007F08AF998B104F14F0007F021
:104F500085F9802806D204F15C0007F084F9B0F5E9
:104F6000803F06D304F1520007F078F908B1002021
:104F700070BDB54201D1022070BD032070BD00009C
:104F8000EB7690455846415420202000464154334A
:104F9000322020200000000070B50168046D500A26
:104FA0004D8940EAC350590A2A460023241DFBF7C5
:104FB000EEF902CC21B1884204D3401A241DF8E74F
:104FC000002070BD2168084470BD8269891E921E50
:104FD0008A4201D800207047026B408900FB012003
:104FE000704700002DE9F05F82460C4601F11A007F
:104FF00007F034F978BB2078012700F03F00401E0D
:1050000000EB8001DFF8589001EBC00500264FF659
:10501000FF7B00BF19F80600204407F01FF9804607
:105020006FB1FF2D17D803F001FB07463AF81500C2
:105030006D1C03F0FBFA87420DD1474601E0D845CD
:1050400009D1761C0D2EE5D32078400606D52FB168
:105050003AF8150010B10020BDE8F09F0120FBE7F1
:10506000D02401080D4B1A681AB15B680BB1984245
:1050700002D34FF0FF30704700EB800002EBC0001E
:10508000022303764183017A29B900F118010C301B
:105090000EC980E80E0000207047000004C0012007
:1050A00010B50E4C23681BB164680CB1A04202D34A
:1050B0004FF0FF3010BD00EB800003EBC000012477
:1050C000047681834283017A29B900F118010C30FA
:1050D0000EC980E80E00002010BD000004C00120B1
:1050E000094A116861B1526852B1904208D200EB8E
:1050F000800001EBC001087B022803D0032801D007
:10510000002070478878704704C00120F0B50F4D2B
:1051100000240F462646C5E9000113E02A6804EB87
:10512000840102EBC10086708680C68002F831607F
:1051300006720021204600F047F8204600F05EF895
:10514000641CE4B2BC42E9D30020F0BD04C00120DD
:105150000B4A116879B152686AB190420BD200EBE8
:10516000800001EBC000017B012904D1007A0328F3
:1051700003D0042801D000207047012070470000B0
:1051800004C001200F4A1368BBB15268AAB1904213
:1051900013D20C4B00EB8000CA071B6803EBC00066
:1051A00004D0027A012A0AD0032A08D0890704D53C
:1051B000007A022803D0042801D000207047012083
:1051C0007047000004C001200B4B1A681AB15B68DD
:1051D0000BB1984202D34FF0FF30704700EB8000D4
:1051E00002EBC0000162027A22B9D0E90623C26054
:1051F000C0E904310020704704C001200A4A116848
:1052000019B152680AB1904202D34FF0FF30704793
:1052100000EB8000032201EBC00000214276017602
:10522000818341830846704704C001202DE9F04185
:105230003A4C06464FF00008206820B1606810B173
:10524000A06820B104E04FF0FF30BDE8F081A66017
:1052500000250CE0206805EB850700EBC700406ADD
:10526000804721686D1C01EBC701EDB24870606892
:105270008542EFD300254AE0206805EB850710F84A
:10528000371000EBC7004278914200D11146027BF3
:1052900032B1012A0AD0022A1ED0032A0CD121E001
:1052A0002289B21A92B2FEF7C9FC04E02289B21A2E
:1052B00092B2FEF782FC8046B8F1000F06D020685B
:1052C00000EBC700416909B128468847216801EB16
:1052D000C700027A62B115E02289B21A92B2FEF7D3
:1052E0003BFCE8E72289B21A92B2FEF7E8FBE2E75C
:1052F00000F1180200F10C0E92E80C108EE80C1070
:105300000022827040786D1C01F83700EDB26068B1
:105310008542B1D30020A66097E7000004C00120B9
:105320002DE9F0414C4D0746286820B1686810B15E
:10533000A86820B104E04FF0FF30BDE8F081AF6015
:1053400000244FF6FF76A04671E02868AB6800EBBA
:105350000410FB1A8188721A9A4201D2868001E0F9
:1053600019448180C178CA0701D0827862B1CA0627
:105370000ED5FEF719FD0146286800EB0410C2782F
:1053800061F38202C2700DE04A0862F3820108E014
:10539000427800EBD20302F007021B7AD34063F39A
:1053A0008201C170286800EB0410C178C9062AD5B3
:1053B0004189AB68721AFB1A9A4201D2468101E018
:1053C000194441818288C1888A422ED9A0F804807C
:1053D000C1780907018909D5491C89B201811429BD
:1053E00023D3C17821F00801C1701EE0491E0904D1
:1053F000090C018119D1C17841F00801C17011E097
:10540000491E817011E08188C28891420DD3A0F8B5
:10541000048042784146521CD2B2427003789A42CC
:1054200003D3417081780029EAD1641CA4B2686872
:1054300084428AD3002409E0286800EB0411C8786C
:10544000C968C0F380008847641CA4B268688442BD
:10545000F2D30020AF6070E720000020094A10B5A9
:10546000C2E900010022134607E000BF00EB02146E
:10547000521C23606360D2B2A3608A42F6D300203C
:1054800010BD0000200000200F4A116819B15268B9
:105490000AB1904202D34FF0FF307047642201EB13
:1054A00000100021C2808180027A5AB1002202726B
:1054B0004170012202708170C17821F01301C17026
:1054C000002070470122F2E72000002030B5144D83
:1054D0002C681CB16D680DB1A84202D34FF0FF30AB
:1054E00030BD04EB0010C18000218180012B01D070
:1054F0004FF00203037241704FF00201017082709D
:10550000C17841F00101C17002D141F0020101E016
:1055100021F0020121F01001C1704FF0000030BDF8
:10552000200000202DE9F0478246052A01D20522FD
:1055300002E0FA2A00D9FA22174D002000EB4003BE
:1055400005EB83039B7A934222D300EB400305EBE8
:10555000830300261C7A8CB10924A9460CE000BF05
:1055600004EB440709EB87052D1F641EB5E8801185
:10557000A5E8801105F8186C8442F1DC012018724E
:105580005E72D981C3F810A099819A72BDE8F08744
:10559000401C0A28D2DBF9E7F001002010B50020FA
:1055A0000F490346FF240870C1F8040003EB4302CF
:1055B00001EB82025B1C10725072D08110619081ED
:1055C00094720A2BF2DB002201EBC203521CA3F8F7
:1055D0008200C3F88400A3F88000052AF4DB10BD24
:1055E000F001002070B51E4C00212078002835D035
:1055F0006068401C606010E0027A52B1828942B15A
:10560000521E1204120C828103D1C28982810122AE
:105610004272491CC9B20A2906D201EB410004EBCF
:1056200080000269002AE7D1002511E0B0F880105F
:1056300051B1491E0904090CA0F8801004D1B0F83A
:105640008210A0F8801090476D1CEDB2052D05D298
:1056500004EBC500D0F88420002AE7D170BD00001B
:10566000F00100200E4C01200026207000200FE0E9
:10567000297A49B1697A39B100EB400004EB800026
:10568000006980476E72F1E7401CC0B20A28EDD273
:1056900000EB400104EB810529690029E6D0E7E72A
:1056A000F00100202DE9F04706685FEA010807468F
:1056B0002BD04146384603F011F9022846D3411C4D
:1056C00045D0B169814242D84546706900283ED034
:1056D00030784FF0FF3904281ED045455FD1B069BE
:1056E0006C1CA04200D802242146384603F0F6F88C
:1056F00001282CD0411C2AD080B3306902284ED317
:10570000B16981424BD9054649E0356915B1B069A7
:10571000A842DAD80125D8E701222946304602F00E
:10572000F9FF040062D0601C60D001231A462146B4
:105730003046FFF779FB022808D0012809D0B8F1DC
:10574000000F08D0F979022909D010E00120BDE846
:10575000F0874846FBE70221F97143E01EE0691C2F
:105760008C423FD0B968691AB9610321F97108F117
:1057700001018C4206D1F96909B1491C00E00221FE
:10578000F9612FE0F869012500B9FD612246414623
:10579000384602F0A6FF30BBFD6129E0A4B92C46D3
:1057A000B069641CA04202D80224022D0AD321460B
:1057B000384603F093F838B10128C8D0411CC6D050
:1057C000AC42EDD10020C2E74A462146304607F000
:1057D00019FF40B9B8F100000AD001462246304610
:1057E00007F010FF20B1012811D001242046AEE7B8
:1057F000346170690028F9D0B169891E8842F5D8F2
:10580000401E7061707940F001007071EEE74C4607
:10581000ECE700002DE9FC5F824608680190DAF8A9
:1058200000000E460025C7684FF4803801A808F034
:1058300010FC411C3BD0404503D3010C27F8151048
:105840006D1C84B2202C1CD32F2C10D05C2C0ED0BD
:10585000802C04D2214676A0FAF7D6FF38BBFF2D64
:1058600025D227F815406D1CE0E7401C01900198F7
:1058700001782F29F9D05C29F7D00024C8B220285C
:1058800000D204240198306009E000BF07EB450016
:1058900030F8020C202801D02E2802D16D1E002DD8
:1058A000F4D1002027F815000DB1002603E00620F2
:1058B000BDE8FC9F761C37F816002028FAD016B9F0
:1058C00038882E2803D144F0030400E06D1E2DB16A
:1058D00007EB450030F8020C2E28F7D120220B21CF
:1058E0000AF14000FBF73DF84FF000084FF0080BBD
:1058F000CDF8008037F8160006F101065FEA0009CE
:1059000024D0B9F1200F04D0B9F12E0F04D1AE424A
:1059100002D044F00304EDE70098584501D2AE42AE
:1059200019D1BBF10B0F0FD0AE4201D044F00304EC
:105930000CD84FF0080000904FEA88602E464FF0D8
:105940000B0B4FEA1068D5E744F003049AF84000C7
:10595000E52849D04BE04846B9F1800F08D344F020
:10596000020402F063FE4FF46A7102F037FE8146D2
:10597000B9F1FF0F13D90099ABF10100814204D3B3
:1059800044F00304CDF800B0B4E700984FEA1922C0
:10599000504480F840200098401C00901BE0B9F172
:1059A000000F04D0014625A0FAF72EFF20B14FF0DA
:1059B0005F0944F003040EE0A9F14100192801D861
:1059C00048F00208A9F16100192804D8413048F0D4
:1059D00001081FFA80F9009A0AEB020181F8409051
:1059E0000098401C009085E705218AF84010BBF123
:1059F000080F03D14FEA88604FEA1068C8F38100AE
:105A0000032803D06FEA0800800701D144F00204A4
:105A1000A00709D45FEAC87001D044F010045FEA1F
:105A2000487001D544F008048AF84B4000203FE755
:105A30002A3A3C3E7C223F7F000000002B2C3B3D5D
:105A40005B5D00002DE9FF4F81B09B466A46012156
:105A5000019800F0F1FC00287DD108264FF03F09A5
:105A6000F101009F03E0700010F0FF0606D016FB66
:105A700009F0B7FBF0F08842F5D806B9FF264FF4DD
:105A800000715846FAF775FF0BF5DF754FF0000A05
:105A90004C465DE0029951F82A80B8F1640F09D8AC
:105AA00001D1384605E04FF06400B7FBF0F000FB91
:105AB00008F0804604EB0800B84201D8A04201D2A9
:105AC000A7EB0408B8F1000F44D0214605F1080007
:105AD00008F0B0F9414605F10C0008F0ABF9039865
:105AE000287119FB06F3B4FBF9F1B1FBF6F2B4FB34
:105AF000F9FC06FB1212B4FBF3F009FB1C416A70BF
:105B0000C02202EA900C491C4CEA010C85F802C044
:105B1000E87004EB0800441EB4FBF3F1B4FBF9FC9D
:105B2000BCFBF6F3B4FBF9F806FB13CC09FB1843F6
:105B300002EA91025B1C85F805C01A43AA71E9715B
:105B40000AF1010A10350446BAF1040F02D20CB171
:105B5000BC429FD300E00DE04AF655210BF5FF70E3
:105B600008F064F9012300225946019800F0BDFCB9
:105B7000002800D0012005B0BDE8F08F2DE9F05FCE
:105B8000894605464021FAF7F4FE85202870C0209A
:105B90004024002685F8200037464FF00108B24621
:105BA0004FF0C10B05F804B0641C05F804A0641C98
:105BB000B8F1000F06D039F816005FEA000801D0EE
:105BC000761CF6B22819414608F030F9A41CE0060C
:105BD000EED17F1C39F81600FFB20028E2D185F81B
:105BE00023607F1C6F70484609F04AF9014605F1B1
:105BF0002400BDE8F05F08F019B9000010B50446B4
:105C00002DED048B084609F0F4FA9FED181B53ECB8
:105C1000112B09F069F99FED179B53EC192B09F033
:105C200037FB9FED161B53EC112B09F05DF941EC8E
:105C3000180B53EC192B09F029FC01D89FED118B9F
:105C4000012C51EC180B0BD009F0A6FA00220346E8
:105C50001021BDEC048BBDE810400C48FBF7CCBB19
:105C600009F09AFA002203461146F2E7000000000C
:105C700000408F40000000000000B040666666668D
:105C800066660A400000000000FEAF40C8C4012064
:105C9000812803D3FE2801D80120704700207047D7
:105CA0000149086070470000180000204FF47A7125
:105CB000484300F001B8000070B54FF0E024002226
:105CC00065690949A36909684843A1699942FCD0FB
:105CD00002D2A3EB010302E0A5EB010633441A4410
:105CE0000B468242F1D370BD180000202DE9F0412F
:105CF0000F4604460021066800F044FBE8B9002581
:105D00003046A16B07F09EF9B8B931780429E16BF0
:105D1000097803D0E52905D021B107E041F3C0118E
:105D2000491C03D06D1CBD420AD000E000250121B2
:105D3000204600F0FFF80028E2D0042800D1072018
:105D4000BDE8F0812DE9F0470C46054608F05EF904
:105D5000A8BB21462846FFF738F9064628624FF4CB
:105D6000007705F13C0039468046FAF724FE688941
:105D7000BC01B4EB402F04D9440200E06408BC42EB
:105D80001ED9204602F0FFFB5FEA0009F6D0BC42B4
:105D900016D92146FAF7EDFD670A002400E03C44DD
:105DA0006889A04207D9321968783B46494600F015
:105DB0009CFB0028F3D0484602F0E7FB0FE011E01F
:105DC0000127002400E03C446889A04207D9321929
:105DD00068783B46414600F088FB0028F3D068898C
:105DE000A04202D00120BDE8F0870020FBE72DE9AA
:105DF000F05F04460021056800F0C4FA00284CD189
:105E0000287804280CD0FF264FF0FF38B146C4F89C
:105E10004C802846A16B07F015F907004ED13EE0F3
:105E2000E86809F02DF882462FE0A86B243006F0D0
:105E300015FA504529D1A86B40264FF0000990F87B
:105E4000238017E0F00600D1B61CA86B304406F0A2
:105E500005FA02F0EBFBE968074631F8190002F099
:105E6000E5FB87420AD1A8F1010000F0FF0809F123
:105E70000109B61CB8F1000FE4D102E0B8F1000F3F
:105E800003D1E96831F8190030B10021204600F053
:105E9000B3F85FEA000BC8D05846BDE8F09FE16B4D
:105EA000087850B1CA7AE52802F03F02A27135D0D5
:105EB000130704D50F2A31D105E0042738E00F2A53
:105EC00001D0DEB11FE094F84B20520629D44206DF
:105ED00006D5226BE26400F0BF0091F80D900646F3
:105EE000B04208D14A7B4A4505D1E868FFF77AF805
:105EF00008B1761E00E0FF26F6B212E0084608F070
:105F00000FF8484514D094F84B00C00706D10B2277
:105F100004F14001E06BFAF781FC48B1FF26C4F8B8
:105F20004C800021204600F005F807003FF471AFD7
:105F30003846B2E72DE9F04707680446066B387823
:105F40002036894604280AD04FF400104FF000088C
:105F5000B04238D9A06B28B1F10506D044E04FF02B
:105F60008050F3E70420BDE8F087401CA063616B1C
:105F700029B17889401E10EA562F05D034E03889BF
:105F8000B0EB561F1FD92FE0204602F0A7FC0546B4
:105F900001281DD9681C14D0B869A8421ED8B9F1CF
:105FA000000F10D02046616BFFF77CFB05000DD081
:105FB000012D0DD0681C04D029463846FFF7C2FEDB
:105FC00040B10120CFE7C4F83880CBE70720CAE70B
:105FD0000220C8E7E07940F00400E0712946384625
:105FE0006563FEF7F2FFA063C6F3080038443C3057
:105FF0002663E0630020B6E72DE9F0470426FF247E
:1060000089460546A04607685FE0384607F01AF85B
:1060100006005ED1E96B087898B13A78042A12D06C
:10602000CA7AE52802F03F02AA7108D02E2806D0CD
:1060300022F02003082B1BD0B446CC451BD0FF24F4
:1060400033E0042645E0B9F1000F02D0832842D0A6
:106050002BE0852829D1286BE864284606F069F9E9
:10606000060036D1B86B007900F03F00A87132E02D
:106070004FF0010CE1E70F2A01D014BB1CE04206EF
:1060800006D591F80D8000F0BF002A6B0446EA6443
:10609000A04208D14A7B424505D1F86807F078FA5A
:1060A00008B1641E00E0FF24E4B200212846FFF797
:1060B00041FF060009D00CE0084607F031FF4045DB
:1060C00009D04FF0FF30E86405E0A96B00299CD1AE
:1060D0000EB10020A8633046BDE8F0872DE9F04FEF
:1060E0000446056890F84B0099B010F0A00F03D05B
:1060F000062019B0BDE8F08F0026E86800E0761CA5
:1061000030F816100029FAD12878042819D004F1A3
:10611000400004F1400807C88DE807009DF80B0017
:10612000C1076BD0402084F84B000127BBB2694601
:106130004046EA6802F084FB2046FFF758FEE8BBC1
:1061400051E00F200E36B6FBF0F6B61C3146204665
:10615000FFF7CCFD0028CCD171422022206B02EB4E
:1061600041110844E064E079410736D520F004008D
:10617000E071204602F09EFA0028BAD1421E204665
:10618000616B02F0AEFA0028B3D1A06828B32146B3
:1061900004A806F0B1F80028ABD16889D4E904233B
:1061A0004102521843F10003C4E90423A86B3830BC
:1061B00007F048FED4E90423A86B00E016E028307D
:1061C00007F040FEE079A96B40F0010081F8210062
:1061D00004A807F070FE00288BD1E968A86BFFF7D0
:1061E000CDFC002085E77F1C642F9FD3642F0FD048
:1061F0000428F7D19DF80B0084F84B009DF80B00A4
:10620000800707D50D200C36B6FBF0F77F1C02E0A7
:1062100007206EE7012739462046FFF767FD060095
:106220007CD17F1E04975ED0216B784201EB401138
:10623000204600F0A7F8060070D1404607F070FE37
:106240004FF6FF7B06902846A16B06F0FBFE06008A
:1062500064D1E86805900498D4F83C90C0B20390EB
:10626000069989F80D100F2189F80B10002189F883
:106270000C1009F11A0007F0D9FD0398DFF8A0A06F
:10628000401E00EB800101EBC008002701E05E45E5
:1062900004D0059830F8186008F101081AF80700D2
:1062A0003146484407F0C2FD06B95E467F1C0D2FFB
:1062B000EDD35E4505D0059830F8180008B1039875
:1062C00003E0039840F04000039089F800000120AB
:1062D000287100212046FFF72DFE06001ED10498EC
:1062E000401E0490AFD12846A16B06F0ABFE06001D
:1062F00014D154F83C0F2021FAF73BFB2068616869
:106300000160A1684160A1890181A17B8172E07B6C
:10631000216800F018000873012028713046E8E673
:10632000D02401082DE9F041C16C0446066B0568D4
:10633000481C04D0204600F025F800281AD14FF060
:10634000E50801272846A16B06F07CFE78B929787C
:10635000042911D0E26B82F800802F71216BB142C9
:1063600008D200212046FFF7E5FD0028EAD00428E6
:1063700000D10220BDE8F081E16B0A7802F07F02D3
:106380000A70EAE72DE9F041066805460F463078C5
:10639000042806D04FF40010B8423CD9F8063AD190
:1063A00002E04FF08050F7E72F63AC6834B93078E3
:1063B000032807D30020F46AE8711CB170894FEA02
:1063C000402812E03089B0EB571F24D9F06A12E060
:1063D000284602F083FA0446401C1AD0022C1AD335
:1063E000B069A04217D9A7EB080747452146EFD26D
:1063F0003046FEF7EAFDC5E90D4060B100EB5720DD
:10640000A863C7F3080030443C30E8630020BDE8CF
:10641000F0810120FBE70220F9E710B510B1012857
:1064200003D104E007F0F8FA18B1012010BD06F01E
:1064300005FF002010BD00004FF4007318B10128C3
:1064400014D00120704739B1114801290AD002291E
:1064500004D0032908D103E0002070471360FBE754
:10646000808B0CE0806910E0042070470029F3D095
:10647000012908D0022904D00329F5D10820108071
:10648000EAE71380E8E74FF4C0401060E4E700005B
:10649000080500202DE9F0411C0015460E4605D0E8
:1064A00030B1012810D00120BDE8F0810420FBE7C5
:1064B0001A4602E007F0B0FA22462946304607F0B5
:1064C0003DFB0028F6D10CE04FF4007769023A4614
:1064D000304606F0FFFE641E05F1010506F5007664
:1064E000F4D10020E0E7002070472DE9F0411C00C6
:1064F00015460E4605D030B1012810D00120BDE868
:10650000F0810420FBE71A4602E007F085FA2246F4
:106510002946304607F02CFB0028F6D10CE04FF45A
:10652000007769023A46304606F068FF641E05F1BE
:10653000010506F50076F4D10020E0E77CB50D46B4
:1065400000211446009101AA694600F041F8002894
:106550000AD10199009A8B6949899B1E4B4351438B
:106560005A0849082A6021607CBD000070B50B4DB7
:1065700000244FF40F763146002006F02FFE45F838
:10658000240018B1641CE4B2022CF4D306F04CF8D9
:10659000022C01D1002800D0012070BDE8C10120EB
:1065A00038B5044601F0D6FD002806D169462046DC
:1065B00008F030FC002800D1206038BD38B5044612
:1065C000694608F027FC002801D10021216038BD70
:1065D0002DE9F7438EB014468946002269460EA87D
:1065E00006F05CFB07007AD1009820600098D0E9A3
:1065F0000514A21E914202D8C9F800106FE001787C
:106600000025012905D004291AD00026D0F82880B9
:106610003DE002240290214602A802F05FF9411CED
:1066200003D0012803D020B104E0012757E002275E
:1066300055E06D1C0098641C80698442EBD346E0F1
:106640000026A41ED0F8348000E046B9414608F187
:106650000108009806F0F6FC070040D1009A0821D6
:10666000901990F83C00C043C0B207E000F001036D
:1066700040081D44491EA4F1010401D0002CF5D1AD
:10668000761CC6F30806002CDFD120E03EB9414657
:1066900008F10108009806F0D5FC07001FD100980A
:1066A00001783044022900F13C0004D005F0DBFD04
:1066B000000106D006E005F0D1FD00B96D1CB61C46
:1066C00001E06D1C361DC6F30806641EDED1C9F854
:1066D000005000984561417941F00101417111B0CC
:1066E0003846BDE8F08300002DE9F74795B09246A3
:1066F0000E46002214A915A806F0D0FA050079D19B
:106700003EB31498A94600904946CDF808906846D3
:10671000FFF738FE050005D101216846FFF76CFC44
:10672000050002D0042D42D064E0149800780428BB
:1067300010D0002002460F99095CB154401C521C35
:106740000B28F8D34846B0541AB1521EB15C202928
:10675000F9D02FE00024A046474610E002210F9810
:1067600001EB4701084405F079FDB8F1000F12D1A3
:10677000A0F55841B1F5006F0DD280467F1C0F98EF
:106780004078B842EAD800BFB8F1000F00D000242A
:1067900006F804900EE0311940EA0840042206F0A1
:1067A000ACFF10B104440020E7E70024ECE786F8D2
:1067B00000900025BAF1000F1CD01498416A06F031
:1067C00041FC050016D114990878032809D0042843
:1067D00005D091F86200292805D0002008E0642047
:1067E00002E0432000E0272008443C3005F03BFD58
:1067F000CAF8000018B02846BDE8F0872DE9FC4132
:1068000000259046074604464E1E0FE001AB0122CC
:106810006946404601F0FBF90198012808D19DF82E
:1068200000006D1C04F8010B0A2801D0B542EDDB15
:106830000020207015B13846BDE8FC810020FBE740
:106840002DE9F04F89B017469846044601A908F093
:10685000E1FA5FEA000A7CD194F831A05FEA0A000D
:10686000F9D101980078042807D1421F2046216CF5
:1068700001F037FF5FEA000AEDD1206D04F1540109
:106880004FF0010B0091002879D0FA4372EA080218
:1068900035D0D4E90410CB1B70EB080201D20F46AF
:1068A0008046C4E90E7857EA080052D07A1E48F1B3
:1068B000FF3316461D462046FEF76EFB0146206458
:1068C0000198FEF782FB00287DD0019B710A41EA06
:1068D000C5515A89521E11400D18208FC005E4D0B1
:1068E000626CAA42E1D094F8300000063BD558789B
:1068F00001230099FFF7F9FD002865D12DE050F83C
:10690000049BA16880460225E1B10026AD1C0491DC
:106910000F462046761C01F0E1FF0146012852D9BE
:10692000481C51D07F1CB942F2D04D4506D8C8F85A
:10693000006008F10400049A04C080460198806950
:106940008842E2D8206D4D45056003D80020C8F884
:106950000000F6E04FF0110AF3E094F8300000F088
:106960007F0084F83000019801232A46407800997E
:10697000FFF790FD0028C0D16564E2E0FFE7019ACF
:106980001078042806D0B8F1010F03D34FF0FF3779
:106990004FF00008D4E90410CD1B70EB080305D2BA
:1069A00094F830309B0701D40F468046D4E90E108E
:1069B000CDE9030100200290C4E90E0057EA080067
:1069C0003AD0508901E0A1E0A6E04FEA4029DDE994
:1069D0000310084322D0781E48F1FF314A460023B5
:1069E000F9F7D5FC05460E46DDE90310401E41F1DE
:1069F000FF31CDE905104A460023F9F7C8FC281AF3
:106A00008E410BD3DDE90501A9F101029143C4E9EF
:106A10000E107F1A68EB0008216C0CE0A16849B9E0
:106A200000212046FEF73EFE014601286ED0481C9C
:106A300072D0A160216479BB46E04B46D4E90E5286
:106A4000FF1A68EB000815EB09034241C4E90E3256
:106A500094F83000850712D5D4E90465F61A9541FB
:106A600005D2C4E9043240F0400084F830002046EA
:106A7000FEF718FE010006D10027B84612E02046B6
:106A800001F02CFF0146481C55D001293ED9019840
:106A9000806988423AD921640020B9EB070270EB83
:106AA0000802CAD3D4E90E30DB1940EB0800C4E970
:106AB0000E30F80508D00198FEF787FA30B3790A4E
:106AC00041EAC85108440290D4E90E01D4E90432E5
:106AD0001B1A8A4107D2C4E9040194F8300040F03F
:106AE000400084F83000208FC0052AD0626C0298E4
:106AF000824226D094F83000000614D50198012374
:106B000000994078FFF7F1FC30B906E0022084F8E4
:106B1000310009B0BDE8F08F0DE094F8300000F0CE
:106B20007F0084F8300001980123029A4078009990
:106B3000FFF7B0FC18B184F831B00120E9E7029802
:106B400060645046E5E700002DE9F143A6B002225B
:106B500002A926A806F0A2F804007BD102980490AE
:106B60004FF48C6001F00FFD06000DD0029806F581
:106B70000071C660816304A8269901F013FE040029
:106B800006D0042C0DD062E0112027B0BDE8F083C0
:106B90009DF85B0010F0A00F01D0062457E00824F8
:106BA00055E002981A9000211AA8FEF77BFD4F4984
:106BB00005004FF0000404D0012D06D0681C06D05B
:106BC00000E00724894624B13CE002243AE0012495
:106BD00038E029460298FFF7B5F8040032D1029850
:106BE00010274FF001080178042926D020220B211C
:106BF0003C30F9F7B6FE02982E24494680F83C4016
:106C000080F84770523007F015F902982A4600F1D3
:106C10003C0107F03CF90299202201F15C003C3173
:106C2000F9F76DFE029800F15C0180F85D40069A6C
:106C300007F02DF9029981F8048004A8FFF74EFAB5
:106C4000040009D0002229461AA806F0C9FD3046E2
:106C500001F09BFC204698E702980178042918D09F
:106C6000139849460E3007F0E5F813984946163058
:106C700007F0E0F82A461399029807F008F91398EC
:106C8000C772029981F80480029807F057F9044608
:106C9000DDE7806B4946083007F0CCF8029849469A
:106CA000806B0C3007F0C6F802982946806B3430B0
:106CB00007F0C0F802984189806B4902383007F02C
:106CC000B9F802984189806B4902283007F0B2F880
:106CD00002980321826B82F82110806B077104A84F
:106CE00007F0E9F80400CFD0B1E700000000215A16
:106CF0002DE9FF4FA7B0994690460C4627A801F012
:106D000071FF002803DA0B202BB0BDE8F08FFE499D
:106D1000002751F8201001B10F70C0B20790FFF7A3
:106D20007CFBC10701D00320EEE7400701D50A2014
:106D3000EAE704B9F54C4FF400456068109030B9AB
:106D400010AA03210798FFF777FB109820B1A842FB
:106D500002D8411E084201D00120109020784FF443
:106D6000007600F00F00179060780146401E012861
:106D700001D8084600E001200E90A068411EA942FB
:106D800005D21021B0FBF1F201FB120101B1304636
:106D90000B90E068B0F1807F02D8411E084200D01D
:106DA0000020B0FBF6F5B9FBF6F05FEA000915D05C
:106DB0005FEA080405D14FEA492001F0E4FB040032
:106DC0000CD000208346139013AA01210798FFF7E7
:106DD00033FB50B1B8F1000F02D004E0112093E76B
:106DE000204601F0D2FB01208EE71798000706D459
:106DF00013983F2803D93F384FF03F0B1390139857
:106E0000802807D2B8F1000F02D1204601F0BDFB67
:106E10000E2079E717994A07BD4911D5179A02F054
:106E200007034FF08062042B03D0904201D2802DE3
:106E300009D901440F91B0F5805FE3D3FDB126E09D
:106E4000802D00D98025179A4FF6F57E9207179A64
:106E50004FEAC27205D52AB901444FF0030A0F91D7
:106E600050E322B101444FF0020A0F9142E3B8F11E
:106E7000000F02D1204601F088FB132044E70825CB
:106E8000B0F5002F03D34025904200D3AD000BF1A5
:106E900020011291B0FBF5F1890001F20721B1FB4D
:106EA000F6F2129906920A4410990A44491E521E9B
:106EB0008A43A2EB0B0108921491B1EB500FA1D2BF
:106EC000401AB0FBF5F01C9010289BD391498842E2
:106ED00098D8C01DC0080E90401E05FB0600690230
:106EE000B0FBF1F01E9005FB0020199000200390EC
:106EF000074682460B900D9016900AE00B9840B121
:106F000001282CD00D9880B21A900D98384487B281
:106F10002CE0384601F08AFB80B21A90B84202D0C9
:106F20007F1CBFB224E0012001E00D98401C0D90B1
:106F3000384401900004000C07D0019880B201F0A1
:106F400075FB019989B28842EFD00D98802804D34F
:106F50004FF6FF701A90022009E001200B901A975B
:106F60007F1C0D98BFB2401E0D9001D100200B90E8
:106F70001A98C0B204F80A00039907F0A0FF01466E
:106F80001A9804EB0A02000A507007F098FF039069
:106F900016980AF1020A801C16901FB109FB06F030
:106FA0005045ABD10AEB0600401EB0FBF6F082461E
:106FB00003462146199A0798FFF797FA00287FF4AD
:106FC00009AF1998002F50444FF0000A199095D13D
:106FD000169805FB06F1401E05FB0600B0FBF1F01C
:106FE0001F9001202090089819900E9809FB06F731
:106FF0003044401EB0FBF6FADDE91E010844401C97
:107000001B9039462046F9F7B4FC00201B990DE08F
:1070100004EBD00200F0070C1178012303FA0CF303
:10702000194311701B99491E401C1B9111B1B7EBFC
:10703000D00FEDD850464946CA4500D90846034608
:1070400001902146199A0798FFF74FFA0028B6D108
:107050000199199808441990AAEB01005FEA000A07
:10706000CFD11298199006980B9000201A901B907F
:107070000D9039462046F9F77CFC1A984FF0000A2B
:1070800010BB20466FF0070106F0D4FE201D4FF024
:10709000FF3106F0CFFE02204FF0080A1A9013E0ED
:1070A0001B98012802D91A99491C01E04FF0FF31C1
:1070B00004EB0A0006F0BEFE1A980AF1040A401C0E
:1070C0001A901B98401E1B901B9810B15745E7D88B
:1070D0000BE00D9803280AD20D991EA850F8210044
:1070E0001B90481C0D901B9808B15745ECD80B9984
:1070F0004846494500D80846824603462146199A23
:107100000798FFF7F2F907E0F4C101200C25010808
:107110000000215AFDFFFF7F002898D119985044A4
:1071200019900B98B0EB0A000B90A2D1394620467B
:10713000F9F71FFC83202070812084F820000221B1
:1071400004F1340006F076FE04F138000E9906F0E2
:1071500071FE822084F8400004F14400039906F097
:1071600069FE1E9904F15400891C0C9006F062FE21
:1071700004F158001699159006F05CFEDDE91E0139
:10718000014408982F4605FB0100199048464F45D9
:1071900000D83846824603462146199A0798FFF7D9
:1071A000A4F90028B9D131462046F9F7E2FB199835
:1071B000B7EB0A0750441990E8D10020019004F180
:1071C0004000249008301299D9462390A1EB090081
:1071D000269004F150001B900C301D90001D1A9059
:1071E000001D0A90001D259031462046F9F7C1FB8D
:1071F000FBA000270168216041686160008920814F
:107200002020A0725A463B46249806F01BFE00231D
:10721000139A239806F016FE26991B9806F00AFE8C
:1072200006990C9806F006FEDDE9141006F002FE41
:10723000DDE91C1006F0FEFDDDE91E010144891C9C
:107240001A9806F0F7FD0F990A9806F0F3FD4FF42F
:107250008071259806F0EAFD84F86C70304604E0F1
:1072600094F86C10491C84F86C104008F8D184F82C
:107270006D702F4605E000BF94F86D00401C84F847
:107280006D007F08F8D1012084F86E00802084F81A
:107290006F004FF6EB6104F1780006F0C7FD4AF687
:1072A000552A514604F5FF7006F0C0FD00200390FA
:1072B00005E06A2F42D06B2F3ED0702F3AD0E05DB0
:1072C000039907F0FCFD7F1C0390B742F1D34A46B7
:1072D00009F10109012321460798FFF706F9002863
:1072E0007FF478AD31462046F9F743FBA0195146AB
:1072F000801E06F09BFD4FF0010A00270399E05D18
:107300007F1C07F0DCFD0390B742F7D34A4609F132
:107310000109012321460798FFF7E7F80028DFD18C
:107320000AF1010ABAF1090FE7D331462046F9F70D
:1073300020FB19E07127C2E76C27BAE76B27B8E793
:10734000E05D7F1C039907F0BAFD0390B742F7D3C5
:107350004A4609F10109012321460798FFF7C5F8BC
:107360000028BDD10AF1010ABAF10B0F4FF0000756
:10737000E6D3E019039906F05DFD3F1DB742F8D34F
:107380004A4609F10109012321460798FFF7ADF8A4
:107390000028A5D10198401C01900228FFF424AFD9
:1073A00002E200BF00214FEA504C01278F4B01E061
:1073B0007F00491C33F811200AB16245F8D9B0FBAF
:1073C000F7F106EB8102D21DB2FBF6F20692202203
:1073D000039200220D9271457FF614AD844A9142CA
:1073E0003FF610AD2CE000BF804A002101274FEA94
:1073F000103C0E3A01E07F00491C32F811300BB10D
:107400006345F8D9B0FBF7F140F6F572914203D924
:10741000042202EB410107E001EB41010322491C78
:107420004FF0010A02EB51013144491EB1FBF6F164
:107430000691012103910B994901B1FBF6F10D91E0
:10744000039A0BEB020112910D9A8B180E9A069972
:1074500001FB023210995318491E5B1E8B43991A87
:10746000BAF1030F2DD00E9BB1FBF3FC03FB1C13F1
:1074700033B1039B5B1C0393129B5B1C491E12934D
:107480000E9BB1FBF3F306991944069102EB071228
:10749000A2EB0B018142A3D803990E9A431A0699D5
:1074A00001FB12320D99511AB1FBF7F11C91BAF19F
:1074B000030F0DD0BAF1020F13D0BAF1010F2FD084
:1074C00033E0039B0B440393129B19441291DDE7B5
:1074D0001C99714529D8002D7FF494AC7D0811D1F9
:1074E00090E41C99714511D93DB94021B1EB470F8A
:1074F00003D37D002F0085D176E71799890709D539
:107500004FF0030A2F007FF45AAF4BE740F6F572B5
:1075100091420AD8002DE3D17D00802DEAD971E493
:107520001C9840F6F5718842DAD831462046F9F7C2
:1075300020FA30A0016821604168616000892081E3
:107540003020A072314604F10B0006F06FFC677327
:10755000039881B204F10E0006F068FC0E982074C6
:10756000BAF1030F0FD00B9881B204F1110006F0AD
:107570005DFC1399B1F5803F07D289B204F1130085
:1075800006F054FC05E00020EEE704F1200006F0D0
:1075900051FCF82060753F2104F1180006F046FC0C
:1075A000FF2104F11A0006F041FC594604F11C00C9
:1075B00006F040FC29250F99BAF1030F3BD004F1E6
:1075C000270006F037FC069881B204F1160006F099
:1075D0002DFC802084F8240084F8265013220FE02C
:1075E000EB7690455846415420202000FE240108A7
:1075F000F5FFFF0FEBFE904D53444F53352E3000F7
:1076000082A104F12B0000BFF9F734F94AF65525A1
:1076100004F5FF702946019006F008FC01235A4644
:1076200021460798FEF761FF00287FF4D3ABBAF13B
:10763000030F22D052E004F1430006F0FBFB04F1FB
:107640002400069906F0F6FB022104F12C0006F056
:10765000F1FB012104F1300006F0E8FB062104F102
:10766000320006F0E3FB802084F8400084F84250AA
:1076700013226BA104F14700C6E701230BF10602B8
:1076800021460798FEF731FF31462046F9F771F998
:107690006849204606F0CEFB674904F5F27006F013
:1076A000C9FB1C9904F5F470491E06F0C3FB0221C6
:1076B00004F5F67006F0BEFB2946019806F0B6FB0D
:1076C00001230BF1070221460798FEF70EFF012365
:1076D0000BF1010221460798FEF707FF09FB06F1AF
:1076E0002046F9F746F90020DDF848B025E000BF54
:1076F000BAF1030F2FD0BAF1010F3BD06FF00701A1
:107700004FEA040006F096FB069D48464D4500D81A
:107710002846034601905A4621460798FEF7E5FEA3
:1077200000287FF457AB31462046F9F722F901993A
:107730008B446D1AE9D10498401C014604900E98C0
:107740008142D5D3BAF1030F00D00D9F48464F4573
:1077500012D9054611E06FF00701204606F06AFBDA
:107760004FF0FF31201D06F065FB6FF0704104F112
:107770000800C7E73149C3E73D462B465A46214634
:107780000798FEF7B2FE0028CBD1AB447F1BDDD1BA
:10779000BAF1040F08D0BAF1030F07D01398B0F56F
:1077A000803F05D3062207E0072205E00C2203E014
:1077B000BAF1020F12D001221798000717D41398BC
:1077C000219000202290234621A90798FEF73AF93C
:1077D00005000CD0B8F1000F02D004E00422EBE762
:1077E000204600F0D2FE28462BB0BDE8F08F0022E4
:1077F00011460798FEF720FE002892D1B8F1000F3D
:1078000002D1204600F0C1FE0020EDE74E4F204E91
:10781000414D45202020204641542020202020009A
:107820004E4F204E414D45202020204641543332BA
:10783000202020005252614172724161F8FFFF0026
:1078400017B581B0144602980090684601F0CAF955
:10785000002802DA0B2004B010BD0B4A002352F8B6
:10786000201011B142F820300B70019919B1487005
:107870000B7042F820102CB1002201A902A805F0DB
:107880000DFAE8E70020E6E7F4C101202DE9F74F03
:107890009CB005000BD002F03F06324669461DA899
:1078A00005F0FCF904004FF0000A04D030E1092093
:1078B0001FB0BDE8F08F00982860009804904FF446
:1078C0008C6000F060FE5FEA00090CD0009809F5BA
:1078D0000071C0F80C90816304A81D9900F062FF4C
:1078E000040002D006E01120E2E79DF85B000006EC
:1078F00000D5062416F01C0F7ED04CB1042C03D109
:1079000004A8FEF7EBFB044646F008065CB1E4E091
:10791000700701D50824E0E09DF8160010F0110F63
:1079200001D00724F1E0300768D500987D4F4FF073
:10793000200800784FF0010B042829D0139839460D
:107940000E3006F077FA13983946163006F072FAC0
:107950001399009804F0BDFC13990746002281F8A2
:107960000B801399009806F092FA139800211C30AE
:1079700006F060FA009880F804B0F7B3D0F82080E1
:107980000022394604A805F02BFF040037D0A4E0FC
:107990000021284601F0A0F900981E21806B801C70
:1079A000F8F7E7FF00981A21806B2630F8F7E1FF1F
:1079B00000983946826B82F80480806B083006F0AC
:1079C00039FA00983946806B0C3006F033FA00998A
:1079D00004A8896B81F821B006F06DFA04007CD10F
:1079E000A96851B10022284605F0FAFE0446A868AD
:1079F0000099401E08610AE00BE019E01AE04146D8
:107A0000009805F01FFB044600987F1E07616CB1CB
:107A100063E0ECBB9DF81600C10601D504245CE0D0
:107A2000B10703D5C00701D0072456E0300701D5C0
:107A300046F040060098016AA9641399E964017848
:107A400004292FD0139904F044FCA86013981C302B
:107A500004F009FCC5E9040AC5F850A0009900200B
:107A6000C988A98085F8306085F831A0C5F844A0A0
:107A7000C5E90E0005F154004FF400718346F8F794
:107A80009AFFB0064AD5D5E9046756EA070000E038
:107A900023E043D0C5E90E670098A96840894002F9
:107AA000804613E004A9284601F016F9D4E72846D9
:107AB00000F014FF0146012800D80224481C00D120
:107AC00001244046361A67EB0A0724B90246921B86
:107AD0007AEB0700EBD3296424B1484600F055FD4A
:107AE000B4B917E0F00519D00098FDF76EFA98B117
:107AF000710A41EAC7510A186A640098012359467D
:107B00004078FEF7C7FC48B10124484600F03DFD2F
:107B1000C5F800A02046CBE60224F6E7484600F070
:107B200034FDF7E70000215A73B582B0050007D095
:107B30000022694603A805F0B1F8040003D03AE03A
:107B4000092004B070BD009828604FF48C6000F0EC
:107B50001AFD06000BD0009806F50071C66081631F
:107B60002846039900F01EFE040002D01DE01120FB
:107B7000E7E795F84B0000060FD4A879C0061ED59C
:107B800000980178042904D0E96B04F0A2FBA860F6
:107B900003E02946084601F09FF800980021C088BC
:107BA000A8802846FEF7EEFB0446304600F0EDFCC8
:107BB000042C09D00CB1002028602046C1E7052420
:107BC000304600F0E2FCF6E70524F4E710B594B087
:107BD0000446684605F0DAFD2146684605F0A4FD36
:107BE000684605F0BEFD14B010BD10B594B0044653
:107BF000684605F0CBFD02E0641C05F095FD217898
:107C000068460029F8D105F0ACFD14B010BD2DE98F
:107C1000FF5F8846002699461546044603A91E6064
:107C200007F0F8F800281BD194F83100002817D18C
:107C300094F83000C00712D0D4E90E02D4E9043120
:107C4000181A04F1540361EB020102930127431B4C
:107C5000B3464FF0020AB14100D2054695E0072035
:107C600004B0BDE8F09F208FC00572D1D4E90E2387
:107C70000398560A46EAC3564089401E064013D16F
:107C800052EA030005D0206D28B12046FDF784F9A3
:107C900005E0A06803E02046216C00F01FFE0228EA
:107CA0001BD3411C4ED02064216C0398FDF78DF945
:107CB00098B130440090680A019026D00399321898
:107CC0004889824201D9801B01904878DDE9002370
:107CD0004146FEF7DFFBA8BB03E084F831A0022099
:107CE000BEE794F8300000060CD5616C0098081AC5
:107CF0000199884206D208EB40204FF400720299A5
:107D0000F8F7B8FD0198460231E0626C00988242B3
:107D10001DD094F8300000060CD503980123029979
:107D20004078FEF7E2FB68B994F8300000F07F007D
:107D300084F8300003980123009A40780299FEF7F6
:107D4000A9FB20B184F83170012089E701E0009897
:107D50006064208FC0F30800C0F50076AE4200D901
:107D60002E460119324640465431F8F783FDD9F8C2
:107D70000000AD1B8119C9F80010D4E90E10891953
:107D800040EB0B00C4E90E10B044002D7FF46BAF44
:107D9000002065E72DE9F8430E468046694607F066
:107DA00039F804004FF0000705D00EB104B1B776E2
:107DB0002046BDE8F883A6B14FF48C6000F0E3FBE9
:107DC000050014D0009805F50071C5608163B77691
:107DD00000214046FEF710F90446042809D044B1BA
:107DE00013E000214046FEF7CDFA0446E0E71120FB
:107DF000DFE73146404600F00BFE00214046FEF72B
:107E000099F80446042800D10024284600F0BDFB60
:107E1000CCE7F3B5BFB040A800F0E4FE022269460B
:107E20003FA804F03BFF04007DD1009806904FF47A
:107E30008C6000F0A8FB05000BD0009805F50071E0
:107E4000C560816306A83F9900F0ACFC040003D034
:107E5000B9E0112041B0F0BD9DF8630010F0A00F13
:107E600001D00624AFE000980178042912D0202226
:107E70002EA81599F8F7FEFC502206A91AA8F8F7C3
:107E80003EFD1AA8409900F08DFC04004FD0042C50
:107E900055D098E0816B40222EA8F8F7EBFC5022D9
:107EA00006A91AA8F8F72BFD1AA8409900F07AFC49
:107EB000040002D0042C0AD085E008991C9888425E
:107EC00003D112992698884201D008247BE01AA891
:107ED000FEF704F9040076D10098806B467890F89C
:107EE0002340243004F0BAF90746009840222EA916
:107EF000806BF8F7BFFC0098806B46700098816B30
:107F000081F82340806B3946243005F08FFF0098BC
:107F1000816B0879C20602D440F0200008711AA8CB
:107F200005F0C9FF00E051E0040043D04BE00899A0
:107F30001C988842C9D1129926988842C5D11AA89E
:107F4000FEF7CCF804003ED1299C13220DF1C501A7
:107F500004F10D00F8F78EFC9DF8C310E172C8061D
:107F600002D441F02000E072009801260671E17A07
:107F7000C9061FD51C9A089991421BD0214604F0CE
:107F8000A8F901460098FDF720F8010008D00098F4
:107F900005F058F80400009800F15C0102D012E0EE
:107FA000022410E04A782E2A04D11C9A05F06FFFB3
:107FB0000098067106A8FEF7B5F9040003D10098F1
:107FC00005F0BCFF0446284600F0DFFA204641E7F2
:107FD000F1B59EB0022269461EA804F05FFE00289B
:107FE00060D100984FF4803701AE0078042806D0A5
:107FF00020220B213046F8F7B4FC002449E0182178
:108000003046F8F7D8FC00241DE01EA806F021F841
:108010000546B84209D3681C43D00A2C41D2290C2A
:1080200006EB440005F002FF641CD5B3294648481E
:10803000F8F7EAFBA8BB0B2C33D2A9B206EB44003D
:1080400005F0F4FE641C1E9800782028DDD232E092
:108050001EA805F0FEFFB84223D200F0E7FA4FF465
:108060006A7100F0BBFA05001BD001463848C01FFA
:10807000F8F7CAFBA8B9FF2D01D90A2000E00B20B0
:10808000A0420ED9FF2D02D9280A3055641C35555F
:10809000641C1E9800782028DAD29DF80400E52898
:1080A00003D106201FB0F0BD641E24B1301910F8B2
:1080B000010C2028F8D000980890002001460A9072
:1080C00008A8FEF75FF90028ECD1012108A8FDF708
:1080D00093FF0125B0B10428E4D10020002CE1D0A9
:1080E000012108A8FDF702FE0028DBD12021179806
:1080F000F8F73FFC00980078042825D0179908204D
:10810000C87204E00098007804280CD0A4B1179835
:108110000199016002994160BDF80C1001819DF840
:108120000E1081720BE01798162201A9447017985F
:10813000801CF8F79FFB02E01799E5200870009873
:10814000057105F0FBFEADE7179983200870EAE79B
:10815000E4240108F0B597B0044601A906F05AFEE0
:10816000050021D194F8300041061DD5000611D537
:108170000198626C0123407804F15401FEF7B5F9CF
:1081800010B1012017B0F0BD94F8300000F07F006E
:1081900084F8300001984B4E0178042905D0A16C79
:1081A00004F050FF050065D089E0204600F082FA17
:1081B00005005ED1421E2046216C00F092FA0500B7
:1081C0007DD14FF48C6000F0DEF907000BD00198F0
:1081D00007F50071C7608163214602A804F08CF89E
:1081E000050002D042E01120CCE70198816B0A79AA
:1081F00042F020020A71E179826B41F0010182F8BC
:108200002110806BA168343005F014FED4E90423FA
:108210000198806B383005F015FED4E904230198ED
:10822000806B283005F00EFE01983146806B0C30D3
:1082300005F000FE01980025816B4D75816BCD75B1
:10824000806B2946103005F0F5FD0198806B0576AE
:1082500002A805F030FE050008D1019805F06EFE79
:10826000054614F8300F00F0BF002070384600F0CB
:108270008CF924E0E56C2946E87A40F02000E872A9
:10828000A268206805F003FE05F11C00216905F0D5
:10829000D1FD314605F1160005F0CCFD002105F1B8
:1082A000120005F0C3FD01980121017105F046FEA1
:1082B000054694F8300000F0BF0084F830002846EE
:1082C00060E700000000215A71B5B7B0022201A991
:1082D00037A804F0E3FC040068D1019822904FF421
:1082E0008C6000F050F905000BD0019805F5007185
:1082F000C560816322A8379900F054FA040003D0C6
:1083000051E0112038B070BD9DF8D30010F0A00FDF
:1083100001D0062447E09DF88E00C00730D10198B7
:108320000290017804290ED0319903F0D2FF06465D
:108330009DF88E00C00625D5019810960E90007805
:10834000042806D00DE0002102A800F0C5FC049E20
:10835000EEE7DDE90601CDE912019DF80F008DF889
:108360003F0000210EA8FEF70DF804001BD10021EC
:108370000EA8FDF741FE040002D0042C02D012E04A
:10838000072410E022A8FDF7CDFF04000BD136B181
:108390000022314602A805F023FA040003D1019817
:1083A00005F0CCFD0446284600F0EFF82046A9E78A
:1083B0002DE9FF5F88464FF0000B994615460446AD
:1083C00003A9C3F800B006F025FD002808D194F8F1
:1083D0003100002804D194F83000800703D407202E
:1083E00004B0BDE8F09F039801264FF0020A01781F
:1083F00004F154000290042904D0A06B4119814279
:1084000000D2C543B5E0208FC0056AD1D4E90E2360
:108410000398570A47EAC3574089401E07401AD1BC
:1084200052EA030005D0206D38B12046FCF7B4FDB8
:1084300007E0A06838B9002100E0216C2046FDF774
:1084400031F900287DD0012830D0411C5DD0206456
:10845000A16801B9A06094F8300000060DD503981A
:10846000626C012340780299FEF73FF8C0BB94F894
:10847000300000F07F0084F83000216C0398FCF796
:10848000A4FD98B138440090680A01902AD003995D
:108490003A184889824201D9C01B01904878DDE929
:1084A00000234146FEF721F8D0B903E084F831A05B
:1084B000022095E7616C0098081A019988420CD255
:1084C00008EB40214FF400720298F8F7D3F994F8C2
:1084D000300000F07F0084F83000019847022EE061
:1084E00013E018E0616C0098814212D0D4E90412C4
:1084F000D4E90E30591A90410BD203980123009A07
:1085000040780299FDF7C6FF18B184F83160012068
:1085100066E700986064208FC0F30800C0F500771C
:10852000AF4200D92F4620443A4641465430F8F72E
:10853000A1F994F8300040F0800084F83000ED1B81
:1085400000E019E0D9F80000B844C119C9F80010DA
:10855000D4E90E01C01941EB0B01C4E90E01D4E9C5
:1085600004321F1A72EB010701D318461146C4E901
:108570000401002D7FF447AF14F8300F40F04000A5
:10858000207000202CE7F7F7ACBEF7F7D9BE00004B
:10859000F0B502460020802A01D21046F0BDB1F5A8
:1085A0006A7FFBD10C4E002345F220551024E91AB6
:1085B00003EB510136F82170974206D001D20B46E9
:1085C00000E00D46641EF2D1F0BD002CFCD006EB9D
:1085D00081004088F0BD0000A0790208F0B50023BA
:1085E000802801D283B21DE0B0F5803F1AD2B1F5E8
:1085F0006A7F17D10C4D002186B245F2205410221B
:10860000601A01EB500035F82070B74206D001D255
:10861000014600E00446521EF2D103E012B105EB20
:10862000800043881846F0BD1C25010830B5B0F520
:10863000803F20D280B2B0F5805F01D21B4900E0BC
:108640001B4931F8022B002A15D0904213D331F880
:10865000024B230AE5B252FA84F4844221D9092B51
:1086600009D2DFE803F005090E10121416181A00DB
:10867000801A31F8100030BD811A01F00101401A52
:108680000DE010380BE0203809E0303807E01A38E8
:1086900005E0083003E0503801E0A0F5E35080B277
:1086A00030BD002BCDD101EB4501CAE724CE030834
:1086B00016D0030870B50446C07903280FD1A66907
:1086C000A56808E06A1C2946206804F09BFF002882
:1086D00006D16D1C761E002EF4D10020E071002022
:1086E00070BD70B5044616460D46C0690FE00128FE
:1086F00002D92A1A921C00E03246291A491C206825
:1087000004F080FF002804D1E069401EE0610028E9
:10871000EDD170BD2DE9F047064680698D1E801EA3
:108720009146A84200D800252C46A84600274FF4C1
:10873000007A706B00EB1431304604F083FC18B102
:108740004FF0FF30BDE8F08704F0070201209040B1
:10875000B269C4F3C801C0B25346921E06EB010CC5
:10876000641C9CF83CC00CEA000C4006000E9442CD
:1087700002D3002420461946BCF1000F05D0A046C4
:108780000027AC4207D10020DCE77F1C4F45F8D121
:1087900008F10200D6E70028E0D10120491C9942E7
:1087A000DCD3C6E773B504460568019801E0401CB8
:1087B000019001782F29FAD05C29F8D00020A06020
:1087C000E06101980078202807D2802084F84B00CF
:1087D00000212046FDF7D6FD7CBD01A92046FDF70E
:1087E00019F80028F8D194F84B602046FDF7FFFAFD
:1087F00028B10428F0D17107EED405207CBD7107A3
:10880000FCD4A079C006F8D52878042809D0208E99
:10881000C0F30800411928463C3103F05AFDA0601E
:10882000DBE72146084600F057FAD6E703490A6815
:108830005206FCD5C2B24A607047000000100140E9
:108840002DE9FC4106460868306048687060088978
:108850003081887AB072052B12D91F4C0CE00021B0
:10886000921C1D46034665F35F034008DD0300D5F7
:108870006340491C1029F4D310880028EFD19BB223
:1088800007246D4603F00F001B093030392800D94A
:10889000C01D2855641E01D0002BF3D17E20285521
:1088A0000027A4F1010806E0FDF7F2F910B14745F1
:1088B00006D07F1C7F1CA74202D2F05D2028F3D196
:1088C000082C02D2285D641C00E02020F0557F1C9B
:1088D000082FF5D3BDE8FC81211001002DE9F041FE
:1088E00006680C46022973D3B169A14270D9327867
:1088F0004FF0FF35012A09D0022A2CD0E90D01EAF8
:108900008407032A36D0042A7ED141E0B06A04EB02
:10891000540700EB5721304604F094FB002874D133
:10892000C7F3080030447F1C90F83C80B06A00EB2D
:108930005721304604F086FB48BBC7F3080030449B
:1089400090F83C1048EA0120E10701D005095CE0FD
:10895000C0F30B0559E0B06A00EB1421304604F077
:1089600071FBA0B9E0B206EB40003C3003F076FCAE
:1089700005464AE0B06A00EBD411304604F062FBD1
:1089800028B9B8193C3003F06EFC20F070453CE08B
:10899000D0E9041251EA020301D083680BB9C3790C
:1089A000B3B98368E31A491E42F1FF32490A41EA2A
:1089B000C2517289B1FBF2FCC1796FF00042022909
:1089C00007D003290DD002291ED0C06920B90DE0BF
:1089D0001AE0634518D801D1154616E004F10105E7
:1089E00013E081699942F0D9651C0EE0B06A00EB92
:1089F000D411304604F026FB38B9B8193C3003F0E6
:108A000032FC20F0004500E001252846BDE8F08159
:108A10002DE9F05F4FF0000A0568064681F81AA0BC
:108A2000806B0C46002878D028784FF03F0B042844
:108A300005D0F06C401C7AD00027B8466BE04FF0B0
:108A400000084027464624E0B7F5187F28D2F906EB
:108A500000D1BF1C384403F001FCBF1C08F1010821
:108A6000B9F1000F0BD1A0F55841B1F5006F06D256
:108A70008146A86B90F823204245E5D80CE0A11967
:108A8000C6F1FF0240EA09401A3104F036FE10B187
:108A900006440020ECE70026B9F1000F00D116B91A
:108AA00084F81AB00126A11981F81AA084F80DA043
:108AB000A86B007900F037002073C00602D50020B3
:108AC000014603E0A86B383003F0D8FBC4E900018D
:108AD000A86B0C3003F0C2FB6081A86B0E307BE00A
:108AE00008F10108B9F1000F0BD1A0F55841B1F51B
:108AF000006F06D2E968814631F818000028EFD1EE
:108B00000EE0E119C7F1FF0240EA09401A3104F012
:108B1000F4FD20B107440020ECE760E007E0002707
:108B2000B9F1000F00D00027E11981F81AA0002048
:108B300001462E23F26B125C401C202A0CD0052A21
:108B400000D1E522092804D10C2902D26518491C5C
:108B50006B736518491C6A730B28EBD36018554674
:108B600080F80DA0A07E08BB19B1082300210A4699
:108B700013E084F81AB0012113E02E2817D0A0F1D9
:108B80004107192F05D8F76B3F7B1F4201D02030DA
:108B900080B26718491CB876521CA018407B002888
:108BA000EBD160188576F06B007B10B102E01023EA
:108BB000EFE76573F06BC07A00F03F002073F06B55
:108BC0001C3003F050FBC4E90005F06B163003F0D5
:108BD00045FB6081F06B183003F040FB2081BDE85D
:108BE000F09F000010B5016803460A004FF0FF3403
:108BF0000FD000BF11F8010B20280ED33A28F9D16D
:108C000010783038092804D8921C8A4201D10228F1
:108C100001DB204610BD196010BD002010BD000012
:108C200010B50448F9F75AFA042801D0012010BD04
:108C3000002010BD84040020154810B5016886B0DE
:108C400041F002010160016801F002010591016833
:108C500041F00201016000680E4C00F00200059036
:108C60004FF4807000900120019002900320039047
:108C700069462046F8F784FC6015009011200190A9
:108C800069462046F8F77CFC00F006F806B010BDF7
:108C9000303802400004024070B50E4D4FF40074AD
:108CA000002221462846F8F768FD0220FDF704F867
:108CB000012211022846F8F760FD0220FCF7FCFFB4
:108CC000012221462846F8F758FDBDE870400220F1
:108CD000FCF7F2BF0004024070B50568044649B1D4
:108CE000886820620869CA7920F0FF00104360623A
:108CF000C86CA062A86B343003F0B5FAA060A86B12
:108D0000383003F0BBFAC4E90401A86B90F82100E5
:108D100000F00200E0710020E06170BD70B50A490A
:108D20000646002408884D8821464543204603F026
:108D3000B3F803F083FA4FF0D84002E0A0F8806067
:108D4000641CAC42FAD370BDE80200202DE9F04F5C
:108D500038492C260A46887192884FF4305A4FF4CD
:108D6000285B41F6631E2B274FF02A0C4FF0F008CA
:108D700045F210594FF448754FF4A0744FF4F07356
:108D800058B10C80A1F802804A4530D1A1F808A062
:108D9000A1F80AB03802888141E0A1F800804C8037
:108DA0004A4507D1A1F808A0A1F80AB04FF42C5009
:108DB000888105E072450E8105D14F81A1F80CC074
:108DC0000B804D8002E0A1F80AC08F81A2F5A64079
:108DD000103803D0A2F5EE40963801D10C804B80BC
:108DE000A2F5184006381FD10B804D801CE072455B
:108DF00011D0A2F5184006380DD00E81A1F80AC096
:108E0000A1F80C70A2F5A64010380BD0A2F5EE40E8
:108E1000963807D008E00E81A1F80AC08F810D8036
:108E20004B80EFE70B804C80BDE8F04F002002F054
:108E300071BF0000E80200202DE9FF4F80460025A9
:108E40001446032082B00F46A0EB440651E0381BC5
:108E500081B208EB050A01901FFA8AF0059A00F02A
:108E60009BF8781B009081B208EB04091FFA89F087
:108E7000059A00F091F807EB050B1FFA8BF11FFA2A
:108E800089F0059A00F088F807EB04091FFA89F1C8
:108E90001FFA8AF0059A00F07FF8A8EB050A1FFA7E
:108EA00089F11FFA8AF0059A00F076F8A8EB040918
:108EB0001FFA8BF11FFA89F0059A00F06DF80198FE
:108EC000059A81B21FFA8AF000F066F80098059AB8
:108ED00081B21FFA89F000F05FF86D1C002E03DAF2
:108EE00006EB8506B61D04E0281B06EB8006641E13
:108EF0000A36A542ABDD06B0BDE8F08F2DE9FE4F86
:108F0000161ACDE900104FF000085D1A47464FF0E1
:108F1000FF30002E02DD4FF0010102E003D14FF0DF
:108F200000018B4602E08346C6F10006002D02DDFB
:108F30004FF0010002E003D14FF00000824602E052
:108F40008246C5F10005AE4201DD344600E02C4604
:108F5000601C4FF00009029019E000980C9A81B251
:108F6000019880B200F018F8B0442F44A04504DD09
:108F70000198A8EB040858440190A74203DD00982B
:108F80003F1B5044009009F101001FFA80F902993B
:108F90008945E2DDBDE8FE8F10B5144602F07CFF86
:108FA00003F04CF94FF0D840A0F8804010BD2DE9F7
:108FB000F8411D46079C1646884607460B46009416
:108FC000FFF79CFF3A462B46414610460094FFF7B8
:108FD00095FF2B463246194638460094FFF78EFF20
:108FE00032462B46414610460094FFF787FFBDE806
:108FF000F88110B5CF2003F015F9002003F006F931
:10900000C12003F003F9302003F000F9ED2003F054
:1090100009F9642003F0FAF8032003F0F7F81220AE
:1090200003F0F4F8812003F0F1F8E82003F0FAF8F7
:10903000852003F0EBF8102003F0E8F87A2003F025
:10904000E5F8CB2003F0EEF8392003F0DFF82C2010
:1090500003F0DCF8002003F0D9F8342003F0D6F850
:10906000022003F0D3F8F72003F0DCF8202003F00F
:10907000CDF8EA2003F0D6F8002003F0C7F800206E
:1090800003F0C4F8C02003F0CDF81B2003F0BEF8B5
:10909000C12003F0C7F8012003F0B8F8C52003F0A1
:1090A000C1F8302003F0B2F8302003F0AFF8C72049
:1090B00003F0B8F8B72003F0A9F8362003F0B2F8AF
:1090C000482003F0A3F83A2003F0ACF8552003F051
:1090D0009DF8B12003F0A6F8002003F097F81A20BD
:1090E00003F094F8B62003F09DF80A2003F08EF800
:1090F000A22003F08BF8F22003F094F8002003F094
:1091000085F8262003F08EF8012003F07FF8E02098
:1091100003F088F80F2003F079F82A2003F076F89E
:10912000282003F073F8082003F070F80E2003F0F5
:109130006DF8082003F06AF8542003F067F8A920BE
:1091400003F064F8432003F061F80A2003F05EF8AE
:109150000F2003F05BF8002003F058F8002003F024
:1091600055F8002003F052F8002003F04FF8E120FA
:1091700003F058F8002003F049F8152003F046F8F2
:10918000172003F043F8072003F040F8112003F004
:109190003DF8062003F03AF82B2003F037F856206C
:1091A00003F034F83C2003F031F8052003F02EF8EA
:1091B000102003F02BF80F2003F028F83F2003F0D5
:1091C00025F83F2003F022F80F2003F01FF82B2092
:1091D00003F028F8002003F019F8002003F016F837
:1091E000012003F013F83F2003F010F82A2003F0C9
:1091F00019F8002003F00AF8002003F007F8002017
:1092000003F004F8EF2003F001F8112003F00AF84E
:109210007820FCF74BFDBDE81040292003F002B890
:1092200010B5FF2002F0FEFFFF2002F0EFFF9820B4
:1092300002F0ECFF062002F0E9FFBC2002F0F2FF92
:10924000012002F0E3FF0F2002F0E0FF612002F0B6
:10925000DDFFFF2002F0DAFF012002F0D7FF01203E
:1092600002F0D4FF0B2002F0D1FF102002F0CEFF5D
:10927000372002F0CBFF632002F0C8FFFF2002F08E
:10928000C5FFFF2002F0C2FF012002F0BFFF012056
:1092900002F0BCFF002002F0B9FF002002F0B6FF90
:1092A000FF2002F0B3FF522002F0B0FF012002F0D5
:1092B000ADFF002002F0AAFF402002F0A7FFBD2072
:1092C00002F0B0FF012002F0A1FF232002F09EFF78
:1092D000452002F09BFF672002F098FF012002F07A
:1092E00095FF232002F092FF452002F08FFF6720B8
:1092F00002F08CFFBE2002F095FF002002F086FFF6
:10930000012002F083FFAB2002F080FF602002F01A
:109310007DFF222002F07AFF222002F077FF222038
:1093200002F074FF222002F071FF222002F06EFF93
:10933000C72002F077FF362002F068FFED2002F030
:1093400071FF7F2002F062FF0F2002F05FFFC0205C
:1093500002F068FF0F2002F059FF0B2002F056FFC9
:109360000A2002F053FFFC2002F05CFF082002F00C
:109370004DFFDF2002F056FF002002F047FF0020E3
:1093800002F044FF002002F041FF002002F03EFF07
:10939000002002F03BFF202002F038FFF32002F013
:1093A00041FF742002F032FFB42002F03BFF0020A6
:1093B00002F02CFF002002F029FF002002F026FF1F
:1093C000F72002F02FFF822002F020FFB12002F0F0
:1093D00029FF002002F01AFF132002F017FF1320CC
:1093E00002F014FFF22002F01DFF802002F00EFFB9
:1093F000042002F00BFF402002F008FF282002F0BA
:1094000005FFC12002F00EFF172002F0FFFE8820AA
:1094100002F0FCFE882002F0F9FE202002F0F6FEA9
:10942000E02002F0FFFE002002F0F0FE0A2002F031
:10943000EDFE122002F0EAFE102002F0E7FE0E2000
:1094400002F0E4FE202002F0E1FECC2002F0DEFE7D
:10945000072002F0DBFE062002F0D8FE0B2002F00F
:10946000D5FE0E2002F0D2FE0F2002F0CFFE0D201E
:1094700002F0CCFE152002F0C9FE102002F0C6FE5C
:10948000002002F0C3FEE12002F0CCFE002002F03A
:10949000BDFE0B2002F0BAFE132002F0B7FE0D2035
:1094A00002F0B4FE0E2002F0B1FE1B2002F0AEFE70
:1094B000712002F0ABFE062002F0A8FE062002F0AA
:1094C000A5FE0A2002F0A2FE0F2002F09FFE0E2051
:1094D00002F09CFE0F2002F099FE152002F096FE8D
:1094E0000C2002F093FE002002F090FE2A2002F0F1
:1094F00099FE002002F08AFE002002F087FE012083
:1095000002F084FEDF2002F081FE2B2002F08AFEB2
:10951000002002F07BFE002002F078FE032002F023
:1095200075FE1F2002F072FE3A2002F07BFE5520ED
:1095300002F06CFE362002F075FE002002F066FE9E
:10954000112002F06FFE7820FCF7B0FB292002F01A
:1095500069FE1420FCF7AAFBBDE810402C2002F0A5
:1095600061BE10B5ED2002F05DFE012002F04EFE5E
:10957000FE2002F04BFEEE2002F054FEDE2002F050
:1095800045FE212002F042FEF12002F04BFE0120B8
:1095900002F03CFEDF2002F045FE102002F036FE15
:1095A000C42002F03FFE8F2002F030FEC62002F001
:1095B00039FE002002F02AFEE22002F027FEE2201F
:1095C00002F024FEE22002F021FEBF2002F02AFE7B
:1095D000AA2002F01BFEB02002F024FE0D2002F0B3
:1095E00015FE002002F012FE0D2002F00FFE0020FA
:1095F00002F00CFE112002F009FE002002F006FE2F
:10960000192002F003FE002002F000FE212002F0EB
:10961000FDFD002002F0FAFD2D2002F0F7FD0020F4
:1096200002F0F4FD3D2002F0F1FD002002F0EEFD1D
:109630005D2002F0EBFD002002F0E8FD5D2002F06D
:10964000E5FD002002F0E2FDB12002F0EBFD8020FC
:1096500002F0DCFD002002F0D9FD8B2002F0D6FDE7
:10966000002002F0D3FD962002F0D0FD002002F091
:10967000CDFDB22002F0D6FD002002F0C7FD002093
:1096800002F0C4FD022002F0C1FD002002F0BEFD88
:10969000032002F0BBFD002002F0B8FDB32002F071
:1096A000C1FD002002F0B2FD002002F0AFFD00205D
:1096B00002F0ACFD002002F0A9FD002002F0A6FDA2
:1096C000002002F0A3FD002002F0A0FD002002F027
:1096D0009DFD002002F09AFD002002F097FD002081
:1096E00002F094FD002002F091FD002002F08EFDBA
:1096F000002002F08BFD002002F088FD002002F027
:1097000085FD002002F082FD002002F07FFD002098
:1097100002F07CFD002002F079FD002002F076FDD1
:10972000002002F073FD002002F070FD002002F026
:109730006DFDB42002F076FD8B2002F067FD002065
:1097400002F064FD962002F061FD002002F05EFD53
:10975000A12002F05BFD002002F058FDB52002F0D0
:1097600061FD022002F052FD002002F04FFD0320B7
:1097700002F04CFD002002F049FD042002F046FDFD
:10978000002002F043FDB62002F04CFD002002F064
:109790003DFD002002F03AFDB72002F043FD00201D
:1097A00002F034FD002002F031FD3F2002F02EFDDA
:1097B000002002F02BFD5E2002F028FD002002F0C8
:1097C00025FD642002F022FD002002F01FFD8C2008
:1097D00002F01CFD002002F019FDAC2002F016FD85
:1097E000002002F013FDDC2002F010FD002002F04A
:1097F0000DFD702002F00AFD002002F007FD902010
:1098000002F004FD002002F001FDEB2002F0FEFC5E
:10981000002002F0FBFCDC2002F0F8FC002002F04B
:10982000F5FCB82002F0FEFC002002F0EFFC002066
:1098300002F0ECFC002002F0E9FC002002F0E6FC63
:10984000002002F0E3FC002002F0E0FC002002F027
:10985000DDFC002002F0DAFCBA2002F0E3FC242058
:1098600002F0D4FC002002F0D1FC002002F0CEFC7B
:10987000002002F0CBFCC12002F0D4FC202002F03A
:10988000C5FC002002F0C2FC542002F0BFFC002006
:1098900002F0BCFCFF2002F0B9FC002002F0B6FC94
:1098A000C22002F0BFFC0A2002F0B0FC002002F04F
:1098B000ADFC042002F0AAFC002002F0A7FCC320AB
:1098C00002F0B0FC3C2002F0A1FC002002F09EFC63
:1098D0003A2002F09BFC002002F098FC392002F0B4
:1098E00095FC002002F092FC372002F08FFC002053
:1098F00002F08CFC3C2002F089FC002002F086FC87
:10990000362002F083FC002002F080FC322002F0BE
:109910007DFC002002F07AFC2F2002F077FC002072
:1099200002F074FC2C2002F071FC002002F06EFCAE
:10993000292002F06BFC002002F068FC262002F0D7
:1099400065FC002002F062FC242002F05FFC002095
:1099500002F05CFC242002F059FC002002F056FCCE
:10996000232002F053FC002002F050FC3C2002F0C7
:109970004DFC002002F04AFC362002F047FC00209B
:1099800002F044FC322002F041FC002002F03EFCD8
:109990002F2002F03BFC002002F038FC2C2002F0CB
:1099A00035FC002002F032FC292002F02FFC0020C0
:1099B00002F02CFC262002F029FC002002F026FCFC
:1099C000242002F023FC002002F020FC242002F0DE
:1099D0001DFC002002F01AFC232002F017FC0020DE
:1099E00002F014FCC42002F01DFC622002F00EFC08
:1099F000002002F00BFC052002F008FC002002F021
:109A000005FC842002F002FC002002F0FFFBF020A5
:109A100002F0FCFB002002F0F9FB182002F0F6FB3C
:109A2000002002F0F3FBA42002F0F0FB002002F083
:109A3000EDFB182002F0EAFB002002F0E7FB5020CB
:109A400002F0E4FB002002F0E1FB0C2002F0DEFB60
:109A5000002002F0DBFB172002F0D8FB002002F010
:109A6000D5FB952002F0D2FB002002F0CFFBF320C3
:109A700002F0CCFB002002F0C9FBE62002F0C6FB9E
:109A8000002002F0C3FBC52002F0CCFB322002F024
:109A9000BDFB002002F0BAFB442002F0B7FB00201F
:109AA00002F0B4FB652002F0B1FB002002F0AEFB37
:109AB000762002F0ABFB002002F0A8FB882002F029
:109AC000A5FB002002F0A2FBC62002F0ABFB202089
:109AD00002F09CFB002002F099FB172002F096FB9D
:109AE000002002F093FB012002F090FB002002F026
:109AF0008DFBC72002F096FB002002F087FB0020C0
:109B000002F084FB002002F081FB002002F07EFBCB
:109B1000C82002F087FB002002F078FB002002F052
:109B200075FB002002F072FB002002F06FFBC920E1
:109B300002F078FB002002F069FB002002F066FBD7
:109B4000002002F063FB002002F060FB002002F026
:109B50005DFB002002F05AFB002002F057FB0020C2
:109B600002F054FB002002F051FB002002F04EFBFB
:109B7000002002F04BFB002002F048FB002002F026
:109B800045FB002002F042FB002002F03FFB0020DA
:109B900002F03CFBE02002F045FB162002F036FB11
:109BA000002002F033FB1C2002F030FB002002F00A
:109BB0002DFB212002F02AFB002002F027FB36209B
:109BC00002F024FB002002F021FB462002F01EFBE5
:109BD000002002F01BFB522002F018FB002002F0D4
:109BE00015FB642002F012FB002002F00FFB7A202C
:109BF00002F00CFB002002F009FB8B2002F006FBB8
:109C0000002002F003FB992002F000FB002002F08C
:109C1000FDFAA82002F0FAFA002002F0F7FAB920C3
:109C200002F0F4FA002002F0F1FAC42002F0EEFA99
:109C3000002002F0EBFACA2002F0E8FA002002F05D
:109C4000E5FAD22002F0E2FA002002F0DFFAD92091
:109C500002F0DCFA002002F0D9FAE02002F0D6FA95
:109C6000002002F0D3FAF32002F0D0FA002002F034
:109C7000CDFAE12002F0D6FA162002F0C7FA002051
:109C800002F0C4FA1C2002F0C1FA002002F0BEFA71
:109C9000222002F0BBFA002002F0B8FA362002F0CF
:109CA000B5FA002002F0B2FA452002F0AFFA002027
:109CB00002F0ACFA522002F0A9FA002002F0A6FA53
:109CC000642002F0A3FA002002F0A0FA7A2002F049
:109CD0009DFA002002F09AFA8B2002F097FA0020F9
:109CE00002F094FA992002F091FA002002F08EFA24
:109CF000A82002F08BFA002002F088FAB92002F0C6
:109D000085FA002002F082FAC42002F07FFA0020D7
:109D100002F07CFACA2002F079FA002002F076FA0A
:109D2000D22002F073FA002002F070FAD82002F07C
:109D30006DFA002002F06AFAE02002F067FA0020D3
:109D400002F064FAF32002F061FA002002F05EFAF9
:109D5000E22002F067FA052002F058FA002002F033
:109D600055FA0B2002F052FA002002F04FFA1B20A5
:109D700002F04CFA002002F049FA342002F046FAD0
:109D8000002002F043FA442002F040FA002002F0E2
:109D90003DFA4F2002F03AFA002002F037FA612033
:109DA00002F034FA002002F031FA792002F02EFAA3
:109DB000002002F02BFA882002F028FA002002F09E
:109DC00025FA972002F022FA002002F01FFAA620BE
:109DD00002F01CFA002002F019FAB72002F016FA7D
:109DE000002002F013FAC22002F010FA002002F064
:109DF0000DFAC72002F00AFA002002F007FAD1207B
:109E000002F004FA002002F001FAD62002F0FEF976
:109E1000002002F0FBF9DD2002F0F8F9002002F04A
:109E2000F5F9F32002F0F2F9002002F0EFF9E32057
:109E300002F0F8F9052002F0E9F9002002F0E6F955
:109E40000A2002F0E3F9002002F0E0F91C2002F001
:109E5000DDF9002002F0DAF9332002F0D7F9002012
:109E600002F0D4F9442002F0D1F9002002F0CEF93A
:109E7000502002F0CBF9002002F0C8F9622002F075
:109E8000C5F9002002F0C2F9782002F0BFF90020E5
:109E900002F0BCF9882002F0B9F9002002F0B6F90E
:109EA000972002F0B3F9002002F0B0F9A62002F0EA
:109EB000ADF9002002F0AAF9B72002F0A7F90020BE
:109EC00002F0A4F9C22002F0A1F9002002F09EF9EC
:109ED000C72002F09BF9002002F098F9D12002F08F
:109EE00095F9002002F092F9D52002F08FF90020B8
:109EF00002F08CF9DD2002F089F9002002F086F9E9
:109F0000F32002F083F9002002F080F9E42002F04F
:109F100089F9012002F07AF9002002F077F9012096
:109F200002F074F9002002F071F9022002F06EF9DB
:109F3000002002F06BF92A2002F068F9002002F0FC
:109F400065F93C2002F062F9002002F05FF94B2035
:109F500002F05CF9002002F059F95D2002F056F998
:109F6000002002F053F9742002F050F9002002F0B2
:109F70004DF9842002F04AF9002002F047F99320BD
:109F800002F044F9002002F041F9A22002F03EF96B
:109F9000002002F03BF9B32002F038F9002002F073
:109FA00035F9BE2002F032F9002002F02FF9C4206A
:109FB00002F02CF9002002F029F9CD2002F026F958
:109FC000002002F023F9D32002F020F9002002F053
:109FD0001DF9DD2002F01AF9002002F017F9F32034
:109FE00002F014F9002002F011F9E52002F01AF94C
:109FF000002002F00BF9002002F008F9002002F026
:10A0000005F9002002F002F9022002F0FFF800201A
:10A0100002F0FCF8292002F0F9F8002002F0F6F82E
:10A020003C2002F0F3F8002002F0F0F84B2002F0A0
:10A03000EDF8002002F0EAF85D2002F0E7F80020D9
:10A0400002F0E4F8742002F0E1F8002002F0DEF8FB
:10A05000842002F0DBF8002002F0D8F8932002F010
:10A06000D5F8002002F0D2F8A22002F0CFF80020AC
:10A0700002F0CCF8B32002F0C9F8002002F0C6F8D4
:10A08000BE2002F0C3F8002002F0C0F8C42002F0A5
:10A09000BDF8002002F0BAF8CD2002F0B7F8002099
:10A0A00002F0B4F8D32002F0B1F8002002F0AEF8CC
:10A0B000DC2002F0ABF8002002F0A8F8F32002F058
:10A0C000A5F8002002F0A2F8E62002F0ABF811207B
:10A0D00002F09CF8002002F099F8342002F096F883
:10A0E000002002F093F8562002F090F8002002F0D1
:10A0F0008DF8762002F08AF8002002F087F87720A9
:10A1000002F084F8002002F081F8662002F07EF868
:10A11000002002F07BF8882002F078F8002002F09E
:10A1200075F8992002F072F8002002F06FF8BB2059
:10A1300002F06CF8002002F069F8992002F066F84D
:10A14000002002F063F8662002F060F8002002F0C0
:10A150005DF8552002F05AF8002002F057F855201B
:10A1600002F054F8002002F051F8452002F04EF8B9
:10A17000002002F04BF8432002F048F8002002F0E3
:10A1800045F8442002F042F8002002F03FF8E720B2
:10A1900002F048F8322002F039F8002002F036F8D8
:10A1A000552002F033F8002002F030F8762002F05B
:10A1B0002DF8002002F02AF8662002F027F800208F
:10A1C00002F024F8672002F021F8002002F01EF8C7
:10A1D000672002F01BF8002002F018F8872002F038
:10A1E00015F8002002F012F8992002F00FF8002074
:10A1F00002F00CF8BB2002F009F8002002F006F88B
:10A20000992002F003F8002002F000F8772001F016
:10A21000FDFF002001F0FAFF442001F0F7FF0020CD
:10A2200001F0F4FF562001F0F1FF002001F0EEFFF5
:10A23000232001F0EBFF002001F0E8FF332001F0C4
:10A24000E5FF002001F0E2FF452001F0DFFF0020E4
:10A2500001F0DCFFE82001F0E5FF002001F0D6FF6F
:10A26000002001F0D3FF992001F0D0FF002001F081
:10A27000CDFF872001F0CAFF002001F0C7FF882032
:10A2800001F0C4FF002001F0C1FF772001F0BEFF04
:10A29000002001F0BBFF662001F0B8FF002001F0B4
:10A2A000B5FF882001F0B2FF002001F0AFFFAA2027
:10A2B00001F0ACFF002001F0A9FFBB2001F0A6FFD8
:10A2C000002001F0A3FF992001F0A0FF002001F081
:10A2D0009DFF662001F09AFF002001F097FF5520B6
:10A2E00001F094FF002001F091FF552001F08EFF56
:10A2F000002001F08BFF442001F088FF002001F0D6
:10A3000085FF442001F082FF002001F07FFF5520EF
:10A3100001F07CFF002001F079FFE92001F082FFCD
:10A32000AA2001F073FF002001F070FF002001F06F
:10A330006DFF002001F06AFF002001F073FFAA20EA
:10A3400001F064FFCF2001F06DFF002001F05EFFFF
:10A35000002001F05BFF002001F058FF002001F019
:10A3600055FF002001F052FF002001F04FFF0020B8
:10A3700001F04CFF002001F049FF002001F046FFF2
:10A38000002001F043FF002001F040FF002001F019
:10A390003DFF002001F03AFF002001F037FF0020D0
:10A3A00001F034FF002001F031FF002001F02EFF0A
:10A3B000F02001F037FF002001F028FF502001F0CD
:10A3C00025FF002001F022FF002001F01FFF0020E8
:10A3D00001F01CFFF32001F025FF002001F016FF23
:10A3E000F92001F01FFF062001F010FF102001F0FE
:10A3F0000DFF292001F00AFF002001F007FF3A209D
:10A4000001F010FF552001F001FF112001F00AFFBB
:10A410006420FBF74BFC292001F004FF352001F0FC
:10A4200001FF002001F0F2FE512001F0FBFEFF20B1
:10A4300001F0ECFE532001F0F5FE2C2001F0E6FEC9
:10A44000552001F0EFFE822001F0E0FEBDE8104053
:10A450002C2001F0E7BE2DE9F05F4FF47044552148
:10A46000204601F0F5FE651CAA21284601F0F0FE09
:10A47000A61C5221304601F0EBFEE71C08213846AD
:10A4800001F0E6FE4FF204080121404601F0E0FE33
:10A490004FF436433421184601F0DAFE34214BF2F2
:10A4A000016001F0D5FE34214BF2026001F0D0FED4
:10A4B0004FF430490D21484601F0CAFE4BF2010A23
:10A4C0000D21504601F0C4FE4BF2020B0D215846FF
:10A4D00001F0BEFE24214FF4374001F0B9FE2421E3
:10A4E0004BF2017001F0B4FE24214BF2027001F036
:10A4F000AFFE0D214FF4314001F0AAFE0D214BF2C9
:10A50000011001F0A5FE0D214BF2021001F0A0FE9A
:10A5100024214FF4384001F09BFE24214BF601002A
:10A5200001F096FE24214BF6020001F091FE00217D
:10A530004FF4324001F08CFE24214FF4394001F0F9
:10A5400087FE24214BF6011001F082FE24214BF6F8
:10A55000021001F07DFE05214FF4334001F078FE3A
:10A5600005214BF2013001F073FE05214BF2023060
:10A5700001F06EFE34214FF43A4001F069FE3421BF
:10A580004BF6012001F064FE34214BF6022001F06D
:10A590005FFE0B214FF4354001F05AFE0B214BF2C8
:10A5A000015001F055FE0B214BF2025001F050FE1C
:10A5B00000214FF43C4001F04BFEA3214BF601403B
:10A5C00001F046FE00214BF6024001F041FE002161
:10A5D0004FF43D4001F03CFEA3214BF6015001F049
:10A5E00037FE00214BF6025001F032FE00214FF4FD
:10A5F0003E4001F02DFE37214BF6016001F028FEB0
:10A6000000214FF4514001F023FE37214DF201109B
:10A6100001F01EFE00214DF2021001F019FE53213F
:10A620004DF2031001F014FE00214DF2041001F070
:10A630000FFE79214DF2051001F00AFE00214DF2C6
:10A64000061001F005FE97214DF2071001F000FE03
:10A6500000214DF2081001F0FBFDB1214DF209106F
:10A6600001F0F6FD00214DF20A1001F0F1FDD521B7
:10A670004DF20B1001F0ECFD00214DF20C1001F039
:10A68000E7FDF4214DF20D1001F0E2FD01214DF244
:10A690000E1001F0DDFD23214DF20F1001F0D8FD69
:10A6A00001214DF2101001F0D3FD49214DF211109E
:10A6B00001F0CEFD01214DF2121001F0C9FD8721FC
:10A6C0004DF2131001F0C4FD01214DF2141001F000
:10A6D000BFFDB6214DF2151001F0BAFD02214DF279
:10A6E000161001F0B5FD00214DF2171001F0B0FD7C
:10A6F00002214DF2181001F0ABFD3B214DF2191073
:10A7000001F0A6FD02214DF21A1001F0A1FD3D213C
:10A710004DF21B1001F09CFD02214DF21C1001F0C6
:10A7200097FD75214DF21D1001F092FD02214DF2B1
:10A730001E1001F08DFDB1214DF21F1001F088FDBA
:10A7400002214DF2201001F083FDD5214DF22110A0
:10A7500001F07EFD03214DF2221001F079FD092167
:10A760004DF2231001F074FD03214DF2241001F08D
:10A770006FFD28214DF2251001F06AFD03214DF2F5
:10A78000261001F065FD52214DF2271001F060FD09
:10A7900003214DF2281001F05BFD6B214DF22910D1
:10A7A00001F056FD03214DF22A1001F051FD8D21DB
:10A7B0004DF22B1001F04CFD03214DF22C1001F055
:10A7C00047FDA2214DF22D1001F042FD03214DF273
:10A7D0002E1001F03DFDBB214DF22F1001F038FD90
:10A7E00003214DF2301001F033FDC1214DF2311043
:10A7F00001F02EFD03214DF2321001F029FDC1219F
:10A800004DF2331001F024FD00214FF4524001F0CD
:10A810001FFD37214DF2012001F01AFD00214DF2FC
:10A82000022001F015FD53214DF2032001F010FD2F
:10A8300000214DF2042001F00BFD79214DF205209D
:10A8400001F006FD00214DF2062001F001FD9721E7
:10A850004DF2072001F0FCFC00214DF2082001F030
:10A86000F7FCB1214DF2092001F0F2FC00214DF27C
:10A870000A2001F0EDFCD5214DF20B2001F0E8FC9F
:10A8800000214DF20C2001F0E3FCF4214DF20D20EB
:10A8900001F0DEFC01214DF20E2001F0D9FC232154
:10A8A0004DF20F2001F0D4FC01214DF2102001F0F7
:10A8B000CFFC49214DF2112001F0CAFC01214DF2DB
:10A8C000122001F0C5FC87214DF2132001F0C0FCDD
:10A8D00001214DF2142001F0BBFCB6214DF21520F0
:10A8E00001F0B6FC02214DF2162001F0B1FC00216E
:10A8F0004DF2172001F0ACFC02214DF2182001F0BE
:10A90000A7FC3B214DF2192001F0A2FC02214DF2DF
:10A910001A2001F09DFC3D214DF21B2001F098FC16
:10A9200002214DF21C2001F093FC75214DF21D20F7
:10A9300001F08EFC02214DF21E2001F089FCB121B4
:10A940004DF21F2001F084FC02214DF2202001F085
:10A950007FFCD5214DF2212001F07AFC03214DF23C
:10A96000222001F075FC09214DF2232001F070FC3A
:10A9700003214DF2242001F06BFC28214DF225200B
:10A9800001F066FC03214DF2262001F061FC52210A
:10A990004DF2272001F05CFC03214DF2282001F04C
:10A9A00057FC6B214DF2292001F052FC03214DF29E
:10A9B0002A2001F04DFC8D214DF22B2001F048FCA6
:10A9C00003214DF22C2001F043FCA2214DF22D2059
:10A9D00001F03EFC03214DF22E2001F039FCBB2199
:10A9E0004DF22F2001F034FC03214DF2302001F014
:10A9F0002FFCC1214DF2312001F02AFC03214DF240
:10AA0000322001F025FCC1214DF2332001F020FC61
:10AA100000214FF4534001F01BFC37214DF201306F
:10AA200001F016FC00214DF2023001F011FC53211F
:10AA30004DF2033001F00CFC00214DF2043001F026
:10AA400007FC79214DF2053001F002FC00214DF2A6
:10AA5000063001F0FDFB97214DF2073001F0F8FBC5
:10AA600000214DF2083001F0F3FBB1214DF2093025
:10AA700001F0EEFB00214DF20A3001F0E9FBD52197
:10AA80004DF20B3001F0E4FB00214DF20C3001F0EF
:10AA9000DFFBF4214DF20D3001F0DAFB01214DF224
:10AAA0000E3001F0D5FB23214DF20F3001F0D0FB29
:10AAB00001214DF2103001F0CBFB49214DF2113054
:10AAC00001F0C6FB01214DF2123001F0C1FB8721DC
:10AAD0004DF2133001F0BCFB01214DF2143001F0B6
:10AAE000B7FBB6214DF2153001F0B2FB02214DF259
:10AAF000163001F0ADFB00214DF2173001F0A8FB3C
:10AB000002214DF2183001F0A3FB3B214DF2193028
:10AB100001F09EFB02214DF21A3001F099FB3D211C
:10AB20004DF21B3001F094FB02214DF21C3001F07C
:10AB30008FFB75214DF21D3001F08AFB02214DF291
:10AB40001E3001F085FBB1214DF21F3001F080FB7A
:10AB500002214DF2203001F07BFBD5214DF2213056
:10AB600001F076FB03214DF2223001F071FB092147
:10AB70004DF2233001F06CFB03214DF2243001F043
:10AB800067FB28214DF2253001F062FB03214DF2D5
:10AB9000263001F05DFB52214DF2273001F058FBC9
:10ABA00003214DF2283001F053FB6B214DF2293087
:10ABB00001F04EFB03214DF22A3001F049FB8D21BB
:10ABC0004DF22B3001F044FB03214DF22C3001F00B
:10ABD0003FFBA2214DF22D3001F03AFB03214DF253
:10ABE0002E3001F035FBBB214DF22F3001F030FB50
:10ABF00003214DF2303001F02BFBC1214DF23130F9
:10AC000001F026FB03214DF2323001F021FBC1217E
:10AC10004DF2333001F01CFB00214FF4544001F0A1
:10AC200017FB37214DF2014001F012FB00214DF2DC
:10AC3000024001F00DFB53214DF2034001F008FBEF
:10AC400000214DF2044001F003FB79214DF2054053
:10AC500001F0FEFA00214DF2064001F0F9FA9721C9
:10AC60004DF2074001F0F4FA00214DF2084001F0E6
:10AC7000EFFAB1214DF2094001F0EAFA00214DF25C
:10AC80000A4001F0E5FAD5214DF20B4001F0E0FA5F
:10AC900000214DF20C4001F0DBFAF4214DF20D40A1
:10ACA00001F0D6FA01214DF20E4001F0D1FA232134
:10ACB0004DF20F4001F0CCFA01214DF2104001F0AD
:10ACC000C7FA49214DF2114001F0C2FA01214DF2BB
:10ACD000124001F0BDFA87214DF2134001F0B8FA9D
:10ACE00001214DF2144001F0B3FAB6214DF21540A6
:10ACF00001F0AEFA02214DF2164001F0A9FA00214E
:10AD00004DF2174001F0A4FA02214DF2184001F073
:10AD10009FFA3B214DF2194001F09AFA02214DF2BF
:10AD20001A4001F095FA3D214DF21B4001F090FAD6
:10AD300002214DF21C4001F08BFA75214DF21D40AD
:10AD400001F086FA02214DF21E4001F081FAB12194
:10AD50004DF21F4001F07CFA02214DF2204001F03B
:10AD600077FAD5214DF2214001F072FA03214DF21C
:10AD7000224001F06DFA09214DF2234001F068FAFA
:10AD800003214DF2244001F063FA28214DF22540C1
:10AD900001F05EFA03214DF2264001F059FA5221EA
:10ADA0004DF2274001F054FA03214DF2284001F002
:10ADB0004FFA6B214DF2294001F04AFA03214DF27E
:10ADC0002A4001F045FA8D214DF22B4001F040FA66
:10ADD00003214DF22C4001F03BFAA2214DF22D400F
:10ADE00001F036FA03214DF22E4001F031FABB2179
:10ADF0004DF22F4001F02CFA03214DF2304001F0CA
:10AE000027FAC1214DF2314001F022FA03214DF21F
:10AE1000324001F01DFAC1214DF2334001F018FA21
:10AE200000214FF4554001F013FA37214DF2015043
:10AE300001F00EFA00214DF2025001F009FA5321FF
:10AE40004DF2035001F004FA00214DF2045001F0DC
:10AE5000FFF979214DF2055001F0FAF900214DF288
:10AE6000065001F0F5F997214DF2075001F0F0F985
:10AE700000214DF2085001F0EBF9B1214DF20950DB
:10AE800001F0E6F900214DF20A5001F0E1F9D52177
:10AE90004DF20B5001F0DCF900214DF20C5001F0A5
:10AEA000D7F9F4214DF20D5001F0D2F901214DF204
:10AEB0000E5001F0CDF923214DF20F5001F0C8F9E9
:10AEC00001214DF2105001F0C3F949214DF211500A
:10AED00001F0BEF901214DF2125001F0B9F98721BC
:10AEE0004DF2135001F0B4F901214DF2145001F06C
:10AEF000AFF9B6214DF2155001F0AAF902214DF239
:10AF0000165001F0A5F900214DF2175001F0A0F9FB
:10AF100002214DF2185001F09BF93B214DF21950DE
:10AF200001F096F902214DF21A5001F091F93D21FC
:10AF30004DF21B5001F08CF902214DF21C5001F032
:10AF400087F975214DF21D5001F082F902214DF271
:10AF50001E5001F07DF9B1214DF21F5001F078F93A
:10AF600002214DF2205001F073F9D5214DF221500C
:10AF700001F06EF903214DF2225001F069F9092127
:10AF80004DF2235001F064F903214DF2245001F0F9
:10AF90005FF928214DF2255001F05AF903214DF2B5
:10AFA000265001F055F952214DF2275001F050F989
:10AFB00003214DF2285001F04BF96B214DF229503D
:10AFC00001F046F903214DF22A5001F041F98D219B
:10AFD0004DF22B5001F03CF903214DF22C5001F0C1
:10AFE00037F9A2214DF22D5001F032F903214DF233
:10AFF0002E5001F02DF9BB214DF22F5001F028F910
:10B0000003214DF2305001F023F9C1214DF23150AE
:10B0100001F01EF903214DF2325001F019F9C1215E
:10B020004DF2335001F014F900214FF4564001F075
:10B030000FF937214DF2016001F00AF900214DF2BC
:10B04000026001F005F953214DF2036001F000F9AF
:10B0500000214DF2046001F0FBF879214DF205600A
:10B0600001F0F6F800214DF2066001F0F1F89721A9
:10B070004DF2076001F0ECF800214DF2086001F09C
:10B08000E7F8B1214DF2096001F0E2F800214DF23C
:10B090000A6001F0DDF8D5214DF20B6001F0D8F81F
:10B0A00000214DF20C6001F0D3F8F4214DF20D6057
:10B0B00001F0CEF801214DF20E6001F0C9F8232114
:10B0C0004DF20F6001F0C4F801214DF2106001F063
:10B0D000BFF849214DF2116001F0BAF801214DF29B
:10B0E000126001F0B5F887214DF2136001F0B0F85D
:10B0F00001214DF2146001F0ABF8B6214DF215605C
:10B1000001F0A6F802214DF2166001F0A1F800212D
:10B110004DF2176001F09CF802214DF2186001F029
:10B1200097F83B214DF2196001F092F802214DF29F
:10B130001A6001F08DF83D214DF21B6001F088F896
:10B1400002214DF21C6001F083F875214DF21D6063
:10B1500001F07EF802214DF21E6001F079F8B12174
:10B160004DF21F6001F074F802214DF2206001F0F1
:10B170006FF8D5214DF2216001F06AF803214DF2FC
:10B18000226001F065F809214DF2236001F060F8BA
:10B1900003214DF2246001F05BF828214DF2256077
:10B1A00001F056F803214DF2266001F051F85221CA
:10B1B0004DF2276001F04CF803214DF2286001F0B8
:10B1C00047F86B214DF2296001F042F803214DF25E
:10B1D0002A6001F03DF88D214DF22B6001F038F826
:10B1E00003214DF22C6001F033F8A2214DF22D60C5
:10B1F00001F02EF803214DF22E6001F029F8BB2159
:10B200004DF22F6001F024F803214DF2306001F07F
:10B210001FF8C1214DF2316001F01AF803214DF2FF
:10B22000326001F015F8C1214DF2336001F010F8E1
:10B230005521204601F00CF8AA21284601F008F813
:10B240005221304601F004F80821384601F000F898
:10B250000021404600F0FCFF0021484600F0F8FFC6
:10B260000521504600F0F4FF0221584600F0F0FF9F
:10B2700005214BF2030000F0EBFF02214BF204002A
:10B2800000F0E6FF0821184600F0E2FF50214FF4DD
:10B29000354000F0DDFF0521184600F0D9FF002100
:10B2A0004FF4374000F0D4FF00214BF2017000F062
:10B2B000CFFF01214FF4384000F0CAFF05214BF6C3
:10B2C000010000F0C5FF05214BF6020000F0C0FFB1
:10B2D00005214BF6030000F0BBFF02214FF43C4078
:10B2E00000F0B6FF00214BF6014000F0B1FF002155
:10B2F0004BF6024000F0ACFF03214FF44C4000F04D
:10B30000A7FF00214CF6014000F0A2FF00214CF6FF
:10B31000024000F09DFF01214FF43D4000F098FFF6
:10B3200084214BF6015000F093FF07214BF60250A9
:10B3300000F08EFF31214BF6035000F089FF002111
:10B340004BF6045000F084FF01214FF43A4000F026
:10B350007FFFAA214FF47F4000F07AFF55214FF67E
:10B36000017000F075FF25214FF6027000F070FFAC
:10B3700001214FF6037000F06BFF40214FF458504D
:10B3800000F066FF00214FF4545000F061FF0521EA
:10B390004FF4685000F05CFF4FF4885000F042FF1B
:10B3A0007820FAF783FC4FF4245000F03BFF0A208A
:10B3B000FAF77CFCBDE8F05F4FF4305000F032BF8C
:10B3C00010B5E22000F02EFF1D2000F01FFF02202C
:10B3D00000F01CFF042000F019FF6420FAF76CFC59
:10B3E000E02000F01FFF012000F010FF0A20FAF714
:10B3F0005DFCE02000F016FF032000F007FF0C20AA
:10B40000FAF754FC012000F00DFF0A20FAF74EFC79
:10B41000E62000F007FF2F2000F0F8FEFF2000F0EC
:10B42000F5FEFF2000F0F2FEB02000F0FBFE202031
:10B4300000F0ECFE002000F0E9FE032000F0E6FE44
:10B4400040F21F3000F0E2FE012000F0DFFE40F28B
:10B45000DF1000F0DBFE002000F0D8FEB42000F08A
:10B46000E1FE042000F0D2FE40F21F4000F0CEFECC
:10B47000002000F0CBFE2E2000F0C8FE002000F0DF
:10B48000C5FE002000F0C2FE002000F0BFFE00203C
:10B4900000F0BCFEB62000F0C5FE022000F0B6FEB3
:10B4A0004FF4037000F0B2FE002000F0AFFE172052
:10B4B00000F0ACFE152000F0A9FE002000F0A6FE72
:10B4C000002000F0A3FEF02000F0ACFE032000F00E
:10B4D0009DFE292000F0A6FED02000F0A3FE002053
:10B4E00000F094FEBE2000F09DFE052000F08EFED0
:10B4F000FE2000F08BFE012000F088FE002000F00E
:10B5000085FE002000F082FE002000F07FFEB820C3
:10B5100000F088FE032000F079FE012000F076FEA6
:10B52000BA2000F07FFEBDE81040012000F06EBEA2
:10B5300010B5112000F076FE7820FAF7B7FB362020
:10B5400000F070FE002000F061FE3A2000F06AFE7C
:10B55000052000F05BFEB22000F064FE0C2000F03D
:10B5600055FE0C2000F052FE002000F04FFE33206C
:10B5700000F04CFE332000F049FEB72000F052FEF0
:10B58000352000F043FEBB2000F04CFE322000F0DE
:10B590003DFEC02000F046FE0C2000F037FEC22029
:10B5A00000F040FE012000F031FEC32000F03AFE22
:10B5B000102000F02BFEC42000F034FE202000F00C
:10B5C00025FEC62000F02EFE0F2000F01FFED0202A
:10B5D00000F028FEA42000F019FEA12000F016FEC5
:10B5E000E02000F01FFED02000F010FE002000F050
:10B5F0000DFE022000F00AFE072000F007FE0A20E0
:10B6000000F004FE282000F001FE322000F0FEFDD4
:10B61000442000F0FBFD422000F0F8FD062000F081
:10B62000F5FD0E2000F0F2FD122000F0EFFD1420D9
:10B6300000F0ECFD172000F0E9FDE12000F0F2FD44
:10B64000D02000F0E3FD002000F0E0FD022000F03B
:10B65000DDFD072000F0DAFD0A2000F0D7FD2820EC
:10B6600000F0D4FD312000F0D1FD542000F0CEFDDB
:10B67000472000F0CBFD0E2000F0C8FD1C2000F09C
:10B68000C5FD172000F0C2FD1B2000F0BFFD1E20ED
:10B6900000F0BCFD2A2000F0C5FD002000F0B6FD42
:10B6A000002000F0B3FD002000F0B0FDEF2000F01E
:10B6B000ADFD2B2000F0B6FD002000F0A7FD00201E
:10B6C00000F0A4FD012000F0A1FD3F2000F09EFD50
:10B6D000BDE81040292000F0A5BD10B5112000F0F4
:10B6E000A1FD7820FAF7E2FA362000F09BFD482011
:10B6F00000F08CFD3A2000F095FD552000F086FD0D
:10B70000F02000F08FFDC32000F080FDF02000F05D
:10B7100089FD962000F07AFDB42000F083FD012021
:10B7200000F074FDB62000F07DFD0A2000F06EFDF3
:10B73000A22000F06BFDB72000F074FDC62000F0E1
:10B7400065FDB92000F06EFD022000F05FFDE020F5
:10B7500000F05CFDC02000F065FD802000F056FD8B
:10B76000162000F053FDC12000F05CFD192000F010
:10B770004DFDC22000F056FDA72000F047FDC5207A
:10B7800000F050FD162000F041FDE82000F04AFDD9
:10B79000402000F03BFD8A2000F038FD002000F042
:10B7A00035FD002000F032FD292000F02FFD19208A
:10B7B00000F02CFDA52000F029FD332000F026FD2F
:10B7C000E02000F02FFDF02000F020FD072000F029
:10B7D0001DFD0D2000F01AFD042000F017FD0520CE
:10B7E00000F014FD142000F011FD362000F00EFDD5
:10B7F000542000F00BFD4C2000F008FD382000F034
:10B8000005FD132000F002FD142000F0FFFC2E20A7
:10B8100000F0FCFC342000F0F9FCE12000F002FD17
:10B82000F02000F0F3FC102000F0F0FC142000F0F9
:10B83000EDFC0E2000F0EAFC0C2000F0E7FC0820F4
:10B8400000F0E4FC352000F0E1FC442000F0DEFCD8
:10B850004C2000F0DBFC262000F0D8FC102000F08B
:10B86000D5FC122000F0D2FC2C2000F0CFFC3220BE
:10B8700000F0CCFCF02000F0D5FC3C2000F0C6FC31
:10B88000F02000F0CFFC692000F0C0FC7820FAF72F
:10B890000DFA212000F0C6FCBDE81040292000F080
:10B8A000C1BC00002DE9F0438146A2EB09020798D4
:10B8B000521C1F4695B20C4686B24FF0D84811E094
:10B8C0002146484600F0E8FA00F0B8FC0020414666
:10B8D00004E000BFA1F88060401C80B2A842F9D308
:10B8E000641CA4B2BC42EBD9BDE8F0832DE9F04F53
:10B8F000D64895B00024016841F04001016001681C
:10B9000001F040010C91016841F0080101600168FB
:10B9100001F008010C91016841F008010160016823
:10B9200001F008010C91016841F0200101600168FB
:10B9300001F020010C91016841F0020101600068F2
:10B940004FF4805600F002000C900220CDE9076011
:10B950000120099002200A900C200B9007A9BC48F6
:10B96000F5F70EFE2020079007A9BA48F5F708FE64
:10B970001020079007A9B748F5F702FE07A9B648B7
:10B980000796F5F7FDFDF00007900120089007A944
:10B99000B248F5F7F5FDB24D4FF020406A462860F9
:10B9A000B04868600620C5E902041020C5E9050416
:10B9B000EC61C5E909468002C5E90B406C630F20C4
:10B9C000AC63CDE90E043C20109009201494CDE91D
:10B9D000000402900EA906942846F6F785FF32204F
:10B9E000FAF764F9D32000F01DFC00F04BF905F1E3
:10B9F0005004A08000F046F92146888000F042F90A
:10BA00004FF6FF7101EA00202146888000F03AF9E4
:10BA1000214649F24137898847F289760843214611
:10BA200045F21038888047F2967945F2105B49F666
:10BA3000060AB8427DD0042000F0F4FB00F022F9A1
:10BA4000A08000F01FF9A08000F01CF94FF6FF71F4
:10BA500001EA0020A08000F015F9A1880843A0F5B4
:10BA60000541A080523965D0B04262D0D42000F0A8
:10BA7000D9FB00F007F9A08000F004F9A08000F0E5
:10BA800001F94FF6FF7101EA0020A08000F0FAF8FA
:10BA9000A1880843A08040457FD0D32000F0C2FB9E
:10BAA00000F0F0F8A08000F0EDF8A08000F0EAF8D7
:10BAB0004FF6FF7101EA0020A08000F0E3F8A188B2
:10BAC0000843A080484568D055214FF4704000F0ED
:10BAD000BFFBAA214FF2010000F0BAFB52214FF246
:10BAE000020000F0B5FB08214FF2030000F0B0FBAC
:10BAF00001214FF2040000F0ABFB4FF4454000F091
:10BB000091FB00F0BFF84FF6FF7101EA0020A08022
:10BB10004CF2015000F086FB00F0B4F8A188084315
:10BB2000A0800520FAF7C2F8A188594535D0D32066
:10BB300001E02CE02CE000F075FB00F0A3F8A08001
:10BB400000F0A0F8A08000F09DF84FF6FF7101EA28
:10BB50000020A08000F096F8A1880843A0805045FE
:10BB60001BD0A12000F05EFB00F08CF8A08000F05C
:10BB700089F84FF6FF7101EA0020A08000F082F8FA
:10BB8000A1880843A0F5AE41A080613902D004E04D
:10BB9000A68002E041F66310A080A18832A0F4F7ED
:10BBA0006DFCA088B04202D1FFF7C2FC21E0B84290
:10BBB00002D1FDF71EFA1CE0404502D1FDF7D1FC91
:10BBC00017E0484502D1FFF788FD12E0584502D141
:10BBD000FEF741FC0DE0504502D1FDF721FB08E0E6
:10BBE000A0F5C851633904D1FFF7EAFB642000F0E7
:10BBF000E5FAA088B04201D1032010E0504503D0FF
:10BC0000B84201D0584501D1022008E0404505D096
:10BC1000484503D0A0F5C851633908D101200090F0
:10BC20000290D5E9010269462B6BF5F7CBF90020AC
:10BC3000FDF78CF80122D1030848F5F79EFD4FF679
:10BC4000FF70FDF76BF815B0BDE8F08F303802409B
:10BC500000180240000C02400014024000040240A0
:10BC600098020020040100A04C43442049443A2596
:10BC7000780D0A000246012000E05043491EC9B277
:10BC8000FBD2704708B50220401EFDD24FF0D840CD
:10BC9000B0F88000ADF80000BDF8000008BD00005D
:10BCA00070B51B4C2288824202D962888A4201D830
:10BCB000002070BD00F0F0F8A088A0F5AA4110396E
:10BCC00020D02E2000F0AEFAFFF7DCFFA188A1F50E
:10BCD000C852633AEDD0FFF7D5FF0546A088A0F51E
:10BCE000EE41963911D0FFF7CDFFE9B24FF6FF7262
:10BCF00002EA012125EA6212890A42EA411141EA77
:10BD0000D02070BD4FF43850DCE7284670BD0000ED
:10BD1000E802002070B55F4C00232146A279898893
:10BD200041F66316012A01D01AB10CE0B14202D1EA
:10BD300009E0B14207D1082805D2DFE800F0161863
:10BD400012140C19100E082812D2DFE800F01104AA
:10BD500006080A0C0E1080230AE0402308E0C023E6
:10BD600006E0202304E0602302E0A02300E0E023BB
:10BD7000362045F21055A94200D10002A1F5134228
:10BD8000413A07D0A1F5EE42893A03D0A1F5EE423F
:10BD9000963A01D143F00803194600F059FAA188F8
:10BDA000B1420AD098062088628802D5904202D318
:10BDB00003E0904201D9228060806089A94240D18D
:10BDC00000F030FA002000F021FA6089401C80B2B7
:10BDD00000F028FA002000F019FA6089801C80B277
:10BDE00000F020FA2088401EC0F30F2000F00EFA69
:10BDF0006089C01C80B200F015FA2078401EC0B2E5
:10BE000000F004FAA08900F00DFA002000F0FEF91D
:10BE1000A089401C80B200F005FA002000F0F6F97D
:10BE2000A089801C80B200F0FDF96088401EC0F33C
:10BE30000F2000F0EBF9A089C01C80B200F0F2F9ED
:10BE400021E000F0EFF9002000F0E0F9002000F020
:10BE5000DDF92088401EC0F30F2000F0D7F92078CC
:10BE6000401EC0B200F0D2F9A08900F0DBF900203A
:10BE700000F0CCF9002000F0C9F96088401EC0F342
:10BE80000F2000F0C3F9A078BDE87040401EC0B29A
:10BE900000F0BCB9E8020020F0B53B4A0D4604466C
:10BEA000060A918810462F0A4089A1F5C853633BC2
:10BEB00016D0A1F5AA43103B4CD000F0B3F93046A0
:10BEC00000F0A4F9E0B200F0A1F9908900F0AAF91D
:10BED000384600F09BF9E8B2BDE8F04000F096B9B2
:10BEE000917931B300F09EF9304600F08FF9E0B25D
:10BEF00000F08CF91088401EC0F30F2000F086F986
:10BF00001078401E5FFA80F000F080F9908900F010
:10BF100089F9384600F07AF9E8B200F077F95088EC
:10BF2000401EC0F30F2000F071F99078401EC0B29F
:10BF3000D2E71188091B491E8CB200F073F900206A
:10BF400000F064F9002000F061F9200A00F05EF9C9
:10BF5000E0B2D9E700F066F9304600F057F95089B1
:10BF6000401C80B200F05EF9E0B200F04FF9908919
:10BF700000F058F9384600F049F99089401C80B229
:10BF800000F050F9A7E70000E80200202DE9FF4F7C
:10BF90001D460C468B46580700D0012000EBD5000B
:10BFA000690810FB01F0203A00F0FF0AD0B20C2D16
:10BFB0000AD0102D0CD0182D0ED0202D46D124499A
:10BFC00001EB801600203EE000EB4001214806E036
:10BFD000214901EB0016F5E700EBC0011F4800EB1B
:10BFE0008106EFE716F808704FF00009380601D512
:10BFF0000E9A03E00D9828B9194802682146009866
:10C00000FCF7CAFF7806070E1648641CA4B24088E5
:10C01000A0421BD9A4EB0B00A8420AD100985C46B1
:10C02000401C80B200900F480188009881420DD9D1
:10C0300006E009F1010000F0FF09B9F1080FD5D3BE
:10C0400008F10100C0B280465045CBD3BDE8FF8F58
:10C05000DA0C01081AF500088EF900087EFF0008C6
:10C06000D0C00120E80200202DE9FF4F83B0002658
:10C07000DDE910BA1D4681463446B0464FEA5B07FB
:10C0800026E0281B401EC1B20A20FFF7F3FD0599E8
:10C09000B1FBF0F00A21B0FBF1F201FB120026B96E
:10C0A000691E8C4201DA38B101263030C2B207FB7A
:10C0B000049080B25B4604E007FB049080B25B46CC
:10C0C0002022CDE9008A0499FFF760FF641CE4B2E6
:10C0D000AC42D6D307B0BDE8F08F2DE9FC4F044643
:10C0E00000F0FF0910190D46DDE90BB61FFA80F8C4
:10C0F000581987B24FF0000A13E0444503D305EB0B
:10C100000B004C4685B2BD4210D20D985B46CDE97E
:10C1100000A029462046FFF739FF04EB5B0084B2FC
:10C12000761C3278A2F120005E28E6D9BDE8FC8FAB
:10C130002DE9FF4F83B08146DDE911BA10984FF029
:10C1400000081E4644460BF0010547082EE0301B50
:10C15000401EC1B20A20FFF78DFD0599B1FBF0F03A
:10C160000A21B0FBF1F201FB1200B8F1000F05D17A
:10C17000711E8C4202DA50B14FF001083030C2B269
:10C18000CDE9005A07FB049080B2109B09E0CDE98D
:10C19000005A5FEA0B6007FB0490109B80B20AD53F
:10C1A00030220499FFF7F2FE641CE4B2B442CED30D
:10C1B00007B0BDE8F08F2022F3E7000010B502467B
:10C1C000BE2000F02FF8052000F020F8104603F004
:10C1D00010F89FED0C1B53EC112B03F059F802F0F3
:10C1E000DBFF80B200F012F8012000F00FF8FF2012
:10C1F00000F00CF8002000F009F8BDE81040002025
:10C2000000F004B8666666666666044001B5BDF86F
:10C210000000ADF80000BDF800004FF0D841A1F8D3
:10C22000800008BD01B5BDF80000ADF80000BDF804
:10C2300000004FF0D841A1F87E0008BD03484FF040
:10C24000D8410089A1F87E0070470000E802002074
:10C250004FF0D84222F87E0F518070474178007825
:10C2600040EA01207047C178827842EA0121427891
:10C27000007842EA012140EA0120704710B5C179F7
:10C2800083790A0E43EA0121120242EA11624379DC
:10C29000120243EA012142EA11620379120243EADF
:10C2A000012142EA1162C378120243EA0121837834
:10C2B00042EA116243EA0121130243EA11630A02CE
:10C2C000417800780A43190241EA126140EA0220EB
:10C2D00010BD70B506460D4601F11A00FFF7BEFF0E
:10C2E00004463078032805D105F11400FFF7B6FFA6
:10C2F00044EA0044204670BD10B50446086820603A
:10C30000086AA06091F82400E071486A20F0FF02FA
:10C310000020C4E90420E061896A2046E164FAF75C
:10C3200031F8002804D12046BDE8104000F001B8E3
:10C3300010BD2DE9F04104460068A16B856B00F04B
:10C3400081FE002845D1E16B0878852840D1202264
:10C350002846F4F78FFA68784601A6F140002036A7
:10C36000B0F5007F34D800212046F9F7E3FD04281A
:10C370002ED000282DD1A16B206800F063FE00288C
:10C3800027D1E16B0878C02822D1202205F12000B6
:10C39000F4F770FA95F823000F212C30B0FBF1F080
:10C3A000B6EB401F14D340274FF4187800212046E5
:10C3B000F9F7C0FD04280BD000280AD1A16B206832
:10C3C00000F040FE002804D1E16B0878C12802D0BB
:10C3D0000220BDE8F081474503D2E8192022F4F796
:10C3E00049FA2037B742E1D3474508D8284602F03A
:10C3F0002DFD0446A81CFFF731FF8442E8D1002040
:10C40000E7E700000C4800B5026887B0002142F061
:10C4100020020260006800F020000590802000905B
:10C420000320CDE9010169460448F5F7A9F8F8F7BA
:10C43000ABFC07B000BD00003038024000140240E1
:10C44000F5F7AEF9F8F716FAF7F7B6F8F7F754F983
:10C45000F7F778F9F7F76CF8F7F71AF8F7F74AF8FB
:10C46000F7F722F9F7F708F9F4F766FDF4F79EFD00
:10C47000A820F9F715FC4FF4E13001F011FE174840
:10C48000416854208847FFF731FAF8F7A9FCFFF715
:10C49000B9FFF8F7A3FC00F0D1FE4FF4165001F0FD
:10C4A00023FA01F011FC002000F0E6FD022000F06C
:10C4B000E3FD012000F0E0FDF6F76EFEF9F76EF8FF
:10C4C000062214210648F9F72DF806221421054802
:10C4D000F9F728F8F9F7C6F8FEE70000F4C00120E4
:10C4E0005348000861480008034810B50068FAF78F
:10C4F00057F8002010BD000080AE01200148FAF777
:10C500005DB80000A8AF01207FB5074D38CD8DE89C
:10C5100038008DF8001003924FF400730022694632
:10C52000FAF7E6FB04B070BDC024010810B5064C54
:10C530000020216800F024FED4F87811BDE81040F6
:10C54000002000F01DBE000080AE012010B586B0B6
:10C5500004460020059005AA69462046FAF7C4F86B
:10C56000010004D007A0F3F789FF06B010BD6A46AA
:10C5700021460CA0F3F782FF214612A0059AF3F79B
:10C580007DFFF2E70D0AE88EB7E58F96E5A4B1E8E6
:10C59000B4A5EFBC8CE99499E8AFAFE7A0813A2548
:10C5A000580D0A000D0AE7A381E79B98257320E741
:10C5B0009A84E79B98E7ACA6E4B8BA3A25730D0ACB
:10C5C00000000000E7A381E79B98257320E79A8489
:10C5D000E5BA8FE58897E58FB73A25580D0A0D0A19
:10C5E0000000000010B5014607480268D0F8780145
:10C5F000FAF704F901460078002804D0BDE810409D
:10C6000002A0F3F73BBF10BD80AE01200D0A5468B5
:10C610006520537472696E67205265616465642099
:10C6200049733A25730D0A0010B54FF416710020B6
:10C6300000F0D4FD084C4FF400712060002000F0A1
:10C64000CDFDC4F87801216811B108B1002010BDFA
:10C65000FFF76CFF012010BD80AE012003490246A8
:10C66000002309680846FAF7EBB8000080AE012005
:10C67000FAF76ABA034603480A4619464068FBF7C8
:10C68000DFB80000E8C10120034603480A46194606
:10C690000068FBF7FBB8000080AE012001460148AE
:10C6A000FBF742BAA8AF0120034910B50968FBF7B0
:10C6B0008DFAC0B210BD000080AE0120034910B554
:10C6C0000968FBF792FAC0B210BD000080AE0120ED
:10C6D0002DE9F8434FF00008074644462FA0CDF857
:10C6E0000080F3F7CBFE0026DFF8D49023E06B4602
:10C6F0004FF40072D9F87811D9F80000FBF787FAE7
:10C700005FEA000804D001462EA0F3F7B7FE15E05B
:10C7100000980025204484B208E000BFD9F87801D1
:10C72000415D2CA0F3F7AAFE6D1CADB200988542C6
:10C73000F4D3761CB6B2B6EB572FD8D3F80522D077
:10C74000C7F308024E466B46D9F87811D9F80000B5
:10C75000FBF75DFA5FEA000804D001461EA0F3F77C
:10C760008DFE10E000980025204484B208E000BF50
:10C77000D6F87801415D17A0F3F780FE6D1CADB2CD
:10C7800000988542F4D31CB1214618A0F3F776FE39
:10C790001CA0F3F773FE4046BDE8F8830D0A52650E
:10C7A0006164206661747465737465722E66696C69
:10C7B0006520646174612069733A0D0A000000000D
:10C7C00080AE012052656164204572726F723A2515
:10C7D000640D0A00256300000D0A5265616420455E
:10C7E00072726F723A25640D0A0000000D0A5265DC
:10C7F000616465642064617461206C656E3A2564CF
:10C800000D0A0000526561642064617461206F76D6
:10C8100065720D0A0000000010B5274901F59070FF
:10C82000FBF7B8FA002846D124A0F3F727FE224CE4
:10C8300029A0083CD4F85811F834F3F71FFEA18E54
:10C840002BA0F3F71BFE31A0A16BF3F717FED4E981
:10C85000102336A0F3F712FE3DA0A16DF3F70EFEF4
:10C8600043A0616EF3F70AFE48A0A16EF3F706FE3F
:10C870004CA0E16FF3F702FE50A0F3F7FFFDA4F127
:10C88000D6014FA0F3F7FAFD54F8F02C54F8EC3D24
:10C8900052A0F3F7F3FDA18858A0F3F7EFFDE1886C
:10C8A0005DA0F3F7EBFD217A62A0F3F7E7FD43A06B
:10C8B000F3F7E4FD002010BD88AE01200D0A2066CC
:10C8C00061747465737465722E64697220696E6632
:10C8D0006F3A0D0A00000000666174746573746538
:10C8E000722E6469722E647074723A25640D0A00A7
:10C8F0006661747465737465722E6469722E6F62FA
:10C900006A2E69643A25640D0A0000006661747439
:10C9100065737465722E6469722E6F626A2E73631A
:10C920006C7573743A25640D0A00000066617474B6
:10C9300065737465722E6469722E6F626A2E6F62FF
:10C940006A73697A653A256C6C640D0A0000000010
:10C950006661747465737465722E6469722E6F6299
:10C960006A2E635F6F66733A25640D0A000000004B
:10C970006661747465737465722E6469722E636C7B
:10C980007573743A25640D0A0000000066617474C2
:10C9900065737465722E6469722E736563743A25CB
:10C9A000640D0A006661747465737465722E64693F
:10C9B000722E626C6B5F6F66733A25640D0A00001D
:10C9C0006661747465737465722E66696C65204E59
:10C9D000616D652069733A25730D0A006661747490
:10C9E00065737465722E66696C652053697A65207B
:10C9F00069733A256C6C640D0A00000066617474FA
:10CA000065737465722E66696C652064617461205B
:10CA100069733A25640D0A00666174746573746500
:10CA2000722E66696C652074696D652069733A259C
:10CA3000640D0A006661747465737465722E6669AC
:10CA40006C6520417474722069733A25640D0A0084
:10CA5000FBF7DFB92DE9F041074601461148804652
:10CA6000FBF762F800281AD10FA0F3F707FD0F4C6F
:10CA700004F1080604F1220531464046FBF78AF925
:10CA800000280CD194F82210002908D0394608A0BB
:10CA9000F3F7F4FC294607A0F3F7F0FCECE7BDE858
:10CAA000F0810000A8AF01200D0A000080AE012037
:10CAB00025732F0025730D0A0000000010B50446F1
:10CAC000FBF786FA010004D003A0BDE81040F3F79D
:10CAD000D5BC21460BA0F8E70D0AE7A381E79B9898
:10CAE000E79B98E7ACA6E8AEBEE7BDAEE5A4B1E82B
:10CAF000B4A5EFBC8CE99499E8AFAFE7A0813A25E3
:10CB0000580D0A000D0AE7A381E79B98E79B98E779
:10CB1000ACA6E8AEBEE7BDAEE68890E58A9F3A25B2
:10CB2000730D0A001CB500210C46009101AA69464C
:10CB3000F9F74EFD90B9019988694C89801E0099DA
:10CB400060434C43B0F5A04F03D26208410804A0F3
:10CB500002E0C10AE20A0EA0F3F790FC20461CBDD9
:10CB60000D0AE7A381E79B98E680BBE5AEB9E987AC
:10CB70008F3A2564204B420D0AE58FAFE794A8E772
:10CB8000A9BAE997B43A2564204B420D0A00000087
:10CB90000D0AE7A381E79B98E680BBE5AEB9E9877C
:10CBA0008F3A2564204D420D0AE58FAFE794A8E740
:10CBB000A9BAE997B43A2564204D420D0A00000055
:10CBC000014800680069704780AE01200148006894
:10CBD000806B704780AE0120FBF776BB38B5054609
:10CBE000002000900C460EA0F3F748FC214615A04B
:10CBF000F3F744FC18486B46224600682946FBF7C9
:10CC0000D7FB040002D0014614A001E018A000994F
:10CC1000F3F734FC1CA0F3F731FC204638BD0000CC
:10CC20000D0A426567696E205772697465206661F6
:10CC3000747465737465722E66696C652E2E2E0D84
:10CC40000A00000057726974652064617461206C89
:10CC5000656E3A25640D0A0080AE01205772697432
:10CC600065204572726F723A25640D0A000000005B
:10CC70005772697465642064617461206C656E3AF2
:10CC800025640D0A00000000577269746520646114
:10CC90007461206F7665722E0D0A00002DE9FF4742
:10CCA000002617460D460E60FBF79CFF002803DAAE
:10CCB0000B2004B0BDE8F087DC4951F8204094B166
:10CCC0002C60207807F0FE0520B16078F9F70BFCA6
:10CCD000C1070AD02670B0466078F9F79EFBC107FD
:10CCE00008D00320E5E70C20E3E70DB1400704D4AA
:10CCF0000020DEE71DB1400701D50A20D9E7002159
:10CD00002046F8F7CFF802281BD100264FEA0D0580
:10CD100004EB061000F20220FFF7A5FA45F8260002
:10CD2000761C042EF4D3002655F8261029B120468F
:10CD3000F8F7B8F8022801D203E00320761C042E8D
:10CD4000F2D304287ED002287DD2256A4FF40076E3
:10CD50004FF0FF3A01280CD004F14700FFF77EFAAC
:10CD6000B04270D104F15200FFF778FA00286BD07E
:10CD7000AAE00B2002E0401C402806D2211891F8BE
:10CD80003C100029F7D040285DD304F1A400FFF740
:10CD900065FAB0F5807FE4D194F8A800012707FA7E
:10CDA00000F0B042DDD104F18400FFF767FAC1461C
:10CDB00010EB050841EB0906012EC5D204F19000E5
:10CDC000FFF751FAE06194F8AA00E07001283AD127
:10CDD00094F8A90087403804000C608133D004F136
:10CDE0009800FFF740FA9249074688422BD8B81CB2
:10CDF0006562A06104F19400FFF735FA28442063CE
:10CE000004F18C00FFF72FFA2844A0626089216B9F
:10CE100078434D460A1849EB0500B8EB02018641FC
:10CE200011D304F19C00FFF71EFA00263746E0629A
:10CE30006089B84207D92046E16AF8F7C6F8C119F7
:10CE4000204602E026E033E03AE000F0FBF808BBC1
:10CE50007F1CA01990F83C00812804D02036F605EC
:10CE6000F60DF6D1E4E7A0195030FFF7FCF90646BD
:10CE700002281DD3A069B0421AD96289216BB01E65
:10CE800002FB00106063A06A00EBD611204600F0A0
:10CE9000D9F808B101200CE706F07F0004EB800010
:10CEA0003C30FFF7E0F9411C03D0761C8642EAD003
:10CEB0006AE0C4F814A0C4F810A065710426ACE0C0
:10CEC00004F16000FFF7CFF9E06194F84C70E7706F
:10CED000012F01D0022F57D1474394F849006081B8
:10CEE000B0B3411E08424FD104F14D00FFF7B6F92F
:10CEF0002081000748D104F14F00FFF7AFF9060089
:10CF000004D104F15C00FFF7AEF9064604F14A00D3
:10CF1000FFF7A4F9010037D02389C81900EB1312D9
:10CF2000964231D3B01A6689B0FBF6F080B1DFF8D3
:10CF300004C10026604500D803264FF6F57C604505
:10CF400000D8022640F6F57C604502D8012601E0B3
:10CF50001AE0CEB1801C2A4422632944A061C4E9AE
:10CF60000951032E12D07BB13944E162022E1ED04A
:10CF700000F0010100EB400001EB5000E16900F21C
:10CF8000FF10B1EB502F14D20D2092E604F1660091
:10CF9000FFF764F90028F7D120890028F4D104F1C3
:10CFA0006800FFF760F9E062A0698000E6E74000F2
:10CFB000E4E7C4F814A08020C4F810A06071032E28
:10CFC0002BD104F16C00FFF749F9012825D1691C28
:10CFD000204600F037F800BB84F8058004F13C00DF
:10CFE000FFF741F91449884217D104F50870FFF79B
:10CFF0003AF91249884210D104F50E70FFF733F95F
:10D000000F49884209D104F50970FFF72CF96061D6
:10D0100004F50A70FFF727F9206104492670091FFB
:10D020000888401C0880E08062E60000F4C101200E
:10D03000FDFFFF7FF5FFFF0F5252614172724161A8
:10D04000000055AA70B50446006A0D460026A842A5
:10D050000FD0204600F0DAFF06000AD160780123E5
:10D060002A4604F13C01F9F715FA08B1751E0126AC
:10D070002562304670BD000030B504460748084DB3
:10D08000002150F82400420005EB8400406900F0C4
:10D090006FF80120291981F8200030BD9C24010877
:10D0A000700100202DE9F041204E04460025301982
:10D0B0000F4690F8200010B93168204688474FF09D
:10D0C000FF3277B31A4B53F82410B7FBF1F0B7FBDC
:10D0D000F1FC01FB1C7101B1401C15490C3951F8E0
:10D0E0002410491E20D406EB8406776937F811C056
:10D0F000BCF1000F05D00025854213D1002285B276
:10D1000008E06D1CF8E700BF776901EB020C521CC8
:10D1100027F81C508242F7D353F824004843BDE857
:10D12000F08101E0491EE1D51046F8E770010020CA
:10D13000A824010810B50C4B0C4C002253F82030E9
:10D14000114604EB800005E0446934F8114004B155
:10D15000521C491C8B42F7D84FF47A704243B2FB01
:10D16000F3F080B210BD00009C2401087001002083
:10D1700002E000BF00F8011B521EFBD27047000006
:10D18000F0B4002923D0134B03EB80029468091BF1
:10D190001C1894F8204084B10F4B53F820308B4278
:10D1A00015D90D4B0C3B53F82000B1FBF0F1506941
:10D1B00030F811300020044607E01968F0BC084739
:10D1C00055690E18401C25F816409842F8DBF0BC53
:10D1D0007047000070010020B424010810B5044617
:10D1E000FFF760FF411C05D0034901EB840189680A
:10D1F000084410BD002010BD7001002070B504036C
:10D2000000F04AF900F0F2F80B4E4FF4804500228E
:10D2100029463046F4F7B1FA202000F02BFD2046D5
:10D2200000F0CAF8012229463046F4F7A6FABDE814
:10D23000704000F0DBB800000004024070B52248E6
:10D2400086B0016841F00201016000684FF4804639
:10D2500000F0020005900120CDE90060029002205C
:10D260001A4D039069462846F4F78AF9012231469F
:10D270002846F4F782FA00F095FC012000F00AFD40
:10D2800000F050F812490880A0F56F41183919D103
:10D29000032000F06DF80446C00713D100F0FCF83D
:10D2A00044F00201032000F04DF9002231462846E7
:10D2B000F4F763FAB72000F0DDFC0122314628467E
:10D2C000F4F75BFA06B070BD30380240000402404B
:10D2D0002E0000202DE9F041DFF8448015460C4671
:10D2E00006464FF48047002239464046F4F745FA97
:10D2F000032000F0BFFC204600F05EF8002405E0AB
:10D30000FF2000F0B7FC3055641CA4B2AC42F7D348
:10D3100039464046BDE8F0410122F4F72EBA00003C
:10D320000004024070B5114E4FF48045002229469A
:10D330003046F4F722FA902000F09CFC002000F028
:10D3400099FC002000F096FC002000F093FCFF20E8
:10D3500000F090FC0402FF2000F08CFC044301224A
:10D3600029463046F4F709FA204670BD0004024011
:10D3700070B5012803D0022803D0032803D0052468
:10D3800002E0352400E015240A4E4FF480450022C7
:10D3900029463046F4F7F1F9204600F06BFCFF20F7
:10D3A00000F068FC0446012229463046F4F7E5F90E
:10D3B000204670BD0004024010B504460A480088AB
:10D3C000A0F56F41183902D1200E00F053FCC4F3D0
:10D3D000074000F04FFCC4F3072000F04BFCE0B224
:10D3E000BDE8104000F046BC2E00002010B5012022
:10D3F000FFF7BEFFC007FAD110BD00002DE9F05FB6
:10D40000C1F30B06DFF88C800F0BC6F580548946FC
:10D4100082461546A24200D8144639038B464FF483
:10D4200080524046FFF756FF002006E0321818F8F9
:10D430000210FF2903D1401C80B2A042F6D3A042C3
:10D4400022D23846FFF7DAFE002006E01AF8002064
:10D450008319401C08F8032080B2A042F6D3594635
:10D460004FF480524FEA080000F02CF8A5420FD08C
:10D47000281BA244A144002685B24FF480547F1C8F
:10D48000A542CAD82C46C8E7224649465046EBE793
:10D49000BDE8F09F50E5012070B5094D4FF4804480
:10D4A000002221462846F4F768F9062000F0E2FB46
:10D4B00021462846BDE870400122F4F75EB900001D
:10D4C000000402402DE9F05F8046C8B2C0F58074C8
:10D4D0000E461546A24200D81446DFF864A04FF469
:10D4E00080494FF4807B00BFFFF7D6FF00224946FA
:10D4F0005046F4F742F9022000F0BCFB3046FFF73B
:10D500005BFF002706E000BF18F8070000F0B2FB41
:10D510007F1CBFB2A742F7D3012249465046F4F719
:10D520002CF9FFF763FFA54208D0281BA04426442E
:10D5300085B25C46A542D7D82C46D5E7BDE8F09F1A
:10D54000000402402DE9F0410E46012803D00228D4
:10D5500003D0032803D0012402E0312400E0112489
:10D560000A4F4FF48045002229463846F4F705F962
:10D57000204600F07FFB304600F07CFB2946384611
:10D58000BDE8F0410122F4F7F8B8000000040240C1
:10D590002DE9F04781460E4601F11A00FEF75EFEC6
:10D5A00030BB3078012420F04000401E00EB8001A9
:10D5B000DFF84C8001EBC00500274FF6FF7A00BF73
:10D5C00018F807003044FEF749FE34B1FF2D0FD89C
:10D5D00029F8150004466D1C01E0504508D17F1C58
:10D5E0000D2FEDD33078400608D53CB1FF2D02D980
:10D5F0000020BDE8F087002129F815100120F8E788
:10D60000D02401082DE9F047022617460D460446AE
:10D6100002296FD3A069A8426CD920784FF0010984
:10D62000012806D0022838D0032846D0042861D12A
:10D6300043E0A16A05EB550801EB58212046FFF7AE
:10D6400001FD060056D1C8F3080020443C3008F123
:10D650000108E90704D00178FAB262F31F1100E073
:10D660003946017084F80490A16A204601EB5821E4
:10D67000FFF7E8FC06003DD1C8F3080020443C3029
:10D68000E90702D0C7F3071105E00178C7F30322C9
:10D6900001F0F001114301702AE0A06A00EB1521AE
:10D6A0002046FFF7CFFC060024D1E8B204EB40008F
:10D6B000B9B23C3000F0BAFB1AE0A06A00EBD51119
:10D6C0002046FFF7BFFC060014D140F2FF1000EA2D
:10D6D0008500217805193C35042905D02846FEF738
:10D6E000C2FD67F31B0007462846394600F0A2FB3F
:10D6F00084F804903046BDE8F08770B50C461546B6
:10D700004FF46A71FAF76AFFFF2806D9022D09D390
:10D71000010A21706070022070BD18B115B120702F
:10D72000012070BD002070BDF8B545680446002D8D
:10D7300016DB6019A6686D1C01733C2D0DDB6B4672
:10D740002A4604F10C012068FAF732FE0098A8423C
:10D7500001D1002501E04FF0FF35761CC4E90156E8
:10D76000F8BD38B542680446002A0CDB6B4604F16C
:10D770000C012068FAF71CFE28B9606800998842FD
:10D7800001D1A06838BD4FF0FF3038BD70B50D46EF
:10D7900004464C21F3F70FF9256070BD00EE100A26
:10D7A0009FED0A1A0C49B8EE400A0968C0EE010A5A
:10D7B0009FED070A9FED071A60EE800A80EE810A4E
:10D7C000BCEEC00A10EE100A886370470000C84221
:10D7D000000080433333534040030020006870470B
:10D7E0002DE9F04788460568174606468A46C14631
:10D7F00002295ED3A86940455BD96FB12878042817
:10D8000002D1F079022807D04FF0FF32394628467E
:10D81000FFF7F8FE00284DD141463046FBF75EF891
:10D82000040031D0012C44D0601C50D0287804284A
:10D8300006D0002241462846FFF7E4FE002839D1F1
:10D84000D5E90501891E884205D2401C68616879C6
:10D8500040F00100687109F10100A04201D1A14628
:10D860000EE02878042809D1A9EB0A0251460023CA
:10D870002846521CF7F7D8FA00281BD1A146CA4601
:10D88000A869A0464045C7D82878042829D12FB1D7
:10D89000F079022528B103281BD022E00020F07186
:10D8A0001FE0B4680EE021463046FBF717F8022867
:10D8B00002D20220BDE8F087411C08D0611C8842DA
:10D8C00002D1641CBC42EED1BC4209D009E0012067
:10D8D000F0E7B068B84204D8B1690844B84200D350
:10D8E000F5710020E6E700002DE9F041804634485C
:10D8F00086B00025016841F040010160016801F037
:10D9000040010591016841F001010160016801F0E9
:10D9100001010591016841F001010160006800F01A
:10D920000100059026481030016841F40031016083
:10D930000068022400F400300590042001278DE8DF
:10D9400091000720CDE903401E4E69463046F3F7AB
:10D9500017FE0820009069463046F3F711FECDE926
:10D960000274E601CDE90067174F69463846F3F7C0
:10D9700007FE174C15482060C4E90185E5600C20BE
:10D980002561C4E905052046F5F7B2FA2068C168AB
:10D9900021F04001C1602068C16841F02001C160F0
:10D9A0002620F3F74FFF032211462620F3F758FFF6
:10D9B000002231463846F3F7E0FE06B0BDE8F081BC
:10D9C000303802400000024000180240004400408D
:10D9D000FC0300202DE9F04101220C4F0C460546C6
:10D9E000160231463846F3F7C8FE4FF47A732246E2
:10D9F00029460748F5F77EFB0649002002460870D5
:10DA000031463846BDE8F041F3F7B7BE0018024092
:10DA1000FC030020D4C0012070B5444886B04249C0
:10DA20000160002141608160C16001240161C0E9A1
:10DA30000514F4F769FB05463D48016841F40061AF
:10DA40000160006800F400600590394814380168EE
:10DA500041F004010160016801F0040105910168D1
:10DA600041F004010160016801F0040105910168C1
:10DA700041F004010160016801F0040105910168B1
:10DA800041F004010160016801F0040105910168A1
:10DA900041F004010160016801F004010591016891
:10DAA00041F0080101600068224E00F00800059076
:10DAB000200200900220CDE9010403900C20049084
:10DAC00069463046F3F75CFD6002009069463046D7
:10DAD000F3F756FDA002009069463046F3F750FD7B
:10DAE000E402694630460094F3F74AFD6000009076
:10DAF00069463046F3F744FD0420009069460E481D
:10DB0000F3F73EFD15B1012006B070BD0749074887
:10DB10008431F4F7D1FA21460448F4F775F9002866
:10DB2000F2D00220F0E70000002C01408404002025
:10DB30004438024000080240000C024038B50A4C4C
:10DB400072B613460A46014608480094F4F77AFB79
:10DB5000054602E0641E00D20125FBF761F80028AB
:10DB6000F8D162B6284638BD00E1F50584040020EE
:10DB700038B50A4C72B613460A4601460848009466
:10DB8000F4F750FC054602E0641E00D20125FBF7C5
:10DB900047F80028F8D162B6284638BD00E1F505FF
:10DBA0008404002070B52F4986B000200A6842F432
:10DBB00080520A6009682D4C01F4805105912A4970
:10DBC00021604FF48271C4E9011002250126290267
:10DBD000C4E90561C4E903053821C4E9071060629E
:10DBE000A0620720E0622046F4F7F4FC2068016898
:10DBF00041F040010160FF2000F03CF81948143862
:10DC0000016841F002010160016801F00201059123
:10DC1000016841F002010160016801F00201059113
:10DC2000016841F0020101600068114C00F002003F
:10DC3000059008208DE861000520CDE90350694674
:10DC40002046F3F79DFC1020009069462046F3F72C
:10DC500097FC2020009069462046F3F791FC06B01F
:10DC600070BD00004438024000300140A403002091
:10DC70000004024001B582B04FF47A700090012395
:10DC800001AA02A90248F4F737FD9DF804000EBD71
:10DC9000A40300200B4910B50A68136823F0400361
:10DCA00013600A6813684FF6C774234013600A684C
:10DCB000136843EAC00010600868016841F0400141
:10DCC000016010BDA40300202DE9F04350488DB041
:10DCD0000024016841F040010160016801F0400149
:10DCE0000C91016841F008010160016801F0080130
:10DCF0000C91016841F008010160016801F0080120
:10DD00000C91434908310A6842F001020A6009682F
:10DD100001F001010C91016841F008010160016806
:10DD200001F008010C91016841F0100101600168E7
:10DD300001F010010C91016841F0200101600168BF
:10DD400001F020010C91016841F040010160006880
:10DD5000022500F040000C904FF4806001278DE810
:10DD6000A1000C20CDE90350DFF8A8906946484691
:10DD7000F3F706FC2020DFF8A080009069464046BB
:10DD8000F3F7FEFB1026694640460096F3F7F8FBD2
:10DD90004FF603708DE8A100694640460395F3F7FE
:10DDA000EFFB4FF68370009069461C48F3F7E8FBE1
:10DDB0004FF23F00009069461948F3F7E1FB3F201E
:10DDC000009069464846F3F7DBFB16484FF02041C8
:10DDD00005AA0160144941600421C0E90214C0E9A8
:10DDE000044684618902C461C0E90941C4620463D4
:10DDF000446384630820CDE90640059508941146E4
:10DE000008480B94F4F770FD0DB0BDE8F0830000F6
:10DE10003038024000180240000C0240001002405E
:10DE20000014024028050020040100A00170090A26
:10DE3000417070470170090A4170090A8170090A2E
:10DE4000C170704710B5110A027041EA0361417058
:10DE50001A0A090A41EA02618170120A090A41EAB2
:10DE60000261C170120A090A41EA02610171120AD3
:10DE7000090A41EA02614171120A090A41EA026192
:10DE8000120A8171090A41EA0261C17110BD70B5BF
:10DE90000C460646154691B204F11A00FFF7C6FF7C
:10DEA0003078032806D1290C04F11400BDE8704035
:10DEB000FFF7BCBF70BD2DE9F04105460068866BD9
:10DEC000304600F0C3FF0146B01CFFF7AFFF777884
:10DED00028467F1CE96CF8F755FA04464FF0010814
:10DEE00015E0A96B2868FFF7ADF8040011D12022D6
:10DEF0003146E86BF2F7BEFC29687F1E81F804808A
:10DF00000CD0002128462036F8F714F80446002CDF
:10DF1000E7D0012C02D00220BDE8F0812046FBE7CB
:10DF2000014600200B22430803EBC01011F8013B0F
:10DF3000521E1844C0B2F6D17047000070B50446B6
:10DF400000F064F8060058D1607901284ED1002015
:10DF50006071207804F13C05032802D0042821D008
:10DF600044E04FF400712846F2F725FD2449284685
:10DF7000FFF760FF234904F50870FFF75BFF04F526
:10DF800009706169FFF756FF04F50A702169FFF710
:10DF900051FF1D4904F50E70FFF74CFF626A521CD9
:10DFA00022621EE0626A2262607801232946F8F745
:10DFB00071FAD8B9D4E90510821E914209D8401AE5
:10DFC0006421801EA0FB01010023F2F7E0F9C0B23A
:10DFD00000E0FF2094F8AC10814207D084F8AC0038
:10DFE000226A607801232946F8F77FFA00226078D8
:10DFF0001146F8F721FA00B10126304670BD000045
:10E000005252614172724161000055AA70B50446D6
:10E010000079002548B104F13C01607801230E46E7
:10E02000226AF8F762FA10B10125284670BD002077
:10E030002071216AA06A0A1AE0698242F5D2E27868
:10E04000022AF2D10A18607801233146F8F74DFA16
:10E05000EBE72DE9F0410568064615F8014B20462F
:10E06000F7F716FE4FF0FF3760B115F8010B4028A7
:10E0700014D37E2803D9A0F180017E290ED800EBAD
:10E08000042084B234B14FF46A712046FAF780FA62
:10E09000040003D020463560BDE8F0813846FBE738
:10E0A00030B5284987B0264AC1E9002000208860A1
:10E0B000C860086188610C2048610846F4F718FFC1
:10E0C000012221491F48F4F7D3FF2048016841F09D
:10E0D00010010160006800F0100005901B48143822
:10E0E000016841F001010160016801F00101059141
:10E0F000016841F0010101600068012100F00100A8
:10E1000005904FF4007000900220CDE90101072432
:10E11000CDE903040E4D69462846F3F731FA281578
:10E120000090694604942846F3F72AFA2520F3F76D
:10E1300089FB002211462520F3F792FB07B030BD82
:10E140000010014080C4012000C00120443802407A
:10E150000000024070B596B0054614AB01AA03A9B1
:10E1600000F0DEF9002824D18DF84C001D4C042667
:10E1700015E000BF216806EBC00014AB08586A46E2
:10E180000BA900F0CDF9002813D103A90BA800F0CA
:10E19000ECFB80B19DF84C00401C8DF84C00217DBB
:10E1A000C0B28142E6D8207D9DF84C1088420ED145
:10E1B000042016B070BD9DF800009DF80410884240
:10E1C00001D90220F5E79DF84C00A075EBE713A9F3
:10E1D000284600F05DFA0028EBD19DF84C006075F0
:10E1E0000020E6E7F4C001202DE9F0417F4C9AB011
:10E1F000A57D207DA8427DD90421206801EBC501C1
:10E2000019AB405810AA11A900F08AF911A978A0F9
:10E21000F2F734F900270DF1180833E0208B0121C3
:10E22000B940084217D0222173A0F2F727F93846E7
:10E2300000F0A8FA011971A02431F2F71FF9222188
:10E240006DA0F2F71BF9384600F09CFA2044243008
:10E2500048F827000CE0384600F094FA2044416A60
:10E2600048F82710E07D08B365A000BFF2F706F973
:10E270009DF84000401E874202D063A0F2F7FEF8EE
:10E280007F1CFFB29DF840008742C7D35FA0F2F722
:10E29000F5F800F0ABFD607D0B2814D2DFE800F04C
:10E2A000080D31384048525E6B78880058A0DDE791
:10E2B000206850F83500804704E0206850F8351099
:10E2C00006988847064600F051FD9DF86400012835
:10E2D0007DD050A0F2F7D2F894F8EC0000280DD0D1
:10E2E000D4F8F0100A20B1FBF0F200FB1212B1FBDF
:10E2F000F0F100E002E048A0F2F7C0F81AB0BDE883
:10E30000F081206850F83520DDE906019047D9E713
:10E31000206806AE50F8353096E807009847D1E7F8
:10E32000206806AE50F8355096E80F00A847C9E7B8
:10E330000A980090206806AE50F8355096E80F0015
:10E34000A847BFE7DDE90A01CDE90001206806AE74
:10E3500050F8355096E80F00A847B3E70AAB06AE71
:10E3600093E807008DE80700206850F8355096E8DC
:10E370000F00A847A6E70AAE96E80F008DE80F0049
:10E38000206806AE50F8355096E80F00A84799E788
:10E390000BAE96E80F0001AE86E80F000A980090D9
:10E3A000206806AE50F8355096E80F00A84789E778
:10E3B0000CAE96E80F0002AE86E80F00DDE90A0118
:10E3C000CDE90001206806AE50F8355000E003E0CA
:10E3D00096E80F00A84775E7E07D314618B116A012
:10E3E000F2F74CF878E717A0FAE70000F4C0012034
:10E3F0000D0A257328000000256300002573000026
:10E4000030582558000000002C00000029000000B2
:10E41000256C64003B0D0A0046756E6374696F6E6F
:10E420002052756E2054696D653A25642E2531643D
:10E430006D730D0A000000003D305825583B0D0A51
:10E44000000000003D256C753B0D0A00F0B5044648
:10E45000002007460646054623782C2B03D0292B9F
:10E4600004D01BB103E015B9012700E015B31EB1BC
:10E47000222B2BD0F7B92FE0A3F1300CBCF1090F00
:10E4800019D92D2B17D02B2B15D0A3F1610CBCF172
:10E49000050F10D9A3F1410CBCF1050F0BD9582B76
:10E4A00009D0782B07D0222B0CD0202B1DD02C2B61
:10E4B0001BD0FF260CE05FB9612B00D3203B01F895
:10E4C000013B12E027B9012635460EE0002567B171
:10E4D00000230B701670F0BD3DB15C2B02D1401CC7
:10E4E000C0B2641C237801F8013B401CC0B2641C1C
:10E4F000B2E730B5002515700AE001F8014B147839
:10E50000401C641CE4B214709C4201D3012030BD55
:10E510000478202C01D0002CEFD10D70002030BDEC
:10E520002DE9FF4F002582B0984604462F462E461F
:10E530004FF0010BAA462A46A94615E0202910D023
:10E5400002F07F03052B0CD202B9802202F07F0378
:10E55000042B01D12A290AD1521C0DF80310D2B282
:10E5600001E0852A04D0401C01780029E6D162B17F
:10E5700002F07F0244A10DF80290684600F0F5F920
:10E5800038B1012188F8001000224FF0000823461E
:10E5900014E088F80090F7E708F1010000F0FF08A8
:10E5A00013F8010F202801D02A2807D1184600F0BF
:10E5B00069F9282802D02A2800D047461878282848
:10E5C00001D00028E8D10FB13C44641C0027394633
:10E5D000207888B1282804D0292806D022280FD0F6
:10E5E00010E079B96D1CEDB20CE059B925B16D1E82
:10E5F00015F0FF0501D00CE00127012E32D039E0E3
:10E6000049B100214DB12C280FD020281FD0282837
:10E610001DD07AB117E00121F4E7202820D0039B18
:10E6200018700398401C03901AE0521C4FF0010B25
:10E63000D2B20CE0BAF1050F05D20DF80A000AF1CA
:10E64000010000F0FF0A0BF1010000F0FF0B012DAB
:10E6500006D1BBF1020F03D1761C4FF0030BF6B2CB
:10E66000641CB5E70DF80A9007A1684600F07DF933
:10E6700000B9002604980670039880F8009006B050
:10E680003846BDE8F08F0000766F69640000000036
:10E690002DE9F04300248946314DB5B0214622468C
:10E6A0006B18491CC9B29A760A29F9D303E000BF56
:10E6B00010F8011F91B101782829F9D1461C0127D2
:10E6C00033AA69463046FFF7C1FE06449DF8CC00E8
:10E6D00040B1012824D0FF2839D10BE0012035B00A
:10E6E000BDE8F0839DF8000080B334A9684600F0CF
:10E6F000D1F808B10220F2E7204600F043F82844A0
:10E7000034994162288B07FA04F188432883042056
:10E7100029198876641CE4B20A2C18D90320DEE794
:10E72000684600F037F900F10108204600F02AF8A9
:10E7300041196846243100F024F9288B07FA04F1C6
:10E7400008432919288381F81A80E3E7FFE7307826
:10E75000292801D00028B3D189F800400020BEE765
:10E76000F4C00120054900200A88130405D5044B94
:10E77000D0B200221A5418460A80704702C0012005
:10E78000B8C30120024610B500200146054B05E044
:10E790005C18491CA47EC9B22044C0B29142F7D390
:10E7A00010BD0000F4C0012000EBC00101EB00101F
:10E7B0004FF0FF3101EB800010B581B24FF47A7059
:10E7C00000F0ECFA01490120C87510BDF4C0012029
:10E7D0000246012000E05043491EC9B2FBD27047F7
:10E7E00070B5FFF7BFFF050022D0124EB168884711
:10E7F000040013D0284600F0D7F8012801D0040007
:10E8000016D0012C0ED0022C0ED0032C0ED0042CCE
:10E810000ED109A0BDE87040F1F730BEF068BDE848
:10E82000704000470BA0F5E70EA0F3E711A0F1E759
:10E8300070BD0000F4C00120E69CAAE689BEE58810
:10E84000B0E58CB9E9858DE79A84E587BDE695B09A
:10E85000210D0A00E587BDE695B0E99499E8AFAFD0
:10E86000210D0A00E58F82E695B0E99499E8AFAFF3
:10E87000210D0A00E58F82E695B0E5A4AAE5A49AE9
:10E88000210D0A0010F8011F202901D10028F9D11B
:10E89000C8B270472DE9F0430D4600244FF00A0935
:10E8A000264601462C600A78A2F13003092B14D9C0
:10E8B00003782D2B01D02B2B00D174B1A2F1410391
:10E8C000052B0AD9582A05D012F0FF0F17D00120C6
:10E8D000BDE8F083012C02D0F9E7412A01D34FF0C3
:10E8E000100902782D2A04D02B2A04D0641CE4B22B
:10E8F00003E0022600E00126401C491CD3E707463E
:10E90000B9F1100F01D084B112E0032C01D2022022
:10E91000DEE73878302802D17878582801D00320F3
:10E92000D6E7A41EE4B2BF1C01E00420D0E70CB17E
:10E93000641EE4B23878A0F13001092901D8884674
:10E9400001E0A0F1370821464846FFF741FF2A6859
:10E9500008FB0020286017F8011F0029E7D1022ECC
:10E9600001D1404228600020B2E702780B789A4239
:10E9700001D00120704712B1401C491CF5E700206E
:10E98000704702780A700278002A02D0401C491CA5
:10E99000F7E77047002102781AB1491CC9B2401C40
:10E9A000F9E7084670470000F0B58DB004461E2315
:10E9B0006A4602A9FFF79DFD0190002872D19DF8DB
:10E9C0000000271800267E4C8DF800609DF800009E
:10E9D00054F8201002A8FFF7C8FF38B19DF80000D6
:10E9E000401CC0B28DF800000728EFD39DF800004E
:10E9F0000425744C072855D2DFE800F00404395A86
:10EA000081A0BF0070A0F1F739FD7048F1F736FD25
:10EA10006F48F1F733FD6F48F1F730FD6E48F1F7BD
:10EA20002DFD6E48F1F72AFD6D48F1F727FD6DA029
:10EA3000F1F724FD73A0F1F721FD7DA0F1F71EFD94
:10EA400083A0F1F71BFD8AA0F1F718FD90A0F1F764
:10EA500015FD9848F1F712FD9748F1F70FFD97481B
:10EA6000F1F70CFD9648F1F709FD96481BE056A01A
:10EA7000F1F704FD9448F1F701FD8DF800600BE01B
:10EA8000216805EBC000095890A0F1F7F7FC9DF84C
:10EA90000000401C8DF80000217D9DF8000081429F
:10EAA000EED889E08AE0F1F7E9FC00200DB0F0BD76
:10EAB00045A0F1F7E3FC8748F1F7E0FC8DF8006032
:10EAC00017E000BF216805EBC0000BAB08580AAA8D
:10EAD00002A9FFF725FD9DF80010206850F83120AD
:10EAE00002A97DA0F1F7CAFC9DF80000401C8DF83A
:10EAF0000000217D9DF800008142E3D85CE032A057
:10EB0000F1F7BCFC6A4602A93846FFF79FFC9DF866
:10EB10000000002843D101A902A8FFF7BBFE8DF831
:10EB2000000010B104283AD102E070A001991CE065
:10EB300071A0F1F7A3FC0120E0753DE022A0F1F700
:10EB40009DFC6A4602A93846FFF780FC9DF800004C
:10EB500028BB01A902A8FFF79DFE8DF8000010B1A7
:10EB600004281CD104E06AA00199F1F787FC23E096
:10EB70006AA0F1F783FCE6751EE013A0F1F77EFCB6
:10EB80006A4602A93846FFF761FC9DF8000030B9DB
:10EB900001A902A8FFF77EFE8DF8000008B102204F
:10EBA00084E7019810F0FF0084F8EC0001D061A028
:10EBB00000E067A0F1F762FC03A074E7012075E7AD
:10EBC000D8C00120F4C001200D0A00000CD10308B8
:10EBD00020D2030848D40308A4D403085CD3030854
:10EBE000C0D20308E68A80E69CAFE694AFE68C814B
:10EBF0003A7777772E6F70656E6564762E636F6DEA
:10EC00000D0A000055534D415254E69C8937E4B833
:10EC1000AAE7B3BBE7BB9FE591BDE4BBA428E5BF72
:10EC200085E9A1BBE5B08FE58699293A0D0A000078
:10EC30003F3A202020202020E88EB7E58F96E5B8C7
:10EC4000AEE58AA9E4BFA1E681AF0D0A000000008D
:10EC500068656C703A202020E88EB7E58F96E5B89D
:10EC6000AEE58AA9E4BFA1E681AF0D0A000000006D
:10EC70006C6973743A202020E58FAFE794A8E79A77
:10EC800084E587BDE695B0E58897E8A1A80D0A0060
:10EC900069643A2020202020E58FAFE794A8E5871B
:10ECA000BDE695B0E79A844944E58897E8A1A80DA8
:10ECB0000A00000000D40308B8D3030818D30308DF
:10ECC00074D2030850D10308D8D1030825730D0A64
:10ECD0000000000094D10308257320696420697343
:10ECE0003A0D0A3058253038580D0A004845583A30
:10ECF000305825580D0A00003136E8BF9BE588B62C
:10ED0000E58F82E695B0E698BEE7A4BA210D0A0029
:10ED10004445433A256C750D0A0000003130E8BFC8
:10ED20009BE588B6E58F82E695B0E698BEE7A4BA83
:10ED3000210D0A0052756E2054696D652043616C87
:10ED400063756C6174696F6E204F4E0D0A00000090
:10ED500052756E2054696D652043616C63756C61FA
:10ED600074696F6E204F46460D0A0000094800681E
:10ED70000169C943CA070849D1F8F02004D14FF608
:10ED8000FF731A44C1F8F020406A1044C1F8F00043
:10ED90007047000050F50120F4C0012038B5104A3A
:10EDA0000023146844F00404146012680D4C02F04F
:10EDB000040200920C4AC2E902301361C2E9004128
:10EDC0001046F3F71FFE0848F3F768FE03221146CA
:10EDD0001E20F2F745FDBDE838401E20F2F732BD97
:10EDE000403802400008004050F5012007486FF00D
:10EDF0000101026811610268090CD162C1600068FA
:10EE0000002141620248C0F8F010704750F501201F
:10EE1000F4C0012070B50E4604004FF009050CD077
:10EE2000206850B1017841B1A188C288914204D1D3
:10EE30004078F7F758FBC00703D000203060284621
:10EE400070BD00252068F9E70160704730B50346C2
:10EE500040784FF4004442010020014620320AE08D
:10EE600002290BD0C50700D0254605EB50005D5C9C
:10EE7000284480B2491C9142F2D330BD0321F9E706
:10EE800070B5054600244FF4004612E0F9F7CEFBBA
:10EE900080B2E10700D0314601EB5401C2B2114407
:10EEA00089B2CA0700D0324602EB510101EB1020B3
:10EEB00084B235F8020B0028E8D1204670BDCA079D
:10EEC00001D04FF0004202EB510108447047491055
:10EED00058BFC1F140415B1058BFC3F140438B4262
:10EEE000EFF30080704700002DE9C04130B4DFF837
:10EEF000A0C23CEA111418BF3CEA131400F0EC80E5
:10EF000081EA03051CEA111444EAD57418BF1CEA0F
:10EF1000131500F0C780A4EB05044FF0004545EA47
:10EF2000C12145EAC32341EA505143EA525304F157
:10EF30007F74994204F500344FEAC0204FEAC222A0
:10EF400008BF904200F09C804FEA13650FF2401614
:10EF5000765D4FEA134506FB05F7C7F1807706FBA0
:10EF600007F74FEAD737A7FB03687642C8F5803822
:10EF7000A7FB06CE38BFA8F1010807FB08E64FF053
:10EF8000000EA6FB028CE6FB03CEDCF1000CCEF1FA
:10EF9000004E38BFAEF1010EA6FB0C584FF0000733
:10EFA0004FF00005E6FB0E87A1FB08C6A0FB07CECD
:10EFB00016EB0E0645F10005E1FB076515F1E04E85
:10EFC0007EBFA4F580345FEA46066D4116F18007E6
:10EFD00045F100054FEA17274FEA066647EA05673D
:10EFE000A6F1DE46B6F1805F4FEA15251FD93846F7
:10EFF00024F0010C05EBC471BCF1FE6F01EB0C11A8
:10F0000002D8F0BCBDE8008124425CBF01F5801E3F
:10F010009EEAC47F02D4F0BCBDE80081244238D40B
:10F02000F0BCA1F1C041BDE8004100F029BA4FEAAF
:10F03000D22242EA43524FEAD323A7FB02864FEA89
:10F04000D02040EA415007FB03661EEA0E0F4FEA4C
:10F05000D12105FB026658BFA6EB0056B6EB005661
:10F060004FEA520E4EEAC37E18EB0E0E56EB530ECD
:10F07000BDD518EB02085E417F1C55F10005B6E7CF
:10F080004FF480154FF000074FF000064FF00008D6
:10F09000ADE7F0BC4FF0000001F1C04101F00041CC
:10F0A000BDE8008111EA0C1F0CEA131500D00CE03A
:10F0B00013EA0C1F00F025804FF00000F0BC81EA3D
:10F0C000030101F00041BDE80081F0BCBDE8004152
:10F0D00081EA030100F0D4B9F0BCBDE8004170B58D
:10F0E00000F080F9097EFC3E00F007B881EA0301D8
:10F0F0004FF0000001F00041704781EA030100F089
:10F10000BFB9F0BCBDE800414FF000002149704795
:10F11000FFFDFBF9F7F5F4F2F0EEEDEBE9E8E6E4DC
:10F12000E3E1E0DEDDDBDAD8D7D5D4D3D1D0CFCD63
:10F13000CCCBCAC8C7C6C5C4C2C1C0BFBEBDBCBB9C
:10F14000BAB9B8B7B6B5B4B3B2B1B0AFAEADACAB97
:10F15000AAA9A8A8A7A6A5A4A3A3A2A1A09F9F9E71
:10F160009D9C9C9B9A999998979796959594939323
:10F17000929191908F8F8E8E8D8C8C8B8B8A8989BA
:10F18000888887878685858484838382828181803D
:10F190000000FF070000F87F4FEA1153A3F58063DA
:10F1A000D3F11E03A8BFD3F1200C08DB4FF00042BF
:10F1B00042EAC12252EA505232FA03F07047094241
:10F1C0000BD4102BC4BF0020704703F5787CBCF132
:10F1D000FF3F05D04FF0FF3070474FF00000704701
:10F1E00070B500F0FFF800BF4992248000207047FE
:10F1F000F0E7B0FA80F310FA03F10AD0C3F11D036F
:10F2000003F580634FEA41504FEA035202EBD121EC
:10F2100070474FF00000704751EA030C17D41CF5FB
:10F22000801F58BFBCF5801F00F10680994218BFAF
:10F23000704708BF9042704707D711F5801F58BF2D
:10F2400013F5801F19D499427047894270471CF505
:10F25000801F08D5BCF5801FF7D58B4218BF7047BB
:10F2600008BF824270474FF4001C1CEB410F38BFAF
:10F270001CEB430F01D28B42704770B500F0B2F81F
:10F28000922449004FF000514FF08053FFF71FBE0A
:10F29000DFF848C170B51CEA111E1EBF1CEA131529
:10F2A0009EEA0C0F95EA0C0F00F06F8081EA0304D0
:10F2B00023EA4C134EEAD47E21EA4C1141F480112A
:10F2C00043F48013AE44A1FB024CA0FB0365AEF1F6
:10F2D0007F7E361955EB0C05A1FB034C4CF1000366
:10F2E000A0FB021C16EB0C06654153F1000309421A
:10F2F00018BF46F0010613F4007F0BD14FEA03312B
:10F300004FEA0530340341EA155140EA16506FF0D8
:10F3100003020AE04FEAC3214FEAC520F40241EAA2
:10F32000555140EA56506FF0020202EB2E4201EBBB
:10F33000025585EACE710AD05FEA440C18BF24F06A
:10F34000004450F1000041F1000120EAD47040F285
:10F35000FE7C624500D270BDA84214BF4FF08044CD
:10F360004FF04044002E08BF0024BEF1806FA8BFBC
:10F37000A1F1C041BDE8704080F282804FF00000F2
:10F3800001F1C04101F0004170479EEA0C0F0CEA08
:10F39000131518BF95EA0C0F06D04FF0000081EA54
:10F3A000030E0EF0004170BD00F01CF88900013E14
:10F3B00000F007B800F009B84FEA430C5FEA5C5C64
:10F3C00008D081EA030100F05BB84FEA410C5FEA24
:10F3D0005C5CF6D14FF00000014970470000FF0768
:10F3E0000000F87F0EF1020E2EF0030E5EF8046BA3
:10F3F000364205D4012A43EB030515F5001F12D848
:10F40000012841EB010C1CF5001F0CD80ED14FEA6E
:10F41000D17C15F5001F0CEB4C0C0CF1020C08BF55
:10F420004CEBD37C04E04FF0080C01E04FEAD37CB6
:10F430000CEB4C0526FA05F606F00706B6F1040CAF
:10F4400006D20EEB860CBDE870404CF0010C604714
:10F45000DFE80CF0090B02024FF000414FF0000012
:10F46000A1F5002170BD19461046012851EB010499
:10F4700018BFD4F5001484BF002001F0004170BD16
:10F480000808A0F500114FEA3101704753EA010C5A
:10F4900017D41CF5801F58BFBCF5801F00F10680F3
:10F4A0008B4218BF704708BF8242704707D713F5D9
:10F4B000801F58BF11F5801F19D48B4270479B42A3
:10F4C00070471CF5801F08D5BCF5801FF7D5994201
:10F4D00018BF704708BF904270474FF4001C1CEBE8
:10F4E000430F38BF1CEB410F01D2994270470FB454
:10F4F0000CBC03BCFFF7C1BE4FF04070E1EE100A38
:10F50000704700000000000000000102030406072D
:10F5100008090000000001020304000000000000D0
:10F52000000000000000000000003F40000000005C
:10F5300000000000300040003000400000000900E2
:10F540000BC03D000BC03D00090018C024407FE007
:10F55000224031800000180024C01B000D80324082
:10F56000018003801C4027401C80074000401000A1
:10F57000600000000000000000000000000000002B
:10F580001F80204040200000402020401F800000BD
:10F590000000090006001F800600090000000400AA
:10F5A00004003F8004000400000000100060000020
:10F5B0000000000000000400040004000400040037
:10F5C00000000000004000000000000000000020DB
:10F5D00001C006003800400000001F80204020408D
:10F5E00020401F800000000010403FC0004000008D
:10F5F000000018C021402240244018400000108024
:10F600002040244024401B80000002000D00110017
:10F610003FC0014000003C8024402440244023801F
:10F6200000001F802440244034400380000030004C
:10F63000200027C03800200000001B802440244008
:10F6400024401B8000001C0022C0224022401F805A
:10F650000000000000000840000000000000000062
:10F6600000000460000000000000000004000A0028
:10F67000110020804040090009000900090009002C
:10F68000000000004040208011000A000400180023
:10F69000200023402400180000001F802040274045
:10F6A00029401F400000004007C039000F0001C082
:10F6B000004020403FC0244024401B8000001F80A9
:10F6C0002040204020403080000020403FC02040AB
:10F6D00020401F80000020403FC024402E4030C00A
:10F6E000000020403FC024402E00300000000F00EA
:10F6F0001080204022403380020020403FC00400A0
:10F7000004003FC02040204020403FC02040204017
:10F7100000000060202020203FC02000200020406A
:10F720003FC024400B0030C0204020403FC020405C
:10F730000040004000C03FC03C0003C03C003FC050
:10F74000000020403FC00C4023003FC020001F802D
:10F750002040204020401F80000020403FC0244027
:10F760002400180000001F802140214020E01FA03D
:10F77000000020403FC02440260019C0004018C0AF
:10F7800024402440224031800000300020403FC00F
:10F7900020403000000020003F80004000403F80BB
:10F7A000200020003E0001C0070038002000380083
:10F7B00007C03C0007C038000000204039C00600E8
:10F7C00039C0204000002000384007C038402000E9
:10F7D0000000304021C02640384020C0000000001A
:10F7E00000007FE0402040200000000070000C007E
:10F7F0000380004000000000402040207FE0000027
:10F800000000000020004000200000000000001068
:10F810000010001000100010001000000000400058
:10F82000000000000000000002800540054003C009
:10F83000004020003FC0044004400380000000005E
:10F8400003800440044006400000000003800440A0
:10F8500024403FC0004000000380054005400340B5
:10F860000000000004401FC024402440200000008D
:10F8700002E0055005500650042020403FC00440DF
:10F88000040003C000400000044027C00040000006
:10F89000000000100010041027E0000000002040CD
:10F8A0003FC00140070004C00440204020403FC04A
:10F8B00000400040000007C0040007C0040003C06F
:10F8C0000000044007C00440040003C000400000E2
:10F8D00003800440044003800000041007F004503B
:10F8E000044003800000000003800440045007F03F
:10F8F0000010044007C002400400040000000000A3
:10F9000006400540054004C00000000004001F80C0
:10F91000044000400000040007800040044007C08D
:10F9200000400400070004C0018006000400060037
:10F9300001C0070001C006000000044006C001002D
:10F9400006C0044000000410071004E00180060017
:10F9500004000000044005C0064004400000000010
:10F96000000004007BE040200000000000000000D8
:10F97000FFF000000000000040207BE004000000D9
:10F9800000004000800040002000200040000000F7
:10F990000000000000000000000000000000000067
:10F9A000000000001FCC000C000000000000000060
:10F9B00008003000600008003000600000000220F5
:10F9C00003FC1E20022003FC1E2002200000000079
:10F9D0000E1811043FFF10840C78000000000F0087
:10F9E00010840F3800C00778188400780000007871
:10F9F0000F8410C411240E9800E40084000808004D
:10FA0000680070000000000000000000000000001E
:10FA10000000000007E01818200440020000000069
:10FA200040022004181807E0000000000000024017
:10FA3000024001800FF0018002400240000000807F
:10FA4000008000800FF8008000800080000000012E
:10FA5000000D000E0000000000000000000000008B
:10FA60000080008000800080008000800080000016
:10FA7000000C000C0000000000000000000000006E
:10FA80000006001800600180060018002000000039
:10FA900007F0080810041004080807F00000000030
:10FAA000080408041FFC000400040000000000001B
:10FAB0000E0C10141024104411840E0C00000000D1
:10FAC0000C1810041104110412880C7000000000BE
:10FAD00000E00320042408241FFC00240000000090
:10FAE0001F98108411041104108810700000000089
:10FAF00007F0088811041104188800700000000045
:10FB00001C00100010FC13001C001000000000007E
:10FB10000E3811441084108411440E380000000087
:10FB20000700088C10441044088807F0000000000B
:10FB300000000000030C030C0000000000000000A7
:10FB400000000001010600000000000000000000AD
:10FB50000080014002200410080810040000022068
:10FB600002200220022002200220022000000000C9
:10FB7000100408080410022001400080000000006A
:10FB80000E001200100C106C10800F00000003E03B
:10FB90000C1813E4142417C4082807D0000000042C
:10FBA000003C03C41C40074000E4001C0004100497
:10FBB0001FFC1104110411040E880070000003E002
:10FBC0000C1810041004100410081C10000010047D
:10FBD0001FFC100410041004080807F000001004B3
:10FBE0001FFC1104110417C41004081800001004AD
:10FBF0001FFC1104110017C010000800000003E0F2
:10FC00000C181004100410441C780040000010046C
:10FC10001FFC10840080008010841FFC1004000072
:10FC2000100410041FFC1004100400000000000366
:10FC30000001100110011FFE100010000000100450
:10FC40001FFC110403801464181C1004000010042D
:10FC50001FFC1004000400040004000C0000100449
:10FC60001FFC1F0000FC1F001FFC100400001004FC
:10FC70001FFC0C04030000E010181FFC100007F02C
:10FC80000808100410041004080807F0000010040D
:10FC90001FFC10841080108010800F00000007F0FF
:10FCA000081810241024101C080A07F20000100481
:10FCB0001FFC1104110011C011300E0C00040000D3
:10FCC0000E1C11041084108410441C38000018000D
:10FCD000100010041FFC1004100018000000100099
:10FCE0001FF810040004000410041FF81000100096
:10FCF0001E0011E0001C007013801C0010001FC0CB
:10FD0000103C00E01F0000E0103C1FC00000100489
:10FD1000180C163401C001C01634180C1004100061
:10FD20001C00130400FC13041C0010000000080455
:10FD3000101C1064108413041C0410180000000030
:10FD4000000000007FFE4002400240020000000070
:10FD500030000C0003800060001C00030000000065
:10FD60004002400240027FFE000000000000000050
:10FD70000000200040004000400020000000000182
:10FD8000000100010001000100010001000100006C
:10FD900040004000200000000000000000000000C3
:10FDA0000098012401440144014400FC00041000B7
:10FDB0001FFC00880104010400880070000000009E
:10FDC00000700088010401040104008800000000A4
:10FDD000007000880104010411081FFC00040000E9
:10FDE00000F8014401440144014400C8000000003F
:10FDF000010401040FFC110411041100180000009B
:10FE000000D601290129012901C9010600001004B9
:10FE10001FFC008401000100010400FC000400003C
:10FE20000104190419FC0004000400000000000093
:10FE3000000300010101190119FE00000000100477
:10FE40001FFC0024004001B4010C0104000000006C
:10FE5000100410041FFC0004000400000000010452
:10FE600001FC0104010001FC0104010000FC01048B
:10FE700001FC008401000100010400FC00040000FA
:10FE800000F8010401040104010400F8000001016C
:10FE900001FF0085010401040088007000000000DB
:10FEA0000070008801040104010501FF0001010444
:10FEB000010401FC00840104010001800000000035
:10FEC00000CC012401240124012401980000000039
:10FED0000100010007F80104010400000000010016
:10FEE00001F8000400040004010801FC0004010002
:10FEF00001800170000C001001600180010001F020
:10FF0000010C003001C00030010C01F001000000C4
:10FF10000104018C00740170018C010400000101D6
:10FF200001810171000E00180160018001000000D4
:10FF30000184010C013401440184010C0000000023
:10FF400000000000000001003EFC400240020000F2
:10FF5000000000000000FFFF0000000000000000A3
:10FF6000400240023EFC01000000000000000000D2
:10FF70006000800080004000400020002000000061
:10FF80000000000000000000000000000000000071
:10FF90000000000000000000000000000000000061
:10FFA0000000000000000000000000000000000051
:10FFB000000F80380FFE380F80380000000000006E
:10FFC000000000000000000000000000010000062A
:10FFD00000000C00003800003100000600000C009A
:10FFE00000380000300000000000000000006180C8
:10FFF0000067F807F980006180006180006180007F
:020000040801F1
:1000000061800067F807F98000618000000000004F
:100010000000000001C0E003E0F00630080418080A
:100020001FFFFE040E080787F00381E000000000B8
:10003000000001F000060C00040408060C7001F931
:10004000C0000E00003BE000EC18070808040C1884
:100050000003E00000000001E00007F003F81804CE
:100060001C0804170807E1D003C0E00023B0003CDF
:10007000080020080000100000000000000100003F
:100080003100003200001C000000000000000000F1
:100090000000000000000000000000000000000060
:1000A00000000000000000000000000000007F00D1
:1000B00001FFC00780F00C001810000420000200AF
:1000C00000000000002000021000040C001807804F
:1000D000F001FFC0007F00000000000000000000F1
:1000E0000000000000000000000042000066000068
:1000F0006600003C0000180003FFC0001800003C30
:1001000000006600006600004200000000000800D9
:1001100000080000080000080000080001FFC000FF
:1001200008000008000008000008000008000000A7
:100130000000000100003100003200001C0000003F
:1001400000000000000000000000000000000000AF
:10015000000000000000080000080000080000087F
:100160000000080000080000080000080000080067
:10017000000800000000000000000000000038003F
:1001800000380000380000000000000000000000FF
:100190000000000000000000000000000000000659
:1001A00000001C000070000180000E0000380000FC
:1001B000C0000700001C000030000000000000002C
:1001C00000007F8001FFE003807006001804000833
:1001D00004000806001803807001FFE0007F800023
:1001E00000000000000000000100080100080100FC
:1001F0000803FFF807FFF8000008000008000008E7
:1002000000000000000000000001C03802C05804D7
:100210000098040118040218040418061C1803F8B6
:100220001801E0F800000000000000000001C0E03C
:1002300003C0F004000804080804080806180803AE
:10024000F41801E7F00001E00000000000000000E9
:1002500000000300000D0000110000610000810893
:1002600003010807FFF80FFFF8000108000108006C
:1002700000000000000000E007FCD006080806109F
:1002800008061008061008061838060FF00607C002
:10029000000000000000000000003F8001FFE003BC
:1002A0008430020818041008041008041008071805
:1002B00010030FF00007C000000000000000000065
:1002C00003C0000700000600000600F80607F80655
:1002D000180006E000070000060000000000000013
:1002E0000001E1E003F7F0063410041808041808D0
:1002F000040C08040C0806161803F3F001C1E00012
:10030000000000000000F80003FC3003063804027F
:10031000080402080402080404100308F001FFC0E6
:10032000007F00000000000000000000000000004E
:1003300000000000000070380070380070380000C5
:1003400000000000000000000000000000000000AD
:1003500000000000000000000000301A00301C0007
:10036000000000000000000000000000000000008D
:1003700000000000000800001400002200004100FE
:1003800000808001004002002004001008000800E6
:1003900000000000000021000021000021000021D9
:1003A00000002100002100002100002100002100A8
:1003B0000021000000000000000000000800080408
:1003C0000010020020010040008080004100002257
:1003D0000000140000080000000000000003C0003E
:1003E00004C000040000080038080F380808380866
:1003F00010000C300007E00003C000000000000007
:1004000000003F8000FFE0038070020F100670883C
:1004100004C088048308047F8802C0900301200080
:10042000FE400000080000180001F8003E0801C26C
:100430000007020007E20000FE00001FC80001F8EC
:1004400000003800000804000807FFF807FFF80460
:10045000080804080804080804080806180803F433
:100460001801E7F00001E0000000000000003F80FC
:1004700001FFE00380700200180400080400080473
:1004800000080400100600200780C00000000400DF
:100490000807FFF807FFF804000804000804000834
:1004A00004001802001003807001FFE0007F80004C
:1004B000000004000807FFF807FFF8040808040814
:1004C00008040808040808043E0804000806001888
:1004D00001006000000004000807FFF807FFF804AF
:1004E0000808040800040800040800043E00060090
:1004F00000060000018000000000000000003F80B6
:1005000001FFE003807006001804000804020804DC
:1005100002080203F00783F000020000020004005A
:100520000807FFF807FFF8040808000800000800A3
:1005300000080000080004080807FFF807FFF80497
:100540000008000000000000040008040008040087
:100550000807FFF807FFF804000804000804000873
:10056000000000000000000000000006000007007E
:10057000000104000104000104000307FFFE07FF5F
:10058000FC04000004000004000004000807FFF859
:1005900007FFF8040C08001800003E0004C780059F
:1005A00003C80600F804003804001800000804001E
:1005B0000807FFF807FFF80400080000080000081B
:1005C000000008000008000008000018000060009B
:1005D000000004000807FFF807800807FC00007F00
:1005E000C00003F80007C000780007800807FFF884
:1005F00007FFF804000804000807FFF807000803D5
:10060000C00000E000003800001E000007000001EC
:10061000C00400F007FFF8040000000000007F8025
:1006200001FFE003807006001804000804000806BB
:10063000001803003001FFE0007F8000000004008C
:100640000807FFF807FFF804040804040004040086
:10065000040400040400060C0003F80001F000008C
:100660000000000000007F8001FFE00380700600B2
:10067000880400880400C806003C03003E01FFE631
:10068000007F8400000004000807FFF807FFF8045B
:100690000808040800040C00040F00040BC0061036
:1006A000F003F03801E00800000800000001E0F865
:1006B00003F030063010041808041808040C08046D
:1006C0000C080206180207F00781E0000000018014
:1006D0000006000004000004000004000807FFF802
:1006E00007FFF804000804000004000006000001F1
:1006F000800004000007FFE007FFF004001800007E
:1007000008000008000008000008000008040010AD
:1007100007FFE004000004000006000007E00007F7
:10072000FE00041FE00001F80000380001E0043E74
:100730000007C00006000004000004000007E000FD
:1007400007FFC0041FF80007C007F80007FF800478
:100750003FF80007C004F800070000040000000094
:100760000004000806001807C07805F1C8003E0024
:10077000001F800463E80780F806001804000800E2
:10078000000004000006000007800007E008047C69
:1007900008001FF80007F800180804E00807000028
:1007A00006000004000000000001000806003804F4
:1007B00000F80403E8040F08047C0805F00807C0EB
:1007C000080700180400600000000000000000009E
:1007D0000000000000000000003FFFFE200002209B
:1007E00000022000022000022000020000000000A1
:1007F0000000000008000007000000C000003800F2
:100800000006000001C000003000000E00000100E2
:100810000000000000000000200002200002200074
:10082000022000022000023FFFFE00000000000046
:1008300000000000000000000000000000000008B0
:100840000000100000300000200000300000100008
:10085000000800000000000000000000010000018E
:100860000000010000010000010000010000010083
:100870000001000001000001000001000001000073
:100880000000000000000020000020000010000018
:100890001000000000000000000000000000000048
:1008A00000000000000000F00019F8001B180022F2
:1008B00008002608002408002410003FF8001FF854
:1008C00000000800001800000004000007FFF80FF7
:1008D000FFF0001818001008002008002008003061
:1008E00018001FF0000FC00000000000000007C04B
:1008F000001FF00018300020080020080020080029
:100900003C08001C10000060000000000000000017
:10091000000007C0001FF000381800200800200861
:1009200000200804101007FFF80FFFF0000010006F
:1009300000000000000000000007C0001FF00012CF
:1009400030002218002208002208003208001E1081
:10095000000E200000000000000020000020080021
:10096000200801FFF803FFF80620080420080420EF
:100970000807200003000000000000000000000E37
:10098000000E6E001FF30031B10020B10020B10055
:100990003191001F13002E1E00200E0030000000B9
:1009A0000004000807FFF80FFFF8001008002000FF
:1009B000002000002008003FF8001FF80000080099
:1009C00000000000000000000020080020080020B7
:1009D00008063FF8063FF80000080000080000087D
:1009E0000000000000000000000000000000030004
:1009F0000003002001002001002003063FFE063F07
:100A0000FC000000000000000000000000040008DE
:100A100007FFF80FFFF8000188000300002FC00057
:100A200038F800203800200800000800000000000E
:100A30000000000004000804000804000807FFF894
:100A40000FFFF80000080000080000080000000088
:100A50000000002008003FF8003FF80010080020C8
:100A600000003FF8003FF8001008002000003FF8A9
:100A7000003FF8000008000000002008003FF800D8
:100A80003FF8001008001000002000002008003F80
:100A9000F8001FF80000080000000000000007C078
:100AA000000FF00018300030080020080020080077
:100AB0003008001830000FF00007C00000000000F0
:100AC00000002001003FFF003FFF0010110020093F
:100AD000002008002008003038001FF0000FC00080
:100AE00000000000000007C0001FF00038180020C0
:100AF00008002008002009001011001FFF003FFF20
:100B0000000001000000002008002008002008006C
:100B10003FF8003FF80008080010080020080020F7
:100B20000000300000300000000000000000000065
:100B3000000C78001E18003308002308002108006C
:100B400021880021980030F000386000000000008B
:100B50000000200000200000200000FFF003FFF84C
:100B600000200800200800200800003000000000DD
:100B70000000000000002000003FF0007FF80000AF
:100B800018000008000008002010003FF8007FF067
:100B900000001000000000000000200000300000F5
:100BA0003C00003F800023F000007800007000232C
:100BB00080003C00003000002000002000003C00CD
:100BC000003FE00023F80000E0002700003E0000A6
:100BD0003FE00021F80001E0003E0000200000009E
:100BE00000002008002008003838003E68002780F8
:100BF0000003C8002CF80038380020180020080036
:100C00000000000000002000003003003C01003F15
:100C1000830023EC000070002380003C00002000D3
:100C20000020000000000000000000000038080064
:100C300020380020F80023E8002F88003E08003804
:100C400008002018000070000000000000000000F4
:100C50000000000000000000000008000014001F59
:100C6000F7FC300006200002000000000000000039
:100C70000000000000000000000000000000000074
:100C8000FFFFFF0000000000000000000000000067
:100C900000000000000000002000023000061FF7E6
:100CA000FC0014000008000000000000000000002C
:100CB000000000000000000000180000600000407C
:100CC00000004000002000001000000800000400A8
:100CD000000400000C0000100000000000000000F4
:100CE0000000000000000000000000000000000004
:100CF00000000000000000000000000000000000F4
:100D000000000000000000000000000000000000E3
:100D100000000000000000000000000000000000D3
:100D200000000000000000000000000000000000C3
:100D3000000007F000C007FFE1E007F001E000005D
:100D400000C00000000000000000000000000000E3
:100D50000000000000000000000000000000000093
:100D600000000020000001C00000078000001F00FC
:100D700000001E0000001C20000001C000000780D1
:100D800000001F0000001E0000001C00000000000A
:100D9000000000000000000000000000000000183B
:100DA0000C0000180C0000180FE0001FFC0003F8F6
:100DB0000C0000180C0000180C0000180C000018A3
:100DC0000C0000180FE0001FFC0003F80C000018D6
:100DD0000C0000180C0000000000000000000000E3
:100DE000000000000780007807C000FC0640010EEC
:100DF000002003070020020380200FFFFFFC0201F8
:100E0000C0200200E0600130704001F03F8000F03F
:100E10001F00000000000000000000FE000001FFB5
:100E200000000301800002008060030181C001FF17
:100E3000070000FE18000000E0000003BF00000CE7
:100E4000FFC00071806001C10020030180600000CC
:100E5000FFC000003F000000000000001F00000075
:100E60007FC000FCC0C001FF80600303E0200202DD
:100E7000782002061E2003FC074001F003800001D9
:100E800003C000011C600001E020000100200001FF
:100E90000040000001800000000000000000002071
:100EA00000001C6000001C4000001F8000000F00BC
:100EB0000000000000000000000000000000000032
:100EC0000000000000000000000000000000000022
:100ED0000000000000000000000000000000000012
:100EE0000000000000000000000000000000000002
:100EF0000000000000000007F800003FFF0000783D
:100F000007C001C000E00300003004000008080032
:100F100000041000000200000000000000001000AB
:100F2000000208000004040000080300003001C0B3
:100F300000E0007807C0003FFF000007F800000055
:100F400000000000000000000000000000000000A1
:100F50000000000000000000000000000000000091
:100F60000000000C1800000E3800000E38000006CB
:100F70003000000360000061438000FFFF800061DB
:100F800043000003600000063000000E3800000E31
:100F90003800000C180000000000000000000000F5
:100FA00000000000800000008000000080000000C1
:100FB00080000000800000008000007FFF00000033
:100FC0008000000080000000800000008000000021
:100FD0008000000080000000000000000000000011
:100FE0000001000000E3000000E2000000FC00003F
:100FF0000078000000000000000000000000000079
:1010000000000000000000000000000000000000E0
:1010100000000000000000000000000000000000D0
:1010200080000000800000008000000080000000C0
:1010300080000000800000008000000080000000B0
:1010400080000000800000008000000080000000A0
:101050008000000080000000000000000000000090
:101060000000000000C0000001E0000001E00000FE
:1010700000C00000000000000000000000000000B0
:101080000000000000000000000000000000000060
:101090000000000000000000000000000000000050
:1010A000000C00000038000000E000000380000099
:1010B0000E00000038000000E00000038000000E79
:1010C00000000038000000E00000038000000E0077
:1010D00000001800000000000000000000000000F8
:1010E0000000000FF800007FFF0000F00780018083
:1010F00000C0030000600200002002000020020087
:10110000002003000060018000C000E00380007F39
:10111000FF00000FF80000000000000000000000C9
:1011200000000000000000800020008000200080FF
:1011300000200080006001FFFFE003FFFFE00000EF
:1011400000600000002000000020000000200000DF
:10115000000000000000000000000000000000008F
:101160000000007800E000980160010002600200C9
:1011700004600200086002001060020020600200AB
:101180004060030080600183006001FE00E0007C9D
:1011900007800000000000000000000000000000C8
:1011A000000000F0078001F007C0010000400200CD
:1011B00000200201002002010020020100200303A0
:1011C00080200186804001FCC0C000787F80000044
:1011D0001E000000000000000000000000000000F1
:1011E00008000000380000004800000188000006E8
:1011F0000800000C0810003008100040081001FF23
:10120000FFF003FFFFF003FFFFF0000008100000F5
:10121000081000000810000000000000000000009E
:10122000000000000780001F864003E10020030249
:101230000020030400200304002003040020030412
:10124000002003060040030301C00301FF800300E8
:101250007E00000000000000000000000000000010
:1012600000000007FC00003FFF000070C380008109
:1012700080C001010060030200200202002002027F
:101280000020020200200203004001C180C000C013
:10129000FF8000007E000000000000000000000051
:1012A000000000F0000003C0000003800000030005
:1012B0000000030007E003003FE00301C000030655
:1012C000000003180000036000000380000003001A
:1012D000000000000000000000000000000000000E
:1012E0001F0000783F8000FC60C0018EC0400307F3
:1012F00080200203002002018020020180200201E0
:10130000C0200301E040018670C000FC3F800078EF
:101310001F00000000000000000000000000003F6F
:10132000000000FF81C001C0C1C0010060200200B8
:101330002020020020200200202002002060020065
:1013400040C00100C18000C18F00007FFE00001F6F
:10135000F00000000000000000000000000000009D
:10136000000000000000000000000000000000007D
:101370000000000300C0000781E0000781E00003D7
:1013800000C000000000000000000000000000009D
:10139000000000000000000000000000000000004D
:1013A000000000000000000000000000000000003D
:1013B0000000000600660006007800000000000043
:1013C000000000000000000000000000000000001D
:1013D000000000000000000000000000000000000D
:1013E0000000000080000001C00000036000000653
:1013F0003000000C180000180C00003006000060DF
:10140000030000C001800100004002000020040031
:1014100000100000000000000000000000000004B8
:10142000100000041000000410000004100000046C
:10143000100000041000000410000004100000045C
:10144000100000041000000410000004100000044C
:101450001000000410000000000000000000000068
:10146000000004000010020000200100004000C045
:101470000180006003000030060000180C00000C22
:10148000180000063000000360000001C0000000EA
:1014900080000000000000000000000000000000CC
:1014A00000000078000001F800000238000002008F
:1014B0000000040000C0040079E0040081E00401A1
:1014C00000C004030000020200000306000001FC4B
:1014D000000000F800000000000000000000000F05
:1014E000F800003FFE000070078000C000C001014E
:1014F000F8400307FC20021E0420023008200220CE
:101500003020023FFC20013F044001800CC000E07D
:101510003180001FC2000000000000000020000019
:101520000060000003E000003E200003E020003ED9
:10153000200003E020000380200007FC2000003F83
:10154000E0000003FE2000003FE0000001E000009A
:101550000020000000200000000000000000020049
:1015600000200200002003FFFFE003FFFFE0020174
:1015700000200201002002010020020100200201DF
:101580000020030300200186806001FCC0C000F839
:101590007F8000001F000000000000000000000726
:1015A000F800003FFF000070078000C000C001008D
:1015B0000040030000200200002002000020020082
:1015C00000200200002001000040018000C003C094
:1015D0000180003006000000000000000000020052
:1015E00000200200002003FFFFE003FFFFE00200F5
:1015F0000020020000200200002002000020030062
:10160000006001000040018000C000F00780007F02
:10161000FE00000FF80000000000000000000200C3
:1016200000200200002003FFFFE003FFFFE00201B3
:10163000002002010020020100200201002002011E
:10164000002002038020020FE0200300006003C09E
:1016500000E0006003000000000000000000020045
:1016600000200200002003FFFFE003FFFFE0020173
:10167000002002010020020100000201000002011E
:1016800000000201000002038000030FE0000300DD
:10169000000003C000000060000000000000000720
:1016A000F800003FFE000070078001C001C001008B
:1016B0000040030000200200002002000020020081
:1016C0000020010020200100204003C03F800030A6
:1016D0003F800000200000002000020000200200E7
:1016E000002003FFFFE003FFFFE002008020020074
:1016F00080200000800000008000000080000200C8
:1017000080200200802003FFFFE003FFFFE00200D3
:101710000020020000200000000000000000000087
:101720000000000000000200002002000020020073
:1017300000200200002003FFFFE003FFFFE00200A3
:101740000020020000200200002002000020000013
:101750000000000000000000000000000000000089
:10176000000E0000000F0000000F0000000102004A
:10177000000102000001020000030200000603FF56
:10178000FFFC03FFFFF8020000000200000002005F
:101790000000020000000000000000000000020045
:1017A00000200200002003FFFFE003FFFFE0020033
:1017B000C0200201002000078000000FE000003080
:1017C000F80002603E2003800F20030003E00200C7
:1017D00000E00200002000000020000000000200E5
:1017E00000200200002003FFFFE003FFFFE00200F3
:1017F0000020020000200000002000000020000067
:101800000020000000200000002000000060000018
:1018100000E00000030000000000020000200200C1
:10182000002003FFFFE003E0002003FF0020001F73
:10183000F0000001FF8000000FE000001E00000328
:10184000E000003E002003E0002003FFFFE003FF74
:10185000FFE0020000200200002002000020020041
:10186000002003FFFFE00380002003F0002000FCC5
:101870000000001F00000007C0000001F000000091
:101880007C0002001F80020007E003FFFFE002006F
:101890000000020000000000000000000000000F37
:1018A000F800003FFE0000F00780018000C001004A
:1018B0000040020000200200002002000020020080
:1018C000002001000040018000C000F00380003FC4
:1018D000FE00000FF8000000000000000000020001
:1018E00000200200002003FFFFE003FFFFE00200F2
:1018F00080200200802002008000020080000200A0
:10190000800002008000030180000183000000FECF
:101910000000007C00000000000000000000000F3C
:10192000F800007FFF0000F00380018001C001008B
:1019300006400200042002000420020006200200EB
:1019400003E0010000F80180005C00E0038C003F30
:10195000FF0C000FFC180000000000000000020057
:1019600000200200002003FFFFE003FFFFE0020170
:10197000002002010020020180000201E0000201BB
:10198000FC0003033F80018607E001FC00E000F853
:101990000020000000200000000000000000000007
:1019A00000000078060000FE01E0018600C003038D
:1019B0000040020300200201802002018020020179
:1019C000C0200200C0200100E060018070C003E080
:1019D0003F8000001F0000000000000000000060C9
:1019E000000003800000030000000200000002006D
:1019F00000200200002003FFFFE003FFFFE00200E1
:101A0000002002000020020000000200000003800D
:101A1000000000E0000000000000020000000200E2
:101A2000000003FFFF0003FFFFC0020000400200B0
:101A300000600000002000000020000000200000E6
:101A40000020020000400200008003FFFF000200AF
:101A50000000020000000000000000000000020082
:101A600000000200000003C0000003FC0000023F71
:101A7000C0000003F80000007F80000007E00000C5
:101A80000780000078000203C000023C000003C091
:101A9000000002000000020000000200000003C07D
:101AA000000003FF8000023FFE0002007FE0000014
:101AB0000F000200F00003EF000003FF8000020FA0
:101AC000FE0000003FE000001F000207E00003F8F6
:101AD00000000300000002000000000000000200FF
:101AE000002002000020038000E003F0032002FC3D
:101AF0000C20021F30000007C0000007F000021891
:101B00007C0002601F20038003E0020000E002006E
:101B10000020000000200000000000000000020083
:101B200000000300000003C0000003F80000023EB4
:101B30000020020FC0200001FFE000007FE0000352
:101B40008020021C002002700000038000000200C0
:101B50000000020000000000000000000000000083
:101B60000020006000E0038003E003000FA00200FB
:101B70003E200200F8200203E020020F8020023EF7
:101B800000200278002003E00060038000E00200F3
:101B90000300000000000000000000000000000042
:101BA0000000000000000000000000000000000035
:101BB00000001FFFFFFC10000004100000041000D4
:101BC00000041000000410000004100000041000C5
:101BD0000004000000000000000000000000000001
:101BE0000000000000000700000003C000000078B3
:101BF0000000001E00000003C0000000F000000014
