:020000040800F2
:10000000781B0020B50200085F5900088B430008E8
:100010005D590008C11E00086D8B0008000000003B
:10002000000000000000000000000000B96E0008A1
:10003000052200080000000067690008F983000835
:10004000CF020008CF020008CF020008CF0200084C
:10005000CF020008CF020008CF020008CF0200083C
:10006000CF020008CF020008CF020008CF0200082C
:10007000CF020008CF020008CF020008CF0200081C
:10008000CF020008CF020008CF020008CF0200080C
:10009000CF020008CF020008CF020008CF020008FC
:1000A000CF020008CF020008CF020008CF020008EC
:1000B000CF020008CF020008CF020008CF020008DC
:1000C000CF020008CF020008CF020008CF020008CC
:1000D000CF020008358A0008718A0008AD8A00083E
:1000E000CF020008CF020008CF020008CF020008AC
:1000F000CF020008CF020008CF020008CF0200089C
:10010000CF020008CF020008CF020008CF0200088B
:10011000CF020008CF020008A1840008BD840008B7
:10012000CF020008CF020008CF020008CF0200086B
:100130003D210008CF020008CF020008CF020008CE
:10014000CF020008CF020008CF020008CF0200084B
:10015000CF020008CF020008CF020008E98A000899
:10016000CF020008CF020008CF020008CF0200082B
:10017000CF020008CF020008CF02000800000000F4
:10018000CF020008CF02000800F002F800F083F868
:100190000AA090E8000C82448344AAF10107DA45E2
:1001A00001D100F078F8AFF2090EBAE80F0013F0B1
:1001B000010F18BFFB1A43F001031847689A0100AA
:1001C000889A01000A444FF0000C10F8013B13F02C
:1001D000070408BF10F8014B1D1108BF10F8015BA0
:1001E000641E05D010F8016B641E01F8016BF9D193
:1001F00013F0080F1EBF10F8014BAD1C0C1B09D1EA
:100200006D1E58BF01F801CBFAD505E014F8016B5B
:1002100001F8016B6D1EF9D59142D6D370470000ED
:100220000023002400250026103A28BF78C1FBD8FF
:10023000520728BF30C148BF0B60704766290BF0DA
:10024000ED8703681B0A28BF41F08001642900F094
:100250007581752900F07281782900F01482E429F3
:1002600000F0A881F52900F0A581632900F0E98656
:10027000732900F0EE86002070471FB50BF0C9FF10
:1002800000F0FEFE0400002000210BF027FCE060DF
:100290001FBD10B510BD00F0B1FF1146FFF7EDFF17
:1002A0000AF034F900F0CFFF03B4FFF7F2FF03BC0C
:1002B00008F0A3FD0948804709480047FEE7FEE72C
:1002C000FEE7FEE7FEE7FEE7FEE7FEE7FEE7FEE706
:1002D00004480549054A064B704700009184000810
:1002E0008901000878150020781B0020781700206D
:1002F00078170020704753EA020C00F069802DE95E
:10030000F04B4FF00006002B1FBFB3FA83F503FA42
:1003100005F424FA05F65E4012BF1643B2FA82F5E0
:1003200002FA05F4C5F120051EBF22FA05FC44EAD5
:100330000C04203556EA044C4FEA144418BF641CE0
:100340004FF000084FF00009904271EB030C39D3D5
:10035000002919BFB1FA81F701FA07F6B0FA80F760
:1003600000FA07F6C7F120071EBF20FA07FC46EA8D
:100370000C062037B6FBF4FCA7EB0507103F07F08F
:100380001F0BCBF120060CFA0BFB2CFA06F644BF30
:10039000B3460026202FA4BF5E464FF0000B5BEA59
:1003A000060C08BF4FF0010B19EB0B09ABFB027CED
:1003B00048EB0608C01B06FB02CC0BFB03CC71EB21
:1003C0000C01C1E70B46024641464846BDE8F08BAA
:1003D00013B54FF000004FF00001AFF30080BDE80F
:1003E0001C407047B2F120030AD5C2F1200301FA84
:1003F00002F120FA03F300FA02F041EA0301704728
:1004000000FA03F14FF000007047B2F120030AD563
:10041000C2F1200320FA02F001FA03F321FA02F1FB
:1004200040EA0300704721FA03F04FF000017047E3
:10043000B2F120030AD5C2F1200320FA02F001FA3A
:1004400003F341FA02F140EA0300704741FA03F076
:100450004FEAE171704700000FB4044910B503AAD8
:10046000029800F0FBFD10BC5DF814FB18000020A2
:100470000FB41CB5084B06AA7B446946009005984A
:1004800000F0BDFD04460020694600F0CBFD20468B
:100490001CBC5DF814FB0000A90B000070B50446FD
:1004A00085690068C10601D5302600E02026C00716
:1004B00007D070BDD4E9012130469047206A401C26
:1004C00020626D1EF6D570BD70B504468569007852
:1004D000C00707D170BDD4E9012120209047206AD0
:1004E000401C20626D1EF6D570BD70B50C460546E9
:1004F000012A05D02878800600D5EA69002302E0A9
:10050000012305E05B1C934202D2E05C0028F9D194
:10051000A869E618C01AA861286A18442862284603
:10052000FFF7BCFF04E0D5E9012114F8010B904767
:10053000B442F8D32846FFF7C7FF70BD2DE9F0415C
:100540000646002410687529314616A510D0AFF371
:100550000080002802DA404213A507E031688A07CC
:1005600001D512A502E0490704D511A5012401E037
:10057000AFF3008000210A2206F1240709E0B0FB56
:10058000F2FCB0FBF2F302FB1C003030785418464A
:10059000491C0028F3D123462A463046BDE8F041E5
:1005A00000F0BFBA000000002D0000002B0000008A
:1005B000200000002DE9F0418046D21D22F0070204
:1005C0000025D2E90002F52915A614D0011E72F10A
:1005D000000106DA0023D0EB030063EB020211A650
:1005E00008E0D8F800108B0701D50FA602E04907F4
:1005F00001D50EA601251146002408F1240704E0C8
:1006000000F04AFA30323A55641C50EA0102F7D140
:100610002B46324621464046BDE8F04100F081BA03
:10062000000000002D0000002B0000002000000052
:10063000F0B40D460188090502D5214C7C4402E046
:100640001F4C7C440E34002100F1240608E002F027
:100650000F071209E75D42EA03721B097754491C30
:1006600052EA0307F3D102780023120704D5702D54
:1006700006D009B1022311342246F0BC00F051BA71
:1006800001231034F8E770B504460D462146106882
:10069000AFF30080024629462046BDE870400023A3
:1006A000C6E7D21D22F00703D3E90023C0E70368A1
:1006B000126843F0200303600823C3610023B7E7F7
:1006C0001C8401002DE9F05F894604464FF0000AC2
:1006D000DFF874B1FB44C0F820A02046E1688847E9
:1006E000002874D0252806D0D4E901219047206A3B
:1006F000401C2062F1E700265F462046E1688847FB
:100700002028054607DB312D05D2781910F8200C7A
:1007100008B10643F1E7B00701D526F00406C4F896
:100720001CA00027C4F818A02A2D09D0284608F0DC
:100730005DFB38B304EB8708303DC8F8185019E06A
:1007400059F8041B204604EB87029161E168884751
:10075000012F054618D1E069002820DA26F020068E
:100760001DE0D8F8180000EB800005EB40003038A1
:10077000C8F818002046E1688847054608F036FBAF
:100780000028EED1012F0AD02E2D08D12046E16895
:1007900088477F1C0546022F46F02006C4DBA0696F
:1007A000002803DA404246F00106A061F00701D0BC
:1007B00026F010066C2D0BD0682D09D04C2D39D0A9
:1007C0006A2D35D0742D35D07A2D33D016E038E02F
:1007D000E1682F4620468847B842054609D16C2F6C
:1007E00026D04FF48060E1680643204688470546DE
:1007F00004E06C2F1AD04FF4807006430DB3A5F1BE
:100800004100192802D8203546F400664A46294698
:10081000204626604E46FFF711FD80B101280BD01F
:10082000F61D26F0070000F1080956E74020E4E72E
:100830008020D8E70020D6E706F104094DE72846D6
:1008400052E7206ABDE8F09FAC83010040EA010353
:10085000024630B59B0710D14FF0013400E008C2CA
:1008600008C91D1B9D4315EAC41FF8D013F0FF01F2
:1008700002F8011B0DD01B0AF8E711F8013B002B11
:1008800002F8013B05D011F8013B002B02F8013BB7
:10089000F3D130BD10B5431C02E010F8011B71B15B
:1008A0008107FAD14FF0013202C88C1A8C4314EA46
:1008B000C211F9D0C01A0A0603D0C01E10BDC01A5A
:1008C00010BD0A0401D0801E10BD0902FCD0401EDC
:1008D00010BD032A40F2308010F0030C00F01580A8
:1008E00011F8013BBCF1020F624498BF11F801CB33
:1008F00000F8013B38BF11F8013BA2F1040298BF98
:1009000000F801CB38BF00F8013B11F0030300F001
:100910002580083AC0F0088051F8043B083A51F8A5
:1009200004CBA0E80810F5E7121D5CBF51F8043BAA
:1009300040F8043BAFF30080D20724BF11F8013B1D
:1009400011F801CB48BF11F8012B24BF00F8013B7F
:1009500000F801CB48BF00F8012B704710B5203AD2
:10096000C0F00B80B1E81850203AA0E81850B1E868
:100970001850A0E81850BFF4F5AF5FEA027C24BF1E
:10098000B1E81850A0E8185044BF18C918C0BDE815
:1009900010405FEA827C24BF51F8043B40F8043BDE
:1009A00008BF7047D20728BF31F8023B48BF11F893
:1009B000012B28BF20F8023B48BF00F8012B7047ED
:1009C0004FF0000200B5134694469646203922BFE8
:1009D000A0E80C50A0E80C50B1F12001BFF4F7AF33
:1009E000090728BFA0E80C5048BF0CC05DF804EB15
:1009F000890028BF40F8042B08BF704748BF20F883
:100A0000022B11F0804F18BF00F8012B7047000037
:100A10004FF0013C50F8042B51F8043B9A4221D18D
:100A2000A2EB0C03934313EACC1317D150F8042B19
:100A300051F8043B9A4215D1A2EB0C03934313EAFD
:100A4000CC130BD150F8042B51F8043B9A4209D136
:100A5000A2EB0C03934313EACC13DBD04FF000005E
:100A6000704700BFD01A01BAB1FA81F101F0180144
:100A700022FA01F0CB40C1F12001DBB2C0B2C01AB2
:100A80002CFA01F3D11A914311EAC311E6D1704750
:100A9000704770477047704730B5B0F10A024FEAAF
:100AA000900E71F100034EEA817EB0EB0E0061EB17
:100AB00091014FEA101E4EEA017E10EB0E0041EB51
:100AC00011114FEA102E4EEA016E10EB0E0041EBB1
:100AD00011214FEA104E4EEA014E10EB0E0041EB91
:100AE0001141401841F100014FEAD00040EA417045
:100AF0004FEAD10110EB80054FEA810444EA90747B
:100B000044EB01046D1944EB0404521BA3414FF064
:100B1000000348BF0A3200D530BD401C41F100013E
:100B200030BD2DE9F0470D4699469246044600F146
:100B300024080168880604D5E06921F010012160CD
:100B400000E00120A84201DD471B00E00027A16969
:100B50007A1902EB0900081AA0612078C00602D4B5
:100B60002046FFF79BFC002608E0D4E901211AF893
:100B700006009047206A401C761C20624E45F4DB3C
:100B80002078C0060AD52046FFF788FC06E0D4E9A5
:100B9000012130209047206A401C2062381EA7F1B6
:100BA0000107F4DC07E0D4E9012118F805009047BB
:100BB000206A401C2062281EA5F10105F3DC2046B6
:100BC000FFF782FC2078000602D50220BDE8F087FE
:100BD0000120FBE770472DE9FF4F0C461E464FF002
:100BE000FF378BB0D2E90001DDF860800A908A46B9
:100BF000C1F30A5505B93D46002108464FF00000F3
:100C0000BAF1000F00F4400005DA00EB80004FF469
:100C1000400101EA50004FEA9059B9F1010F00DD9F
:100C2000B9460A9850EA4A000ED044F61050A5F290
:100C3000FF3545432F14B8F1000F1ED07542291E11
:100C40001EDDC9F100021CE0B8F1010F4FF00000F9
:100C500001D0302103E0F24305E02154401CB042B2
:100C6000FBDB30460022002121540B99C1F808809B
:100C7000C1E900200FB0BDE8F08FBD1B6D1CDEE7A1
:100C80004A4600DA694206A800F03EFA06AB93E84D
:100C9000070003AB83E8070050460A9900F0DCFA2E
:100CA0008DE80700A0F500501F3800900398002D34
:100CB0000ADD42F21F014A460844002303A90390BB
:100CC000684600F045FD09E0A0F500504A461F388F
:100CD000002303A90390684600F04FFD8DE807004C
:100CE0000004000C03D04FF0FF30410800E0104634
:100CF000B8F1000F03D00022009215461EE0751EC9
:100D000005D4FFF7C9FE303262556D1EF9D5B346E2
:100D10000122084302D000227F1C04E02078302802
:100D200001D100227F1E002A099784D01DE0112DD9
:100D300007DAFFF7B1FE303262556D1C50EA01024E
:100D4000F5D1084302D00098C8B10EE00021681E1A
:100D500005E0235C625C63542254401E491C8142BE
:100D6000F7DBAB46A81B401E0990002004F80B00DF
:100D70000B98099AC0F80880C0E9002B7AE7112681
:100D80004FF0000857E72DE9F04F88460446D21D82
:100D900022F0070191B0D1E90001CDE90A0107F085
:100DA000FDFF02460B98C00F01D02D2007E0206800
:100DB000810701D52B2002E0202101EAC000032A8F
:100DC000099001D0072A05DB03464146204600F082
:100DD0005BF90BE12078800601D5E06900E0062090
:100DE000B8F1650F814606D0B8F1660F18D0B8F19A
:100DF000670F70D131E00020B9F1110F009001DBD5
:100E0000112301E009F101030AAA01A90CA8FFF7C7
:100E1000E2FEDDE90C70002609F10105834647E09A
:100E200001204B4600904FF000470AAA01A90CA8E8
:100E3000FFF7D1FEDDE90DB00C995D46002610B933
:100E400009F101000D18B9EB050003D4C0F1FF361C
:100E500009F10105A5EB09002BE0B9F1010F01DA59
:100E60004FF001090020B9F1110F0090484601DD53
:100E7000112300E003460AAA01A90CA8FFF7ABFE64
:100E8000DDE90C704D4600268346207800070AD421
:100E9000AB4500DA5D4601A8012D04DD411911F8CA
:100EA000011C302907D04F4502DA17F1040F04DA8C
:100EB000012082460FE06D1EEEE7002F02DCED1BE5
:100EC0003E4403E0781CA84200DD7D1CB81B00F105
:100ED000010A4FF000472078000703D4AA4501DB40
:100EE0004FF0FF3A0021B7F1004F0DF143088DF8A4
:100EF000431024D002202B23002F01DA7F422D2320
:100F00000A21021EA0F1010000DC5FB197FBF1FC99
:100F100097FBF1F201FB1C7C17460CF1300C08F832
:100F200001CDEEE7A8F1010003702188090501D584
:100F3000452100E06521A0F1010800F8011C099895
:100F40000FA9A1EB0807FF1D00B10120411901EB1A
:100F5000EA70A1693844081A401EA0612078C006D2
:100F600002D42046FFF79AFA099828B1D4E9012162
:100F70009047206A401C20622078C00622D5204677
:100F8000FFF78CFA1EE0002E04DBB34502DD01A85A
:100F9000805D00E03020D4E901219047206A401CA8
:100FA0002062761CAAF101005FEA000A0AD100F073
:100FB00067F8C0680168405CD4E901219047206A65
:100FC000401C2062281EA5F10105DCDC07E0D4E905
:100FD000012118F8010B9047206A401C2062381E3E
:100FE000A7F10107F3DC2046FFF76EFA032011B0EA
:100FF00041E6000001694A1C02610878704700B5AB
:101000008FB0CDE901310021059105497944CDE941
:10101000031011466846FFF755FB0FB000BD0000F6
:10102000E5FFFFFF0A6802F8010B0A60704710B580
:10103000436913B1AFF3008001E0FFF756FA0120D6
:1010400010BD127800F124010A7000224A700122BA
:10105000EDE711684FF0FF32E9E70000074B70B58C
:101060000D467B44FFF7CBFF0446284600F0BEF850
:1010700010B14FF0FF3070BD204670BDBF91000031
:1010800000487047381500202DE9F0411F460446FE
:1010900003260168072A01F4006004DB08B116A5E5
:1010A00005E016A503E008B115A500E015A521F09F
:1010B00010002060A069C01EA0610FB1401EA06199
:1010C0002046FFF7EBF94FB1D4E9012138469047AC
:1010D000206A401C2062C01C206206E0206AFAE7F9
:1010E000D4E9012115F8010B9047761EF8D220466D
:1010F000FFF7EAF9BDE8F0814E414E006E616E00E7
:10110000494E4600696E66002DE9F0478146164655
:101110008AB0354878440DC88DE80D0032487844CF
:10112000801C03AC0DC884E80D0041F69B300844D8
:10113000372190FBF1F290FBF1F5A5F1800501FB61
:1011400012041B3C02D56442012000E00020DFF8BD
:1011500098A080460027FA44AAF1BE0A0EE0E007F4
:101160000AD03246684607EB470101230AEB8101AA
:1011700000F003FB8DE8070064107F1C002CEED10B
:10118000194F7F44AE3F19E0E80715D007EB041074
:101190000DF1180A90E80E008AE80E00C068F042CF
:1011A00001D1981908903246012306A903A800F03E
:1011B000E4FA03AB83E807006D10641C002DE3D153
:1011C0004FF0010332466946B8F1000F03A802D080
:1011D00000F0BEFA01E000F0D0FAC9E90001C9F858
:1011E00008200AB0BDE8F087FC790100007B00F020
:1011F0008000704700487047181500207546FFF7BB
:10120000F9FFAE4605006946534620F007008546C3
:1012100018B020B5FFF75CF8BDE820404FF000069D
:101220004FF000074FF000084FF0000B21F00701CE
:10123000AC46ACE8C009ACE8C009ACE8C009ACE811
:10124000C0098D46704710B50446AFF300802046B4
:10125000BDE81040FFF728B85FEA400C08BF91F0E6
:10126000000F4FEA8C234FEAC12243EA51514FEA63
:101270001C5018BF00F5F0404FEA300018BF41F095
:1012800000415FEA6C5C00F02980BCF1FF3F08BFC1
:1012900040F080407047130C06BF12044FF0100C52
:1012A0004FF0000C130E04BF12020CF1080C130FC8
:1012B00004BF12010CF1040C930F04BF92000CF157
:1012C000020CD30F04BF52000CF1010C11464FF079
:1012D0000002A0F11F00A0EB0C00704711F0004FBE
:1012E00008BF704731F000413FF4D5AF0B0C06BF8B
:1012F00009044FF0100C4FF0000C0B0E04BF090254
:101300000CF1080C0B0F04BF09010CF1040C8B0F3E
:1013100004BF89000CF1020CCB0F04BF49000CF193
:10132000010CCCF12003A0EB0C0022FA03F302FA2B
:101330000CF241EA030100F10100704720F07F4CFC
:1013400080EA030023F07F47ACEB070303F57C53EF
:1013500000F0004003F1FF032DE980494FEA154BEF
:1013600009B44FEA144325EA0B4E24EA03480FF26E
:10137000042606EB132749083E785FEA320203FB96
:101380000667C7F5000707FB06F64FEA54374FEA32
:10139000D64606F1020607FB066CCCF1005C4FEA6C
:1013A0001C472CEA074C07FB06F40CFB06F504EB84
:1013B00015464FEA961634BF00204FF000404FEA22
:1013C000D13706FB07FC4FEA1C4C0CFB0BF7D21B7A
:1013D00003FB0CF761EB07010CFB0EF7B0EB0740CA
:1013E00072EB17420CFB08F734BFA2EB0742B2EBDB
:1013F000074261EB17414FEA0C444FEA910706FBA5
:1014000007FC4FEA1C4C0CFB0BF7B0EBC74072EB30
:10141000573203FB0CF734BFA2EBC742B2EBC74213
:1014200061EB57310CFB0EF7B0EBC70072EB577254
:101430000CFB08F734BFA2EBC702B2EBC70261EBAB
:101440005771039F4FEA816141EA921104EBCC048A
:101450004FEAD1374FEA826206FB07FC42EA90125C
:101460004FEA80604FEA1C4C0CFB0BF7D21B03FBCE
:101470000CF761EB07010CFB0EF7B0EB074072EBCA
:1014800017420CFB08F734BFA2EB0742B2EB07424E
:1014900061EB17414FEA8C554FEA910704EB9C240E
:1014A00006FB07FC4FEA1C4C0CFB0BF7B0EBC740EC
:1014B00072EB573203FB0CF734BFA2EBC742B2EB1F
:1014C000C74261EB57310CFB0EF7B0EBC70072EB74
:1014D00057720CFB08F734BFA2EBC702B2EBC7028E
:1014E00061EB577115EB4C254FEA816141EA92118E
:1014F0004FEA82624FEAD13742EA901206FB07FCBC
:1015000044F100044FEA80604FEA1C4C0CFB0BF7DF
:10151000D21B03FB0CF761EB07010CFB0EF7B0EBE2
:10152000074072EB17420CFB08F734BFA2EB0742EF
:10153000B2EB074261EB174115EB1C154FEA813105
:1015400041EA92414FEA823242EA90424FEA8030C9
:101550004FEA0C7644F1000448EA03434EEA0B4894
:101560004FF0000EB2EB080C71EB030724BF62468C
:1015700039464EEB0E0E4FF0000B00185241494118
:101580004BEB0B0BB2EB080C71EB03077BF1000B81
:1015900024BF624639464EEB0E0E4FF0000B00188A
:1015A000524149414BEB0B0BB2EB080C71EB0307BB
:1015B0007BF1000B24BF624639464EEB0E0E51EA1A
:1015C000020718BF46F0010616EB0E7655F1000231
:1015D00054F1000103D5BDE88901BDE80088BDE8EC
:1015E0008901BDE80048B619524141EB0101A3F160
:1015F0000103704780807F7E7D7C7B7A7978777667
:1016000076757473727171706F6E6E6D6C6C6B6ADF
:101610006A6968686766666564646363626161607D
:10162000605F5F5E5E5D5D5C5C5B5B5A5A595958FA
:101630005857575656555555545453535252525164
:10164000515050504F4F4F4E4E4D4D4D4C4C4C4BBA
:101650004B4B4A4A4A494949484848474747474601
:10166000464645454544444444434343434242423D
:1016700042414141002B9C4630D477002BD01CB511
:101680004FEA370703B44FF010004FF01001BAF1E2
:10169000000F06D0BCF1000FDCBF40F0080040F0A6
:1016A00008014FF000000FBCBDE810400BF1010B2A
:1016B000BBF1010F08BF5FEA170722BF12F1010259
:1016C00011F101014FF0004143F1000300F000402F
:1016D00043EA00007047F9D35708D0E746EA0646C8
:1016E00013F1400F4FEA16461FDD13F1200FDFBF45
:1016F00016430A46002120335B42BED0C3F12007C7
:1017000046EA064602FA07F74FEA164646EA070691
:10171000C3F1200722FA03F201FA07F721FA03F1D5
:101720004FF0000342EA0702A7E746EA020646EA4C
:1017300006464FEA164646EA0106BCBF46EA06469A
:10174000360C4FF000034FF000024FF0000194E719
:101750002DE9804C9A46934670B491E8380007C84A
:1017600031EA400C48BF34EA430C03D5FFF7E6FDED
:10177000FFF780FFF0BCBDE8008C2DE9804C9A4655
:10178000934670B491E8380007C810F0804F08BF46
:1017900013F0804F03D100F005F8FFF76BFFF0BCAA
:1017A000BDE8008C20F07F4780EA030023F07F4CE7
:1017B00007EB0C03A3F57C5300F00040A3F1FE03FC
:1017C00092F0000F00F0B38095F0000F00F07780EA
:1017D0002DE901494FEA11404FEA144621EA004839
:1017E00000FB06FC24EA064708FB06F607FB08F8A0
:1017F00000FB07F718EB06484CEB164C4FEA124B70
:1018000018EB07484FEA15464CEB174022EA0B4EFF
:101810000BFB06FC25EA06470EFB06F607FB0EFE51
:101820000BFB07F71EEB064E4CEB164C4FF0000679
:101830001EEB074E4CEB174B18EB0B0840F100006A
:1018400018EB0E0B58EB000840F100008F1A4FF018
:1018500000013CBFC943661B14BFB5EB040C00215B
:101860003CBFC943F61B4FEA17444EEA8E0E27EAE7
:1018700004454FEA1C4704FB07622CEA074C05FBB2
:1018800007F70CFB05F604FB0CFC16EB074642EBD6
:10189000174216EB0C4642EB1C421BEB060658EBBC
:1018A0000202414146EA9E0601D5BDE80189B6190A
:1018B000524141EB0101A3F10103BDE801894FEA67
:1018C00014454FEA114724EA054621EA074C05FB77
:1018D00007F406FB07F70CFB06F105FB0CFC11EB0C
:1018E000074144EB17444FEA124711EB0C4144EB1C
:1018F0001C4422EA074C05FB07F206FB07F70CFB2A
:1019000006F605FB0CFC16EB074642EB174216EBFE
:101910000C4642EB1C456A1854F1000148BF704761
:10192000B619524141EB0101A3F10103704795F053
:10193000000F37D04FEA11424FEA144721EA02461E
:1019400024EA074C02FB07F106FB07F70CFB06F441
:1019500002FB0CFC14EB074441EB17414FEA15471F
:1019600014EB0C4441EB1C4125EA074C02FB07F544
:1019700006FB07F70CFB06F602FB0CFC16EB074612
:1019800045EB174516EB0C4645EB1C42121951F17D
:10199000000148BF7047B619524141EB0101A3F164
:1019A000010370474FEA14454FEA114724EA054600
:1019B00021EA074C05FB07F106FB07F70CFB06F2D3
:1019C0004FF0000605FB0CFC12EB074241EB174100
:1019D00012EB0C4251EB1C4148BF7047921841EB8F
:1019E0000101A3F10103704710B50146806B026C41
:1019F00012F0500F05D0026CD20626D500F0E6FD9D
:101A000010BD016C41F40071016401688A6812F034
:101A1000405F17D1027EAAB9CA6A12F4700F02D0D1
:101A20008A6852050ED44A6822F020024A60016C8E
:101A300021F480710164016CC90403D4016C41F08C
:101A40000101016400F0C0FD10BD806BC26CBDE8F7
:101A500010400846104710B5806B40210164416C6E
:101A600041F00401416400F0B1FD10BD10B5806B80
:101A700000F0ABFD10BD0000464910B54A6822F4E5
:101A800040324A604A6843681A434A6001684A68BB
:101A900022F480724A6001684A68036942EA0322BC
:101AA0004A6001684A6822F040724A6001684A68E8
:101AB00083681A434A6001688A6822F400628A6077
:101AC00001688A68C3681A438A60816A6FF070622D
:101AD000D14201688A6822F070628A6001688A686F
:101AE0000CD0836A1A438A6001688A6822F04052E7
:101AF0008A6001688A68C36A1A4301E022F0405292
:101B00008A6001688A6822F002028A6001688A6835
:101B1000037E42EA43028A6090F82010002901689F
:101B20004A680FD042F400624A6001684A6822F4B1
:101B300060424A6001684A68174C436A04EB4333C9
:101B40001A4301E022F400624A600168CA6A22F482
:101B50007002CA620168CA6A838B104C04EB03539B
:101B60001A43CA6201688A6822F400728A600168B6
:101B70008A6890F8303042EA43228A6001688A68B5
:101B800022F480628A6001688A68406942EA8020A3
:101B9000886010BD0023014000E0FFFF0000F0FF5F
:101BA0002DE9F04116460F460546642801D264250A
:101BB00004E04FF4FA50854200D905460A2F00D2BE
:101BC0000A2706B9012607F03FFC124C07205021D6
:101BD000607065602174790821816181267300211C
:101BE0006173012222706274E181A17C284641F078
:101BF0000101A17407F0C6FB207C07F0F5FB07F09C
:101C000013FC33463A462946BDE8F0410248FEF748
:101C100023BC0000580B00202C8B01082DE9F0415B
:101C2000DFF814C10746454E9CF800000025012846
:101C300002D03560BDE8F081306800287AD0BCF869
:101C40000E104FF6FF72531A381A834202D2ACF8C4
:101C50000E2002E00844ACF80E00374B9CF812004E
:101C60004FF001045FEAC07E5A7C188959895B688D
:101C700039D0BAB1BCF80E10644681425AD307F08D
:101C8000E3FBE5816574607B401CC1B26173227B1C
:101C90002BA0FEF7E1FB607B217B88424AD32573B2
:101CA00025701CE0BCF80E00884243D3ACF80E50FF
:101CB0009CF80D009CF80C1088420CD26546184622
:101CC00007F060FB287C07F08FFB07F0ADFB6C741E
:101CD000697B26A02BE08CF80C508CF800502BA0D0
:101CE000FEF7BAFB26E07AB1BCF80E10814221D390
:101CF0006446ACF80E5007F0A7FB6574607B401C8F
:101D0000C1B261732BA013E0BCF80E00884211D35E
:101D10002846ACF80E006546184607F033FB287CD1
:101D200007F062FB07F080FB6C74697B2BA0491CF9
:101D3000FEF792FB37607DE7580B0020F000002093
:101D4000414C4552543A20E692ADE694BEE5AE8C45
:101D5000E68890E7ACAC2564E6ACA1EFBC8CE680ED
:101D6000BBE585B12564E6ACA10A0000414C4552B3
:101D7000543A20E5BC80E5A78BE7ACAC2564E6AC23
:101D8000A1E692ADE694BE0A00000000414C455227
:101D9000543A20E692ADE694BEE5AE8CE68890EF2C
:101DA000BC8CE78AB6E68081E8AEBEE4B8BA4944A6
:101DB0004C450A00414C4552543A20E6B0B8E4B9CB
:101DC00085E692ADE694BEEFBC8CE5AE8CE68890DD
:101DD000E7ACAC2564E6ACA10A000000414C4552DA
:101DE000543A20E6B0B8E4B985E692ADE694BEEF89
:101DF000BC8CE5BC80E5A78BE7ACAC2564E6ACA168
:101E00000A0000000F4842788168007872B1012A08
:101E10000ED0022A14D10A2207280CD008280FD18C
:101E2000B1FBF2F081B2042000F03CB989B2FBE7CB
:101E300089B200F003B9B1FBF2F081B20320F3E7FD
:101E40007047000054130020074A4FF47A5110885D
:101E500048430911B0FBF1F000F57A6081B251807E
:101E6000052000F0EBB800004A03002070B50546DD
:101E70000E4CC00704D00EA12046FEF7F9FA044428
:101E8000A80704D50BA12046FEF7F2FA0444680720
:101E900004D509A12046FEF7EBFA0444E80603D571
:101EA00006A12046FEF7E4FA004870BD00150020A8
:101EB0007200000077000000730000006D00000059
:101EC000FEE710B5012000F0C3FA0146012008F03A
:101ED00009FD022000F0BCFA0146022008F002FDD4
:101EE000032000F0B5FA0146032008F0FBFC0420B3
:101EF00000F0AEFA0146042008F0F4FC012000F0E6
:101F00005FFA0146012008F0E9F8022000F058FAD3
:101F10000146BDE81040022008F0E0B810B52D4998
:101F20009FED2D0ADFED2D0A2D4C2DED028BB2EE2B
:101F3000048A0A68C968DFED2B8A491C092846D241
:101F4000DFE800F0450507090B1E20303200106C59
:101F500004E0D06B02E0906B00E0506B80B201EEC9
:101F6000100AB8EE411A21EE001A00EE101AF8EE2F
:101F7000401A81EE210A20EE200ABDEC028B10BD32
:101F8000002100E01021184800F063FC94ED000AE5
:101F900080B260EE280A00EE100AB8EE400A20EE89
:101FA000800A11E0906B00E0506B80B201EE100AE5
:101FB000B8EE411A21EE001A00EE101AF8EE401A9F
:101FC00081EE210A20EE200A20EE080AD5E79FEDD7
:101FD000070AD2E7001100200000C842CDCCCC3D5A
:101FE0000001002000008039EC10002000000000FB
:101FF00010B5411F032907D8052807D0062807D0A8
:1020000007280AD008280AD0002010BD012000E0CF
:102010000220BDE8104000F0D3B9032000E0042006
:1020200000F016FA00EB8000400010BD411E0329AD
:1020300001D800F00DBA00207047000010B50C4622
:10204000052813D0062817D00A21154A07281CD0C6
:10205000082823D1B4FBF1F0D080901D04F05CFF80
:1020600021460420BDE8104008F0ECBB012005F03B
:1020700079F82146012004E0022005F073F821469A
:102080000220BDE8104008F029B8B4FBF1F09080C0
:10209000101D04F041FF21460320E3E710BD0000BE
:1020A0000A15002070B50546401E0C4603281CD8B2
:1020B0000E48012D06D0022D07D0032D08D0042D87
:1020C0000DD108E00480094807E020F8024F04E041
:1020D00020F8044F01E020F8064F04F01DFF2146D0
:1020E0002846BDE8704008F0FDBB70BD0A15002011
:1020F000044B012804D001222021184600F093BE91
:102100000022F9E700100240044B012804D001220C
:102110004021184600F087BE0022F9E70010024077
:10212000054B4FF40051012803D00122184600F05E
:102130007ABE0022FAE70000000802400648006864
:10214000800608D505490120087003480830016859
:1021500041F020010160704704640240F800002053
:1021600001681823CAB2103AB2FBF3F2054B6FF3C1
:102170000901032A9B5CC36500D9091D81650846D6
:102180007047000020C2000810B5014600208B698E
:102190008A6A4FF0C07453B1B3F5005F15D072B1C5
:1021A000012A0CD0022A0AD0032A09D104E01AB16C
:1021B000012A06D0022A03D1C96AC90100D501202B
:1021C00010BDC96AA142FAD010BD002AF7D0012A79
:1021D000F2D0022AF3D0032AF3D010BD30B5046840
:1021E000256825F480252560046863608368402B9A
:1021F000036803D099600068C26030BD9A600068CF
:10220000C16030BD7047000003490878002801D044
:10221000401E087070470000100500202DE9FF4F98
:1022200083B090460E460746002514464FE000BF97
:10223000381BA6EB050902901FFA89F180B2069AB5
:1022400002F0C6FA381901901FFA89F180B2069A95
:1022500002F0BEFA301981B2A7EB050900901FFA0F
:1022600089F0069A02F0B4FAA6EB040B1FFA8BF180
:102270001FFA89F0069A02F0ABFA019806EB050AFC
:102280001FFA8AF180B2069A02F0A2FA07EB05095A
:102290001FFA8BF11FFA89F0069A02F099FA00985A
:1022A000069A81B21FFA89F002F092FA02981FFA98
:1022B0008AF180B2069A02F08BFA6D1C05FB05F0DC
:1022C00004FB040118FB08F0814200DD641EA542F6
:1022D000AEDD07B0BDE8F08F72B6FEE710B502F0D4
:1022E000A9F8BDE8104001A0FEF7B6B8E68AA5E857
:1022F000ADA6E68F90E7A4BAE99FB3E7AEA1E79059
:1023000086E599A8E5889DE5A78BE58C96E5AE8CDA
:10231000E68890EFBC810A0070B502F0F5F8032161
:10232000114807F0F5F81149002007F04FF910495E
:10233000012007F04BF90F49022007F047F94FF44D
:10234000FA7440F2DC5522462946002007F0AAF82C
:1023500022462946012007F0A5F8BDE87040C821B3
:10236000022007F081B8000028000020955D0008D9
:10237000C9600008ED62000810B502F0FFF8BDE882
:1023800010400321014807F06BBA0000AC000020A8
:1023900002F040B970B50022042483880CE000BF2D
:1023A000056804EB4216AD5B8D4203D1006800EB7B
:1023B000421070BD521C92B29342F1D8002070BD01
:1023C0000549012803D0022803D00020704708895E
:1023D00070474889704700000A1500202DE9F04138
:1023E0000F4B062400220425196808269B8813E059
:1023F00005EB4217CF5B874207D10146234609A070
:10240000FEF72AF82046BDE8F08106EB4217A41C2F
:10241000CF5B521C3C4492B29342E9D80020F2E7D1
:1024200048050020466F756E6420706172616D20F2
:10243000494420256420617420696E6465782025F4
:10244000642C20616464723A20256C750A000000D7
:102450000949012807D0022807D0032807D00428FB
:1024600007D00020704708887047488870478888E0
:102470007047C888704700000A15002078B500240E
:10248000009490F83C20012A19D0012280F83C20C9
:102490000A6807230568092A13D9EE680A3A02EB8D
:1024A000420293409E43EE600B788A680A3B03EB3E
:1024B00043039A400368DD682A43DA6010E0022093
:1024C00078BD2E6902EB420293409E432E610B7849
:1024D0008A6803EB43039A4003681D692A431A6123
:1024E0004A681F23072A13D205686E6B521E02EB3F
:1024F000820293409E436E630B790A885B1E92B200
:1025000003EB83039A4003685D6B2A435A6327E019
:1025100005680D2A12D22E6BD21F02EB8202934065
:102520009E432E630B790A88DB1F92B203EB830371
:102530009A4003681D6B2A431A6311E0EE6A0D3A54
:1025400002EB820293409E43EE620B790A880D3BB8
:1025500092B203EB83039A400368DD6A2A43DA628E
:10256000164B0568144A9D4206D10D68122D03D101
:10257000556845F48005556005689D4218D10B6883
:10258000102B01D0112B13D1536843F40003536077
:10259000096810290CD10A490A4A0968B1FBF2F10D
:1025A00001EB8101490000E0491E00910029FBD1A7
:1025B00080F83C40002078BD00230140002001400D
:1025C0000C00002040420F0070477047704770B504
:1025D00004004FF0000503D0206C002610B107E086
:1025E000012070BD204600F01DF8666484F83C6050
:1025F000206CC00610D4206C20F4885040F00200FB
:1026000020642046FFF738FA6664206C20F0020050
:1026100040F00100206400E0012584F83C60284679
:1026200070BD000070B586B0044614216846FEF700
:10263000C7F91949206888422BD11848002401683D
:1026400041F480710160006800F4807005901348C7
:102650001438016841F004010160016801F00401CF
:102660000591016841F00101016000680F2500F04B
:102670000100009505900326CDE9016469460848EC
:1026800000F0D4FA0095CDE901646946054800F0F0
:10269000CDFA06B070BD0000002001404438024071
:1026A0000008024000000240F8B50E460021044632
:1026B000009190F83C0013460A46012807D00120FB
:1026C00084F83C0020688568ED0702D011E0022004
:1026D000F8BD856845F0010585604048404D0068BB
:1026E000B0FBF5F000EB400000E0401E0090002839
:1026F000FBD120688568ED0503D5856825F48075D4
:10270000856020688568ED075DD0226C40F2016528
:10271000AA4342F4807222644068400505D5206CCB
:1027200020F4005040F480502064206CC00404D594
:10273000606C20F00600606400E0616484F83C1086
:10274000A16B2948274DC863A16B28480864A16B79
:102750002748C86421686FF022000860206841683B
:1027600041F0806141602068816841F4807181603E
:10277000216832464C31A06B00F01DFA02466868B1
:102780001C49C006206806D0884224D1816811F017
:10279000405F13D01FE08842F8D0174B984203D116
:1027A000D1F80433DB06F1D0144B984213D1D1F8A1
:1027B000041301F01F011029E8D30CE0816841F0F7
:1027C0008041816007E0206C40F010002064606C64
:1027D00040F0010060641046F8BD00000C000020CD
:1027E00040420F0000230140E91900086D1A00085B
:1027F000571A00080020014000210140002201403A
:10280000704770B500B3F9B14379012B1ED0012692
:1028100046710223037105682C6802F0100340F62C
:10282000FE729A409443D1E900210A439A40224320
:102830002A6001680A68C0249C40A2430A600671AD
:1028400000214171084670BD012070BD022070BD9D
:102850007047006809B1006B7047C06A70472DE986
:10286000F041044600680668456BB1044FF0040768
:1028700010D5A9040ED52771216941F0010121610C
:10288000F90241632068016821F48051016020460B
:10289000FFF7DEFFB00014D5A80012D5277120691C
:1028A00040F00200206121684FF00050486320682A
:1028B000016821F0805101602046BDE8F041FFF73A
:1028C0009FBFBDE8F08170B5040003D020790025DA
:1028D00010B105E0012070BD6571204600F008F8D8
:1028E00002202071256101202071002070BD0000B0
:1028F00010B586B0044614216846FEF761F8154904
:102900002068884224D114480021026842F0005215
:102910000260006800F0005005900F48103802680F
:1029200042F001020260006800F0010005903020D2
:1029300000900320CDE901016946084800F076F9CE
:1029400000221146362000F0E1FA362000F0D0FADD
:1029500006B010BD00740040403802400000024044
:1029600018B50024009440B100680090104431B1C3
:10297000143000900360002018BD012018BD0830FD
:10298000F7E770B508B34279012A20D001224271DD
:10299000022303710468266801F0100302FA03F5AC
:1029A0002E4326600029016813D00C6804F47015CA
:1029B0003C249C40A54203D14B6843F002034B608A
:1029C000027100214171084670BD012070BD0220D6
:1029D00070BD0B68C3F383030F2BF1D14B6843F039
:1029E0000103ECE72DE9F0410446876D00F020FA81
:1029F000064694F835000025022806D08020606540
:102A000084F834500120BDE8F0812068016821F08D
:102A1000160101602068416921F080014161206C4C
:102A200008B9A06C20B12068016821F0080101609C
:102A30002068016821F0010101600CE000F0F8F964
:102A4000801B052807D920206065032084F8350005
:102A500084F83450D7E720680068C007EED194F8B6
:102A60005C103F208840B860012084F8350084F86D
:102A700034500020C7E790F83510022903D0802198
:102A8000416501207047052180F835100068016814
:102A900021F0010101600020704700002DE9F041A4
:102AA000044600F0C5F906465CB1022084F8350002
:102AB000002584F834502068016821F0010101608C
:102AC0000DE00120BDE8F08100F0B2F9801B05287F
:102AD00005D920206065032084F83500F2E72068DE
:102AE0000068C007F0D12268116820480140D4E98D
:102AF00001031843D4E90336334318436369184389
:102B0000A3691843E3691843236A18430843616AB9
:102B1000042903D1D4E90B1319430843106020683A
:102B20004069666A20F0070130460E4301270428F9
:102B30000CD1A06A0643E06A40B12046FFF724FBAF
:102B400020B14020606584F83570BAE7206846619E
:102B50002046FFF705FB94F85C203F2191408160FF
:102B6000656584F835700020ACE700003F8010F008
:102B700070B5044690F83400002501280CD00120DF
:102B800084F8340094F835600020012E06D084F8D3
:102B900034000225284670BD022070BD022684F84C
:102BA000356060652046FFF719FB2068016841F039
:102BB00001010160EEE72DE9F0410446866D90F8D1
:102BC0003400002501280DD0012084F8340094F849
:102BD00035700020012F07D084F8340002252846E4
:102BE000BDE8F0810220FBE7022784F835706065BC
:102BF0002046FFF7F3FA94F85C103F208840B0605D
:102C00002068016841F016010160206C20B1206845
:102C1000016841F0080101602068016841F001018C
:102C20000160DCE780B207F0DDBA00002DE9F84F63
:102C3000DFF8BCA10022012503264FF00F090AF19D
:102C4000040BAAF1040E00BF0B6805FA02F423403E
:102C5000A34270D10F7907F00307012F01D0022F93
:102C600016D187684FEA420806FA08FC27EA0C07E3
:102C7000D1F80CC00CFA08FC4CEA070CC0F808C0EC
:102C80004768A7430C79C4F3001494403C43446064
:102C90000C79E443A4070AD0C4684FEA420C06FA50
:102CA0000CF7BC438F6807FA0CF72743C7600C7911
:102CB00004F00304022C12D1D40800EB840CDCF8DD
:102CC00020405707FF0E09FA07F824EA0804D1F854
:102CD000108008FA07F848EA0408CCF82080046855
:102CE0004FEA420C06FA0CF7BC430F7907F00307D2
:102CF00007FA0CF7274307604C6814F4403F70D084
:102D00003C4C276847F480472760246822F003077B
:102D100004F480440094384C07EB040CDCF80848B9
:102D200097074FEA177809FA08F7BC43334FB842C0
:102D300002D1002724E054E0314FB84201D10127ED
:102D40001EE0304FB84201D1022719E02E4FB842A1
:102D500001D1032714E02D4FB84201D104270FE021
:102D60002B4FB84201D105270AE02A4FB84201D1C2
:102D7000062705E0284FB84201D1072700E00827C1
:102D800007FA08F72743CCF80878DAF800405746E6
:102D9000D1F804C09C435FEACC2C00D51C433C60B6
:102DA000DBF800405F46D1F804C09C435FEA8C2CFE
:102DB00000D51C433C60DEF800407746D1F804C0E3
:102DC0009C435FEA8C3C00D51C433C60084F083FA5
:102DD0003C68D1F804C09C435FEACC3C00D51C435E
:102DE0003C60521C102AFFF42FAFBDE8F88F0000A2
:102DF000083C0140443802400030014000000240DD
:102E00000004024000080240000C02400010024092
:102E10000014024000180240001C024000690840F3
:102E200000D0012070470AB1816170470904FBE7B7
:102E30000148806870470000000000200248816857
:102E40000278114481607047000000200B4810B5E3
:102E5000016841F400710160016841F48061016022
:102E6000016841F480710160032000F06FF80F20C9
:102E700000F006F800F024F8002010BD003C0240ED
:102E800070B50D4D04464FF47A712878B1FBF0F01F
:102E90000A490968B1FBF0F000F096FC48B9102C23
:102EA00007D200222146501E00F030F800206C604E
:102EB00070BD012070BD0000000000200C0000204B
:102EC0000A4808B5016841F480410160006800F4D7
:102ED000804000900548001F016841F0805101606A
:102EE000006800F08050009008BD000044380240A7
:102EF000002809DB00F01F020121914040098000F9
:102F000000F1E020C0F8001170470000F0B40E4B53
:102F10001B680C46C3F30223C3F10705042D00D937
:102F20000425191D072901D2002300E0DB1E01261C
:102F300006FA05F1491E214099409E40761E164032
:102F40003143F0BC05F042BF0CED00E0064900F053
:102F5000070208684FF6FF03184040EA0220034AC0
:102F600010430860704700000CED00E00000FA0517
:102F70002DE9F0470E46050065D0DFF81481D8F83A
:102F80000000F7B200F00700B04207D288F80070E6
:102F9000D8F8000000F00700B04254D128683D4C3A
:102FA000810712D5400703D5206840F4E050206027
:102FB0002878000703D5206840F46040206020682E
:102FC000A96820F0F000084320602878C0072DD0C1
:102FD000304968680839012812D0022813D0032824
:102FE00011D00968890700292DDA216821F0030131
:102FF00001432160FFF71CFF814641F2883A0EE051
:1030000009688903EFE709688901ECE7FFF710FF1A
:10301000A0EB0901514502D90320BDE8F0872068E3
:10302000696800F00C00B0EB810FEFD1D8F8001008
:10303000404601F00701B14207D90770006800F06F
:103040000700B04201D00120E7E72878400705D506
:103050002068E96820F4E0500843206028780007E1
:1030600006D52068296920F4604040EAC10020604C
:1030700000F038F82168084AC1F30311515CC840D8
:103080000649086006480068FFF7FAFE0020C4E71A
:10309000003C02400838024028C200080C00002012
:1030A000040000200448054900680968044AC1F387
:1030B0008221515CC84070470C0000200838024053
:1030C00038C200080448054900680968044AC1F389
:1030D0004231515CC84070470C0000200838024063
:1030E00038C20008154810B5006810F00C021448EA
:1030F00013D01449042A0FD0082A0ED10F4C241FD4
:103100002268236802F03F025B0207D52068C0F303
:103110008810A0FB010106E0084610BD2168C1F33C
:103120008811A1FB00010023FDF7E5F82168C1F338
:103130000141491C4900B0FBF1F010BD08380240C4
:103140000024F40040787D012DE9F84F04006ED092
:103150002078DFF84C93C007A9F104054AD009F1A3
:1031600004000168C1F38101012908D00068C0F39F
:10317000810002280AD1D9F80000400206D528684B
:10318000800337D560680028E1D033E06068B0F58F
:10319000803F10D0B0F5A02F286810D020F48030E8
:1031A0002860286820F4802028606068A8B1FFF7B4
:1031B0003FFE06460DE0286840F48030F4E740F416
:1031C00080202860F7E700BFFFF732FE801B6428ED
:1031D00073D828688003F7D50CE0FFF729FE064670
:1031E00005E000BFFFF724FE801B6428F0D82868A4
:1031F0008003F7D42078DFF8AC8280074FF0000A14
:103200003ED5A748001D016811F00C0F08D00068DA
:10321000C0F3810002280BD1D9F80000400207D486
:103220002868800716D5E068012800D112E033E154
:10323000E068B8B10120C8F80000FFF7F9FD0646C4
:1032400005E000BFFFF7F4FD801B0228C0D8286806
:103250008007F7D52868216920F0F80040EAC1000E
:1032600028600DE0C8F800A0FFF7E2FD064604E084
:10327000FFF7DEFD801B02281FD828688007F7D4DF
:103280002078000722D5864F87486169703771B171
:1032900001210160FFF7CCFD064604E0FFF7C8FD01
:1032A000801B022809D838688007F7D50EE0C0F8DF
:1032B00000A0FFF7BDFD064605E082E0FFF7B8FD80
:1032C000801B02287DD838688007F7D42078400713
:1032D00068D5DFF8CCB100270BF13C0BDBF8000020
:1032E000C0000BD4DBF8001041F08051CBF8001087
:1032F000DBF80000012700F0805000906B4E306832
:10330000C00510D4306840F480703060FFF790FD45
:10331000009005E0FFF78CFD0099401A022850D874
:103320003068C005F6D55E4EA0686C3601280FD017
:103330000528306810D020F001003060306820F09F
:1033400004003060A068B8B1FFF772FD00900FE094
:10335000306840F00100F4E740F004003060F7E727
:10336000FFF766FD0099411A41F28830814266D824
:1033700030688007F4D50EE0FFF75AFD009007E0B3
:10338000FFF756FD0099411A41F28830814256D824
:1033900030688007F4D42FB1DBF8001021F08051A1
:1033A000CBF80010A069C8B33D49091D0968C1F3F5
:1033B000810102294AD00228504607D0C8F860008F
:1033C00000E03CE0FFF734FD04463BE04746C8F828
:1033D0006000FFF72DFD064605E000BFFFF728FD62
:1033E000801B02282BD828688001F7D4D4E9070174
:1033F0000843A16A2E4A490802EB0141626A41EA88
:103400008211084394F82C1040EA0161C9F80010B9
:1034100001203866FFF70CFD044606E03EE000BFE1
:10342000FFF706FD001B022809D828688001F7D5A0
:1034300034E000BFFFF7FCFC001B022802D9032088
:10344000BDE8F88F28688001F4D427E00128F7D080
:10345000D9F80000E26900F4800191421CD1226A8F
:1034600000F03F01914217D147F6C071626A0140F6
:10347000B1EB821F10D1A26A4FF0FF3300F440314C
:1034800003EB5202B1EB024F06D194F82C1000F07E
:103490007060B0EB016F01D00120D1E70020CFE7D1
:1034A0000438024000004742800E4742007000404E
:1034B0000000FFFF70B5040009D0606A002540B12C
:1034C00025616561A56294F8510040B10CE00120CE
:1034D00070BD6068B0F5827FF4D0E561F2E784F8F2
:1034E0005050204600F044F8022084F85100206833
:1034F000016821F040010160A088218900F48270F8
:1035000001F404410843A18901F400610843217CCE
:1035100001F002010843217D01F001010843218BE4
:1035200001F400710843217F01F03801084394F849
:10353000201001F080010843218D01F4005108435F
:1035400021680860A069042101EA104094F8241061
:1035500001F010010843216848602068C16921F426
:103560000061C1616565012084F85100002070BDD3
:1035700010B586B0044614216846FDF721FA1349B8
:103580002068884220D112480021026842F480520B
:103590000260006800F4805005900D4814380268FD
:1035A00042F002020260006800F00200059038203C
:1035B00000900220CDE90101032003900520049032
:1035C00069460448FFF732FB06B010BD00300140E9
:1035D00044380240000402402DE9FF4F81B01D46EF
:1035E000934604464FF001090E9EFFF721FC074663
:1035F00094F851006168012806D0B1F5827F3CD172
:10360000A168C9BB042838D10298002871D0BBF149
:10361000000FFBD0002DF9D094F8500001282CD0D9
:103620004FF0010A84F850A094F85100042802D009
:10363000052084F851004FF00008C4F85480C4F805
:1036400038B0E587A58702992163E586A586C4F889
:103650004080C4F8448020680168490603D40168AA
:1036600041F040010160E068B0F5006F606808D08B
:10367000F0B3012D49D081E0FFE7022005B0BDE89D
:10368000F08F08B1012D39D1206B21680088C86006
:10369000206B801C2063E08E401EE0862EE02068B8
:1036A000816889070FD5E18E69B1B9F1010F0AD19F
:1036B000216B0988C160206B801C2063E08E401E56
:1036C000E0864FF0000920688168C9070CD0E18FBF
:1036D00051B1C068A16B0880A06B801CA063E08F13
:1036E000401EE0874FF00109FFF7A2FBC01B01E07D
:1036F0000BE067E0B04201D3701C50D1E08E00288F
:10370000CDD1E08F0028CAD13EE0206B216800783F
:103710000873206B401C2063E08E401EE0862DE085
:103720002068816889070FD5E18E69B1B9F1010F71
:103730000AD1216B09780173206B401C2063E08E55
:10374000401EE0864FF0000920688168C9070CD050
:10375000E18F51B1C068A16B0870A06B401CA063E1
:10376000E08F401EE0874FF00109FFF761FBC01BAF
:10377000B04202D3701C01D011E086B1E08E002867
:10378000CED1E08F0028CBD13A463146204603F017
:10379000FFFA50B12020606584F8508012E084F870
:1037A00051A084F85080032068E7A06818B9206809
:1037B000C1688068009084F851A084F85080606DE2
:1037C0000028F1D0012059E710B5401EB0F1807FEC
:1037D00001D3012010BD4FF0E02460610F2160177C
:1037E00005F0F4FA0020A06107202061002010BD40
:1037F0007047704710B590F83C20012A22D0012272
:1038000080F83C20CA688C6822F4407222434C68DD
:1038100022F4806222430C6822F4006222430C6985
:1038200022F4805222434C6922F400522243C96997
:10383000002322F480420A4301684A6480F83C3045
:10384000002010BD022010BD70B590F83C20012A68
:1038500032D0012480F83C40022280F83D200368E9
:103860005A689D6822F070060A6832435A60134B0A
:1038700002689A4214D0B2F1804F11D0104B9A4294
:103880000ED0104B9A420BD00F4B9A4208D00F4BE0
:103890009A4205D00E4B9A4202D00E4B9A4204D166
:1038A000496825F080031943916080F83D4000216C
:1038B00080F83C10084670BD022070BD0000014039
:1038C0000004004000080040000C004000040140DB
:1038D000004001400018004010B5040003D094F8E7
:1038E0003D0010B107E0012010BD002084F83C002D
:1038F000204600F01FF8022084F83D00211D2068BA
:1039000004F0F6FD012084F8460084F83E0084F8B7
:103910003F0084F8400084F8410084F8420084F8B5
:10392000430084F8440084F8450084F83D000020FA
:1039300010BD000008B500680B49884212D10B4841
:10394000016841F0100101600068002200F01000E1
:10395000009011463620FFF7D9FABDE8084036201E
:10396000FFF7C6BA08BD0000001000404038024012
:1039700090F83D10012901D001207047022180F804
:103980003D100168CA6842F00102CA60006811492E
:10399000884214D0B0F1804F11D00F4988420ED028
:1039A0000E4988420BD00E49884208D00D49884202
:1039B00005D00D49884202D00C49884204D1816863
:1039C00001F00701062903D0016841F001010160FF
:1039D0000020704700000140000400400008004043
:1039E000000C00400004014000400140001800406D
:1039F00070472DE9F04104460068C66805694FF03C
:103A00000007A90713D5B10711D5F91E01610120DF
:103A10002077206880698007204602D0FFF7E8FF02
:103A200004E000F07EF8204600F06CF92777680784
:103A300016D5700714D521686FF0040008610220C4
:103A400020772068806910F4407F204602D0FFF77D
:103A5000CFFF04E000F065F8204600F053F9277727
:103A6000280715D5300713D521686FF008000861C5
:103A7000042020772068C0698007204602D0FFF725
:103A8000B7FF04E000F04DF8204600F03BF927773F
:103A9000E80616D5F00614D521686FF0100008610D
:103AA000082020772068C06910F4407F204602D0AB
:103AB000FFF79EFF04E000F034F8204600F022F902
:103AC0002777E80708D0F00706D021686FF00100DB
:103AD0000861204600F0BAF9280608D5300606D558
:103AE00021686FF0800008612046FFF781FE6806BC
:103AF00008D5700606D521686FF0400008612046A1
:103B000000F0AEF9A8060AD5B00608D521686FF016
:103B1000200008612046BDE8F041FFF76ABEBDE81D
:103B2000F081704770B5044690F83C0000260D46C1
:103B300001280FD0012084F83C006AB1042A1DD06E
:103B4000082A2FD00C2A3FD00126002084F83C0000
:103B5000304670BD022070BD206804F03FFD206833
:103B6000816941F0080181612068816921F00401C7
:103B70008161206881692A69114311E0206804F09D
:103B80005DFD2068816941F400618161206881697F
:103B900021F480618161206881692A6941EA0221FA
:103BA0008161D2E7206804F07FFD2068C16941F09F
:103BB0000801C1612068C16921F00401C161206868
:103BC000C1692A69114311E0206804F0A1FD206851
:103BD000C16941F40061C1612068C16921F480615B
:103BE000C1612068C1692A6941EA0221C161ACE76B
:103BF00010B5040003D094F83D0010B107E0012097
:103C000010BD002084F83C00204600F01FF8022080
:103C100084F83D00211D206804F06AFC012084F82E
:103C2000460084F83E0084F83F0084F8400084F8A1
:103C3000410084F8420084F8430084F8440084F88A
:103C4000450084F83D00002010BD000070B50068FC
:103C5000294986B088424DD12848016841F00101C8
:103C600001600068254C00F00100143C05902068BC
:103C700040F0100020602068012500F01000059041
:103C80004FF4804000900220CDE90105CDE9030505
:103C90001B4E69463046FEF7C9FF206840F0100011
:103CA00020602068694600F01000059068030090CD
:103CB00004953046FEF7BAFF206840F010002060FF
:103CC0002068694600F010000590E014009004950B
:103CD0003046FEF7ABFF206840F0100020602068FF
:103CE000694600F01000059060150090049530467C
:103CF000FEF79CFF06B070BD000001404438024052
:103D0000001002407047000010B50446022249B17D
:103D100004290ED0082913D094F84100012816D0A8
:103D2000012010BD94F83E000128F9D184F83E200E
:103D30000FE094F83F000128F2D184F83F2008E01A
:103D400094F840000128EBD184F8402001E084F889
:103D500041200122206804F033FC16492068164AED
:103D6000884201D0904203D1436C43F40043436442
:103D70002068884213D0B0F1804F10D00F4988429C
:103D80000DD00F4988420AD00E49884207D0904290
:103D900005D00D49884202D00C49884204D181687F
:103DA00001F00701062903D0016841F0010101601B
:103DB000002010BD0000014000040140000400404C
:103DC00000080040000C0040004001400018004086
:103DD00030B504460D460068002204F0F1FB194B93
:103DE00041F2111120688A10984202D0164B984275
:103DF00009D1036A0B4206D1036A134203D1436C13
:103E000023F4004343642068036A0B4206D1016A2D
:103E1000114203D1016821F00101016001203DB18F
:103E2000042D08D0082D09D084F84100002030BDB1
:103E300084F83E00FAE784F83F00F7E784F8400092
:103E4000F4E700000000014000040140006803495D
:103E5000884201D106F096B870470000001000407B
:103E60007047704770470000F8B50168044608685D
:103E7000CA684B6910F00F0F4FF0000559D003F0DE
:103E8000010602F49077374365D0C10705D0D1050C
:103E900003D5616C41F001016164410705D5D90783
:103EA00003D0616C41F002016164810705D5D90737
:103EB00003D0616C41F004016164010707D502F091
:103EC0002001314303D0616C41F008016164616CF1
:103ED00000293AD0800604D5900602D5204604F089
:103EE0006DFC20684069616CC0F38010090700D444
:103EF00060B3204604F03BFC20684069400621D5B1
:103F00002068143050E8001F21F0400140E8001202
:103F1000002AF5D1E06BA8B172490165E06BFEF7AC
:103F2000AAFD002811D0E06B016D01B0BDE8F040A2
:103F3000084783060FD593060DD52046BDE8F84007
:103F400004F03CBC2046FFF78DFFF8BD2046FFF78C
:103F500089FF6564F8BD266B2023012E7ED1C6063D
:103F60007CD5D6067AD508684868009048694FF035
:103F7000020640064DD5E26B106840684FF480772A
:103F80000004000C3AD0A18D814237D9E085D06978
:103F9000B8422DD020680C3050E8001F21F4807109
:103FA00040E80012002AF5D12068143050E8001FC4
:103FB00021F0010140E80012002AF5D120681430F8
:103FC00050E8001F21F0400140E80012002AF5D11E
:103FD00084F84230256320680C3050E8001F21F03F
:103FE000100140E80012002AF5D1E06BFEF7FAFC60
:103FF0006663A08DE18D401A81B206E0A18D8142F9
:10400000A8D1D069B842A5D166632046FFF729FF41
:10401000F8BDA08DE18D401A81B2E08D0028F7D067
:104020000029F5D020680C3050E8002F22F490725F
:1040300040E80027002FF5D12068143050E8002F09
:1040400022F0010240E80027002FF5D184F8423029
:10405000256320680C3050E8002F00E006E022F0D5
:10406000100240E80023002BF3D1CDE705062BD545
:10407000150629D594F841002128C9D1A068B0F5CA
:10408000805F01D12069B0B1206A411C21622168A2
:1040900000784860E08C401E0004000CE084B7D13A
:1040A0002068C16821F08001C1602068C16841F0CA
:1040B0004001C160F8BD206A0088C0F30800486074
:1040C000206A801C2062E5E74006F3D55006F1D552
:1040D000CA68204622F04002CA6084F8413000F0ED
:1040E00053F9F8BD6187000870B5040004D094F856
:1040F0004100002510B106E0012070BD84F8405059
:10410000204600F023F8242084F841002068C1688C
:1041100021F40051C160204604F0B2FB206801691F
:1041200021F4904101612068416921F02A01416137
:104130002068C16841F40051C1606564202084F8A2
:10414000410084F842006563002070BD10B586B060
:10415000044614216846FCF733FC13492068884262
:1041600020D112480021026842F02002026000685B
:1041700000F0200005900D481438026842F0040257
:104180000260006800F004000590C020009002204A
:10419000CDE90101032003900820049069460448FA
:1041A000FEF744FD06B010BD001401404438024043
:1041B000000802402DE9F84F044690F842009A4664
:1041C00016460D46202802D00220BDE8F88FB5B172
:1041D000AEB100206064222184F842102063FEF713
:1041E00027FEA6858146E685A0684FF480582027E3
:1041F000404501D1206920B12E46002529E001204B
:10420000E3E7002625E04B46002220212046CDF89A
:1042100000A004F0D6FB18B184F842700320D4E764
:1042200026B1A06840451AD038B108E0206840683F
:10423000C0F3080025F8020B08E0206978B1206877
:10424000406800F07F0000BF06F8010BE08D401EC3
:10425000E085E08D0028D6D184F84270B5E720686B
:104260004068F1E790F84230202B01D002207047DF
:1042700021B11AB10023036304F088BB0120704709
:1042800030B400681549884225D1154841880A0490
:1042900016D402464C0412784FF0000304D50A2AC3
:1042A0000DD141F4004114E00D2A10D0C1F30D04EA
:1042B0000C4D491C89B22A554180C72900D9438039
:1042C0000848012230BC0649C830FFF7CBBF41F493
:1042D00080414180F4E730BC704700000014014089
:1042E00014000020E40900202DE9F843044690F86A
:1042F0004100984616460D46202802D00220BDE80F
:10430000F88385B17EB100206064212084F84100EB
:10431000FEF78EFDA6848146E684A0682027B0F5CE
:10432000805F02D003E00120E9E7206910B12E464A
:1043300000250EE000260CE08021204604F041FB21
:10434000A8B9C6B116F8010B21684860E08C401E80
:10435000E084E08C4B464FF00002CDF8008000284E
:10436000EAD14FF04001204604F02BFB40B184F825
:1043700041700320C3E735F8020BC0F30800E3E700
:1043800084F841700020BAE77047FEE7024A012135
:10439000024805F0C9BA0000F978000814010020AD
:1043A00070B51249002005F011F91149012005F0FE
:1043B0000DF91049022005F009F94FF4C8744FF4C3
:1043C000966522462946002005F06CF822462946CB
:1043D000012005F067F800224FF4FA61022005F091
:1043E00061F8054901204870087070BD355B000810
:1043F0004D5E0008816100080C01002010B5FEF739
:1044000017FD05494A68821AB2F5FA7F02D348605F
:104410000120487010BD00000C01002010B50448B8
:1044200004F0B6FDBDE810404FF4E17004F060BD4B
:10443000C00C0020084800214622017041704160F4
:104440000181418101734173C18102744174817C96
:1044500021F0010181747047580B00202DE9F041D3
:10446000214C42F2107200210225012653002070D7
:10447000092836D2DFE800F035050A13181D222777
:104480002C0061706180A280012003E06170618076
:10449000A2800220FDF7CAFDA06014A020E0617098
:1044A0006180A2800320F5E761706180A280042012
:1044B000F0E766706180A38005200DE06670618082
:1044C000A380062008E065706180A380072003E0D8
:1044D00065706180A3800820FDF78AFDA06004A0BC
:1044E000E060BDE8F0810000541300206D5600002C
:1044F0007541000010B5012005F0A4FDBDE8104095
:10450000022005F09FBD0000F0B51A4887B00024D6
:10451000016841F010010160016801F0100105918E
:10452000016841F010010160016801F0100105917E
:10453000016841F0100101600068012500F01000E1
:104540000590042002268DE871000B4F694638461D
:10455000FEF76CFB10208DE8710069463846FEF7C7
:1045600065FB08208DE8710069463846FEF75EFB62
:1045700007B0F0BD303802400010024070B522484C
:1045800086B0016841F010010160016801F010017E
:104590000591016841F010010160016801F010010E
:1045A0000591016841F0040101600068174D00F0B9
:1045B0000400059001200190029002200390202029
:1045C000009069462846FEF731FB4020009069467E
:1045D0002846FEF72BFB0E4E4FF40054694630463A
:1045E0000094FEF723FB012220212846FEF71BFC46
:1045F000012240212846FEF716FC012221463046C2
:10460000FEF711FC06B070BD3038024000100240C9
:104610000008024010B500220A4B10465FF0320439
:1046200002EB8201521C43F8210003EB8101D2B25C
:104630008880C880886008734C7388730861032A77
:10464000EED310BD6C0B00201F21FF2006F0A0B898
:104650001CB5002104468DF800108DF8041004F0FC
:10466000CBFD04F0B5FD18B114A0FBF7F5FE1CBDA1
:1046700018490922A1F1080005F08EFB012201A9C9
:10468000002004F0BBFD134904221039012004F07E
:10469000B5FD9DF804009DF8001088420AD00E4830
:1046A000FBF7DAFE01226946002004F0D8FD002065
:1046B00002F004FC204602F017FB1CBD32344330EC
:1046C0003220636865636B206661696C6564210AEA
:1046D000000000005005002080960108F0B5044657
:1046E0001D4616460F462A2000F026FE204600F002
:1046F00018FE304600F015FE2B2000F01DFE384657
:1047000000F00FFE284600F00CFEBDE8F0402C2023
:1047100000F012BE064808B50088002180B2009063
:104720004FF4F0734FF4A072084600F07EF808BD15
:10473000E00000202DE9FE4F161ACDE900104FF0E1
:1047400000085D1A47464FF0FF30002E02DD4FF0A3
:10475000010102E003D14FF000018B4602E08346E5
:10476000C6F10006002D02DD4FF0010002E003D18A
:104770004FF00000824602E08246C5F10005AE42DD
:1047800001DD344600E02C46601C4FF00009029029
:1047900019E000980C9A81B2019880B200F018F8E4
:1047A000B0442F44A04504DD0198A8EB0408584408
:1047B0000190A74203DD00983F1B5044009009F18F
:1047C00001001FFA80F902998945E2DBBDE8FE8FFE
:1047D00010B514460B460246FFF780FF2046BDE8A1
:1047E000104000F09EBD2DE9F8431D46089C16467A
:1047F000884607460B460094FFF79CFF3A462B4637
:10480000414610460094FFF795FF2B463246194665
:1048100038460094FFF78EFF32462B46414610463D
:104820000094FFF787FFBDE8F8832DE9F047804645
:104830001F46581E83B21646501E82B20C46404692
:10484000DDF82090FFF74AFF0AE0454604E04846BD
:1048500000F067FD6D1CADB2B542F8D3641CA4B284
:10486000BC42F2D3BDE8F0872DE9F04786B01421B1
:104870006846FCF7A5F839480021026842F00402B6
:104880000260026802F004020592026842F002022D
:104890000260026802F002020592026842F0080219
:1048A0000260026802F008020592026842F0080203
:1048B0000260026802F008020592026842F00802F3
:1048C0000260026802F008020592026842F00802E3
:1048D00002600068012400F0080005900220060331
:1048E000CDE902101E4DCDE9006469462846FEF769
:1048F0009DF9E703694628460097FEF797F9DFF828
:1049000064A02502694650460095FEF78FF94FF4E2
:10491000007869465046CDF80080FEF787F94FF4DD
:10492000006969465046CDF80090FEF77FF9019482
:104930002403694650460094FEF778F90848183079
:1049400006600760074818300560C0F80080C0F8AE
:104950000090046006B0BDE8F087000030380240E7
:1049600000040240000C024030B500224C081DE05B
:104970001D0602D4224492B217E00625B5EB531F60
:1049800003D10A4492B2801C10E00E25B5EB131F30
:1049900003D10A4492B2C01C08E01E25B5EBD30F28
:1049A00003D10A4492B2001D00E0401C0378002BA2
:1049B000DED1104630BD000038B5FFF755FF6F4C13
:1049C0004FF0807020606420FEF72CF9A015206065
:1049D0006420FEF727F9112000F0AEFC7820FEF7E6
:1049E00021F96748007800F0D1F83A2000F0A4FCE3
:1049F000052000F0ADFCB62000F09EFC0A2000F07F
:104A0000A7FC822000F0A4FC272000F0A1FC0020DD
:104A100000F09EFCB72000F08FFCC62000F098FC50
:104A2000C02000F089FC172000F092FC152000F057
:104A30008FFCC12000F080FC412000F089FCC520E3
:104A400000F07AFC002000F083FC122000F080FCD3
:104A5000802000F07DFCB12000F06EFC802000F092
:104A600077FC102000F074FC142000F071FCB220E0
:104A700000F062FC802000F06BFC102000F068FC6D
:104A8000142000F065FCF62000F056FC012000F038
:104A90005FFC002000F05CFC002000F059FCE020EE
:104AA00000F04AFCF02000F053FC012000F050FC24
:104AB000062000F04DFC0F2000F04AFC122000F010
:104AC00047FC1D2000F044FC362000F041FC54203F
:104AD00000F03EFC442000F03BFC0C2000F038FCD1
:104AE000182000F035FC162000F032FC132000F0F6
:104AF0002FFC152000F02CFCE12000F01DFCF02024
:104B000000F026FC012000F023FC052000F020FC32
:104B10000A2000F01DFC0B2000F01AFC072000F01A
:104B200017FC322000F014FC442000F011FC44205B
:104B300000F00EFC0C2000F00BFC182000F008FC2C
:104B4000172000F005FC132000F002FC162000F0F6
:104B5000FFFB202000F0F0FB0A4800214FF4F07327
:104B600000884FF4A07280B200900846FFF75DFE07
:104B7000BDE83840292000F0DFBB0000180C0240DF
:104B8000E4000020E00000207047000010B504465B
:104B9000032819D80D480470362000F0CDFB34B13D
:104BA000012C06D0022C0BD0032C05D10AE04820A2
:104BB00000E0882000F0CCFBBDE81040FFF7AABD64
:104BC0002820F7E7E820F5E710BD0000E40000200A
:104BD0002DE9FF4F81B00546DDF83C9000904FEA8B
:104BE00059074FF00008780700D0012000EBD700EC
:104BF00000FB09FB203AD0B2039002980299484486
:104C0000401E83B2E819401E82B22846FFF766FDB7
:104C100000245DE0B9F10C0F10D0B9F1100F08D0ED
:104C2000B9F1180F11D0B9F1200F15D0B9F1400F1B
:104C300017D02B48039900EB011016E0039829497F
:104C400000EB400001EB80000FE00398264900EBE9
:104C5000400001EB001008E02449039801EB8010AC
:104C600003E02349039801EB0020002610F804A07C
:104C7000109800284FF0010000FA06F000EA0A0040
:104C800011D020B12846049A0299FFF7A1FD6D1CAE
:104C90000098ADB2281AB84214D10298009D401C69
:104CA00080B2029012E008B1049800E00E9800F083
:104CB00038FB08F10100C0B2B0FBF7F1804607FBFA
:104CC000118050B1761CF6B2082ED1D3641CA4B268
:104CD0005C459FD305B0BDE8F08F4FF00008F5E7C5
:104CE000B4C6000840C20008A4CC000874DE000866
:104CF00034F600082DE9FE4F9A46DDE90D481746C7
:104D00008B460546DDF8309027E010062AD50620B0
:104D1000B0EB521F01D102260AE00E20B0EB121FA9
:104D200001D1032604E01E20B0EBD20F1AD10426D5
:104D30000C2C24D0102C2DD0182C36D0202C0FD198
:104D4000CDF80090CDE9014853463A4659462846E9
:104D500000F0A6F9281985B237443A78002AD4D150
:104D6000BDE8FE8FCDF80090CDE9014801265346FD
:104D700059462846FFF72CFF05EB5400EBE7CDF82A
:104D80000090CDE9014853463A465946284600F07E
:104D900017F8DFE7CDF80090CDE9014853463A46D1
:104DA0005946284600F088F8D4E7CDF80090CDE9C0
:104DB000014853463A465946284600F0F9F8C9E7F3
:104DC0002DE9FF4F83B00446DDE9115A00904FF002
:104DD0000008680700D0012000EBD50068430527D4
:104DE000DFF8D0900026019006EB4600C0EB46119C
:104DF00001EB090083460599FBF70AFE78B1761CA2
:104E0000B6B2BE42F0D310993F228DE8220420466C
:104E1000069B0499FFF7DCFE07B0BDE8F08F04980D
:104E200004992844401E83B26019401E82B2204675
:104E3000FFF754FC002735E000260BEB070900BF05
:104E4000BAF1000F99F805104FF0010000FA06F0D2
:104E500001EA000111D021B12046069A0499FFF71A
:104E6000B7FC641C0098A4B2201AA84214D104987C
:104E7000009C401C80B2049012E009B1069800E04A
:104E8000109800F04EFA08F10100C0B2B0FBF5F145
:104E9000804605FB118048B1761CF6B2082ECFD3B0
:104EA0007F1CFFB201988742C6D3B5E74FF00008D8
:104EB000F6E70000345501082DE9FF4F83B00446A2
:104EC000DDE9115A00904FF00008680700D001207A
:104ED00000EBD50068430527DFF8D090002601904D
:104EE00006EB860000EB461101EB090083460599AD
:104EF000FBF78EFD78B1761CB6B2BE42F0D31099A6
:104F00003F228DE822042046069B0499FFF760FEAD
:104F100007B0BDE8F08F049804992844401E83B27E
:104F20006019401E82B22046FFF7D8FB002735E00B
:104F300000260BEB070900BFBAF1000F99F8051026
:104F40004FF0010000FA06F001EA000111D021B192
:104F50002046069A0499FFF73BFC641C0098A4B213
:104F6000201AA84214D10498009C401C80B20490DE
:104F700012E009B1069800E0109800F0D2F908F1AB
:104F80000100C0B2B0FBF5F1804605FB118048B1CD
:104F9000761CF6B2082ECFD37F1CFFB20198874251
:104FA000C6D3B5E74FF00008F6E70000C555010885
:104FB0002DE9FF4F83B00446DDE9115A00904FF010
:104FC0000008680700D0012000EBD50068430627E1
:104FD000DFF8C890002601904D2000FB0690834624
:104FE0000599FBF715FD78B1761CB6B2BE42F3D336
:104FF00010993F228DE822042046069B0499FFF772
:10500000E7FD07B0BDE8F08F049804992844401EDE
:1050100083B26019401E82B22046FFF75FFB002773
:1050200034E000260BEB0709BAF1000F99F80510E0
:105030004FF0010000FA06F001EA000111D021B1A1
:105040002046069A0499FFF7C3FB641C0098A4B29B
:10505000201AA84214D10498009C401C80B20490ED
:1050600012E009B1069800E0109800F05AF908F132
:105070000100C0B2B0FBF5F1804605FB118048B1DC
:10508000761CF6B2082ECFD37F1CFFB20198874260
:10509000C7D3B6E74FF00008F6E700007E560108D8
:1050A0002DE9FF4F83B00446DDE9115A00904FF01F
:1050B0000008680700D0012000EBD50068433927BD
:1050C000DFF8D0900026019006EB860000EBC611B9
:1050D00001EB090083460599FBF79AFC78B1761C31
:1050E000B6B2BE42F0D310993F228DE8220420468A
:1050F000069B0499FFF76CFD07B0BDE8F08F04989C
:1051000004992844401E83B26019401E82B2204692
:10511000FFF7E4FA002735E000260BEB070900BF94
:10512000BAF1000F99F805104FF0010000FA06F0EF
:1051300001EA000111D021B12046069A0499FFF737
:1051400047FB641C0098A4B2201AA84214D104980A
:10515000009C401C80B2049012E009B1069800E067
:10516000109800F0DEF808F10100C0B2B0FBF5F1D4
:10517000804605FB118048B1761CF6B2082ECFD3CD
:105180007F1CFFB201988742C6D3B5E74FF00008F5
:10519000F6E700004C5801082DE9FF4F83B00026C8
:1051A000DDE911B81D4682464FEA58073446B1463C
:1051B0002CE0281B401EC1B20A2005F019FA0599FF
:1051C000B1FBF0F00A21B0FBF1F201FB120026B9AD
:1051D000691E8C4201DA58B101263030C2B204FB9C
:1051E00007A0CDF800B0CDE9018980B2109B08E09E
:1051F000CDF800B004FB07A0CDE90189109B80B277
:1052000020220499FFF7E4FC641CE4B2AC42D0D342
:1052100007B0BDE8F08F2DE9FF4F85B01446DDE9FA
:10522000136B05464FF0000862E006274FF00E09A9
:105230004FF01E0A2078010610D4C2B28DF80C205F
:105240008DF80D801298641C8DE841082846089B53
:105250000699FFF7BDFC05EB560048E0B7EB501F81
:105260000BD1C0B28DF80C0014F8010F002842D009
:105270008DF80D008DF80E802EE0B9EB101F11D1C6
:10528000C0B28DF80C0014F8010F002833D08DF84F
:105290000D0014F8010F00282DD08DF80E008DF8A8
:1052A0000F8019E0BAEBD00F28D1C0B28DF80C00F6
:1052B00014F8010F00281ED08DF80D0014F8010F0E
:1052C000002818D08DF80E0014F8010F002812D015
:1052D0008DF80F008DF810801298641C8DE841083D
:1052E00003AA2846089B0699FFF704FDA81985B272
:1052F0002078002899D109B0BDE8F08F12983F229C
:105300008DE841082846089B0699FFF761FCA8191B
:1053100085B214F8010F0028EDD000068AD5641C70
:10532000E6E710B50446000A00F012F8E0B2BDE866
:10533000104000F00DB8000010B5044C4FF00071A3
:10534000216000F005F86015206010BD180C0240C7
:10535000F0B50E4B4FF0006119604FF0005700217F
:10536000BD131E070A4AAC1017605FEA006C01D536
:10537000156000E0166014604006491C000EC9B2BA
:105380000829F1D34FF400601860F0BD180C0240FA
:105390001804024070B51449002004F017F91349AD
:1053A000012004F013F91249022004F00FF94FF420
:1053B000C8744FF4966522462946002004F072F81E
:1053C00022462946012004F06DF800224FF4FA61CC
:1053D000022004F067F80748007804F0B5FB06499E
:1053E00001204870087070BDCD5B0008E55E0008C4
:1053F000ED610008700600208C02002070B5124993
:10540000002004F0E3F81149012004F0DFF810490E
:10541000022004F0DBF84FF4C8744FF4966522467E
:105420002946002004F03EF822462946012004F0D7
:1054300039F800224FF4FA61022004F033F80549EC
:1054400001204870087070BD815B0008995E0008FB
:10545000B76100083C02002070B51249002004F03A
:10546000B5F81049022004F0B1F80E49012004F00B
:10547000ADF84FF4C8744FF49665224629460020D3
:1054800004F010F800224FF4FA61022004F00AF848
:1054900022462946012004F005F8034901204870FE
:1054A000087070BD096400082C01002070B5144913
:1054B000002004F08BF81349012004F087F812490A
:1054C000022004F083F84FF4C8744FF49665224626
:1054D0002946002003F0E6FF22462946012003F07A
:1054E000E1FF00224FF4FA61022003F0DBFF0748DE
:1054F000807804F029FB064901204870087070BDCF
:10550000195C0008315F0008236200087006002063
:10551000DC02002010B51149002004F057F81049B2
:10552000012004F053F80F49022004F04FF86422E0
:10553000D4002146002003F0B5FF6422214601205B
:1055400003F0B0FF002240F6B831022003F0AAFFBA
:10555000054901204870087010BD0000295D000851
:1055600061600008A36200084803002010B51149DB
:10557000002004F02BF81049012004F027F80F490F
:10558000022004F023F86422D4002146002003F016
:1055900089FF64222146012003F084FF002240F6A7
:1055A000B831022003F07EFF0549012048700870E1
:1055B00010BD0000655C00087D5F000859620008AE
:1055C0002C0300202DE9F0411F46DDF81880164617
:1055D0000D4603282ED2002D2CD0002E2AD000EB11
:1055E0008001154800EB810403F02EFF2560A680A2
:1055F0000020E080677384F80E8001212173206110
:10560000A888A06095ED000AB5EEC00AF1EE10FA88
:1056100003D1BDE8F04103F017BFBCEEC00A10EEA5
:10562000100A03F0AFFE384603F0DEFEBDE8F0419D
:1056300003F0FABEBDE8F0816C0B002008B5002233
:105640000B4600920D220249FFF7BCFF08BD000087
:10565000EC75010808B500220B46009240F27A2250
:105660000149FFF7AFFF08BD547601082DE9FF5F40
:10567000344F06463868002861D00025DFF8C8900E
:105680004FF6FF7A4FEA050B05EB850109EB810424
:10569000207B01284FD121693A68AAEB0103B21A95
:1056A0005046934202D2C4F810A001E0881820614D
:1056B0000146A06881423ED3C4F810B0E088594644
:1056C000401C80B2E080A288904202D3A07B00B34D
:1056D000E180E0882168039001EBC008D8F8000061
:1056E00006F026FD41EC100BB8F8040021698DE8A6
:1056F000430053EC102B15480399FAF7ADFE98EDD3
:10570000000AB5EEC00AF1EE10FA06D103F09CFED5
:105710000EE0217303F098FE0DE0BCEEC00A10EE1F
:10572000100A03F02FFE607B03F05EFE03F07CFEA8
:10573000B8F80400A0606D1CEDB2032DA4D33E6048
:10574000BDE8FF9FF40000206C0B0020748B010863
:105750007FB50024154800940194029412490394E3
:1057600001604FF48031C0E901140461047680F8CF
:1057700020400F49C0E90A140125C561C46080F8C2
:1057800030404561FCF723FF08B1FCF7A5FDCDE9EA
:105790000045694605480294FCF770FE002801D0D8
:1057A000FCF79AFD7FBD000000200140F8070020B3
:1057B0000100000F1CB50024104900940E4801940C
:1057C00008600846FDF77FF808B1FCF785FD0094F6
:1057D0000022694609480194FDF713F808B1FCF767
:1057E0007BFD102269460548FDF70BF8002801D023
:1057F000FCF772FD1CBD0000007400404008002052
:10580000114808B5016841F080010160016801F0AC
:1058100080010091016841F004010160016801F01C
:1058200004010091016841F001010160016801F08B
:1058300001010091016841F002010160006800F07F
:105840000200009008BD0000303802400F4810B53B
:105850000D4901604FF48271416000218160C16097
:105860004FF400720161C0E90512C1610162416239
:1058700081620A21C162FDF71DFE002803D0BDE848
:105880001040FCF729BD10BD003001405408002035
:105890001CB50024104800940E490194016040F2A8
:1058A000E731C0E901145321C16080218161FEF715
:1058B00013F808B1FCF710FD0094694606480194FE
:1058C000FDF7C2FF08B1FCF707FD0348FEF750F8EB
:1058D0001CBD000000100040AC0800200C4810B5B2
:1058E0000A4901604FF4E1314160002181600C22DE
:1058F000C160C0E904128161C161FEF7F5FB0028B7
:1059000003D0BDE81040FCF7E7BC10BD0014014017
:10591000F408002010B50E4C86B02078FFF736F959
:105920006078FFF731F9A07805F082F9182209496B
:105930006846FBF713F8684604F0A2F804F0E8F8AC
:10594000054901204870FCF7BCFA06B010BD000004
:1059500070060020448A01080C010020FEE7FEE7E3
:10596000054A002011780A2905D2044810EB41109D
:1059700001D0491C1170704710050020C013002091
:1059800010B5012004F03EF8BDE81040012004F0FD
:1059900039B810B5002004F035F8BDE810400020FB
:1059A00004F030B810B5002004F02CF8BDE8104029
:1059B000002004F027B810B5002004F023F8BDE85B
:1059C0001040002004F01EB810B5044686B010A0A8
:1059D000FAF742FD0DF1080C17A318A218A119A09F
:1059E0008CE80F0018A11AA0CDE900011AA31CA28F
:1059F0001DA11EA0FAF730FD204602F09DF929A056
:105A0000FAF72AFD204604F051FA06B0002010BD36
:105A10000A2D2D2D2D2D2D2D2D6572726F72206C5E
:105A2000697374207374617274202D2D2D2D2D2DAA
:105A30002D2D2D2D0A0000006D6178006D696E001E
:105A40006465660076616C00617474720000000029
:105A50006C656E6774680000747970650000000002
:105A60006E616D65000000006964000025347320DC
:105A7000202020252D32347320252D387320252D0C
:105A8000387320252D387320252D31307320252D96
:105A900031307320252D31307320252D3130730A9C
:105AA000000000002D2D2D2D2D2D2D2D6572726FD6
:105AB00072206C69737420656E64202D2D2D2D2D40
:105AC0002D2D2D2D2D2D2D0A00000000084810B57C
:105AD000084980780870FFF759F8064801F01CFA69
:105AE000002003F08FFFBDE81040002003F08ABFC4
:105AF0008C02002070060020024A0321024803F0B5
:105B000013BF00004D72000894020020024A0321D6
:105B1000024803F009BF0000F973000844020020A6
:105B2000024A0B21024803F0FFBE0000A5750008E1
:105B30003401002070B5064603F00CFD01240F4D22
:105B40000028214630460CD003F01EFD18B101207C
:105B500004F02EF86C703046BDE87040022103F06E
:105B600013BD03F011FD0221304603F00DFD0028A6
:105B700003D0012004F01CF86C7070BD0C010020F3
:105B800070B5064603F0E6FC01240F4D00282146BF
:105B900030460CD003F0F8FC18B1012004F008F8EE
:105BA0006C703046BDE87040022103F0EDBC03F09C
:105BB000EBFC0221304603F0E7FC002803D0012073
:105BC00003F0F6FF6C7070BD3C02002070B5064615
:105BD00003F0C0FC01240F4D0028214630460CD0B4
:105BE00003F0D2FC18B1012003F0E2FF6C703046E4
:105BF000BDE87040022103F0C7BC03F0C5FC0221E0
:105C0000304603F0C1FC002803D0012003F0D0FF90
:105C10006C7070BD8C02002070B5064603F09AFCD3
:105C200001240F4D0028214630460CD003F0ACFC77
:105C300018B1012003F0BCFF6C703046BDE8704025
:105C4000022103F0A1BC03F09FFC0221304603F0C7
:105C50009BFC002803D0012003F0AAFF6C7070BDEC
:105C6000DC0200202DE9F04781462D4C03F072FC48
:105C700001262C4F002840F69F784FF47A65314674
:105C800048460FD003F080FC98B3A168A28801F5C4
:105C9000FA7080B2824233D3617802292AD0012976
:105CA00028D02BE003F070FC0221484603F06CFC86
:105CB00000281CD0A168A28801F1640080B2824251
:105CC0000AD36178022901D0012903D1411E41453F
:105CD00000D22846A06007E06078022801D00128A1
:105CE00005D1002903D1A560FCF78CF87E70BDE8D2
:105CF000F0870FE0411E414500D22846A06006E033
:105D00006078022801D0012804D119B9A560FCF7F8
:105D100079F87E704846BDE8F047022103F034BCB4
:105D2000541300202C0300202DE9F041804603F09D
:105D300011FC174E0125B41C00284FF47A77294630
:105D4000404611D003F020FC40B120880A3080B2D8
:105D5000B84203D82080FCF777F875704046BDE85C
:105D6000F041022103F010BC03F00EFC022140467A
:105D700003F00AFC002808D02088401C80B2B842FA
:105D800003D82080FCF760F87570BDE8F081000052
:105D90004803002010B5044603F0DCFB00284FF058
:105DA0000101204613D003F0EFFB28B1002003F0DF
:105DB0006DFD10A0FAF750FB0221204603F0E4FB32
:105DC000002815D012A0BDE81040FAF745BB03F03B
:105DD000DBFB10B115A0FAF73FFB0221204603F0D0
:105DE000D3FB002804D0002003F050FD13A0EAE705
:105DF00010BD00004B455930206C6F6E67207072EB
:105E00006573732064657465637465640D0A0000CE
:105E10004B455930206C6F6E67207072657373202C
:105E200072656C65617365640D0A00004B455930FD
:105E300020707265737365640D0A00004B4559301C
:105E40002072656C65617365640D0A0070B5064665
:105E500003F080FB01240F4D0028214630460CD072
:105E600003F092FB18B1012003F084FE6C70304601
:105E7000BDE87040022103F087BB03F085FB0221DF
:105E8000304603F081FB002803D0012003F072FEAE
:105E90006C7070BD0C01002070B5064603F05AFB13
:105EA00001240F4D0028214630460CD003F06CFB36
:105EB00018B1012003F05EFE6C703046BDE8704002
:105EC000022103F061BB03F05FFB0221304603F0C7
:105ED0005BFB002803D0012003F04CFE6C7070BD0A
:105EE0003C02002070B5064603F034FB01240F4D40
:105EF0000028214630460CD003F046FB18B10120A3
:105F000003F038FE6C703046BDE87040022103F0AB
:105F10003BBB03F039FB0221304603F035FB002880
:105F200003D0012003F026FE6C7070BD8C020020AF
:105F300070B5064603F00EFB01240F4D00282146E4
:105F400030460CD003F020FB18B1012003F012FE04
:105F50006C703046BDE87040022103F015BB03F0C1
:105F600013FB0221304603F00FFB002803D0012071
:105F700003F000FE6C7070BDDC0200202DE9F047DC
:105F80008246354C03F0E6FA01250027334E0028FF
:105F900040F69F784FF47A692946504612D003F0B4
:105FA000F3FA78B32089618880B201F5FA728242EF
:105FB0003CD86178A0F5FA7080B2022930D001296E
:105FC0002ED031E003F0E0FA0221504603F0DCFA73
:105FD000002823D02089618880B201F164028242C6
:105FE0000CD86438617880B2022901D0012903D12C
:105FF000411E414500D20020A0600CE0814202D247
:10600000A16008E022E06178022901D0012905D1D0
:10601000484503D1A760FBF7F5FE7570BDE8F08732
:10602000411E414500D20020A06002E0814204D21E
:10603000A160FBF7E7FE757008E06178022901D0E6
:10604000012903D1484501D1A760F2E75046BDE8D8
:10605000F047022103F098BA541300202C030020CB
:106060002DE9F041074603F075FA164E0125B41CE0
:1060700000282946384607D003F086FAE0B1208888
:106080000A2813D30A3813E003F07EFA02213846B7
:1060900003F07AFA002807D02088002804D0401E98
:1060A0002080FBF7D1FE7570BDE8F08120B10020A3
:1060B0002080FBF7C9FE75703846BDE8F04102212B
:1060C00003F062BA4803002010B5044603F042FA18
:1060D00000284FF00101204613D003F055FA28B1F3
:1060E000022003F0D3FB10A0FAF7B6F902212046F4
:1060F00003F04AFA002815D012A0BDE81040FAF7C4
:10610000ABB903F041FA10B115A0FAF7A5F90221D5
:10611000204603F039FA002804D0022003F0B6FB31
:1061200013A0EAE710BD00004B657931206C6F6E5B
:106130006720707265737320646574656374656449
:106140000D0A00004B657931206C6F6E672070720C
:106150006573732072656C65617365640D0A000078
:106160004B65793120707265737365640D0A0000A8
:106170004B6579312072656C65617365640D0A0049
:1061800010B5044603F0E6F958B10121204603F0AA
:10619000FBF9002804D0012003F034FC0028FAD0D9
:1061A00010BD0221204603F0EFF90028F8D0BDE829
:1061B000104003F0CBBB10B5044603F0CBF958B147
:1061C0000121204603F0E0F9002804D0012003F06B
:1061D00019FC0028FAD010BD0221204603F0D4F9A2
:1061E0000028F8D0BDE8104003F0B0BB10B504465D
:1061F00003F0B0F958B10121204603F0C5F9002899
:1062000004D0012003F0FEFB0028FAD010BD0221CB
:10621000204603F0B9F90028F8D0BDE8104003F09B
:1062200095BB10B5044603F095F958B101212046FD
:1062300003F0AAF9002804D0012003F0E3FB0028B2
:10624000FAD010BD0221204603F09EF90028F8D0B4
:10625000BDE8104003F07ABB10B5044603F07AF9AC
:1062600000284FF0010120460DD003F08DF920B138
:10627000012003F0C7FB0028FAD02046BDE81040FB
:10628000022103F081B903F07FF90221204603F0D7
:106290007BF9002804D0BDE81040002003F0B2BB19
:1062A00010BD10B5044603F055F900284FF0010168
:1062B00020460DD003F068F920B1012003F0A2FBC5
:1062C0000028FAD02046BDE81040022103F05CB956
:1062D00003F05AF90221204603F056F9002804D0B1
:1062E000BDE81040002003F08DBB10BD10B503F0D9
:1062F000F9F8044601281BD0022C22D0032C2CD004
:10630000042C38D048D902464FF000034FF0C801A2
:106310004FF0010003F0DCFA22463C214FF47A6092
:10632000FBF73EFC2146BDE810401CA0FAF794B8EC
:10633000012003F0ABFA46210020FFF77FF91DA0F2
:1063400026E000230222C821012003F0C1FA4621E1
:106350000020FFF77FF91CA01AE000230322C821C8
:10636000012003F0B5FA0322642140F6B830FBF7B0
:1063700017FC1AA00CE000230422C821012003F01E
:10638000A7FA0422502140F6AC50FBF709FC18A0F4
:10639000BDE81040FAF760B810BD00004B657932D7
:1063A00020636C69636B65642025642074696D6586
:1063B000730D0A004B6579322073696E676C652036
:1063C000636C69636B0D0A004B65793220646F75ED
:1063D000626C6520636C69636B0D0A004B657932F2
:1063E00020747269706C6520636C69636B0D0A00C0
:1063F0004B65793220717561647275706C652063CC
:106400006C69636B0D0A000070B5002003F0A2F800
:1064100001242B4D002821464FF000002CD003F022
:10642000B3F818B1012003F0C3FB6C700221002007
:1064300003F0AAF8022003F08DF850B301210220E6
:1064400003F0A2F820B1012003F0DCFA0028FAD012
:10645000012003F07FF84FF0010118B3012003F091
:1064600093F818B1012003F085FB6C70BDE8704013
:106470000221012003F088B803F086F802210020F1
:1064800003F082F80028D5D0012003F091FB6C7056
:10649000D0E70221084603F077F80028D8D003F0AF
:1064A00055FAD5E7002003F06FF80221012003F030
:1064B0006BF8002803D0012003F05CFB6C7070BD0A
:1064C0002C010020024A0321024803F02DBA0000EB
:1064D0004D770008E402002010B50948094C807887
:1064E000A07000B1012004F0A3FBA01C00F014FD7B
:1064F000002003F087FABDE81040002003F082BAC4
:10650000DC020020700600202DE9F04117460C4601
:10651000060018D0BFB118480168002917D98C426D
:1065200000D98CB205202246314602F067FE002CCD
:106530001FD01248F9F790FF224611A112A0F9F7D7
:106540008BFF00250DE04FF0FF30BDE8F081002407
:1065500011A0F9F781FF0CE0715D1CA0F9F77CFF39
:106560006D1CA542F8DB1BA0F9F776FF0348F9F78D
:1065700073FF3C800020E8E7400500201C960108DE
:10658000097265616400000025733A205B25645D33
:10659000202D3E20000000004F6E4C6F616443616F
:1065A0006C6C6261636B3A205265616420636F6D4D
:1065B000706C6574652C20746F74616C206C656EF2
:1065C0006774683D256C750A00000000253032783C
:1065D000200000000A00000010B50520FBF708FDB0
:1065E00081B24FF47A63084644F62062994201D2A0
:1065F000184602E0904200D910464FF47A72A0F596
:106600007A6050431201B0FBF2F0064A10805180CC
:106610000448054A0121801D03F086F9BDE81040B9
:10662000FBF712BC4A030020817B000810B500F084
:1066300083FB0A4C2078FEF7A9FA6078FEF7A4FAEB
:10664000A07804F0F5FAFBF73CFC012003F0DAF93E
:10665000BDE81040012003F0D5B90000700600200D
:106660002DE9F0410D461C4C07004FF0FF3107D0DB
:1066700045B160684219FF2A11D90846BDE8F0818A
:10668000002DFAD104221449012002F0E8FD13A0E4
:106690002168F9F7E1FE002060600020EEE7401D70
:1066A00080B22A46394602F0DAFD2A4618A11AA01D
:1066B000F9F7D2FE002604E0B95D1BA0F9F7CCFE85
:1066C000761CAE42F8DB1AA0F9F7C6FE60682844D3
:1066D00060602060E1E70000400500204F6E5361DC
:1066E000766543616C6C6261636B3A2053617665D9
:1066F00020636F6D706C6574652C20746F74616CB1
:10670000206C656E6774683D256C750A000000009A
:10671000097772697465000025733A205B25645D12
:10672000202D3E200000000025303278200000009F
:106730000A00000010B50079FDF790FE044A01211F
:10674000044803F0F1F8BDE81040FBF75BBB000024
:10675000A5820008300300202DE9FC410446807921
:106760000D460B287DD2DFE800F0060F18212A36EF
:10677000424D5B6985000020CDE90000227A694620
:10678000284602F0B7F922E00020CDE90000227A85
:106790006946284602F0AEF925E00020CDE9000068
:1067A000227A6946284602F0A5F928E00020CDE9C2
:1067B0000000227A6946284602F09CF92AE000206F
:1067C000CDE90000227A6946284602F0B1F9E16875
:1067D0000098087053E00020CDE90000227A694655
:1067E000284602F0A5F9E1680098088047E00020FB
:1067F000CDE90000227A6946284602F099F900980E
:10680000E16819E00020CDE90000227A69462846B7
:1068100002F08EF9DDE90001E268C2E900012EE034
:106820000020D4F80C10024615F8013BD600B34006
:106830001843521C042AF7D3086020E00020E768C0
:10684000CDE900000646804615F8010B4146F200EE
:10685000F9F7C8FDDDE9002310431943761C082E23
:1068600000E00FE0CDE90001EED39DED000B87EDD8
:10687000000B04E022892946E068FAF72AF820890B
:10688000BDE8FC810020FBE72DE9FC410C46002817
:1068900067D0002C65D0A1790B2962D2DFE801F026
:1068A000060C151A20252D3238445A00217A009101
:1068B000E16891F9002004E0217A0091E168B1F9E2
:1068C0000020D31700F024FC48E0217A0091E16811
:1068D0000A68F6E7217A0091E168D1E90023F1E73F
:1068E000217A0091E1680A7803E0217A0091E16859
:1068F0000A88002300F021FC30E0217A0091E16851
:106900000A68F6E7217A0091E168D1E90023F1E70E
:10691000E16800220968D30021FA03F3521C00F851
:10692000013B042AF7D319E00746E068002690ED02
:10693000000B10EE905A10EE108A8DED000BF20055
:1069400040462946F9F761FD761C07F8010B082E31
:10695000F5D303E02289E168F9F7BBFF2089BDE8A0
:10696000FC810020FBE77047F0B50023067A1C4647
:10697000012736B14FF6FF75012E09D0022E3ED108
:106980002AE001293BD107728480C480847036E0FC
:1069900011B1817879B132E002210172C48081881D
:1069A000028A914203D28178491C817027E0407BA2
:1069B00080070FD423E081886C1A944201D285802D
:1069C00001E0114481808188028A914217D3407B83
:1069D000C00714D0012312E0C688A5EB060C94452D
:1069E00001D2C58001E03244C280C288C589AA4272
:1069F00002D90123047202E0012900D1077218466E
:106A0000F0BDF0B50024057A2346012625B1012DFD
:106A100009D0022D24D10EE0012921D106728380F4
:106A2000C38083701CE0D9B902210172C3808178D0
:106A3000491C817014E0C5884FF6FF77A7EB050C61
:106A4000944501D2C78001E02A44C280C288C5892A
:106A5000AA4202D90124037202E0012900D1067280
:106A60002046F0BDF0B50023067A1C464FF6FF75B0
:106A7000052E36D2DFE806F00306341D3400012966
:106A800011D02EE029B181886E1A964204D28580F9
:106A900004E00221017218E0114481808188028A99
:106AA00091421ED3032101728480407BC0070CD128
:106AB00017E029B181886E1A964208D2858008E0D5
:106AC00004210172407B80070BD5012309E01144AA
:106AD0008180C18929B182888A4202D98480F4E701
:106AE00004721846F0BDF0B50023057A1C4625B1A6
:106AF000012D0AD0022D22D120E001291FD10172DF
:106B00008480407BC00710D119E049B1C189B1B17F
:106B100086884FF6FF75AF1B974208D2858008E044
:106B200002210172407B800709D5012307E032442E
:106B3000828082888A4202D98480F6E704721846ED
:106B4000F0BD000070B52448244C007801281BD00B
:106B5000022819D004212046FCF760F980B30025F3
:106B600010212046FCF75AF958B3002045EA4005A9
:106B700008212046FCF752F960B3002045EA800066
:106B8000012800D0002070BD04212046FCF746F902
:106B9000A0B1002510212046FCF740F990B100205B
:106BA00045EA400508212046FCF738F960B100208D
:106BB00045EA80000228E5D1012070BD0125E9E702
:106BC00004E005E00120EBE70120F1E70125C7E73C
:106BD0000120CBE70120D1E7700600200010024021
:106BE00070B52548254C007801281AD0022818D005
:106BF00004212046FCF712F980B30025102120461D
:106C0000FCF70CF958B3002045EA4005082120465E
:106C1000FCF704F960B3002045EA8000022829D07F
:106C200018E004212046FCF7F9F8A8B1002510214E
:106C30002046FCF7F3F898B15FF0000045EA400504
:106C400008212046FCF7EAF860B1002045EA800000
:106C5000012800D0002070BD0125E8E704E005E030
:106C60000120EBE70120F1E70125C7E70120CBE791
:106C70000120D1E7012070BD700600200010024005
:106C800070B5114C04212046FCF7C8F8A0B10025CE
:106C900010212046FCF7C2F880B1002045EA4005EB
:106CA00008212046FCF7BAF850B1002045EA8000E0
:106CB000042807D0002070BD0125E9E70120EDE799
:106CC0000120F3E7012070BD0010024042890189D4
:106CD0008A4201D2012100E00021142A01D30022BE
:106CE000428108467047000010B50446C2B00E4805
:106CF000F9F7B2FB1CB10D490D4802F0C9FF0020A5
:106D0000ADF8000140AA4FF480716846FFF7FCFB24
:106D1000BDF800216946064802F0F0FF0548F9F782
:106D20009BFB42B010BD0000CC960108C959000879
:106D3000480500203895010810B505A0F9F78CFB2F
:106D4000074803F072F8BDE81040002000F0B6B824
:106D5000726573657420706172616D0A00000000D5
:106D60004805002010B588B1817A49070ED5817990
:106D70000A2905D002890169C068F9F7AAFD03E074
:106D80000169C068F9F762FD012010BD002010BD47
:106D9000F8B515460E460B46009204460122022124
:106DA00000F02CF8A0B9134813490068B0FBF1F0CB
:106DB0004FF47A71484300906068B0F5827F0DD13E
:106DC0003346002280212046009500F017F870B16C
:106DD000606D40F0200060650320F8BD009830B180
:106DE000401E009020688068C0430006F6D5002051
:106DF000F8BD00000C00002000366E012DE9F843BC
:106E00001E46914688460446089DFCF711F8401B33
:106E1000351AFCF70DF8074626480068C0F3CB305A
:106E200068430AE0701C09D0FCF702F8C01BA842B6
:106E30000FD275B10098B8B3401E009020688168E9
:106E400038EA010033D000214945EBD10020BDE8EC
:106E5000F8832068416821F0E00141606068B0F586
:106E6000827F0BD1A068B0F5004F02D0B0F5806FE3
:106E700004D12068016821F040010160A06AB0F5EA
:106E8000005F09D12068016821F400510160206889
:106E9000016841F400510160012084F85100002094
:106EA00084F850000320D2E7FFE70025C6E7012160
:106EB000CAE700000C0000207047000010B504462F
:106EC000C2B01148F9F7C8FA1CB11049104802F0D5
:106ED000DFFE0020409069460D4802F0BAFF409066
:106EE000042240A9012002F0BAF9409881B2684614
:106EF000FFF7B6FB00216846FFF7B2FB0548F9F73C
:106F0000ABFA42B010BD000018970108C95900083B
:106F10004805002084950108F0B58DB004004FF0BD
:106F2000FF365ED00146304802F019FF050058D008
:106F3000A9882EA02A68F9F78FFAA8790B2831D2F0
:106F4000DFE800F0060F16300A1319301C252D005B
:106F500094F900102EA001E0217832A0F9F77CFA14
:106F600023E0B4F9001034A0F8E7218837A0F5E752
:106F70003BA02168F2E73FA02168EFE7206805F019
:106F8000D7F841EC100B40A053EC102B04E094ED2B
:106F9000000B42A053EC102BF9F75EFA05E02146F6
:106FA00044A0DBE748A0F9F757FA01ACA888FBF743
:106FB00015FA070015D0A8882A8960F31F2202203D
:106FC0000090D317204600F0B8F82946FFF75CFC84
:106FD000801C82B2B8B201A902F041F900200DB0C4
:106FE000F0BD3046FBE700004805002053617665A0
:106FF00020706172616D3A2049443D25642C204E19
:10700000616D653D25732C20547970653D0000004D
:10701000494E54382C2056616C75653D25640D0A27
:107020000000000055494E54382C2056616C75659F
:107030003D25750D0A000000494E5431362C20566E
:10704000616C75653D25640D0A00000055494E547C
:1070500031362C2056616C75653D25750D0A000092
:10706000494E5433322C2056616C75653D256C6455
:107070000D0A000055494E5433322C2056616C7570
:10708000653D256C750D0A00464C4F41542C205629
:10709000616C75653D252E33660D0A00444F5542DF
:1070A0004C452C2056616C75653D252E336C660D64
:1070B0000A000000535452494E472C2056616C750B
:1070C000653D25730D0A0000554E4B4E4F574E0D32
:1070D0000A00000010B5FBF7ABFEBDE81040FAF760
:1070E0009DBD10B5FBF7A4FE02F0A2FABDE810406A
:1070F00002F07CBD10B5FBF79BFEBDE8104002F02E
:1071000011BB10B5FBF794FEBDE81040FEF7AEBA18
:107110002DE9F0411546984606460024069F07E0F3
:10712000E20041462846F9F783F906F8010B641C92
:10713000BC42F5DB3046BDE8F0812DE9F041154653
:10714000984606460024069F07E0E200414628468E
:10715000F9F75BF906F8010B641CBC42F5DB30461D
:10716000BDE8F081074A012806D0022808D15181E4
:1071700002F10A00FFF7D0BE024811810830F9E79A
:10718000704700000A15002010B588B00020069056
:107190001048F9F761F902AC0FA310A210A111A0D9
:1071A00084E80F0010A112A0CDE9000112A314A2DF
:1071B00015A116A0F9F750F906A9224802F016FE0B
:1071C000044600F0B9FD002CF6D11F48F9F744F948
:1071D00008B010BD649701086D6178006D696E009C
:1071E0006465660076616C00617474720000000072
:1071F0006C656E677468000074797065000000004B
:107200006E616D6500000000696400002534732024
:10721000202020252D32347320252D387320252D54
:10722000387320252D387320252D31307320252DDE
:1072300031307320252D31307320252D3130730AE4
:107240000000000048050020D09501082DE9FF5FEF
:10725000664C0546607800287ED006208DF80C002C
:1072600003A9284602F03AFC69789DF80C00DFF883
:1072700080A1B1FBF0F141436068CFB24FF0200B29
:107280004FF00009874203D001202070676002E0C0
:10729000207800285ED0FDF73DFA287902F0CEFF75
:1072A00080462021FDF760FB524BC0F5A07000EB3B
:1072B000D0701B88CDF808909BB2CDE9003BBAF89E
:1072C0000010C0F34F008BB2564642460021FDF736
:1072D000A2FF3088202380B2009040F23F1219466E
:1072E0000020FDF727FA00262EE0B81900F0FF086D
:1072F000B8F1030F26D205EB8800007B02F09EFF59
:10730000024624206B7800EB4610C1B2434509D1F8
:10731000BAF8003037489BB2CDE9003BCDF8089071
:1073200000880BE0DFF8CCC0BCF800C01FFA8CFC72
:10733000CDF800C0CDE901B9BAF8000083B2002051
:10734000FDF769FF761CB6B29DF80C008642CCD3DF
:1073500084F80090697800E045E0A07881423ED052
:10736000C11BCEB29DF80C108E4218D2032816D243
:1073700005EB8000007B02F061FF0246242000EB59
:1073800046101C4EC1B23688CDF80890B6B2CDE991
:10739000006BBAF8000083B20020FDF73CFF68786C
:1073A000C11BCEB29DF80C108E4218D2032816D203
:1073B00005EB8000007B02F041FF0246242000EB39
:1073C0004610BAF80060C1B2B6B20A48CDE9006B07
:1073D000CDF80890008883B20020FDF71CFF687884
:1073E000A07084F80190BDE8FF9F00008C0200208F
:1073F000DC000020E00000202DE9FF5F664C054620
:10740000607800287ED006208DF80C0003A928465D
:1074100002F064FB69789DF80C00DFF880A1B1FBF5
:10742000F0F141436068CFB24FF0200B4FF00009FC
:10743000874203D001202070676002E02078002896
:107440005ED0FDF767F9287902F0F8FE804620212A
:10745000FDF78AFA524BC0F5A07000EBD0701B8884
:10746000CDF808909BB2CDE9003BBAF80010C0F30C
:107470004F008BB2564642460021FDF7CCFE3088C5
:10748000202380B2009040F23F1219460020FDF701
:1074900051F900262EE0B81900F0FF08B8F1030FEB
:1074A00026D205EB8800007B02F0C8FE02462420AD
:1074B0006B7800EB4610C1B2434509D1BAF80030F1
:1074C00037489BB2CDE9003BCDF8089000880BE02F
:1074D000DFF8CCC0BCF800C01FFA8CFCCDF800C0AF
:1074E000CDE901B9BAF8000083B20020FDF793FEA0
:1074F000761CB6B29DF80C008642CCD384F800907E
:10750000697800E045E0A07881423ED0C11BCEB250
:107510009DF80C108E4218D2032816D205EB80007D
:10752000007B02F08BFE0246242000EB46101C4E2E
:10753000C1B23688CDF80890B6B2CDE9006BBAF882
:10754000000083B20020FDF766FE6878C11BCEB252
:107550009DF80C108E4218D2032816D205EB80003D
:10756000007B02F06BFE0246242000EB4610BAF8C6
:107570000060C1B2B6B20A48CDE9006BCDF8089000
:10758000008883B20020FDF746FE6878A07084F87A
:107590000190BDE8FF9F00003C020020DC000020BD
:1075A000E00000202DE9FF5F654C0546607800286B
:1075B0007ED00E208DF80C0003A9284602F08EFA2A
:1075C00069789DF80C00DFF87CA1B1FBF0F1414334
:1075D0006068CFB24FF0200B4FF00009874203D014
:1075E00001202070676002E0207800285ED0FDF75F
:1075F00091F8022002F022FE80462021FDF7B4F926
:10760000514BC0F5A07000EBD0701B88CDF80890EE
:107610009BB2CDE9003BBAF80010C0F34F008BB22B
:10762000564642460021FDF7F6FD3088202380B201
:10763000009040F23F1219460020FDF77BF800262B
:107640002EE0B81900F0FF08B8F10B0F26D205EBB9
:107650008800007B02F0F2FD024624206B7800EBEC
:10766000461081B2434509D1BAF80000CDF8089020
:1076700080B2CDE9000B344800880BE0DFF8C8C0C9
:10768000BCF800C01FFA8CFCCDF800C0CDE901B9F0
:10769000BAF8000083B20020FDF7BDFD761CB6B23B
:1076A0009DF80C008642CCD384F80090697800E005
:1076B00043E0A07881423CD0C11BCEB29DF80C10B3
:1076C0008E4217D20B2815D205EB8000007B02F00A
:1076D000B5FD0246242000EB46111B4E3688CDF83E
:1076E0000890B6B2CDE9006BBAF8000083B2002072
:1076F000FDF791FD6878C11BCEB29DF80C108E424B
:1077000017D20B2815D205EB8000007B02F096FD06
:107710000246242000EB4611BAF800600A48B6B2CF
:10772000CDE9006BCDF80890008883B20020FDF70A
:1077300072FD6878A07084F80190BDE8FF9F00009A
:107740002C010020DC000020E00000202DE9FF5F7C
:10775000664C0546607800287ED006208DF80C0027
:1077600003A9284602F0BAF969789DF80C00DFF801
:1077700080A1B1FBF0F141436068CFB24FF0200B24
:107780004FF00009874203D001202070676002E0BB
:10779000207800285ED0FCF7BDFF287902F04EFD6E
:1077A00080462021FDF7E0F8524BC0F5A07000EBB9
:1077B000D0701B88CDF808909BB2CDE9003BBAF899
:1077C0000010C0F34F008BB2564642460021FDF731
:1077D00022FD3088202380B2009040F23F121946EB
:1077E0000020FCF7A7FF00262EE0B81900F0FF08E4
:1077F000B8F1030F26D205EB8800007B02F01EFDD6
:10780000024624206B7800EB4610C1B2434509D1F3
:10781000BAF8003037489BB2CDE9003BCDF808906C
:1078200000880BE0DFF8CCC0BCF800C01FFA8CFC6D
:10783000CDF800C0CDE901B9BAF8000083B200204C
:10784000FDF7E9FC761CB6B29DF80C008642CCD35D
:1078500084F80090697800E045E0A07881423ED04D
:10786000C11BCEB29DF80C108E4218D2032816D23E
:1078700005EB8000007B02F0E1FC0246242000EBD7
:1078800046101C4EC1B23688CDF80890B6B2CDE98C
:10789000006BBAF8000083B20020FDF7BCFC6878EA
:1078A000C11BCEB29DF80C108E4218D2032816D2FE
:1078B00005EB8000007B02F0C1FC0246242000EBB7
:1078C0004610BAF80060C1B2B6B20A48CDE9006B02
:1078D000CDF80890008883B20020FDF79CFC687802
:1078E000A07084F80190BDE8FF9F0000DC0200203A
:1078F000DC000020E00000202DE9F0477B4C8CB03C
:10790000607800287DD02078002610B1FCF702FFB7
:10791000267001F0E9FB002873D00024744FDFF8D3
:10792000D481202557F8240004F002FCCDE90001A1
:10793000224671A103A8F8F79BFDB8F80000610189
:1079400080B28DE861001F2303AA1E20FDF763FCAF
:10795000641CE4B2042CE5D3BA460424B14647467D
:10796000A01DC6B25AF8240004F0E2FBCDE90001E4
:10797000324665A103A8F8F77BFD39881F2389B239
:107980008DE82202610103AA1E20FDF744FC641C5D
:10799000E4B2082CE4D30120FAF7C0FA10EE100A82
:1079A00004F0C6FB41EC100B5BA153EC102B03A8B9
:1079B000F8F75EFD38884FF4784680B2CDE90005CF
:1079C0004C46334603AA4FF49071CDF808901E2020
:1079D000FDF721FC0220FAF7A1FA10EE100A04F0DC
:1079E000A7FB41EC100B50A153EC102B03A8F8F7A8
:1079F0003FFD3888334680B203AA4FF4A071029449
:107A000000E070E0CDE900051E20FDF704FC052034
:107A1000FAF784FA10EE100A04F08AFB41EC100B1E
:107A200045A153EC102B03A8F8F722FD3888334604
:107A300080B2CDE9000503AA4FF4B07102941E2074
:107A4000FDF7E9FB0620FAF769FA10EE100A04F0D8
:107A50006FFB41EC100B3CA153EC102B03A8F8F783
:107A600007FD3888334680B2CDE9000503AA4FF4FC
:107A7000C07102941E20FDF7CEFB0720FAF74EFAE4
:107A800010EE100A04F054FB41EC100B32A153EC41
:107A9000102B03A8F8F7ECFC3888334680B2CDE908
:107AA000000503AA4FF4D07102941E20FDF7B3FB2A
:107AB0000820FAF733FA10EE100A04F039FB41EC13
:107AC000100B2AA153EC102B03A8F8F7D1FC38882F
:107AD000334680B2CDE9000503AA4FF4E071029469
:107AE0001E20FDF798FB0CB0BDE8F0870C010020CC
:107AF0009C0C0020E0000020434825643A20252EFD
:107B00003266562000000000434825643A20252EA6
:107B100032666D412000000050574D444143313AD8
:107B200020252E326656200050574D444143323AAC
:107B300020252E3266562000444143313A20252E1E
:107B400032666D4120000000444143323A20252E28
:107B500032666D412000000050574D444143333A96
:107B600020252E32666D41200000000050574D4404
:107B70004143343A20252E32666D4120000000003A
:107B80002DE9F043814658489BB0417800297AD0CE
:107B9000804600780024554E554D182700284AD0BD
:107BA000FCF7B8FD99F8040002F048FB814620215B
:107BB000FCF7DAFE3188202289B28DE81600298888
:107BC000C0F5A07000EBD0708BB2C0F34F004A46F6
:107BD0000021FDF720FB2888202380B2009040F28E
:107BE0003F1219460020FCF7A5FD3088029480B2B0
:107BF000CDE9000728883FA283B228210A20FDF79B
:107C00000AFB3088029480B2CDE9000728883CA2A4
:107C100083B250210A20FDF7FEFA3088029480B228
:107C2000CDE90007288839A283B278210A20FDF720
:107C3000F2FA88F80040DFF8B0900A2009F1020952
:107C4000B9F80010B1FBF0F200FB1213B1FBF0F237
:107C500030A103A8F8F70CFC3088029480B2CDE97B
:107C60000007288803AA83B228217820FDF7D3FAD9
:107C7000B9F802104FF47A70B1FBF0F200FB121366
:107C8000B1FBF0F200E02CE025A10BA8F8F7F0FB27
:107C90003088029480B2CDE9000728880BAA83B20D
:107CA00050217820FDF7B7FA0520FAF737F910EEE2
:107CB000100A04F03DFA41EC100B1CA153EC102B00
:107CC00013A8F8F7D5FB3088029480B2CDE90007FD
:107CD0002888782183B213AA0846FDF79CFA88F811
:107CE00001401BB0BDE8F08348030020E000002005
:107CF000DC0000204F70656E696E673A000000007E
:107D000043757272656E743A000000004F757470AE
:107D100075743A0025642E25642525202020200036
:107D200025642E253033646D41202000252E3366D6
:107D30006D412020000000007FB504007AD0A079BA
:107D40000B2878D2DFE800F006366087B4D9F3F26A
:107D5000F1F0EF00A07AFAF789F8E1682289ECA344
:107D600091F900100092CDE90101A188EAA02268F2
:107D7000F8F772FBA07A400704D5206990F900104B
:107D8000EFA001E0F0A1F1A0F8F766FBA07AC00631
:107D900009D5606990F90010E9A0F8F75DFBA069CA
:107DA00090F900102EE0E8A1E8A0F8F755FBE6A155
:107DB000E6A0CCE0A07AFAF759F8E1682289E5A3B9
:107DC000B1F900100092CDE90101A188D2A022688A
:107DD000F8F742FBA07A400704D52069B0F90010FB
:107DE000D7A001E0D8A1D9A0F8F736FBA07AC00649
:107DF000D9D56069B0F90010D1A0F8F72DFBA069C2
:107E0000B0F90010CEA0A2E0A07AFAF72FF8E1684E
:107E10002289D2A309680092CDE90101A188BEA000
:107E20002268F8F719FBA07A400705D52069016898
:107E3000C3A003E06BE18CE0C3A1C4A0F8F70CFB86
:107E4000A07AC006AFD560690168BDA0F8F704FB51
:107E5000A0690168D6E7A07AFAF708F8E168C1A33B
:107E6000D1E90021CDE902212189CDE90010A188C5
:107E7000BEA02268F8F7F0FAA07A400706D520697C
:107E8000D0E90023C3A0F8F7E7FA03E0AEA1AFA062
:107E9000F8F7E2FAA07AC00685D56069D0E9002338
:107EA000BCA0F8F7D9FAA069D0E90023B9A016E17F
:107EB000A07AF9F7DBFFE1682289B9A3097800927B
:107EC000CDE90101A188B8A02268F8F7C5FAA07A27
:107ED000400703D520690178BDA001E09AA114E113
:107EE000F8F7BAFAA07AC006ACD560690178B8A0F4
:107EF000F8F7B2FAA069017828E0A07AF9F7B6FF9E
:107F0000E1682289B4A309880092CDE90101A18822
:107F1000A5A02268F8F7A0FAA07A400708D5206942
:107F20000188ABA006E0DDE0A7E06AE03CE016E0F7
:107F300085A186A0F8F790FAA07AC006ACD5606952
:107F40000188A3A0F8F788FAA0690188A0A0F8F733
:107F500083FA04B0A3A0BDE87040F8F77DBAA07A18
:107F6000F9F784FFE16822899FA309680092CDE9AF
:107F70000101A1888CA02268F8F76EFAA07A400768
:107F800003D52069016892A001E06FA16FA0F8F706
:107F900063FAA07AC006A7D5606901688CA0F8F7DB
:107FA0005BFAA0690168D1E7A07AF9F75FFFE168A1
:107FB00090A3D1E90021CDE902212189CDE900106A
:107FC000A1888FA02268F8F747FAA07A400706D563
:107FD0002069D0E9002394A0F8F73EFA03E05AA103
:107FE0005AA0F8F739FAA07AC006A7D56069D0E997
:107FF00000238DA0F8F730FAA069D0E900238AA009
:108000006DE0E068006804F093F805460E46A07A3B
:10801000F9F72CFFCDE902562189CDE90010A1889E
:1080200084A386A02268F8F717FAA07A40070BD538
:108030002069006804F07CF841EC100B89A053EC37
:10804000102BF8F709FA03E03FA140A0F8F704FA73
:10805000A07AC0069FD56069006804F069F841EC19
:10806000100B80A053EC102BF8F7F6F9A06900680C
:1080700004F05EF841EC100B2EE0A07AF9F7F6FE62
:10808000E1687AA391ED000B8DED020B2189CDE91A
:108090000010A18869A02268F8F7DEF9A07A4007ED
:1080A00008D5206990ED000B6EA053EC102BF8F76B
:1080B000D3F903E024A125A0F8F7CEF9A07AC006F1
:1080C00093D5606990ED000B66A053EC102BF8F788
:1080D000C3F9A06990ED000B62A053EC102BF8F7E8
:1080E000BBF936E7A07AF9F7C1FE2289E168009270
:1080F000CDE90101A1885FA360A02268F8F7ACF97F
:10810000A07A40077FF5EAAE216910A0E8E67FBDBE
:10811000696E74385F74000020252D34642020209F
:10812000252D32347320252D31307320252D3664D2
:1081300020252D387320252D3130642000000000CB
:10814000252D3130642000002D000000252D313018
:1081500073200000696E7431365F7400696E743389
:10816000325F7400696E7436345F740020252D34DC
:1081700064202020252D32347320252D31307320AA
:10818000252D366420252D387320252D31306C6C3B
:1081900064200000252D31306C6C6420000000004C
:1081A00075696E74385F740020252D34642020209A
:1081B000252D32347320252D31307320252D366442
:1081C00020252D387320252D31307520000000002A
:1081D000252D31307520000075696E7431365F745D
:1081E000000000000A00000075696E7433325F748D
:1081F0000000000075696E7436345F740000000082
:1082000020252D3464202020252D32347320252D67
:1082100031307320252D366420252D387320252DEF
:1082200031306C6C75200000252D31306C6C752060
:1082300000000000666C6F617400000020252D3482
:1082400064202020252D32347320252D31307320D9
:10825000252D366420252D387320252D31306620BC
:1082600000000000252D313066200000646F75622B
:108270006C650000737472696E67000020252D34F0
:1082800064202020252D32347320252D3130732099
:10829000252D366420252D387320252D313073206F
:1082A000000000002DE9F0470746444894B04178AB
:1082B000002977D080460078414E424C4FF00009AB
:1082C0002025D8B3FCF726FA387901F0B7FF8246AB
:1082D0002021FCF749FB31884F4689B28DE8A20086
:1082E0002188C0F5A07000EBD0708BB2C0F34F00B6
:1082F00052460021FCF78FFF2088202380B2009097
:1083000040F23F1219460020FCF714FA30882EA2E2
:1083100080B28DE8A1002088282183B20A20FCF7D2
:108320007AFF30882AA280B28DE8A10020886E21D1
:1083300083B20A20FCF76FFF88F80070264F27A150
:108340000BA8D7E90223F8F793F831884FF05A0ABF
:1083500089B28DE8220220880BAA83B228215046D8
:10836000FCF759FF3878F9F7D9FD7878002810EE36
:10837000100A1AD003F0DCFE41EC100B1AA153ECEA
:10838000102B03A8F8F774F830884F4680B28DE8B8
:10839000A100208803AA83B26E215046FCF73BFF60
:1083A00088F8017014B0BDE8F08703F0C1FE41EC1D
:1083B000100B0FA153EC102BE3E700002C0300205F
:1083C000E0000020DC0000205365743A000000004B
:1083D00052656C3A00000000541300202564257398
:1083E0002020202000000000252E32666D41200054
:1083F000252E326656200000FAF720BD30B593B026
:1084000030216846F8F7DCFA14210CA8F8F7D8FAFE
:108410001D480025016841F080510160006800F0AE
:10842000805011901948016841F480410160006852
:10843000022400F480401190012003901020049049
:10844000009406940820CDE90750A820CDE909043E
:1084500004200B906846FAF777FE08B172B6FEE783
:108460000CA90F2081E831004FF4A0500F904FF479
:108470008050109005210CA8FAF77AFD002801D051
:1084800072B6FEE713B030BD4038024000700040C5
:108490000248016841F470010160704788ED00E016
:1084A00010B50448FAF7DBF9BDE810400248FBF7C5
:1084B000A0BA000040080020AC08002010B50A4C0B
:1084C0002068C068C043C00709D1084800698047D8
:1084D00021680020486221686420C862E060216849
:1084E0006FF00100086110BD641300201C0400201F
:1084F000F0B50268274B284D284E294F294C4FF0E4
:10850000804C984209D0604507D0A84205D0B042BF
:1085100003D0B84201D0A04204D122F0700E4A68C4
:1085200042EA0E0298421BD0604519D0A84217D0EB
:10853000B04215D0B84213D0A04211D01A4DA84273
:108540000ED01A4DA8420BD0194DA84208D0194D93
:10855000A84205D0184DA84202D0184DA84203D118
:1085600022F44075CA682A434D6922F080022A43EA
:108570008D68C5620D688562984201D0A04201D124
:1085800009690163016841F0040101600121416151
:108590000260F0BD000001400004004000080040FF
:1085A000000C004000040140004001400044014034
:1085B0000048014000180040001C0040002000401E
:1085C00010B501F01F030121046A99408C43046235
:1085D000016A9A401143016210BD0000F0B5036AC0
:1085E000026A22F00102026242688469124E24F09B
:1085F00073050C682C4323F002058B682B430D4D4B
:10860000A84201D0B04205D123F00807CB683B4314
:1086100023F00403A84201D0B04205D14D6922F4F1
:10862000407215438A692A43426084614968416304
:108630000362F0BD0000014000040140F0B5026A91
:10864000036A23F010030362436884690D6824F40D
:10865000E64444EA05248D6822F0200242EA05122D
:108660000F4D104EA84201D0B04206D1CF6822F083
:10867000800242EA071222F04002A84201D0B04232
:1086800007D14D6923F4406343EA85038D6943EACA
:10869000850343608461496881630262F0BD000024
:1086A0000000014000040140F0B5026A036A23F4AF
:1086B000807303624368C46922F4007224F0730576
:1086C0000C68124E2C438D6842EA05220E4DA842DA
:1086D00001D0B04206D1CF6822F4006242EA0722FC
:1086E00022F48062A84201D0B04207D14D6923F440
:1086F000405343EA05138D6943EA05134360C4619F
:108700004968C1630262F0BD0000014000040140FD
:1087100030B5046A026A22F4805202624268C36978
:108720000D6823F4E64343EA05238D6824F40054DE
:1087300044EA0534084DA84202D0084DA84204D1AD
:108740004D6922F4804242EA85124260C361496861
:108750000164046230BD00000000014000040140DB
:1087600010B5806B0021C185FBF77CFB10BD016853
:108770000C3151E8002F22F4907241E80023002BC5
:10878000F5D10168143151E8002F22F0010241E8CF
:108790000023002BF5D1016B012909D101680C31AF
:1087A00051E8002F22F0100241E80023002BF5D100
:1087B000202180F8421000210163704708B590F82D
:1087C0004210222901D0022008BD82684FF4805354
:1087D0009A4201D1016921B1816A9A421BD04AB102
:1087E0000AE00268816A5268C2F308020A80816A5C
:1087F000891C08E0026972B10268526802F07F02C7
:108800000A70816A491C8162C18D491E0904090CE4
:10881000C18503D01BE002685268F1E70168CA68AD
:1088200022F02002CA600168CA6822F48072CA601D
:1088300001684A6922F001024A61202180F8421051
:1088400000214163026B012A03D0FBF719FD0020D0
:1088500008BD016301680C3151E8002F22F01002BD
:1088600041E80023002BF5D101680A68D20602D541
:108870000A6849680091818DFBF7F3FAE7E7000089
:1088800070B5044600680169E26821F44051114363
:1088900001612169A068E2690843616911430843E5
:1088A0002168CA6849F20C639A430243CA6020688F
:1088B0004169A26921F44071114341613149206845
:1088C000884202D03049884202D1FAF7FBFB01E02E
:1088D000FAF7E8FBE2690023192164253226B2F594
:1088E000004F626828D0A0FB0101930F9200F7F7B8
:1088F00002FD0146B0FBF5F06FF01802504301EBAA
:10890000800006EB0010B0FBF5F000F0F002B1FBC8
:10891000F5F002EB0012B1FBF5F06FF018035843CD
:1089200001EB800006EB0010B0FBF5F000F00F004B
:1089300021681044886070BDA0FB010192185B4162
:10894000F7F7D9FC0146B0FBF5F00201B1FBF5F0F9
:108950006FF01803584301EB800006EBC000B0FB3A
:10896000F5F000F0F80002EB4002B1FBF5F05843DF
:1089700001EB800006EBC000B0FBF5F000F0070053
:10898000D6E700000010014000140140816282859A
:10899000C28500214164222180F84210016921B181
:1089A0000168CA6842F48072CA6001684A6942F08C
:1089B00001024A610068C16841F02001C1600020E5
:1089C00070472DE9F843984617460D460446089E21
:1089D00024E0701C22D0FAF72BFAA0EB0800B0427A
:1089E0001AD8CEB12068C168490717D5802D15D097
:1089F000402D13D00168C94309070FD40168002531
:108A0000406800902046FFF7B2FE0820606484F8BA
:108A100040500120BDE8F8830320FBE72068006890
:108A200035EA000004D00020B842D2D00020F1E79F
:108A30000120F9E70C4808B500680068C0438006CB
:108A400011D44FF47A73012269460748FBF7B2FB51
:108A500006480178402906D2034B9DF80020483390
:108A60005A54491C017008BDBC11002006010020A9
:108A70000C4808B500680068C043800611D44FF464
:108A80007A73012269460748FBF794FB0648817810
:108A9000402906D2034B9DF8002048335A54491C04
:108AA000817008BDCC120020060100200C4808B5DA
:108AB00000680068C043800611D44FF47A73012225
:108AC00069460748FBF776FB06484178402906D2FD
:108AD000034B9DF8002048335A54491C417008BD8F
:108AE00044120020060100200148FBF7BDB9000038
:108AF000AC0A00202DE9F041064600200D4617463D
:108B0000C5E90000044680460DE000BF16F8010BE1
:108B10004146E200F7F766FCD5E90023104319430C
:108B2000C5E90001641CBC42F0DB3046BDE8F081C1
:108B30002DE9F041064600200D461746C5E9000024
:108B4000044680460DE000BF16F8010B4146E200E6
:108B5000F7F748FCD5E9002310431943C5E90001A4
:108B6000641CBC42F0DB3046BDE8F081FEE770B526
:108B70000446807A0D46C0062AD5A17900200B292B
:108B800026D2DFE801F00614263646515F6A7A9451
:108B9000AD006269D5E9001092F90020D3178A1A56
:108BA00070EB03027DDBA26992F900201CE0D5E99D
:108BB00000016269B2F90020D317821A71EB030237
:108BC0006FDBA269B2F90020D317101A8B4169DB61
:108BD00098E06269D5E900101268D3178A1A70EB21
:108BE00003025EDBA2691268D317511A834159DB75
:108BF00088E0D5E900016269D2E90032C31A71EB5D
:108C0000020274DBA269D2E90032181A8A4177DBCA
:108C100078E06369D5E900211B78D31A71EB000372
:108C200065D3A3691B7809E06369D5E900211B8836
:108C3000D31A71EB00035AD3A3691B889A1A88418F
:108C40005ED35FE06369D5E900211B68D31A71EB3D
:108C500000034CD3A3691B68F0E7D5E900106369F2
:108C6000D3E900238A1A70EB030240D3A269D2E948
:108C70000032591A824143D344E06069006803F02E
:108C800057FA95ED001B53EC112B03F01BFA2ED372
:108C9000A069006803F04CFA95ED001B53EC112B12
:108CA00001E024E02CE003F0D3F82BD228E0606947
:108CB00095ED000B90ED001B51EC100B53EC112BBC
:108CC00003F0C6F813D3A06995ED000B90ED001BDF
:108CD00051EC100B53EC112B03F0F4F912D20FE00E
:108CE0002846F7F7D7FD61690978884201D201204B
:108CF00070BD2846F7F7CEFDA1690978884201D9F1
:108D0000022070BD002070BD7FB5054600200C46D6
:108D10000090019002900390A9790B293CD2DFE8E2
:108D200001F00609101A1214181A1D21260094F9D0
:108D3000000001E0B4F900005FEAE071CDE9000154
:108D400024E02068F8E7217800E02188CDE90010D0
:108D50001CE02168FAE7D4E90001EFE7206803F09E
:108D6000E7F9EBE794ED000B8DED000B0EE02046EC
:108D7000F7F790FD0F2801D30E2002E02046F7F709
:108D800089FD024621466846F7F7A3FD6946284655
:108D9000FFF7EDFE04B070BD0020FBE703B40198BF
:108DA0004100009850EAC12018BF04204A0D18BFA6
:108DB00040F0010040F2FF72B2EB515F08BF40F09B
:108DC0000200012808BF052002B070470907090EFC
:108DD000002804DB00F1E02080F80014704700F068
:108DE0000F0000F1E02080F8141D704730380A2889
:108DF00001D2012070470020704770471848417821
:108E0000002928D18178B0EE040A491CC9B28170CA
:108E10000A2921D31349C288098A62B1914201D932
:108E20008A1A00E0521A92B2052A02D8C278521C5D
:108E300000E00022C270C180C278032A0CD300EE89
:108E4000101ADFED090A0121B8EE400A80EE801AFF
:108E500080ED021A4170704780ED020A70470000F1
:108E6000F8000020640C002048E19A451FB58DE809
:108E70000E006946F9F702FB1FBD000030B5DFEDBB
:108E8000180A09291CD2174C174B2279CAB100EED7
:108E9000100A33F811009FED151AB8EE400A20EEC3
:108EA000200A00EE900AF8EE600A00EE810ABCEE9D
:108EB000C00A10EE100A23F8110010EE100A80B25A
:108EC00030BD00224FEA020523F81250521CD2B2E4
:108ED000092AF9D30122227123F8110030BD0000C4
:108EE000CDCC4C3EF8000020A80B0020CDCC4C3F50
:108EF0000F4A10B511688B6823F001038B6002F1F3
:108F000048010B681C6824F001041C600B68586061
:108F10000868016841F0010101601068816841F052
:108F2000010181600348816841F08041816010BD8A
:108F3000441000200020014070B5124886B0002483
:108F4000016841F001010160016801F00101059132
:108F5000016841F00401016000680F2500F0040081
:108F6000009505900326CDE9016469460648F9F7A6
:108F70005DFE0095CDE9016469460448F9F756FEA7
:108F800006B070BD303802400000024000080240C8
:108F9000F1B5504882B00025016841F4807101604C
:108FA000006800F4807000904A481438016841F469
:108FB000800101600068494C00F480000090464840
:108FC000C4E900050015A560C4E9035040006061D4
:108FD000800004F11801C70081E8A1002046F9F7DC
:108FE0005DFD00233E492046029AF9F7C1FD3C4E43
:108FF000A4F148004C3E06608463C0E9017501217C
:10900000C0E90351017680F820500922C261354A37
:10901000C0E90952C56280F83010F9F7D8FAFFF7B5
:109020008BFF072301220021A4F14800FFF71EFF58
:10903000072302220121A4F14800FFF717FF0723AD
:1090400003220221A4F14800FFF710FF07230422A6
:109050000321A4F14800FFF709FF072305220A2195
:10906000A4F14800FFF702FF072306220B21A4F119
:109070004800FFF7FBFE07231A460C21A4F1480025
:10908000FFF7F4FE072308220D21A4F14800FFF7A3
:10909000EDFED6F8040340F40000C6F804030723ED
:1090A00009221121A4F14800FFF7E0FE0322114636
:1090B0003C20F9F72BFF3C20F9F71AFF022202A906
:1090C000A4F14800F9F7F0FA2068016841F01001B6
:1090D0000160FEBD44380240706402408C100020E4
:1090E0004C2001400100000F2DE9F041334E307853
:1090F000012802D00020BDE8F081314F0024A7F103
:109100005C0500214FEA010000EBC0022244401C34
:1091100037F8122080B211443228F5D33220B1FB47
:10912000F0F080B225F81400E1B2FFF7A7FE25F8B1
:109130001400641CA4B2092CE3D3FFF75FFEDFED3B
:10914000210A96ED020A1E4A002060EE200A483AE3
:1091500002F1240135F81030032800EE103A02EB3A
:109160008003B8EE400A20EE200A83ED000A04D8FE
:10917000B1EE001A20EE010A0FE0031F032B0CD8FA
:1091800001EB80039FED101A20EE010A9FED0F1AEC
:10919000C0EE011AC3ED001A03E001EB800383ED7A
:1091A000000A401C80B20928D4D3002030704FF44C
:1091B000E170FFF79DFE01209DE70000F800002010
:1091C000C00C00200000803900007A44000070428A
:1091D00010B5FF24204600F021F855280AD055216B
:1091E000204600F04CF8204600F018F8552801D031
:1091F000012010BD002010BD01F05AB870B5144612
:109200000D46064606E03046711C8EB200F006F8A8
:1092100005F8010B641EA4B2F5D270BD10B504466A
:1092200001F0FAF8200AA02101EB4000C0B201F0E1
:10923000C3F801F037F9E0B201F0BEF801F032F9FD
:1092400001F0EAF8A12001F0B7F801F02BF90020B5
:1092500001F07EF8044601F005F9204610BD70B516
:1092600016460C46054606E02178284600F007F829
:109270006D1CADB2641C761EB6B2F5D270BD70B571
:109280000D46044601F0C8F8200AA02101EB400079
:10929000C0B201F091F801F005F9E0B201F08CF8EC
:1092A00001F000F9284601F087F801F0FBF801F021
:1092B000D9F8BDE870400A20F9F7B4BC154800B5EC
:1092C000016887B041F008010160006800F0080003
:1092D000059010481030016841F0040101600068F9
:1092E000012100F0040005904FF40040009002209E
:1092F000CDE901010390049069460748F9F796FC0F
:1093000006480178406800F00BF800F09DF807B0BF
:1093100000BD000030380240000C0240E800002090
:1093200070B50D4640F2E731134A4B1C5843B2FB6F
:10933000F0F35B1EB3F5803F01D34FF6FF73104A85
:109340000E48002482E81900C2E903145461104653
:109350009461FAF74DFC0A48602148300C22C0E9BC
:1093600000148460014604614838FAF7DBFB2846A4
:10937000BDE8704000F038B800BD010500080040AD
:10938000F40A002070B504461548144E642C457844
:1093900001D2642404E04FF4FA518C4200D90C4607
:1093A00044600DB100F050F840F2E731481C4443EE
:1093B000B6FBF4F0401EB0F5803F01D34FF6FF70CE
:1093C000084A136898621068C162D160002D03D00A
:1093D000BDE8704000F028B870BD000000BD010578
:1093E000E8000020F40A002010B504460C48642C64
:1093F00002D96424047001E004706CB1407808B9AB
:1094000000F012F807480168C86A401C4443C820AD
:10941000B4FBF0F0086410BDBDE8104000F014B8D3
:10942000E8000020F40A002010B5054C6078002800
:1094300005D10C210348FAF767FC0120607010BDCC
:10944000E8000020F40A002010B5054C60780128DF
:1094500005D10C210348FAF7BBFC0020607010BD59
:10946000E8000020F40A00200D4B1A681AB15B686E
:109470000BB1984202D34FF0FF30704700EB8000F1
:1094800002EBC000022303764183017A29B900F17F
:1094900018010C300EC980E80E0000207047000053
:1094A0001C00002010B50E4C23681BB164680CB181
:1094B000A04202D34FF0FF3010BD00EB800003EB61
:1094C000C0000124047681834283017A29B900F126
:1094D00018010C300EC980E80E00002010BD0000FD
:1094E0001C000020094A116861B1526852B19042D3
:1094F00008D200EB800001EBC001087B022803D0FA
:10950000032801D000207047887870471C00002095
:10951000F0B50F4D00240F462646C5E9000113E0C3
:109520002A6804EB840102EBC10086708680C68045
:1095300002F8316006720021204600F047F820460C
:1095400000F05EF8641CE4B2BC42E9D30020F0BD38
:109550001C0000200B4A116879B152686AB1904230
:109560000BD200EB800001EBC000017B012904D18C
:10957000007A032803D0042801D00020704701207E
:10958000704700001C0000200F4A1368BBB15268EE
:10959000AAB1904213D20C4B00EB8000CA071B68A3
:1095A00003EBC00004D0027A012A0AD0032A08D0B3
:1095B000890704D5007A022803D0042801D00020AE
:1095C00070470120704700001C0000200B4B1A68F8
:1095D0001AB15B680BB1984202D34FF0FF3070476D
:1095E00000EB800002EBC0000162027A22B9D0E9F0
:1095F0000623C260C0E90431002070471C0000202F
:109600000A4A116819B152680AB1904202D34FF068
:10961000FF30704700EB8000032201EBC000002107
:109620004276017681834183084670471C00002002
:109630002DE9F0413A4C06464FF00008206820B171
:10964000606810B1A06820B104E04FF0FF30BDE8C1
:10965000F081A66000250CE0206805EB850700EB93
:10966000C700406A804721686D1C01EBC701EDB25D
:10967000487060688542EFD300254AE0206805EB1A
:10968000850710F8371000EBC7004278914200D1EF
:109690001146027B32B1012A0AD0022A1ED0032AC7
:1096A0000CD121E02289B21A92B2FDF71CFA04E033
:1096B0002289B21A92B2FDF7D5F98046B8F1000FAF
:1096C00006D0206800EBC700416909B128468847E9
:1096D000216801EBC700027A62B115E02289B21A53
:1096E00092B2FDF78EF9E8E72289B21A92B2FDF73D
:1096F0003BF9E2E700F1180200F10C0E92E80C10C1
:109700008EE80C100022827040786D1C01F8370042
:10971000EDB260688542B1D30020A66097E70000F3
:109720001C0000202DE9F0414C4D0746286820B16F
:10973000686810B1A86820B104E04FF0FF30BDE8C0
:10974000F081AF6000244FF6FF76A04671E02868F4
:10975000AB6800EB0410FB1A8188721A9A4201D29E
:10976000868001E019448180C178CA0701D08278DF
:1097700062B1CA060ED5FDF7A9FA0146286800EBCA
:109780000410C27861F38202C2700DE04A0862F3ED
:10979000820108E0427800EBD20302F007021B7A54
:1097A000D34063F38201C170286800EB0410C178D4
:1097B000C9062AD54189AB68721AFB1A9A4201D2AE
:1097C000468101E0194441818288C1888A422ED9AC
:1097D000A0F80480C1780907018909D5491C89B21C
:1097E0000181142923D3C17821F00801C1701EE042
:1097F000491E0904090C018119D1C17841F0080101
:10980000C17011E0491E817011E08188C2889142C7
:109810000DD3A0F8048042784146521CD2B2427067
:1098200003789A4203D3417081780029EAD1641CFD
:10983000A4B2686884428AD3002409E0286800EB57
:109840000411C878C968C0F380008847641CA4B2BA
:1098500068688442F2D30020AF6070E7A000002067
:10986000094A10B5C2E900010022134607E000BF13
:1098700000EB0214521C23606360D2B2A3608A42E0
:10988000F6D3002010BD0000A00000200F4A116890
:1098900019B152680AB1904202D34FF0FF307047BD
:1098A000642201EB00100021C2808180027A5AB14B
:1098B000002202724170012202708170C17821F091
:1098C0001301C170002070470122F2E7A0000020C0
:1098D00030B5144D2C681CB16D680DB1A84202D38F
:1098E0004FF0FF3030BD04EB0010C18000218180BB
:1098F000012B01D04FF00203037241704FF00201BF
:1099000001708270C17841F00101C17002D141F053
:10991000020101E021F0020121F01001C1704FF0BD
:10992000000030BDA0000020074B10B51B6813B12C
:109930001C693CB902E04FF0FF3010BD1861197787
:1099400002B1DA60002010BDAC1300202DE9FC410B
:109950002B4D4FF0FF362C68002C4FD02069E8B318
:10996000287CC0074AD0FBF7FBFFB8B3A27F216970
:1099700002EB4202142351F832104160A27F2169A8
:1099800002EB420203EBC2020C26895881600021DF
:1099900001610177E268C260A37F226903EB4303A0
:1099A00006EBC3031027D2584261A67F236906EB5A
:1099B000460607EBC6069B59836181770121C17773
:1099C0000460EA602860A17F226901EB4103042161
:1099D00001EBC303D25872B1426800E00EE000927E
:1099E00080680190A27F206902EB420201EBC20174
:1099F0004158684688470020BDE8FC813046FBE7B7
:109A0000AC1300202DE9FC411C4C05464FF0FF3201
:109A1000206880B3217CC9072ED0016859B321602A
:109A20004969E160F8F7F0FB2068817F026901EB8A
:109A30004103082101EBC3030026D258AAB1827F5B
:109A4000036902EB420253F832700097142707EBC8
:109A5000C2029A580192C6770269807F00EB4000EB
:109A600001EBC0001158684688470DB12068867721
:109A70000020BDE8FC81FFE71046FAE7AC130020A8
:109A80002DE9F041134E05464FF0FF373068F0B92D
:109A9000114800240470FBF763FFC0B129684160DE
:109AA000696904608160E968C46041612A69046190
:109AB0008261047784774477C4773060347468684F
:109AC0007060A868C6E902010020BDE8F081384650
:109AD000FBE70000AC1300201005002058B151B185
:109AE0000B780278934200D90A70427883789A42C0
:109AF00004D2827009E04FF0FF3070470978D31A22
:109B00008B4202DB511A491C817000207047000013
:109B10001CB50C4C206810B1217CC90702D04FF055
:109B2000FF301CBD616829B14268009280680190D5
:109B3000684688470120207420684069E060002062
:109B40001CBD0000AC130020094A10B511684FF08D
:109B5000FF3339B10C692CB1127CD20702D00A7FD5
:109B6000824201D8184610BD8877002010BD000041
:109B7000AC1300200D4A10B511684FF0FF3461B1ED
:109B80000B6953B1127CD20707D00A7F8B7F521E1C
:109B9000934204DA5B1C8B7704E0204610BD18B1B9
:109BA00000208877002010BD8A77F6E7AC130020EC
:109BB0000D4A10B511684FF0FF3349B10C693CB143
:109BC000127CD20704D08A7F22B1521E8A7705E028
:109BD000184610BD20B1087F401E8877002010BDB8
:109BE00000208877F4E70000AC130020F0B5274C84
:109BF000ADB02068F8B1217CC9071CD0E16839B14B
:109C000042682B9280682C902BA888470020E06047
:109C1000206802696AB3017F8DF80010817F8DF89A
:109C20000110417F8DF80210416801918168029115
:109C300000216B460FE04FF0FF302DB0F0BD00BFAC
:109C400001EB410602EBC60603EB81053768EF60C6
:109C50007669491CEE659DF800508D4201DD14299E
:109C6000EEDBC16809B11846884721689DF80200FB
:109C700048772068816931B141682B9181682C91C6
:109C800081692BA888470020D7E70000AC1300208B
:109C90002DE9F0478946050004D000240C264FF03A
:109CA0001C0826E04FF0FF30BDE8F087286806EB7F
:109CB0004417C15900EB4410FFF726F8010006D005
:109CC000B9F1000F14D0286800EB44100EE02868AA
:109CD00008EB4411415859B1C059884740B1B9F116
:109CE000000F05D02868032100EB44104A46904736
:109CF000641CA888A042D9DC0020D5E72DE9FC41EE
:109D00005FEA000806D00020CDE90000481C0D786D
:109D1000541E20E04FF0FF30BDE8FC812A46694622
:109D2000FEF706FF0746DDE900010A0642EA1021B8
:109D3000C9B2C6B255FA80F0A0420ED8A819241AAA
:109D40004046F8F727FB28B10189B14202D13946D4
:109D5000FCF702FDB819AC42E0D80020DCE770B592
:109D600050EA010215D000220C2483880BE005681C
:109D700004EB4216AD598D4203D1006800EB42104E
:109D800004E0521C92B29342F1D80020817AC907B4
:109D900000D1002070BD0000F0B54FF0FF3618B3C1
:109DA00011B300241AE000BF01EB44139D690DB10B
:109DB0005D691DB99D7A25F010059D729D7AEF07AA
:109DC00002D125F002059D721D691DB99D7A25F00D
:109DD00004059D72DB683BB1641CA4B29442E3D3DA
:109DE000016082800020F0BD3046F0BD70B50023D8
:109DF00020B119B184880A68A24210D9002070BD30
:109E0000056804EB4216AD5DED0705D0006800EB78
:109E10004213521C0A6006E0521C0A6000E00A2449
:109E20008588AA42ECD3184670BD70B5050001D0F4
:109E3000002409E04FF0FF3070BD286800EB4410AB
:109E4000FCF790FF641CA4B2A888A042F5D80020BB
:109E500070BD2DE9F84306000C4606D04FF002080D
:109E6000601C81F8008000251BE00020BDE8F8831D
:109E70003168042202EB45128B5A082202EB45128C
:109E80008A5ACDF8008063F31F22D317FDF755F9E6
:109E90000746306800EB45113846FCF7F5FC3844BE
:109EA0006D1CB188A942E3DC001BDFE710B54FF061
:109EB000FF3420B1FCF756FF08B1002010BD20464A
:109EC00010BD00002DE9F0478246052A01D2052287
:109ED00002E0FA2A00D9FA22174D002000EB4003D5
:109EE00005EB83039B7A934222D300EB400305EBFF
:109EF000830300261C7A8CB10924A9460CE000BF1C
:109F000004EB440709EB87052D1F641EB5E880119B
:109F1000A5E8801105F8186C8442F1DC0120187264
:109F20005E72D981C3F810A099819A72BDE8F0875A
:109F3000401C0A28D2DBF9E73C09002010B50020BC
:109F40000F490346FF240870C1F8040003EB4302E5
:109F500001EB82025B1C10725072D0811061908103
:109F600094720A2BF2DB002201EBC203521CA3F80D
:109F70008200C3F88400A3F88000052AF4DB10BD3A
:109F80003C09002070B51E4C00212078002835D0F7
:109F90006068401C606010E0027A52B1828942B170
:109FA000521E1204120C828103D1C28982810122C5
:109FB0004272491CC9B20A2906D201EB410004EBE6
:109FC00080000269002AE7D1002511E0B0F8801076
:109FD00051B1491E0904090CA0F8801004D1B0F851
:109FE0008210A0F8801090476D1CEDB2052D05D2AF
:109FF00004EBC500D0F88420002AE7D170BD000032
:10A000003C0900200E4C01200026207000200FE0AB
:10A01000297A49B1697A39B100EB400004EB80003C
:10A02000006980476E72F1E7401CC0B20A28EDD289
:10A0300000EB400104EB810529690029E6D0E7E740
:10A040003C09002030B50446204889B0002501684D
:10A0500041F000510160006800F0005007901B487B
:10A060001038016841F0010101600068012C00F026
:10A070000100079020D0202000900320CDE90105A9
:10A0800069461348F8F7D2FD13491248086008469C
:10A09000F8F719FC0220CDE90550012C0ED0022C56
:10A0A00008D1102205A90C48F8F7ABFB10210A488B
:10A0B000F8F767FC09B030BD1020DDE7002205A9E4
:10A0C0000548F8F79EFB0021F1E700004038024008
:10A0D0000000024000740040EC10002010B504465F
:10A0E000E9B14FF47A6244F62060914201D2114600
:10A0F00002E0814200D90146084601F096FE9FED3C
:10A100000A1B53EC112B01F00BFD9FED091B53ECC7
:10A11000112B01F0D9FE01F05BFE81B22046BDE8B3
:10A12000104000F009B80000000000000088C340A3
:10A130000000000000408F4010B504462DED068B56
:10A14000084601F072FE9FED1C1B53EC112B01F031
:10A15000E7FC41EC190B1A48006801F0E9FF9FED9C
:10A1600019AB41EC180B53EC1A2B51EC190B01F005
:10A17000ABFE53EC182B01F0D3FC41EC180B53EC65
:10A180001A2B01F09FFF01D89FED108B012C51EC91
:10A19000180B0BD001F01CFE002203461021BDEC71
:10A1A000068BBDE810400B48F8F7DABB01F010FE53
:10A1B000002203461146F2E70000000000408F40F5
:10A1C00000010020000000000000B040000000007E
:10A1D00000FEAF40EC10002001490860704700000D
:10A1E000100000204FF47A71484300F001B80000DD
:10A1F00070B54FF0E024002265690949A369096838
:10A200004843A1699942FCD002D2A3EB010302E0CA
:10A21000A5EB010633441A440B468242F1D370BDCC
:10A220001000002004490A685206FCD5024AC1B257
:10A23000121D1160704700000014014006492F28CC
:10A2400007D201F10C02097802EBC00050F821009E
:10A2500070474868704700007406002070B5134DC1
:10A260004FF40074002221462846F8F7DCFD022056
:10A27000FFF7BEFF0122160231462846F8F7D3FD4C
:10A280000220FFF7B5FF002231462846F8F7CBFD44
:10A290000220FFF7ADFF012221462846F8F7C3FD53
:10A2A000BDE870400220FFF7A3BF00000004024099
:10A2B000154810B5016886B041F0020101600168DF
:10A2C00001F002010591016841F00201016000689E
:10A2D0000E4C00F0020005904FF4807000900120B9
:10A2E000019002900320039069462046F8F79EFCF7
:10A2F000601500901120019069462046F8F796FC01
:10A3000000F0B0F806B010BD303802400004024042
:10A3100070B50E4C012251022046F8F784FD022050
:10A32000FFF766FF0122150229462046F8F77BFD5C
:10A330000220FFF75DFF002229462046F8F773FD53
:10A34000BDE870400220FFF753BF00000004024048
:10A350002DE9F0470024174E804625464FF400793A
:10A360004FF480776006040E012239463046F8F734
:10A370005AFD0220FFF73CFF49463046F8F74EFDF4
:10A3800008B1641CE4B2002239463046F8F74BFDB0
:10A390000220FFF72DFF6D1CEDB2082DE2D3B8F1BE
:10A3A000000F04D0FFF75AFF2046BDE8F087FFF703
:10A3B000AFFFF9E7000402402DE9F041154F0024FA
:10A3C00005464FF40078BE15280601D5012200E0AD
:10A3D000002241463846F8F726FD0220FFF708FF25
:10A3E000012231463846F8F71EFD0220FFF700FF34
:10A3F000002231463846F8F716FD6806641C050E43
:10A40000E4B2082CE0D341463846BDE8F0410122D1
:10A41000F8F709BD0004024070B50122104D540246
:10A4200021462846F8F7FFFC01221602314628464D
:10A43000F8F7F9FC0220FFF7DBFE00222146284650
:10A44000F8F7F1FC0220FFF7D3FE00223146284640
:10A45000F8F7E9FCBDE870400220FFF7C9BE000034
:10A460000004024070B50E4D4FF4007400222146E6
:10A470002846F8F7D8FC0220FFF7BAFE01221102A5
:10A480002846F8F7D0FC0220FFF7B2FE0122214651
:10A490002846F8F7C8FCBDE870400220FFF7A8BEC8
:10A4A000000402402DE9F0410122174E002457021A
:10A4B000254639463046F8F7B6FC0220FFF798FEED
:10A4C0004FF48078012241463046F8F7ACFC022078
:10A4D000FFF78EFE07E0641CE4B2FA2C03D9FFF705
:10A4E000C1FF012505E039463046F8F797FC002802
:10A4F000F1D1002241463046F8F795FC0220FFF7E3
:10A5000077FE2846BDE8F08100040240F8F79EFC83
:10A51000FDF774FFFBF774F9FBF7BAF9FBF718F9CD
:10A52000FBF748F9FBF792F9FBF7D8F9F7F7F4FED8
:10A53000F7F722FFA820FFF74FFE4FF4E13000F0BD
:10A5400011FC2248416854208847FAF735FAFEF793
:10A55000B5FEF7F7C3FEF7F71BFFFEF74DFE00F061
:10A560004FF84FF41654204600F0DEF9204600F074
:10A5700073FA204600F0E8FAF9F750FFF9F7BAFF4E
:10A58000FAF762F80120FAF763F8FCF7FDFDFBF734
:10A59000C1F90FA0F5F760FFFFF7D0FC06221421E8
:10A5A0000F48FFF78FFC062214210E48FFF78AFCA4
:10A5B000062214210C48FFF785FC062214210B48C3
:10A5C000FFF780FCFFF71EFDFEE700001C040020E3
:10A5D00048656C6C6F20576F726C64210D0A000027
:10A5E000E3700008F5700008D570000803710008DA
:10A5F0000246012000E05043491EC9B2FBD2704719
:10A6000030B5224887B0016841F008010160006858
:10A610001F4D00F00800059080200090012001905F
:10A6200002900220039069462846F8F7FFFA0122BB
:10A6300080212846F8F7F7FB00F002FB012000F02C
:10A6400077FB00F029F813490880A0F56F4118390D
:10A6500019D1032000F044F80446C00713D100F0DC
:10A6600061F844F00201032000F070F8002280211C
:10A670002846F8F7D8FBB72000F04AFB01228021DA
:10A680002846F8F7D0FB07B030BD00003038024054
:10A69000000C02400401002070B5104D0022802102
:10A6A0002846F8F7C0FB902000F032FB002000F0B5
:10A6B0002FFB002000F02CFB002000F029FBFF20E6
:10A6C00000F026FB0402FF2000F022FB04430122DD
:10A6D00080212846F8F7A7FB204670BD000C0240F9
:10A6E00070B5012803D0022803D0032803D0052425
:10A6F00002E0352400E01524094D0022802128467F
:10A70000F8F791FB204600F003FBFF2000F000FB70
:10A710000446012280212846F8F785FB204670BDBB
:10A72000000C024010B5084C002280212046F8F7AA
:10A730007AFB062000F0ECFA20460122BDE810402A
:10A740008021F8F770BB0000000C024070B50E4687
:10A75000012803D0022803D0032803D0012402E0FB
:10A76000312400E01124094D002280212846F8F709
:10A770005AFB204600F0CCFA304600F0C9FA2846D1
:10A78000BDE8704001228021F8F74DBB000C02406B
:10A7900030B52A4D89B00024C5E902402C616C61B6
:10A7A000254AAC61C5E900212846F9F721FA05F1EF
:10A7B00048006021C0E900148460C4600461446101
:10A7C000014684610C224838F9F7ACF9082205F1FA
:10A7D00048012846F9F7A6F9042205F14801284660
:10A7E000F9F7A0F9002205F148012846F9F79AF98E
:10A7F0000C212846F9F788FA08212846F9F784FA47
:10A8000004212846F9F780FA00212846F9F77CFA56
:10A8100020216846F6F7D4F8202209496846F6F761
:10A820009DF869462846F8F7E5FF2868416C41F431
:10A830000041416409B030BD00000140001100201A
:10A84000248A010810B50446032801D0042C22D123
:10A85000E9B14FF47A6244F62060914201D2114688
:10A8600002E0814200D90146084601F0DEFA9FED80
:10A870000A1B53EC112B01F053F99FED091B53EC0C
:10A88000112B01F021FB01F0A3FA81B22046BDE8B3
:10A89000104000F027B810BD000000000088C34041
:10A8A0000000000000408F40642900D964210C4A58
:10A8B000D268521C4A436421B2FBF1F208490128D4
:10A8C000096807D0022807D0032807D0042800D140
:10A8D0004A6370470A647047CA6370478A63704767
:10A8E0000011002042F21072914200D9114600EE90
:10A8F000101ADFED0A0AB8EE400A20EE200ADFED5A
:10A90000080A80EE201AB6EE000A31EE000ABCEE0C
:10A91000C00A10EE101AC9B2FFF7C6BF0000C84245
:10A9200000401C46006870472DE9F04381463548D9
:10A9300087B00025016841F001010160016801F064
:10A9400001010591016841F001010160016801F018
:10A9500001010591016841F001010160006800F00A
:10A960000100059027481430016841F01001016092
:10A970000068022400F0100005904FF400700127D9
:10A980008DE891000720CDE90340DFF87C8069461F
:10A990004046F8F74BF96002009069464046F8F7E8
:10A9A00045F9CDE90274E601CDE900676946404604
:10A9B000F8F73CF9164C15482060C4E90195E560AC
:10A9C0000C202561C4E905052046F9F78DFB2068B8
:10A9D000C16821F04001C1602068C16841F02001D8
:10A9E000C1602520F8F784FA032211462520F8F7E4
:10A9F0008DFA002231464046F8F715FA07B0BDE857
:10AA0000F083000030380240000002400010014096
:10AA1000BC1100202DE9F04101220C4F0C460546E7
:10AA2000160231463846F8F7FEF94FF47A7322469B
:10AA300029460748F9F758FC0649002002460870E5
:10AA400031463846BDE8F041F8F7EDB90000024064
:10AA5000BC110020060100202DE9F0418046354858
:10AA600086B00025016841F010010160016801F025
:10AA700010010591016841F002010160016801F0D7
:10AA800002010591016841F002010160006800F0D7
:10AA90000200059027481030016841F480210160D0
:10AAA0000068022400F4802005904FF480600127A4
:10AAB0008DE891000720CDE903401F4E69463046DE
:10AAC000F8F7B4F8A002009069463046F8F7AEF8FF
:10AAD000CDE90274A603CDE90067184F69463846F0
:10AAE000F8F7A4F8174C16482060C4E90185E56022
:10AAF0000C202561C4E905052046F9F7F5FA206820
:10AB0000C16821F04001C1602068C16841F02001A6
:10AB1000C1602720F8F7ECF9032211462720F8F747
:10AB2000F5F9002231463846F8F77DF906B0BDE860
:10AB3000F081000030380240000402400010024062
:10AB400000480040441200202DE9F041804634487E
:10AB500086B00025016841F008010160016801F03C
:10AB600008010591016841F008010160016801F0E8
:10AB700008010591016841F008010160006800F0DA
:10AB80000800059026481030016841F4003101604A
:10AB90000068022400F400300590202001278DE891
:10ABA00091000720CDE903401E4E69463046F8F774
:10ABB0003DF84020009069463046F8F737F81020FD
:10ABC000CDE90007CDE9027469463046F8F72EF862
:10ABD000164C15482060C4E90185E5600C2025610C
:10ABE000C4E905052046F9F77FFA2068C16821F01D
:10ABF0004001C1602068C16841F02001C160262089
:10AC0000F8F776F9032211462620F8F77FF900229B
:10AC100010213046F8F707F906B0BDE8F0810000D2
:10AC200030380240000C024000440040CC120020AA
:10AC3000022801D201490870704700007406002004
:10AC400070B52F4986B000200A6842F480520A602D
:10AC500009682D4C01F4805105912A4921604FF477
:10AC60008271C4E90110022501262902C4E90561A7
:10AC7000C4E903053821C4E907106062A062072017
:10AC8000E0622046F8F716FC2068016841F04001B8
:10AC90000160FF2000F03CF819481438016841F0C9
:10ACA00002010160016801F002010591016841F0B3
:10ACB00002010160016801F002010591016841F0A3
:10ACC000020101600068114C00F0020005900820AC
:10ACD0008DE861000520CDE9035069462046F7F76D
:10ACE000A5FF1020009069462046F7F79FFF20201F
:10ACF000009069462046F7F799FF06B070BD000046
:10AD00004438024000300140641100200004024039
:10AD100001B582B04FF47A700090012301AA02A914
:10AD20000248F8F759FC9DF804000EBD641100209C
:10AD30000B4910B50A68136823F0400313600A68D2
:10AD400013684FF6C774234013600A68136843EA18
:10AD5000C00010600868016841F04001016010BD4A
:10AD60006411002030B5284987B0264AC1E9002087
:10AD700000208860C860086188610C20486108462E
:10AD8000F9F7B2F9012221491F48F9F76BFA204877
:10AD9000016841F010010160006800F010000590AA
:10ADA0001B481438016841F004010160016801F09A
:10ADB00004010591016841F004010160006801216E
:10ADC00000F004000590402000900220CDE9010130
:10ADD0000824CDE903040F4D69462846F7F726FFFE
:10ADE00080200090694604942846F7F71FFF47200B
:10ADF000F8F77EF8002211464720F8F787F807B0E9
:10AE000030BD000000140140AC0A002014000020F6
:10AE1000443802400008024070B596B0054614ABB5
:10AE200001AA03A900F0DEF9002824D18DF84C0016
:10AE30001D4C042615E000BF216806EBC00014ABD2
:10AE400008586A460BA900F0CDF9002813D103A9D0
:10AE50000BA800F0ECFB80B19DF84C00401C8DF875
:10AE60004C00217DC0B28142E6D8207D9DF84C1077
:10AE700088420ED1042016B070BD9DF800009DF8E8
:10AE80000410884201D90220F5E79DF84C00A07516
:10AE9000EBE713A9284600F05DFA0028EBD19DF8F6
:10AEA0004C0060750020E6E71C0400202DE9F0410D
:10AEB0007F4C9AB0A57D207DA8427DD904212068D1
:10AEC00001EBC50119AB405810AA11A900F08AF98D
:10AED00011A978A0F5F7C0FA00270DF1180833E0A2
:10AEE000208B0121B940084217D0222173A0F5F729
:10AEF000B3FA384600F0A8FA011971A02431F5F729
:10AF0000ABFA22216DA0F5F7A7FA384600F09CFABB
:10AF10002044243048F827000CE0384600F094FA2A
:10AF20002044416A48F82710E07D08B365A000BFBF
:10AF3000F5F792FA9DF84000401E874202D063A0C8
:10AF4000F5F78AFA7F1CFFB29DF840008742C7D30D
:10AF50005FA0F5F781FA00F0ABFD607D0B2814D2FD
:10AF6000DFE800F0080D31384048525E6B78880009
:10AF700058A0DDE7206850F83500804704E02068DD
:10AF800050F8351006988847064600F051FD9DF8A8
:10AF9000640001287DD050A0F5F75EFA94F8EC002B
:10AFA00000280DD0D4F8F0100A20B1FBF0F200FB1D
:10AFB0001212B1FBF0F100E002E048A0F5F74CFA04
:10AFC0001AB0BDE8F081206850F83520DDE90601AF
:10AFD0009047D9E7206806AE50F8353096E807006C
:10AFE0009847D1E7206806AE50F8355096E80F0034
:10AFF000A847C9E70A980090206806AE50F8355077
:10B0000096E80F00A847BFE7DDE90A01CDE9000196
:10B01000206806AE50F8355096E80F00A847B3E711
:10B020000AAB06AE93E807008DE80700206850F8E9
:10B03000355096E80F00A847A6E70AAE96E80F003D
:10B040008DE80F00206806AE50F8355096E80F00E6
:10B05000A84799E70BAE96E80F0001AE86E80F000F
:10B060000A980090206806AE50F8355096E80F0018
:10B07000A84789E70CAE96E80F0002AE86E80F00FD
:10B08000DDE90A01CDE90001206806AE50F835502F
:10B0900000E003E096E80F00A84775E7E07D314641
:10B0A00018B116A0F5F7D8F978E717A0FAE700006D
:10B0B0001C0400200D0A25732800000025630000F1
:10B0C0002573000030582558000000002C000000B7
:10B0D00029000000256C64003B0D0A0046756E6374
:10B0E00074696F6E2052756E2054696D653A2564DF
:10B0F0002E2531646D730D0A000000003D30582587
:10B10000583B0D0A000000003D256C753B0D0A0000
:10B11000F0B50446002007460646054623782C2B4A
:10B1200003D0292B04D01BB103E015B9012700E09F
:10B1300015B31EB1222B2BD0F7B92FE0A3F1300CA1
:10B14000BCF1090F19D92D2B17D02B2B15D0A3F13A
:10B15000610CBCF1050F10D9A3F1410CBCF1050F36
:10B160000BD9582B09D0782B07D0222B0CD0202BB1
:10B170001DD02C2B1BD0FF260CE05FB9612B00D318
:10B18000203B01F8013B12E027B9012635460EE0CD
:10B19000002567B100230B701670F0BD3DB15C2B2C
:10B1A00002D1401CC0B2641C237801F8013B401C52
:10B1B000C0B2641CB2E730B5002515700AE001F892
:10B1C000014B1478401C641CE4B214709C4201D3FF
:10B1D000012030BD0478202C01D0002CEFD10D705F
:10B1E000002030BD2DE9FF4F002582B0984604466F
:10B1F0002F462E464FF0010BAA462A46A94615E0D7
:10B20000202910D002F07F03052B0CD202B9802236
:10B2100002F07F03042B01D12A290AD1521C0DF818
:10B220000310D2B201E0852A04D0401C0178002925
:10B23000E6D162B102F07F0244A10DF802906846A7
:10B2400000F0F5F938B1012188F8001000224FF024
:10B250000008234614E088F80090F7E708F10100A1
:10B2600000F0FF0813F8010F202801D02A2807D189
:10B27000184600F069F9282802D02A2800D047464D
:10B280001878282801D00028E8D10FB13C44641C6C
:10B2900000273946207888B1282804D0292806D0EC
:10B2A00022280FD010E079B96D1CEDB20CE059B92D
:10B2B00025B16D1E15F0FF0501D00CE00127012E10
:10B2C00032D039E049B100214DB12C280FD02028CF
:10B2D0001FD028281DD07AB117E00121F4E72028DB
:10B2E00020D0039B18700398401C03901AE0521C56
:10B2F0004FF0010BD2B20CE0BAF1050F05D20DF8F8
:10B300000A000AF1010000F0FF0A0BF1010000F051
:10B31000FF0B012D06D1BBF1020F03D1761C4FF0BC
:10B32000030BF6B2641CB5E70DF80A9007A1684656
:10B3300000F07DF900B9002604980670039880F8A3
:10B34000009006B03846BDE8F08F0000766F696463
:10B35000000000002DE9F04300248946314DB5B0CE
:10B36000214622466B18491CC9B29A760A29F9D39C
:10B3700003E000BF10F8011F91B101782829F9D12D
:10B38000461C012733AA69463046FFF7C1FE064432
:10B390009DF8CC0040B1012824D0FF2839D10BE022
:10B3A000012035B0BDE8F0839DF8000080B334A9DA
:10B3B000684600F0D1F808B10220F2E7204600F01C
:10B3C00043F8284434994162288B07FA04F18843F2
:10B3D0002883042029198876641CE4B20A2C18D921
:10B3E0000320DEE7684600F037F900F10108204647
:10B3F00000F02AF841196846243100F024F9288B1E
:10B4000007FA04F108432919288381F81A80E3E731
:10B41000FFE73078292801D00028B3D189F800400F
:10B420000020BEE71C040020054900200A88130400
:10B4300005D5044BD0B200221A5418460A80704732
:10B4400016000020E4090020024610B50020014645
:10B45000054B05E05C18491CA47EC9B22044C0B26B
:10B460009142F7D310BD00001C04002000EBC00186
:10B4700001EB00104FF0FF3101EB800010B581B2FD
:10B480004FF47A7000F0ECFA01490120C87510BD44
:10B490001C0400200246012000E05043491EC9B2AE
:10B4A000FBD2704770B5FFF7BFFF050022D0124EE8
:10B4B000B1688847040013D0284600F0D7F8012867
:10B4C00001D0040016D0012C0ED0022C0ED0032C7B
:10B4D0000ED0042C0ED109A0BDE87040F4F7BCBF1B
:10B4E000F068BDE8704000470BA0F5E70EA0F3E759
:10B4F00011A0F1E770BD00001C040020E69CAAE644
:10B5000089BEE588B0E58CB9E9858DE79A84E58741
:10B51000BDE695B0210D0A00E587BDE695B0E9943A
:10B5200099E8AFAF210D0A00E58F82E695B0E99466
:10B5300099E8AFAF210D0A00E58F82E695B0E5A44A
:10B54000AAE5A49A210D0A0010F8011F202901D1B3
:10B550000028F9D1C8B270472DE9F0430D46002408
:10B560004FF00A09264601462C600A78A2F1300302
:10B57000092B14D903782D2B01D02B2B00D174B1BA
:10B58000A2F14103052B0AD9582A05D012F0FF0F6A
:10B5900017D00120BDE8F083012C02D0F9E7412A41
:10B5A00001D34FF0100902782D2A04D02B2A04D0A1
:10B5B000641CE4B203E0022600E00126401C491CA2
:10B5C000D3E70746B9F1100F01D084B112E0032C84
:10B5D00001D20220DEE73878302802D17878582866
:10B5E00001D00320D6E7A41EE4B2BF1C01E0042072
:10B5F000D0E70CB1641EE4B23878A0F1300109291B
:10B6000001D8884601E0A0F1370821464846FFF7F7
:10B6100041FF2A6808FB0020286017F8011F002955
:10B62000E7D1022E01D1404228600020B2E7027823
:10B630000B789A4201D00120704712B1401C491C7E
:10B64000F5E70020704702780A700278002A02D0DD
:10B65000401C491CF7E77047002102781AB1491CC9
:10B66000C9B2401CF9E7084670470000F0B58DB03C
:10B6700004461E236A4602A9FFF79DFD019000289B
:10B6800072D19DF80000271800267E4C8DF80060CE
:10B690009DF8000054F8201002A8FFF7C8FF38B149
:10B6A0009DF80000401CC0B28DF800000728EFD3C1
:10B6B0009DF800000425744C072855D2DFE800F0FF
:10B6C0000404395A81A0BF0070A0F4F7C5FE704889
:10B6D000F4F7C2FE6F48F4F7BFFE6F48F4F7BCFE04
:10B6E0006E48F4F7B9FE6E48F4F7B6FE6D48F4F70D
:10B6F000B3FE6DA0F4F7B0FE73A0F4F7ADFE7DA02D
:10B70000F4F7AAFE83A0F4F7A7FE8AA0F4F7A4FE3C
:10B7100090A0F4F7A1FE9848F4F79EFE9748F4F73E
:10B720009BFE9748F4F798FE9648F4F795FE9648E6
:10B730001BE056A0F4F790FE9448F4F78DFE8DF8C8
:10B7400000600BE0216805EBC000095890A0F4F7F9
:10B7500083FE9DF80000401C8DF80000217D9DF8BF
:10B7600000008142EED889E08AE0F4F775FE0020FF
:10B770000DB0F0BD45A0F4F76FFE8748F4F76CFEFE
:10B780008DF8006017E000BF216805EBC0000BAB2F
:10B7900008580AAA02A9FFF725FD9DF800102068A5
:10B7A00050F8312002A97DA0F4F756FE9DF8000064
:10B7B000401C8DF80000217D9DF800008142E3D8F7
:10B7C0005CE032A0F4F748FE6A4602A93846FFF76B
:10B7D0009FFC9DF80000002843D101A902A8FFF7B3
:10B7E000BBFE8DF8000010B104283AD102E070A031
:10B7F00001991CE071A0F4F72FFE0120E0753DE0F7
:10B8000022A0F4F729FE6A4602A93846FFF780FC19
:10B810009DF8000028BB01A902A8FFF79DFE8DF846
:10B82000000010B104281CD104E06AA00199F4F7CB
:10B8300013FE23E06AA0F4F70FFEE6751EE013A0E6
:10B84000F4F70AFE6A4602A93846FFF761FC9DF844
:10B85000000030B901A902A8FFF77EFE8DF80000B4
:10B8600008B1022084E7019810F0FF0084F8EC0092
:10B8700001D061A000E067A0F4F7EEFD03A074E73B
:10B88000012075E7680300201C0400200D0A000059
:10B89000648C0108788D0108A08F0108FC8F0108D5
:10B8A000B48E0108188E0108E68A80E69CAFE69403
:10B8B000AFE68C813A7777772E6F70656E65647628
:10B8C0002E636F6D0D0A000055534D415254E69C96
:10B8D0008937E4B8AAE7B3BBE7BB9FE591BDE4BBFA
:10B8E000A428E5BF85E9A1BBE5B08FE58699293A93
:10B8F0000D0A00003F3A202020202020E88EB7E5E6
:10B900008F96E5B8AEE58AA9E4BFA1E681AF0D0A3E
:10B910000000000068656C703A202020E88EB7E5D2
:10B920008F96E5B8AEE58AA9E4BFA1E681AF0D0A1E
:10B93000000000006C6973743A202020E58FAFE7A7
:10B9400094A8E79A84E587BDE695B0E58897E8A1D5
:10B95000A80D0A0069643A2020202020E58FAFE777
:10B9600094A8E587BDE695B0E79A844944E58897B1
:10B97000E8A1A80D0A000000588F0108108F0108E7
:10B98000708E0108CC8D0108A88C0108308D01084B
:10B9900025730D0A00000000EC8C01082573206956
:10B9A000642069733A0D0A3058253038580D0A0062
:10B9B0004845583A305825580D0A00003136E8BF3E
:10B9C0009BE588B6E58F82E695B0E698BEE7A4BA17
:10B9D000210D0A004445433A256C750D0A0000000C
:10B9E0003130E8BF9BE588B6E58F82E695B0E698F2
:10B9F000BEE7A4BA210D0A0052756E2054696D6528
:10BA00002043616C63756C6174696F6E204F4E0DDD
:10BA10000A00000052756E2054696D652043616C08
:10BA200063756C6174696F6E204F46460D0A0000A5
:10BA3000094800680169C943CA070849D1F8F020DC
:10BA400004D14FF6FF731A44C1F8F020406A104445
:10BA5000C1F8F00070470000641300201C040020AF
:10BA600038B5104A0023146844F0200414601268AA
:10BA70000D4C02F0200200920C4AC2E90230136120
:10BA8000C2E900411046F7F727FF0848F7F770FFB3
:10BA9000032211463720F7F739FABDE8384037203E
:10BAA000F7F726BA40380240001400406413002023
:10BAB00007486FF00101026811610268090CD16248
:10BAC000C1600068002141620248C0F8F010704770
:10BAD000641300201C0400200160704710B5002989
:10BAE0000AD00878002807D005487844F4F790FF7A
:10BAF000002801D0002010BD0248784410BD00008D
:10BB00005AE1000052E10000491058BFC1F1404124
:10BB10005B1058BFC3F140438B42EFF30080704786
:10BB20002DE9C04130B4DFF8A0C23CEA111418BFBF
:10BB30003CEA131400F0EC8081EA03051CEA1114BE
:10BB400044EAD57418BF1CEA131500F0C780A4EBB3
:10BB500005044FF0004545EAC12145EAC32341EA07
:10BB6000505143EA525304F17F74994204F5003472
:10BB70004FEAC0204FEAC22208BF904200F09C80EA
:10BB80004FEA13650FF24016765D4FEA134506FB48
:10BB900005F7C7F1807706FB07F74FEAD737A7FB12
:10BBA00003687642C8F58038A7FB06CE38BFA8F1F7
:10BBB000010807FB08E64FF0000EA6FB028CE6FB2F
:10BBC00003CEDCF1000CCEF1004E38BFAEF1010E19
:10BBD000A6FB0C584FF000074FF00005E6FB0E8760
:10BBE000A1FB08C6A0FB07CE16EB0E0645F100052B
:10BBF000E1FB076515F1E04E7EBFA4F580345FEAF6
:10BC000046066D4116F1800745F100054FEA1727FA
:10BC10004FEA066647EA0567A6F1DE46B6F1805FA1
:10BC20004FEA15251FD9384624F0010C05EBC471E5
:10BC3000BCF1FE6F01EB0C1102D8F0BCBDE8008135
:10BC400024425CBF01F5801E9EEAC47F02D4F0BC92
:10BC5000BDE80081244238D4F0BCA1F1C041BDE868
:10BC6000004100F029BA4FEAD22242EA43524FEA99
:10BC7000D323A7FB02864FEAD02040EA415007FBBE
:10BC800003661EEA0E0F4FEAD12105FB026658BF7C
:10BC9000A6EB0056B6EB00564FEA520E4EEAC37EB4
:10BCA00018EB0E0E56EB530EBDD518EB02085E4195
:10BCB0007F1C55F10005B6E74FF480154FF00007E3
:10BCC0004FF000064FF00008ADE7F0BC4FF0000069
:10BCD00001F1C04101F00041BDE8008111EA0C1FF3
:10BCE0000CEA131500D00CE013EA0C1F00F02580BD
:10BCF0004FF00000F0BC81EA030101F00041BDE813
:10BD00000081F0BCBDE8004181EA030100F0D4B934
:10BD1000F0BCBDE8004170B500F080F9097EFC3E42
:10BD200000F007B881EA03014FF0000001F0004184
:10BD3000704781EA030100F0BFB9F0BCBDE80041E3
:10BD40004FF0000021497047FFFDFBF9F7F5F4F2D1
:10BD5000F0EEEDEBE9E8E6E4E3E1E0DEDDDBDAD8A6
:10BD6000D7D5D4D3D1D0CFCDCCCBCAC8C7C6C5C404
:10BD7000C2C1C0BFBEBDBCBBBAB9B8B7B6B5B4B31B
:10BD8000B2B1B0AFAEADACABAAA9A8A8A7A6A5A406
:10BD9000A3A3A2A1A09F9F9E9D9C9C9B9A999998CA
:10BDA0009797969595949393929191908F8F8E8E6D
:10BDB0008D8C8C8B8B8A89898888878786858584FA
:10BDC00084838382828181800000FF070000F87FE6
:10BDD0004FEA1153A3F58063D3F11E03A8BFD3F13B
:10BDE000200C08DB4FF0004242EAC12252EA5052D6
:10BDF00032FA03F0704709420BD4102BC4BF002065
:10BE0000704703F5787CBCF1FF3F05D04FF0FF3061
:10BE100070474FF00000704770B500F0FFF800BFAA
:10BE20004992248000207047F0E7B0FA80F310FABE
:10BE300003F10AD0C3F11D0303F580634FEA4150BB
:10BE40004FEA035202EBD12170474FF000007047D8
:10BE500051EA030C17D41CF5801F58BFBCF5801F96
:10BE600000F10680994218BF704708BF90427047A2
:10BE700007D711F5801F58BF13F5801F19D49942B9
:10BE80007047894270471CF5801F08D5BCF5801F9C
:10BE9000F7D58B4218BF704708BF824270474FF4F6
:10BEA000001C1CEB410F38BF1CEB430F01D28B422F
:10BEB000704770B500F0B2F8922449004FF000517D
:10BEC0004FF08053FFF720BEDFF848C170B51CEA81
:10BED000111E1EBF1CEA13159EEA0C0F95EA0C0FEB
:10BEE00000F06F8081EA030423EA4C134EEAD47E0B
:10BEF00021EA4C1141F4801143F48013AE44A1FBBC
:10BF0000024CA0FB0365AEF17F7E361955EB0C05A4
:10BF1000A1FB034C4CF10003A0FB021C16EB0C062A
:10BF2000654153F10003094218BF46F0010613F4BE
:10BF3000007F0BD14FEA03314FEA0530340341EA69
:10BF4000155140EA16506FF003020AE04FEAC32190
:10BF50004FEAC520F40241EA555140EA56506FF0CD
:10BF6000020202EB2E4201EB025585EACE710AD0A5
:10BF70005FEA440C18BF24F0004450F1000041F186
:10BF8000000120EAD47040F2FE7C624500D270BD10
:10BF9000A84214BF4FF080444FF04044002E08BF29
:10BFA0000024BEF1806FA8BFA1F1C041BDE8704080
:10BFB00080F282804FF0000001F1C04101F00041A9
:10BFC00070479EEA0C0F0CEA131518BF95EA0C0F88
:10BFD00006D04FF0000081EA030E0EF0004170BD64
:10BFE00000F01CF88900013E00F007B800F009B825
:10BFF0004FEA430C5FEA5C5C08D081EA030100F081
:10C000005BB84FEA410C5FEA5C5CF6D14FF0000090
:10C01000014970470000FF070000F87F0EF1020E93
:10C020002EF0030E5EF8046B364205D4012A43EB72
:10C03000030515F5001F12D8012841EB010C1CF572
:10C04000001F0CD80ED14FEAD17C15F5001F0CEB68
:10C050004C0C0CF1020C08BF4CEBD37C04E04FF00D
:10C06000080C01E04FEAD37C0CEB4C0526FA05F6F0
:10C0700006F00706B6F1040C06D20EEB860CBDE8FE
:10C0800070404CF0010C6047DFE80CF0090B020235
:10C090004FF000414FF00000A1F5002170BD19469E
:10C0A0001046012851EB010418BFD4F5001484BFD9
:10C0B000002001F0004170BD0808A0F500114FEA12
:10C0C0003101704753EA010C17D41CF5801F58BF8B
:10C0D000BCF5801F00F106808B4218BF704708BF77
:10C0E0008242704707D713F5801F58BF11F5801F94
:10C0F00019D48B4270479B4270471CF5801F08D5AE
:10C10000BCF5801FF7D5994218BF704708BF904211
:10C1100070474FF4001C1CEB430F38BF1CEB410F62
:10C1200001D2994270470FB40CBC03BCFFF7C1BEEB
:10C1300043004FEAD30C4FEA3C0C43401FBF40077B
:10C140000CF1605113F0FE4F70471CF0006F03D1EB
:10C1500000200CF0004170470CF0004343EA50709F
:10C1600010B540EACC0000F00EF800BF00000092CD
:10C170004FEA0001FFF7A0BF4FF000414FF0000071
:10C18000A1F5002170470EF1020E2EF0030E5EF8AD
:10C19000044B244204D44FEA4102B2F17F4F11D83C
:10C1A0004FEA4003B3F17F4F0CD80ED14FEAD07C59
:10C1B000B2F17F4F0CEB4C0C0CF1020C08BF4CEBB6
:10C1C000D17C04E04FF0080C01E04FEAD17C0CEB8D
:10C1D0004C0324FA03F404F00704B4F1040C06D26F
:10C1E0000EEB840CBDE810404CF0010C6047DFE81A
:10C1F0000CF0070802024FF00040A0F5800010BDCF
:10C200000846420018BFD2F1807288BF00F000409B
:10C2100010BD4FF04070E1EE100A7047F4F7B3BD67
:10C2200000061016000610160000000000000000B6
:10C2300001020304060708090000000001020304CC
:10C2400000000000000000000000000000000404E6
:10C25000040404000004000014140A00000000009C
:10C260000000000000000A0A1F0A0A1F0A0A000054
:10C2700000040E1505060C14150E0400000012151E
:10C280000D152E2C2A1200000000040A0A3615157E
:10C29000291600000202010000000000000000005A
:10C2A0001008080404040404080810000204040828
:10C2B000080808080404020000000004150E0E150A
:10C2C0000400000000000008083E0808000000000C
:10C2D0000000000000000000020201000000000059
:10C2E000003F00000000000000000000000000000F
:10C2F00000020000002010100808040402020100DF
:10C3000000000E1111111111110E000000000406A1
:10C3100004040404040E000000000E1111080402BD
:10C32000011F000000000E11100C1010110E000073
:10C330000000080C0C0A091F081C000000001F0167
:10C34000010F1110110E000000000C12010D13114D
:10C35000110E000000001E10080804040404000070
:10C3600000000E11110E1111110E000000000E112F
:10C37000111916100906000000000000040000005A
:10C38000000400000000000000040000000404009D
:10C390000000100804020204081000000000000061
:10C3A0003F003F00000000000000020408101008D9
:10C3B0000402000000000E11110804040004000033
:10C3C00000001C22292D2D1D221C00000000040449
:10C3D0000C0A0A1E1233000000000F12120E121275
:10C3E000120F000000001E1101010101110E0000DA
:10C3F00000000F1212121212120F000000001F1282
:10C400000A0E0A02121F000000001F120A0E0A0282
:10C410000207000000001C1201013911120C00007B
:10C4200000003312121E12121233000000001F040B
:10C4300004040404041F000000003E080808080863
:10C4400008080907000037120A060A12123700000E
:10C450000000070202020202223F000000003B1B14
:10C460001B1B15151535000000003B1216161A1A75
:10C470001217000000000E1111111111110E000011
:10C4800000000F12120E02020207000000000E113F
:10C4900011111117190E180000000F12120E0A12B6
:10C4A0001237000000001E1101060810110F0000D5
:10C4B00000001F1504040404040E000000003312E1
:10C4C00012121212120C000000003312120A0A0C8F
:10C4D000040400000000151515150E0A0A0A0000D4
:10C4E00000001B0A0A04040A0A1B000000001B0AC1
:10C4F0000A0A0404040E000000001F0908040402D4
:10C50000121F00001C0404040404040404041C009E
:10C510000002020404040808081010000E080808AD
:10C520000808080808080E00040A000000000000BF
:10C530000000000000000000000000000000003FBC
:10C5400002040000000000000000000000000000E5
:10C55000000C121C123C000000030202020E121218
:10C56000120E000000000000001C1202120C00005D
:10C5700000181010101C1212123C000000000000E5
:10C58000000C121E021C000000182404041E0404E7
:10C59000041E000000000000003C120C021C221CC3
:10C5A00000030202020E12121237000000040400FF
:10C5B00000060404040E000000080800000C08082F
:10C5C0000808080700030202021A0A060A130000FC
:10C5D0000007040404040404041F00000000000019
:10C5E000000F15151515000000000000000F1212B5
:10C5F0001237000000000000000C1212120C0000A4
:10C6000000000000000F1212120E020700000000CE
:10C61000001C1212121C103800000000001B060241
:10C620000207000000000000001E020C101E0000A7
:10C6300000000004041E0404041C000000000000AC
:10C64000001B1212123C000000000000001B0A0A2E
:10C6500004040000000000000015150E0A0A000086
:10C6600000000000001B0A040A1B0000000000007C
:10C67000003312120C08040300000000001E08041E
:10C68000041E000018080808080C0808080818000C
:10C690000808080808080808080808080604040428
:10C6A0000408040404040600160900000000000049
:10C6B000000000000000000000000000000000007A
:10C6C0000000000000000008080808080808000032
:10C6D0001818000000486C24120000000000000040
:10C6E000000000000000002424247F1212127F1298
:10C6F000121200000000081C2A2A0A0C1828282AF6
:10C700002A1C080800000022251515152A58545423
:10C71000542200000000000C1212120A7625291182
:10C72000916E0000000606040300000000000000F7
:10C730000000000000402010100808080808081039
:10C7400010204000000204080810101010101008FB
:10C75000080402000000000008086B1C1C6B08089D
:10C760000000000000000000080808087F08080812
:10C7700008000000000000000000000000000000B1
:10C78000060604030000000000000000FE00000098
:10C790000000000000000000000000000000000099
:10C7A0000606000000008040402020101008080409
:10C7B0000402020000000018244242424242424267
:10C7C00024180000000000080E08080808080808DF
:10C7D000083E00000000003C4242422020100804B5
:10C7E000427E00000000003C4242201820404042AF
:10C7F000221C0000000000203028242422227E2059
:10C80000207800000000007E0202021A264040420A
:10C81000221C0000000000382402021A2642424274
:10C82000241800000000007E2222101008080808CA
:10C83000080800000000003C424242241824424202
:10C84000423C00000000001824424242645840402C
:10C85000241C000000000000000018180000000068
:10C860001818000000000000000000080000000090
:10C87000000808040000004020100804020408100A
:10C88000204000000000000000007F0000007F004A
:10C8900000000000000000020408102040201008E2
:10C8A000040200000000003C4242464020101000FC
:10C8B000181800000000001C225A555555552D42ED
:10C8C000221C00000000000808181414243C224216
:10C8D00042E700000000001F2222221E22424242A4
:10C8E000221F00000000007C4242010101010142C0
:10C8F000221C00000000001F2242424242424242EB
:10C90000221F00000000003F4212121E12120242BB
:10C91000423F00000000003F4212121E12120202AB
:10C92000020700000000003C2222010101712122C7
:10C93000221C0000000000E7424242427E42424286
:10C9400042E700000000003E080808080808080840
:10C95000083E00000000007C101010101010101095
:10C960001010110F0000007722120A0E0A12122274
:10C970002277000000000007020202020202020207
:10C98000427F000000000077363636362A2A2A2AEF
:10C990002A6B0000000000E346464A4A52525262A7
:10C9A000624700000000001C2241414141414141D9
:10C9B000221C00000000003F424242423E020202AE
:10C9C000020700000000001C2241414141414D533B
:10C9D000321C60000000003F4242423E12122222FE
:10C9E00042C700000000007C42420204182040427E
:10C9F000423E00000000007F4908080808080808B7
:10CA0000081C0000000000E742424242424242420B
:10CA1000423C0000000000E7424222242414141883
:10CA2000080800000000006B494949495555362265
:10CA300022220000000000E74224241818182424B1
:10CA400042E70000000000772222141408080808BA
:10CA5000081C00000000007E212010100804044281
:10CA6000423F00000078080808080808080808087D
:10CA700008087800000002020404080808101020CA
:10CA800020204040001E1010101010101010101028
:10CA900010101E00003844000000000000000000DC
:10CAA0000000000000000000000000000000000086
:10CAB000000000FF00060800000000000000000069
:10CAC00000000000000000000000003C42784442EA
:10CAD00042FC0000000000030202021A2642424209
:10CAE000261A000000000000000000384402020284
:10CAF0004438000000000060404040784442424218
:10CB000064D80000000000000000003C427E0202E9
:10CB1000423C0000000000F08808087E0808080871
:10CB2000083E0000000000000000007C22221C02E1
:10CB30003C42423C000000030202023A46424242AA
:10CB400042E700000000000C0C00000E0808080876
:10CB5000083E000000000030300000382020202077
:10CB60002020221E0000000302020272120A161286
:10CB7000227700000000000E0808080808080808CE
:10CB8000083E0000000000000000007F9292929298
:10CB900092B70000000000000000003B4642424205
:10CBA00042E70000000000000000003C4242424218
:10CBB000423C0000000000000000001B26424242F0
:10CBC000221E02070000000000000078444242429A
:10CBD000447840E000000000000000774C040404AA
:10CBE000041F0000000000000000007C42023C40E6
:10CBF000423E0000000000000008083E0808080847
:10CC00000830000000000000000000634242424281
:10CC100062DC000000000000000000E74224241451
:10CC20000808000000000000000000EB49495555CD
:10CC300022220000000000000000007624181818CE
:10CC4000246E000000000000000000E742242414CD
:10CC500018080807000000000000007E22100808E5
:10CC6000447E000000C02020202020102020202012
:10CC70002020C000101010101010101010101010F4
:10CC80001010101000060808080808100808080806
:10CC9000080806000C32C20000000000000000007E
:10CCA0000000000000000000000000000000000084
:10CCB0000000000000000000000000000000000074
:10CCC0000000000000000000000000000000000064
:10CCD0000000000000000000000000006000600094
:10CCE00060006000600060006000400020002000E4
:10CCF00020000000000000006000600060000000F4
:10CD0000000000000000000060066006300398018B
:10CD10008800440000000000000000000000000047
:10CD20000000000000000000000000000000000003
:10CD300000000000000000000000000010021002CF
:10CD400010021002FE07FE07080208010801080190
:10CD50000801FE07FE0704010401040104010000AC
:10CD60000000000000000000000040004000F00152
:10CD700058034C03CC034C0058007000E000C00185
:10CD8000C00140034C035C034C034801F000400029
:10CD90004000000000000000000000000E010A0139
:10CDA000910091009100510051003A00AE03A002A1
:10CDB00050045004480448044804840284030000DA
:10CDC00000000000000000000000000038006C00BF
:10CDD0006C006C006C006C002C0098071C011A01A0
:10CDE000330133016301E300C308C6093C070000B7
:10CDF00000000000000000000C001C0010001000EB
:10CE00000800040000000000000000000000000016
:10CE10000000000000000000000000000000000012
:10CE2000000000000000000000040002000180007B
:10CE30008000400040002000200020002000200052
:10CE4000200020004000400080008000000100021F
:10CE500000040000000000000200040008001000B0
:10CE60001000200020004000400040004000400032
:10CE700040004000200020001000100008000400C6
:10CE800002000000000000000000000000000000A0
:10CE90004000C0004000460C4E0FD001F0015E0F74
:10CEA000460C400040004000000000000000000070
:10CEB0000000000000000000000000000000000072
:10CEC000000040004000400040004000FE0F4000D5
:10CED0004000400040004000000000000000000052
:10CEE0000000000000000000000000000000000042
:10CEF0000000000000000000000000000000000032
:10CF000000000000000000000C001C0010001000D9
:10CF10000800040000000000000000000000000005
:10CF2000000000000000000000000000FE070000FC
:10CF300000000000000000000000000000000000F1
:10CF400000000000000000000000000000000000E1
:10CF500000000000000000000000000000000000D1
:10CF600000000000000000001C001C001C0000006D
:10CF700000000000000000000004000600020003A2
:10CF8000000100018000800040004000600020009F
:10CF9000200010001000080008000C00040006002B
:10CFA0000200000000000000000000000000F0008F
:10CFB00098010C030C03060606060606060606067E
:10CFC0000606060606060C030C039801F000000096
:10CFD0000000000000000000000000000000400011
:10CFE0007C00600060006000600060006000600025
:10CFF000600060006000600060006000FC030000F2
:10D000000000000000000000000000000000F80028
:10D010008401020306030603000300018001C0002F
:10D02000600020001000080204020602FE03000057
:10D030000000000000000000000000000000780078
:10D04000C6008601860180018001C0007000800159
:10D05000000100030003060306038601F800000038
:10D06000000000000000000000000000000080013F
:10D070008001C001A001A001900188018801840104
:10D080008201FE0F8001800180018001E007000025
:10D090000000000000000000000000000000FC0391
:10D0A00004000400040004000400F4008C010403E4
:10D0B000000300030603060382018401F800000058
:10D0C0000000000000000000000000000000E0017F
:10D0D00018030C030C0004000600E60116030E06FC
:10D0E00006060606060604060C021803F0000000F9
:10D0F0000000000000000000000000000000F80731
:10D100000C060402040100010001800080004000C0
:10D1100040004000600060006000600060000000AF
:10D120000000000000000000000000000000F80106
:10D130000C030606060606060C021C03F000C801D6
:10D140000C0306060606060606060C03F0010000A0
:10D150000000000000000000000000000000F000DF
:10D160000C010C03060206060606060606078C06D8
:10D1700078060006000300030C018C017800000013
:10D18000000000000000000000000000000000009F
:10D190000000000000000000E000E000E0000000EF
:10D1A0000000000000000000E000E000E0000000DF
:10D1B000000000000000000000000000000000006F
:10D1C000000000000000000060006000000000009F
:10D1D000000000000000000000006000600040004F
:10D1E00020002000000000000000000000040002F9
:10D1F000000180004000200010000800040008002A
:10D200001000200040008000000100020004000027
:10D21000000000000000000000000000000000000E
:10D220000000000000000000FE07000000000000F9
:10D23000FE070000000000000000000000000000E9
:10D2400000000000000000000000000004000800D2
:10D2500010002000400080000001000200040002D5
:10D2600000018000400020001000080004000000C1
:10D270000000000000000000000000000000E003CB
:10D280001806040C040C0C0C0C0C00078001400068
:10D290004000400000000000E000E000E00000006E
:10D2A000000000000000000000000000E000180383
:10D2B0000C02CC0564056605A605B604B604B604E2
:10D2C000B604B602E4010C040C021803F0000000DE
:10D2D00000000000000000000000000000006000EE
:10D2E00060005000D0009000900088008801080184
:10D2F000F801040304030402020202060F0F0000F7
:10D300000000000000000000000000000000FE001F
:10D310008C030C030C030C030C038C01FC000C03AA
:10D320000C020C060C060C060C060C03FE01000099
:10D330000000000000000000000000000000E0030A
:10D3400018030C060C040404060006000600060080
:10D350000600060006040C040C021803F00000008E
:10D3600000000000000000000000000000007F003E
:10D370008C010C030C030C060C060C060C060C06A8
:10D380000C060C060C060C030C038C017F0000003D
:10D390000000000000000000000000000000FF038B
:10D3A000060306040604060086008600FE008600CA
:10D3B000860086000600060406040602FF0300003D
:10D3C0000000000000000000000000000000FF035B
:10D3D000060306040604060086008600FE0086009A
:10D3E0008600860006000600060006001F000000FA
:10D3F0000000000000000000000000000000F0003D
:10D4000018010C020C0204020600060006000600C9
:10D41000C60F060306030C030C031803F0000000FC
:10D4200000000000000000000000000000000F0FDE
:10D43000060606060606060606060606FE07060693
:10D440000606060606060606060606060F0F000076
:10D450000000000000000000000000000000FC03CD
:10D4600060006000600060006000600060006000BC
:10D47000600060006000600060006000FC0300006D
:10D480000000000000000000000000000000F8079D
:10D49000C000C000C000C000C000C000C000C0008C
:10D4A000C000C000C000C000C000C000C000C60076
:10D4B00066003C0000000000000000000000CF03F8
:10D4C0008601C60046002600160036002E006E00BB
:10D4D0004600C60086008601060106038F0700008D
:10D4E00000000000000000000000000000001F001D
:10D4F00006000600060006000600060006000600FC
:10D50000060006000600060406040602FF030000EB
:10D5100000000000000000000000000000000707FD
:10D52000860386038E038E034E034E034A035A037B
:10D530005A033A033203320332031203870700000F
:10D5400000000000000000000000000000008E0F3E
:10D550000C021C021C023402340264026402440203
:10D56000C402840284038403040304031F02000032
:10D570000000000000000000000000000000F000BB
:10D5800098010C030C0206060606060606060606A9
:10D590000606060606060C020C039801F0000000C1
:10D5A0000000000000000000000000000000FF007C
:10D5B0000603060606060606060606068603FE009F
:10D5C0000600060006000600060006001F00000018
:10D5D0000000000000000000000000000000F0005B
:10D5E00098010C030C020606060606060606060649
:10D5F0000606060676064C02CC039801F00080076A
:10D600000003000000000000000000000000FF0117
:10D61000060306060606060606060603FE00460084
:10D62000C600860086010603060306060F0E0000EC
:10D630000000000000000000000000000000F802F0
:10D640000C030602060206000E003C00F800E00390
:10D65000800300070206020606060C03F001000024
:10D660000000000000000000000000000000FE07B5
:10D670006204610861086000600060006000600092
:10D68000600060006000600060006000F801000061
:10D6900000000000000000000000000000001E0765
:10D6A0000C020C020C020C020C020C020C020C020A
:10D6B0000C020C020C020C020C021801F00000001B
:10D6C00000000000000000000000000000000F0744
:10D6D0000602040104010C010C0188008800980076
:10D6E0009800500050007000300020002000000022
:10D6F0000000000000000000000000000000F70E25
:10D70000620442044604460464026402E402E40241
:10D710009C029C0198019801880188008800000003
:10D7200000000000000000000000000000009E0754
:10D730000C01080118019000B0006000200060009A
:10D740006000D00090008801080104038E070000EB
:10D7500000000000000000000000000000000F0FAB
:10D76000060404020C0208011801B800B0007000A1
:10D77000600060006000600060006000F801000070
:10D780000000000000000000000000000000FC0796
:10D790000C020603020180018000400040002000CE
:10D7A00020001000180008040C040402FE0300000E
:10D7B0000000000000000000E00320002000200026
:10D7C0002000200020002000200020002000200059
:10D7D0002000200020002000200020002000200049
:10D7E000E00300000000000000000000040004004E
:10D7F0000800080010001000100020002000400069
:10D800004000C00080008000000100010002000212
:10D8100000020004000000007C00400040004000C6
:10D8200040004000400040004000400040004000F8
:10D8300040004000400040004000400040004000E8
:10D840007C00000000006000900008010000000063
:10D8500000000000000000000000000000000000C8
:10D8600000000000000000000000000000000000B8
:10D8700000000000000000000000000000000000A8
:10D880000000000000000000000000000000000098
:10D890000000000000000000000000000000000088
:10D8A0000000FF0F000000001800600000000000F2
:10D8B0000000000000000000000000000000000068
:10D8C0000000000000000000000000000000000058
:10D8D0000000000000000000000000000000000048
:10D8E0000000000000000000F0010C030C03000326
:10D8F000E0031C030E03060306038E0B7C0E0000E0
:10D9000000000000000000000000000008000E0001
:10D910000C000C000C000C00CC013C031C060C0697
:10D920000C060C060C060C060C021C03E40100009D
:10D9300000000000000000000000000000000000E7
:10D940000000000000000000F0008C018C01860146
:10D9500006000600060006020C020C01F0000000A2
:10D960000000000000000000000000000002C003F2
:10D97000000300030003000378038C030C03060379
:10D98000060306030603060304038C077801000060
:10D990000000000000000000000000000000000087
:10D9A0000000000000000000E001180308020C065F
:10D9B0000C06FC070C000C0018041802E001000023
:10D9C0000000000000000000000000000000C00394
:10D9D0006006300630003000FE01300030003000BC
:10D9E000300030003000300030003000FC0100001A
:10D9F0000000000000000000000000000000000027
:10DA00000000000000000000F007D8068C018C0127
:10DA10008C019801F8000C00FC00CC0306030603FF
:10DA20008E03F800000000000000000008000E0057
:10DA30000C000C000C000C00EC011C030C030C038C
:10DA40000C030C030C030C030C030C039E070000D7
:10DA50000000000000000000000000000000600066
:10DA600060000000000040007C006000600060007A
:10DA7000600060006000600060006000FC03000067
:10DA80000000000000000000000000000000C001D5
:10DA9000C001000000000001F00180018001800150
:10DAA000800180018001800180018001800180016E
:10DAB000CC007C00000000000000000008000E0008
:10DAC0000C000C000C000C008C038C008C004C0033
:10DAD0006C005C008C008C010C010C039E070000A4
:10DAE00000000000000000000000000040007C007A
:10DAF0006000600060006000600060006000600026
:10DB0000600060006000600060006000FC030000D6
:10DB10000000000000000000000000000000000005
:10DB200000000000000000003707EE0666066606EB
:10DB3000660666066606660666066606FF0F00004F
:10DB400000000000000000000000000000000000D5
:10DB50000000000000000000EE011C030C030C0399
:10DB60000C030C030C030C030C030C039E070000B6
:10DB700000000000000000000000000000000000A5
:10DB80000000000000000000F00098010C030606F1
:10DB900006060606060606060C030C03F000000047
:10DBA0000000000000000000000000000000000075
:10DBB0000000000000000000EE011C030C060C0633
:10DBC0000C060C060C060C060C031C03EC010C00E6
:10DBD0000C003E00000000000000000000000000FB
:10DBE000000000000000000078028C030C03060314
:10DBF000060306030603060304038C0378030003ED
:10DC00000003C0070000000000000000000000004A
:10DC100000000000000000009F03580638061800AE
:10DC2000180018001800180018001800FF00000065
:10DC300000000000000000000000000000000000E4
:10DC40000000000000000000F0031C030C020C02A6
:10DC50003800F000C003040304038C03FC0100003F
:10DC600000000000000000000000000000000000B4
:10DC70002000200030003000FE0130003000300075
:10DC8000300030003000300030023002E00100008F
:10DC90000000000000000000000000000000000084
:10DCA00000000000000008028E030C030C030C03AC
:10DCB0000C030C030C030C030C039C0778010000FD
:10DCC0000000000000000000000000000000000054
:10DCD00000000000000000001E070C0208010801FF
:10DCE00018019000B000B00060006000200000004B
:10DCF0000000000000000000000000000000000024
:10DD00000000000000000000F70E620446046402F8
:10DD10006402EC029C01980198019801080000003F
:10DD200000000000000000000000000000000000F3
:10DD30000000000000000000BC0718011001B00046
:10DD400060006000E0009000080108039E070000EA
:10DD500000000000000000000000000000000000C3
:10DD600000000000000000009E07080108010801F3
:10DD700090009000B0006000600060002000200073
:10DD800024001C0000000000000000000000000053
:10DD90000000000000000000FC018401C4004400F9
:10DDA000600020003000180208020C03FC01000093
:10DDB00000000000000000000003800080008000E0
:10DDC0008000800080008000800040002000400033
:10DDD0008000800080008000800080008000800043
:10DDE00000030000400040004000400040004000B0
:10DDF0004000400040004000400040004000400023
:10DE00004000400040004000400040004000400012
:10DE100040004000000000000C0010001000100046
:10DE20001000100010001000100020004000200022
:10DE30001000100010001000100010001000100062
:10DE40000C00000000001C002204C204800300003B
:10DE500000000000000000000000000000000000C2
:10DE600000000000000000000000000000000000B2
:10DE700000000000000000000000000000000000A2
:10DE80000000000000000000000000000000000092
:10DE90000000000000000000000000000000000082
:10DEA0000000000000000000000000000000000072
:10DEB0000000000000000000000000000000C001A1
:10DEC000C001C001C001C001C001C00180008000CC
:10DED00080008000800080008000000000000000C2
:10DEE00000008001C003C0038001000000000000AA
:10DEF00000000000000000000000E01CE01CF01E1C
:10DF0000700E3807180308018400000000000000AC
:10DF10000000000000000000000000000000000001
:10DF200000000000000000000000000000000000F1
:10DF300000000000000000000000000000000000E1
:10DF400020102010201020102010FE7FFE7F1008CF
:10DF5000100810081008100810081008FE7FFE7F37
:10DF60000804080408040804080400000000000075
:10DF7000000000000000000000000000000100019F
:10DF8000C00760191031183118391839380170017B
:10DF9000E001C0038007000F001D003900311C3173
:10DFA0001C310C310C11180DE007000100010001BB
:10DFB0000000000000000000000000000000000061
:10DFC0001C1036186308630C630463046302630265
:10DFD0006301361D9C378022806340634063206369
:10DFE0002063306310221836081C00000000000077
:10DFF0000000000000000000000000000000000021
:10E00000F00098018C018C018C018C018C00CC00FB
:10E010007800183E1C083608320863046304C30401
:10E02000C303834306438E26781C000000000000D3
:10E03000000000000000000000001C003C003C004C
:10E040003000300010000C0006000000000000004E
:10E0500000000000000000000000000000000000C0
:10E0600000000000000000000000000000000000B0
:10E070000000000000000000000000400020001030
:10E080000008000C000400060003000300038001E8
:10E0900080018001800180018001800180010003F6
:10E0A0000003000300060006000C0008001000201A
:10E0B0000040000000000000000002000400080012
:10E0C0001000300020006000C000C000C0008001CF
:10E0D0008001800180018001800180018001C000F9
:10E0E000C000C000600060003000100008000400A4
:10E0F000020000000000000000000000000000001E
:10E100000000000000018003800300011C713C79C5
:10E11000783DC0070001C007783D3C791C710001C3
:10E120008003800380010000000000000000000068
:10E1300000000000000000000000000000000000DF
:10E1400000000000000000010001000100010001CA
:10E1500000010001FC7F000100010001000100013D
:10E1600000010001000000000000000000000000AD
:10E17000000000000000000000000000000000009F
:10E18000000000000000000000000000000000008F
:10E19000000000000000000000000000000000007F
:10E1A000000000001C003C003C003000300010006B
:10E1B0000C0006000000000000000000000000004D
:10E1C000000000000000000000000000000000004F
:10E1D00000000000FE7F00000000000000000000C2
:10E1E000000000000000000000000000000000002F
:10E1F000000000000000000000000000000000001F
:10E20000000000000000000000000000000000000E
:10E2100000000000000000000000000000000000FE
:10E22000000018003C003C00180000000000000046
:10E23000000000000000000000000040006000201E
:10E240000030001000180008000C00040006000256
:10E250000003000180018000C00040006000200039
:10E2600030001000180008000C0004000600020036
:10E27000000000000000000000000000000000009E
:10E28000C007600C30181830183018200C600C6073
:10E290000C600C600C600C600C600C600C60182052
:10E2A000183018303018600CC00700000000000063
:10E2B000000000000000000000000000000000005E
:10E2C00000018001F801800180018001800180014E
:10E2D0008001800180018001800180018001800136
:10E2E000800180018001C003F81F000000000000D1
:10E2F000000000000000000000000000000000001E
:10E30000E007101C0818043004300C300C300030CA
:10E3100000180008000400020001800040002020D6
:10E32000102008200430FC1FFC1F0000000000002B
:10E3300000000000000000000000000000000000DD
:10E34000E003180E0C0C0C180C180C180018000C1C
:10E350000006C003000E00180010003000300C3022
:10E360000C300C100C18180CE0030000000000002A
:10E37000000000000000000000000000000000009D
:10E38000000C000E000E000F800E800E400E600E7E
:10E39000200E100E100E080E040E040EFE7F000E4E
:10E3A000000E000E000E000E000EC07F00000000E8
:10E3B000000000000000000000000000000000005D
:10E3C000F03FF03F10001000100008000800C807E0
:10E3D000280C1818081000300030003000300C30C5
:10E3E0000C3004180418080CF003000000000000B2
:10E3F000000000000000000000000000000000001D
:10E40000800FC010203010301800180008000C00D9
:10E410008C0F6C183C301C600C600C600C600C6045
:10E420001860182030306018C0070000000000009D
:10E4300000000000000000000000000000000000DC
:10E44000F83FF83F1C100C08040804040004000204
:10E450000002000100010001800080008000C00077
:10E46000C000C000C000C000C000000000000000EC
:10E47000000000000000000000000000000000009C
:10E48000E007300C18180C300C300C301C303818E9
:10E490007008E007B007180E0C1C0638063006306E
:10E4A000063006300C18180CE003000000000000D5
:10E4B000000000000000000000000000000000005C
:10E4C000E00318040C080C1806100630063006305D
:10E4D000063006380C3C1836F031003000180018B1
:10E4E00000180C0C0C060C03F001000000000000EA
:10E4F000000000000000000000000000000000001C
:10E50000000000000000000000000000000080018A
:10E51000C003C003800100000000000000000000F4
:10E5200000008001C003C003800100000000000063
:10E5300000000000000000000000000000000000DB
:10E540000000000000000000000000000000C0000B
:10E55000C0000000000000000000000000000000FB
:10E56000000000000000C000C000800080004000EB
:10E57000400000000000000000000000000000203B
:10E58000001000080004000600038001C0006000C5
:10E59000300018000C00180030006000C00080013E
:10E5A0000003000600040008001000200000000026
:10E5B000000000000000000000000000000000005B
:10E5C0000000000000000000000000000000FE7FCE
:10E5D00000000000000000000000FE7F00000000BE
:10E5E000000000000000000000000000000000002B
:10E5F0000000000000000000000000000000040017
:10E600000800100020006000C00080010003000628
:10E61000000C001800300018000C000600038001F8
:10E62000C00060002000100008000400000000008E
:10E630000000000000000000000000000000C00713
:10E640003018083008600C601C601C601C600030D2
:10E65000001C000600018000800080008000000097
:10E6600000008001C003C003800100000000000022
:10E67000000000000000000000000000000000009A
:10E68000C0076018103018200C2F8C4D864CC64CDB
:10E69000C64C664C66446644662666266615CC1CE7
:10E6A0000C40082018303018C0070000000000009F
:10E6B0000000000000000000000000000000000159
:10E6C000C001C001C00140016003200320032003FA
:10E6D0003006100610061006F80F080C080C080C7F
:10E6E0000C0C0418041806181F7C00000000000021
:10E6F000000000000000000000000000000000001A
:10E70000FE07181C18381830183018301830181830
:10E71000180CF807181818301820186018601860BE
:10E720001860186018301818FE0F00000000000074
:10E7300000000000000000000000000000000000D9
:10E74000C0276038103018200C400C400400060030
:10E7500006000600060006000600060006000C4043
:10E760000C400C2018303018C007000000000000DA
:10E770000000000000000000000000000000000099
:10E78000FE03180E1818183018301830186018606A
:10E7900018601860186018601860186018601830E9
:10E7A000183018101818180EFE03000000000000A2
:10E7B0000000000000000000000000000000000059
:10E7C000FE3F183018201860184018001808180864
:10E7D000180CF80F180C1808180818001800180062
:10E7E0001840184018201830FE3F000000000000BC
:10E7F0000000000000000000000000000000000019
:10E80000FE7F1870184018C01880180018101810D3
:10E810001818F81F181818101810180018001800E9
:10E8200018001800180018007E000000000000000A
:10E8300000000000000000000000000000000000D8
:10E84000C013701C101018100C200C2004000600BF
:10E85000060006000600060006FC063006300C30F6
:10E860000C30183018303008C007000000000000DD
:10E870000000000000000000000000000000000098
:10E880003F7E0C180C180C180C180C180C180C18CF
:10E890000C180C18FC1F0C180C180C180C180C1861
:10E8A0000C180C180C180C183F7E0000000000001B
:10E8B0000000000000000000000000000000000058
:10E8C000F81F8001800180018001800180018001AA
:10E8D0008001800180018001800180018001800130
:10E8E0008001800180018001F81F0000000000000D
:10E8F0000000000000000000000000000000000018
:10E90000E07F00060006000600060006000600067E
:10E9100000060006000600060006000600060006C7
:10E920000006000600060006000600060E060E039E
:10E930008E01FC000000000000000000000000004C
:10E940007E7C181818081804180618021801980177
:10E950009801D801B803380318071806180E180CC8
:10E96000181C1818183018307EFC00000000000039
:10E970000000000000000000000000000000000097
:10E980007E00180018001800180018001800180061
:10E9900018001800180018001800180018001800B7
:10E9A0001840184018201830FE3F000000000000FA
:10E9B0000000000000000000000000000000000057
:10E9C0001FF81C381C381C381C3C343434343434A4
:10E9D000343674326432643264326431C431C431E6
:10E9E000C431C430C43084309FFC000000000000FB
:10E9F0000000000000000000000000000000000017
:10EA00001F7C1C103C103410341074106410E4107F
:10EA1000C410C41184118413041304170416041EB3
:10EA2000041C041C041C04181F1800000000000033
:10EA300000000000000000000000000000000000D6
:10EA4000C003300C181808100C300C30066006603B
:10EA500006600660066006600660066006600C20C0
:10EA60000C3008101818300CC00300000000000023
:10EA70000000000000000000000000000000000096
:10EA8000FE0F1818183018601860186018601860A9
:10EA900018301818F80F180018001800180018007F
:10EAA00018001800180018007E0000000000000088
:10EAB0000000000000000000000000000000000056
:10EAC000C003300C18180C100C300C2006600660C7
:10EAD0000660066006600660066006600660E46127
:10EAE0002C331C321816300EC007004C007C003846
:10EAF0000000000000000000000000000000000016
:10EB0000FE07181C1838183018301830183018182C
:10EB1000180CF80798031803180718061806180E9B
:10EB2000180C180C181C18187E7800000000000043
:10EB300000000000000000000000000000000000D5
:10EB4000E027303818300C200C200C000C00180086
:10EB50007800E003800F001E003800700060046041
:10EB60000460086018303818C80F0000000000006A
:10EB70000000000000000000000000000000000095
:10EB8000FC3F8C21846182418241800180018001AF
:10EB9000800180018001800180018001800180016D
:10EBA0008001800180018001E0070000000000007A
:10EBB0000000000000000000000000000000000055
:10EBC0003F7C0C100C100C100C100C100C100C10C6
:10EBD0000C100C100C100C100C100C100C100C1055
:10EBE0000C100C1008083804E003000000000000BE
:10EBF0000000000000000000000000000000000015
:10EC00003EF8182018201820301030103010301026
:10EC1000600860086008E00CC004C004C004800301
:10EC20008003800380030001000100000000000059
:10EC300000000000000000000000000000000000D4
:10EC4000DFF38661862186218C210C218C238C1395
:10EC50008C138C134C1358125816580E380E380E4D
:10EC6000380E300C100410041004000000000000E6
:10EC70000000000000000000000000000000000094
:10EC80007E3E180838083004300470026002E0014B
:10EC9000C001C00180018003400340072006200618
:10ECA000100C100C081808183E7C00000000000032
:10ECB0000000000000000000000000000000000054
:10ECC0007E7C1C10181018083008300C700460048A
:10ECD0006002C002C002C001800180018001800189
:10ECE0008001800180018001E00700000000000039
:10ECF0000000000000000000000000000000000014
:10ED0000F83F18180818040C040E0006000700034A
:10ED100080038001C001C000E0006000700030008E
:10ED2000382018201C100C18FE1F000000000000E6
:10ED300000000000000000000000C03F4000400054
:10ED400040004000400040004000400040004000C3
:10ED500040004000400040004000400040004000B3
:10ED60004000400040004000400040004000C03FE4
:10ED7000000000000000000000000000000008008B
:10ED800018001800100030002000600060004000F3
:10ED9000C000800080018001000100030002000625
:10EDA00000060004000C00080018001800100030D5
:10EDB00000200000000000000000FC030002000230
:10EDC0000002000200020002000200020002000233
:10EDD0000002000200020002000200020002000223
:10EDE0000002000200020002000200020002FC0316
:10EDF000000000000000000000008007C00620089E
:10EE000010100000000000000000000000000000E2
:10EE100000000000000000000000000000000000F2
:10EE200000000000000000000000000000000000E2
:10EE300000000000000000000000000000000000D2
:10EE400000000000000000000000000000000000C2
:10EE500000000000000000000000000000000000B2
:10EE600000000000000000000000000000000000A2
:10EE70000000FFFF0000000000007800C00000015B
:10EE80000000000000000000000000000000000082
:10EE90000000000000000000000000000000000072
:10EEA0000000000000000000000000000000000062
:10EEB0000000000000000000000000000000000052
:10EEC0000000000000000000000000000000F0034F
:10EED00018060C0C0C0C000C800F700C1C0C0C0C8D
:10EEE000060C060C064C0C4FF83800000000000021
:10EEF0000000000000000000000000000000100002
:10EF00001E00180018001800180018001800180F2C
:10EF1000D8183830386018601860186018601860A9
:10EF20001860182038307818C8070000000000006A
:10EF300000000000000000000000000000000000D1
:10EF40000000000000000000000000000000C007FA
:10EF5000700C181818180C180C000C000C000C0081
:10EF60000C20182018103008C00700000000000016
:10EF70000000000000000000000000000000001081
:10EF8000001E001800180018001800180018E01BD8
:10EF9000301C181818180C180C180C180C180C1811
:10EFA0000C180818181C307AE00900000000000056
:10EFB0000000000000000000000000000000000051
:10EFC0000000000000000000000000000000C0077A
:10EFD000300C181808100C300C30FC3F0C000C00E2
:10EFE0000C00182018107018C00700000000000066
:10EFF0000000000000000000000000000000000011
:10F00000003E80C380C0C0C0C000C000C000FC1F64
:10F01000C000C000C000C000C000C000C000C000F0
:10F02000C000C000C000C000F80F000000000000D9
:10F0300000000000000000000000000000000000D0
:10F040000000000000000000000000000000C07789
:10F05000306C10181818181818181018300CF00701
:10F0600018001800F00FF03F08700C600C600C6086
:10F070003838E00F00000000000000000000100021
:10F080001E00180018001800180018001800980F2B
:10F09000D818383018301830183018301830183068
:10F0A00018301830183018307EFC000000000000C6
:10F0B0000000000000000000000000000000000050
:10F0C0008003800380030000000000000001F801BD
:10F0D0008001800180018001800180018001800128
:10F0E0008001800180018001F81F00000000000005
:10F0F0000000000000000000000000000000000010
:10F100000038003800380000000000000010801FA8
:10F11000001800180018001800180018001800182F
:10F120000018001800180018001800180018180C13
:10F130001806F003000000000000000000001000AE
:10F140001E00180018001800180018001800183EBB
:10F15000180C1806180318019801D801380318076D
:10F160001806180C181C18187E7C000000000000FF
:10F17000000000000000000000000000000000018E
:10F18000F8018001800180018001800180018001FF
:10F190008001800180018001800180018001800167
:10F1A0008001800180018001F81F00000000000044
:10F1B000000000000000000000000000000000004F
:10F1C0000000000000000000000000000800EE1C2D
:10F1D0009C338C318C318C318C318C318C318C3135
:10F1E0008C318C318C318C31DE7B000000000000D2
:10F1F000000000000000000000000000000000000F
:10F2000000000000000000000000000010001E0FC1
:10F21000D8183830183018301830183018301830E6
:10F2200018301830183018307EFC00000000000044
:10F2300000000000000000000000000000000000CE
:10F240000000000000000000000000000000C007F7
:10F25000701C103018300C600C600C600C600C607E
:10F260000C60183018303018C00700000000000093
:10F27000000000000000000000000000000000008E
:10F2800000000000000000000000000010009E0FC1
:10F290005818383018201860186018601860186006
:10F2A00018601830383078189807180018001800BF
:10F2B00018007E00000000000000000000000000B8
:10F2C0000000000000000000000000000000C0235B
:10F2D000303C183818300C300C300C300C300C30FE
:10F2E0000C3008301838303CE0330030003000304B
:10F2F000003000FC000000000000000000000000E2
:10F3000000000000000000000000000060007E3CE3
:10F3100060666061E000E000600060006000600026
:10F320006000600060006000FE0700000000000058
:10F3300000000000000000000000000000000000CD
:10F340000000000000000000000000000000E027B6
:10F3500030381830182018007000E003800F001CAF
:10F36000043004300C301C18EC0F000000000000CA
:10F37000000000000000000000000000000000008D
:10F3800000000000800080008000C000E000FC1F42
:10F39000C000C000C000C000C000C000C000C0006D
:10F3A000C000C020C0208011000F0000000000003D
:10F3B000000000000000000000000000000000004D
:10F3C00000000000000000000000000010201E3CB3
:10F3D00018301830183018301830183018301830ED
:10F3E00018301830183830F4E01300000000000026
:10F3F000000000000000000000000000000000000D
:10F4000000000000000000000000000000007E3C42
:10F4100018181808380830043004700260026002BE
:10F42000E001C001C001C000800000000000000039
:10F4300000000000000000000000000000000000CC
:10F440000000000000000000000000000000DFF7E6
:10F450008E630C238C238C239813981358165816FC
:10F46000700E700E700E20042004000000000000DA
:10F47000000000000000000000000000000000008C
:10F480000000000000000000000000000000FC3E42
:10F4900070087004E004C002C001800380034007CC
:10F4A0006006200C100C18183E7E000000000000C2
:10F4B000000000000000000000000000000000004C
:10F4C00000000000000000000000000000007E7C42
:10F4D0001818180830083008300460046004C002AE
:10F4E000C002C00280018001800180008000800095
:10F4F0004C003C0000000000000000000000000084
:10F500000000000000000000000000000000FC1FE0
:10F510000C0C040E0406000380038001C000E00010
:10F520007020302038301C18FC1F00000000000044
:10F53000000000000000000000000030000800048F
:10F54000000400040004000400040004000400049B
:10F550000004000280010002000400040004000412
:10F560000004000400040004000400040004000877
:10F570000030000000010001000100010001000155
:10F580000001000100010001000100010001000173
:10F590000001000100010001000100010001000163
:10F5A0000001000100010001000100010001000153
:10F5B000000100010000000000000C00100020000D
:10F5C000200020002000200020002000200020003B
:10F5D000200040008001400020002000200020008A
:10F5E000200020002000200020002000200010002B
:10F5F0000C00000000003800C400864002610022B8
:10F60000001C0000000000000000000000000000DE
:10F6100000000000000000000000000000000000EA
:10F6200000000000000000000000000000000000DA
:10F6300000000000000000000000000000000000CA
:10F6400000000000000000000000000000000000BA
:10F6500000000000000000000000000000000000AA
:10F66000000000000000000000000000000000009A
:10F67000000000000000000000000000000000008A
:10F68000000000000000000000000000000000007A
:10F69000000000000000000000000000000000006A
:10F6A000000000000000000000000000000000005A
:10F6B000000000000000000000000000000000004A
:10F6C000000000000000000000000000000000003A
:10F6D000000000000000000000000000000000002A
:10F6E000000000000000000000000000000000001A
:10F6F000000000000000000000000000000000000A
:10F7000000000000000000000000000000000000F9
:10F7100000000000000000000000000000000000E9
:10F7200000000000000000000000000000000000D9
:10F7300000000000000000000000000000000000C9
:10F7400000000000000000000000000000000000B9
:10F7500000000000000000000000000000C00100E8
:10F7600000E0030000E0030000E0030000E003000D
:10F7700000E0030000E0030000E0030000E00300FD
:10F7800000E0030000E0030000C0030000C003002D
:10F7900000C0010000C0010000C0010000C0010065
:10F7A00000C0010000C0010000C0010000C0010055
:10F7B00000C0010000C001000080010000800000C6
:10F7C0000080000000800000008000000080000039
:10F7D0000080000000800000000000000000000029
:10F7E0000000000000000000000000000000000019
:10F7F0000000000000C0010000E0030000F007006E
:10F8000000F0070000F0070000E0030000C0010066
:10F8100000000000000000000000000000000000E8
:10F8200000000000000000000000000000000000D8
:10F8300000000000000000000000000000000000C8
:10F840000000000000E0800300F0C10700F8E107BD
:10F8500000F8E10700FCF10700FCF003007EF8016E
:10F86000003EF800001F7C00000F3C0080071E00D7
:10F8700080030E00C0010700C0000300608001008B
:10F8800020800000000000000000000000000000D8
:10F890000000000000000000000000000000000068
:10F8A0000000000000000000000000000000000058
:10F8B0000000000000000000000000000000000048
:10F8C0000000000000000000000000000000000038
:10F8D0000000000000000000000000000000000028
:10F8E0000000000000000000000000000000000018
:10F8F0000000000000000000000000000000000008
:10F9000000000000000000000000000000000000F7
:10F9100000000000000000000000000000000000E7
:10F9200000000000000000000000000000000000D7
:10F9300000000000000000000000000000000000C7
:10F9400000000000000000000000000000000000B7
:10F9500000000000000000000000000000000000A7
:10F96000000680010006800100068001000680017B
:10F970000006800100068001000680010007C0012A
:10F980000007C0010007C001FCFFFF1FFCFFFF1FB5
:10F99000FCFFFF1FFCFFFF1FFCFFFF1F0003C00059
:10F9A0000003C0000003C0000003C0000003C0004B
:10F9B0000003C0008003E0008003E0008003E0005B
:10F9C00080016000800160008001600080016000B3
:10F9D000FCFFFF1FFCFFFF1FFCFFFF1FFCFFFF1FC3
:10F9E000FCFFFF1F8001600080016000800160005B
:10F9F000C0017000C0017000C0017000C001700043
:10FA0000C0003000C0003000C0003000C000300036
:10FA100000000000000000000000000000000000E6
:10FA200000000000000000000000000000000000D6
:10FA300000000000000000000000000000000000C6
:10FA40000000000000000000000000000080010035
:10FA500000800100008001000080010000800100A2
:10FA600000E00F0000F83F00009E7100008FE100F1
:10FA70008083C101C083C103C081C103E081C10390
:10FA8000E081E103E081E103E081E101E083E10164
:10FA9000E0830100C0870100C08F0100809F01004A
:10FAA00080BF010000FF010000FE010000F803001C
:10FAB00000F00F0000E01F0000C03F0000807F004A
:10FAC0000080FF000080FD010080F9010080F1034B
:10FAD0000080E1030080C1070080C107E081810749
:10FAE000E0818107F0818107F0818107F081810742
:10FAF000F0818103F0808103E080C103E080C101D7
:10FB0000C081E1008087790000FE1F0000F8070037
:10FB100000800100008001000080010000800100E1
:10FB20000080010000800100008001000000000052
:10FB300000000000000000000000000000000000C5
:10FB400000000000000000000000000000000000B5
:10FB500000000000000000000000000000000000A5
:10FB6000C0038000F00F8001381CC0001818C000CE
:10FB70001C3860001C3060000C3060000E703000DB
:10FB80000E7030000E7018000E7018000E70180005
:10FB90000E700C000E700C000E7006000E70060049
:10FBA0000C3006001C3803001C3803003898010094
:10FBB000789C0100F08FE101C0C7F80700C0380E43
:10FBC00000601C0C00600E1C00600E1C003006184B
:10FBD00000300738001807380018073800180738B1
:10FBE000000C0738000C07380006073800060738F5
:10FBF000000607380003061800030E1C80010E1CC7
:10FC000080010C0C8000380EC000F807C000E00135
:10FC100000000000000000000000000000000000E4
:10FC200000000000000000000000000000000000D4
:10FC300000000000000000000000000000000000C4
:10FC400000000000000000000000000000000000B4
:10FC500000000000000000000000000000000000A4
:10FC600000F8000000FE010000CF030080870300C1
:10FC70008083070080830700C0830700C0830700DC
:10FC8000C0830700C0830700C0830700C08307004C
:10FC9000C0830300C0C30300C0C7010080C70100C8
:10FCA00080E70000806F0000803F0000001FFC0F15
:10FCB000801FFC0FC01FE001601EE000703EE000EE
:10FCC000383EE000387CE0003C7CE0001CF860003E
:10FCD0001CF860001EF060001EF061001EE0630072
:10FCE0001EE023001EC037001EC03F001E803F00E4
:10FCF0003C001F003C003E403C007E607800FE60FF
:10FD0000F000FB31E083F13FC0FFE01F001F8007E0
:10FD100000000000000000000000000000000000E3
:10FD200000000000000000000000000000000000D3
:10FD300000000000000000000000000000000000C3
:10FD40000000000080070000C00F0000E00F00006E
:10FD5000E01F0000E01F0000C01F0000001F0000A7
:10FD6000001E0000000E0000000E0000000F00004A
:10FD70000007000080030000C0010000F000000048
:10FD80002000000000000000000000000000000053
:10FD90000000000000000000000000000000000063
:10FDA0000000000000000000000000000000000053
:10FDB0000000000000000000000000000000000043
:10FDC0000000000000000000000000000000000033
:10FDD0000000000000000000000000000000000023
:10FDE0000000000000000000000000000000000013
:10FDF0000000000000000000000000000000000003
:10FE000000000000000000000000000000000000F2
:10FE100000000000000000000000000000000000E2
:10FE200000000000000000000000000000000000D2
:10FE300000000000000000000000000000000000C2
:10FE4000000000080000001C0000000E0000000779
:10FE500000000003000080010000C0010000E0007D
:10FE60000000600000007000000038000000180072
:10FE700000001C0000000C0000000E0000000E003E
:10FE800000000700000007000000070000800300DA
:10FE900000800300008003000080030000C0010018
:10FEA00000C0010000C0010000C0010000C001004E
:10FEB00000C0010000C0010000C0010000C001003E
:10FEC00000C0010000C0010000C00100008003006C
:10FED0000080030000800300008003000000030096
:10FEE00000000700000007000000060000000E00F0
:10FEF00000000C0000001C0000001800000038008A
:10FF000000003000000070000000E0000000C001B0
:10FF10000000800100008003000000070000000EC8
:10FF20000000001C000000080000000000000000AD
:10FF300000000000000000000000000000000000C1
:10FF4000100000003800000070000000E000000019
:10FF5000C0000000800100008003000000070000D6
:10FF600000060000000E0000001C00000018000049
:10FF70000038000000300000007000000070000039
:10FF800000E0000000E0000000E0000000C0010010
:10FF900000C0010000C0010000C00100008003009B
:10FFA0000080030000800300008003000080030045
:10FFB0000080030000800300008003000080030035
:10FFC00000800300008003000080030000C00100E7
:10FFD00000C0010000C0010000C0010000C000001E
:10FFE00000E0000000E00000006000000070000081
:10FFF000007000000038000000180000001C000025
:020000040801F1
:10000000000C0000000E000000070000800300004C
:1000100080010000C0010000E0000000700000004E
:100020003800000010000000000000000000000088
:1000300000000000000000000000000000000000C0
:1000400000000000000000000000000000000000B0
:1000500000000000000000000000000000000000A0
:100060000000000000000000000000000000000090
:10007000000000000080030000C0030000C0070073
:1000800000C0070000C0070000C0030000C003005C
:1000900038C0031CFCC0033FFC81833FFC83C13F8D
:1000A000F887E11FE08FF107809FF90100BC3D0058
:1000B00000F00E000080010000F00E0000BC3D00CA
:1000C000809FF901E08FF107F887E11FFC83C13FB2
:1000D000FCC1813FFCC0033F38C0033C00C00300AB
:1000E00000C0030000C0030000E0030000E00300C4
:1000F00000E0030000C0010000000000000000005C
:1001000000000000000000000000000000000000EF
:1001100000000000000000000000000000000000DF
:1001200000000000000000000000000000000000CF
:1001300000000000000000000000000000000000BF
:1001400000000000000000000000000000000000AF
:10015000000000000000000000000000000000009F
:10016000000000000000000000000000000000008F
:1001700000000000008001000080010000800100FC
:10018000008001000080010000800100008001006B
:10019000008001000080010000800100008001005B
:1001A000008001000080010000800100FCFFFF3F93
:1001B000FCFFFF3F00800100008001000080010083
:1001C000008001000080010000800100008001002B
:1001D000008001000080010000800100008001001B
:1001E000008001000080010000800100000000008C
:1001F00000000000000000000000000000000000FF
:1002000000000000000000000000000000000000EE
:1002100000000000000000000000000000000000DE
:1002200000000000000000000000000000000000CE
:1002300000000000000000000000000000000000BE
:1002400000000000000000000000000000000000AE
:10025000000000000000000000000000000000009E
:10026000000000000000000000000000000000008E
:10027000000000000000000000000000000000007E
:10028000000000000000000000000000000000006E
:10029000000000000000000000000000000000005E
:1002A000000000000000000000000000000000004E
:1002B000000000000000000000000000000000003E
:1002C000000000000000000000000000000000002E
:1002D000000000000000000000000000000000001E
:1002E0000000000000000000000000008007000087
:1002F000C00F0000E00F0000E01F0000E01F000042
:10030000C01F0000001F0000001E0000000E0000C3
:10031000000E0000000F0000000700008003000036
:10032000C0010000F00000002000000000000000FC
:1003300000000000000000000000000000000000BD
:1003400000000000000000000000000000000000AD
:10035000000000000000000000000000000000009D
:10036000000000000000000000000000000000008D
:10037000000000000000000000000000000000007D
:10038000000000000000000000000000000000006D
:10039000000000000000000000000000000000005D
:1003A000000000000000000000000000FCFFFF3F14
:1003B000FCFFFF3F00000000000000000000000004
:1003C000000000000000000000000000000000002D
:1003D000000000000000000000000000000000001D
:1003E000000000000000000000000000000000000D
:1003F00000000000000000000000000000000000FD
:1004000000000000000000000000000000000000EC
:1004100000000000000000000000000000000000DC
:1004200000000000000000000000000000000000CC
:1004300000000000000000000000000000000000BC
:1004400000000000000000000000000000000000AC
:10045000000000000000000000000000000000009C
:10046000000000000000000000000000000000008C
:10047000000000000000000000000000000000007C
:10048000000000000000000000000000000000006C
:10049000000000000000000000000000000000005C
:1004A000000000000000000000000000000000004C
:1004B000000000000000000000000000000000003C
:1004C000000000000000000000000000000000002C
:1004D000000000000000000000000000000000001C
:1004E000000000000000000000000000000000000C
:1004F000C0030000E0070000F00F0000F00F000054
:10050000F00F0000F00F0000E0070000C003000043
:1005100000000000000000000000000000000000DB
:1005200000000000000000000000000000000000CB
:1005300000000000000000000000000000000000BB
:100540000000000000000000000000080000001C87
:100550000000000C0000000E000000060000000774
:100560000000000300000003000080030000800181
:100570000000C0010000C0000000E00000006000BA
:10058000000070000000300000003800000018007B
:1005900000001C0000000C0000000C0000000E0019
:1005A00000000600000007000000030000800300B8
:1005B0000080010000C0010000C0000000E0000059
:1005C00000600000007000000030000000380000F3
:1005D0000018000000180000001C0000000C0000C3
:1005E000000E0000000600000007000000030000ED
:1005F0008003000080010000C0010000C000000076
:10060000E0000000600000006000000070000000DA
:100610003000000038000000180000001C0000003E
:1006200008000000000000000000000000000000C2
:1006300000000000000000000000000000000000BA
:1006400000000000000000000000000000000000AA
:10065000000000000000000000000000000000009A
:1006600000E0070000F81F00003C7800000EF000DA
:100670000007E0008007C001C003C003C00380037F
:10068000E0018007E0010007E0000007F000000F34
:10069000F000000FF000000FF000000E7800001EC8
:1006A0007800001E7800001E7800001E7800001EF2
:1006B0007800001E7800001E7800001E7800001EE2
:1006C0007800001E7800001E7800001E7800001ED2
:1006D0007800001EF000000EF000000FF000000F88
:1006E000F000000FE0000007E0018007E001800754
:1006F000C0038003C003C0038007C0010007E000FF
:10070000000EF000003C780000F81F0000E0070039
:1007100000000000000000000000000000000000D9
:1007200000000000000000000000000000000000C9
:1007300000000000000000000000000000000000B9
:1007400000000000000000000000000000000000A9
:100750000000000000000000000000000000000099
:1007600000000200000003000080030000E003001E
:1007700080FF030080FF030000E0030000C00300CF
:1007800000C0030000C0030000C0030000C003005D
:1007900000C0030000C0030000C0030000C003004D
:1007A00000C0030000C0030000C0030000C003003D
:1007B00000C0030000C0030000C0030000C003002D
:1007C00000C0030000C0030000C0030000C003001D
:1007D00000C0030000C0030000C0030000C003000D
:1007E00000C0030000C0030000C0030000C00300FD
:1007F00000C0030000C0030000C0030000C00300ED
:1008000000E0070000F00F0080FFFF0180FFFF0104
:1008100000000000000000000000000000000000D8
:1008200000000000000000000000000000000000C8
:1008300000000000000000000000000000000000B8
:1008400000000000000000000000000000000000A8
:100850000000000000000000000000000000000098
:1008600000F00F0000FC7F00001FF8008007E0018F
:10087000C003C003E0018007E0008007E000000F34
:10088000F000000FF001000FF001000FF003000F67
:10089000F003000FF003000FE00180070000800765
:1008A000000080070000C0030000C0030000E0015A
:1008B0000000F000000070000000380000001C0084
:1008C00000000E00000007000080030000C00100CF
:1008D00000E000000070000000380000001C000074
:1008E000000E00000007000C8003000CC001000C8B
:1008F000E001000CE00000067000000738008007EF
:10090000F8FFFF07F8FFFF07F8FFFF07F8FFFF07F3
:1009100000000000000000000000000000000000D7
:1009200000000000000000000000000000000000C7
:1009300000000000000000000000000000000000B7
:1009400000000000000000000000000000000000A7
:100950000000000000000000000000000000000097
:1009600000F0070000FE1F0000073E008001780035
:10097000C000F000C000E001E000E001E000E003A2
:10098000E001C003E001C003E001C003C000C003F8
:100990000000C0030000C0030000E0010000E0010F
:1009A0000000F0000000700000003C0000001F008C
:1009B00000F0070000F01F0000003E000000F00003
:1009C0000000E0010000C003000080030000800779
:1009D000000000070000000F0000000F0000000FE3
:1009E000C001000FE003000FF003000FF003000F41
:1009F000F0038007F0018007E001C003E001C001BF
:100A0000C003E000800F780000FE3F0000F8070000
:100A100000000000000000000000000000000000D6
:100A200000000000000000000000000000000000C6
:100A300000000000000000000000000000000000B6
:100A400000000000000000000000000000000000A6
:100A50000000000000000000000000000000000096
:100A600000007000000070000000780000007C00B2
:100A700000007C0000007E0000007F0000007B0082
:100A80000080790000C0790000C0780000E07800A4
:100A90000060780000307800003878000018780096
:100AA000000C7800000E7800000678000003780043
:100AB0008003780080017800C0007800C0007800D2
:100AC000600078007000780030007800180078002E
:100AD0001C007800FCFFFF3FFCFFFF3F0000780098
:100AE0000000780000007800000078000000780026
:100AF0000000780000007800000078000000780016
:100B0000000078000000FC0000F0FF1F00F0FF1F55
:100B100000000000000000000000000000000000D5
:100B200000000000000000000000000000000000C5
:100B300000000000000000000000000000000000B5
:100B400000000000000000000000000000000000A5
:100B50000000000000000000000000000000000095
:100B600080FFFF0780FFFF0780FFFF0780FFFF0375
:100B70008001000080010000800100008001000071
:100B80008001000080010000800100008001000061
:100B90008000000080000000C0000000C0C01F00F6
:100BA000C0F87F00C0FCFF00C01EF801C006E003D3
:100BB000C003C003C001C007C00180070000800758
:100BC0000000800F0000000F0000000F0000000F69
:100BD0000000000F0000000F0000000FC001000F18
:100BE000E003000FF003000FF0030007F00380079D
:100BF000F0018007F0018003E001C003C001E001C3
:100C00008003F000000F780000FE3F0000F00700B6
:100C100000000000000000000000000000000000D4
:100C200000000000000000000000000000000000C4
:100C300000000000000000000000000000000000B4
:100C400000000000000000000000000000000000A4
:100C50000000000000000000000000000000000094
:100C600000803F0000E0FF000078E001001CC003AE
:100C7000000EC0070007C0078003C007C001C007FF
:100C8000C0018003E0000000E0000000E000000080
:100C9000F0000000F0000000700000007000000094
:100CA00070C01F0078F0FF0078FCFF01783EF00371
:100CB000780FC00778078007F803800FF801000F4E
:100CC000F800000FF800001E7800001E7800001EDB
:100CD0007800001E7800001E7800001E7000001EC4
:100CE000F000001EF000001EF000000EE000000FFB
:100CF000E001000FC0030007C003800780078003E6
:100D0000000FC001003EF00000FC7F0000E00F007B
:100D100000000000000000000000000000000000D3
:100D200000000000000000000000000000000000C3
:100D300000000000000000000000000000000000B3
:100D400000000000000000000000000000000000A3
:100D50000000000000000000000000000000000093
:100D6000C0FFFF0FE0FFFF0FE0FFFF0FE0FFFF07F7
:100D7000E0030003E00000036000800160008001E8
:100D80003000C0003000C000300060000000600093
:100D900000003000000038000000180000001C00B7
:100DA00000001C0000000C0000000E0000000E00FF
:100DB000000007000000070000800700008003001B
:100DC00000C0030000C0030000C0010000E00100FB
:100DD00000E0010000E0010000F0010000F001006F
:100DE00000F0010000F0010000F0010000F8010037
:100DF00000F8010000F8010000F8010000F801000F
:100E000000F8010000F8010000F8010000F0000007
:100E100000000000000000000000000000000000D2
:100E200000000000000000000000000000000000C2
:100E300000000000000000000000000000000000B2
:100E400000000000000000000000000000000000A2
:100E50000000000000000000000000000000000092
:100E600000F00F0000FE7F00001FF8008007E00187
:100E7000C003C003E0018007E0018007F000000F1D
:100E8000F000000FF000000FF000000FF000000F66
:100E9000F001000FF0010007E0038007E007800386
:100EA000C00FC003803FE00100FF700000FE3B0068
:100EB00000F80F0000FC1F00008F7F008007FE007D
:100EC000C003FC01E001F803E001E003F000C0070B
:100ED000F000C0077800800F7800800F7800000FC6
:100EE0007800000F7800000F7800000F7800000FE6
:100EF000F0000007F0008007E0018003E001C0037C
:100F0000C007E001001FF80000FE3F0000F00F00E6
:100F100000000000000000000000000000000000D1
:100F200000000000000000000000000000000000C1
:100F300000000000000000000000000000000000B1
:100F400000000000000000000000000000000000A1
:100F50000000000000000000000000000000000091
:100F600000F8070000FE1F00000F3C008007700023
:100F7000C003E000E001C001E000C001F000800318
:100F8000F0008003700080077800000778000007F9
:100F9000780000077800000F7800000F7800000F3D
:100FA0007800000F7800000F7800800FF800800FA5
:100FB000F000C00FF001600FF001700FE003380F78
:100FC000C00F3E0F80FF1F0F00FF070F00FC8107BF
:100FD00000008007000080070000800700008003F9
:100FE0000000C0030000C0030000C001C001E00118
:100FF000E003E000E003F000E0037000E0033800ED
:10100000C0031C00C0070F0080FF070000FC0000A9
:1010100000000000000000000000000000000000D0
:1010200000000000000000000000000000000000C0
:1010300000000000000000000000000000000000B0
:1010400000000000000000000000000000000000A0
:101050000000000000000000000000000000000090
:101060000000000000000000000000000000000080
:101070000000000000000000000000000000000070
:101080000000000000000000000000000000000060
:101090000000000000C0010000E0030000F00700B5
:1010A00000F0070000F0070000E0030000C00100AE
:1010B0000000000000000000000000000000000030
:1010C0000000000000000000000000000000000020
:1010D0000000000000000000000000000000000010
:1010E0000000000000000000000000000000000000
:1010F0000000000000C0010000E0030000F0070055
:1011000000F0070000F0070000E0030000C001004D
:1011100000000000000000000000000000000000CF
:1011200000000000000000000000000000000000BF
:1011300000000000000000000000000000000000AF
:10114000000000000000000000000000000000009F
:10115000000000000000000000000000000000008F
:10116000000000000000000000000000000000007F
:10117000000000000000000000000000000000006F
:10118000000000000000000000000000000000005F
:1011900000000000000000000000000000E0070068
:1011A00000E0070000E0070000E0070000E00700A3
:1011B000000000000000000000000000000000002F
:1011C000000000000000000000000000000000001F
:1011D000000000000000000000000000000000000F
:1011E00000000000000000000000000000000000FF
:1011F00000000000000000000000000000E0070008
:1012000000E0070000E0070000E0070000E0070042
:1012100000000700008003000080030000C0010000
:1012200000C0010000C0000000E00000000000005D
:1012300000000000000000000000000000000000AE
:10124000000000000000000000000000000000009E
:10125000000000000000000000000000000000048A
:101260000000000E00000007000080030000C00125
:101270000000E000000070000000380000001C00CA
:1012800000000E00000007000080030000C0010005
:1012900000E000000070000000380000001C0000AA
:1012A000000E00000007000080030000C0010000E5
:1012B000E000000070000000E0000000C00100003D
:1012C0008003000000070000000E0000001C00006A
:1012D000003800000070000000E0000000C00100C5
:1012E000008003000000070000000E0000001C004A
:1012F00000003800000070000000E0000000C001A5
:1013000000008003000000070000000E0000000441
:1013100000000000000000000000000000000000CD
:1013200000000000000000000000000000000000BD
:1013300000000000000000000000000000000000AD
:10134000000000000000000000000000000000009D
:10135000000000000000000000000000000000008D
:10136000000000000000000000000000000000007D
:10137000000000000000000000000000000000006D
:10138000000000000000000000000000000000005D
:1013900000000000FCFFFF3FFCFFFF3F00000000DB
:1013A000000000000000000000000000000000003D
:1013B000000000000000000000000000000000002D
:1013C0000000000000000000FCFFFF3FFCFFFF3FAB
:1013D000000000000000000000000000000000000D
:1013E00000000000000000000000000000000000FD
:1013F00000000000000000000000000000000000ED
:1014000000000000000000000000000000000000DC
:1014100000000000000000000000000000000000CC
:1014200000000000000000000000000000000000BC
:1014300000000000000000000000000000000000AC
:10144000000000000000000000000000000000009C
:10145000000000000000000000000000200000006C
:1014600070000000E0000000C001000080030000E8
:1014700000070000000E0000001C00000038000003
:101480000070000000E0000000C0010000800300C8
:101490000000070000000E0000001C0000003800E3
:1014A000000070000000E0000000C00100008003A8
:1014B000000000070000000E00000007000080038D
:1014C0000000C0010000E0000000700000003800D3
:1014D00000001C0000000E00000007000080030058
:1014E00000C0010000E000000070000000380000B3
:1014F000001C0000000E0000000700008003000038
:10150000C0010000E00000007000000020000000AA
:1015100000000000000000000000000000000000CB
:1015200000000000000000000000000000000000BB
:1015300000000000000000000000000000000000AB
:10154000000000000000000000000000000000009B
:10155000000000000000000000000000000000008B
:1015600000F00F0000FC7F00000FF8018003E00393
:10157000C001C007E00080076000800F3000000F4E
:101580003000001F3800001F3800001F7800001FC7
:10159000F801001FF801001FF801001FF001800F83
:1015A000E000800F0000C0070000E0070000F0012D
:1015B0000000FC0000003E0000000F00008007005B
:1015C0000080030000C0010000C0000000C0000057
:1015D00000C0000000C0000000C0000000C000000B
:1015E00000C000000000000000000000000000003B
:1015F0000000000000C0010000E0030000F0070050
:1016000000F0070000F0070000E0030000C0010048
:1016100000000000000000000000000000000000CA
:1016200000000000000000000000000000000000BA
:1016300000000000000000000000000000000000AA
:10164000000000000000000000000000000000009A
:10165000000000000000000000000000000000008A
:1016600000C01F0000F07F000078E001003C800314
:10167000000E0007000700068007000CC003000CE6
:10168000C001DE19E001FF19E081E719E0C0E319AC
:10169000F0C0E130F0E0E130F0E0E03070F0E03058
:1016A00078F0E0307870E0307878E030787870303A
:1016B00078787030783C7030783C7030783C70309E
:1016C000783C7010783C7018783C3818783C3818A2
:1016D000783C3808703C3C0CF0383C06F078320618
:1016E000F0F0F303E0E0E000E0010030C0010010A2
:1016F000C00300188003000C8007000E000F0007D5
:10170000001E8003007CE00100F87F0000C01F0085
:1017100000000000000000000000000000000000C9
:1017200000000000000000000000000000000000B9
:1017300000000000000000000000000000000000A9
:101740000000000000000000000000000000000099
:101750000000000000000000000000000000000089
:1017600000C0030000C0030000C0030000E0070049
:1017700000E00700006007000060070000300F0075
:1017800000300F0000300E0000300E0000181E0068
:1017900000181E0000181E0000181C00000C3C0061
:1017A000000C3C00000C3C00000C380000067800E7
:1017B0000006780000067800000670000007700040
:1017C0000003F0000003F00000FFFF0080FFFF00B7
:1017D0008001E0018001E0018001E001C001E00141
:1017E000C000C003C000C003C000C003E000C003CD
:1017F000600080076000800760008007700080073D
:101800007000800FF800801FFE03F07FFE03F07F62
:1018100000000000000000000000000000000000C8
:1018200000000000000000000000000000000000B8
:1018300000000000000000000000000000000000A8
:101840000000000000000000000000000000000098
:101850000000000000000000000000000000000088
:10186000FCFF1F00FCFFFF00E003F801E001E003C4
:10187000E001C007E0018007E001800FE001000FF8
:10188000E001000FE001000FE001000FE001000F98
:10189000E001000FE0010007E0018007E0018007A0
:1018A000E001C003E001F000E0017800E0FF0F007C
:1018B000E0FF3F00E001F800E001C003E001800725
:1018C000E001000FE001000EE001001EE001001E3B
:1018D000E001001CE001003CE001003CE001003CB4
:1018E000E001003CE001003CE001003CE001003C84
:1018F000E001001EE001001EE001000FE001800F8A
:10190000E001C007E003F003FEFFFF00FEFF1F0041
:1019100000000000000000000000000000000000C7
:1019200000000000000000000000000000000000B7
:1019300000000000000000000000000000000000A7
:101940000000000000000000000000000000000097
:101950000000000000000000000000000000000087
:1019600000C03F0800F0FF0F003CE00F001E800F9A
:101970000007001F8003001EC003001CC0010018E8
:10198000E0010018E0000030F000003070000010AE
:101990007800000078000000780000007800000067
:1019A0003C0000003C0000003C0000003C00000047
:1019B0003C0000003C0000003C0000003C00000037
:1019C0003C0000003C0000003C0000003C00000027
:1019D0003C00000078000000780000007800001053
:1019E0007800003078000030F0000010F00000189F
:1019F000E0010008E001000CC003000680070003BE
:101A0000000F8003003EE00000F87F0000E01F00B0
:101A100000000000000000000000000000000000C6
:101A200000000000000000000000000000000000B6
:101A300000000000000000000000000000000000A6
:101A40000000000000000000000000000000000096
:101A50000000000000000000000000000000000086
:101A6000FEFF0100FEFF0F00F0033E00E0017800E2
:101A7000E001E001E001C003E0018003E001800734
:101A8000E001000FE001000FE001000EE001001E88
:101A9000E001001EE001001EE001001CE001003C2E
:101AA000E001003CE001003CE001003CE001003CC2
:101AB000E001003CE001003CE001003CE001003CB2
:101AC000E001003CE001003CE001003CE001003CA2
:101AD000E001001CE001001EE001001EE001001E0C
:101AE000E001001EE001000FE001000FE00100072F
:101AF000E0018007E001C003E001E001E001F00047
:101B0000E0017C00F0033F00FEFF0F00FEFF01003C
:101B100000000000000000000000000000000000C5
:101B200000000000000000000000000000000000B5
:101B300000000000000000000000000000000000A5
:101B40000000000000000000000000000000000095
:101B50000000000000000000000000000000000085
:101B6000FCFFFF03FCFFFF07E007E007C00380075F
:101B7000C003000FC003000EC003000CC003001C14
:101B8000C0030018C0030000C0030000C003000031
:101B9000C0036000C0036000C0036000C0036000B9
:101BA000C0036000C0037000C0037800C0FF7F0066
:101BB000C0FF7F00C0037800C0037000C003700046
:101BC000C0036000C0036000C0036000C003600089
:101BD000C0030000C0030000C0030000C0030000F9
:101BE000C0030000C0030000C0030030C003003089
:101BF000C0030018C0030018C003001CC003001E6F
