:020000040800F2
:10000000B009002029020008BB1800080D170008DD
:10001000B9180008AD050008591D000800000000CF
:10002000000000000000000000000000BF180008F1
:10003000AF05000800000000BD180008C118000846
:10004000430200084302000843020008430200087C
:10005000430200084302000843020008430200086C
:10006000430200084302000843020008430200085C
:10007000430200084302000843020008430200084C
:10008000430200084302000843020008430200083C
:10009000430200084302000843020008430200082C
:1000A000430200084302000843020008430200081C
:1000B000430200084302000843020008430200080C
:1000C00043020008430200084302000843020008FC
:1000D00043020008430200081D1D000843020008F7
:1000E00043020008430200084302000843020008DC
:1000F00043020008430200084302000843020008CC
:1001000043020008430200084302000843020008BB
:10011000430200084302000843020008691900086E
:10012000430200084302000843020008430200089B
:10013000430200084302000843020008430200088B
:10014000430200084302000843020008430200087B
:10015000430200084302000843020008430200086B
:10016000430200084302000843020008430200085B
:100170004302000843020008430200080000000098
:10018000430200084302000800F002F800F03CF8C7
:100190000AA090E8000C82448344AAF10107DA45E2
:1001A00001D100F031F8AFF2090EBAE80F0013F0F8
:1001B000010F18BFFB1A43F001031847782A00000B
:1001C000982A0000103A24BF78C878C1FAD852079C
:1001D00024BF30C830C144BF04680C6070470000C1
:1001E0000023002400250026103A28BF78C1FBD840
:1001F000520728BF30C148BF0B6070471FB502F0DF
:1002000007FC1FBD10B510BD00F07EF91146FFF7C9
:10021000F5FF02F08BF900F09CF903B4FFF7F2FF51
:1002200003BC00F013F90000094880470948004763
:10023000FEE7FEE7FEE7FEE7FEE7FEE7FEE7FEE796
:10024000FEE7FEE704480549054A064B70470000F3
:100250005919000889010008B0030020B0090020E6
:10026000B0050020B005002053EA020C00F06980C0
:100270002DE9F04B4FF00006002B1FBFB3FA83F5BA
:1002800003FA05F424FA05F65E4012BF1643B2FAEB
:1002900082F502FA05F4C5F120051EBF22FA05FC1D
:1002A00044EA0C04203556EA044C4FEA144418BFC3
:1002B000641C4FF000084FF00009904271EB030CF2
:1002C00039D3002919BFB1FA81F701FA07F6B0FA5C
:1002D00080F700FA07F6C7F120071EBF20FA07FCD7
:1002E00046EA0C062037B6FBF4FCA7EB0507103FE7
:1002F00007F01F0BCBF120060CFA0BFB2CFA06F6CD
:1003000044BFB3460026202FA4BF5E464FF0000B2B
:100310005BEA060C08BF4FF0010B19EB0B09ABFBB6
:10032000027C48EB0608C01B06FB02CC0BFB03CC8F
:1003300071EB0C01C1E70B46024641464846BDE859
:10034000F08B13B54FF000004FF00001AFF30080C9
:10035000BDE81C40704710B5002000F07DF8FFF7A5
:1003600051FFBDE81040012000F070B8032A40F2B0
:10037000308010F0030C00F0158011F8013BBCF147
:10038000020F624498BF11F801CB00F8013B38BF5F
:1003900011F8013BA2F1040298BF00F801CB38BF6D
:1003A00000F8013B11F0030300F05D80083AC0F053
:1003B000088051F8043B083A51F804CBA0E8081033
:1003C000F5E7121D5CBF51F8043B40F8043BAFF366
:1003D0000080D20724BF11F8013B11F801CB48BFC0
:1003E00011F8012B24BF00F8013B00F801CB48BFF6
:1003F00000F8012B70474FF0000200B513469446F9
:100400009646203922BFA0E80C50A0E80C50B1F16C
:100410002001BFF4F7AF090728BFA0E80C5048BF80
:100420000CC05DF804EB890028BF40F8042B08BF1E
:10043000704748BF20F8022B11F0804F18BF00F81A
:10044000012B704770477047704700000149182022
:10045000ABBEFEE72600020010B500F03DF8BDE897
:10046000104000F033B810B5203AC0F00B80B1E86E
:100470001850203AA0E81850B1E81850A0E81850D9
:10048000BFF4F5AF5FEA027C24BFB1E81850A0E8E2
:10049000185044BF18C918C0BDE810405FEA827CFC
:1004A00024BF51F8043B40F8043B08BF7047D20713
:1004B00028BF31F8023B48BF11F8012B28BF20F8B4
:1004C000023B48BF00F8012B70477047002801D05D
:1004D000FFF7BCBF7047000010B5002102A000F07C
:1004E00041F8012010BD0000534947414252543A9F
:1004F0002041626E6F726D616C207465726D696E01
:100500006174696F6E000000754600F04BF8AE46EE
:1005100005006946534620F00700854618B020B50F
:10052000FFF790FEBDE820404FF000064FF00007B7
:100530004FF000084FF0000B21F00701AC46ACE88B
:10054000C009ACE8C009ACE8C009ACE8C0098D46F8
:10055000704710B50446AFF300802046BDE8104058
:10056000FFF75BBE70B505460C460A2000E06D1C27
:1005700000F011F835B128780028F8D102E0641CA9
:1005800000F009F814B120780028F8D1BDE87040D7
:100590000A20AFF3008008B569468DF800000320FB
:1005A000ABBE08BD004870474C030020FEE7704713
:1005B00072B6FEE72DE9F0410446876D00F05CF964
:1005C000064694F835000025022806D08020606594
:1005D00084F834500120BDE8F0812068016821F0E2
:1005E000160101602068416921F080014161206CA1
:1005F00008B9A06C20B12068016821F008010160F1
:100600002068016821F0010101600CE000F034F97C
:10061000801B052807D920206065032084F8350059
:1006200084F83450D7E720680068C007EED194F80A
:100630005C103F208840B860012084F8350084F8C1
:1006400034500020C7E790F83510022903D08021EC
:10065000416501207047052180F835100068016868
:1006600021F0010101600020704700002DE9F84FE2
:10067000DFF8BCA10022012503264FF00F090AF183
:10068000040BAAF1040E00BF0B6805FA02F4234024
:10069000A34270D10F7907F00307012F01D0022F79
:1006A00016D187684FEA420806FA08FC27EA0C07C9
:1006B000D1F80CC00CFA08FC4CEA070CC0F808C0D2
:1006C0004768A7430C79C4F3001494403C4344604A
:1006D0000C79E443A4070AD0C4684FEA420C06FA36
:1006E0000CF7BC438F6807FA0CF72743C7600C79F7
:1006F00004F00304022C12D1D40800EB840CDCF8C3
:1007000020405707FF0E09FA07F824EA0804D1F839
:10071000108008FA07F848EA0408CCF8208004683A
:100720004FEA420C06FA0CF7BC430F7907F00307B7
:1007300007FA0CF7274307604C6814F4403F70D069
:100740003C4C276847F480472760246822F0030761
:1007500004F480440094384C07EB040CDCF808489F
:1007600097074FEA177809FA08F7BC43334FB842A6
:1007700002D1002724E054E0314FB84201D10127D3
:100780001EE0304FB84201D1022719E02E4FB84287
:1007900001D1032714E02D4FB84201D104270FE007
:1007A0002B4FB84201D105270AE02A4FB84201D1A8
:1007B000062705E0284FB84201D1072700E00827A7
:1007C00007FA08F72743CCF80878DAF800405746CC
:1007D000D1F804C09C435FEACC2C00D51C433C609C
:1007E000DBF800405F46D1F804C09C435FEA8C2CE4
:1007F00000D51C433C60DEF800407746D1F804C0C9
:100800009C435FEA8C3C00D51C433C60084F083F8A
:100810003C68D1F804C09C435FEACC3C00D51C4343
:100820003C60521C102AFFF42FAFBDE8F88F000087
:10083000083C0140443802400030014000000240C2
:100840000004024000080240000C02400010024078
:100850000014024000180240001C0240426921EAD4
:1008600002030A4043EA0241816170470AB1816193
:1008700070470904FBE700000148806870470000EA
:1008800000000020024881680278114481607047AE
:10089000000000200B4810B5016841F400710160B0
:1008A000016841F480610160016841F48071016078
:1008B000032000F08DF80F2000F006F800F024F877
:1008C000002010BD003C024070B50D4D04464FF4B1
:1008D0007A712878B1FBF0F00A490968B1FBF0F0B1
:1008E00000F02AFB48B9102C07D200222146501EE6
:1008F00000F04EF800206C6070BD012070BD00005B
:10090000000000200C0000200A4808B5016841F4EE
:1009100080410160006800F4804000900548001F9D
:10092000016841F080510160006800F08050009043
:1009300008BD000044380240002809DB00F01F0217
:10094000012191404009800000F1E020C0F88012B0
:10095000704700280DDB00F01F0201219140400983
:10096000800000F1E020C0F88011BFF34F8FBFF38B
:100970006F8F7047002809DB00F01F0201219140B2
:100980004009800000F1E020C0F80011704700002D
:10099000F0B40E4B1B680C46C3F30223C3F10705EA
:1009A000042D00D90425191D072901D2002300E0D8
:1009B000DB1E012606FA05F1491E214099409E40A2
:1009C000761E16403143F0BC01F0C7B90CED00E0D3
:1009D000064900F0070208684FF6FF03184040EA96
:1009E0000220034A10430860704700000CED00E04D
:1009F0000000FA052DE9F0470E46050065D0DFF846
:100A00001481D8F80000F7B200F00700B04207D216
:100A100088F80070D8F8000000F00700B04254D108
:100A200028683D4C810712D5400703D5206840F463
:100A3000E05020602878000703D5206840F460402B
:100A400020602068A96820F0F00008432060287822
:100A5000C0072DD0304968680839012812D0022813
:100A600013D0032811D00968890700292DDA2168DD
:100A700021F0030101432160FFF7FEFE814641F2B0
:100A8000883A0EE009688903EFE709688901ECE715
:100A9000FFF7F2FEA0EB0901514502D90320BDE8A2
:100AA000F0872068696800F00C00B0EB810FEFD18F
:100AB000D8F80010404601F00701B14207D907708D
:100AC000006800F00700B04201D00120E7E7287875
:100AD000400705D52068E96820F4E050084320600D
:100AE0002878000706D52068296920F4604040EA8C
:100AF000C100206000F038F82168084AC1F30311F2
:100B0000515CC8400649086006480068FFF7DCFEF3
:100B10000020C4E7003C0240083802401A2A0008BE
:100B20000C00002004000020044805490068096802
:100B3000044AC1F38221515CC84070470C00002078
:100B4000083802402A2A0008044805490068096854
:100B5000044AC1F34231515CC84070470C00002088
:100B6000083802402A2A0008154810B5006810F01D
:100B70000C02144813D01449042A0FD0082A0ED1AD
:100B80000F4C241F2268236802F03F025B0207D546
:100B90002068C0F38810A0FB010106E0084610BDE4
:100BA0002168C1F38811A1FB00010023FFF75CFB62
:100BB0002168C1F30141491C4900B0FBF1F010BDAF
:100BC000083802400024F40040787D012DE9F84FF8
:100BD00004006ED02078DFF84C93C007A9F104051B
:100BE0004AD009F104000168C1F38101012908D04C
:100BF0000068C0F3810002280AD1D9F80000400241
:100C000006D52868800337D560680028E1D033E036
:100C10006068B0F5803F10D0B0F5A02F286810D0E4
:100C200020F480302860286820F4802028606068E4
:100C3000A8B1FFF721FE06460DE0286840F4803099
:100C4000F4E740F480202860F7E700BFFFF714FEC8
:100C5000801B642873D828688003F7D50CE0FFF761
:100C60000BFE064605E000BFFFF706FE801B64286A
:100C7000F0D828688003F7D42078DFF8AC828007AA
:100C80004FF0000A3ED5A748001D016811F00C0F77
:100C900008D00068C0F3810002280BD1D9F8000009
:100CA000400207D42868800716D5E068012800D1E3
:100CB00012E033E1E068B8B10120C8F80000FFF7A6
:100CC000DBFD064605E000BFFFF7D6FD801B0228CE
:100CD000C0D828688007F7D52868216920F0F80077
:100CE00040EAC10028600DE0C8F800A0FFF7C4FD8D
:100CF000064604E0FFF7C0FD801B02281FD82868C5
:100D00008007F7D42078000722D5864F874861698D
:100D1000703771B101210160FFF7AEFD064604E0B6
:100D2000FFF7AAFD801B022809D838688007F7D58D
:100D30000EE0C0F800A0FFF79FFD064605E082E048
:100D4000FFF79AFD801B02287DD838688007F7D40A
:100D50002078400768D5DFF8CCB100270BF13C0BB9
:100D6000DBF80000C0000BD4DBF8001041F080512C
:100D7000CBF80010DBF80000012700F08050009055
:100D80006B4E3068C00510D4306840F4807030601D
:100D9000FFF772FD009005E0FFF76EFD0099401A25
:100DA000022850D83068C005F6D55E4EA0686C3673
:100DB00001280FD00528306810D020F001003060E5
:100DC000306820F004003060A068B8B1FFF754FD2F
:100DD00000900FE0306840F00100F4E740F00400BC
:100DE0003060F7E7FFF748FD0099411A41F288307B
:100DF000814266D830688007F4D50EE0FFF73CFDED
:100E0000009007E0FFF738FD0099411A41F2883061
:100E1000814256D830688007F4D42FB1DBF8001037
:100E200021F08051CBF80010A069C8B33D49091DDD
:100E30000968C1F3810102294AD00228504607D02F
:100E4000C8F8600000E03CE0FFF716FD04463BE018
:100E50004746C8F86000FFF70FFD064605E000BFF3
:100E6000FFF70AFD801B02282BD828688001F7D4E1
:100E7000D4E907010843A16A2E4A490802EB01415F
:100E8000626A41EA8211084394F82C1040EA016139
:100E9000C9F8001001203866FFF7EEFC044606E0B2
:100EA0003EE000BFFFF7E8FC001B022809D82868D5
:100EB0008001F7D534E000BFFFF7DEFC001B0228FD
:100EC00002D90320BDE8F88F28688001F4D427E018
:100ED0000128F7D0D9F80000E26900F480019142BE
:100EE0001CD1226A00F03F01914217D147F6C07130
:100EF000626A0140B1EB821F10D1A26A4FF0FF334A
:100F000000F4403103EB5202B1EB024F06D194F8EA
:100F10002C1000F07060B0EB016F01D00120D1E720
:100F20000020CFE70438024000004742800E4742CD
:100F3000007000400000FFFF10B5401EB0F1807F40
:100F400001D3012010BD4FF0E02460610F21601734
:100F500000F003FF0020A06107202061002010BDE9
:100F60007047704770B590F83C20012A32D00124B8
:100F700080F83C40022280F83D2003685A689D6852
:100F800022F070060A6832435A60134B02689A4294
:100F900014D0B2F1804F11D0104B9A420ED0104BAA
:100FA0009A420BD00F4B9A4208D00F4B9A4205D071
:100FB0000E4B9A4202D00E4B9A4204D1496825F05A
:100FC00080031943916080F83D40002180F83C1077
:100FD000084670BD022070BD0000014000040040C2
:100FE00000080040000C00400004014000400140A7
:100FF0000018004010B5040003D094F83D0010B173
:1010000007E0012010BD002084F83C00204600F0DD
:101010001FF8022084F83D00211D206800F0C6FC66
:10102000012084F8460084F83E0084F83F0084F8EC
:10103000400084F8410084F8420084F8430084F8BA
:10104000440084F8450084F83D00002010BD0000F5
:1010500008B500680649884208D10648016841F091
:1010600020010160006800F02000009008BD000031
:10107000001400404038024090F83D10012901D092
:1010800001207047022180F83D100168CA6842F0D3
:101090000102CA6000681149884214D0B0F1804F43
:1010A00011D00F4988420ED00E4988420BD00E490C
:1010B000884208D00D49884205D00D49884202D0A7
:1010C0000C49884204D1816801F00701062903D048
:1010D000016841F0010101600020704700000140FB
:1010E0000004004000080040000C004000040140E3
:1010F00000400140001800400168CA6822F0010267
:10110000CA6001680A6A41F211131A4207D10A6AD9
:101110009B101A4203D10A6822F001020A600121E1
:1011200080F83D100020704770472DE9F0410446DB
:101130000068C66805694FF00007A90713D5B10715
:1011400011D5F91E01610120207720688069800790
:10115000204602D0FFF7E8FF04E000F07EF82046CA
:1011600000F07CF82777680716D5700714D521683A
:101170006FF004000861022020772068806910F475
:10118000407F204602D0FFF7CFFF04E000F065F873
:10119000204600F063F82777280715D5300713D5C8
:1011A00021686FF008000861042020772068C0697A
:1011B0008007204602D0FFF7B7FF04E000F04DF8AB
:1011C000204600F04BF82777E80616D5F00614D530
:1011D00021686FF010000861082020772068C0693E
:1011E00010F4407F204602D0FFF79EFF04E000F09D
:1011F00034F8204600F032F82777E80708D0F007E7
:1012000006D021686FF001000861204600F027F841
:10121000280608D5300606D521686FF080000861E1
:101220002046FFF79DFE680608D5700606D52168A2
:101230006FF040000861204600F012F8A8060AD5B9
:10124000B00608D521686FF0200008612046BDE88F
:10125000F041FFF786BEBDE8F081704770477047E8
:101260007047704770470000F8B501680446086889
:10127000CA684B6910F00F0F4FF0000559D003F00A
:10128000010602F49077374365D0C10705D0D10538
:1012900003D5616C41F001016164410705D5D907AF
:1012A00003D0616C41F002016164810705D5D90763
:1012B00003D0616C41F004016164010707D502F0BD
:1012C0002001314303D0616C41F008016164616C1D
:1012D00000293AD0800604D5900602D5204600F0B9
:1012E000FBFB20684069616CC0F38010090700D4E3
:1012F00060B3204600F0C9FB20684069400621D554
:101300002068143050E8001F21F0400140E800122E
:10131000002AF5D1E06BA8B172490165E06BFFF7D7
:1013200092F9002811D0E06B016D01B0BDE8F040EA
:10133000084783060FD593060DD52046BDE8F84033
:1013400000F0CABB2046FFF78DFFF8BD2046FFF72F
:1013500089FF6564F8BD266B2023012E7ED1C60669
:101360007CD5D6067AD508684868009048694FF061
:10137000020640064DD5E26B106840684FF4807756
:101380000004000C3AD0A18D814237D9E085D069A4
:10139000B8422DD020680C3050E8001F21F4807135
:1013A00040E80012002AF5D12068143050E8001FF0
:1013B00021F0010140E80012002AF5D12068143024
:1013C00050E8001F21F0400140E80012002AF5D14A
:1013D00084F84230256320680C3050E8001F21F06B
:1013E000100140E80012002AF5D1E06BFFF7E2F8A7
:1013F0006663A08DE18D401A81B206E0A18D814225
:10140000A8D1D069B842A5D166632046FFF729FF6D
:10141000F8BDA08DE18D401A81B2E08D0028F7D093
:101420000029F5D020680C3050E8002F22F490728B
:1014300040E80027002FF5D12068143050E8002F35
:1014400022F0010240E80027002FF5D184F8423055
:10145000256320680C3050E8002F00E006E022F001
:10146000100240E80023002BF3D1CDE705062BD571
:10147000150629D594F841002128C9D1A068B0F5F6
:10148000805F01D12069B0B1206A411C21622168CE
:1014900000784860E08C401E0004000CE084B7D166
:1014A0002068C16821F08001C1602068C16841F0F6
:1014B0004001C160F8BD206A0088C0F308004860A0
:1014C000206A801C2062E5E74006F3D55006F1D57E
:1014D000CA68204622F04002CA6084F8413000F019
:1014E00014F9F8BD7D1A000870B5040004D094F812
:1014F0004100002510B106E0012070BD84F8405085
:10150000204600F023F8242084F841002068C168B8
:1015100021F40051C160204600F040FB20680169C1
:1015200021F4904101612068416921F02A01416163
:101530002068C16841F40051C1606564202084F8CE
:10154000410084F842006563002070BD10B586B08C
:10155000044614216846FEF74EFF1449206888426D
:1015600021D113480021026842F010020260006895
:1015700000F0100005900E481438026842F0010295
:101580000260006800F0010005904FF4C060009018
:101590000220CDE901010320039007200490694651
:1015A0000448FFF763F806B010BD000000100140CA
:1015B00044380240000002402DE9F84F044690F8FC
:1015C00042009A4616460D46202802D00220BDE869
:1015D000F88FB5B1AEB100206064222184F84210CA
:1015E0002063FFF749F9A6858146E685A0684FF498
:1015F00080582027404501D1206920B12E46002582
:1016000029E00120E3E7002625E04B4600222021C7
:101610002046CDF800A000F047FB18B184F84270D6
:101620000320D4E726B1A06840451AD038B108E0BD
:1016300020684068C0F3080025F8020B08E0206924
:1016400078B12068406800F07F0000BF06F8010B09
:10165000E08D401EE085E08D0028D6D184F84270F0
:10166000B5E720684068F1E770472DE9F843044684
:1016700090F84100984616460D46202802D00220D8
:10168000BDE8F88385B17EB100206064212084F834
:101690004100FFF7F1F8A6848146E684A068202780
:1016A000B0F5805F02D003E00120E9E7206910B1C6
:1016B0002E4600250EE000260CE08021204600F09A
:1016C000F3FAA8B9C6B116F8010B21684860E08C9E
:1016D000401EE084E08C4B464FF00002CDF80080C5
:1016E0000028EAD14FF04001204600F0DDFA40B179
:1016F00084F841700320C3E735F8020BC0F30800FB
:10170000E3E784F841700020BAE77047FEE7000085
:101710002DE9F0412A4886B0016841F400310160AA
:101720000068274C00F40030103C0090206840F026
:10173000010020602068022500F0010005900420CF
:1017400001268DE861000727DFF87880CDE903578F
:1017500069464046FEF78AFF206840F0010020609D
:101760002068694600F00100059008208DE86100BE
:10177000CDE903574046FEF779FF206840F040006E
:1017800020602068CDE9026500F040000090A415BB
:10179000CDE900460C4D69462846FEF767FF00225A
:1017A00021462846FFF762F8012203212620FFF791
:1017B000EFF806B02620BDE8F041FFF7CAB80000F8
:1017C00040380240000002400018024070B586B068
:1017D00014216846FEF70FFE16480024016841F008
:1017E00020010160016801F020010591016841F0CC
:1017F00080010160016801F080010591016841F0FC
:101800000101016000680C4E00F001004FF4C0655A
:101810000590002229463046FFF728F80120009560
:10182000CDE90104694630460394FEF71FFF06B078
:1018300070BD000030380240001402401CB5002486
:101840000E4800940C49019401605321C0E9011431
:1018500040F2D5618461C160FFF7CCFB08B1FEF7AF
:10186000A7FE0094694605480194FFF77BFB00281A
:1018700001D0FEF79DFE1CBD00140040E4000020D6
:101880000C4810B50A4901604FF4E1314160002174
:1018900081600C22C160C0E904128161C161FFF75F
:1018A00023FE002803D0BDE81040FEF781BE10BD26
:1018B000001001402C010020FEE7FEE77047704752
:1018C000FEF7E0BF30B593B030216846FEF793FDD8
:1018D00014210CA8FEF78FFD1D480025016841F07A
:1018E00080510160006800F0805011901948016833
:1018F00041F4804101600068022400F480401190AE
:101900000120039010200490009406940820CDE953
:101910000750A820CDE9090404200B906846FFF782
:1019200055F908B172B6FEE70CA90F2081E8310025
:101930004FF4A0500F904FF48050109005210CA848
:10194000FFF758F8002801D072B6FEE713B030BD9B
:1019500040380240007000400248016841F47001C4
:101960000160704788ED00E00D4810B5006801691E
:10197000C943C9070FD1C168C943C9070BD1891E23
:10198000016108484188491E0904090C418002D1BF
:10199000054800688047BDE810400148FFF7C5BB17
:1019A00004030020DE00002048000020F0B502689B
:1019B000274B284D284E294F294C4FF0804C9842F8
:1019C00009D0604507D0A84205D0B04203D0B84244
:1019D00001D0A04204D122F0700E4A6842EA0E0201
:1019E00098421BD0604519D0A84217D0B04215D0FC
:1019F000B84213D0A04211D01A4DA8420ED01A4DB1
:101A0000A8420BD0194DA84208D0194DA84205D0C4
:101A1000184DA84202D0184DA84203D122F44075B7
:101A2000CA682A434D6922F080022A438D68C56244
:101A30000D688562984201D0A04201D10969016315
:101A4000016841F004010160012141610260F0BDC3
:101A5000000001400004004000080040000C00406D
:101A600000040140004001400044014000480140A2
:101A700000180040001C00400020004010B5806BA2
:101A80000021C185FFF7EEFB10BD01680C3151E864
:101A9000002F22F4907241E80023002BF5D1016859
:101AA000143151E8002F22F0010241E80023002BFD
:101AB000F5D1016B012909D101680C3151E8002FE2
:101AC00022F0100241E80023002BF5D1202180F8FC
:101AD000421000210163704708B590F84210222996
:101AE00001D0022008BD82684FF480539A4201D190
:101AF000016921B1816A9A421BD04AB10AE00268A9
:101B0000816A5268C2F308020A80816A891C08E06F
:101B1000026972B10268526802F07F020A70816A3B
:101B2000491C8162C18D491E0904090CC18503D07D
:101B30001BE002685268F1E70168CA6822F02002DF
:101B4000CA600168CA6822F48072CA6001684A6982
:101B500022F001024A61202180F8421000214163F5
:101B6000026B012A03D0FFF77FFD002008BD01634F
:101B700001680C3151E8002F22F0100241E80023E7
:101B8000002BF5D101680A68D20602D50A684968B7
:101B90000091818DFFF765FBE7E7000070B5044613
:101BA00000680169E26821F4405111430161216933
:101BB000A068E26908436169114308432168CA6863
:101BC00049F20C639A430243CA6020684169A269E2
:101BD00021F440711143416131492068884202D0AB
:101BE0003049884202D1FEF7AFFF01E0FEF79CFFCB
:101BF000E2690023192164253226B2F5004F62689C
:101C000028D0A0FB0101930F9200FEF72DFB0146A7
:101C1000B0FBF5F06FF01802504301EB800006EBCB
:101C20000010B0FBF5F000F0F002B1FBF5F002EBB4
:101C30000012B1FBF5F06FF01803584301EB800080
:101C400006EB0010B0FBF5F000F00F002168104427
:101C5000886070BDA0FB010192185B41FEF704FB98
:101C60000146B0FBF5F00201B1FBF5F06FF018038F
:101C7000584301EB800006EBC000B0FBF5F000F02C
:101C8000F80002EB4002B1FBF5F0584301EB800095
:101C900006EBC000B0FBF5F000F00700D6E700004F
:101CA00000100140001401402DE9F8439846174602
:101CB0000D460446089E24E0701C22D0FEF7DCFD91
:101CC000A0EB0800B0421AD8CEB12068C16849071D
:101CD00017D5802D15D0402D13D00168C9430907B1
:101CE0000FD401680025406800902046FFF7CDFE24
:101CF0000820606484F840500120BDE8F883032088
:101D0000FBE72068006835EA000004D00020B842F4
:101D1000D2D00020F1E70120F9E7000010B50B4C0C
:101D20002068C068800602D509480068804720689E
:101D3000C068000602D50748006880472620FEF7E5
:101D4000FBFDBDE810400148FFF78EBABC02002041
:101D50004000002044000020FEE70907090E00288B
:101D600004DB00F1E02080F80014704700F00F0061
:101D700000F1E02080F8141D7047000070B5064D9A
:101D800000242878012802D00624204670BD286946
:101D9000804700202870F8E72000002070B50C462E
:101DA0000988002505292FD1417840F2CF760A0213
:101DB00081781143C278491C1302027989B21A430F
:101DC000531EB34220D200232380012300F8013B9D
:101DD0002688761C2680560703D003EBD203DEB29A
:101DE00001E0C2F3C70600F8016B23885B1C238067
:101DF000002300F0D9FA18B100F03CFC054604E0DD
:101E000020883044208000E00325284670BD70B54E
:101E10000C460988002505292FD1417840F2CF765C
:101E20000A0281781143C278491C1302027989B2EF
:101E30001A43531EB34220D200232380022300F80A
:101E4000013B23885B1C2380530704D0012303EB51
:101E5000D203DEB201E0C2F3C70600F8016B2388AB
:101E60005B1C238000F0E2FA18B100F003FC054689
:101E700004E020883044208000E00325284670BD1F
:101E800070B50C4609880026052928D141780579C6
:101E90000A0281781143C278491C45EA02256A1E6C
:101EA00089B27C2A1BD800222280032200F8012B51
:101EB00022880023521C22806A0000F8012B22880D
:101EC000521C22802A4600F0DBFA18B100F0D2FB47
:101ED000064605E0208800EB4500208000E0032650
:101EE000304670BD70B50C4609880026052927D1FB
:101EF000417805790A0281781143C278491C45EA84
:101F000002256A1E89B27C2A1AD20022228004226B
:101F100000F8012B2288521C22806A0000F8012B55
:101F20002288521C22802A4600F0DEFA18B100F006
:101F3000A1FB064605E0208800EB4500208000E07C
:101F40000326304670BD2DE9F0410446088800277D
:101F50000D460A2842D3607826790102A078227AB9
:101F60000843401C1FFA80F8E07846EA00266079B2
:101F7000731E0102A0790843401C81B2E0797C2BDA
:101F800042EA0022607A28D83AB3792A25D8B0EB01
:101F9000420F22D1012304F10A0000F071FA98B92E
:101FA00000212980172121702988601C491C298063
:101FB000710000F8011B29880023491C2980324642
:101FC000414600F05DFA18B100F054FB074605E009
:101FD000288800EB4600288000E003273846BDE84B
:101FE000F081000070B5064C0D4606492288401C61
:101FF000FEF7BCF92088401C2880002070BD00003E
:10200000100000207401002038B50988002405293B
:102010000BD141780A0281781143491C027989B2B7
:102020001AB9C278FF2A03D012B10324204638BD62
:1020300000228DF80120C078FF280CD08DF80020F8
:1020400001231A46684600F0AFF90028EED000F0F0
:1020500011FB0446EAE701208DF80000F0E710B517
:1020600009880024052902D00324204610BD4178A8
:1020700001230A028178C01C1143491C89B21A4607
:1020800000F0FEF90028F0D000F0F4FA0446ECE786
:102090002DE9F0410D4609880024052926D941780B
:1020A00043790A0281781143491C8EB2C1780279C2
:1020B00042EA0122510704D0012101EBD201C9B249
:1020C00001E0C2F3C701571EB7F5F66F0ED2994271
:1020D0000CD101233146801D00F066F918B100F0E3
:1020E000C9FA044603E00520288000E003242046C6
:1020F000BDE8F08170B50D460988002406291DD37E
:1021000041780A0281781143C278491C130202798E
:1021100089B21A434379561E772E0FD85606360ECB
:102120009E420BD10123801D00F0AAF918B100F0E6
:10213000A1FA044603E00520288000E0032420469D
:1021400070BD0000F8B51D461746DDE906320646AB
:1021500029B1F72903D8134C084621710EB1022585
:102160001CE011492161114961611149E160114986
:10217000A1610021E16110492162104961621049A9
:10218000A16200922A46394600F07AF8050005D18E
:1021900000F0F4FA20B16671012020702846F8BDE5
:1021A0000325FBE720000020752300089523000885
:1021B00019230008C5220008B92800086129000871
:1021C00021290008F8B52D4C0025207808B10620FB
:1021D000F8BD684600F0C4FA01284DD19DF8000012
:1021E000F0B3012802D0022846D110E0234AA369A7
:1021F000921D911CC81F984705003DD16078217938
:10220000884200D060BB022000F0C0FA34E0A3682E
:1022100001201A4A1978A170E070002012F12C02F6
:1022200012F830606EB18E4208D102EBC000134943
:102230004268891D18469047E07002E0401C102853
:10224000EEDB607860B1E07880B10021E180A178B8
:10225000A26841F080011170E188491C89B200E058
:102260000AE0E1805054E088401CE080D4E9021389
:10227000E2882079984705462846F8BD20000020CE
:1022800038B5084604991546002472B60822009114
:10229000294600F091FA01280DD1B5F5964F01D9E4
:1022A000232003E006496800B1FBF0F080B200F0A3
:1022B000C9FA012800D0032462B6204638BD0000C8
:1022C000A07F17002DE9F0411646884607460025F5
:1022D00072B60F4CA088FF2801D9FEF73CF8A08801
:1022E000042804D3A1880B4800F0D0F920B10525BB
:1022F00062B62846BDE8F081064800783870A088AC
:10230000C01E30800348401CC8F80000F0E7000001
:10231000140000209401002070B50346002572B619
:10232000124C6078012803D0052562B6284670BD9E
:10233000491E0126A160084666800B706188114421
:102340006180618800F0A2F96188094A5318491C2C
:1023500061801870010A60880244401C608011701E
:1023600026700121002000F0A7F9DEE7140000200C
:102370009401002010B572B600200549487001464E
:10238000012000F099F900F0DBF962B610BD000001
:102390001400002010B572B60021084600F08CF938
:1023A00000F0C2F962B610BD2DE9F04114460546B1
:1023B0004FF0000849B10819112806D81A480078CA
:1023C000081A86B2C3B1012B2BD04FF0010840464A
:1023D000BDE8F081082C01D9082000E02046C7B2F2
:1023E00011483A463146801D00F0E8FA05F8010B25
:1023F000E01B84B2F01986B2002CEBD1E7E7082C81
:1024000001D9082000E02046C7B2074815F8013B73
:102410003A463146801D00F0E2FAE01B84B2F01922
:1024200086B2002CEBD1D2E7CC0000202DE9F041A0
:10243000144607464FF00008D9B10819112818D8DA
:102440000E484078081A10E0082C01D9082000E056
:102450002046C5B209482A463146083000F0AEFA97
:1024600007F8010B601B84B2701986B2002CEBD107
:1024700001E04FF001084046BDE8F081CC000020AB
:1024800070B5002549B18C180B2C06D8144CA488C3
:10249000091B144C83B1012B1FD00125284670BDA8
:1024A00034F81130521E1B0A00F8013B14F81130A9
:1024B00000F8013B92B2491C002AF1D1EEE700BFBF
:1024C00010F8013B521E1B0224F8113010F8016B6A
:1024D00092B2334324F81130491C002AF0D1DDE7D1
:1024E000CC000020A802002030B50023B9B18C1820
:1024F0000B2C14D80B4C6488091B0B4C0CE000BF50
:1025000034F81150521E2D0A00F8015B14F81150D6
:1025100000F8015B92B2491C002AF1D100E00123CE
:10252000184630BDCC00002094020020FEF7B2F91E
:10253000FFF7C8F9FFF74AF9FFF7A2F9FFF77EF9AD
:1025400000F004F800F078F8FCE7000070B53648B9
:1025500086B00024016841F02001016000684FF45A
:10256000007500F0200005900120CDE90050029098
:1025700002202E4E039069463046FEF777F801227E
:1025800029463046FEF772F9FFF7C2F800220094A0
:102590004FF4E133012110460194FFF7D3FD2448A5
:1025A000122134220480418082805622C280782207
:1025B000028190224281AB228281CD22C281EF2210
:1025C000028241821430E9000180490041804FF4C9
:1025D000405181806901C1804FF4A04101814FF4D5
:1025E000C04141814FF4E0418181A901C1814FF493
:1025F000104101824FF4204141820E4811210170A7
:1026000022214170801C3321017044214170FFF769
:10261000B5FB08B1FDF7CCFFFEF72EF90549891F80
:10262000C86006B070BD000030380240001402409F
:1026300094020020D200002010B5FFF7C3FD0A4825
:102640000188491C0180FEF717F9084CE168401A1F
:10265000B0F5FA7F07D34FF400710548FEF7FEF896
:10266000FEF70AF9E06010BD94020020CC000020C3
:1026700000140240002804D0012803D0072803D00A
:1026800004207047022070470620704770B5094D3E
:10269000FF231A4605F5807606E000BF10F8014BCF
:1026A00054402A5D5A40335D491E89B2F6D242EA4F
:1026B000032070BD322A00082DE9F04105460E4680
:1026C0002620FEF746F9174CDFF854804FF4807748
:1026D0002068C16845B141F02001C160002239463F
:1026E0004046FEF7C3F802E021F02001C1602068F7
:1026F000C16846B141F08001C160012239464046BF
:10270000FEF7B4F802E021F08001C160354304D047
:10271000BDE8F0412620FEF72DB9BDE8F0810000AC
:1027200000180240BC02002010B50448FEF7E4FC8B
:10273000BDE810403720FEF70CB90000040300206C
:10274000054810B5018841800448FEF795FCBDE8B6
:1027500010403720FEF70EB9DE00002004030020F1
:102760000549024600204B78002B04D008781070F1
:102770000020487001207047DC0000200249002042
:102780004870012070470000DC000020024901224F
:102790004A70087010467047DC00002010B5012315
:1027A00001461A460348FEF707FF08B1002010BD96
:1027B000012010BDBC02002070B51A4C0498184DC1
:1027C000E0600C2060610020A061E061C4E900517C
:1027D000A914082A02D0092A0CD012E02BB1A1605A
:1027E000012B04D04FF4806006E0A06004E04FF4B9
:1027F000C06001E02BB9A16020610A48FEF774FEB9
:1028000008B1002070BD2068C16821F02001C160BE
:102810002068C16821F08001C160012070BD000006
:1028200000440040BC02002001B501231A4669465D
:102830000348FEF71AFF08B1002008BD012008BDBB
:10284000BC020020FEB5174906460025086840F086
:10285000200008600868154C00F020000290124823
:102860002060FEF761F91249B0FBF1F0401EC4E9A7
:1028700001053120E0600F4806802046FEF7BAFBD4
:1028800038B92020CDE9000569462046FEF76AFBED
:1028900008B10020FEBD012204213720FEF778F8A0
:1028A0000120FEBD40380240001400400403002017
:1028B00040420F00DE00002038B5174C002520787C
:1028C00008B1FDF748FD6846FFF768FF607830B152
:1028D000124A012807D0022810D0032801D1FFF79F
:1028E0002FFF284638BD0020A0809DF80000A18859
:1028F0000A44491CA180107002200BE0A088FF2828
:1029000007D89DF80010A0880244401CA0801170D8
:10291000E5E703206070E2E7140000209401002046
:1029200070B50E4D0024687870B102280BD00328D2
:102930000DD0687858B16878022808D068780328E4
:1029400005D0FDF708FD0120FFF720FF0446FFF743
:10295000EBFE01206870204670BD000014000020CE
:1029600070B5154C00256078012801D0FDF7F3FC07
:10297000207810B101281CD104E000210120FFF7CC
:102980009BFE16E0608850B1A0680078FFF74CFF0E
:10299000A068401CA0606088401E608009E00320A1
:1029A000FFF7F4FE054600210120FFF785FE002019
:1029B0002070284670BD00001400002010B5CB0820
:1029C0005C4201EBC40401219140C25C1844407890
:1029D00042EA0020E040491E0840C0B210BD70B578
:1029E000082A01D9FDF7B7FCCC08654201EBC50503
:1029F000AB4001219140491EA9400519025D6E7846
:102A000042EA06228A431A430255100A687070BDD2
:102A10004FF04070E1EE100A704700000000000027
:102A2000000001020304060708090000000001027B
:102A3000030400C1814001C0804101C0804100C148
:102A4000814001C0804100C1814000C1814001C07E
:102A5000804101C0804100C1814000C1814001C06E
:102A6000804100C1814001C0804101C0804100C15E
:102A7000814001C0804100C1814000C1814001C04E
:102A8000804100C1814001C0804101C0804100C13E
:102A9000814000C1814001C0804101C0804100C12E
:102AA000814001C0804100C1814000C1814001C01E
:102AB000804101C0804100C1814000C1814001C00E
:102AC000804100C1814001C0804101C0804100C1FE
:102AD000814000C1814001C0804101C0804100C1EE
:102AE000814001C0804100C1814000C1814001C0DE
:102AF000804100C1814001C0804101C0804100C1CE
:102B0000814001C0804100C1814000C1814001C0BD
:102B1000804101C0804100C1814000C1814001C0AD
:102B2000804100C1814001C0804101C0804100C19D
:102B3000814000C0C101C30302C2C60607C705C564
:102B4000C404CC0C0DCD0FCFCE0E0ACACB0BC909D5
:102B500008C8D81819D91BDBDA1A1EDEDF1FDD1DE5
:102B60001CDC14D4D515D71716D6D21213D311D115
:102B7000D010F03031F133F3F23236F6F737F53565
:102B800034F43CFCFD3DFF3F3EFEFA3A3BFB39F995
:102B9000F83828E8E929EB2B2AEAEE2E2FEF2DED65
:102BA000EC2CE42425E527E7E62622E2E323E121D5
:102BB00020E0A06061A163A3A26266A6A767A565E5
:102BC00064A46CACAD6DAF6F6EAEAA6A6BAB69A955
:102BD000A86878B8B979BB7B7ABABE7E7FBF7DBD65
:102BE000BC7CB47475B577B7B67672B2B373B17195
:102BF00070B0509091519353529296565797559565
:102C000094549C5C5D9D5F9F9E5E5A9A9B5B995914
:102C10005898884849894B8B8A4A4E8E8F4F8D4DE4
:102C20004C8C448485458747468682424383418154
:102C300080400000542C000800000020E400000048
:102C4000C4010008382D0008E4000020CC08000072
:102C5000E00100080100000010000000000000007A
:102C60000024F4000000000000000000000000004C
:102C70000000000002000000000000000000000052
:102C80000000000000000000000000000000000044
:102C90000000000000000000000000000000000034
:102CA00011000000E51F000804000000E51E0008F8
:102CB00003000000811E000810000000F52000083D
:102CC000060000005F20000817000000471F0008F2
:102CD000010000009D1D00080500000009200008FB
:102CE0000F00000091200008020000000F1E0008E5
:102CF00000000000000000000000000000000000D4
:102D000000000000000000000000000000000000C3
:102D100000000000000000000000000000000000B3
:102D2000010101000100000000000000000000009F
:082D300000000000000000009B
:040000050800018965
:00000001FF
