:020000040800F2
:10000000880D002035020008772E00089F2C00087C
:10001000752E00087F1B0008B93F00080000000093
:10002000000000000000000000000000D33B0008BA
:10003000C91B00080000000091390008F13B0008CE
:100040004F0200084F0200084F0200084F0200084C
:100050004F0200084F0200084F0200084F0200083C
:100060004F0200084F0200084F0200084F0200082C
:100070004F0200084F0200084F0200084F0200081C
:100080004F0200084F0200084F0200084F0200080C
:100090004F0200084F0200084F0200084F020008FC
:1000A0004F0200084F0200084F0200084F020008EC
:1000B000AD3C00084F0200084F0200084F02000844
:1000C0004F0200084F0200084F0200084F020008CC
:1000D0004F020008AD3F00084F0200084F02000821
:1000E0004F0200084F0200084F02000800F002F81B
:1000F00000F090F80AA090E8000C82448344AAF132
:100100000107DA4501D100F085F8AFF2090EBAE82F
:100110000F0013F0010F18BFFB1A43F0010318473B
:100120003C5900005C590000103A24BF78C878C1DF
:10013000FAD8520724BF30C830C144BF04680C60ED
:10014000704700000023002400250026103A28BF35
:1001500078C1FBD8520728BF30C148BF0B60704739
:100160006E2900F0CE82702900F02384662904F005
:100170003787652904F03487672904F031876129BE
:1001800004F0308703681B0A28BF41F08001692909
:1001900000F09080642900F08D80752900F08A803D
:1001A0006F2900F0B083782900F0EF83E92900F08F
:1001B0004B83E42900F04883F52900F04583EF29BB
:1001C00000F0AD83F82900F0EE830368DB0928BF57
:1001D00041F08001632900F0D387732900F0D887AC
:1001E000E32900F0E387F32900F0E8870020704757
:1001F0001FB501F03DF804000020002104F026FBAB
:10020000401C60600020002104F00AFBE0601FBD7C
:1002100010B510BD00F0FEFF1146FFF7E9FF04F036
:100220004BFA01F0DBF803B4FFF7F2FF03BC03F075
:10023000EFFE00000948804709480047FEE7FEE757
:10024000FEE7FEE7FEE7FEE7FEE7FEE7FEE7FEE786
:1002500004480549054A064B70470000533C000816
:10026000ED00000888070020880D00208809002084
:1002700088090020704700001CB50C46064B7B44E3
:1002800069460090204600F056FA04460020694670
:1002900000F064FA20461CBDDB0400000FB40449E2
:1002A00010B503AA029800F05FFA10BC5DF814FBC9
:1002B000D80000202DE9F041064600241068752979
:1002C000314616A510D000F088F9002802DA404225
:1002D00013A507E031688A0701D512A502E0490796
:1002E00004D511A5012401E000F080F900210A22C3
:1002F00006F1240709E0B0FBF2FCB0FBF2F302FBCD
:100300001C00303078541846491C0028F3D123468D
:100310002A463046BDE8F04100F09AB900000000DE
:100320002D0000002B000000200000002DE9F05FF0
:10033000894604464FF0000ADFF874B1FB44C0F868
:1003400020A02046E1688847002874D0252806D0E0
:10035000D4E901219047206A401C2062F1E7002681
:100360005F462046E16888472028054607DB312D97
:1003700005D2781910F8200C08B10643F1E7B00750
:1003800001D526F00406C4F81CA00027C4F818A064
:100390002A2D09D0284603F034FE38B304EB870831
:1003A000303DC8F8185019E059F8041B204604EBFA
:1003B00087029161E1688847012F054618D1E069FD
:1003C000002820DA26F020061DE0D8F8180000EBFF
:1003D000800005EB40003038C8F818002046E1687E
:1003E0008847054603F00DFE0028EED1012F0AD004
:1003F0002E2D08D12046E16888477F1C0546022F34
:1004000046F02006C4DBA069002803DA404246F02B
:100410000106A061F00701D026F010066C2D0BD06C
:10042000682D09D04C2D39D06A2D35D0742D35D09A
:100430007A2D33D016E038E0E1682F462046884711
:10044000B842054609D16C2F26D04FF48060E16890
:10045000064320468847054604E06C2F1AD04FF427
:10046000807006430DB3A5F14100192802D820354C
:1004700046F400664A462946204626604E46FFF767
:100480006FFE80B101280BD0F61D26F0070000F1A9
:10049000080956E74020E4E78020D8E70020D6E7A7
:1004A00006F104094DE7284652E7206ABDE8F09FAF
:1004B0001F5600004FF0000200B5134694469646C2
:1004C000203922BFA0E80C50A0E80C50B1F1200167
:1004D000BFF4F7AF090728BFA0E80C5048BF0CC015
:1004E0005DF804EB890028BF40F8042B08BF704773
:1004F00048BF20F8022B11F0804F18BF00F8012BE5
:10050000704700004FF0013C50F8042B51F8043BB9
:100510009A4221D1A2EB0C03934313EACC1317D1D7
:1005200050F8042B51F8043B9A4215D1A2EB0C036E
:10053000934313EACC130BD150F8042B51F8043B2E
:100540009A4209D1A2EB0C03934313EACC13DBD0FC
:100550004FF00000704700BFD01A01BAB1FA81F124
:1005600001F0180122FA01F0CB40C1F12001DBB209
:10057000C0B2C01A2CFA01F3D11A914311EAC31187
:10058000E6D17047704770477047704770B50446B2
:1005900085690068C10601D5302600E02026C00725
:1005A00007D070BDD4E9012130469047206A401C35
:1005B00020626D1EF6D570BD70B504468569007861
:1005C000C00707D170BDD4E9012120209047206ADF
:1005D000401C20626D1EF6D570BD09684A0501D524
:1005E00040B27047C905FCD500B2704709684A059A
:1005F00001D5C0B27047C905FCD580B2704770B54F
:100600000C460546012A05D02878800600D5EA69FF
:10061000002302E0012305E05B1C934202D2E05C70
:100620000028F9D1A869E618C01AA861286A1844F8
:1006300028622846FFF7AAFF04E0D5E9012114F853
:10064000010B9047B442F8D32846FFF7B5FF70BDC1
:100650002DE9F0470D4699469246044600F12408DC
:100660000168880604D5E06921F01001216000E0EE
:100670000120A84201DD471B00E00027A1697A198B
:1006800002EB0900081AA0612078C00602D42046B7
:10069000FFF77CFF002608E0D4E901211AF80600E4
:1006A0009047206A401C761C20624E45F4DB20787F
:1006B000C0060AD52046FFF769FF06E0D4E901210C
:1006C00030209047206A401C2062381EA7F10107A5
:1006D000F4DC07E0D4E9012118F805009047206A0E
:1006E000401C2062281EA5F10105F3DC2046FFF71F
:1006F00063FF2078000602D50220BDE8F0870120C4
:10070000FBE711680268006A530501D508700AE02A
:10071000D30501D5088006E0130603D5C217C1E949
:10072000000200E0086001207047000001694A1CD7
:1007300002610878704700B58FB0CDE90131002122
:10074000059105497944CDE9031011466846FFF744
:10075000EDFD0FB000BD0000E5FFFFFF0A6802F8E5
:10076000010B0A6070470000074B70B50D467B44D3
:10077000FFF7E1FF0446284600F024FD10B14FF0DA
:10078000FF3070BD204670BD2F3F00002DE9FF5F98
:1007900015468A460446DFF8AC80F8440027D8E9BD
:1007A00000103E46CDE9001010E03AF816106A46F7
:1007B00002A800F00BFD411C07D02178890603D563
:1007C000E269391891420DD80744761C20788006DA
:1007D00002D5E069B84205DDAE42E6DB3AF8160024
:1007E0000028E2D1A069C01BA0612046FFF7CEFE21
:1007F000D8E90010CDE90010002017E03AF81810F1
:100800006A4602A800F0E2FCB0F1FF3F81460BD03F
:1008100000250DF1080B05E0D4E901211BF80500C6
:1008200090476D1C4D45F7D308F10100B04280465A
:10083000E4DB206A384420622046FFF7BDFEBDE8B5
:10084000FF9F0000D25100002DE9F0418046D21DEB
:1008500022F007020025D2E90002F52915A614D0DE
:10086000011E72F1000106DA0023D0EB030063EBF6
:10087000020211A608E0D8F800108B0701D50FA6D8
:1008800002E0490701D50EA601251146002408F112
:10089000240704E000F098F830323A55641C50EA1E
:1008A0000102F7D12B46324621464046BDE8F041D1
:1008B000FFF7CEBE000000002D0000002B0000005E
:1008C0002000000030B4002100F1240408E002F010
:1008D0000705D208303542EA4372DB086554491CEB
:1008E00052EA0305F3D10468002310A2250707D5B7
:1008F000A40600D421B1C46901230DA2641EC46101
:1009000030BCFFF7A5BE10B5044621461068FFF7BE
:100910006DFE02462046BDE810400023D2E7D21DFE
:1009200022F00701D1E90023CCE70000000000001D
:1009300030000000F0B40D460188090502D5214CB5
:100940007C4402E01F4C7C440E34002100F124065C
:1009500008E002F00F071209E75D42EA03721B0983
:100960007754491C52EA0307F3D102780023120797
:1009700004D5702D06D009B1022311342246F0BCF3
:10098000FFF766BE01231034F8E770B504460D4644
:1009900021461068FFF72AFE024629462046BDE898
:1009A00070400023C6E7D21D22F00703D3E90023DD
:1009B000C0E70368126843F0200303600823C361A3
:1009C0000023B7E73450000030B5B0F10A024FEA17
:1009D000900E71F100034EEA817EB0EB0E0061EBE8
:1009E00091014FEA101E4EEA017E10EB0E0041EB22
:1009F00011114FEA102E4EEA016E10EB0E0041EB82
:100A000011214FEA104E4EEA014E10EB0E0041EB61
:100A10001141401841F100014FEAD00040EA417015
:100A20004FEAD10110EB80054FEA810444EA90744B
:100A300044EB01046D1944EB0404521BA3414FF035
:100A4000000348BF0A3200D530BD401C41F100010F
:100A500030BD70472DE9FF4F0C461E464FF0FF3763
:100A60008BB0D2E90001DDF860800A908A46C1F3BC
:100A70000A5505B93D46002108464FF00000BAF17D
:100A8000000F00F4400005DA00EB80004FF4400155
:100A900001EA50004FEA9059B9F1010F00DDB94663
:100AA0000A9850EA4A000ED044F61050A5F2FF35DD
:100AB00045432F14B8F1000F1ED07542291E1EDDCC
:100AC000C9F100021CE0B8F1010F4FF0000001D0A5
:100AD000302103E0F24305E02154401CB042FBDB2F
:100AE00030460022002121540B99C1F80880C1E949
:100AF00000200FB0BDE8F08FBD1B6D1CDEE74A463D
:100B000000DA694206A800F0F7FB06AB93E807009D
:100B100003AB83E8070050460A9900F068FC8DE8B3
:100B20000700A0F500501F3800900398002D0ADD43
:100B300042F21F014A460844002303A90390684675
:100B400000F0D1FE09E0A0F500504A461F3800230E
:100B500003A90390684600F0DBFE8DE8070000045F
:100B6000000C03D04FF0FF30410800E01046B8F110
:100B7000000F03D00022009215461EE0751E05D41A
:100B8000FFF722FF303262556D1EF9D5B3460122C0
:100B9000084302D000227F1C04E02078302801D1D5
:100BA00000227F1E002A099784D01DE0112D07DA4C
:100BB000FFF70AFF303262556D1C50EA0102F5D191
:100BC000084302D00098C8B10EE00021681E05E07D
:100BD000235C625C63542254401E491C8142F7DB53
:100BE000AB46A81B401E0990002004F80B000B9890
:100BF000099AC0F80880C0E9002B7AE711264FF067
:100C0000000857E72DE9F04F88460446D21D22F030
:100C1000070191B0D1E90001CDE90A0103F0CDF956
:100C200002460B98C00F01D02D2007E020688107F5
:100C300001D52B2002E0202101EAC000032A0990FF
:100C400001D0072A05DB03464146204600F014FB8D
:100C50000BE12078800601D5E06900E00620B8F1BC
:100C6000650F814606D0B8F1660F18D0B8F1670F4E
:100C700070D131E00020B9F1110F009001DB112398
:100C800001E009F101030AAA01A90CA8FFF7E2FE9D
:100C9000DDE90C70002609F10105834647E00120DB
:100CA0004B4600904FF000470AAA01A90CA8FFF795
:100CB000D1FEDDE90DB00C995D46002610B909F1B1
:100CC00001000D18B9EB050003D4C0F1FF3609F19E
:100CD0000105A5EB09002BE0B9F1010F01DA4FF096
:100CE00001090020B9F1110F0090484601DD1123E0
:100CF00000E003460AAA01A90CA8FFF7ABFEDDE954
:100D00000C704D4600268346207800070AD4AB4578
:100D100000DA5D4601A8012D04DD411911F8011C1E
:100D2000302907D04F4502DA17F1040F04DA012009
:100D300082460FE06D1EEEE7002F02DCED1B3E4405
:100D400003E0781CA84200DD7D1CB81B00F1010AFD
:100D50004FF000472078000703D4AA4501DB4FF08D
:100D6000FF3A0021B7F1004F0DF143088DF8431011
:100D700024D002202B23002F01DA7F422D230A21C9
:100D8000021EA0F1010000DC5FB197FBF1FC97FBB4
:100D9000F1F201FB1C7C17460CF1300C08F801CD78
:100DA000EEE7A8F1010003702188090501D545216E
:100DB00000E06521A0F1010800F8011C09980FA9C5
:100DC000A1EB0807FF1D00B10120411901EBEA70FA
:100DD000A1693844081A401EA0612078C00602D4D8
:100DE0002046FFF7D3FB099828B1D4E901219047A9
:100DF000206A401C20622078C00622D52046FFF7DA
:100E0000C5FB1EE0002E04DBB34502DD01A8805DBA
:100E100000E03020D4E901219047206A401C206284
:100E2000761CAAF101005FEA000A0AD100F020FA5C
:100E3000C0680168405CD4E901219047206A401CE9
:100E40002062281EA5F10105DCDC07E0D4E90121C0
:100E500018F8010B9047206A401C2062381EA7F149
:100E60000107F3DC2046FFF7A7FB032011B041E6A2
:100E70002DE9F04F04460D46D21D22F0070089B03F
:100E8000D0E900974846394603F097F80246F80F34
:100E900001D02D2307E02068810701D52B2302E034
:100EA000202101EAC0038DF820300BB1012000E0C1
:100EB0000020032A824601D0072A04DB2946204667
:100EC00000F0DAF93FE12078800601D40D2500E03A
:100ED000E569C7F30A560D2D49DA00214FEA175B81
:100EE00008464FF00000002F00F4400007DA00EB46
:100EF00080004FF4400100EBD07001EA60008115E2
:100F0000012901DD4FF0FF3100224FEA850CBCF1D1
:100F1000180F06D31346ACF118004FF08052C240B0
:100F200003E04FF4801323FA0CF30CF10C0CBCF12A
:100F3000200F04D3ACF1200C09FA0CF001E007FA01
:100F40000CF000294FF0004801DD18B90FE00ED178
:100F500040450CD319EB02095F4121B9404502D14C
:100F60009F4329EA0209BBEB175F00D0761C20885B
:100F7000000502D57B48784402E07A487844193865
:100F800008AA302302F80A30037C0AF10101002E7E
:100F90000AF1020A53546A4602DC4FF0300101E0C4
:100FA0004FF031014FF001088DF8001002D0A6F289
:100FB000FF3603E059EA470100D06B4E002D02DCFA
:100FC0002178090704D54FF002082E218DF8011071
:100FD000C44600210BE0C7F303433F01C35C491C37
:100FE0006D1E02F80830052908F1010801DA002D0C
:100FF000F1DC00210CE000EB1973491C1B786D1E1D
:10100000082902F808304FEA091908F1010801DA45
:10101000002DF0DC21688B0602D516E0A8F101084E
:10102000E04505DD02EB080313F8013C302BF5D059
:10103000B8F1000F09DD02EB080313F8013C2E2B79
:1010400003D1090701D4A8F10108002D05DD3E21D7
:1010500002F808106D1E08F10108407C002E02F80D
:10106000080008F1010804DA2D20764202F8080091
:1010700002E02B2002F808000A214FF47A70864221
:1010800008F101080BDB96FBF0F3303302F808306F
:1010900096FBF0F308F1010800FB136601E0642EF3
:1010A0000CDB642096FBF0F3303302F8083096FB3B
:1010B000F0F308F1010800FB136601E00A2E06DBDD
:1010C00096FBF1F0303002F8080008F1010896FBB9
:1010D000F1F001FB1060303002F80800A16908F15E
:1010E000010808EB050202EB0A00081AA06120784B
:1010F000C00602D42046FFF749FA216A08AE01EB88
:101100000A00206204E0D4E9012116F8010B90479F
:10111000BAF1010AF7D22078C00602D52046FFF7BF
:1011200035FA6E4609E016F8010B3E280FD0D4E9D7
:1011300001219047206A401C2062B8F10108F2D2D8
:101140002046FFF739FA09B00320BDE8F08F206A86
:101150002844206203E0D4E90121302090476D1E2D
:10116000EBD3F8E7394A000002FCFFFF10B54369F2
:1011700013B1AFF3008001E0FFF741FA012010BD89
:10118000127800F124010A7000224A700122EDE772
:1011900011684FF0FF32E9E710B5436913B1AFF3BF
:1011A000008001E0FFF7F2FA012010BD128800F183
:1011B000240182840022C2840122EDE711684FF0ED
:1011C000FF32E9E7007B00F08000704770B51646FB
:1011D0000C46054600F044F8036893F80101012825
:1011E00006D0FF2C0FD8185D68B101202C7070BD9F
:1011F000D3F807013246214603F207130344284679
:10120000BDE8704018474FF0FF3070BD0048704790
:10121000240700207546FFF7F9FFAE460500694632
:10122000534620F00700854618B020B5FFF710F8A8
:10123000BDE820404FF000064FF000074FF00008D7
:101240004FF0000B21F00701AC46ACE8C009ACE858
:10125000C009ACE8C009ACE8C0098D467047000081
:1012600010B500F005F8001D10BD00BFE13500000D
:1012700000487047440700202DE9F0411F4604460E
:1012800003260168072A01F4006004DB08B116A5F3
:1012900005E016A503E008B115A500E015A521F0AD
:1012A00010002060A069C01EA0610FB1401EA061A7
:1012B0002046FFF76BF94FB1D4E90121384690473A
:1012C000206A401C2062C01C206206E0206AFAE707
:1012D000D4E9012115F8010B9047761EF8D220467B
:1012E000FFF76AF9BDE8F0814E414E006E616E0075
:1012F000494E4600696E66002DE9F0478146164664
:101300008AB0354878440DC88DE80D0032487844DD
:10131000801C03AC0DC884E80D0041F69B300844E6
:10132000372190FBF1F290FBF1F5A5F1800501FB6F
:1013300012041B3C02D56442012000E00020DFF8CB
:1013400098A080460027FA44AAF1BE0A0EE0E00702
:101350000AD03246684607EB470101230AEB8101B8
:1013600000F0D6FA8DE8070064107F1C002CEED147
:10137000194F7F44AE3F19E0E80715D007EB041082
:101380000DF1180A90E80E008AE80E00C068F042DD
:1013900001D1981908903246012306A903A800F04C
:1013A000B7FA03AB83E807006D10641C002DE3D18E
:1013B0004FF0010332466946B8F1000F03A802D08E
:1013C00000F091FA01E000F0A3FAC9E90001C9F8C0
:1013D00008200AB0BDE8F0873C47000010B504467D
:1013E000AFF300802046BDE81040FEF71CBF5FEA67
:1013F000400C08BF91F0000F4FEA8C234FEAC12246
:1014000043EA51514FEA1C5018BF00F5F0404FEA33
:10141000300018BF41F000415FEA6C5C00F02980A9
:10142000BCF1FF3F08BF40F080407047130C06BF7F
:1014300012044FF0100C4FF0000C130E04BF1202F8
:101440000CF1080C130F04BF12010CF1040C930FE4
:1014500004BF92000CF1020CD30F04BF52000CF138
:10146000010C11464FF00002A0F11F00A0EB0C0090
:10147000704711F0004F08BF704731F000413FF452
:10148000D5AF0B0C06BF09044FF0100C4FF0000C49
:101490000B0E04BF09020CF1080C0B0F04BF09016D
:1014A0000CF1040C8B0F04BF89000CF1020CCB0F64
:1014B00004BF49000CF1010CCCF12003A0EB0C009F
:1014C00022FA03F302FA0CF241EA030100F10100EF
:1014D000704720F07F4C80EA030023F07F47ACEB9D
:1014E000070303F57C5300F0004003F1FF032DE9EF
:1014F00080494FEA154B09B44FEA144325EA0B4ED5
:1015000024EA03480FF2042606EB132749083E7825
:101510005FEA320203FB0667C7F5000707FB06F622
:101520004FEA54374FEAD64606F1020607FB066C2F
:10153000CCF1005C4FEA1C472CEA074C07FB06F491
:101540000CFB06F504EB15464FEA961634BF002057
:101550004FF000404FEAD13706FB07FC4FEA1C4C26
:101560000CFB0BF7D21B03FB0CF761EB07010CFB29
:101570000EF7B0EB074072EB17420CFB08F734BFD5
:10158000A2EB0742B2EB074261EB17414FEA0C4472
:101590004FEA910706FB07FC4FEA1C4C0CFB0BF7CC
:1015A000B0EBC74072EB573203FB0CF734BFA2EB32
:1015B000C742B2EBC74261EB57310CFB0EF7B0EB01
:1015C000C70072EB57720CFB08F734BFA2EBC702DF
:1015D000B2EBC70261EB5771039F4FEA816141EAA9
:1015E000921104EBCC044FEAD1374FEA826206FB3A
:1015F00007FC42EA90124FEA80604FEA1C4C0CFB59
:101600000BF7D21B03FB0CF761EB07010CFB0EF78A
:10161000B0EB074072EB17420CFB08F734BFA2EBAC
:101620000742B2EB074261EB17414FEA8C554FEA94
:10163000910704EB9C2406FB07FC4FEA1C4C0CFBB7
:101640000BF7B0EBC74072EB573203FB0CF734BF1C
:10165000A2EBC742B2EBC74261EB57310CFB0EF76E
:10166000B0EBC70072EB57720CFB08F734BFA2EB6C
:10167000C702B2EBC70261EB577115EB4C254FEA7D
:10168000816141EA92114FEA82624FEAD13742EA20
:10169000901206FB07FC44F100044FEA80604FEA19
:1016A0001C4C0CFB0BF7D21B03FB0CF761EB070187
:1016B0000CFB0EF7B0EB074072EB17420CFB08F780
:1016C00034BFA2EB0742B2EB074261EB174115EBC7
:1016D0001C154FEA813141EA92414FEA823242EAD7
:1016E00090424FEA80304FEA0C7644F1000448EA19
:1016F00003434EEA0B484FF0000EB2EB080C71EBBF
:10170000030724BF624639464EEB0E0E4FF0000B26
:101710000018524149414BEB0B0BB2EB080C71EB3B
:1017200003077BF1000B24BF624639464EEB0E0ED9
:101730004FF0000B0018524149414BEB0B0BB2EB41
:10174000080C71EB03077BF1000B24BF624639469E
:101750004EEB0E0E51EA020718BF46F0010616EBDB
:101760000E7655F1000254F1000103D5BDE8890160
:10177000BDE80088BDE88901BDE80048B6195241BE
:1017800041EB0101A3F10103704780807F7E7D7CE6
:101790007B7A7978777676757473727171706F6E03
:1017A0006E6D6C6C6B6A6A696868676666656464AE
:1017B000636362616160605F5F5E5E5D5D5C5C5B38
:1017C0005B5A5A59595858575756565555555454A7
:1017D000535352525251515050504F4F4F4E4E4D05
:1017E0004D4D4C4C4C4B4B4B4A4A4A494949484851
:1017F0004847474747464646454545444444444391
:1018000043434342424242414141002B9C4630D433
:1018100077002BD01CB54FEA370703B44FF0100008
:101820004FF01001BAF1000F06D0BCF1000FDCBF81
:1018300040F0080040F008014FF000000FBCBDE888
:1018400010400BF1010BBBF1010F08BF5FEA170756
:1018500022BF12F1010211F101014FF0004143F1E9
:10186000000300F0004043EA00007047F9D3570836
:10187000D0E746EA064613F1400F4FEA16461FDD51
:1018800013F1200FDFBF16430A46002120335B42CD
:10189000BED0C3F1200746EA064602FA07F74FEA30
:1018A000164646EA0706C3F1200722FA03F201FAB8
:1018B00007F721FA03F14FF0000342EA0702A7E716
:1018C00046EA020646EA06464FEA164646EA010698
:1018D000BCBF46EA0646360C4FF000034FF000024C
:1018E0004FF0000194E72DE9804C9A46934670B47E
:1018F00091E8380007C831EA400C48BF34EA430C8D
:1019000003D5FFF7E6FDFFF780FFF0BCBDE8008CD4
:101910002DE9804C9A46934670B491E8380007C888
:1019200010F0804F08BF13F0804F03D100F005F88E
:10193000FFF76BFFF0BCBDE8008C20F07F4780EA2A
:10194000030023F07F4C07EB0C03A3F57C5300F05E
:101950000040A3F1FE0392F0000F00F0B38095F079
:10196000000F00F077802DE901494FEA11404FEA5E
:10197000144621EA004800FB06FC24EA064708FB5F
:1019800006F607FB08F800FB07F718EB06484CEBD8
:10199000164C4FEA124B18EB07484FEA15464CEB32
:1019A000174022EA0B4E0BFB06FC25EA06470EFB0E
:1019B00006F607FB0EFE0BFB07F71EEB064E4CEB85
:1019C000164C4FF000061EEB074E4CEB174B18EB76
:1019D0000B0840F1000018EB0E0B58EB000840F12B
:1019E00000008F1A4FF000013CBFC943661B14BFB3
:1019F000B5EB040C00213CBFC943F61B4FEA17446A
:101A00004EEA8E0E27EA04454FEA1C4704FB0762A4
:101A10002CEA074C05FB07F70CFB05F604FB0CFC56
:101A200016EB074642EB174216EB0C4642EB1C4204
:101A30001BEB060658EB0202414146EA9E0601D521
:101A4000BDE80189B619524141EB0101A3F101033F
:101A5000BDE801894FEA14454FEA114724EA0546DB
:101A600021EA074C05FB07F406FB07F70CFB06F120
:101A700005FB0CFC11EB074144EB17444FEA1247FE
:101A800011EB0C4144EB1C4422EA074C05FB07F226
:101A900006FB07F70CFB06F605FB0CFC16EB0746EE
:101AA00042EB174216EB0C4642EB1C456A1854F108
:101AB000000148BF7047B619524141EB0101A3F143
:101AC0000103704795F0000F37D04FEA11424FEAFB
:101AD000144721EA024624EA074C02FB07F106FB01
:101AE00007F70CFB06F402FB0CFC14EB074441EB7C
:101AF00017414FEA154714EB0C4441EB1C4125EA12
:101B0000074C02FB07F506FB07F70CFB06F602FB8A
:101B10000CFC16EB074645EB174516EB0C4645EB60
:101B20001C42121951F1000148BF7047B6195241C9
:101B300041EB0101A3F1010370474FEA14454FEA5D
:101B4000114724EA054621EA074C05FB07F106FB8D
:101B500007F70CFB06F24FF0000605FB0CFC12EB3E
:101B6000074241EB174112EB0C4251EB1C4148BFBD
:101B70007047921841EB0101A3F101037047FEE7A2
:101B8000044B012804D001220121184600F0C1B9FC
:101B90000022F9E700080140044B012804D001228B
:101BA0000221184600F0B5B90022F9E7000801400B
:101BB000044B012804D001220421184600F0A9B9E1
:101BC0000022F9E700080140704772B6FEE7000006
:101BD00010B501F065F80321114802F08FFA1149A0
:101BE000002002F0E9FA1049012002F0E5FA0F495D
:101BF000022002F0E1FA4FF4FA7240F2DC510020C8
:101C000002F046FAC821012002F024FA0223BDE8BE
:101C100010404FF47A72C821184602F0FBB9000058
:101C200020000020CD360008853700086D380008F8
:101C300010B501F073F8BDE810400321014802F02F
:101C400005BC0000A400002010B590F8211000226F
:101C5000022905D00421816380F82020012010BDD5
:101C600001680B6823F00E030B6001680B6823F01A
:101C700001030B6090F84030C46B012101FA03F3BB
:101C8000636080F8211080F82020104610BD00000D
:101C900010B590F821100024022903D0042181639B
:101CA00001243DE001680A6822F00E020A60016822
:101CB0000A6822F001020A601A4A0168914201D1C1
:101CC000012121E0174A1432914201D110211BE079
:101CD000144A2832914201D1891515E0114A3C324B
:101CE000914201D189140FE00E4A5032914202D143
:101CF0004FF4803108E00B4A6432914202D14FF434
:101D0000801101E04FF08071064A083A51600121CC
:101D100080F82110002180F82010416B01B1884724
:101D2000204610BD080002402DE9F84FDFF8B891B9
:101D30000024A9F1040B23460F2709F1040AABF193
:101D4000040EC9E00125A5402A40AA427DD1674E74
:101D5000D1F804C0ACEB0608B44532D014DCBCF1B9
:101D6000030F3AD009DCBCF1000F2AD0BCF1010FFF
:101D70001CD0BCF1020F31D11DE0BCF1110F17D006
:101D8000BCF1120F2AD119E0B8F5881F19D006DC72
:101D9000B8F5803F15D0B8F5801F1FD111E0B8F518
:101DA000001F0ED0B8F5041F18D10AE0CB6815E06B
:101DB000CB681B1D12E0CB6808330FE0CB680C33F7
:101DC0000CE08B682BB1012B4FF0080303D0456169
:101DD00004E0042302E0056100E00023FF2A01D8AB
:101DE000064601E000F104064FEA840501D9A5F199
:101DF0002005D6F8008007FA05FC28EA0C0803FA4B
:101E000005F548EA0508C6F800804D68ED0062D582
:101E1000374DAE6946F00106AE61AD6924F00306A8
:101E200005F001050095334D06EB050CDCF8085074
:101E3000A607360F07FA06F825EA0805DFF8B88086
:101E4000404503D14FF0000817E044E0DFF8AC80D4
:101E5000404502D14FF001080FE0DFF8A480404573
:101E600002D14FF0020808E0DFF89880404502D127
:101E70004FF0030801E04FF0040808FA06F848EABA
:101E80000508CCF808804D68D9F80060ED024D4691
:101E900001D5164300E096432E604D68DAF80060E5
:101EA000AD02554601D5164300E096432E604D68BD
:101EB000DBF80060AD035D4601D5164300E09643B4
:101EC0002E604D68DEF80060ED03754601D51643BF
:101ED00000E096432E60641C0D682A46E5407FF4BE
:101EE00031AFBDE8F88F0000080401400000111078
:101EF000001002400000014000080140000C0140B9
:101F000000100140001401408068084000D001200A
:101F100070470AB1016170470904FBE70148806816
:101F200070470000000000200248816802781144D8
:101F30008160704700000020074810B5016841F03B
:101F400010010160032000F075F80F2000F006F882
:101F500000F024F8002010BD0020024070B50D4DA7
:101F600004464FF47A712878B1FBF0F00A49096809
:101F7000B1FBF0F000F0DCFA48B9102C07D20022D7
:101F80002146501E00F036F800206C6070BD012024
:101F900070BD0000000000200C0000200C4808B5B7
:101FA000816941F001018161816901F001010091C4
:101FB000C16941F08051C161C06900F0805000905A
:101FC0000448416821F0E06141F00071416008BDC2
:101FD0000010024000000140002809DB00F01F0251
:101FE000012191404009800000F1E020C0F800117B
:101FF00070470000F0B40E4B1B680C46C3F302237D
:10200000C3F10705042D00D90425191D072901D2A4
:10201000002300E0DB1E012606FA05F1491E2140DF
:1020200099409E40761E16403143F0BC01F0D9BF66
:102030000CED00E0064900F0070208684FF6FF03C8
:10204000184040EA0220034A10430860704700002D
:102050000CED00E00000FA052DE9F0470F46050001
:1020600061D0434E306800F00700B84209D23068B2
:1020700020F0070038433060306800F00700B842B5
:1020800051D128683B4C810712D5400703D56068C1
:1020900040F4E06060602878000703D5606840F491
:1020A000605060606068A96820F0F00008436060DC
:1020B0002878C00728D06868012810D02168022835
:1020C00010D0890700292EDA616821F0030101434D
:1020D0006160FFF723FF804641F288390DE02168F7
:1020E0008903EFE78901EDE7FFF718FFA0EB08018F
:1020F000494502D90320BDE8F0876068696800F0AF
:102100000C00B0EB810FEFD1306800F00700B8424F
:102110000BD9306820F0070038433060306800F099
:102120000700B84201D00120E5E72878400705D52F
:102130006068E96820F4E060084360602878000780
:1021400006D56068296920F4605040EAC1006060EB
:1021500000F038F86168084AC1F30311515CC840C7
:102160000649086006480068FFF7F8FE0020C2E74D
:102170000020024000100240FA4F00080C0000202E
:10218000040000200448054900684968044AC1F376
:102190000221515CC84070470C0000200010024032
:1021A0000A5000080448054900684968044AC1F318
:1021B000C221515CC84070470C0000200010024052
:1021C0000A5000080E4A51680E4801F00C03042B17
:1021D00011D0082B0FD10C48C1F38343C903C05C55
:1021E0000AD55168084AC1F34041921E515C054A24
:1021F0005043B0FBF1F0704704494843704700007A
:102200000010024000127A00EA4F000800093D0069
:102210002DE9F84F040070D02078C04DC00749D098
:102220006868C0F38100012807D06868C0F38100A6
:10223000022809D16868C00306D52868800339D50B
:1022400060680028E7D035E06068B0F5803F0BD0CB
:1022500010B1B0F5A02F11D0286820F4803028608C
:10226000286820F4802002E0286840F4803028604C
:10227000606890B1FFF752FE06460AE0286840F415
:1022800080202860F0E700BFFFF748FE801B64282D
:1022900073D828688003F7D50CE0FFF73FFE0646A9
:1022A00005E000BFFFF73AFE801B6428F0D82868DD
:1022B0008003F7D420789A4E80074FF001094FF041
:1022C000000839D5686810F00C0F07D06868C0F3B3
:1022D0008100022809D16868C00306D428688007F5
:1022E00014D52069012808D110E02069B0B1C6F8E2
:1022F0000090FFF713FE074605E00AE1FFF70EFE28
:10230000C01B0228C4D828688007F7D528686169EF
:1023100020F0F80040EAC10028600DE0C6F8008017
:10232000FFF7FCFD074604E0FFF7F8FDC01B02289D
:1023300023D828688007F7D4207800072CD579485F
:10234000A169D9B1C0F80090FFF7E8FD074604E0A5
:10235000FFF7E4FDC01B02280FD8686A8007F7D595
:1023600071484FF4FA510068B0FBF1F0009000BFE3
:102370000098411E0091FAD20EE080E0C0F8008083
:10238000FFF7CCFD074604E0FFF7C8FDC01B02289D
:1023900075D8686A8007F7D42078400760D5E86967
:1023A0000027C00008D4E86940F08050E861E8697F
:1023B000012700F0805000905C480168C90513D4E3
:1023C0000168834641F480710160FFF7A7FD8246F2
:1023D00006E000BFFFF7A2FDA0EB0A0064284ED87C
:1023E000DBF80000C005F5D5E06801280AD008B187
:1023F000052813D0286A20F001002862286A20F0FE
:10240000040002E0286A40F001002862E06841F21E
:10241000883B98B1FFF782FD82460BE0286A40F0C6
:1024200004002862EEE700BFFFF778FDA0EB0A0189
:1024300059455AD8286A8007F6D50CE0FFF76EFD9B
:10244000824605E0FFF76AFDA0EB0A0159454CD82A
:10245000286A8007F6D41FB1E86920F08050E8614F
:10246000E06988B36968C1F38101022944D0022878
:10247000C6F8608004D0FFF751FD044638E034E030
:10248000FFF74CFD074604E0FFF748FDC01B02289C
:102490002BD828688001F7D4206AB0F5803F05D199
:1024A0006868A16820F4003008436860D4E9080136
:1024B0000843696821F4741108436860C6F86090A5
:1024C000FFF72CFD044606E025E000BFFFF726FDE0
:1024D000001B022809D828688001F7D51BE000BF3F
:1024E000FFF71CFD001B022802D90320BDE8F88F6E
:1024F00028688001F4D40EE00128F7D06868226AC9
:1025000000F48031914204D1616A00F47010884275
:1025100001D00120EAE70020E8E7000000100240B7
:1025200000004242800442420C0000200070004043
:1025300010B5401EB0F1807F01D3012010BD4FF0D7
:10254000E02460610F21601701F04BFD0020A061C5
:1025500007202061002010BD7047704770B590F8CB
:102560003C20012A26D0012480F83C40022280F839
:102570003D2003685A689D6822F070060A6832435D
:102580005A600D4B02689A4208D0B2F1804F05D0D4
:102590000A4B9A4202D00A4B9A4204D1496825F06C
:1025A00080031943916080F83D40002180F83C1081
:1025B000084670BD022070BD002C014000040040A0
:1025C0000008004010B5040003D094F83D0010B19D
:1025D00007E0012010BD002084F83C00204600F0F8
:1025E0001FF8022084F83D00211D206801F064FBE3
:1025F000012084F8460084F83E0084F83F0084F807
:10260000400084F8410084F8420084F8430084F8D4
:10261000440084F8450084F83D00002010BD00000F
:1026200008B50068B0F1804F12D10A48C16941F085
:102630000101C161C069002200F001000090114653
:102640001C20FFF7D7FCBDE808401C20FFF7C4BCE6
:1026500008BD00000010024090F83D10012901D093
:1026600001207047022180F83D100168CA6842F0DD
:102670000102CA6000680B49884208D0B0F1804F5F
:1026800005D00949884202D00849884204D18168AE
:1026900001F00701062903D0016841F00101016042
:1026A00000207047002C014000040040000800405A
:1026B00070B5044690F83C000025012817D001268B
:1026C00084F83C60022084F83D002068826822F093
:1026D000770222F47F4282600868502838D00DDCEF
:1026E00020284FD005DC90B3102811D14AE00220F9
:1026F00070BD302846D040280AD13BE060282FD05A
:1027000070280DD0B0F5805F03D0B0F5005F12D017
:10271000012584F83D60002084F83C00284670BD07
:10272000CB68D1E90121206801F002FB20688168B3
:1027300041F0770109E0CB68D1E90121206801F07F
:10274000F7FA2068816841F480418160E1E719E08F
:10275000CA684968206801F0FDFA5021206806E047
:10276000CA684968206801F006FB6021206801F012
:10277000E9FACEE7CA684968206801F0EBFA40211F
:102780002068F4E7226801461046F0E770472DE91B
:10279000F04104460068C66805694FF00007A907C4
:1027A00013D5B10711D5F91E0161012020772068EA
:1027B00080698007204602D0FFF7E8FF04E000F0C0
:1027C0007EF8204600F07CF82777680716D570075A
:1027D00014D521686FF0040008610220207720687A
:1027E000806910F4407F204602D0FFF7CFFF04E05D
:1027F00000F065F8204600F063F82777280715D524
:10280000300713D521686FF0080008610420207795
:102810002068C0698007204602D0FFF7B7FF04E0B8
:1028200000F04DF8204600F04BF82777E80616D563
:10283000F00614D521686FF0100008610820207799
:102840002068C06910F4407F204602D0FFF79EFF49
:1028500004E000F034F8204600F032F82777E8076B
:1028600008D0F00706D021686FF00100086120460B
:1028700000F027F8280608D5300606D521686FF045
:10288000800008612046FFF767FE680608D57006DD
:1028900006D521686FF040000861204600F018F866
:1028A000A8060AD5B00608D521686FF02000086197
:1028B0002046BDE8F041FFF750BEBDE8F08170470B
:1028C00070470068B0F1804F01D101F083BE7047BE
:1028D0007047704770470000F8B501680446086803
:1028E000CA684B6910F00F0F4FF0000559D003F084
:1028F000010602F49077374365D0C10705D0D105B2
:1029000003D5616C41F001016164410705D5D90728
:1029100003D0616C41F002016164810705D5D907DC
:1029200003D0616C41F004016164010707D502F036
:102930002001314303D0616C41F008016164616C96
:1029400000293AD0800604D5900602D5204601F031
:1029500053FA20684069616CC0F38010090700D405
:1029600060B3204601F021FA20684069400621D575
:102970002068143050E8001F21F0400140E80012A8
:10298000002AF5D1E06BA8B16D494163E06BFFF718
:102990007FF9002811D0E06B416B01B0BDE8F04039
:1029A000084783060FD593060DD52046BDE8F840AD
:1029B00001F022BA2046FFF78DFFF8BD2046FFF751
:1029C00089FF6564F8BD266B2023012E7CD1C606E5
:1029D0007AD5D60678D508684868009048694FF0DF
:1029E0000206400640D5E16B086840680004000C10
:1029F000E8D0A28D8242E5D9E085886920282DD0D3
:102A000020680C3050E8001F21F4807140E800126B
:102A1000002AF5D12068143050E8001F21F0010190
:102A200040E80012002AF5D12068143050E8001F59
:102A300021F0400140E80012002AF5D184F842302C
:102A4000256320680C3050E8001F21F0100140E899
:102A50000012002AF5D1E06BFFF7F6F86663A08D4F
:102A6000E18D401A81B22AE0A08DE18D401A81B239
:102A7000E08D0028A6D00029A4D022680C3252E8AC
:102A8000000F20F4907042E80007002FF5D1206875
:102A9000143050E8002F22F0010240E80027002FF8
:102AA000F5D184F84230256320680C3050E8002FBF
:102AB00022F0100240E80023002BF5D16663204687
:102AC000FFF707FFF8BDFFE705062BD5150629D54B
:102AD00094F841002128F5D1A068B0F5805F01D1BC
:102AE0002069B0B1206A411C2162216800784860E9
:102AF000E08C401E0004000CE084E3D12068C16833
:102B000021F08001C1602068C16841F04001C160CE
:102B1000D8E7206A0088C0F308004860206A801C5B
:102B20002062E5E74006CDD55006CBD5CA682046E1
:102B300022F04002CA6084F8413000F0AFF8C1E7EB
:102B40009B3D000870B5040004D094F841000025B6
:102B500010B106E0012070BD84F84050204600F01E
:102B600023F8242084F841002068C16821F4005132
:102B7000C160204601F0A2F92068016921F490416A
:102B800001612068416921F02A0141612068C16822
:102B900041F40051C1606564202084F8410084F84C
:102BA00042006563002070BD30B585B000240094FC
:102BB00001940294039400681449884224D1144873
:102BC000816941F480418161816901F4804104910E
:102BD000816941F00401816180690E4D00F00400BB
:102BE00004904FF4007000900220019003200390A5
:102BF00069462846FFF798F82815CDE9000469468C
:102C000028460294FFF790F805B030BD0038014027
:102C1000001002400008014090F84230202B01D003
:102C20000220704721B11AB10023036301F0A2B959
:102C30000120704730B400681549884225D11548F5
:102C400041880A0416D402464C0412784FF000035F
:102C500004D50A2A0DD141F4004114E00D2A10D008
:102C6000C1F30D040C4D491C89B22A554180C72976
:102C700000D943800848012230BC0649C830FFF71C
:102C8000CBBF41F480414180F4E730BC7047000085
:102C900000380140D4000020140600207047FEE7F1
:102CA000F0B51B4885B0816941F0080181618169F7
:102CB00001F008010491816941F008018161816995
:102CC00001F008010491816941F00401816180698A
:102CD000002400F0040004904FF400600125032656
:102CE0008DE871000B4F69463846FFF71DF802204A
:102CF0008DE8710069463846FFF716F840208DE8E8
:102D0000710069460448FFF70FF805B0F0BD0000F8
:102D100000100240000C0140000801401D4810B5A1
:102D2000816986B041F004018161816901F004018B
:102D30000491816941F0200181618069032100F0E3
:102D4000200004900120CDE90201134C0190009075
:102D500069462046FEF7E8FF0220009069462046BB
:102D6000FEF7E2FF0420009069462046FEF7DCFFF4
:102D7000012211462046FFF7CCF80122022120460D
:102D8000FFF7C7F8012204212046FFF7C2F806B07A
:102D900010BD00000010024000080140094808B5BD
:102DA000816941F020018161816901F02001009178
:102DB000816941F004018161806900F004000090A4
:102DC00008BD00000010024010B586B000241A486B
:102DD000009401940294039404944FF0804105946C
:102DE00001604721C0E9011440F2E731C0E9031452
:102DF00080218161FFF7E6FB08B1FEF7E6FE4FF4A4
:102E00008050009069460C48FFF752FC08B1FEF76D
:102E1000DCFE049404A908480594FFF79FFB08B161
:102E2000FEF7D3FE0448FFF717FC002801D0FEF799
:102E3000CCFE06B010BD0000DC0000200C4810B530
:102E40000A4901604FF4E1314160002181600C22A8
:102E5000C160C0E904128161C161FFF773FE0028FF
:102E600003D0BDE81040FEF7B0BE10BD00380140F1
:102E700024010020FEE7FEE73EB5002108234122A1
:102E8000084600F0C5F908232AA20021102000F00E
:102E900011FB062341221221002000F0B9F906237C
:102EA00024A21221102000F005FB0624052343F282
:102EB00039021C210020009400F0AAFA02236FF0CE
:102EC00041021C212820009400F0C5FA04234AF294
:102ED000A5521C214620009400F017FA0823A522D1
:102EE00026210020009400F072F902200321CDE990
:102EF0000010144A144B029426213C2000F0A6F93D
:102F0000082312A23021002000F0D4FA1348102325
:102F100000901A463021602000F01CFA10A306220F
:102F200012216020009400F02CF9BDE83E4000F032
:102F300077BB000048656C6C6F20576F726C642122
:102F400000000000CDCCCCCCCCDC5E4048656C6C85
:102F50006F2CE4B896E7958CE38082003F59000817
:102F60005B253032645D000010B50021074C0A4635
:102F7000002004EBC1131A54401CC0B28028FAD3BD
:102F8000491CC9B20829F3D310BD00001402002067
:102F9000F0B50B4424E0044685181DE07F2C19D8B9
:102FA000002917DB3F2915DCCE1701EB56764FEAD7
:102FB000E60C0D4F26F0070607EBCC172744A1EBD4
:102FC000060E97F800C0012606FA0EF62CEA060C4B
:102FD00087F800C0641C24B2A542DFDC491C09B29A
:102FE0008B42D8DCF0BD00001402002010B586B082
:102FF00000204FF47A720021491C9142FCD3401CFE
:103000009042F8D3002002901548816941F00801F0
:103010008161816901F008010491816941F0080131
:10302000816180690F4C00F0080004904FF48070BB
:103030000090112001900320039069462046FEF77E
:1030400073FE6015009069462046FEF76DFE012074
:1030500000F0FAFA012000F003FB06B010BD0000FA
:1030600000100240000C014010B5002203468024ED
:1030700024FA02F0184000D0012000F0F1FA0120FB
:1030800000F0E2FA002000F0DFFA521CD2B2082A67
:10309000EED3012000F0D8FABDE81040002000F087
:1030A000D3BA00B5012000F0DBFA012000F0CCFA21
:1030B000002000F0D5FA00205DF804EB00F0C4BA5F
:1030C00000B5002000F0CCFA012000F0BDFA01208C
:1030D0005DF804EB00F0C4BA10B5FFF787FFAE202F
:1030E00000F0CAFAD52000F0C7FA802000F0C4FA38
:1030F000A82000F0C1FA3F2000F0BEFAD32000F073
:10310000BBFA002000F0B8FA402000F0B5FAA12088
:1031100000F0B2FAC82000F0AFFADA2000F0ACFA02
:10312000122000F0A9FA812000F0A6FACF2000F0CA
:10313000A3FAD92000F0A0FAF12000F09DFADB20DC
:1031400000F09AFA302000F097FAA42000F094FAE8
:10315000A62000F091FA8D2000F08EFA142000F0E5
:103160008BFAAF2000F088FAFFF7FEFEBDE81040B2
:1031700000F056BA0246012000E05043491EFCD23E
:1031800070470FB470B5C0B014460D46064648AA45
:1031900068464799FDF770F823466A462946304647
:1031A00000F088F940B070BC5DF814FB10B50C4617
:1031B00040F0B00000F060FA102040EA141000F077
:1031C0005BFA04F00F00BDE8104000F055BA2DE99D
:1031D000F0431D461746894680460024079E12E0AC
:1031E000291B0220491EFFF7C5FFB7FBF0F000F0D6
:1031F000010204FB068000B233464946303200F03B
:1032000007F8641CE4B2AC42EAD3BDE8F0830000E6
:1032100008B5082B0DD0062B0AD10A4B02EB42024F
:1032200003EB4202C03A00920823062200F092F813
:1032300008BD054B03EB0212A2F5007210230092A9
:103240000822F3E702560008125000082DE9FF5F3C
:1032500082B014461D46DDE911B60746002213462A
:1032600020462946DDF8408001F034FD334605D87C
:103270002B2238460399FFF7CBFF06E02D22384674
:103280000399FFF7C5FF85F000452046294601F068
:10329000A7FB824601F0D1FB22462B4601F0AAFD96
:1032A00005460C4659460A20FFF764FF814601F0A7
:1032B000C4FB2A46234601F00FFC01F00FFA01F08F
:1032C0008FFBB0FBF9F1044601EB0A02B81900B21A
:1032D00043460096039900F09BF808F1010000FBBB
:1032E000067000B233462E220399FFF791FF08F1D2
:1032F000020000FB067000B25B462246009603996E
:1033000000F086F806B0BDE8F09F2DE9F0431D46B9
:103310009046894607460024079E16E0291B102088
:10332000491EFFF727FFB8FBF0F000F00F0204FB87
:1033300006700A2A00B23346494601D2303200E014
:103340003732FFF765FF641CE4B2AC42E6D3BDE858
:10335000F08300002DE9F04F1F4616460D468246C9
:103360000024FFF715FE7F1EF81707EB50700121B0
:10337000DFF898B001EBE00743E000203DE000BF3C
:103380000AEB00037F2B36D8E91705EB5171CA1001
:1033900021F00701691A002D03DA521E083112B21A
:1033A00009B202EB0409B9F1070F0ED8099A04FB20
:1033B00006F802440BEBC91E18F802201EF803C0E1
:1033C0008A404CEA020C0EF803C009F10102072AF8
:1033D00011D80BEBC91202EB0308099A04FB06FC97
:1033E000024498F880301CF80220C1F10801CA405C
:1033F000134388F88030401CC0B2B042C0D3641C74
:10340000E4B2A742B9DCBDE8F08F0000140200204E
:103410002DE9F04700241D4690468A4681460A273A
:10342000089E14E0291B0A20491EFFF7A3FEB8FBE3
:10343000F0F0B0FBF7F107FB110204FB069000B2BD
:10344000334651463032FFF7E3FE641CE4B2AC422F
:10345000E8D3BDE8F0872DE9F0471E46DDF820806F
:1034600014008A468146434604D42B22FFF7D0FE3F
:10347000254603E02D22FFF7CBFE654200240A27F4
:1034800014E0311B0A20491EFFF774FEB5FBF0F073
:10349000B0FBF7F107FB1102641C04FB089000B2BB
:1034A000434651463032FFF7B3FEE4B2B442E8D3AC
:1034B000BDE8F0872DE9FF4F002483B09B4690467E
:1034C0002546A246DFF850919EE0100610D40398DE
:1034D0008DF80420641C2844A4B28DF805A000B225
:1034E0005B460499FFF794FE05EB0B0085B28BE079
:1034F0000620B0EB521F0ED1641CA0B28DF8042040
:1035000018F80010002974D08DF80510401C84B202
:103510008DF806A03CE00E20B0EB121F16D1641C03
:10352000A0B28DF8042018F80010002971D0401CBA
:1035300080B28DF8051018F80010002969D08DF8B8
:103540000610401C84B28DF807A021E01E20B0EBCD
:10355000D20F1FD1641CA0B28DF8042018F80010FF
:10356000002956D0401C80B28DF8051018F80010C4
:1035700000294ED0401C80B28DF8061018F80010BB
:10358000002946D0401C8DF8071084B28DF808A0A1
:10359000002609E0641CA4B236E0384601A9FCF715
:1035A000B1FF68B1761CB6B206EB860000EB46119F
:1035B00001EB0900074619A1FCF7A4FF0028ECD194
:1035C000BBF1080F03D0BBF1060F1DD112E006EBD3
:1035D000860000EB461101EB0900401D00900398A6
:1035E0001023284400B21A460499FFF7B3FE1035A1
:1035F00009E00EE003980623284400B23F22049914
:10360000FFF706FEAD1DADB218F80420002A7FF4C6
:103610005CAF07B0BDE8F08F3C5800080000000028
:1036200030B5084D002400212046FFF7BFFD05EB13
:10363000C410802100F031F8641CE4B2082CF2D3ED
:1036400030BD00001402002010B14FF4807001E082
:103650004FF080700149086070470000100C014075
:1036600010B14FF4007001E04FF0007001490860A4
:1036700070470000100C014010B50446FFF711FD23
:103680007820FFF7F1FC0020FFF7EEFC2046FFF763
:10369000EBFCBDE81040FFF713BD70B50D460646C4
:1036A000FFF7FFFC7820FFF7DFFC4020FFF7DCFC92
:1036B000002404E0305DFFF7D7FC641CE4B2AC42A8
:1036C000F8D3BDE87040FFF7FBBC000010B504461E
:1036D00000F036FD00284FF00101204613D000F025
:1036E00049FD28B1002000F0C7FE10A0FCF7D6FD70
:1036F0000221204600F03EFD002815D012A0BDE8B2
:103700001040FCF7CBBD00F035FD10B115A0FCF763
:10371000C5FD0221204600F02DFD002804D0002028
:1037200000F0AAFE13A0EAE710BD00004B45593097
:10373000206C6F6E672070726573732064657465AA
:10374000637465640D0A00004B455930206C6F6E40
:10375000672070726573732072656C656173656450
:103760000D0A00004B455930207072657373656413
:103770000D0A00004B4559302072656C6561736518
:10378000640D0A0010B500F0A3FC0446012815D012
:10379000022C18D0032C1ED0042C24D02ED9024683
:1037A0004FF000034FF0C8014FF0010000F086FE1B
:1037B0002146BDE8104012A0FCF770BD012000F0CA
:1037C0005BFE15A016E000230222C821012000F0B4
:1037D00075FE16A00EE000230322C821012000F090
:1037E0006DFE17A006E000230422C821012000F08E
:1037F00065FE18A0BDE81040FCF750BD10BD0000EC
:103800004B65793120636C69636B656420256420A6
:1038100074696D65730D0A004B6579312073696EAB
:10382000676C6520636C69636B0D0A004B657931C9
:1038300020646F75626C6520636C69636B0D0A00B0
:103840004B65793120747269706C6520636C6963B3
:103850006B0D0A004B65793120717561647275706A
:103860006C6520636C69636B0D0A000070B50546DA
:1038700000F02EFC040034D0012C15D0022C18D0FE
:10388000032C1ED0042C24D03CD902464FF0000358
:103890004FF0C8014FF0020000F010FE2146BDE8D5
:1038A000704019A0FCF7FABC022000F0E5FD1CA056
:1038B00024E002220023C821104600F0FFFD1DA0D5
:1038C0001CE000230322C821022000F0F7FD1EA007
:1038D00014E000230422C821022000F0EFFD1FA005
:1038E0000CE00221284600F045FC00280AD0002305
:1038F0000A226421012000F0E1FD1EA0BDE8704015
:10390000FCF7CCBC70BD00004B65793220636C695C
:10391000636B65642025642074696D65730D0A000E
:103920004B6579322073696E676C6520636C6963DF
:103930006B0D0A004B65793220646F75626C6520EF
:10394000636C69636B0D0A004B6579322074726990
:10395000706C6520636C69636B0D0A004B6579328E
:1039600020717561647275706C6520636C69636B3E
:103970000D0A00004B657932206C6F6E6720707203
:1039800065737320283E313030306D73290D0A0085
:103990007047F0B50023067A1C46012736B14FF672
:1039A000FF75012E09D0022E3ED12AE001293BD11C
:1039B00007728480C480847036E011B1817879B157
:1039C00032E002210172C4808188028A914203D2CE
:1039D0008178491C817027E0407B80070FD423E069
:1039E00081886C1A944201D2858001E01144818063
:1039F0008188028A914217D3407BC00714D00123EB
:103A000012E0C688A5EB060C944501D2C58001E002
:103A10003244C280C288C589AA4202D901230472F5
:103A200002E0012900D107721846F0BDF0B500246C
:103A3000057A2346012625B1012D09D0022D24D176
:103A40000EE0012921D106728380C38083701CE0BF
:103A5000D9B902210172C3808178491C817014E0B8
:103A6000C5884FF6FF77A7EB050C944501D2C780B8
:103A700001E02A44C280C288C589AA4202D9012431
:103A8000037202E0012900D106722046F0BDF0B5B4
:103A90000023067A1C464FF6FF75052E36D2DFE866
:103AA00006F00306341D3400012911D02EE029B19F
:103AB00081886E1A964204D2858004E00221017248
:103AC00018E0114481808188028A91421ED303212B
:103AD00001728480407BC0070CD117E029B1818836
:103AE0006E1A964208D2858008E004210172407B5C
:103AF00080070BD5012309E011448180C18929B1D8
:103B000082888A4202D98480F4E704721846F0BDA4
:103B1000F0B50023057A1C4625B1012D0AD0022DEF
:103B200022D120E001291FD101728480407BC0078F
:103B300010D119E049B1C189B1B186884FF6FF753E
:103B4000AF1B974208D2858008E002210172407BBA
:103B5000800709D5012307E03244828082888A42A7
:103B600002D98480F6E704721846F0BD10B54FF410
:103B700000610448FEF7C8F908B1002010BD01201B
:103B800010BD0000000C014010B502210348FEF7F3
:103B9000BBF908B1002010BD012010BD000C014090
:103BA00010B540210348FEF7AFF908B1002010BD61
:103BB000012010BD00080140428901898A4201D2DA
:103BC000012100E00021142A01D30022428108468D
:103BD0007047704710B5FEF7A1F9BDE8104000F03E
:103BE0001DBB10B5FEF79AF9BDE8104000F090BB80
:103BF000FEF79AB930B58FB028216846FCF75AFC19
:103C000014210AA8FCF756FC01210804CDE9001094
:103C10000024029402250491CDE907504FF4E010EE
:103C200009906846FEF7F4FA08B172B6FEE70F2075
:103C3000CDE90A054FF48060CDE90C4002210AA8C5
:103C40000E94FEF709FA002801D072B6FEE70FB015
:103C500030BD704710B5FDF7BBFFFDF7E9FFFFF77B
:103C60003BFABDE81040FFF707B910B5482000F057
:103C700011FDBDE810404FF4E13000F079BD0000C7
:103C800010B500F083FC05221421064800F042FC28
:103C900006221421044800F03DFCBDE8104000F06D
:103CA000D9BC0000D53B0008E33B00080148FEF703
:103CB0006EBD0000DC000020F0B50268194B1A4C04
:103CC0001A4D4FF08047984205D0B84203D0A04229
:103CD00001D0A84203D122F070064A6832439842CC
:103CE00005D0B84203D0A04201D0A84203D122F4AB
:103CF0004074CA6822434C6922F080022243026069
:103D00008A68C2620A688262984201D109690163C5
:103D1000012141610169C90703D0016921F0010155
:103D20000161F0BD002C014000040040000800408B
:103D300010B5846842EA032224F47F440A432243F4
:103D4000826010BD826822F070020A4342F00701CF
:103D50008160704710B5036A046A24F001040462AC
:103D6000846924F0F00444EA021423F00A020A43AE
:103D70008461026210BD10B5036A046A24F0100465
:103D80000462846923F0A00324F4704444EA0232FC
:103D900043EA01118261016210BD10B5406A002141
:103DA000C185C184FEF796FD10BD01680C3151E854
:103DB000002F22F4907241E80023002BF5D1016816
:103DC000143151E8002F22F0010241E80023002BBA
:103DD000F5D1016B012909D101680C3151E8002F9F
:103DE00022F0100241E80023002BF5D1202180F8B9
:103DF000421000210163704708B590F84210222953
:103E000001D0022008BD82684FF480539A4201D14C
:103E1000016921B1816A9A421BD04AB10AE0026865
:103E2000816A5268C2F308020A80816A891C08E02C
:103E3000026972B10268526802F07F020A70816AF8
:103E4000491C8162C18D491E0904090CC18503D03A
:103E50001BE002685268F1E70168CA6822F020029C
:103E6000CA600168CA6822F48072CA6001684A693F
:103E700022F001024A61202180F8421000214163B2
:103E8000026B012A03D0FEF7D5FE002008BD0163B6
:103E900001680C3151E8002F22F0100241E80023A4
:103EA000002BF5D101680A68D20602D50A68496874
:103EB0000091818DFEF70DFDE7E7000070B5044627
:103EC00000680169E26821F44051114301612169F0
:103ED000A0680843616908432168CA6841F20C631D
:103EE0009A430243CA6020684169A26921F4407183
:103EF000114341611E492068884202D1FEF752F900
:103F000001E0FEF73FF900EBC00101EB0012606831
:103F100064218000B2FBF0F3B3FBF1F36FF01806FD
:103F20007343B2FBF0F5B2FBF0F605EB83053223E9
:103F300003EB0515B5FBF1F5B6FBF1F605F0F00561
:103F400005EB0615B2FBF0F6B2FBF0F0B0FBF1F0BA
:103F50006FF01802504306EB800003EB0010B0FB3B
:103F6000F1F0216800F00F002844886070BD000067
:103F70000038014081628285C2850021416422218E
:103F800080F84210016921B10168CA6842F4807268
:103F9000CA6001684A6942F001024A610068C1686A
:103FA00041F02001C1600020704700000148FEF789
:103FB00093BC0000DC060020FEE7490050EAC12067
:103FC00018BF04204A0D18BF40F0010040F2FF72F4
:103FD000B2EB515F08BF40F00200012808BF052086
:103FE00070470907090E002804DB00F1E02080F883
:103FF0000014704700F00F0000F1E02080F8141D5D
:10400000704730380A2801D20120704700207047DD
:104010007047000030B50E4D2C681CB16D680DB1B5
:10402000A84202D34FF0FF3030BD00EB800004EB1C
:10403000C00003250576418343768283017A29B93E
:1040400000F118010C300EC980E80E00002030BDD0
:10405000140000200D4B1A681AB15B680BB198422E
:1040600002D34FF0FF30704700EB800002EBC0003E
:10407000022303764183017A29B900F118010C303B
:104080000EC980E80E0000207047000014000020D8
:1040900010B50E4C23681BB164680CB1A04202D36A
:1040A0004FF0FF3010BD00EB800003EBC000012497
:1040B000047681834283017A29B900F118010C301A
:1040C0000EC980E80E00002010BD00001400002082
:1040D000094A116861B1526852B1904208D200EBAE
:1040E000800001EBC001087B022803D0032801D027
:1040F000002070478878704714000020F0B50F4DFD
:1041000000240F462646C5E9000113E02A6804EBA7
:10411000840102EBC10086708680C68002F831609F
:1041200006720021204600F047F8204600F05EF8B5
:10413000641CE4B2BC42E9D30020F0BD14000020AE
:104140000B4A116879B152686AB190420BD200EB08
:10415000800001EBC000017B012904D1007A032813
:1041600003D0042801D000207047012070470000D0
:10417000140000200F4A1368BBB15268AAB19042E4
:1041800013D20C4B00EB8000CA071B6803EBC00086
:1041900004D0027A012A0AD0032A08D0890704D55C
:1041A000007A022803D0042801D0002070470120A3
:1041B00070470000140000200B4B1A681AB15B68AE
:1041C0000BB1984202D34FF0FF30704700EB8000F4
:1041D00002EBC0000162027A22B9D0E90623C26074
:1041E000C0E9043100207047140000200A4A116819
:1041F00019B152680AB1904202D34FF0FF307047B4
:1042000000EB8000032201EBC00000214276017622
:104210008183418308467047140000202DE9F04156
:104220003A4C06464FF00008206820B1606810B193
:10423000A06820B104E04FF0FF30BDE8F081A66037
:1042400000250CE0206805EB850700EBC700406AFD
:10425000804721686D1C01EBC701EDB248706068B2
:104260008542EFD300254AE0206805EB850710F86A
:10427000371000EBC7004278914200D11146027B13
:1042800032B1012A0AD0022A1ED0032A0CD121E021
:104290002289B21A92B2FFF73BFC04E02289B21ADB
:1042A00092B2FFF7F4FB8046B8F1000F06D0206809
:1042B00000EBC700416909B128468847216801EB36
:1042C000C700027A62B115E02289B21A92B2FFF7F2
:1042D000ADFBE8E72289B21A92B2FFF75AFBE2E798
:1042E00000F1180200F10C0E92E80C108EE80C1090
:1042F0000022827040786D1C01F83700EDB26068D2
:104300008542B1D30020A66097E70000140000208A
:104310002DE9F0414C4D0746286820B1686810B17E
:10432000A86820B104E04FF0FF30BDE8F081AF6035
:1043300000244FF6FF76A04671E02868AB6800EBDA
:104340000410FB1A8188721A9A4201D2868001E019
:1043500019448180C178CA0701D0827862B1CA0647
:104360000ED5FFF729FC0146286800EB0410C2783F
:1043700061F38202C2700DE04A0862F3820108E034
:10438000427800EBD20302F007021B7AD34063F3BA
:104390008201C170286800EB0410C178C9062AD5D3
:1043A0004189AB68721AFB1A9A4201D2468101E038
:1043B000194441818288C1888A422ED9A0F804809C
:1043C000C1780907018909D5491C89B201811429DD
:1043D00023D3C17821F00801C1701EE0491E0904F1
:1043E000090C018119D1C17841F00801C17011E0B7
:1043F000491E817011E08188C28891420DD3A0F8D6
:10440000048042784146521CD2B2427003789A42EC
:1044100003D3417081780029EAD1641CA4B2686892
:1044200084428AD3002409E0286800EB0411C8788C
:10443000C968C0F380008847641CA4B268688442DD
:10444000F2D30020AF6070E798000020094A10B551
:10445000C2E900010022134607E000BF00EB02148E
:10446000521C23606360D2B2A3608A42F6D300205C
:1044700010BD0000980000200F4A116819B1526861
:104480000AB1904202D34FF0FF307047642201EB33
:1044900000100021C2808180027A5AB1002202728B
:1044A0004170012202708170C17821F01301C17046
:1044B000002070470122F2E79800002030B5144D2B
:1044C0002C681CB16D680DB1A84202D34FF0FF30CB
:1044D00030BD04EB0010C18000218180012B01D090
:1044E0004FF00203037241704FF0020101708270BD
:1044F000C17841F00101C17002D141F0020101E037
:1045000021F0020121F01001C1704FF0000030BD18
:10451000980000202DE9F0478246052A01D20522A5
:1045200002E0FA2A00D9FA22174D002000EB4003DE
:1045300005EB83039B7A934222D300EB400305EB08
:10454000830300261C7A8CB10924A9460CE000BF25
:1045500004EB440709EB87052D1F641EB5E88011A5
:10456000A5E8801105F8186C8442F1DC012018726E
:104570005E72D981C3F810A099819A72BDE8F08764
:10458000401C0A28D2DBF9E76C01002010B500209E
:104590000F490346FF240870C1F8040003EB4302EF
:1045A00001EB82025B1C10725072D081106190810D
:1045B00094720A2BF2DB002201EBC203521CA3F817
:1045C0008200C3F88400A3F88000052AF4DB10BD44
:1045D0006C01002070B51E4C00212078002835D0D9
:1045E0006068401C606010E0027A52B1828942B17A
:1045F000521E1204120C828103D1C28982810122CF
:104600004272491CC9B20A2906D201EB410004EBEF
:1046100080000269002AE7D1002511E0B0F880107F
:1046200051B1491E0904090CA0F8801004D1B0F85A
:104630008210A0F8801090476D1CEDB2052D05D2B8
:1046400004EBC500D0F88420002AE7D170BD00003B
:104650006C0100200E4C01200026207000200FE08D
:10466000297A49B1697A39B100EB400004EB800046
:10467000006980476E72F1E7401CC0B20A28EDD293
:1046800000EB400104EB810529690029E6D0E7E74A
:104690006C010020014908607047000010000020F4
:1046A00004490A685206FCD5024AC1B2121D1160C3
:1046B0007047000000380140FDF73EFCFFF79AFA12
:1046C000FEF76CFBFEF780FBFEF7B8FBFFF7CDFAB9
:1046D000FFF7C0FAFFF7D4FAFEE700002DE9F04D2E
:1046E00007460E4600F02CFB04460D463A4633467C
:1046F00000F080FBDFF86CA0DFF86CB01B4B0746C6
:10470000884616F0004F4FF000020AD000F0A8F9DA
:104710000AD900225B463846414600F0DBFA1BD23C
:1047200012E000F09DF908D20022534620462946A7
:1047300000F06CFB04460D460EE000225B46384656
:10474000414600F0C7FA07D80022534620462946C2
:1047500000F092F804460D463146204665F31E01EE
:10476000BDE8F08D0000F03F0000E03F0000E0BF3A
:1047700030B5274985B0254A00240A60C1E9010403
:10478000CC600C200C61C1E905040846FEF7DAF99B
:10479000012220491E48FEF73FFA1F48816941F077
:1047A00004018161816901F004010491816941F092
:1047B00004018161816901F004010491816941F47E
:1047C000804181618069154D00F4804004904FF470
:1047D00000700090022001900120029003200390BD
:1047E00069462846FDF7A0FA2815CDE90004694678
:1047F0002846FDF799FA2520FDF7EEFB0322114626
:104800002520FDF7F7FB05B030BD00000038014062
:10481000DC060020D4000020001002400008014007
:1048200010B500290AD00878002807D00548784438
:10483000FBF768FE002801D0002010BD0248784434
:1048400010BD00004E1200004612000010B50029F5
:104850000AD00878002807D005487844FBF752FEB4
:10486000002801D0002010BD0248784410BD00008F
:104870003E1200003612000010B591EA030F48BF47
:1048800083F0004300F1CA82841A71EB030C05D255
:10489000121943EB0C03001B61EB0C01DFF824E160
:1048A0004FEA1154A4EB135C1EEA430F18BF9EEAB3
:1048B000445F73D023EA0E03DCF1200E21EA045199
:1048C00043F4801332D322FA0CFE10EB0E0023FACD
:1048D0000CFE41EB0E01CCF1200E03FA0EFE10EBA4
:1048E0000E0051F10001B1F5801FCCF1200E32D243
:1048F00001EB045112FA0EF2BDE8104058BF7047A8
:10490000401C38BF5FEA420218BF7047002814BF3E
:1049100020F0010041F100014FEA410313F5001FAF
:1049200038BF7047A1F1C04100F0CEB9012A43EB76
:104930000302ACF1200CDCF11F0E32BF4FF0000E71
:1049400023FA0CF310EB030041EB0451B4EB115FBD
:10495000D0D0A1EB045101F5801149085FEA300085
:1049600001EB04510ED350F1000038BF12FA0EFED5
:1049700008D1BDE81040C9E7401C38BF5FEA4202D9
:10498000CAD1C3E7BDE810404FEA410313F5001F49
:1049900038BF7047A1F1C04100F096B99EEA445F6C
:1049A00008D011EA5E0FBDE8104004BF01F00041DD
:1049B00000207047BDE8104070B500F037F900BF27
:1049C00064FBBE3E0000E0FF491058BFC1F140410A
:1049D0005B1058BFC3F140438B42EFF30080704738
:1049E0004FEA1153A3F58063D3F11E03A8BFD3F19F
:1049F000200C08DB4FF0004242EAC12252EA50523A
:104A000032FA03F0704709420BD4102BC4BF0020C8
:104A1000704703F5787CBCF1FF3F05D04FF0FF30C5
:104A200070474FF00000704770B500F0FFF800BF0E
:104A30004992248000207047F0E7B0FA80F310FA22
:104A400003F10AD0C3F11D0303F580634FEA41501F
:104A50004FEA035202EBD12170474FF0000070473C
:104A600051EA030C17D41CF5801F58BFBCF5801FFA
:104A700000F10680994218BF704708BF9042704706
:104A800007D711F5801F58BF13F5801F19D499421D
:104A90007047894270471CF5801F08D5BCF5801F00
:104AA000F7D58B4218BF704708BF824270474FF45A
:104AB000001C1CEB410F38BF1CEB430F01D28B4293
:104AC000704770B500F0B2F8922449004FF00051E1
:104AD0004FF08053FFF778BFDFF848C170B51CEA8C
:104AE000111E1EBF1CEA13159EEA0C0F95EA0C0F4F
:104AF00000F06F8081EA030423EA4C134EEAD47E6F
:104B000021EA4C1141F4801143F48013AE44A1FB1F
:104B1000024CA0FB0365AEF17F7E361955EB0C0508
:104B2000A1FB034C4CF10003A0FB021C16EB0C068E
:104B3000654153F10003094218BF46F0010613F422
:104B4000007F0BD14FEA03314FEA0530340341EACD
:104B5000155140EA16506FF003020AE04FEAC321F4
:104B60004FEAC520F40241EA555140EA56506FF031
:104B7000020202EB2E4201EB025585EACE710AD009
:104B80005FEA440C18BF24F0004450F1000041F1EA
:104B9000000120EAD47040F2FE7C624500D270BD74
:104BA000A84214BF4FF080444FF04044002E08BF8D
:104BB0000024BEF1806FA8BFA1F1C041BDE87040E4
:104BC00080F282804FF0000001F1C04101F000410D
:104BD00070479EEA0C0F0CEA131518BF95EA0C0FEC
:104BE00006D04FF0000081EA030E0EF0004170BDC8
:104BF00000F01CF88900013E00F007B800F009B889
:104C00004FEA430C5FEA5C5C08D081EA030100F0E4
:104C10005BB84FEA410C5FEA5C5CF6D14FF00000F4
:104C2000014970470000FF070000F87F0EF1020EF7
:104C30002EF0030E5EF8046B364205D4012A43EBD6
:104C4000030515F5001F12D8012841EB010C1CF5D6
:104C5000001F0CD80ED14FEAD17C15F5001F0CEBCC
:104C60004C0C0CF1020C08BF4CEBD37C04E04FF071
:104C7000080C01E04FEAD37C0CEB4C0526FA05F654
:104C800006F00706B6F1040C06D20EEB860CBDE862
:104C900070404CF0010C6047DFE80CF0090B020299
:104CA0004FF000414FF00000A1F5002170BD194602
:104CB0001046012851EB010418BFD4F5001484BF3D
:104CC000002001F0004170BD0808A0F500114FEA76
:104CD0003101704753EA010C17D41CF5801F58BFEF
:104CE000BCF5801F00F106808B4218BF704708BFDB
:104CF0008242704707D713F5801F58BF11F5801FF8
:104D000019D48B4270479B4270471CF5801F08D511
:104D1000BCF5801FF7D5994218BF704708BF904275
:104D200070474FF4001C1CEB430F38BF1CEB410FC6
:104D300001D2994270470FB40CBC03BCFFF7C1BE4F
:104D40005FEA410C5FEA5C5CACF580635B1C39D4C4
:104D5000D3F1340240F34580B2F1200314DA4FF06E
:104D6000010C0CFA02FCACF101030340B3EB5C0252
:104D700020EA030008BF10EA0C0F98BF704710EB41
:104D80000C0041F1000170470AD0C3F1200201FA82
:104D900002FC012821FA03F101FA03F14CF10000B1
:104DA0004FF0010C0CFA03FCACF10103B0F1004F21
:104DB00021EA030108BF11EA0C0F4FF0000088BF81
:104DC00061447047B3F1FF3F28BF50EAC12C01F0A6
:104DD00000414FF0000084BF41F07C5141F470016C
:104DE0007047B3F5806FB8BF704770B5FFF71EFF0F
:104DF00040DBB6BE91EA030F10B581F000413FF5EC
:104E000043AD83F0004300F009B8000010B591EA0B
:104E1000030F48BF83F000433FF536AD841A71EBB2
:104E2000030C07D212198CF0004C43EB0C03001B4F
:104E300061EB0C01DFF8A4E14FEA1154A4EB135C21
:104E40001EEA430F18BF9EEA445F00F0B08023EAD9
:104E50006E03524221EA0451C3EB6E0338BF5B1E5E
:104E6000DCF1200E25D322FA0CFE10EB0E0043FAE3
:104E70000CFE41EB0E01CCF1200E03FA0EFE10EBFE
:104E80000E0051F10001CCF1200E29D412FA0EF2DD
:104E900001EB0451BDE8104058BF7047401C1CBFD7
:104EA000B2F1004F704700280CBF491C20F00100F0
:104EB000704712EB020E43EB030218BF4FF0010ED6
:104EC0004EEA4202ACF1200CDCF11E0E54D943FA3A
:104ED0000CFE10EB0E0051F1FF31CCF11E0ED5D5BA
:104EE0000EF1010E12FA0EFE404141EB010101EB01
:104EF000445C5FEA5C5C10D910EBDE7001EB04519E
:104F000038BFBEF1004FBDE8104018BF7047002801
:104F10000CBF491C20F00100704730D24FEAD42C5E
:104F200011F5001124F400641BD0B1FA81F20B3AA0
:104F3000A41AA41ED2F12003914030FA03F31943BE
:104F4000904001EBCC71002C01EB0451BDE8104006
:104F5000A8BF704701F1C0414FF0000001F00041CF
:104F60007047B0FA80F310FA03F100D110BDE41AD3
:104F7000173C4805C90AE4E701EB045110BD49108C
:104F800001EB0451BDE810404FEA300002E04FF061
:104F9000000170474A0008BF0042F8D0B2F5001F78
:104FA00028BF704701F000414FF0000070479EEAB3
:104FB000445F07D011EA5E0FBDE8104004BF002136
:104FC00000207047BDE8104070B5FFF72FFE00BF0E
:104FD00040DFF63E83F00041104670470000E0FFDE
:104FE000FBF710BEFBF744BF0102020304050607EE
:104FF00008090A0B0C0D0E0F101000000000000035
:105000000000010203040607080900000000010275
:105010000304000000000000000000000000000089
:105020000000000000F80000000000000033300025
:10503000000000160E00160E000000000000000028
:10504000000040C07840C0784000043F04043F04A2
:105050000400007088FC08300000001820FF211EAA
:105060000000F008F000E018000000211C031E21E1
:105070001E0000F00888700000001E21232419275C
:105080002110000000160E000000000000000000CB
:105090000000000000E018040200000000071820D3
:1050A000400000020418E000000000402018070043
:1050B0000000404080F0804040000202010F0102E9
:1050C0000200000000F0000000000101011F0101CA
:1050D0000100000000000000000000B070000000AF
:1050E00000000000000000000000000101010101BB
:1050F000010100000000000000000030300000004E
:105100000000000000008060180400601806010024
:10511000000000E010080810E000000F1020201030
:105120000F00001010F8000000000020203F202099
:105130000000007008080888700000302824222130
:1051400030000030088888483000001820202011E6
:105150000E000000C02010F8000000070424243FC7
:10516000240000F808888808080000192120201170
:105170000E0000E0108888180000000F1120201198
:105180000E0000380808C83808000000003F000082
:1051900000000070880808887000001C222121226D
:1051A0001C0000E010080810E0000000312222116D
:1051B0000F00000000C0C000000000000030300000
:1051C0000000000000C0C0000000000080B07000BF
:1051D00000000000804020100800000102040810B8
:1051E00020004040404040404000040404040404C7
:1051F0000400000810204080000000201008040275
:105200000100007048080808F00000000030360176
:105210000000C030C828E810E00007182724231435
:105220000B000000C038E0000000203C23020227F1
:10523000382008F8888888700000203F202020113E
:105240000E00C03008080808380007182020201079
:10525000080008F808080810E000203F202020106F
:105260000F0008F88888E8081000203F202023203D
:10527000180008F88888E8081000203F2000030084
:105280000000C03008080838000007182020221E3F
:10529000020008F808000008F808203F2101012159
:1052A0003F20000808F8080800000020203F2020C8
:1052B000000000000808F8080800C08080807F0017
:1052C000000008F888C028180800203F2001263870
:1052D000200008F8080000000000203F20202020C7
:1052E000300008F8F800F8F80800203F003F003FC1
:1052F000200008F830C00008F808203F20000718F8
:105300003F00E01008080810E0000F1020202010D7
:105310000F0008F808080808F000203F21010101EB
:105320000000E01008080810E0000F18242438508E
:105330004F0008F8888888887000203F2000030C00
:105340003020007088080808380000382021212209
:105350001C00180808F8080818000000203F20006A
:10536000000008F808000008F808001F202020208E
:105370001F000878880000C83808000007380E01B0
:105380000000F80800F80008F800033C0700073C9C
:105390000300081868808068180820302C03032C4C
:1053A00030200838C800C83808000000203F20001E
:1053B000000010080808C8380800203826212020DE
:1053C0001800000000FE020202000000007F4040C2
:1053D0004000000C30C00000000000000001063852
:1053E000C00000020202FE000000004040407F00BA
:1053F0000000002010080408102000000000000039
:10540000000000000000000000008080808080809C
:10541000808000020408000000000000000000007E
:1054200000000000808080800000001924222222D9
:105430003F2008F8008080000000003F112020116C
:105440000E000000008080800000000E112020204F
:105450001100000000808088F800000E112020104C
:105460003F200000808080800000001F2222222236
:105470001300008080F0888888180020203F2020BA
:1054800000000000808080808000006B94949493E2
:10549000600008F8008080800000203F210000208C
:1054A0003F2000809898000000000020203F20202E
:1054B0000000000000809898000000C08080807F7D
:1054C000000008F8000080808000203F24022D307A
:1054D0002000000808F8000000000020203F2020E5
:1054E00000008080808080808000203F20003F205E
:1054F000003F008080008080000000203F210020CD
:105500003F200000808080800000001F202020209D
:105510001F00808000808000000080FFA1202011FB
:105520000E000000008080808000000E112020A06E
:10553000FF80808080008080800020203F2120002C
:105540000100000080808080800000332424242417
:105550001900008080E0808000000000001F2020F3
:1055600000008080000000808000001F20202010AC
:105570003F20808080000080808000010E3008067F
:10558000010080800080008080800F300C030C3090
:105590000F0000808000808080000020312E0E31BE
:1055A0002000808080000080808080818E701806BE
:1055B000010000808080808080000021302C22212A
:1055C000300000000000807C020200000000003F6C
:1055D000404000000000FF00000000000000FF004D
:1055E00000000002027C800000000040403F0000FC
:1055F00000000080404080000080000000000001AA
:1056000001000000000000000000002F000000006A
:105610000700070000147F147F1400242A7F2A1239
:105620000023130864620036495522500000000729
:10563000000000001C224100000041221C00001458
:10564000083E08140008083E0808000000A060009A
:10565000000808080808000060600000002010082A
:105660000402003E5149453E0000427F4000004296
:1056700061514946002141454B31001814127F10F9
:10568000002745454539003C4A4949300001710928
:10569000050300364949493600064949291E0000DC
:1056A0003636000000005636000000081422410083
:1056B00000141414141400004122140800020151B3
:1056C0000906003E4955592E007C1211127C007FBC
:1056D00049494936003E41414122007F4141221C57
:1056E000007F49494941007F09090901003E4149BC
:1056F000497A007F0808087F0000417F41000020B0
:1057000040413F01007F08142241007F404040405B
:10571000007F020C027F007F0408107F003E4141A1
:10572000413E007F09090906003E4151215E007F8C
:10573000091929460046494949310001017F010103
:10574000003F4040403F001F2040201F003F4038A6
:10575000403F0063140814630007087008070061E5
:105760005149454300007F414100000204081020D8
:10577000000041417F00000402010204004040405B
:105780004040000001020400002054545478007F7F
:105790004844443800384444442000384444487F56
:1057A00000385454541800087E0901020018A4A4BB
:1057B000A47C007F080404780000447D4000004081
:1057C00080847D00007F102844000000417F40005D
:1057D000007C04180478007C0804047800384444F1
:1057E000443800FC242424180018242418FC007CCD
:1057F0000804040800485454542000043F44402046
:10580000003C4040207C001C2040201C003C4030DC
:10581000403C004428102844001CA0A0A07C004468
:1058200064544C440000087F41000000007F0000E9
:105830000000417F0800000804081008EFBC8C003D
:105840000000000000000000000000000000000058
:1058500000000058380000000000000000000000B8
:1058600000E3808200000000000000000000000053
:1058700000000000000000001824241800000000B0
:10588000000000000000E4BDA00000008060F807F8
:105890004020180F08C80808281800010000FF0061
:1058A000100C0340807F0001061800E5A5BD000034
:1058B0001010F01F10F000808282E2928A86800031
:1058C000402215081661000040807F0000000000A3
:1058D000E4B8960000202020FE2020FF202020FF9A
:1058E00020202020000000007F40404744444447DF
:1058F0004040400000E7958C0000000000FE9292BE
:1059000092FE929292FE0000000008080484621E3B
:10591000010001FE0204040808000000000000FF6E
:105920000101013109090909897101010101FFFF23
:105930008080808080809681808080808080FFFF52
:1059400001818181FD8991A1C1FD81818101FFFFDB
:10595000808080809F888482819F80808080FF04F7
:10596000000008000000000000000200010000101C
:10597000000000000000000030313233343536378B
:105980003839414243444546403058003031323383
:105990003435363738396162636465664030780083
:1059A0003031323334353637383961626364656695
:1059B000787000303132333435363738394142432C
:1059C000444546585000000002400000000000A07E
:1059D0000000000005400000000000C800000000BA
:1059E0000C4000000000409C000000001940000036
:1059F0000020BCBE0000000034400000BFC91B8E68
:105A000000000004B5400000504BCFD06607E2CF45
:105A1000010000006C4100003E8251AADFEEA73475
:105A200001000000D9420000DCB5A0E23A301F9727
:105A3000FFFFFFFFB4450000FD25A0C8E9A3C14F4B
:105A4000FFFFFFFFFF3F000000000080000000009C
:105A5000FF3F00000000008000000000A85B00087D
:105A600000000020DC00000028010008845C000821
:105A7000DC000020AC0C0000440100081C00000009
:105A800043000000F8FFFFFF0C0000000E000000C4
:105A90000F0000002E000000100100004300000075
:105AA000F8FFFFFF0040404040404040404041413F
:105AB00041414140404040404040404040404040E3
:105AC000404040404005020202020202020202027D
:105AD000020202020220202020202020202020027A
:105AE000020202020202909090909090101010100A
:105AF00010101010101010101010101010101010A6
:105B00000202020202028888888888880808080839
:105B10000808080808080808080808080808080805
:105B2000020202024000000000000000000000002D
:105B30000000000000000000000000000000000065
:105B40000000000000000000000000000000000055
:105B50000000000000000000000000000000000045
:105B60000000000000000000000000000000000035
:105B70000000000000000000000000000000000025
:105B80000000000000000000000000000000000015
:105B90000000000000000000000000000000000005
:105BA00000000000000000000100000010000000E4
:105BB0000000000000127A00000000000000000059
:105BC00000000000000000000000000000000000D5
:105BD00000000000000000000000000000000000C5
:105BE0000000000000000000000000006D3B000805
:105BF00000000000000000000000000000000000A5
:105C00000000000000000000000000000000000094
:105C100000000000893B00080000000000000000B8
:105C20000000000000000000000000000000000074
:105C3000000000000000000000000000A13B000880
:105C40000000000000000000000000000000000054
:105C50000000000000000000811B000800000000A0
:105C60000000000000000000991B00080000000078
:105C70000000000000000000B11B00080000000050
:045C80000000000020
:04000005080000ED02
:00000001FF
