:020000040800F2
:10000000000900202902000877180008611700087D
:1000100075180008AD050008411D0008000000002B
:100020000000000000000000000000007B18000835
:10003000AF05000800000000791800087D180008CE
:10004000430200084302000843020008430200087C
:10005000430200084302000843020008430200086C
:10006000430200084302000843020008430200085C
:10007000430200084302000843020008430200084C
:10008000430200084302000843020008430200083C
:10009000430200084302000843020008430200082C
:1000A000430200084302000843020008430200081C
:1000B0004302000843020008251900084302000813
:1000C00043020008430200084302000843020008FC
:1000D00043020008091D000843020008430200080B
:1000E00043020008430200084302000843020008DC
:1000F00043020008430200084302000843020008CC
:1001000043020008430200084302000843020008BB
:1001100043020008430200084302000843020008AB
:10012000430200084302000843020008430200089B
:10013000430200084302000843020008430200088B
:10014000430200084302000843020008430200087B
:10015000430200084302000843020008430200086B
:10016000430200084302000843020008430200085B
:100170004302000843020008430200080000000098
:10018000430200084302000800F002F800F03CF8C7
:100190000AA090E8000C82448344AAF10107DA45E2
:1001A00001D100F031F8AFF2090EBAE80F0013F0F8
:1001B000010F18BFFB1A43F001031847782A00000B
:1001C000982A0000103A24BF78C878C1FAD852079C
:1001D00024BF30C830C144BF04680C6070470000C1
:1001E0000023002400250026103A28BF78C1FBD840
:1001F000520728BF30C148BF0B6070471FB502F0DF
:1002000007FC1FBD10B510BD00F07EF91146FFF7C9
:10021000F5FF02F0A7F900F09CF903B4FFF7F2FF35
:1002200003BC00F013F90000094880470948004763
:10023000FEE7FEE7FEE7FEE7FEE7FEE7FEE7FEE796
:10024000FEE7FEE704480549054A064B70470000F3
:10025000151900088901000800030020000900208A
:10026000000500200005002053EA020C00F0698020
:100270002DE9F04B4FF00006002B1FBFB3FA83F5BA
:1002800003FA05F424FA05F65E4012BF1643B2FAEB
:1002900082F502FA05F4C5F120051EBF22FA05FC1D
:1002A00044EA0C04203556EA044C4FEA144418BFC3
:1002B000641C4FF000084FF00009904271EB030CF2
:1002C00039D3002919BFB1FA81F701FA07F6B0FA5C
:1002D00080F700FA07F6C7F120071EBF20FA07FCD7
:1002E00046EA0C062037B6FBF4FCA7EB0507103FE7
:1002F00007F01F0BCBF120060CFA0BFB2CFA06F6CD
:1003000044BFB3460026202FA4BF5E464FF0000B2B
:100310005BEA060C08BF4FF0010B19EB0B09ABFBB6
:10032000027C48EB0608C01B06FB02CC0BFB03CC8F
:1003300071EB0C01C1E70B46024641464846BDE859
:10034000F08B13B54FF000004FF00001AFF30080C9
:10035000BDE81C40704710B5002000F07DF8FFF7A5
:1003600051FFBDE81040012000F070B8032A40F2B0
:10037000308010F0030C00F0158011F8013BBCF147
:10038000020F624498BF11F801CB00F8013B38BF5F
:1003900011F8013BA2F1040298BF00F801CB38BF6D
:1003A00000F8013B11F0030300F05D80083AC0F053
:1003B000088051F8043B083A51F804CBA0E8081033
:1003C000F5E7121D5CBF51F8043B40F8043BAFF366
:1003D0000080D20724BF11F8013B11F801CB48BFC0
:1003E00011F8012B24BF00F8013B00F801CB48BFF6
:1003F00000F8012B70474FF0000200B513469446F9
:100400009646203922BFA0E80C50A0E80C50B1F16C
:100410002001BFF4F7AF090728BFA0E80C5048BF80
:100420000CC05DF804EB890028BF40F8042B08BF1E
:10043000704748BF20F8022B11F0804F18BF00F81A
:10044000012B704770477047704700000149182022
:10045000ABBEFEE72600020010B500F03DF8BDE897
:10046000104000F033B810B5203AC0F00B80B1E86E
:100470001850203AA0E81850B1E81850A0E81850D9
:10048000BFF4F5AF5FEA027C24BFB1E81850A0E8E2
:10049000185044BF18C918C0BDE810405FEA827CFC
:1004A00024BF51F8043B40F8043B08BF7047D20713
:1004B00028BF31F8023B48BF11F8012B28BF20F8B4
:1004C000023B48BF00F8012B70477047002801D05D
:1004D000FFF7BCBF7047000010B5002102A000F07C
:1004E00041F8012010BD0000534947414252543A9F
:1004F0002041626E6F726D616C207465726D696E01
:100500006174696F6E000000754600F04BF8AE46EE
:1005100005006946534620F00700854618B020B50F
:10052000FFF790FEBDE820404FF000064FF00007B7
:100530004FF000084FF0000B21F00701AC46ACE88B
:10054000C009ACE8C009ACE8C009ACE8C0098D46F8
:10055000704710B50446AFF300802046BDE8104058
:10056000FFF75BBE70B505460C460A2000E06D1C27
:1005700000F011F835B128780028F8D102E0641CA9
:1005800000F009F814B120780028F8D1BDE87040D7
:100590000A20AFF3008008B569468DF800000320FB
:1005A000ABBE08BD004870479C020020FEE77047C4
:1005B00072B6FEE72DE9F0410446876D00F066F95A
:1005C000064694F835000025022806D08020606594
:1005D00084F834500120BDE8F0812068016821F0E2
:1005E000160101602068416921F080014161206CA1
:1005F00008B9A06C20B12068016821F008010160F1
:100600002068016821F0010101600CE000F03EF972
:10061000801B052807D920206065032084F8350059
:1006200084F83450D7E720680068C007EED194F80A
:100630005C103F208840B860012084F8350084F8C1
:1006400034500020C7E790F83510022903D08021EC
:10065000416501207047052180F835100068016868
:1006600021F00101016000207047000070B50446D0
:1006700000F00CF90546601C02D0044800780444E0
:1006800000F004F9401BA042FAD370BD0000002026
:100690002DE9F84FDFF8BCA10022012503264FF019
:1006A0000F090AF1040BAAF1040E00BF0B6805FA4A
:1006B00002F42340A34270D10F7907F00307012F02
:1006C00001D0022F16D187684FEA420806FA08FCCB
:1006D00027EA0C07D1F80CC00CFA08FC4CEA070C0E
:1006E000C0F808C04768A7430C79C4F300149440CD
:1006F0003C4344600C79E443A4070AD0C4684FEA41
:10070000420C06FA0CF7BC438F6807FA0CF7274334
:10071000C7600C7904F00304022C12D1D40800EB5A
:10072000840CDCF820405707FF0E09FA07F824EA8A
:100730000804D1F8108008FA07F848EA0408CCF851
:10074000208004684FEA420C06FA0CF7BC430F798C
:1007500007F0030707FA0CF7274307604C6814F407
:10076000403F70D03C4C276847F48047276024689E
:1007700022F0030704F480440094384C07EB040C87
:10078000DCF8084897074FEA177809FA08F7BC43DE
:10079000334FB84202D1002724E054E0314FB84231
:1007A00001D101271EE0304FB84201D1022719E0E4
:1007B0002E4FB84201D1032714E02D4FB84201D18A
:1007C00004270FE02B4FB84201D105270AE02A4F3A
:1007D000B84201D1062705E0284FB84201D10727CA
:1007E00000E0082707FA08F72743CCF80878DAF87A
:1007F00000405746D1F804C09C435FEACC2C00D59A
:100800001C433C60DBF800405F46D1F804C09C43C9
:100810005FEA8C2C00D51C433C60DEF80040774634
:10082000D1F804C09C435FEA8C3C00D51C433C607B
:10083000084F083F3C68D1F804C09C435FEACC3CB9
:1008400000D51C433C60521C102AFFF42FAFBDE8BA
:10085000F88F0000083C014044380240003001405D
:10086000000002400004024000080240000C024068
:10087000001002400014024000180240001C024018
:100880000AB1816170470904FBE7000001488068F4
:10089000704700000000002002488168027811447F
:1008A00081607047000000200B4810B5016841F4DA
:1008B00000710160016841F480610160016841F4E8
:1008C00080710160032000F07BF80F2000F006F833
:1008D00000F024F8002010BD003C024070B50D4D22
:1008E00004464FF47A712878B1FBF0F00A490968A0
:1008F000B1FBF0F000F018FB48B9102C07D2002231
:100900002146501E00F03CF800206C6070BD0120B4
:1009100070BD0000000000200C0000200A4808B54F
:10092000016841F480410160006800F4804000905B
:100930000548001F016841F080510160006800F027
:100940008050009008BD000044380240002809DBB8
:1009500000F01F02012191404009800000F1E020D9
:10096000C0F880127047002809DB00F01F02012147
:1009700091404009800000F1E020C0F8001170476C
:10098000F0B40E4B1B680C46C3F30223C3F10705FA
:10099000042D00D90425191D072901D2002300E0E8
:1009A000DB1E012606FA05F1491E214099409E40B2
:1009B000761E16403143F0BC01F0C3B90CED00E0E7
:1009C000064900F0070208684FF6FF03184040EAA6
:1009D0000220034A10430860704700000CED00E05D
:1009E0000000FA052DE9F0470E46050065D0DFF856
:1009F0001481D8F80000F7B200F00700B04207D227
:100A000088F80070D8F8000000F00700B04254D118
:100A100028683D4C810712D5400703D5206840F473
:100A2000E05020602878000703D5206840F460403B
:100A300020602068A96820F0F00008432060287832
:100A4000C0072DD0304968680839012812D0022823
:100A500013D0032811D00968890700292DDA2168ED
:100A600021F0030101432160FFF710FF814641F2AD
:100A7000883A0EE009688903EFE709688901ECE725
:100A8000FFF704FFA0EB0901514502D90320BDE89F
:100A9000F0872068696800F00C00B0EB810FEFD19F
:100AA000D8F80010404601F00701B14207D907709D
:100AB000006800F00700B04201D00120E7E7287885
:100AC000400705D52068E96820F4E050084320601D
:100AD0002878000706D52068296920F4604040EA9C
:100AE000C100206000F038F82168084AC1F3031102
:100AF000515CC8400649086006480068FFF7EEFEF2
:100B00000020C4E7003C0240083802401A2A0008CE
:100B10000C00002004000020044805490068096812
:100B2000044AC1F38221515CC84070470C00002088
:100B3000083802402A2A0008044805490068096864
:100B4000044AC1F34231515CC84070470C00002098
:100B5000083802402A2A0008154810B5006810F02D
:100B60000C02144813D01449042A0FD0082A0ED1BD
:100B70000F4C241F2268236802F03F025B0207D556
:100B80002068C0F38810A0FB010106E0084610BDF4
:100B90002168C1F38811A1FB00010023FFF764FB6A
:100BA0002168C1F30141491C4900B0FBF1F010BDBF
:100BB000083802400024F40040787D012DE9F84F08
:100BC00004006ED02078DFF84C93C007A9F104052B
:100BD0004AD009F104000168C1F38101012908D05C
:100BE0000068C0F3810002280AD1D9F80000400251
:100BF00006D52868800337D560680028E1D033E047
:100C00006068B0F5803F10D0B0F5A02F286810D0F4
:100C100020F480302860286820F4802028606068F4
:100C2000A8B1FFF733FE06460DE0286840F4803097
:100C3000F4E740F480202860F7E700BFFFF726FEC6
:100C4000801B642873D828688003F7D50CE0FFF771
:100C50001DFE064605E000BFFFF718FE801B642856
:100C6000F0D828688003F7D42078DFF8AC828007BA
:100C70004FF0000A3ED5A748001D016811F00C0F87
:100C800008D00068C0F3810002280BD1D9F8000019
:100C9000400207D42868800716D5E068012800D1F3
:100CA00012E033E1E068B8B10120C8F80000FFF7B6
:100CB000EDFD064605E000BFFFF7E8FD801B0228BA
:100CC000C0D828688007F7D52868216920F0F80087
:100CD00040EAC10028600DE0C8F800A0FFF7D6FD8B
:100CE000064604E0FFF7D2FD801B02281FD82868C3
:100CF0008007F7D42078000722D5864F874861699E
:100D0000703771B101210160FFF7C0FD064604E0B4
:100D1000FFF7BCFD801B022809D838688007F7D58B
:100D20000EE0C0F800A0FFF7B1FD064605E082E046
:100D3000FFF7ACFD801B02287DD838688007F7D408
:100D40002078400768D5DFF8CCB100270BF13C0BC9
:100D5000DBF80000C0000BD4DBF8001041F080513C
:100D6000CBF80010DBF80000012700F08050009065
:100D70006B4E3068C00510D4306840F4807030602D
:100D8000FFF784FD009005E0FFF780FD0099401A11
:100D9000022850D83068C005F6D55E4EA0686C3683
:100DA00001280FD00528306810D020F001003060F5
:100DB000306820F004003060A068B8B1FFF766FD2D
:100DC00000900FE0306840F00100F4E740F00400CC
:100DD0003060F7E7FFF75AFD0099411A41F2883079
:100DE000814266D830688007F4D50EE0FFF74EFDEB
:100DF000009007E0FFF74AFD0099411A41F2883060
:100E0000814256D830688007F4D42FB1DBF8001047
:100E100021F08051CBF80010A069C8B33D49091DED
:100E20000968C1F3810102294AD00228504607D03F
:100E3000C8F8600000E03CE0FFF728FD04463BE016
:100E40004746C8F86000FFF721FD064605E000BFF1
:100E5000FFF71CFD801B02282BD828688001F7D4DF
:100E6000D4E907010843A16A2E4A490802EB01416F
:100E7000626A41EA8211084394F82C1040EA016149
:100E8000C9F8001001203866FFF700FD044606E0AF
:100E90003EE000BFFFF7FAFC001B022809D82868D3
:100EA0008001F7D534E000BFFFF7F0FC001B0228FB
:100EB00002D90320BDE8F88F28688001F4D427E028
:100EC0000128F7D0D9F80000E26900F480019142CE
:100ED0001CD1226A00F03F01914217D147F6C07140
:100EE000626A0140B1EB821F10D1A26A4FF0FF335A
:100EF00000F4403103EB5202B1EB024F06D194F8FB
:100F00002C1000F07060B0EB016F01D00120D1E730
:100F10000020CFE70438024000004742800E4742DD
:100F2000007000400000FFFF10B5401EB0F1807F50
:100F300001D3012010BD4FF0E02460610F21601744
:100F400000F0FFFE0020A06107202061002010BDFE
:100F50007047704770B590F83C20012A32D00124C8
:100F600080F83C40022280F83D2003685A689D6862
:100F700022F070060A6832435A60134B02689A42A4
:100F800014D0B2F1804F11D0104B9A420ED0104BBA
:100F90009A420BD00F4B9A4208D00F4B9A4205D081
:100FA0000E4B9A4202D00E4B9A4204D1496825F06A
:100FB00080031943916080F83D40002180F83C1087
:100FC000084670BD022070BD0000014000040040D2
:100FD00000080040000C00400004014000400140B7
:100FE0000018004010B5040003D094F83D0010B183
:100FF00007E0012010BD002084F83C00204600F0EE
:101000001FF8022084F83D00211D206800F090FCAC
:10101000012084F8460084F83E0084F83F0084F8FC
:10102000400084F8410084F8420084F8430084F8CA
:10103000440084F8450084F83D00002010BD000005
:1010400008B500680B49884212D10B48016841F08D
:10105000040101600068002200F0040000901146C5
:101060001E20FFF78DFCBDE808401E20FFF77BBC6B
:1010700008BD0000000800404038024070B504463A
:1010800090F83C000025012817D0012684F83C6028
:10109000022084F83D002068826822F0770222F462
:1010A0007F4282600868502838D00DDC20284FD05D
:1010B00005DC90B3102811D14AE0022070BD302821
:1010C00046D040280AD13BE060282FD070280DD0B0
:1010D000B0F5805F03D0B0F5005F12D0012584F831
:1010E0003D60002084F83C00284670BDCB68D1E903
:1010F0000121206800F084FC2068816841F07701BC
:1011000009E0CB68D1E90121206800F079FC206872
:10111000816841F480418160E1E719E0CA6849686B
:10112000206800F07FFC5021206806E0CA6849680A
:10113000206800F088FC6021206800F06BFCCEE79E
:10114000CA684968206800F06DFC40212068F4E717
:10115000226801461046F0E770472DE9F041044649
:101160000068C66805694FF00007A90713D5B107E5
:1011700011D5F91E01610120207720688069800760
:10118000204602D0FFF7E8FF04E000F07EF820469A
:1011900000F07CF82777680716D5700714D521680A
:1011A0006FF004000861022020772068806910F445
:1011B000407F204602D0FFF7CFFF04E000F065F843
:1011C000204600F063F82777280715D5300713D598
:1011D00021686FF008000861042020772068C0694A
:1011E0008007204602D0FFF7B7FF04E000F04DF87B
:1011F000204600F04BF82777E80616D5F00614D500
:1012000021686FF010000861082020772068C0690D
:1012100010F4407F204602D0FFF79EFF04E000F06C
:1012200034F8204600F032F82777E80708D0F007B6
:1012300006D021686FF001000861204600F028F810
:10124000280608D5300606D521686FF080000861B1
:101250002046FFF77DFE680608D5700606D5216892
:101260006FF040000861204600F01CF8A8060AD57F
:10127000B00608D521686FF0200008612046BDE85F
:10128000F041FFF766BEBDE8F0817047704700008F
:1012900000680349884201D101F0A6B970470000F7
:1012A000000800407047704770470000F8B50168BB
:1012B00004460868CA684B6910F00F0F4FF000052C
:1012C00059D003F0010602F49077374365D0C10787
:1012D00005D0D10503D5616C41F00101616441077E
:1012E00005D5D90703D0616C41F002016164810723
:1012F00005D5D90703D0616C41F004016164010791
:1013000007D502F02001314303D0616C41F00801A0
:101310006164616C00293AD0800604D5900602D53C
:10132000204600F0D0FB20684069616CC0F380105B
:10133000090700D460B3204600F09EFB2068406996
:10134000400621D52068143050E8001F21F04001EC
:1013500040E80012002AF5D1E06BA8B1724901659E
:10136000E06BFFF770F9002811D0E06B016D01B060
:10137000BDE8F040084783060FD593060DD52046FB
:10138000BDE8F84000F09FBB2046FFF78DFFF8BD99
:101390002046FFF789FF6564F8BD266B2023012EE8
:1013A0007ED1C6067CD5D6067AD5086848680090F6
:1013B00048694FF0020640064DD5E26B1068406860
:1013C0004FF480770004000C3AD0A18D814237D9C8
:1013D000E085D069B8422DD020680C3050E8001F5D
:1013E00021F4807140E80012002AF5D12068143001
:1013F00050E8001F21F0010140E80012002AF5D159
:101400002068143050E8001F21F0400140E800122D
:10141000002AF5D184F84230256320680C3050E86A
:10142000001F21F0100140E80012002AF5D1E06B06
:10143000FFF7C0F86663A08DE18D401A81B206E027
:10144000A18D8142A8D1D069B842A5D1666320465A
:10145000FFF729FFF8BDA08DE18D401A81B2E08D24
:101460000028F7D00029F5D020680C3050E8002F74
:1014700022F4907240E80027002FF5D12068143044
:1014800050E8002F22F0010240E80027002FF5D19C
:1014900084F84230256320680C3050E8002F00E0CB
:1014A00006E022F0100240E80023002BF3D1CDE744
:1014B00005062BD5150629D594F841002128C9D158
:1014C000A068B0F5805F01D12069B0B1206A411CED
:1014D0002162216800784860E08C401E0004000C06
:1014E000E084B7D12068C16821F08001C160206824
:1014F000C16841F04001C160F8BD206A0088C0F3B6
:1015000008004860206A801C2062E5E74006F3D5A9
:101510005006F1D5CA68204622F04002CA6084F81D
:10152000413000F01CF9F8BD6B1A000870B50400DA
:1015300004D094F84100002510B106E0012070BDF0
:1015400084F84050204600F023F8242084F841001D
:101550002068C16821F40051C160204600F014FBEE
:101560002068016921F4904101612068416921F0FE
:101570002A0141612068C16841F40051C16065647D
:10158000202084F8410084F842006563002070BD8B
:1015900010B586B0044614216846FEF72CFF1849A2
:1015A0002068884229D117480021026842F01002C1
:1015B0000260006800F010000590124814380268BC
:1015C00042F001020260006800F0010005904FF453
:1015D000C06000900220CDE90101032003900720A4
:1015E000049069460848FFF753F800221146252069
:1015F000FFF7C6F92520FFF7B6F906B010BD0000C9
:101600000010014044380240000002402DE9F84F2C
:10161000044690F842009A4616460D46202802D00D
:101620000220BDE8F88FB5B1AEB100206064222180
:1016300084F842102063FFF729F9A6858146E685E4
:10164000A0684FF480582027404501D1206920B17F
:101650002E46002529E00120E3E7002625E04B4641
:10166000002220212046CDF800A000F013FB18B185
:1016700084F842700320D4E726B1A06840451AD010
:1016800038B108E020684068C0F3080025F8020B74
:1016900008E0206978B12068406800F07F0000BF52
:1016A00006F8010BE08D401EE085E08D0028D6D1C4
:1016B00084F84270B5E720684068F1E770472DE98B
:1016C000F843044690F84100984616460D462028F7
:1016D00002D00220BDE8F88385B17EB100206064AD
:1016E000212084F84100FFF7D1F8A6848146E684E2
:1016F000A0682027B0F5805F02D003E00120E9E771
:10170000206910B12E4600250EE000260CE0802155
:10171000204600F0BFFAA8B9C6B116F8010B21683F
:101720004860E08C401EE084E08C4B464FF00002A5
:10173000CDF800800028EAD14FF04001204600F0AB
:10174000A9FA40B184F841700320C3E735F8020BD1
:10175000C0F30800E3E784F841700020BAE770475F
:10176000FEE7000070B586B014216846FEF743FE20
:1017700016480024016841F020010160016801F071
:1017800020010591016841F080010160016801F0CC
:1017900080010591016841F00101016000680C4E73
:1017A00000F001004FF4C065059000222946304644
:1017B000FFF766F801200095CDE90104694630463F
:1017C0000394FEF765FF06B070BD0000303802409C
:1017D0000014024010B586B000241748009401940C
:1017E0000294039404941349059401605321C0E9C1
:1017F000011440F2D661C0E903148461FFF7F2FBE3
:1018000008B1FEF7D5FE4FF48050009069460A48B3
:10181000FFF734FC08B1FEF7CBFE049404A9064898
:101820000594FFF797FB002801D0FEF7C1FE06B034
:1018300010BD000000080040E00000200C4810B57A
:101840000A4901604FF4E1314160002181600C22BE
:10185000C160C0E904128161C161FFF767FE002821
:1018600003D0BDE81040FEF7A3BE10BD001001403C
:1018700028010020FEE7FEE770477047FFF70CB82D
:1018800030B593B030216846FEF7B5FD14210CA8A1
:10189000FEF7B1FD1D480025016841F0805101604F
:1018A000006800F0805011901948016841F48041AF
:1018B00001600068022400F4804011900120039030
:1018C00010200490009406940820CDE90750A82029
:1018D000CDE9090404200B906846FFF76FF908B1C1
:1018E00072B6FEE70CA90F2081E831004FF4A0503A
:1018F0000F904FF48050109005210CA8FFF772F85C
:10190000002801D072B6FEE713B030BD4038024067
:10191000007000400248016841F4700101607047A6
:1019200088ED00E00148FFF718BC0000E00000204F
:10193000F0B50268274B284D284E294F294C4FF00F
:10194000804C984209D0604507D0A84205D0B042EB
:1019500003D0B84201D0A04204D122F0700E4A68F0
:1019600042EA0E0298421BD0604519D0A84217D017
:10197000B04215D0B84213D0A04211D01A4DA8429F
:101980000ED01A4DA8420BD0194DA84208D0194DBF
:10199000A84205D0184DA84202D0184DA84203D144
:1019A00022F44075CA682A434D6922F080022A4316
:1019B0008D68C5620D688562984201D0A04201D150
:1019C00009690163016841F004010160012141617D
:1019D0000260F0BD0000014000040040000800402B
:1019E000000C004000040140004001400044014060
:1019F0000048014000180040001C0040002000404A
:101A000010B5846842EA032224F47F440A43224347
:101A1000826010BD826822F070020A4342F0070122
:101A20008160704710B5036A046A24F001040462FF
:101A3000846924F0F00444EA021423F00A020A4301
:101A40008461026210BD10B5036A046A24F01004B8
:101A50000462846923F0A00324F4704444EA02324F
:101A600043EA01118261016210BD10B5806B002153
:101A7000C185FFF719FC10BD01680C3151E8002F3A
:101A800022F4907241E80023002BF5D10168143153
:101A900051E8002F22F0010241E80023002BF5D18C
:101AA000016B012909D101680C3151E8002F22F0A6
:101AB000100241E80023002BF5D1202180F84210CC
:101AC00000210163704708B590F84210222901D027
:101AD000022008BD82684FF480539A4201D1016907
:101AE00021B1816A9A421BD04AB10AE00268816A38
:101AF0005268C2F308020A80816A891C08E0026900
:101B000072B10268526802F07F020A70816A491C51
:101B10008162C18D491E0904090CC18503D01BE0F7
:101B200002685268F1E70168CA6822F02002CA60C0
:101B30000168CA6822F48072CA6001684A6922F0AA
:101B400001024A61202180F8421000214163026BAA
:101B5000012A03D0FFF7B2FD002008BD0163016830
:101B60000C3151E8002F22F0100241E80023002B35
:101B7000F5D101680A68D20602D50A684968009161
:101B8000818DFFF790FBE7E770B5044600680169B7
:101B9000E26821F44051114301612169A068E269C2
:101BA00008436169114308432168CA6849F20C631C
:101BB0009A430243CA6020684169A26921F44071D6
:101BC0001143416131492068884202D0304988423E
:101BD00002D1FEF7B1FF01E0FEF79EFFE2690023AC
:101BE000192164253226B2F5004F626828D0A0FB87
:101BF0000101930F9200FEF737FB0146B0FBF5F0B1
:101C00006FF01802504301EB800006EB0010B0FBB0
:101C1000F5F000F0F002B1FBF5F002EB0012B1FBC1
:101C2000F5F06FF01803584301EB800006EB00104D
:101C3000B0FBF5F000F00F0021681044886070BD23
:101C4000A0FB010192185B41FEF70EFB0146B0FBC1
:101C5000F5F00201B1FBF5F06FF01803584301EB0A
:101C6000800006EBC000B0FBF5F000F0F80002EBDE
:101C70004002B1FBF5F0584301EB800006EBC000D9
:101C8000B0FBF5F000F00700D6E7000000100140BF
:101C9000001401402DE9F843984617460D460446C6
:101CA000089E24E0701C22D0FEF7F0FDA0EB080097
:101CB000B0421AD8CEB12068C168490717D5802D27
:101CC00015D0402D13D00168C94309070FD401680E
:101CD0000025406800902046FFF7CEFE0820606493
:101CE00084F840500120BDE8F8830320FBE720681A
:101CF000006835EA000004D00020B842D2D00020AD
:101D0000F1E70120F9E7000010B50C48FFF7CEFA23
:101D10000A4C2068C068800601D500F06BFC206882
:101D2000C068000601D500F06BFC2520FEF70EFE12
:101D3000BDE810400148FFF7B9BA000028010020B3
:101D4000FEE70907090E002804DB00F1E02080F817
:101D50000014704700F00F0000F1E02080F8141D1F
:101D60007047000070B5084600241546012181F334
:101D700010880A4A0A21D1700722294600F0B4FDD2
:101D8000012805D144F6206000F0BEFD012800D0F6
:101D90000324002080F31088204670BD100000202E
:101DA0002DE9F0410746002516468846012080F3BC
:101DB00010880F4CA088FF2801D9FEF7CCFAA08824
:101DC000032804D3A188A06800F002FC30B10525E7
:101DD000002080F310882846BDE8F081A06810F844
:101DE000011B3970A188891E3180C8F80000EFE717
:101DF0001000002070B503460025012080F31088F4
:101E0000104C607828B10525002080F31088284602
:101E100070BD491E0126E1600846E6800B70E1882E
:101E20001144E180E18800F0D3FB0146E088A2681C
:101E30000244401CE080117026700121002000F057
:101E4000FBFBE1E71000002010B5012080F31088B3
:101E5000002100F0F1FB04490020487080F3108855
:101E6000BDE8104000F02ABD1000002010B5012090
:101E700080F310880021084600F0DEFB00F0F4FB40
:101E8000002080F3108810BD70B5064D002428781E
:101E9000012802D00624204670BD28698047002012
:101EA0002870F8E73000002070B50C46098800253E
:101EB00005292FD1417840F2CF760A02817811436B
:101EC000C278491C1302027989B21A43531EB342E5
:101ED00020D200232380012300F8013B2688761CB2
:101EE0002680560703D003EBD203DEB201E0C2F333
:101EF000C70600F8016B23885B1C2380002300F0D9
:101F000005FB18B100F04AFB054604E02088304488
:101F1000208000E00325284670BD70B50C46098876
:101F2000002505292FD1417840F2CF760A02817829
:101F30001143C278491C1302027989B21A43531E15
:101F4000B34220D200232380022300F8013B2388E0
:101F50005B1C2380530704D0012303EBD203DEB2C2
:101F600001E0C2F3C70600F8016B23885B1C2380E5
:101F700000F0CEFA18B100F011FB054604E020880D
:101F80003044208000E00325284670BD70B50C4623
:101F900009880026052925D1417805790A0281782A
:101FA0001143491C6A1E89B27C2A1BD80022228058
:101FB000032200F8012B22880023521C22806A0091
:101FC00000F8012B2288521C22802A4600F0A2FA37
:101FD00018B100F0E3FA064605E0208800EB450062
:101FE000208000E00326304670BD70B50C4609889D
:101FF0000026052927D1417805790A028178114305
:10200000C278491C45EA02256A1E89B27C2A1AD286
:1020100000222280042200F8012B2288521C2280F8
:102020006A0000F8012B2288521C22802A4600F008
:1020300073FA18B100F0B2FA064605E0208800EB0A
:102040004500208000E00326304670BD2DE9F041B8
:102050000446088800270D460A2842D3607826796E
:102060000102A078227A0843401C1FFA80F8E07829
:1020700046EA00266079731E0102A0790843401CDD
:1020800081B2E0797C2B42EA0022607A28D83AB308
:10209000792A25D8B0EB420F22D1012304F10A009E
:1020A00000F038FA98B90021298017212170298879
:1020B000601C491C2980710000F8011B298800233D
:1020C000491C29803246414600F024FA18B100F03C
:1020D00065FA074605E0288800EB4600288000E006
:1020E00003273846BDE8F08170B5064C0D46064919
:1020F0002288401CFEF73AF92088401C28800020E6
:1021000070BD0000200000207001002038B5098853
:10211000002405290BD141780A0281781143491C1A
:10212000027989B21AB9C278FF2A03D012B1032406
:10213000204638BD00228DF80120C078FF280CD041
:102140008DF8002001231A46684600F0DFF90028C8
:10215000EED000F023FA0446EAE701208DF80000F3
:10216000F0E710B509880024052902D00324204691
:1021700010BD417801230A028178C01C1143491C1B
:1021800089B21A4600F0C6F90028F0D000F006FA2D
:102190000446ECE72DE9F0410D46098800240529A5
:1021A00026D9417843790A0281781143491C8EB2BD
:1021B000C178027942EA0122510704D0012101EBE2
:1021C000D201C9B201E0C2F3C701571EB7F5F66FDD
:1021D0000ED299420CD101233146801D00F096F9B0
:1021E00018B100F0DBF9044603E00520288000E088
:1021F00003242046BDE8F08170B50D46098800240F
:1022000006291DD341780A0281781143C278491CFE
:102210001302027989B21A434379561E772E0FD8DA
:102220005606360E9E420BD10123801D00F072F936
:1022300018B100F0B3F9044603E00520288000E05F
:102240000324204670BD00002DE9F0411D46069B89
:102250001746064641B1F72906D81E4C084621719B
:1022600000211EB1012E15D002252EE01A4A22614E
:102270001A4A62611A4AE2601A4AC4E906211A49F6
:1022800021621A4961621A49A1622A46394600F060
:1022900099F812E0174A2261174A6261174AE26010
:1022A000174AC4E906211749216217496162174993
:1022B000A1622A463946FFF755FD050005D100F019
:1022C000F5FA28B16671012020702846BDE8F0813A
:1022D0000325FAE730000020CD240008F12400088F
:1022E000692400080D2400080D290008B5290008FC
:1022F00075290008491E00086D1E0008F51D00081C
:10230000A11D0008D1260008E5270008B527000810
:1023100038B52B4C207808B1062038BD684600F04F
:10232000B7FA01284AD19DF80000E8B3012802D08D
:10233000022843D10FE0224AA369921D911CC81FB5
:10234000984788BB60782179884200D060BB022022
:1023500000F0B4FA32E0A0680121194B0278A270B3
:10236000E170002113F12C0313F8315065B195424F
:1023700007D103EBC1014A681149891D9047E070FC
:1023800002E0491C1029EFDB607868B1E07880B189
:102390000021E180A17841F08002A1680A70E28802
:1023A000521C92B2E28000E008E08854E088401CB1
:1023B000E080D4E90213E28820799847002038BDF4
:1023C0003000002070B5084600241546012181F335
:1023D00010880822294600F087FA01280DD1B5F5AA
:1023E000964F01D9232003E007496800B1FBF0F0C4
:1023F00080B200F089FA012800D00324002080F385
:102400001088204670BD0000A07F17002DE9F04124
:102410000746002516468846012080F31088104C98
:10242000A088FF2801D9FDF796FFA088042804D3CF
:10243000A1880C4800F0EAF830B10525002080F3AF
:1024400010882846BDE8F081064800783870A088DA
:10245000C01E30800348401CC8F80000EEE70000B2
:10246000240000209001002070B5034600250120C3
:1024700080F31088134C6078012805D005250020D2
:1024800080F31088284670BD491E0126A1600846C9
:1024900066800B70618811446180618800F0B6F835
:1024A0006188094A5318491C61801870010A6088C4
:1024B0000244401C6080117026700121002000F051
:1024C000BBF8DCE7240000209001002010B50120BB
:1024D00080F310880548002444702146012000F054
:1024E000ABF800F0DFF884F3108810BD2400002062
:1024F00010B5012080F310880021084600F09CF8F8
:1025000000F0B2F8002080F3108810BD0120704761
:102510000120704701207047F0B5114B12240025AF
:102520001C8034245C8056249C807824DC8099B103
:102530008C180B2C10D800240BE0661803EB460611
:1025400036F8027D3F0A00F8017B367800F8016B0F
:10255000641C9442F1DB00E001252846F0BD000038
:102560009002002008B5FEF79FF9FFF789F9FFF701
:10257000F9F8FFF763F9FFF72DF9002001224FF476
:10258000E13311460090FFF75FFEFFF77DFC00BFCF
:10259000FFF7BEFE0120FEF769F8F9E7002804D036
:1025A000012803D0072803D0042070470220704779
:1025B0000620704710B5092801D8303004E0A0F19A
:1025C0000A01052902D83730C0B210BDFDF7C3FE9D
:1025D000002203E010F8013B1A44D2B2491E89B22E
:1025E000F8D25042C0B2704701480068004700006E
:1025F00058000020014800680047000050000020FB
:1026000001480068004700005400002070B5094DE3
:10261000FF231A4605F5807606E000BF10F8014B4F
:1026200054402A5D5A40335D491E89B2F6D242EACF
:10263000032070BD322A00080A4B00281A68D068AF
:1026400002D040F0200001E020F02000D0601868A7
:102650000029C16802D041F0800101E021F0800131
:10266000C1607047280100200D4801680A6A41F2E4
:1026700011131A4207D10A6A9B101A4203D10A6841
:1026800022F001020A600268002151620168CA68F2
:1026900022F00102CA6000686FF001010161704719
:1026A000E000002009486FF0010102681161016833
:1026B000CA6842F00102CA600268002151620068E3
:1026C000016841F00101016070470000E000002056
:1026D000F8B5374C0027207808B1FDF73CFE684676
:1026E00000F0F4F860780025012670B3012802D0CC
:1026F00002285AD139E0FFF7D5FF9DF800003A28AB
:1027000007D00D2808D0A0F13001092907D8C8B298
:102710000DE0A570A58048E00220607045E0A0F1C2
:102720004101052902D83738C0B200E0FF20A17866
:1027300011B1012939D10DE0A188FF2906D8A2885D
:10274000A16800018854A6702FE025E06570FFF7AE
:102750008BFF2AE0A288A16811440A7802430A701C
:10276000A088401CA080A5701FE09DF80000E178C3
:10277000884207D1FFF778FF6570012000F09EF8CE
:10278000074612E03A2801D065700EE0A570A580DA
:102790006670FFF787FF08E09DF800003A2804D133
:1027A000FFF780FFA580A57066703846F8BD000071
:1027B000100000200A4810B54178012909D00229EB
:1027C00007D04178012906D04078022803D0FDF7D0
:1027D000C2FD00214170FFF747FF002010BD00003F
:1027E0001000002070B5294C0026607808B1FDF774
:1027F000B2FD20780025052846D2DFE800F041032D
:102800000A3136003A2000F071F802202070A570DD
:102810003AE0E088F0B1A1781C48C06811B1012904
:1028200032D108E000780009FFF7C4FE00F05EF83E
:102830000120A07028E0007800F00F00FFF7BAFE3A
:1028400000F054F8E068401CE060A570E088401E8D
:10285000E08019E00D2000F049F80320207013E01B
:10286000E07800F043F80420F8E72570032000F03A
:1028700025F8064600210120FFF7DEFE257003E063
:1028800000210120FFF7D8FE304670BD1000002067
:102890000549024600204B78002B04D008781070C0
:1028A0000020487001207047DC0000200249002011
:1028B0004870012070470000DC000020024901221E
:1028C0004A70087010467047DC00002010B50123E4
:1028D00001461A460348FEF799FE08B1002010BDD4
:1028E000012010BD280100200120704701B50123FF
:1028F0001A4669460348FEF7E2FE08B1002008BD0B
:10290000012008BD280100200120704738B5174C70
:102910000025207808B1FDF71EFD6846FFF7D6FFB9
:10292000607830B1124A012807D0022810D003285D
:1029300001D1FFF7B7FE284638BD0020A0809DF8E2
:102940000000A1880A44491CA180107002200BE0FD
:10295000A088FF2807D89DF80010A0880244401CDA
:10296000A0801170E5E703206070E2E724000020FA
:102970009001002070B50E4D0024687870B10228D7
:102980000BD003280DD0687858B16878022808D099
:102990006878032805D0FDF7DEFC0120FFF78EFFE5
:1029A0000446FFF761FE01206870204670BD0000FC
:1029B0002400002070B5154C00256078012801D056
:1029C000FDF7C9FC207810B101281CD104E00021DA
:1029D0000120FFF731FE16E0608850B1A068007852
:1029E000FFF784FFA068401CA0606088401E6080E4
:1029F00009E00320FFF762FF054600210120FFF7F1
:102A00001BFE00202070284670BD0000240000201E
:102A10004FF04070E1EE100A704700000000000027
:102A2000000001020304060708090000000001027B
:102A3000030400C1814001C0804101C0804100C148
:102A4000814001C0804100C1814000C1814001C07E
:102A5000804101C0804100C1814000C1814001C06E
:102A6000804100C1814001C0804101C0804100C15E
:102A7000814001C0804100C1814000C1814001C04E
:102A8000804100C1814001C0804101C0804100C13E
:102A9000814000C1814001C0804101C0804100C12E
:102AA000814001C0804100C1814000C1814001C01E
:102AB000804101C0804100C1814000C1814001C00E
:102AC000804100C1814001C0804101C0804100C1FE
:102AD000814000C1814001C0804101C0804100C1EE
:102AE000814001C0804100C1814000C1814001C0DE
:102AF000804100C1814001C0804101C0804100C1CE
:102B0000814001C0804100C1814000C1814001C0BD
:102B1000804101C0804100C1814000C1814001C0AD
:102B2000804100C1814001C0804101C0804100C19D
:102B3000814000C0C101C30302C2C60607C705C564
:102B4000C404CC0C0DCD0FCFCE0E0ACACB0BC909D5
:102B500008C8D81819D91BDBDA1A1EDEDF1FDD1DE5
:102B60001CDC14D4D515D71716D6D21213D311D115
:102B7000D010F03031F133F3F23236F6F737F53565
:102B800034F43CFCFD3DFF3F3EFEFA3A3BFB39F995
:102B9000F83828E8E929EB2B2AEAEE2E2FEF2DED65
:102BA000EC2CE42425E527E7E62622E2E323E121D5
:102BB00020E0A06061A163A3A26266A6A767A565E5
:102BC00064A46CACAD6DAF6F6EAEAA6A6BAB69A955
:102BD000A86878B8B979BB7B7ABABE7E7FBF7DBD65
:102BE000BC7CB47475B577B7B67672B2B373B17195
:102BF00070B0509091519353529296565797559565
:102C000094549C5C5D9D5F9F9E5E5A9A9B5B995914
:102C10005898884849894B8B8A4A4E8E8F4F8D4DE4
:102C20004C8C448485458747468682424383418154
:102C300080400000542C000800000020E00000004C
:102C4000C4010008342D0008E00000202008000026
:102C5000E00100080100000010000000000000007A
:102C60000024F4000000000000000000900100209B
:102C70000000000000000000000000000000000054
:102C80000000000002000000000000000000000042
:102C90000000000000000000000000000000000034
:102CA0000000000000000000000000000000000024
:102CB00011000000E920000804000000EB1F0008DC
:102CC000030000008D1F000810000000F92100081B
:102CD0000600000063210008170000004D200008D6
:102CE00001000000A91E0008050000000D210008D9
:102CF0000F00000095210008020000001B1F0008C3
:102D000000000000000000000000000000000000C3
:102D100000000000000000000000000000000000B3
:102D200000000000000000000000000000000000A3
:042D3000000000009F
:040000050800018965
:00000001FF
