:020000040800F2
:1000000000820020B90200087B530008B34A0008B0
:100010007953000885220008F57F000800000000E1
:100020000000000000000000000000002D67000834
:1000300007230008000000009D61000819790008EE
:10004000D3020008D3020008D3020008E5630008C9
:10005000D3020008D3020008D3020008D30200082C
:10006000D3020008D3020008D3020008BD22000812
:10007000D3020008D3020008D3020008D30200080C
:10008000D3020008D3020008D3020008D3020008FC
:10009000D3020008D3020008D3020008D3020008EC
:1000A000D3020008657A0008D3020008D3020008D2
:1000B000D57A0008F97A0008117B0008D3020008FD
:1000C000D3020008D3020008D3020008D3020008BC
:1000D000D3020008D17E0008D3020008D302000832
:1000E000D3020008D3020008D3020008D30200089C
:1000F000617B0008D30200085D7B0008D302000882
:10010000D3020008D3020008457B0008D302000890
:10011000D3020008D3020008517B0008D302000874
:10012000D3020008D3020008D3020008D30200085B
:1001300000F002F800F0B0F80AA090E8000C824449
:100140008344AAF10107DA4501D100F0A5F8AFF226
:10015000090EBAE80F0013F0010F18BFFB1A43F0A5
:1001600001031847D0830100F08301000A444FF0D7
:10017000000C10F8013B13F0070408BF10F8014B06
:100180001D1108BF10F8015B641E05D010F8016B4B
:10019000641E01F8016BF9D113F0080F1EBF10F8AF
:1001A000014BAD1C0C1B09D16D1E58BF01F801CBD2
:1001B000FAD505E014F8016B01F8016B6D1EF9D555
:1001C0009142D6D37047000000230024002500266A
:1001D000103A28BF78C1FBD8520728BF30C148BFAA
:1001E0000B6070476E2900F00786702900F0978237
:1001F000662913F02386652913F02086672913F0FA
:100200001D86612913F01C8603681B0A28BF41F074
:100210008001692900F0CA81642900F0C78175292D
:1002200000F0C4816F2901F0D880782900F0638242
:10023000E92900F0F781E42900F0F481F52900F0C4
:10024000F181EF2901F0D580F82900F0628203687E
:10025000DB0928BF41F08001632901F02080732968
:1002600001F02580E32901F09B82F32901F0A082AF
:10027000002070471FB501F0C7F8040000200021DE
:1002800013F042F8401C60600020002113F026F8B3
:10029000E0601FBD10B510BD01F028FB1146FFF74F
:1002A000E9FF10F0B1F901F04FFB03B4FFF7F2FFE3
:1002B00003BC07F0D3FF0000094880470948004706
:1002C000FEE7FEE7FEE7FEE7FEE7FEE7FEE7FEE706
:1002D000FEE7FEE704480549054A064B7047000063
:1002E000A379000831010008007C00200082002072
:1002F000007E0020007E0020704753EA020C00F0D0
:1003000069802DE9F04B4FF00006002B1FBFB3FAB8
:1003100083F503FA05F424FA05F65E4012BF16438E
:10032000B2FA82F502FA05F4C5F120051EBF22FAE1
:1003300005FC44EA0C04203556EA044C4FEA144408
:1003400018BF641C4FF000084FF00009904271EB99
:10035000030C39D3002919BFB1FA81F701FA07F666
:10036000B0FA80F700FA07F6C7F120071EBF20FA9F
:1003700007FC46EA0C062037B6FBF4FCA7EB0507A2
:10038000103F07F01F0BCBF120060CFA0BFB2CFAE9
:1003900006F644BFB3460026202FA4BF5E464FF0AA
:1003A000000B5BEA060C08BF4FF0010B19EB0B09C1
:1003B000ABFB027C48EB0608C01B06FB02CC0BFB28
:1003C00003CC71EB0C01C1E70B460246414648469F
:1003D000BDE8F08B13B54FF000004FF00001AFF314
:1003E0000080BDE81C407047B2F120030AD5C2F17D
:1003F000200301FA02F120FA03F300FA02F041EAC5
:100400000301704700FA03F14FF000007047B2F1AA
:1004100020030AD5C2F1200320FA02F001FA03F307
:1004200021FA02F140EA0300704721FA03F04FF08D
:1004300000017047B2F120030AD5C2F1200320FA6F
:1004400002F001FA03F341FA02F140EA03007047B7
:1004500041FA03F04FEAE171704700007CB51D4698
:1004600016460C00009001D02044401E074B7B44F0
:100470002A4669460190304600F0E7FE05461CB169
:100480000020694600F0F4FE28467CBD090E0000FD
:100490000FB4044910B503AA029800F00DFF10BC78
:1004A0005DF814FB340300200FB41CB5084B06AAFA
:1004B0007B4469460090059800F0C7FE0446002082
:1004C000694600F0D5FE20461CBC5DF814FB000018
:1004D000BD0D00000FB47CB50C0009AA009001D03E
:1004E0002044401E084B7B4469460190089800F068
:1004F000ACFE05461CB10020694600F0B9FE284656
:100500007CBC5DF814FB0000910D000070B5044642
:1005100085690068C10601D5302600E02026C007A5
:1005200007D070BDD4E9012130469047206A401CB5
:1005300020626D1EF6D570BD70B5044685690078E1
:10054000C00707D170BDD4E9012120209047206A5F
:10055000401C20626D1EF6D570BD70B50C46054678
:10056000012A05D02878800600D5EA69002302E038
:10057000012305E05B1C934202D2E05C0028F9D124
:10058000A869E618C01AA861286A18442862284693
:10059000FFF7BCFF04E0D5E9012114F8010B9047F7
:1005A000B442F8D32846FFF7C7FF70BD2DE9F041EC
:1005B0000646002410687529314616A510D000F0B3
:1005C000B0FB002802DA404213A507E031688A0731
:1005D00001D512A502E0490704D511A5012401E0C7
:1005E00000F0A8FB00210A2206F1240709E0B0FB75
:1005F000F2FCB0FBF2F302FB1C00303078541846DA
:10060000491C0028F3D123462A463046BDE8F04174
:1006100000F099BB000000002D0000002B0000003E
:10062000200000002DE9F0418046D21D22F0070293
:100630000025D2E90002F52915A614D0011E72F199
:10064000000106DA0023D0EB030063EB020211A6DF
:1006500008E0D8F800108B0701D50FA602E0490783
:1006600001D50EA601251146002408F1240704E057
:1006700000F012FB30323A55641C50EA0102F7D107
:100680002B46324621464046BDE8F04100F05BBBB8
:10069000000000002D0000002B00000020000000E2
:1006A000F0B40D460188090502D5214C7C4402E0D6
:1006B0001F4C7C440E34002100F1240608E002F0B7
:1006C0000F071209E75D42EA03721B097754491CC0
:1006D00052EA0307F3D102780023120704D5702DE4
:1006E00006D009B1022311342246F0BC00F02BBB26
:1006F00001231034F8E770B504460D462146106812
:1007000000F018FB024629462046BDE87040002351
:10071000C6E7D21D22F00703D3E90023C0E7036830
:10072000126843F0200303600823C3610023B7E786
:10073000CC6C01002DE9F05F894604464FF0000AB9
:10074000DFF874B1FB44C0F820A02046E168884778
:10075000002874D0252806D0D4E901219047206ACA
:10076000401C2062F1E700265F462046E16888478A
:100770002028054607DB312D05D2781910F8200C0A
:1007800008B10643F1E7B00701D526F00406C4F826
:100790001CA00027C4F818A02A2D09D0284607F06D
:1007A00056FD38B304EB8708303DC8F8185019E0FF
:1007B00059F8041B204604EB87029161E1688847E1
:1007C000012F054618D1E069002820DA26F020061E
:1007D0001DE0D8F8180000EB800005EB4000303831
:1007E000C8F818002046E1688847054607F02FFD45
:1007F0000028EED1012F0AD02E2D08D12046E16825
:1008000088477F1C0546022F46F02006C4DBA069FE
:10081000002803DA404246F00106A061F00701D04B
:1008200026F010066C2D0BD0682D09D04C2D39D038
:100830006A2D35D0742D35D07A2D33D016E038E0BE
:10084000E1682F4620468847B842054609D16C2FFB
:1008500026D04FF48060E16806432046884705466D
:1008600004E06C2F1AD04FF4807006430DB3A5F14D
:100870004100192802D8203546F400664A46294628
:10088000204626604E46FFF7ADFC80B101280BD014
:10089000F61D26F0070000F1080956E74020E4E7BE
:1008A0008020D8E70020D6E706F104094DE7284666
:1008B00052E7206ABDE8F09F5C6C0100401ECAB29E
:1008C00010F8011F8A4202D00029F9D10020704798
:1008D00030B505460B462A4613F8014B12F8010BBA
:1008E00008B1A042F8D01CB1002802D06D1CF1E77D
:1008F000284630BD40EA010310B59B070FD1042AFA
:100900000DD310C808C9121F9C42F8D020BA19BADA
:10091000884201D9012010BD4FF0FF3010BD1AB13F
:10092000D30703D0521C07E0002010BD10F8013B94
:1009300011F8014B1B1B07D110F8013B11F8014BBB
:100940001B1B01D1921EF1D1184610BD40EA0103D4
:10095000024630B59B0710D14FF0013400E008C2C9
:1009600008C91D1B9D4315EAC41FF8D013F0FF01F1
:1009700002F8011B0DD01B0AF8E711F8013B002B10
:1009800002F8013B05D011F8013B002B02F8013BB6
:10099000F3D130BD10B5431C02E010F8011B71B15A
:1009A0008107FAD14FF0013202C88C1A8C4314EA45
:1009B000C211F9D0C01A0A0603D0C01E10BDC01A59
:1009C00010BD0A0401D0801E10BD0902FCD0401EDB
:1009D00010BD40EA010370B59B072ED14FF00136E0
:1009E000042A2AD308C810C99D1B9D43121F15EA6B
:1009F000C61517D0D8B2E1B2401A50EA056110D13D
:100A000098B2A1B2401A50EA05410AD123F07F40C2
:100A100024F07F41401A50EA052102D1180EA0EBC4
:100A2000146070BDA342DBD018BA21BA884201D944
:100A3000012070BD4FF0FF3070BD0AB9002070BDBD
:100A400010F8013B11F8014B63B1A3420AD1521EC9
:100A500008D010F8013B11F8014B1BB1A34201D1A2
:100A6000521EEDD1181B70BD421E12F8013F002B23
:100A7000FBD111F8013B002B02F8013BF9D1704783
:100A8000032A40F2308010F0030C00F0158011F8BA
:100A9000013BBCF1020F624498BF11F801CB00F892
:100AA000013B38BF11F8013BA2F1040298BF00F8E6
:100AB00001CB38BF00F8013B11F0030300F02580A3
:100AC000083AC0F0088051F8043B083A51F804CBCA
:100AD000A0E80810F5E7121D5CBF51F8043B40F890
:100AE000043BAFF30080D20724BF11F8013B11F89B
:100AF00001CB48BF11F8012B24BF00F8013B00F8DF
:100B000001CB48BF00F8012B704710B5203AC0F068
:100B10000B80B1E81850203AA0E81850B1E81850FE
:100B2000A0E81850BFF4F5AF5FEA027C24BFB1E83B
:100B30001850A0E8185044BF18C918C0BDE81040AC
:100B40005FEA827C24BF51F8043B40F8043B08BFB5
:100B50007047D20728BF31F8023B48BF11F8012B7C
:100B600028BF20F8023B48BF00F8012B704702F075
:100B7000FF0343EA032242EA024200F002B84FF0C8
:100B800000020429C0F0128010F0030C00F01B805A
:100B9000CCF1040CBCF1020F18BF00F8012BA8BF68
:100BA00020F8022BA1EB0C0100F00DB85FEAC17C2C
:100BB00024BF00F8012B00F8012B48BF00F8012BDF
:100BC00070474FF0000200B5134694469646203910
:100BD00022BFA0E80C50A0E80C50B1F12001BFF4F6
:100BE000F7AF090728BFA0E80C5048BF0CC05DF85C
:100BF00004EB890028BF40F8042B08BF704748BFAA
:100C000020F8022B11F0804F18BF00F8012B70471D
:100C10004FF0013C50F8042B51F8043B9A4221D18B
:100C2000A2EB0C03934313EACC1317D150F8042B17
:100C300051F8043B9A4215D1A2EB0C03934313EAFB
:100C4000CC130BD150F8042B51F8043B9A4209D134
:100C5000A2EB0C03934313EACC13DBD04FF000005C
:100C6000704700BFD01A01BAB1FA81F101F0180142
:100C700022FA01F0CB40C1F12001DBB2C0B2C01AB0
:100C80002CFA01F3D11A914311EAC311E6D170474E
:100C9000704770477047704730B5B0F10A024FEAAD
:100CA000900E71F100034EEA817EB0EB0E0061EB15
:100CB00091014FEA101E4EEA017E10EB0E0041EB4F
:100CC00011114FEA102E4EEA016E10EB0E0041EBAF
:100CD00011214FEA104E4EEA014E10EB0E0041EB8F
:100CE0001141401841F100014FEAD00040EA417043
:100CF0004FEAD10110EB80054FEA810444EA907479
:100D000044EB01046D1944EB0404521BA3414FF062
:100D1000000348BF0A3200D530BD401C41F100013C
:100D200030BD09684A0501D540B27047C905FCD5F8
:100D300000B2704709684A0501D5C0B27047C905BD
:100D4000FCD580B270472DE9F0470D469946924692
:100D5000044600F124080168880604D5E06921F002
:100D60001001216000E00120A84201DD471B00E0E6
:100D70000027A1697A1902EB0900081AA0612078FE
:100D8000C00602D42046FFF7C1FB002608E0D4E9E4
:100D900001211AF806009047206A401C761C206248
:100DA0004E45F4DB2078C0060AD52046FFF7AEFB9F
:100DB00006E0D4E9012130209047206A401C2062DF
:100DC000381EA7F10107F4DC07E0D4E9012118F887
:100DD00005009047206A401C2062281EA5F10105ED
:100DE000F3DC2046FFF7A8FB2078000602D502209E
:100DF000BDE8F0870120FBE711680268006A53052F
:100E000001D508700AE0D30501D5088006E0130675
:100E100003D5C217C1E9000200E008600120704755
:100E200070472DE9FF4F0C461E464FF0FF378BB041
:100E3000D2E90001DDF860800A908A46C1F30A55C4
:100E400005B93D46002108464FF00000BAF1000FF9
:100E500000F4400005DA00EB80004FF4400101EAA5
:100E600050004FEA9059B9F1010F00DDB9460A98D8
:100E700050EA4A000ED044F61050A5F2FF35454323
:100E80002F14B8F1000F1ED07542291E1EDDC9F1C6
:100E900000021CE0B8F1010F4FF0000001D030213A
:100EA00003E0F24305E02154401CB042FBDB304636
:100EB0000022002121540B99C1F80880C1E90020CB
:100EC0000FB0BDE8F08FBD1B6D1CDEE74A4600DAAF
:100ED000694206A800F070FC06AB93E8070003AB7C
:100EE00083E8070050460A9900F037FD8DE80700B7
:100EF000A0F500501F3800900398002D0ADD42F243
:100F00001F014A460844002303A90390684600F0E5
:100F1000A0FF09E0A0F500504A461F38002303A9AE
:100F20000390684600F0AAFF8DE807000004000C5B
:100F300003D04FF0FF30410800E01046B8F1000F39
:100F400003D00022009215461EE0751E05D4FFF75F
:100F5000A3FE303262556D1EF9D5B3460122084317
:100F600002D000227F1C04E02078302801D100222A
:100F70007F1E002A099784D01DE0112D07DAFFF7A4
:100F80008BFE303262556D1C50EA0102F5D10843E8
:100F900002D00098C8B10EE00021681E05E0235C75
:100FA000625C63542254401E491C8142F7DBAB460D
:100FB000A81B401E0990002004F80B000B98099A0A
:100FC000C0F80880C0E9002B7AE711264FF000082E
:100FD00057E72DE9F04F88460446D21D22F007015D
:100FE00091B0D1E90001CDE90A0107F00CF9024600
:100FF0000B98C00F01D02D2007E02068810701D594
:101000002B2002E0202101EAC000032A099001D030
:10101000072A05DB03464146204600F077FB0BE13B
:101020002078800601D5E06900E00620B8F1650F60
:10103000814606D0B8F1660F18D0B8F1670F70D1AD
:1010400031E00020B9F1110F009001DB112301E024
:1010500009F101030AAA01A90CA8FFF7E2FEDDE9E4
:101060000C70002609F10105834647E001204B463C
:1010700000904FF000470AAA01A90CA8FFF7D1FE83
:10108000DDE90DB00C995D46002610B909F10100AB
:101090000D18B9EB050003D4C0F1FF3609F10105C5
:1010A000A5EB09002BE0B9F1010F01DA4FF00109BE
:1010B0000020B9F1110F0090484601DD112300E036
:1010C00003460AAA01A90CA8FFF7ABFEDDE90C70E4
:1010D0004D4600268346207800070AD4AB4500DA47
:1010E0005D4601A8012D04DD411911F8011C3029CC
:1010F00007D04F4502DA17F1040F04DA01208246C7
:101100000FE06D1EEEE7002F02DCED1B3E4403E016
:10111000781CA84200DD7D1CB81B00F1010A4FF0CD
:1011200000472078000703D4AA4501DB4FF0FF3ABF
:101130000021B7F1004F0DF143088DF8431024D082
:1011400002202B23002F01DA7F422D230A21021EC9
:10115000A0F1010000DC5FB197FBF1FC97FBF1F21D
:1011600001FB1C7C17460CF1300C08F801CDEEE7B2
:10117000A8F1010003702188090501D5452100E08F
:101180006521A0F1010800F8011C09980FA9A1EB45
:101190000807FF1D00B10120411901EBEA70A169A8
:1011A0003844081A401EA0612078C00602D42046A8
:1011B000FFF7ACF9099828B1D4E901219047206ADA
:1011C000401C20622078C00622D52046FFF79EF9F9
:1011D0001EE0002E04DBB34502DD01A8805D00E0C7
:1011E0003020D4E901219047206A401C2062761CFF
:1011F000AAF101005FEA000A0AD100F005F9C0680F
:101200000168405CD4E901219047206A401C2062BB
:10121000281EA5F10105DCDC07E0D4E9012118F85E
:10122000010B9047206A401C2062381EA7F101077D
:10123000F3DC2046FFF780F9032011B041E60000FF
:1012400001694A1C02610878704700B58FB0CDE98A
:1012500001310021059105497944CDE9031011467A
:101260006846FFF767FA0FB000BD0000E5FFFFFF1B
:101270000A6802F8010B0A607047D1E900239A421C
:1012800002D2531C0B601070704710B5436913B144
:10129000AFF3008001E0FFF760F9012010BD127884
:1012A00000F124010A7000224A700122EDE7116862
:1012B0004FF0FF32E9E70000074B70B50D467B4465
:1012C000FFF7C3FF0446284600F0E8FA10B14FF0DC
:1012D000FF3070BD204670BDAFB400002DE9FF5F48
:1012E00015468A460446DFF8AC80F8440027D8E962
:1012F00000103E46CDE9001010E03AF816106A469C
:1013000002A800F0CFFA411C07D02178890603D546
:10131000E269391891420DD80744761C207880067E
:1013200002D5E069B84205DDAE42E6DB3AF81600C8
:101330000028E2D1A069C01BA0612046FFF7E6F8B3
:10134000D8E90010CDE90010002017E03AF8181095
:101350006A4602A800F0A6FAB0F1FF3F81460BD022
:1013600000250DF1080B05E0D4E901211BF805006B
:1013700090476D1C4D45F7D308F10100B0428046FF
:10138000E4DB206A384420622046FFF7D5F8BDE848
:10139000FF9F0000CA60010030B4002100F1240466
:1013A00008E002F00705D208303542EA4372DB0854
:1013B0006554491C52EA0305F3D10468002310A2C6
:1013C000250707D5A40600D421B1C46901230DA2C5
:1013D000641EC46130BCFFF7B6BC10B5044621469C
:1013E0001068FFF7A7FC02462046BDE81040002326
:1013F000D2E7D21D22F00701D1E90023CCE700009B
:10140000000000003000000000487047BC7B002056
:101410002DE9F04F04460D46D21D22F0070089B099
:10142000D0E900974846394606F0EDFE0246F80F2F
:1014300001D02D2307E02068810701D52B2302E08E
:10144000202101EAC0038DF820300BB1012000E01B
:101450000020032A824601D0072A04DB29462046C1
:1014600000F054F93FE12078800601D40D2500E01A
:10147000E569C7F30A560D2D49DA00214FEA175BDB
:1014800008464FF00000002F00F4400007DA00EBA0
:1014900080004FF4400100EBD07001EA600081153C
:1014A000012901DD4FF0FF3100224FEA850CBCF12C
:1014B000180F06D31346ACF118004FF08052C2400B
:1014C00003E04FF4801323FA0CF30CF10C0CBCF185
:1014D000200F04D3ACF1200C09FA0CF001E007FA5C
:1014E0000CF000294FF0004801DD18B90FE00ED1D3
:1014F00040450CD319EB02095F4121B9404502D1A7
:101500009F4329EA0209BBEB175F00D0761C2088B5
:10151000000502D57B48784402E07A4878441938BF
:1015200008AA302302F80A30037C0AF10101002ED8
:101530000AF1020A53546A4602DC4FF0300101E01E
:101540004FF031014FF001088DF8001002D0A6F2E3
:10155000FF3603E059EA470100D06B4E002D02DC54
:101560002178090704D54FF002082E218DF80110CB
:10157000C44600210BE0C7F303433F01C35C491C91
:101580006D1E02F80830052908F1010801DA002D66
:10159000F1DC00210CE000EB1973491C1B786D1E77
:1015A000082902F808304FEA091908F1010801DAA0
:1015B000002DF0DC21688B0602D516E0A8F10108A9
:1015C000E04505DD02EB080313F8013C302BF5D0B4
:1015D000B8F1000F09DD02EB080313F8013C2E2BD4
:1015E00003D1090701D4A8F10108002D05DD3E2132
:1015F00002F808106D1E08F10108407C002E02F868
:10160000080008F1010804DA2D20764202F80800EB
:1016100002E02B2002F808000A214FF47A7086427B
:1016200008F101080BDB96FBF0F3303302F80830C9
:1016300096FBF0F308F1010800FB136601E0642E4D
:101640000CDB642096FBF0F3303302F8083096FB95
:10165000F0F308F1010800FB136601E00A2E06DB37
:1016600096FBF1F0303002F8080008F1010896FB13
:10167000F1F001FB1060303002F80800A16908F1B8
:10168000010808EB050202EB0A00081AA0612078A5
:10169000C00602D42046FEF739FF216A08AE01EBEE
:1016A0000A00206204E0D4E9012116F8010B9047FA
:1016B000BAF1010AF7D22078C00602D52046FEF71B
:1016C00025FF6E4609E016F8010B3E280FD0D4E93D
:1016D00001219047206A401C2062B8F10108F2D233
:1016E0002046FEF729FF09B00320BDE8F08F206AED
:1016F0002844206203E0D4E90121302090476D1E88
:10170000EBD3F8E7B95E010002FCFFFF2DE9F041E1
:101710001F46044603260168072A01F4006004DB23
:1017200008B116A505E016A503E008B115A500E06F
:1017300015A521F010002060A069C01EA0610FB1A6
:10174000401EA0612046FEF7E1FE4FB1D4E9012121
:1017500038469047206A401C2062C01C206206E088
:10176000206AFAE7D4E9012115F8010B9047761EAB
:10177000F8D22046FEF7E0FEBDE8F0814E414E0073
:101780006E616E00494E4600696E660010B5436991
:1017900013B1AFF3008001E0FFF7A0FD012010BD01
:1017A000128800F1240182840022C2840122EDE724
:1017B00011684FF0FF32E9E72DE9F0478146164600
:1017C0008AB0354878440DC88DE80D003248784419
:1017D000801C03AC0DC884E80D0041F69B30084422
:1017E000372190FBF1F290FBF1F5A5F1800501FBAB
:1017F00012041B3C02D56442012000E00020DFF807
:1018000098A080460027FA44AAF1BE0A0EE0E0073D
:101810000AD03246684607EB470101230AEB8101F3
:1018200000F02CFB8DE8070064107F1C002CEED12B
:10183000194F7F44AE3F19E0E80715D007EB0410BD
:101840000DF1180A90E80E008AE80E00C068F04218
:1018500001D1981908903246012306A903A800F087
:101860000DFB03AB83E807006D10641C002DE3D172
:101870004FF0010332466946B8F1000F03A802D0C9
:1018800000F0E7FA01E000F0F9FAC9E90001C9F84F
:1018900008200AB0BDE8F0879C5C0100007B00F0E6
:1018A0008000704770B516460C46054600F044F8B7
:1018B000036893F80101012806D0FF2C0FD8185DAA
:1018C00068B101202C7070BDD3F807013246214663
:1018D00003F2071303442846BDE8704018474FF051
:1018E000FF3070BD004870479C7B00207546FFF7B5
:1018F000F9FFAE4605006946534620F007008546CD
:1019000018B020B5FEF7E6FCBDE820404FF0000619
:101910004FF000074FF000084FF0000B21F00701D7
:10192000AC46ACE8C009ACE8C009ACE8C009ACE81A
:10193000C0098D467047000010B5FFF765FD001D1A
:1019400010BD00BFC519010010B50446AFF30080FB
:101950002046BDE81040FEF7A8BC5FEA400C08BF77
:1019600091F0000F4FEA8C234FEAC12243EA515114
:101970004FEA1C5018BF00F5F0404FEA300018BF86
:1019800041F000415FEA6C5C00F02980BCF1FF3F50
:1019900008BF40F080407047130C06BF12044FF0A0
:1019A000100C4FF0000C130E04BF12020CF1080CC7
:1019B000130F04BF12010CF1040C930F04BF92002B
:1019C0000CF1020CD30F04BF52000CF1010C1146B4
:1019D0004FF00002A0F11F00A0EB0C00704711F0C7
:1019E000004F08BF704731F000413FF4D5AF0B0CFA
:1019F00006BF09044FF0100C4FF0000C0B0E04BF93
:101A000009020CF1080C0B0F04BF09010CF1040CC6
:101A10008B0F04BF89000CF1020CCB0F04BF4900EF
:101A20000CF1010CCCF12003A0EB0C0022FA03F323
:101A300002FA0CF241EA030100F10100704720F0C4
:101A40007F4C80EA030023F07F47ACEB070303F5EC
:101A50007C5300F0004003F1FF032DE980494FEA79
:101A6000154B09B44FEA144325EA0B4E24EA034808
:101A70000FF2042606EB132749083E785FEA32028C
:101A800003FB0667C7F5000707FB06F64FEA543766
:101A90004FEAD64606F1020607FB066CCCF1005C65
:101AA0004FEA1C472CEA074C07FB06F40CFB06F533
:101AB00004EB15464FEA961634BF00204FF0004065
:101AC0004FEAD13706FB07FC4FEA1C4C0CFB0BF727
:101AD000D21B03FB0CF761EB07010CFB0EF7B0EB1D
:101AE000074072EB17420CFB08F734BFA2EB07422A
:101AF000B2EB074261EB17414FEA0C444FEA910702
:101B000006FB07FC4FEA1C4C0CFB0BF7B0EBC74085
:101B100072EB573203FB0CF734BFA2EBC742B2EBB8
:101B2000C74261EB57310CFB0EF7B0EBC70072EB0D
:101B300057720CFB08F734BFA2EBC702B2EBC70227
:101B400061EB5771039F4FEA816141EA921104EB07
:101B5000CC044FEAD1374FEA826206FB07FC42EA27
:101B600090124FEA80604FEA1C4C0CFB0BF7D21B23
:101B700003FB0CF761EB07010CFB0EF7B0EB074022
:101B800072EB17420CFB08F734BFA2EB0742B2EB33
:101B9000074261EB17414FEA8C554FEA910704EB7E
:101BA0009C2406FB07FC4FEA1C4C0CFB0BF7B0EB2C
:101BB000C74072EB573203FB0CF734BFA2EBC742AE
:101BC000B2EBC74261EB57310CFB0EF7B0EBC7002D
:101BD00072EB57720CFB08F734BFA2EBC702B2EBF3
:101BE000C70261EB577115EB4C254FEA816141EA61
:101BF00092114FEA82624FEAD13742EA901206FB15
:101C000007FC44F100044FEA80604FEA1C4C0CFBD7
:101C10000BF7D21B03FB0CF761EB07010CFB0EF774
:101C2000B0EB074072EB17420CFB08F734BFA2EB96
:101C30000742B2EB074261EB174115EB1C154FEA67
:101C4000813141EA92414FEA823242EA90424FEAC0
:101C500080304FEA0C7644F1000448EA03434EEA30
:101C60000B484FF0000EB2EB080C71EB030724BFDA
:101C7000624639464EEB0E0E4FF0000B00185241F3
:101C800049414BEB0B0BB2EB080C71EB03077BF1FB
:101C9000000B24BF624639464EEB0E0E4FF0000B90
:101CA0000018524149414BEB0B0BB2EB080C71EBA6
:101CB00003077BF1000B24BF624639464EEB0E0E44
:101CC00051EA020718BF46F0010616EB0E7655F1F1
:101CD000000254F1000103D5BDE88901BDE8008888
:101CE000BDE88901BDE80048B619524141EB010148
:101CF000A3F10103704780807F7E7D7C7B7A7978B9
:101D0000777676757473727171706F6E6E6D6C6CC0
:101D10006B6A6A6968686766666564646363626162
:101D20006160605F5F5E5E5D5D5C5C5B5B5A5A59E3
:101D3000595858575756565555555454535352524F
:101D40005251515050504F4F4F4E4E4D4D4D4C4CA7
:101D50004C4B4B4B4A4A4A494949484848474747F0
:101D6000474646464545454444444443434343422D
:101D7000424242414141002B9C4630D477002BD057
:101D80001CB54FEA370703B44FF010004FF01001B5
:101D9000BAF1000F06D0BCF1000FDCBF40F0080024
:101DA00040F008014FF000000FBCBDE810400BF1FF
:101DB000010BBBF1010F08BF5FEA170722BF12F149
:101DC000010211F101014FF0004143F1000300F065
:101DD000004043EA00007047F9D35708D0E746EACD
:101DE000064613F1400F4FEA16461FDD13F1200F90
:101DF000DFBF16430A46002120335B42BED0C3F149
:101E0000200746EA064602FA07F74FEA164646EA70
:101E10000706C3F1200722FA03F201FA07F721FAB5
:101E200003F14FF0000342EA0702A7E746EA020681
:101E300046EA06464FEA164646EA0106BCBF46EAAF
:101E40000646360C4FF000034FF000024FF0000141
:101E500094E72DE9804C9A46934670B491E8380097
:101E600007C831EA400C48BF34EA430C03D5FFF7FA
:101E7000E6FDFFF780FFF0BCBDE8008C2DE9804C4B
:101E80009A46934670B491E8380007C810F0804F26
:101E900008BF13F0804F03D100F005F8FFF76BFF88
:101EA000F0BCBDE8008C20F07F4780EA030023F0FF
:101EB0007F4C07EB0C03A3F57C5300F00040A3F12B
:101EC000FE0392F0000F00F0B38095F0000F00F0D9
:101ED00077802DE901494FEA11404FEA144621EA83
:101EE000004800FB06FC24EA064708FB06F607FB51
:101EF00008F800FB07F718EB06484CEB164C4FEAC6
:101F0000124B18EB07484FEA15464CEB174022EAF4
:101F10000B4E0BFB06FC25EA06470EFB06F607FBFD
:101F20000EFE0BFB07F71EEB064E4CEB164C4FF06C
:101F300000061EEB074E4CEB174B18EB0B0840F15D
:101F4000000018EB0E0B58EB000840F100008F1A50
:101F50004FF000013CBFC943661B14BFB5EB040C36
:101F600000213CBFC943F61B4FEA17444EEA8E0ED0
:101F700027EA04454FEA1C4704FB07622CEA074C9A
:101F800005FB07F70CFB05F604FB0CFC16EB0746FC
:101F900042EB174216EB0C4642EB1C421BEB0606CB
:101FA00058EB0202414146EA9E0601D5BDE801898F
:101FB000B619524141EB0101A3F10103BDE80189CA
:101FC0004FEA14454FEA114724EA054621EA074C37
:101FD00005FB07F406FB07F70CFB06F105FB0CFC01
:101FE00011EB074144EB17444FEA124711EB0C4148
:101FF00044EB1C4422EA074C05FB07F206FB07F7FB
:102000000CFB06F605FB0CFC16EB074642EB1742F1
:1020100016EB0C4642EB1C456A1854F1000148BF10
:102020007047B619524141EB0101A3F1010370471A
:1020300095F0000F37D04FEA11424FEA144721EADA
:10204000024624EA074C02FB07F106FB07F70CFBEC
:1020500006F402FB0CFC14EB074441EB17414FEA7A
:10206000154714EB0C4441EB1C4125EA074C02FBDD
:1020700007F506FB07F70CFB06F602FB0CFC16EB5C
:10208000074645EB174516EB0C4645EB1C4212196B
:1020900051F1000148BF7047B619524141EB0101AF
:1020A000A3F1010370474FEA14454FEA114724EAB0
:1020B000054621EA074C05FB07F106FB07F70CFB79
:1020C00006F24FF0000605FB0CFC12EB074241EB59
:1020D000174112EB0C4251EB1C4148BF704792185C
:1020E00041EB0101A3F101037047000070B5044604
:1020F00000688168C943C90717D1816821F00101CF
:10210000816000F0A5FF05460AE000BF00F0A0FFD7
:10211000401B022804D920688068C043C00706D04D
:1021200020688068C043C007F0D0002070BDA06A5E
:1021300040F01000A062E06A40F00100E06201207F
:1021400070BD10B50146406A826A12F0500F05D08A
:10215000006A026BBDE8104008461047816A41F4EE
:102160000071816201688968C1F3424107290CD17D
:10217000017B51B9816A21F480718162816AC9044D
:1021800003D4816A41F00101816200F077FB10BD48
:1021900010B5406A816A41F040018162C16A41F034
:1021A0000401C16200F06CFB10BD10B5406A00F084
:1021B00066FB10BDF8B500260446009600688168ED
:1021C000C943C9072DD0816841F0010181601648DB
:1021D00016490068B0FBF1F000E0401E00900028B6
:1021E000FBD100F035FF054616E000BF00F030FFE0
:1021F000401B022810D920688068C043C0070BD05C
:10220000A06A40F01000A062E06A40F00100E062C5
:1022100084F824600120F8BD20688068C043C007AE
:10222000E4D10020F8BD00000C00002040420F0067
:1022300070B505460E4CC00704D00EA12046FEF72F
:1022400033F90444A80704D50BA12046FEF72CF966
:102250000444680704D509A12046FEF725F9044483
:10226000E80603D506A12046FEF71EF9004870BD1A
:10227000907B0020720000007700000073000000D7
:102280006D000000FEE70000054B4FF4807101284F
:1022900003D00122184600F0D6BE0022FAE7000063
:1022A00000080140044B012804D0012204211846F3
:1022B00000F0C9BE0022F9E700140140054801689A
:1022C000890706D5044A01211170416841F00201D5
:1022D0004160704700000240FC02002030B590F8D9
:1022E00040500124AC40C56B6C6004686360436877
:1022F000102B036803D099600068C26030BD9A60FB
:102300000068C16030BD704703490878002801D0DB
:10231000401E087070470000300500200EB507F021
:10232000EBFFFF21002008F0ABFAA721012008F005
:10233000A7FA0721022008F0A3FA0721032008F0DA
:102340009FFAA721042008F09BFAA721052008F096
:1023500097FA032008F038FA002008F0BBF908F0DB
:10236000EFFA25A1B120CDE900012E4B2EA235A117
:10237000032007F0F3FF35A236A1B2208DE8070055
:10238000284B29A22FA1032007F0E8FF38A23AA189
:10239000B3208DE80700234B23A22AA1032007F0D6
:1023A000DDFF33A238A1B4208DE807001D4B1EA22B
:1023B00024A1032007F0D2FF38A1B520CDE9000108
:1023C000184B19A21FA1042007F0C8FF3DA1B62099
:1023D000CDE90001134B14A21AA1022007F0BEFFA1
:1023E00042A1B720CDE900010E4B0FA215A101209B
:1023F00007F0B4FF0EBD0000456173794C6F67674D
:102400006572E5889DE5A78BE58C96E5AE8CE68840
:1024100090EFBC8CE5BD93E5898DE9858DE7BDAE78
:102420003A000000703F01082E2E5C447269766508
:1024300072735C53595354454D5C5359535C7379D3
:10244000732E63004E4F5F5441470000494E464F84
:10245000000000002D20E585A8E5B180E8BE93E5E9
:1024600087BAE7BAA7E588AB3A20257300000000D9
:10247000E7A681E794A800002D20E8BE93E587BA7F
:10248000E994813A202573002D20E9A29CE889B2C5
:10249000E8BE93E587BA3A2025730000E8BF99E6C5
:1024A00098AFE4B880E69DA14445425547E7BAA7F6
:1024B000E588ABE79A84E6B58BE8AF95E697A5E5A6
:1024C000BF970000E8BF99E698AFE4B880E69DA109
:1024D0005741524EE7BAA7E588ABE79A84E6B58B39
:1024E000E8AF95E697A5E5BF97000000E8BF99E63D
:1024F00098AFE4B880E69DA14552524F52E7BAA783
:10250000E588ABE79A84E6B58BE8AF95E697A5E555
:10251000BF97000072B6FEE770B502F053FC0020D2
:102520001F4A014602F82010401C0228FAD31C481A
:1025300005210A3006F012FA1A49002006F06CFA5A
:102540001949012006F068FA1849022006F064FAD9
:102550001749032006F060FA1649042006F05CFAD9
:102560004FF4FA752A4640F2DC51002006F0C0F91B
:10257000C821012006F09EF902236C002246C821E2
:10258000184606F077F92A462146032006F0B0F9EE
:102590002A462146BDE87040042006F0A9B9000093
:1025A000F6010020A9560008715A00088D5C000849
:1025B0006D5700084558000810B5044605F0CAFCE0
:1025C0002046BDE8104006F059BA000010B502F0F0
:1025D00037FCBDE810400221014806F067BB00004F
:1025E000D402002070B50022042483880CE000BFD0
:1025F000056804EB4216AD5B8D4203D1006800EB29
:10260000421070BD521C92B29342F1D8002070BDAE
:10261000074A002102EB8103DB78834202D112F8E2
:1026200021007047491C0229F4D3002070470000A4
:10263000F60100202DE9F0410F4B0624002204256D
:10264000196808269B8813E005EB4217CF5B874289
:1026500007D10146234609A0FDF71AFF2046BDE831
:10266000F08106EB4217A41CCF5B521C3C4492B293
:102670009342E9D80020F2E728000020466F756EEB
:102680006420706172616D2049442025642061746A
:1026900020696E6465782025642C20616464723A38
:1026A00020256C750A000000F8B500250446009549
:1026B00090F8240001280BD0012084F82400204643
:1026C000FFF714FD2046FFF775FD060002D050E02D
:1026D0000220F8BDA06A20F4885040F00200A062F9
:1026E000022000F081FE25490968B1FBF0F04000AE
:1026F00000E0401E00900028FBD12068816841F076
:102700000801816000F0A4FC074608E000F0A0FC8E
:10271000C01B0A2803D920688068000715D42068E8
:1027200080680007F2D42068816841F0040181606C
:1027300000F08EFC074612E000F08AFCC01B0A285D
:102740000DD920688068400709D5A06A20F00200F2
:1027500040F01000A06284F824500120F8BD2068E9
:1027600080684007E8D4A06A20F0020040F0010031
:10277000A06284F824503046F8BD00000C00002010
:10278000F8B50024009490F824202546012A12D0A0
:10279000012280F824204A681F23072A0DD20668E8
:1027A000776B521E02EB820293409F430B6893406B
:1027B0001F43776319E00220F8BD06680D2A0AD28C
:1027C000376BD21F02EB820293409F430B6893400A
:1027D0001F43376309E0F76A0D3A02EB8202934028
:1027E0009F430B6893401F43F7620A6807230668FC
:1027F0000A2A0AD3F7680A3A02EB420293409F433F
:102800008B6893401F43F76008E0376902EB420290
:1028100093409F438B6893401F4337610A68102A97
:1028200001D0112A20D1124B02689A4217D1936825
:102830001B0219D4936843F40003936009681029BC
:1028400012D10C490C4A0968B1FBF2F101EB81018C
:10285000490000E0491E00910029FBD104E0816A93
:1028600041F020018162012480F824502046F8BD07
:10287000002401400C00002040420F0070477047C8
:10288000704700002DE9F04104004FF000057FD0B3
:10289000A06A002628B9E66284F82460204600F089
:1028A00081F82046FFF722FCA16AC90600D420B1B6
:1028B000A06A40F01000A0626AE0A16A21F4885189
:1028C00041F00201A162334923688B42E16904D1DE
:1028D000B1F5402F01D14FF40021277B4FF4807CCC
:1028E00041EA470261680A43A168614508D00129AD
:1028F00006D0002194F814E0BEF1010F02D00AE0E6
:102900006146F7E7C7B1A76A47F02007A762E76A01
:1029100047F00107E7625F6827F469470F435F608C
:10292000236899681C4F394011439960A16861453B
:102930000BD0012909D00CE0DFF860E0A7690EEBAD
:1029400047370F4347F40061E5E7218A0D05A5F5F8
:1029500080152168CB6A23F470032B43CB62216876
:1029600089680F4B1940914208D1E662A16A21F0B3
:10297000020141F00101A162BDE8F081A06A20F0EE
:10298000020040F01000A062E06A40F00100E06246
:102990000120F1E7003C0140FDF7E1FF00E0FFFF0F
:1029A000FE0E1FFF00B585B000210091019102913C
:1029B000039100680E49884218D10E48816941F49C
:1029C00000718161816901F400710491816941F0B4
:1029D000100181618069694600F0100004901020A8
:1029E000009003200190044800F02CFA05B000BDCF
:1029F0000024014000100240001001402DE9F04782
:102A0000894604463B4900683B4F0E1D904688426C
:102A100001D0B84207D1306810F4702F03D00125DF
:102A20002846BDE8F08794F8240001280CD0012046
:102A300084F824002046FFF7BDFB05004FF000009E
:102A400004D084F82400EBE70220EAE7A16A40F60C
:102A50000162914341F48071A1622168B94218D1A9
:102A6000326812F4702F14D0A16A41F48011A1626F
:102A70003168490505D5A16A21F4005141F480511E
:102A8000A162A16AC9040AD5E16A21F00601E162E6
:102A900006E0A26A22F48012A2624968E9E7E062D5
:102AA00084F82400216A15488862216A1448C862A3
:102AB000216A1448086321686FF0020008602068EA
:102AC000816841F480718160216843464A464C31F7
:102AD000206A00F07BF920688168C1F34241072930
:102AE000816803D041F48011816099E741F4A0012D
:102AF000FAE70000002401400028014043210008BB
:102B0000AB2100089121000870B500B3F9B14379F9
:102B1000012B1ED0012646710223037105682C6823
:102B200002F0100340F6FE729A409443D1E900216E
:102B30000A439A4022432A6001680A68C0249C40E4
:102B4000A2430A60067100214171084670BD012050
:102B500070BD022070BD70B5040003D0207900253F
:102B600010B105E0012070BD6571204600F008F845
:102B700002202071256101202071002070BD00001D
:102B800000B585B000210091019102910391006888
:102B90000E49884218D10E48C16941F00051C16107
:102BA000C16901F000510491816941F00401816122
:102BB0008069694600F00400049010200090032012
:102BC0000190044800F03EF905B000BD00740040DB
:102BD000001002400008014010B590F821100022BA
:102BE000022905D00421816380F82020012010BD36
:102BF00001680B6823F00E030B6001680B6823F07B
:102C000001030B6090F84030C46B012101FA03F31B
:102C1000636080F8211080F82020104610BD00006D
:102C20002DE9F05F90F821100024022903D004213F
:102C30008163012485E001680A6822F00E020A60BF
:102C400001680A6822F001020A603F4E3E4FB21549
:102C5000DFF8F4C0DFF8F090DFF8ECA0DFF8E8B0C0
:102C6000DFF8E4E00168783F13011502ACF1640C71
:102C7000A9F15009AAF13C0AABF1280BAEF1140EF0
:102C80004FF48018B14227D9B9420ED0614512D015
:102C900049451DD0514518D0594518D0714501D12D
:102CA000424615E0294EB14201D1012210E0274EE3
:102CB0001436B14201D110220AE0244E2836B14226
:102CC00006D0224A3C32914201D11A4600E02A46FF
:102CD0001E49091F0A602BE0B94213D0614517D085
:102CE000494522D051451DD059451DD0714501D1CE
:102CF00042461AE0B14202D14FF0807215E0134E05
:102D0000B14201D1012210E0104E1436B14201D17E
:102D100010220AE00D4E2836B14206D00B4A3C3252
:102D2000914201D11A4600E02A46074980394A609B
:102D3000012180F82110002180F82010416B01B1A1
:102D400088472046BDE8F09F80000240080402400A
:102D500030B560B11A4B026814219A4209D2194B5E
:102D60001344B3FBF1F18900016417490AE0012023
:102D700030BD134B5B421344B3FBF1F18900016496
:102D80000F490839C163022180F82110136843F606
:102D9000F0718B43F0E901142143D0E902452C4343
:102DA0002143046921434469214384692143194330
:102DB000116000214163012242770177084630BD4E
:102DC00008040240F8FFFDBF0000024070B5044651
:102DD00090F82000002501280CD0012084F8200064
:102DE00094F821600020012E06D084F820000225EE
:102DF000284670BD022070BD022684F82160A063C1
:102E00002068066826F0010606602046FFF766FA8D
:102E1000E06A00282068016802D041F00E0106E057
:102E200021F0040101602068016841F00A0101609D
:102E30002068016841F001010160D9E780B206F025
:102E4000CBBD00002DE9F84FDFF8C8910024A9F1AF
:102E5000040B23460F2709F1040AABF1040ED1E05D
:102E60000125A54006EA0502AA4276D1DFF8A8C1ED
:102E70004E68A6EB0C0866452BD00DDC032E34D033
:102E800005DC36B3012E19D0022E2FD11BE0112EF6
:102E900016D0122E2AD119E0B8F5881F19D006DCF9
:102EA000B8F5803F15D0B8F5801F1FD111E0B8F5F7
:102EB000001F0ED0B8F5041F18D10AE0CB6815E04A
:102EC000CB681B1D12E0CB6808330FE0CB680C33D6
:102ED0000CE08B682BB1012B4FF0080303D0456148
:102EE00004E0042302E0056100E00023FF2A01D88A
:102EF000064601E000F104064FEA840501D9A5F178
:102F00002005D6F8008007FA05FC28EA0C0803FA29
:102F100005F548EA0508C6F800804D68ED0070D553
:102F20003E4DAE6946F00106AE61AD6924F0030680
:102F300005F0010500953A4D06EB050CDCF808504C
:102F4000A607360F07FA06F825EA0805DFF8D48049
:102F5000404503D14FF0000825E052E0DFF8C8807B
:102F6000404502D14FF001081DE0DFF8C080404528
:102F700002D14FF0020816E0DFF8B480404502D1DC
:102F80004FF003080FE0DFF8AC80404502D14FF06E
:102F9000040808E0DFF8A080404502D14FF00508A2
:102FA00001E04FF0060808FA06F848EA0508CCF8F0
:102FB00008804D68D9F80060ED024D4601D51643F2
:102FC00000E096432E604D68DAF80060AD02554689
:102FD00001D5164300E096432E604D68DBF8006093
:102FE000AD035D4601D5164300E096432E604D6863
:102FF000DEF80060ED03754601D5164300E0964308
:103000002E60641C0A681646E2407FF429AFBDE8D2
:10301000F88F000008040140000011100010024069
:103020000000014000080140000C01400010014078
:103030000014014000180140001C01408068084055
:1030400000D0012070470AB1016170470904FBE715
:1030500001488068704700000000002070B504003F
:1030600025D094F83D00002520B984F83C50204636
:1030700000F0B8F8242084F83D002068016821F0B1
:10308000010101602068016841F40041016020688D
:10309000016821F40041016000F00EFB4D4A6168B7
:1030A000914201D84C4900E04C49884201D20120AC
:1030B00070BD4B492368B0FBF1F15E6826F03F0616
:1030C0000E435E606368934206D94FF4967359438A
:1030D0004FF47A73B1FBF3F12368491C1E6A26F0A2
:1030E0003F06314319626168914210D84900401E81
:1030F000B0FBF1F2521CC2F30B02042A01D20420ED
:1031000022E0B0FBF1F0401CC0F30B001CE0A26811
:10311000F2B301EBC10303EB0116431EB3FBF6F35D
:103120005B1C43F480431B0549D092B301EBC10201
:1031300002EB0111401EB0FBF1F0401CC0F30B008C
:1031400040F4804040F400402168CA694CF6FF73A7
:103150009A431043C861D4E907100143206802680C
:1031600022F0C00211430160D4E903010143206849
:10317000826848F2FF339A4311438160D4E9050124
:1031800008432168CA6822F0FF021043C86001E0CA
:103190000EE016E02068016841F00101016025643D
:1031A000202084F83D00256384F83E50002070BD47
:1031B00001EB4106431EB3FBF6F35B1CB3E70120B2
:1031C000C2E701EB4101401EB0FBF1F0401CC0F32F
:1031D0000B00B7E7A086010080841E0000093D00B7
:1031E00040420F0010B586B000210091019102917C
:1031F000039100680F4988421AD10F4CA06940F032
:103200000800A061A069694600F008000490C02091
:10321000009012200190032003900848FFF712FE4F
:10322000E06940F40010E061E06900F400100490EF
:1032300006B010BD0054004000100240000C0140D8
:1032400070B5040013D021684CF6CC4008602168AA
:1032500045F255500860D4E9000141602168A0683A
:103260008860FFF7F5FE054641F23C360DE001208F
:1032700070BD00BFFFF7ECFE401BB04205D92068CF
:10328000C068800701D0032070BD2068C068800737
:10329000F0D121684AF6AA200860002070BD0068BD
:1032A0004AF6AA21016000207047000002488168A8
:1032B000027811448160704700000020074810B573
:1032C000016841F010010160032000F075F80F2043
:1032D00000F006F800F024F8002010BD00200240A5
:1032E00070B50D4D04464FF47A712878B1FBF0F0BB
:1032F0000A490968B1FBF0F000F05CFE48B9102CF7
:1033000007D200222146501E00F036F800206C60E3
:1033100070BD012070BD0000000000200C000020E6
:103320000C4808B5816941F001018161816901F0B2
:1033300001010091C16941F08051C161C06900F093
:10334000805000900448416821F0E06141F0007134
:10335000416008BD0010024000000140002809DB68
:1033600000F01F02012191404009800000F1E0209F
:10337000C0F8001170470000F0B40E4B1B680C46FB
:10338000C3F30223C3F10705042D00D90425191D39
:10339000072901D2002300E0DB1E012606FA05F111
:1033A000491E214099409E40761E16403143F0BC94
:1033B00004F03DBF0CED00E0064900F0070208688C
:1033C0004FF6FF03184040EA0220034A104308600A
:1033D000704700000CED00E00000FA0501490120F3
:1033E0000862704700000E4210B501460020284CCC
:1033F00004292FD00BDC012930D0022929D100F07B
:103400006BF96168C1F38131491C49001FE008294B
:1034100020D010291DD161682268D20119D51D481C
:10342000C1F38342C903805C0AD56168194AC1F3BC
:103430004041921E515C184AB2FBF1F1484301E051
:10344000164948436168490203D440000321B0FB98
:10345000F1F010BDBDE8104000F04EB9226AC2F391
:103460000121012903D1920701D5C80310BD02290A
:1034700005D1626A920702D549F6404010BD032982
:10348000FCD121688903F9D54FF2244010BD00001A
:1034900000100240483F010800127A0000093D0078
:1034A0002DE9F84305460078354CC00754D0E06953
:1034B0000026C00008D4E06940F08050E061E06977
:1034C000012600F0805000902E480168C90512D4F2
:1034D0000168804641F480710160FFF7B9FD07463D
:1034E00005E000BFFFF7B4FDC01B642823D8D8F85F
:1034F0000000C005F6D5206A10F4407021D0A988DC
:1035000001F4407181421CD0206A1F49012220F43D
:1035100040700A6000220A602062C00711D0FFF7E5
:1035200097FD074641F2883808E000BFFFF790FD9D
:10353000C11B414502D90320BDE8F883206A8007FA
:10354000F4D5206A696820F44070084320621EB1F7
:10355000E06920F08050E0612878800705D5606838
:10356000A96820F44040084360602878C00605D56B
:103570006068696920F48000084360600020DBE730
:103580000010024000700040400442422DE9F04724
:103590000F46050061D0434E306800F00700B84286
:1035A00009D2306820F0070038433060306800F0FE
:1035B0000700B84251D128683B4C810712D540071B
:1035C00003D5606840F4E06060602878000703D5A8
:1035D000606840F4605060606068A96820F0F000A6
:1035E000084360602878C00728D06868012810D098
:1035F0002168022810D0890700292EDA616821F09D
:10360000030101436160FFF723FD804641F28839E1
:103610000DE021688903EFE78901EDE7FFF718FD69
:10362000A0EB0801494502D90320BDE8F087606896
:10363000696800F00C00B0EB810FEFD1306800F04A
:103640000700B8420BD9306820F0070038433060DB
:10365000306800F00700B84201D00120E5E7287883
:10366000400705D56068E96820F4E06008436060C1
:103670002878000706D56068296920F4605040EA80
:10368000C100606000F038F86168084AC1F30311B6
:10369000515CC8400649086006480068FFF720FEF4
:1036A0000020C2E70020024000100240583F0108FD
:1036B0000C00002004000020044805490068496807
:1036C000044AC1F30221515CC84070470C0000203D
:1036D00000100240683F0108044805490068496835
:1036E000044AC1F3C221515CC84070470C0000205D
:1036F00000100240683F01080E4A51680E4801F070
:103700000C03042B11D0082B0FD10C48C1F38343B9
:10371000C903C05C0AD55168084AC1F34041921EF2
:10372000515C054A5043B0FBF1F0704704494843EF
:10373000704700000010024000127A00363F010876
:1037400000093D002DE9F84F040070D02078C04DED
:10375000C00749D06868C0F38100012807D06868B5
:10376000C0F38100022809D16868C00306D5286823
:10377000800339D560680028E7D035E06068B0F58F
:10378000803F0BD010B1B0F5A02F11D0286820F4E5
:1037900080302860286820F4802002E0286840F407
:1037A00080302860606890B1FFF752FC06460AE05E
:1037B000286840F480202860F0E700BFFFF748FC4D
:1037C000801B642873D828688003F7D50CE0FFF7C6
:1037D0003FFC064605E000BFFFF73AFC801B64286B
:1037E000F0D828688003F7D420789A4E80074FF0ED
:1037F00001094FF0000839D5686810F00C0F07D0A8
:103800006868C0F38100022809D16868C00306D443
:103810002868800714D52069012808D110E02069A4
:10382000B0B1C6F80090FFF713FC074605E00AE1C7
:10383000FFF70EFCC01B0228C4D828688007F7D504
:103840002868616920F0F80040EAC10028600DE0B6
:10385000C6F80080FFF7FCFB074604E0FFF7F8FB23
:10386000C01B022823D828688007F7D420780007D7
:103870002CD57948A169D9B1C0F80090FFF7E8FBD1
:10388000074604E0FFF7E4FBC01B02280FD8686A74
:103890008007F7D571484FF4FA510068B0FBF1F09A
:1038A000009000BF0098411E0091FAD20EE080E027
:1038B000C0F80080FFF7CCFB074604E0FFF7C8FB29
:1038C000C01B022875D8686A8007F7D420784007A3
:1038D00060D5E8690027C00008D4E86940F080504E
:1038E000E861E869012700F0805000905C480168B9
:1038F000C90513D40168834641F480710160FFF764
:10390000A7FB824606E000BFFFF7A2FBA0EB0A0080
:1039100064284ED8DBF80000C005F5D5E068012822
:103920000AD008B1052813D0286A20F001002862C7
:10393000286A20F0040002E0286A40F001002862B2
:10394000E06841F2883B98B1FFF782FB82460BE0CA
:10395000286A40F004002862EEE700BFFFF778FB1A
:10396000A0EB0A0159455AD8286A8007F6D50CE021
:10397000FFF76EFB824605E0FFF76AFBA0EB0A014A
:1039800059454CD8286A8007F6D41FB1E86920F061
:103990008050E861E06988B36968C1F38101022958
:1039A00044D00228C6F8608004D0FFF751FB0446DB
:1039B00038E034E0FFF74CFB074604E0FFF748FB34
:1039C000C01B02282BD828688001F7D4206AB0F5E4
:1039D000803F05D16868A16820F400300843686022
:1039E000D4E908010843696821F474110843686048
:1039F000C6F86090FFF72CFB044606E025E000BF08
:103A0000FFF726FB001B022809D828688001F7D59C
:103A10001BE000BFFFF71CFB001B022802D903209C
:103A2000BDE8F88F28688001F4D40EE00128F7D0B3
:103A30006868226A00F48031914204D1616A00F41E
:103A40007010884201D00120EAE70020E8E700007A
:103A50000010024000004242800442420C0000205C
:103A600000700040024850F8210080B2704700000A
:103A7000006C0040024800EB810091B20160704789
:103A8000006C004070B5040003D0607C002610B1CB
:103A900005E0012070BD2674204600F03DF80220AC
:103AA0006074204600F0E0F8042550BB204602F088
:103AB00063FC30BB2068416821F007014160A068C9
:103AC00020B11448016821F0010101601148001F74
:103AD0000168A26821F46071114301606068411CB3
:103AE00004D10120FFF780FC58B1401E2268C0F3CA
:103AF00003419160216880B2C860204602F056FC04
:103B000008B16574C5E7E67301206073A073607443
:103B1000002070BD306C0040F0B53448C82593B02B
:103B200001240460324E306A40F001003062002708
:103B300006E06D1EADB20520FFF780F9002D31D0F3
:103B4000306A8007F5D5002D2CD0042003900A9709
:103B5000069403A8FFF7F6FD4FF48070CDE90D4001
:103B60000DA8FFF79DFC45F2500100200DF08EFEE0
:103B700020A1A620CDE90001244B25A22CA10320E1
:103B800006F0ECFB00200DF007FE2AA1A722CDE9EC
:103B9000002102901D4B1EA225A1042006F0DEFB91
:103BA00013B0F0BD082003900A97069403A8FFF70E
:103BB000C9FD4FF40070CDE90D400DA8FFF770FC72
:103BC00045F2510100200DF061FE21A19620CDE9C2
:103BD00000010E4B0EA216A1032006F0BFFB002031
:103BE0000DF0DAFD13A19722D1E700003C04424218
:103BF0000010024053657420424B5030203D20306D
:103C0000783530353020284C53452900226F010883
:103C10002E2E5C447269766572735C4253505C521E
:103C200054435C6273705F7274632E630000000023
:103C300052544300424B50302061667465722077C5
:103C400072697465203D20307825303458000000BA
:103C500053657420424B5030203D2030783530354C
:103C60003120284C5349290070B504000AD020683F
:103C7000416821F008014160FFF7EAF905464FF479
:103C80007A7608E0012070BDFFF7E2F9401BB042F0
:103C900001D9032070BD206840680007F4D50020DA
:103CA00070BD70B5040009D0606A002540B125617F
:103CB0006561A56294F8510040B10CE0012070BD2F
:103CC0006068B0F5827FF4D0E561F2E784F8505087
:103CD000204600F03FF8022084F851002068016877
:103CE00021F040010160A088218900F4827001F474
:103CF00004410843A18901F400610843217C01F0DB
:103D000002010843217D01F001010843218B01F4E8
:103D100000710843217F01F03801084394F8201016
:103D200001F080010843218D01F40051084321680E
:103D30000860A069042101EA1040216848602068F9
:103D4000C16921F40061C1616565012084F85100F9
:103D5000002070BD30B585B0002400940194029419
:103D6000039400681449884223D11448816941F4BE
:103D700080518161816901F480510491816941F030
:103D80000401816180690E4D00F004000490A020C0
:103D90000090022001900320039069462846FFF717
:103DA00051F84020CDE90004694628460294FFF707
:103DB00049F805B030BD000000300140001002405D
:103DC000000801402DE9FF4F81B01D46934604468F
:103DD0004FF001090E9EFFF73BF9074694F851009A
:103DE0006168012806D0B1F5827F3CD1A168C9BBCA
:103DF000042838D10298002871D0BBF1000FFBD005
:103E0000002DF9D094F8500001282CD04FF0010A71
:103E100084F850A094F85100042802D0052084F8BA
:103E200051004FF00008C4F85480C4F838B0E5875A
:103E3000A58702992163E586A586C4F84080C4F869
:103E4000448020680168490603D4016841F04001BC
:103E50000160E068B0F5006F606808D0F0B3012D34
:103E600049D081E0FFE7022005B0BDE8F08F08B13E
:103E7000012D39D1206B21680088C860206B801C1F
:103E80002063E08E401EE0862EE02068816889076E
:103E90000FD5E18E69B1B9F1010F0AD1216B098803
:103EA000C160206B801C2063E08E401EE0864FF0D6
:103EB000000920688168C9070CD0E18F51B1C06842
:103EC000A16B0880A06B801CA063E08F401EE08780
:103ED0004FF00109FFF7BCF8C01B01E00BE067E001
:103EE000B04201D3701C50D1E08E0028CDD1E08FBC
:103EF0000028CAD13EE0206B216800780873206B4F
:103F0000401C2063E08E401EE0862DE02068816822
:103F100089070FD5E18E69B1B9F1010F0AD1216B83
:103F200009780173206B401C2063E08E401EE08600
:103F30004FF0000920688168C9070CD0E18F51B1AA
:103F4000C068A16B0870A06B401CA063E08F401E8E
:103F5000E0874FF00109FFF77BF8C01BB04202D3A6
:103F6000701C01D011E086B1E08E0028CED1E08F28
:103F70000028CBD13A463146204602F061FB50B1D1
:103F80002020606584F8508012E084F851A084F805
:103F90005080032068E7A06818B92068C16880686D
:103FA000009084F851A084F85080606D0028F1D012
:103FB000012059E710B5401EB0F1807F01D30120E8
:103FC00010BD4FF0E02460610F21601704F02FF95D
:103FD0000020A06107202061002010BD70477047BD
:103FE00070B590F83C20012A2CD0012480F83C4088
:103FF000022280F83D2003685A689D6822F070060E
:104000000A6832435A60104B02689A420ED00F4B36
:104010009A420BD0B2F1804F08D00D4B9A4205D096
:104020000C4B9A4202D00C4B9A4204D1496825F0BD
:1040300080031943916080F83D40002180F83C10D6
:10404000084670BD022070BD002C014000340140C4
:104050000004004000080040000C004010B50400BF
:1040600003D094F83D0010B107E0012010BD0020FE
:1040700084F83C00204600F01FF8022084F83D0040
:10408000211D206803F06EFD012084F8460084F8AD
:104090003E0084F83F0084F8400084F8410084F832
:1040A000420084F8430084F8440084F8450084F812
:1040B0003D00002010BD000008B500680B49884293
:1040C00012D10B48C16941F01001C161C0690022E1
:1040D00000F01000009011463620FFF74DF9BDE8C2
:1040E00008403620FFF73AB908BD00000010004034
:1040F0000010024090F83D10012901D001207047C6
:10410000022180F83D100168CA6842F00102CA60CD
:1041100000680E4988420ED00D4988420BD0B0F19C
:10412000804F08D00B49884205D00B49884202D005
:104130000A49884204D1816801F00701062903D0A9
:10414000016841F00101016000207047002C01402E
:10415000003401400004004000080040000C004012
:1041600090F83C20012A0CD0012200F83C2F0223B9
:10417000437050F83C3C5961427000210170084680
:10418000704702207047000070B500682D498842D2
:1041900057D102212C48FEF751FF2C4D2C4C002604
:1041A00078B12868016A21F0A00101622868016ADB
:1041B00041F02001016228684662207840F010003A
:1041C0003EE00421214800F079FA296880B20A6AA9
:1041D00022F0A0020A6229680A6A0A622178CA06E5
:1041E0002BD50A064FF4F9731ED5A0F22D129A4270
:1041F00002D86068400808E0A0F27952B2F5C77FA3
:1042000005D86068400840F00040606015E040F26A
:10421000E732A0F2D17090420FD26078401C6070FB
:1042200001F0F000207008E0A0F580506938984255
:1042300003D841F0800020706670207820F01000D4
:10424000207070BD000C004000080140E00D00200F
:10425000280300202DE9F041054690F83C00002697
:104260000C46012810D0012085F83C0072B1042AC8
:104270001CD0082A2CD00C2A50D00126002085F80A
:104280003C003046BDE8F0810220FBE7D4E9001293
:10429000E368286803F0C2FC2868816921F00C01FA
:1042A000816128688169A26811430FE0D4E9001296
:1042B000E368286803F0E8FC2868816921F440611C
:1042C000816128688169A26841EA02218161D5E79C
:1042D0002868D4E9002C277B036A016A21F48071E5
:1042E0000162C16923F4007321F0030141EA0C016A
:1042F00021F0F00C39074FF400774CEA116107EA1E
:1043000002221A43C16102622868C16921F00C01CE
:10431000C1612868C169A26811432BE02868D4E90B
:104320000021E768036AD0F820C02CF4805CC0F854
:1043300020C0D0F81CC023F400532CF4407C4CEA7D
:10434000012121F4704C4FF6FF7101EA07314FF45F
:10435000005741EA0C0107EA02321A43C1610262C6
:104360002868C16921F44061C1612868C169A268F7
:1043700041EA0221C16181E710B5040003D094F83D
:104380003D0010B107E0012010BD002084F83C0082
:10439000204600F01FF8022084F83D00211D20680F
:1043A00003F0E0FB012084F8460084F83E0084F826
:1043B0003F0084F8400084F8410084F8420084F80B
:1043C000430084F8440084F8450084F83D00002050
:1043D00010BD000000B50068154985B0884224D1A1
:1043E0001448816941F004018161816901F004018F
:1043F0000491C16941F00801C161C069694600F0DA
:1044000008000490022000900020019001200290FA
:10441000032003900848FEF715FD032201213220F6
:10442000FEF7AAFF3220FEF799FF05B000BD00009D
:10443000000C0040001002400008014030B5044666
:10444000002551B104290DD0082910D094F841203D
:1044500094F84500012A11D10EE094F83E2094F81A
:104460004200F7E794F83F2094F84300F2E794F80D
:10447000402094F84400EDE7012801D0012030BD30
:10448000022059B1042912D0082919D084F841001A
:1044900084F845000C293ED001253AE084F83E001E
:1044A00084F842002068C26842F0020210E084F8FA
:1044B0003F0084F843002068C26842F0040207E02D
:1044C00084F8400084F844002068C26842F0080282
:1044D000C2600122206803F093FB114920688842E2
:1044E0000ED0104988420BD0B0F1804F08D00E4951
:1044F000884205D00D49884202D00D49884204D136
:10450000816801F00701062903D0016841F001012B
:104510000160284630BD2068C26842F01002D7E72B
:10452000002C01400034014000040040000800401D
:10453000000C00402DE9F04104460068C66805699A
:104540004FF00007A90713D5B10711D5F91E016176
:1045500001202077206880698007204602D0FFF77D
:1045600013FE04E000F07EF8204600F07CF8277788
:10457000680716D5700714D521686FF0040008612C
:10458000022020772068806910F4407F204602D006
:10459000FFF7FAFD04E000F065F8204600F063F84C
:1045A0002777280715D5300713D521686FF0080045
:1045B0000861042020772068C0698007204602D067
:1045C000FFF7E2FD04E000F04DF8204600F04BF864
:1045D0002777E80616D5F00614D521686FF010008D
:1045E0000861082020772068C06910F4407F2046C9
:1045F00002D0FFF7C9FD04E000F034F8204600F0D7
:1046000032F82777E80708D0F00706D021686FF066
:1046100001000861204600F027F8280608D530067A
:1046200006D521686FF0800008612046FFF7D6FCB0
:10463000680608D5700606D521686FF0400008614D
:10464000204600F050F8A8060AD5B00608D5216823
:104650006FF0200008612046BDE8F041FFF7BFBCC5
:10466000BDE8F0817047704710B5044600681049F6
:10467000884201D104F096FE0E492068884215D187
:104680000D4801780A0611D521F0100101700A07C2
:1046900002D141F040010170C9B201F00F020E2AAF
:1046A00001D2491C01E001F07001017010BD000051
:1046B00000100040000C00402803002002460020AB
:1046C00041B1042909D008290AD00C2901D1106868
:1046D000006C70471068406B70471068806B7047C3
:1046E0001068C06B7047704770477047F8B5016835
:1046F00004460868CA684B6910F00F0F4FF00005B8
:1047000059D003F0010602F49077374365D0C10712
:1047100005D0D10503D5616C41F001016164410709
:1047200005D5D90703D0616C41F0020161648107AE
:1047300005D5D90703D0616C41F00401616401071C
:1047400007D502F02001314303D0616C41F008012C
:104750006164616C00293AD0800604D5900602D5C8
:10476000204603F0DBFA20684069616CC0F38010DA
:10477000090700D460B3204603F0A9FA2068406915
:10478000400621D52068143050E8001F21F0400178
:1047900040E80012002AF5D1E06BA8B16D494163F1
:1047A000E06BFEF73DFA002811D0E06B416B01B0E1
:1047B000BDE8F040084783060FD593060DD5204687
:1047C000BDE8F84003F0AABA2046FFF78EFFF8BD17
:1047D0002046FFF78AFF6564F8BD266B2023012E73
:1047E0007CD1C6067AD5D60678D508684868009088
:1047F00048694FF00206400640D5E16B0868406802
:104800000004000CE8D0A28D8242E5D9E0858869D9
:1048100020282DD020680C3050E8001F21F4807132
:1048200040E80012002AF5D12068143050E8001F3B
:1048300021F0010140E80012002AF5D1206814306F
:1048400050E8001F21F0400140E80012002AF5D195
:1048500084F84230256320680C3050E8001F21F0B6
:10486000100140E80012002AF5D1E06BFEF7B4F920
:104870006663A08DE18D401A81B22AE0A08DE18DA2
:10488000401A81B2E08D0028A6D00029A4D0226869
:104890000C3252E8000F20F4907042E80007002F1D
:1048A000F5D12068143050E8002F22F0010240E8D2
:1048B0000027002FF5D184F84230256320680C30A2
:1048C00050E8002F22F0100240E80023002BF5D121
:1048D00066632046FFF708FFF8BDFFE705062BD506
:1048E000150629D594F841002128F5D1A068B0F526
:1048F000805F01D12069B0B1206A411C216221682A
:1049000000784860E08C401E0004000CE084E3D195
:104910002068C16821F08001C1602068C16841F051
:104920004001C160D8E7206A0088C0F308004860F1
:10493000206A801C2062E5E74006CDD55006CBD525
:10494000CA68204622F04002CA6084F8413000F074
:10495000AFF8C1E7BF7C000870B5040004D094F83C
:104960004100002510B106E0012070BD84F84050E0
:10497000204600F023F8242084F841002068C16814
:1049800021F40051C160204603F02AFA2068016931
:1049900021F4904101612068416921F02A014161BF
:1049A0002068C16841F40051C1606564202084F82A
:1049B000410084F842006563002070BD30B585B0C9
:1049C00000240094019402940394006814498842DE
:1049D00024D11448816941F480418161816901F4E5
:1049E00080410491816941F00401816180690E4D2B
:1049F00000F0040004904FF4007000900220019039
:104A00000320039069462846FEF71CFA2815CDE9D5
:104A10000004694628460294FEF714FA05B030BD3A
:104A200000380140001002400008014090F8423078
:104A3000202B01D00220704721B11AB1002303635B
:104A400003F02ABA0120704730B400681549884243
:104A500025D1154841880A0416D402464C04127820
:104A60004FF0000304D50A2A0DD141F4004114E0AF
:104A70000D2A10D0C1F30D040C4D491C89B22A55E2
:104A80004180C72900D943800848012230BC06492B
:104A9000C830FFF7CBBF41F480414180F4E730BC20
:104AA000704700000038014030030020280E00202D
:104AB0007047FEE7024A0121024804F05BB900009A
:104AC000797200083C05002070B51249002003F0FF
:104AD000A3FF1149012003F09FFF1049022003F0BA
:104AE0009BFF4FF4C8744FF4966522462946002078
:104AF00003F0FEFE22462946012003F0F9FE0022C3
:104B00004FF4FA61022003F0F3FE054901204870DA
:104B1000087070BD555500081D590008615B0008FC
:104B20003405002010B5FEF793FA05494A68821A49
:104B3000B2F57A7F02D301224A70486010BD0000AE
:104B40003405002070B586B049A1C020CDE9000130
:104B50004F4B50A256A1032005F000FC05F0CEFFFC
:104B6000554C012255A1206806F024FE012254A1D3
:104B7000606806F01FFE0D281CD152A1C820CDE9A7
:104B80000001434B43A24AA1022005F0E7FB0022AB
:104B90004FF4007311464AA006F064F878B150A1B2
:104BA000D222CDE900210290394B3AA240A1012046
:104BB00005F0D4FB0324DA254FF4FA761CE04FA06D
:104BC00007F030F850A1CE20CDE90001304B31A2E2
:104BD00037A1032005F0C2FBECE752A00095CDE918
:104BE00001042B4B2BA232A1022005F0B7FB641E5F
:104BF000E4B2304604F0F0FE04AA03A953A005F085
:104C000065FF10B1002CE8D127E0002C25D050A181
:104C1000E120CDE900011E4B1EA225A1032005F0D5
:104C20009DFB4EA1E2220398CDE90021800A02906B
:104C3000174B18A21EA1032005F090FB4DA1E32203
:104C40000498CDE90021800A0290114B11A218A10D
:104C5000032005F083FB06B070BD4CA1E720CDE931
:104C600000010B4B0BA212A1012005F077FBF2E72C
:104C70004641544653204D616E6167657220496E0E
:104C8000697469616C697A696E672E2E2E00000066
:104C90007F3F01082E2E5C447269766572735C5307
:104CA000595354454D5C5359535C7379732E6300CB
:104CB00046415446530000001C050020303A0000D5
:104CC000313A0000466C617368204469736B20467A
:104CD0006F726D617474696E672E2E2E0000000075
:104CE000466C617368204469736B20466F726D6116
:104CF00074204572726F723A20256400313A414C3B
:104D000049454E54454B0000466C61736820446928
:104D1000736B20466F726D61742046696E697368AB
:104D200000000000534420436172642046617466B1
:104D300073204572726F7221205265747279696EA8
:104D4000672E2E2E28256429000000003000000068
:104D50004641544653204F4B2100000053442054F9
:104D60006F74616C2053697A653A20256C75204D0B
:104D700042000000534420467265652053697A65FD
:104D80003A20256C75204D4200000000534420431A
:104D9000617264204641544653204661696C6564E3
:104DA0002120436F6E74696E756520776974686F32
:104DB0007574205344206361726420696E666F2E9F
:104DC00000000000F0B51B4885B0816941F010017A
:104DD0008161816901F010010491816941F0040150
:104DE0008161816901F004010491816941F004014C
:104DF00081618069002400F00400049020200125D6
:104E000003268DE8710069460B48FEF71BF8E8039E
:104E10008DE87100094F69463846FEF713F8022005
:104E200003960095CDE9014069463846FEF70AF839
:104E300005B0F0BD00100240001001400008014024
:104E400070B5194886B0816941F0040181618169BA
:104E500001F004010491816941F0200181618069C0
:104E6000124D00F0200004900120019002900320D8
:104E70004FF480740390694600942846FDF7E2FFE2
:104E800004200B4E009069463046FDF7DBFF0122FF
:104E900021462846FEF7D7F8012204213046FEF7C6
:104EA000D2F806B070BD00000010024000080140BA
:104EB000001401401CB5002104468DF800108DF847
:104EC000041003F0AFFA03F099FA18B114A0FBF73D
:104ED000DFFA1CBD18490322A1F1080004F080F993
:104EE000012201A9002003F09FFA1349042210397E
:104EF000012003F099FA9DF804009DF80010884203
:104F00000AD00E48FBF7C4FA01226946002003F0DC
:104F1000BCFA002001F00CFC204601F053FB1CBD44
:104F2000323443303220636865636B206661696C9C
:104F30006564210A0000000030000020F8750108B7
:104F400070B51649002003F067FD1549012003F0F4
:104F500063FD1449022003F05FFD022003F076FD9B
:104F60004FF4C8744FF4966522462946002003F09A
:104F7000BFFC22462946012003F0BAFC00224FF470
:104F8000FA61022003F0B4FC0748007804F002F84C
:104F9000064901204870087070BD00005D56000889
:104FA000255A0008555C0008900000202C060020BF
:104FB00070B51449002003F02FFD1349012003F0C0
:104FC0002BFD1249022003F027FD022003F03EFDD5
:104FD0004FF4C8744FF4966522462946002003F02A
:104FE00087FC22462946012003F082FC00224FF470
:104FF000FA61022003F07CFC05490120487008702A
:1050000070BD0000C55500088D590008E95B000817
:105010008C05002070B51249002003F0FDFC1149F9
:10502000012003F0F9FC1049022003F0F5FC4FF4D5
:10503000C8744FF4966522462946002003F058FCB8
:1050400022462946012003F053FC00224FF4FA6166
:10505000022003F04DFC054901204870087070BD26
:105060007955000841590008995B00085405002053
:1050700070B51649002003F0CFFC1549012003F05C
:10508000CBFC1449022003F0C7FC022003F0DEFC35
:105090004FF4C8744FF4966522462946002003F069
:1050A00027FC22462946012003F022FC00224FF46F
:1050B000FA61022003F01CFC0748807803F06AFFC5
:1050C000064901204870087070BD000011560008A4
:1050D000D95900081F5C000890000020DC05002062
:1050E0003EB5002411480094019402940E49846056
:1050F000016004730475012505614FF4602144606B
:10510000C161FDF7BFFB08B1FDF704FA0E20CDE940
:105110000005694602940548FDF732FB002801D0DE
:10512000FDF7F8F93EBD000000240140AC06002068
:105130001CB500240C4900940A48019408600846F4
:10514000FDF709FD08B1FDF7E5F900940022694675
:1051500005480194FDF7D8FC002801D0FDF7DAF9E5
:105160001CBD000000740040DC060020114808B59A
:10517000816941F010018161816901F010010091A4
:10518000816941F020018161816901F02001009174
:10519000816941F004018161816901F0040100919C
:1051A000816941F008018161806900F00800009088
:1051B00008BD0000001002400D4810B50B49016009
:1051C0000C49416000214FF480428160C0E9031224
:1051D00041618161C1610162FDF740FF002803D098
:1051E000BDE81040FDF796B910BD00000054004026
:1051F000F0060020A0860100094810B507490160AB
:105200000521416040F635418160FEF719F800281C
:1052100003D0BDE81040FDF77DB910BD003000405F
:10522000440700200A4810B5084901604FF0FF31DB
:1052300041604FF480718160FEF724FC002803D0A8
:10524000BDE81040FDF766B910BD00000028004021
:1052500050070020104810B50E4901604FF48271CC
:105260004160002102228160C0E9031201224261F3
:10527000520282613822C0E90721416281620A211B
:10528000C162FEF70EFD002803D0BDE81040FDF717
:1052900041B910BD00300140640700201CB5002456
:1052A000124800941049019401604721C0E901149B
:1052B00040F2E731C16080218161FEF7CFFE08B185
:1052C000FDF728F90094694608480194FEF788FE26
:1052D00008B1FDF71FF90548FEF70CFF002801D0C3
:1052E000FDF718F91CBD000000100040BC070020AD
:1052F0000C4810B50A4901604FF4E13141600021CA
:1053000081600C22C160C0E904128161C161FFF7B4
:1053100023FB002803D0BDE81040FDF7FBB810BD0B
:10532000003801400408002010B5104C86B0A07869
:105330000CF00AFD20780AF0FDFE002003F086FB49
:10534000012003F083FB022003F080FB18220849B0
:105350006846FBF7DAFB684603F0B8FD03F0FEFD94
:1053600004490120487006B010BD000090000020E4
:105370006473010834050020FEE7FEE7054A0020BB
:1053800011780A2905D2044810EB411001D0491CBC
:105390001170704730050020507A002010B50120B0
:1053A00003F056FDBDE81040012003F051BD10B5DB
:1053B000002003F04DFDBDE81040002003F048BD83
:1053C00010B5002003F044FDBDE81040002003F0BC
:1053D0003FBD10B5002003F03BFDBDE810400020AC
:1053E00003F036BD10B5044686B010A0FBF750F8A8
:1053F0000DF1080C17A318A218A119A08CE80F0032
:1054000018A11AA0CDE900011AA31CA21DA11EA07B
:10541000FBF73EF8204601F0D1FF29A0FBF738F852
:10542000204603F053FF06B0002010BD0A2D2D2D9D
:105430002D2D2D2D2D6572726F72206C6973742065
:105440007374617274202D2D2D2D2D2D2D2D2D2D4C
:105450000A0000006D6178006D696E006465660089
:1054600076616C0061747472000000006C656E6798
:105470007468000074797065000000006E616D65ED
:1054800000000000696400002534732020202025DE
:105490002D32347320252D387320252D3873202587
:1054A0002D387320252D31307320252D3130732078
:1054B000252D31307320252D3130730A0000000076
:1054C0002D2D2D2D2D2D2D2D6572726F72206C6955
:1054D000737420656E64202D2D2D2D2D2D2D2D2DD9
:1054E0002D2D2D0A00000000084810B508498078CD
:1054F00008700AF01FFE064801F048F9002003F08A
:10550000A7FCBDE81040002003F0A2BC2C06002040
:1055100090000020024A0521024803F02BBC000045
:10552000056C000834060020024A0321024803F0FB
:1055300021BC0000A56D000894050020024A02214C
:10554000024803F017BC0000456F00085C0500200E
:105550007047000010B5044603F022FA002808D175
:105560000221204603F036FA002802D0014901202A
:10557000487010BD3405002070B5064603F010FADF
:1055800001240F4D0028214630460CD003F022FAAA
:1055900018B1012003F032FD6C703046BDE8704058
:1055A000022103F017BA03F015FA0221304603F086
:1055B00011FA002803D0012003F020FD6C7070BDAB
:1055C0005405002070B5064603F0EAF901240F4D9A
:1055D0000028214630460CD003F0FCF918B1012018
:1055E00003F00CFD6C703046BDE87040022103F002
:1055F000F1B903F0EFF90221304603F0EBF900288E
:1056000003D0012003F0FAFC6C7070BD8C05002003
:1056100070B5064603F0C4F901240F4D0028214659
:1056200030460CD003F0D6F918B1012003F0E6FCA7
:105630006C703046BDE87040022103F0CBB903F036
:10564000C9F90221304603F0C5F9002803D0012032
:1056500003F0D4FC6C7070BDDC05002070B506460C
:1056600003F09EF901240F4D0028214630460CD04E
:1056700003F0B0F918B1012003F0C0FC6C703046A3
:10568000BDE87040022103F0A5B903F0A3F902219F
:10569000304603F09FF9002803D0012003F0AEFC50
:1056A0006C7070BD2C06002010B504461848407878
:1056B00000282CD1204603F073F900284FF0010197
:1056C000204613D003F086F928B1002003F004FB34
:1056D00010A0FAF7DDFE0221204603F07BF9002836
:1056E00015D013A0BDE81040FAF7D2BE03F072F94E
:1056F00010B116A0FAF7CCFE0221204603F06AF999
:10570000002804D0002003F0E7FA14A0EAE710BD57
:10571000F40100204B455930206C6F6E6720707289
:105720006573732064657465637465640D0A0000B5
:105730004B455930206C6F6E672070726573732013
:1057400072656C65617365640D0A00004B455930E4
:1057500020707265737365640D0A00004B45593003
:105760002072656C65617365640D0A0010B50446AE
:1057700003F016F900284FF00101204613D003F082
:1057800029F928B1012003F0A7FA10A0FAF780FE4A
:105790000221204603F01EF9002815D014A0BDE810
:1057A0001040FAF775BE03F015F910B119A0FAF719
:1057B0006FFE0221204603F00DF9002804D00120DD
:1057C00003F08AFA19A0EAE710BD00004B657930B2
:1057D0005F3120636F6D626F206C6F6E6720707237
:1057E0006573732064657465637465640D0A0000F5
:1057F0004B6579305F3120636F6D626F206C6F6E27
:10580000672070726573732072656C65617365647F
:105810000D0A00004B6579305F3120636F6D626F58
:1058200020707265737365640D0A00004B657930F2
:105830005F3120636F6D626F2072656C65617365A7
:10584000640D0A0010B5044603F0AAF800284FF0D2
:105850000101204613D003F0BDF828B1012003F068
:105860003BFA10A0FAF714FE0221204603F0B2F82A
:10587000002815D014A0BDE81040FAF709BE03F0C7
:10588000A9F810B119A0FAF703FE0221204603F08F
:10589000A1F8002804D0012003F01EFA19A0EAE7BD
:1058A00010BD00004B6579305F3220636F6D626F11
:1058B000206C6F6E67207072657373206465746509
:1058C000637465640D0A00004B6579305F322063B4
:1058D0006F6D626F206C6F6E6720707265737320DE
:1058E00072656C65617365640D0A00004B65793003
:1058F0005F3220636F6D626F2070726573736564D1
:105900000D0A00004B6579305F3220636F6D626F66
:105910002072656C65617365640D0A0010B50446FC
:1059200003F03EF8002808D10221204603F052F887
:10593000002802D001490120487010BD3405002024
:1059400070B5064603F02CF801240F4D00282146BF
:1059500030460CD003F03EF818B1012003F030FBC4
:105960006C703046BDE87040022103F033B803F09C
:1059700031F80221304603F02DF8002803D0012031
:1059800003F01EFB6C7070BD5405002070B5064618
:1059900003F006F801240F4D0028214630460CD0B4
:1059A00003F018F818B1012003F00AFB6C703046C0
:1059B000BDE87040022103F00DB803F00BF802219E
:1059C000304603F007F8002803D0012003F0F8FA6E
:1059D0006C7070BD8C05002070B5064602F0E0FFCB
:1059E00001240F4D0028214630460CD002F0F2FF72
:1059F00018B1012003F0E4FA6C703046BDE8704045
:105A0000022102F0E7BF02F0E5FF0221304602F07A
:105A1000E1FF002803D0012003F0D2FA6C7070BDC2
:105A2000DC05002070B5064602F0BAFF01240F4DD8
:105A30000028214630460CD002F0CCFF18B10120DE
:105A400003F0BEFA6C703046BDE87040022102F0EF
:105A5000C1BF02F0BFFF0221304602F0BBFF0028A9
:105A600003D0012003F0ACFA6C7070BD2C0600204E
:105A700010B51F494978002939D102F059FF044671
:105A8000012814D0022C17D0032C1DD0042C23D0B5
:105A90002DD94FF0000302464FF0C801184603F01D
:105AA0003DF92146BDE8104012A0FAF7F1BC0020F4
:105AB00003F012F915A016E000230222C8211846AF
:105AC00003F02CF916A00EE000230322C82118468B
:105AD00003F024F917A006E000230422C821184689
:105AE00003F01CF918A0BDE81040FAF7D1BC10BDB6
:105AF000F40100204B65793120636C69636B656448
:105B00002025642074696D65730D0A004B65793139
:105B10002073696E676C6520636C69636B0D0A00A6
:105B20004B65793120646F75626C6520636C6963C5
:105B30006B0D0A004B65793120747269706C6520B9
:105B4000636C69636B0D0A004B6579312071756177
:105B5000647275706C6520636C69636B0D0A00007C
:105B600010B5044602F01CFF50B10121204602F09E
:105B700031FF002803D0074801210170417010BD9A
:105B80000221204602F026FF0028F8D0BDE8104090
:105B900003F002B93405002010B5044602F000FFFE
:105BA00070B10121204602F015FF002807D009A09E
:105BB000FAF76EFC012003F04BF90028FAD010BD73
:105BC0000221204602F006FF0028F8D0BDE8104070
:105BD00003F0E2B84B657932206C6F6E672070720B
:105BE0006573730D0A00000010B5044602F0D8FE7C
:105BF00058B10121204602F0EDFE002804D001201A
:105C000003F026F90028FAD010BD0221204602F048
:105C1000E1FE0028F8D0BDE8104003F0BDB810B593
:105C2000044602F0BDFE58B10121204602F0D2FE2A
:105C3000002804D0012003F00BF90028FAD010BD91
:105C40000221204602F0C6FE0028F8D0BDE8104030
:105C500003F0A2B810B5044602F0A2FE58B101212B
:105C6000204602F0B7FE002804D0012003F0F0F82F
:105C70000028FAD010BD0221204602F0ABFE002819
:105C8000F8D0BDE8104003F087B8000070B50546B5
:105C90002748407800284AD1284602F049FE0400EF
:105CA00034D0012C15D0022C18D0032C1ED0042C7B
:105CB00024D03CD902464FF000034FF0C8014FF00A
:105CC000010003F02BF82146BDE8704019A0FAF757
:105CD000DFBB012003F000F81CA024E00023022217
:105CE000C821012003F01AF81DA01CE000230322A4
:105CF000C821012003F012F81EA014E000230422A2
:105D0000C821012003F00AF81FA00CE00221284658
:105D100002F060FE00280AD000230A22642101203C
:105D200002F0FCFF1EA0BDE87040FAF7B1BB70BDE9
:105D3000F40100204B65793220636C69636B656404
:105D40002025642074696D65730D0A004B657932F6
:105D50002073696E676C6520636C69636B0D0A0064
:105D60004B65793220646F75626C6520636C696382
:105D70006B0D0A004B65793220747269706C652076
:105D8000636C69636B0D0A004B6579322071756134
:105D9000647275706C6520636C69636B0D0A00003A
:105DA0004B657932206C6F6E67207072657373205B
:105DB000283E313030306D73290D0A00024A03212C
:105DC000024802F0D7BF0000D9700008E4050020A7
:105DD00010B50948094C8078A07000B101200BF083
:105DE000B3FFA01C00F0D2FC002003F031F8BDE8A6
:105DF0001040002003F02CB8DC05002090000020AB
:105E00002DE9F04117460C46060018D0BFB11848DE
:105E10000168002917D98C4200D98CB2052022468E
:105E2000314602F001FB002C1FD01248FAF730FB7C
:105E3000224611A112A0FAF72BFB00250DE04FF02E
:105E4000FF30BDE8F081002411A0FAF721FB0CE03F
:105E5000715D1CA0FAF71CFB6D1CA542F8DB1BA0B2
:105E6000FAF716FB0348FAF713FB3C800020E8E73B
:105E7000200000209C750108097265616400000023
:105E800025733A205B25645D202D3E200000000034
:105E90004F6E4C6F616443616C6C6261636B3A205E
:105EA0005265616420636F6D706C6574652C20743D
:105EB0006F74616C206C656E6774683D256C750A43
:105EC0000000000025303278200000000A000000A9
:105ED0002DE9F0410D461C4C07004FF0FF3107D073
:105EE00045B160684219FF2A11D90846BDE8F08122
:105EF000002DFAD104221449012002F0C6FA13A0A1
:105F00002168FAF7C5FA002060600020EEE7401D26
:105F100080B22A46394602F0B8FA2A4618A11AA0D9
:105F2000FAF7B6FA002604E0B95D1BA0FAF7B0FA5A
:105F3000761CAE42F8DB1AA0FAF7AAFA6068284489
:105F400060602060E1E70000200000204F6E536198
:105F5000766543616C6C6261636B3A205361766570
:105F600020636F6D706C6574652C20746F74616C48
:105F7000206C656E6774683D256C750A0000000032
:105F8000097772697465000025733A205B25645DAA
:105F9000202D3E2000000000253032782000000037
:105FA0000A0000002DE9FC47044680790D460B28C5
:105FB0007DD2DFE800F0060F18212A36424E5C69D8
:105FC00080000020CDE90000227A6946284601F0D1
:105FD00085FF22E00020CDE90000227A69462846AC
:105FE00001F07CFF25E00020CDE90000227A69461F
:105FF000284601F073FF28E00020CDE90000227A56
:106000006946284601F06AFF2BE00020CDE9000038
:10601000227A6946284601F07FFFE16800980870FF
:106020004EE00020CDE90000227A6946284601F0C2
:1060300073FFE1680098088042E00020CDE900008D
:10604000227A6946284601F067FFE16800980860F7
:1060500036E00020CDE90000227A6946284601F0AA
:106060005BFFDDE90001E268C2E9000128E00020F1
:10607000E368024615F8011BD600B1400843521CE4
:10608000042AF7D318601BE00026D4F80C90B04621
:106090003746B24615F8010B5146FA00FAF7A4F953
:1060A00006437F1C41EA0808082FF3D300E00AE00A
:1060B000C9E9006804E022892946E068FAF7E0FCB3
:1060C0002089BDE8FC870020FBE72DE9F8430C465A
:1060D000002861D0002C5FD0A1790B295CD2DFE8C9
:1060E00001F0060C151A20252D3238445400217A6F
:1060F0000091E16891F9002004E0217A0091E168C3
:10610000B1F90020D31700F0F1FC42E0217A0091B0
:10611000E1680A68F6E7217A0091E168D1E9002395
:10612000F1E7217A0091E1680A7803E0217A009191
:10613000E1680A88002300F0EEFC2AE0217A009151
:10614000E1680A68F6E7217A0091E168D1E9002365
:10615000F1E7E16800220968D30021FA03F3521C39
:1061600000F8013B042AF7D313E0E1680746002654
:10617000D1E90085F20040462946FAF748F9761C35
:1061800007F8010B082EF5D303E02289E168FAF73E
:1061900077FC2089BDE8F8830020FBE77047F0B565
:1061A0000023067A1C46012736B14FF6FF75012EF3
:1061B00009D0022E3ED12AE001293BD1077284800A
:1061C000C480847036E011B1817879B132E0022167
:1061D0000172C4808188028A914203D28178491C6D
:1061E000817027E0407B80070FD423E081886C1A00
:1061F000944201D2858001E0114481808188028A25
:10620000914217D3407BC00714D0012312E0C68807
:10621000A5EB060C944501D2C58001E03244C28052
:10622000C288C589AA4202D90123047202E0012969
:1062300000D107721846F0BDF0B50024057A234658
:10624000012625B1012D09D0022D24D10EE001290E
:1062500021D106728380C38083701CE0D9B90221EA
:106260000172C3808178491C817014E0C5884FF6A3
:10627000FF77A7EB050C944501D2C78001E02A44C3
:10628000C280C288C589AA4202D90124037202E0F1
:10629000012900D106722046F0BDF0B50023067A30
:1062A0001C464FF6FF75052E36D2DFE806F00306D2
:1062B000341D3400012911D02EE029B181886E1AD5
:1062C000964204D2858004E00221017218E0114454
:1062D00081808188028A91421ED3032101728480C9
:1062E000407BC0070CD117E029B181886E1A964215
:1062F00008D2858008E004210172407B80070BD51D
:10630000012309E011448180C18929B182888A4230
:1063100002D98480F4E704721846F0BDF0B500237A
:10632000057A1C4625B1012D0AD0022D22D120E08C
:1063300001291FD101728480407BC00710D119E070
:1063400049B1C189B1B186884FF6FF75AF1B97423D
:1063500008D2858008E002210172407B800709D5C0
:10636000012307E03244828082888A4202D98480F5
:10637000F6E704721846F0BD70B50446FCF768FEF7
:1063800005464FF47A7606E0FCF762FE401BB04209
:1063900001D9032070BD206840688006F4D52068CC
:1063A000416841F010014160002070BD70B50446A5
:1063B0000068416821F010014160FCF749FE054684
:1063C0004FF47A7607E000BFFCF742FE401BB04274
:1063D00001D9032070BD206840688006F4D50020F4
:1063E00070BD000030B51C4C89B020684068C00703
:1063F00006D00BF033F82068416821F001014160BC
:106400002068416889071BD5416821F0020141607D
:1064100011480DF1100C1430C17985784378027859
:106420008CE82E00817980880CA2C023CDE900324F
:10643000CDE90201114B12A219A1032003F08EFF36
:106440002068416821F004014160206841688906A4
:10645000FCD509B030BD0000540B0020416C6172C6
:106460006D2054696D653A25642D25642D256420C1
:1064700025643A25643A256400000000326F010863
:106480002E2E5C447269766572735C4253505C5286
:1064900054435C6273705F7274632E63000000008B
:1064A000525443000B4810B5407870B90A4C012192
:1064B0002046FCF7C3FD4FF400412046FCF7BEFD2B
:1064C00020210648FCF7BAFD08B1002010BD0120CC
:1064D00010BD0000F4010020000801400010014040
:1064E00010B50320FCF794F8012800D0002010BD5F
:1064F00010B50420FCF78CF8012800D0002010BD56
:1065000070B51148407808B1002070BD20210F48B7
:10651000FCF794FD98B100250D4C4FF40041204646
:10652000FCF78CFD68B1002045EA400501212046BA
:10653000FCF784FD45EA8000C0F3400070BD0125F2
:10654000EAE70120F0E70000F4010020001001401C
:106550000008014070B51148407808B1002070BDB6
:1065600020210F48FCF76AFD98B100250D4C4FF42F
:1065700000412046FCF762FD68B1002045EA400575
:1065800001212046FCF75AFD45EA8000C0F3800057
:1065900070BD0125EAE70120F0E70000F4010020CA
:1065A0000010014000080140428901898A4201D25D
:1065B000012100E00021142A01D300224281084673
:1065C0007047000010B50446C2B00E48F9F760FFEE
:1065D0001CB10D490D4802F081FD0020ADF800010D
:1065E00040AA4FF480716846FFF70AFCBDF800210D
:1065F0006946064802F0A8FD0548F9F749FF42B090
:1066000010BD000044760108E55300082800002072
:106610007C74010810B588B1817A49070ED581795B
:106620000A2905D002890169C068FAF729FA03E04E
:106630000169C068FAF78AF9012010BD002010BD79
:10664000F8B515460E460B4600920446012202217B
:1066500000F010F840B93346002280212046009512
:1066600000F008F8002804D0606D40F0200060655C
:106670000320F8BD2DE9F8431E469146884604469E
:10668000089DFCF7E5FC401B351AFCF7E1FC0746CA
:1066900025480068C0F3CB30684338E0701C37D021
:1066A000FCF7D6FCC01BA84203D215B1009860B31A
:1066B0002CE02068416821F0E00141606068B0F59D
:1066C000827F0BD1A068B0F5004F02D0B0F5806F8B
:1066D00004D12068016821F040010160A06AB0F592
:1066E000005F09D12068016821F400510160206831
:1066F000016841F400510160012084F8510000203C
:1067000084F850000320BDE8F8830025401E009067
:106710002068816838EA010004D000214945BDD1D4
:106720000020F0E70121F9E70C000020704700008D
:1067300010B50446C2B01148F9F7AAFE1CB11049C1
:10674000104802F0CBFC0020409069460D4802F052
:1067500090FD4090042240A9012001F096FE40984F
:1067600081B26846FFF7B4FB00216846FFF7B0FB33
:106770000548F9F78DFE42B010BD0000A47601086F
:10678000E553000828000020DC740108F0B58DB046
:1067900004004FF0FF365AD001462E4802F004FDA7
:1067A000050054D0A9882CA02A68F9F771FEA879B1
:1067B0000B282DD2DFE800F0060F162C0A13192C37
:1067C0001C23290094F900102CA001E0217830A0AE
:1067D000F9F75EFE1FE0B4F9001032A0F8E7218857
:1067E00035A0F5E739A02168F2E73DA02168EFE781
:1067F00020680DF0F5F802460B463EA002E0D4E911
:10680000002341A0F9F744FE05E0214644A0DFE75C
:1068100048A0F9F73DFE01ACA888FBF70BFF070085
:1068200015D0A8882A8960F31F2202200090D31770
:10683000204600F070F92946FFF747FC801C82B221
:10684000B8B201A901F021FE00200DB0F0BD304624
:10685000FBE700002800002053617665207061721C
:10686000616D3A2049443D25642C204E616D653DA3
:1068700025732C20547970653D000000494E543832
:106880002C2056616C75653D25640D0A00000000E2
:1068900055494E54382C2056616C75653D25750D53
:1068A0000A000000494E5431362C2056616C756543
:1068B0003D25640D0A00000055494E5431362C2008
:1068C00056616C75653D25750D0A0000494E5433BF
:1068D000322C2056616C75653D256C640D0A0000F4
:1068E00055494E5433322C2056616C75653D256CEC
:1068F000750D0A00464C4F41542C2056616C75654D
:106900003D252E33660D0A00444F55424C452C2040
:1069100056616C75653D252E336C660D0A000000CE
:10692000535452494E472C2056616C75653D257372
:106930000D0A0000554E4B4E4F574E0D0A000000F9
:1069400010B5FCF785FBFBF737FEBDE8104002F001
:1069500073BB10B5FCF77CFBBDE8104002F008B932
:1069600070B500240AF09EFC050064D03248294628
:10697000427832A0F9F78CFD1C2D4FD017DC0D2D7D
:1069800042D00BDC082D47D003DC2DB3072D4CD1B2
:1069900030E0092D32D00C2D47D137E0152D2BD00A
:1069A000162D2DD0182D33D0192D3ED12AE0462D8D
:1069B00016D008DCA5F14005062D36D2DFE805F03B
:1069C00012353216180E472D0ED04A2D2CD05A2DC6
:1069D00026D05E2D29D11DE01FA426E020A424E0AE
:1069E00021A422E021A420E022A41EE024A41CE093
:1069F00025A41AE026A418E027A416E028A414E091
:106A000029A412E029A410E029A40EE029A40CE096
:106A100029A40AE029A408E029A406E029A404E0A6
:106A200029A402E029A400E029A42146BDE8704081
:106A300029A0F9F72DBD70BD2803002052656D6FA8
:106A40007465204B65793A2025642C20436F756E60
:106A5000743A2025640D0A004552524F520000003E
:106A6000504F57455200000055500000504C4159BE
:106A700000000000414C49454E54454B00000000C9
:106A800052494748540000004C454654000000005D
:106A9000564F4C2D00000000444F574E00000000A0
:106AA000564F4C2B00000000310000003200000067
:106AB0003300000034000000350000003600000004
:106AC00037000000380000003900000030000000EE
:106AD00044454C455445000052656D6F7465204235
:106AE0007574746F6E3A2025730D0A002DE9F0411C
:106AF0001546984606460024069F07E0E2004146F8
:106B00002846F9F797FC06F8010B641CBC42F5DB3C
:106B10003046BDE8F0812DE9F0411546984606461D
:106B20000024069F07E0E20041462846F9F76FFC83
:106B300006F8010B641CBC42F5DB3046BDE8F08171
:106B400010B588B0002006901048F9F7A1FC02ACFF
:106B50000FA310A210A111A084E80F0010A112A091
:106B6000CDE9000112A314A215A116A0F9F790FC1B
:106B700006A9224802F05EFB044600F01FFC002C30
:106B8000F6D11F48F9F784FC08B010BD047701085E
:106B90006D6178006D696E006465660076616C00F9
:106BA00061747472000000006C656E6774680000A8
:106BB00074797065000000006E616D650000000072
:106BC0006964000025347320202020252D32347381
:106BD00020252D387320252D387320252D3873203E
:106BE000252D31307320252D31307320252D313066
:106BF0007320252D3130730A00000000280000208A
:106C00003C7501082DE9FE4F624C0546607800286E
:106C10007DD0DFF884811821B8F80200183890FB85
:106C2000F1F08DF8080002A9284602F07DF9697894
:106C30009DF80800DFF864A1B1FBF0F14143606802
:106C4000CFB2DFF85C914FF01C0B874203D00120DC
:106C50002070676001E02078E8B3BAF8000080B2E5
:106C600006F0AAF8287905F00BFF0246B9F80000F3
:106C7000B8F8001080B2CDE9001000214E4618236C
:106C800008460BF029FB3088182380B20090B8F832
:106C900000001946401E82B2002006F08DF9002641
:106CA00028E0B81900F0FF08B8F1050F20D205EB75
:106CB0008800007B05F0E4FE024606EB46016B7897
:106CC0000BEBC10081B2434506D1B9F80000BAF818
:106CD000003080B205E013E0BAF80000B9F80030E7
:106CE00080B29BB2CDE90030182300200BF070FA7F
:106CF000761CB6B29DF808008642D2D300202070E0
:106D00006978A07881423ED0C11BCEB200E03EE05F
:106D10009DF808108E4217D2052815D205EB800089
:106D2000007B05F0ADFE0246BAF80000B9F800306D
:106D300080B29BB2CDE9003006EB46010BEBC101FE
:106D4000182300200BF044FA6878C11BCEB29DF8DE
:106D500008108E4217D2052815D205EB8000007B63
:106D600005F08EFE0246B9F80000BAF8003080B295
:106D70009BB2CDE9003006EB46010BEBC1011823B5
:106D800000200BF025FA6878A07000206070BDE844
:106D9000FE8F00002C060020F4080020F8020020DE
:106DA000F40200202DE9FE4F624C05466078002871
:106DB0007DD0DFF884811821B8F80200183890FBE4
:106DC000F1F08DF8080002A9284602F0ADF86978C4
:106DD0009DF80800DFF864A1B1FBF0F14143606861
:106DE000CFB2DFF85C914FF01C0B874203D001203B
:106DF0002070676001E02078E8B3BAF8000080B244
:106E000005F0DAFF287905F03BFE0246B9F80000EC
:106E1000B8F8001080B2CDE9001000214E461823CA
:106E200008460BF059FA3088182380B20090B8F861
:106E300000001946401E82B2002006F0BDF8002670
:106E400028E0B81900F0FF08B8F1030F20D205EBD5
:106E50008800007B05F014FE024606EB46016B78C5
:106E60000BEBC10081B2434506D1B9F80000BAF876
:106E7000003080B205E013E0BAF80000B9F8003045
:106E800080B29BB2CDE90030182300200BF0A0F9AE
:106E9000761CB6B29DF808008642D2D3002020703E
:106EA0006978A07881423ED0C11BCEB200E03EE0BE
:106EB0009DF808108E4217D2032815D205EB8000EA
:106EC000007B05F0DDFD0246BAF80000B9F800309D
:106ED00080B29BB2CDE9003006EB46010BEBC1015D
:106EE000182300200BF074F96878C11BCEB29DF80E
:106EF00008108E4217D2032815D205EB8000007BC4
:106F000005F0BEFD0246B9F80000BAF8003080B2C4
:106F10009BB2CDE9003006EB46010BEBC101182313
:106F200000200BF055F96878A07000206070BDE873
:106F3000FE8F00008C050020F4080020F8020020DD
:106F4000F40200202DE9FE4F5F4F044678780028B8
:106F500074D05E4D18216888183890FBF1F08DF8D8
:106F6000080002A9204601F0DFFF62789DF80800C2
:106F7000B846B2FBF0F14143CEB27968DFF85091E8
:106F8000544F4FF0000B4FF01C0A8E4205D00121E8
:106F900088F80010C8F8046002E098F80030C3B325
:106FA0004B48008880B205F007FF207905F068FDA6
:106FB00002463888298880B2CDE900100021B94600
:106FC000182308460BF088F93888182380B20090FF
:106FD00028881946401E82B2002005F0EDFF0025EA
:106FE00026E07019C7B2022F20D204EB8700007B85
:106FF00005F046FD024605EB45010AEBC10081B2F2
:107000006078B84206D1324BB9F8000080B21B88D4
:1070100005E015E02E48B9F80030008880B29BB238
:10702000CDE90030182300200BF0D2F86D1CADB272
:107030009DF808008542D4D388F800B0BDE8FE8FE3
:1070400098F802108A423BD08B1B921BDDB2D6B25D
:10705000854216D2022914D204EB8100007B05F090
:107060000FFD0246B9F800003B8880B29BB2CDE923
:10707000003005EB45010AEBC101182300200BF09D
:10708000A7F89DF80800864217D26078022814D22B
:1070900004EB8000007B05F0F3FC02463888B9F869
:1070A000003080B29BB2CDE9003006EB46010AEB1E
:1070B000C101182300200BF08BF8617888F80210CA
:1070C00088F801B0BAE7000054050020F408002059
:1070D000F8020020F40200202DE9FE4F624C054624
:1070E000607800287DD0DFF884811821B8F802008C
:1070F000183890FBF1F08DF8080002A9284601F03D
:1071000013FF69789DF80800DFF864A1B1FBF0F186
:1071100041436068CFB2DFF85C914FF01C0B8742AF
:1071200003D001202070676001E02078E8B3BAF84E
:10713000000080B205F040FE287905F0A1FC02466F
:10714000B9F80000B8F8001080B2CDE900100021B5
:107150004E46182308460BF0BFF83088182380B23B
:107160000090B8F800001946401E82B2002005F0D9
:1071700023FF002628E0B81900F0FF08B8F1030F3C
:1071800020D205EB8800007B05F07AFC024606EB76
:1071900046016B780BEBC10081B2434506D1B9F8CB
:1071A0000000BAF8003080B205E013E0BAF8000041
:1071B000B9F8003080B29BB2CDE90030182300202E
:1071C0000BF006F8761CB6B29DF808008642D2D3C2
:1071D000002020706978A07881423ED0C11BCEB2D9
:1071E00000E03EE09DF808108E4217D2032815D229
:1071F00005EB8000007B05F043FC0246BAF8000076
:10720000B9F8003080B29BB2CDE9003006EB460100
:107210000BEBC101182300200AF0DAFF6878C11BCC
:10722000CEB29DF808108E4217D2032815D205EB76
:107230008000007B05F024FC0246B9F80000BAF893
:10724000003080B29BB2CDE9003006EB46010BEB7B
:10725000C101182300200AF0BBFF6878A07000204D
:107260006070BDE8FE8F0000DC050020F4080020FF
:10727000F8020020F40200202DE9F0433F4F99B0BE
:107280007878002877D038783D4E3E4D4FF0000991
:10729000F8B13D48008880B205F08EFD032005F06E
:1072A000EFFB02463088298880B2CDE9001000212A
:1072B000182308460BF010F83088182380B200908D
:1072C00028881946401E82B2002005F075FE87F816
:1072D00000900AF0C3F82D4C2DA2E179A079CDE9F8
:1072E0000001A38820210AA8F9F7F4F8A1786078B2
:1072F000CDE9000123782AA2202102A8F9F7EAF8B3
:107300002BA1D1E90001CDE91601207A16A9085C6C
:1073100005F0B6FB034628A2102112A8F9F7DAF807
:1073200068882A884408A4F13C0081B228301FFAFA
:1073300080F83088182380B2CDE900200AAA002006
:1073400014340AF0C9FF3088298880B2CDE90010D2
:10735000182302AA414600200AF0BEFF308829887F
:1073600080B2CDE90010182312AA214600200AF0AD
:10737000B3FF87F8019019B0BDE8F0833405002011
:10738000F4020020F4080020F8020020680B00201E
:10739000253034642D253032642D253032640000D0
:1073A000253032643A253032643A253032640000A8
:1073B0000405060708090A00257300007FB50400CC
:1073C0007AD0A0790B2878D2DFE800F00636608703
:1073D000B4D9F3F2F1F0EF00A07AFAF729FFE168EF
:1073E0002289E8A391F900100092CDE90101A1885A
:1073F000E6A02268F9F74CF8A07A400704D5206986
:1074000090F90010EBA001E0ECA1EDA0F9F740F835
:10741000A07AC00609D5606990F90010E5A0F9F7D7
:1074200037F8A06990F900102EE0E4A1E4A0F9F784
:107430002FF8E2A1E2A0CCE0A07AFAF7F9FEE16829
:107440002289E1A3B1F900100092CDE90101A188E0
:10745000CEA02268F9F71CF8A07A400704D520696D
:10746000B0F90010D3A001E0D4A1D5A0F9F710F82D
:10747000A07AC006D9D56069B0F90010CDA0F9F79F
:1074800007F8A069B0F90010CAA0A2E0A07AFAF744
:10749000CFFEE1682289CEA309680092CDE90101FF
:1074A000A188BAA02268F8F7F3FFA07A400705D5B3
:1074B00020690168BFA003E062E18CE0BFA1C0A029
:1074C000F8F7E6FFA07AC006AFD560690168B9A0F9
:1074D000F8F7DEFFA0690168D6E7A07AFAF7A8FE00
:1074E000E168BDA3D1E90021CDE902212189CDE9DF
:1074F0000010A188BAA02268F8F7CAFFA07A400756
:1075000006D52069D0E90023BFA0F8F7C1FF03E04A
:10751000AAA1ABA0F8F7BCFFA07AC00685D5606928
:10752000D0E90023B8A0F8F7B3FFA069D0E90023A1
:10753000B5A00DE1A07AFAF77BFEE1682289B5A338
:1075400009780092CDE90101A188B4A02268F8F77A
:107550009FFFA07A400703D520690178B9A001E018
:1075600096A10BE1F8F794FFA07AC006ACD560694C
:107570000178B4A0F8F78CFFA069017828E0A07A20
:10758000FAF756FEE1682289B0A309880092CDE996
:107590000101A188A1A02268F8F77AFFA07A40072C
:1075A00008D520690188A7A006E0D4E0A4E06AE03D
:1075B0003CE016E081A182A0F8F76AFFA07AC0063D
:1075C000ACD5606901889FA0F8F762FFA0690188C7
:1075D0009CA0F8F75DFF04B09FA0BDE87040F8F7ED
:1075E00057BFA07AFAF724FEE16822899BA30968B5
:1075F0000092CDE90101A18888A02268F8F748FF30
:10760000A07A400703D5206901688EA001E06BA134
:107610006BA0F8F73DFFA07AC006A7D560690168A6
:1076200088A0F8F735FFA0690168D1E7A07AFAF7DA
:10763000FFFDE1688CA3D1E90021CDE90221218978
:10764000CDE90010A1888BA02268F8F721FFA07A6D
:10765000400706D52069D0E9002390A0F8F718FF6D
:1076600003E056A156A0F8F713FFA07AC006A7D5ED
:107670006069D0E9002389A0F8F70AFFA069D0E982
:10768000002386A064E0E06800680CF0A9F90546D4
:107690000E46A07AFAF7CCFDCDE9025602462089C3
:1076A000CDE90002A18880A381A02268F8F7F0FE4E
:1076B000A07A400709D5206900680CF091F90246CC
:1076C0000B4685A0F8F7E4FE03E03CA13CA0F8F7E8
:1076D000DFFEA07AC006A0D5606900680CF080F9D2
:1076E00002460B467CA0F8F7D3FEA06900680CF0B8
:1076F00077F902460B462AE0A07AFAF799FDE1688D
:1077000077A3D1E90021CDE902212189CDE900103B
:10771000A18867A02268F8F7BBFEA07A400706D5CB
:107720002069D0E900236CA0F8F7B2FE03E023A1A2
:1077300023A0F8F7ADFEA07AC00698D56069D0E91D
:10774000002365A0F8F7A4FEA069D0E9002362A099
:10775000F8F79EFE3FE7A07AFAF76AFD2289E16812
:107760000092CDE90101A1885FA361A02268F8F72A
:107770008FFEA07A40077FF5F3AE216910A0F1E6F5
:107780007FBD0000696E74385F74000020252D34C1
:1077900064202020252D32347320252D3130732094
:1077A000252D366420252D387320252D3130642079
:1077B00000000000252D3130642000002D00000065
:1077C000252D313073200000696E7431365F7400EE
:1077D000696E7433325F7400696E7436345F74009E
:1077E00020252D3464202020252D32347320252D92
:1077F00031307320252D366420252D387320252D1A
:1078000031306C6C64200000252D31306C6C6420AC
:107810000000000075696E74385F740020252D34F7
:1078200064202020252D32347320252D3130732003
:10783000252D366420252D387320252D31307520D7
:1078400000000000252D31307520000075696E7430
:1078500031365F74000000000A00000075696E7424
:1078600033325F740000000075696E7436345F74E3
:107870000000000020252D3464202020252D3234E6
:107880007320252D31307320252D366420252D3889
:107890007320252D31306C6C75200000252D313082
:1078A0006C6C752000000000666C6F617400000055
:1078B00020252D3464202020252D32347320252DC1
:1078C00031307320252D366420252D387320252D49
:1078D0003130662000000000252D31306620000088
:1078E000646F75626C650000737472696E67000086
:1078F00020252D3464202020252D32347320252D81
:1079000031307320252D366420252D387320252D08
:107910003130732000000000FBF7C8BC30B595B0D3
:1079200028216846F9F74DF914210AA8F9F749F911
:1079300018210FA8F9F745F90D204FF480310024E4
:107940008DE8130001200225CDE90605039004907F
:107950004FF4E010CDE908106846FBF7F3FE08B1DC
:1079600072B6FEE70F20CDE90A054FF48060CDE93D
:107970000C4002210AA80E94FBF708FE08B172B66B
:10798000FEE703200F904FF480701090C00111901B
:107990000FA8FBF785FD002801D072B6FEE715B0F1
:1079A00030BD704710B507F0FBFF0D484168482017
:1079B000884700F037FD09F0C3F9002009F05AF8B4
:1079C00009F0DCFFFDF7BEF804F03EFC0120FDF7F6
:1079D00071FAFFF7B5F8BDE81040FDF7A5BC00004F
:1079E000F803002010B5FAF799FCFAF795FDFAF7BD
:1079F000EDFD482001F0EAFF4FF4E1300AF0E6FC2B
:107A000040F63541052005F0CBF900F0EBFC09F01C
:107A1000C1FDBDE8104009F01DBC000010B501F02B
:107A20009DFC052214210B4801F05CFC0622142168
:107A3000094801F057FC05224FF47A71074801F01C
:107A400051FC06226421064801F04CFCBDE81040C0
:107A500001F0E8BC4169000853690008038200088E
:107A60006169000810B5184C20680069C043C00760
:107A700028D116494FF480704A68824203D9A2F592
:107A800080724A6008E012F0FF0F11D012F0FF0080
:107A90004FF000024A600BD00D49401E08600121E2
:107AA0000948FCF75DFB2068016841F0010104E032
:107AB00007483038016821F00101016021686FF04A
:107AC0000100086110BD0000C00C00201803002058
:107AD000302C0140064800680169C943C90703D139
:107AE00004490A68521C0A606FF001010161704785
:107AF000580C002014030020044800680169C943A1
:107B0000C90701D1891E016170470000800B002068
:107B100010B50A4C2068C068C043C00709D10848A6
:107B20000069804721680020486221686420C8629B
:107B3000E06021686FF00100086110BD381F00206F
:107B4000F80300200148FCF7F5BC0000E00D002020
:107B50000148FCF7EFBC0000BC07002000F0C4BCEB
:107B600000F0C2BCF0B50268204C214D214E224FDE
:107B7000224B4FF0804CA04209D0984207D060457C
:107B800005D0A84203D0B04201D0B84204D122F0BF
:107B9000700E4A6842EA0E02A04209D0984207D00D
:107BA000604505D0A84203D0B04201D0B84203D10D
:107BB00022F44075CA682A434D6922F080022A43A4
:107BC00002608A68C2620A688262A04201D098425A
:107BD00001D109690163012141610169C90703D02C
:107BE000016921F001010161F0BD0000002C01409C
:107BF0000004004000080040000C00400034014038
:107C000010B501F01F030121046A99408C430462FE
:107C1000016A9A401143016210BD000070B5056A07
:107C2000046A24F0010404628469124EB0420ED04A
:107C3000114EB0420BD0B0F1804F08D00F4EB04281
:107C400005D00F4EB04202D00E4EB04203D124F008
:107C50000304144301E044F001041A0724F0F00483
:107C600044EA126225F00A0301F00A011943826115
:107C7000016270BD002C014000340140000400404E
:107C800000080040000C004030B5046A056A25F089
:107C900010050562856925F4407545EA022222F443
:107CA00070454FF6FF7202EA033224F0A0032A4324
:107CB000A02404EA011119438261016230BD10B5AC
:107CC000406A0021C185C184FCF70FFD10BD016829
:107CD0000C3151E8002F22F4907241E80023002B70
:107CE000F5D10168143151E8002F22F0010241E87A
:107CF0000023002BF5D1016B012909D101680C315A
:107D000051E8002F22F0100241E80023002BF5D1AA
:107D1000202180F8421000210163704708B590F8D7
:107D20004210222901D0022008BD82684FF48053FE
:107D30009A4201D1016921B1816A9A421BD04AB1AC
:107D40000AE00268816A5268C2F308020A80816A06
:107D5000891C08E0026972B10268526802F07F0271
:107D60000A70816A491C8162C18D491E0904090C8F
:107D7000C18503D01BE002685268F1E70168CA6858
:107D800022F02002CA600168CA6822F48072CA60C8
:107D900001684A6922F001024A61202180F84210FC
:107DA00000214163026B012A03D0FCF74DFE002045
:107DB00008BD016301680C3151E8002F22F0100268
:107DC00041E80023002BF5D101680A68D20602D5EC
:107DD0000A6849680091818DFCF786FCE7E700009E
:107DE00070B5044600680169E26821F4405111430E
:107DF00001612169A0680843616908432168CA6874
:107E000041F20C639A430243CA6020684169A26947
:107E100021F44071114341611E492068884202D11A
:107E2000FBF75AFC01E0FBF747FC00EBC00101EB5C
:107E30000012606864218000B2FBF0F3B3FBF1F341
:107E40006FF018067343B2FBF0F5B2FBF0F605EBEA
:107E50008305322303EB0515B5FBF1F5B6FBF1F60F
:107E600005F0F00505EB0615B2FBF0F6B2FBF0F0FD
:107E7000B0FBF1F06FF01802504306EB800003EB0B
:107E80000010B0FBF1F0216800F00F00284488607A
:107E900070BD00000038014081628285C2850021EA
:107EA0004164222180F84210016921B10168CA6849
:107EB00042F48072CA6001684A6942F001024A6174
:107EC0000068C16841F02001C160002070470000D7
:107ED0000148FCF70BBC0000F00E00202DE9F0413A
:107EE000064600200D461746C5E9000004468046B8
:107EF0000DE000BF16F8010B4146E200F8F774FAF6
:107F0000D5E9002310431943C5E90001641CBC42B4
:107F1000F0DB3046BDE8F0812DE9F0410646002057
:107F20000D461746C5E90000044680460DE000BF37
:107F300016F8010B4146E200F8F756FAD5E900239E
:107F400010431943C5E90001641CBC42F0DB304614
:107F5000BDE8F0812DE9F04120212348FBF76EF8C0
:107F600050B30025214C4FF400412046FBF766F842
:107F700020B3002045EA400501212046FBF75EF8CA
:107F80001B4A45EA8000C3B21078834224D0002700
:107F90003D465770394602F1020C00BF0CEB8100E0
:107FA00044781C4000D0012486781E4000D0012671
:107FB000344205D0012414E00125D3E70120D9E79C
:107FC00034430BD00478012C0AD004B10125491C9C
:107FD0000229E3D355701370BDE8F0810770F6E70E
:107FE00002240470F2E70000001001400008014084
:107FF000F4010020FEE770B50446807A0D46C00605
:108000001CD5A17900200B2918D2DFE801F0061851
:1080100027374752606B7B8FA000D5E9000162696A
:1080200092F90020D317821A71EB03027DDBA2695B
:1080300092F90020D317101A8B4175DB99E0626921
:10804000D5E90010B2F90020D3178A1A70EB0302A9
:108050006BDBA269B2F90030DA171BE06269D5E97F
:1080600000101268D3178A1A70EB030276DBA2693C
:108070001268D317511A834179DB7AE0D5E90010F1
:108080006369D3E900238A1A70EB030266DBA269F5
:10809000D2E90032591A824169DB6AE06369D5E9A5
:1080A00000211B78D31A71EB000357D3A3691B7807
:1080B00009E06369D5E900211B88D31A71EB00033D
:1080C0004CD3A3691B889A1A884150D351E0636945
:1080D000D5E900211B68D31A71EB00033ED3A369D5
:1080E0001B68F0E76269D5E90010D2E90032CB1ACB
:1080F00070EB020232D3A269D2E90032591A8241EE
:1081000035D336E0606900680BF06AFCD5E90023DE
:108110000BF046FB22D3A06900680BF061FCD5E9A7
:1081200000230BF003FA24D221E017E06069D0E9C4
:108130000023D5E900010BF0F9F90FD3A069D0E9CC
:108140000023D5E900010BF02BFB12D20FE02846EB
:10815000F8F720FC61690978884201D2012070BDDE
:108160002846F8F717FCA1690978884201D902204E
:1081700070BD002070BD00007FB5054600200C4694
:108180000090019002900390A9790B2937D2DFE883
:1081900001F00609101E1214181E1A1E210094F96F
:1081A000000001E0B4F900005FEAE071CDE90001F0
:1081B0001FE02068F8E7217800E02188CDE9001071
:1081C00017E02168FAE720680BF00AFCEEE7D4E933
:1081D0000001EBE72046F8F7DDFB0F2801D30E2066
:1081E00002E02046F8F7D6FB024621466846F8F73B
:1081F00047FC69462846FFF7FEFE04B070BD00202C
:10820000FBE704F0C7BD490050EAC12018BF0420B5
:108210004A0D18BF40F0010040F2FF72B2EB515F0F
:1082200008BF40F00200012808BF05207047090779
:10823000090E002804DB00F1E02080F800147047EC
:1082400000F00F0000F1E02080F8141D7047303876
:108250000A2801D2012070470020704770470000B3
:108260000D4A116821F0010111600C498B6823F05F
:1082700001038B608B68DB07FCD1C860886840F025
:1082800001008860106840F001001060106840F440
:108290008000106070470000082401400000024088
:1082A0002DE9F1478FB0182103A8F8F78AFC0026C2
:1082B0004748009601960296816941F400718161F8
:1082C000816901F400710D91816941F010018161B2
:1082D000816901F010010D91416941F00101416195
:1082E00040694FF0020A00F00100CDF80CA00D909B
:1082F0004FF40040059003A8FBF7D2F84FF01009A7
:108300000327CDE9099709A93248FAF79BFD334DB8
:1083100031484FF48078C5E900068020C5F8108008
:10832000C5E90260C000C5E905068000E86128468D
:10833000FAF70EFD05F14404294825626C6284E8D1
:10834000410101252573276126754FF46020C4E99A
:1083500006602046FAF796FA2068816841F4000129
:1083600081602046FAF7A0F90E20CDE900051B48F0
:108370000724694602944430FAF702FACDF80090D7
:108380001648CDE901A469464430FAF7F9F91120FD
:10839000CDE900071148694602944430FAF7F0F934
:1083A000032211460B20FAF7E7FF0B20FAF7D6FF5E
:1083B0000B4900234C3109480F9AFAF707FD07488B
:1083C00000220FA94430FAF719FB10B0BDE8F0877E
:1083D0000010024000100140080002400409002083
:1083E0000024014010B50448FFF75AFFBDE81040D3
:1083F0009620FFF735BF0000280A002010B5FF24A3
:10840000204600F021F855280AD05521204600F0DA
:108410004CF8204600F018F8552801D0012010BD76
:10842000002010BD04F066BB70B514460D4606462C
:1084300006E03046711C8EB200F006F805F8010B1C
:10844000641EA4B2F5D270BD10B5044604F006FC5B
:10845000200AA02101EB4000C0B204F0CFFB04F0E1
:1084600043FCE0B204F0CAFB04F03EFC04F0F6FB6F
:10847000A12004F0C3FB04F037FC002004F08AFBC9
:10848000044604F011FC204610BD70B516460C469B
:10849000054606E02178284600F007F86D1CADB2CD
:1084A000641C761EB6B2F5D270BD70B50D4604469A
:1084B00004F0D4FB200AA02101EB4000C0B204F07C
:1084C0009DFB04F011FCE0B204F098FB04F00CFCFE
:1084D000284604F093FB04F007FC04F0E5FBBDE83C
:1084E00070400A20FAF7AABC2DE9F0413B4C3C4809
:1084F0003C4E22780168002522B1658035604D62CE
:10850000BDE8F0810A694FF00107D2071DD0FA1EBD
:108510000A6101680A69D243920716D565706288BC
:108520002AB14FF6FF739A4203D1658008E0678055
:1085300006E0B2F5004F01D3638001E05200628093
:1085400062888A620068456245E06178E1B18046F0
:108550000068006980073ED504212148FCF7AEF889
:10856000401CA06000211E48FCF7A8F8401CE060F9
:10857000A16881422DD21B4A27701832126812045A
:10858000120C628006D009E000680069800722D5DD
:10859000677020E0401C491CC4E902101148657056
:1085A0001038016821F001010160D8F80010CA6894
:1085B00022F00202CA60D8F80010CA6822F0040251
:1085C000CA60D8F80000C16821F00101C1603560BF
:1085D00001E000F009F8356092E700001803002080
:1085E000980D00201034014010B509F026FD0F4908
:1085F0000020087048800E490A6890620A6850623C
:108600000A68D36843F00203D3600A68D36843F072
:108610000103D36009680A6842F001020A60054953
:108620000860BDE8104009F00ABD000018030020F2
:10863000980D0020103401402DE9F05F0746406B93
:10864000891E00EB1135C1F3C80601F007014FF098
:10865000010B0BFA01F09A469146C4B229466D1CF3
:10866000384608F0EDF910B10120BDE8F09F5A46F8
:108670004FF40073B91991F83C00204202D04FF03A
:10868000010801E04FF00008D04501D10220ECE7DD
:10869000604081F83C00B9F101003A718146E4D0B4
:1086A000600010F0FF04E5D10124761C9E42E1D366
:1086B0000026D3E770B5044600202071401E2062DA
:1086C000204608F0BDF908B1042070BD04F23A203C
:1086D00007F0C7FE4AF655260546B04206D10B22E2
:1086E0002BA104F13C00F8F705F940B194F83C00E7
:1086F000EB2806D0E92804D0E82802D041E0012088
:1087000070BDB54207D1082224A104F18E00F8F70C
:10871000F1F80028F4D004F1470007F0A2FE94F825
:108720004910421E10422CD14FF40072904228D3BF
:10873000904226D829B3481E014222D104F14A00B2
:1087400007F08FFEE8B194F84C00401E012818D8BD
:1087500004F14D0007F085FE98B104F14F0007F0D9
:1087600080FE802806D204F15C0007F07FFEB0F5A1
:10877000803F06D304F1520007F073FE08B10020D9
:1087800070BDB54201D1022070BD032070BD000054
:10879000EB76904558464154202020004641543302
:1087A000322020200000000070B50168046D500ADE
:1087B0004D8940EAC350590A2A460023241DF7F781
:1087C0009CFD02CC21B1884204D3401A241DF8E755
:1087D000002070BD2168084470BD8269891E921E08
:1087E0008A4201D800207047026B408900FB0120BB
:1087F000704700002DE9F05F82460C4601F11A0037
:1088000007F02FFE78BB2078012700F03F00401EC4
:1088100000EB8001DFF8589001EBC00500264FF611
:10882000FF7B00BF19F80600204407F01AFE8046BF
:108830006FB1FF2D17D803F0E9FB07463AF8150092
:108840006D1C03F0E3FB87420DD1474601E0D8459C
:1088500009D1761C0D2EE5D32078400606D52FB120
:108860003AF8150010B10020BDE8F09F0120FBE7A9
:108870004870010830B50E4D2C681CB16D680DB103
:10888000A84202D34FF0FF3030BD00EB800004EB74
:10889000C00003250576418343768283017A29B996
:1088A00000F118010C300EC980E80E00002030BD28
:1088B000E80100200D4B1A681AB15B680BB19842B1
:1088C00002D34FF0FF30704700EB800002EBC00096
:1088D000022303764183017A29B900F118010C3093
:1088E0000EC980E80E00002070470000E80100205B
:1088F00010B50E4C23681BB164680CB1A04202D3C2
:108900004FF0FF3010BD00EB800003EBC0000124EE
:10891000047681834283017A29B900F118010C3071
:108920000EC980E80E00002010BD0000E801002004
:10893000094A116861B1526852B1904208D200EB05
:10894000800001EBC001087B022803D0032801D07E
:108950000020704788787047E8010020F0B50F4D7F
:1089600000240F462646C5E9000113E02A6804EBFF
:10897000840102EBC10086708680C68002F83160F7
:1089800006720021204600F047F8204600F05EF80D
:10899000641CE4B2BC42E9D30020F0BDE801002031
:1089A0000B4A116879B152686AB190420BD200EB60
:1089B000800001EBC000017B012904D1007A03286B
:1089C00003D0042801D00020704701207047000028
:1089D000E80100200F4A1368BBB15268AAB1904267
:1089E00013D20C4B00EB8000CA071B6803EBC000DE
:1089F00004D0027A012A0AD0032A08D0890704D5B4
:108A0000007A022803D0042801D0002070470120FA
:108A100070470000E80100200B4B1A681AB15B6830
:108A20000BB1984202D34FF0FF30704700EB80004B
:108A300002EBC0000162027A22B9D0E90623C260CB
:108A4000C0E9043100207047E80100200A4A11689B
:108A500019B152680AB1904202D34FF0FF3070470B
:108A600000EB8000032201EBC0000021427601767A
:108A70008183418308467047E80100202DE9F041D9
:108A80003A4C06464FF00008206820B1606810B1EB
:108A9000A06820B104E04FF0FF30BDE8F081A6608F
:108AA00000250CE0206805EB850700EBC700406A55
:108AB000804721686D1C01EBC701EDB2487060680A
:108AC0008542EFD300254AE0206805EB850710F8C2
:108AD000371000EBC7004278914200D11146027B6B
:108AE00032B1012A0AD0022A1ED0032A0CD121E079
:108AF0002289B21A92B2FDF711FC04E02289B21A5F
:108B000092B2FDF7CAFB8046B8F1000F06D020688C
:108B100000EBC700416909B128468847216801EB8D
:108B2000C700027A62B115E02289B21A92B2FDF74B
:108B300083FBE8E72289B21A92B2FDF730FBE2E745
:108B400000F1180200F10C0E92E80C108EE80C10E7
:108B50000022827040786D1C01F83700EDB2606829
:108B60008542B1D30020A66097E70000E80100200D
:108B70002DE9F0414C4D0746286820B1686810B1D6
:108B8000A86820B104E04FF0FF30BDE8F081AF608D
:108B900000244FF6FF76A04671E02868AB6800EB32
:108BA0000410FB1A8188721A9A4201D2868001E071
:108BB00019448180C178CA0701D0827862B1CA069F
:108BC0000ED5FDF7F1FC0146286800EB0410C278D1
:108BD00061F38202C2700DE04A0862F3820108E08C
:108BE000427800EBD20302F007021B7AD34063F312
:108BF0008201C170286800EB0410C178C9062AD52B
:108C00004189AB68721AFB1A9A4201D2468101E08F
:108C1000194441818288C1888A422ED9A0F80480F3
:108C2000C1780907018909D5491C89B20181142934
:108C300023D3C17821F00801C1701EE0491E090448
:108C4000090C018119D1C17841F00801C17011E00E
:108C5000491E817011E08188C28891420DD3A0F82D
:108C6000048042784146521CD2B2427003789A4244
:108C700003D3417081780029EAD1641CA4B26868EA
:108C800084428AD3002409E0286800EB0411C878E4
:108C9000C968C0F380008847641CA4B26868844235
:108CA000F2D30020AF6070E7C8020020094A10B577
:108CB000C2E900010022134607E000BF00EB0214E6
:108CC000521C23606360D2B2A3608A42F6D30020B4
:108CD00010BD0000C80200200F4A116819B1526887
:108CE0000AB1904202D34FF0FF307047642201EB8B
:108CF00000100021C2808180027A5AB100220272E3
:108D00004170012202708170C17821F01301C1709D
:108D1000002070470122F2E7C802002030B5144D50
:108D20002C681CB16D680DB1A84202D34FF0FF3022
:108D300030BD04EB0010C18000218180012B01D0E7
:108D40004FF00203037241704FF002010170827014
:108D5000C17841F00101C17002D141F0020101E08E
:108D600021F0020121F01001C1704FF0000030BD70
:108D7000C8020020074B10B51B6813B11C693CB931
:108D800002E04FF0FF3010BD1861197702B1DA60D0
:108D9000002010BD3C7A00202DE9FC412B4D4FF006
:108DA000FF362C68002C4FD02069E8B3287CC00720
:108DB0004AD0FCF7E3FAB8B3A27F216902EB420282
:108DC000142351F832104160A27F216902EB420264
:108DD00003EBC2020C2689588160002101610177F2
:108DE000E268C260A37F226903EB430306EBC3037F
:108DF0001027D2584261A67F236906EB460607EB8F
:108E0000C6069B59836181770121C1770460EA60BE
:108E10002860A17F226901EB4103042101EBC30318
:108E2000D25872B1426800E00EE000928068019072
:108E3000A27F206902EB420201EBC2014158684661
:108E400088470020BDE8FC813046FBE73C7A0020E3
:108E50002DE9FC411C4C05464FF0FF32206880B3E1
:108E6000217CC9072ED0016859B321604969E160AE
:108E7000F9F74AFA2068817F026901EB4103082172
:108E800001EBC3030026D258AAB1827F036902EB2B
:108E9000420253F832700097142707EBC2029A5827
:108EA0000192C6770269807F00EB400001EBC000B1
:108EB0001158684688470DB1206886770020BDE8C4
:108EC000FC81FFE71046FAE73C7A00202DE9F041EB
:108ED000134E05464FF0FF373068F0B911480024B3
:108EE0000470FCF74BFAC0B12968416069690460FD
:108EF0008160E968C46041612A6904618261047724
:108F000084774477C4773060347468687060A86888
:108F1000C6E902010020BDE8F0813846FBE7000009
:108F20003C7A00203005002058B151B10B7802780E
:108F3000934200D90A70427883789A4204D28270B0
:108F400009E04FF0FF3070470978D31A8B4202DBFB
:108F5000511A491C81700020704700001CB50C4C50
:108F6000206810B1217CC90702D04FF0FF301CBD32
:108F7000616829B14268009280680190684688471C
:108F80000120207420684069E06000201CBD0000C2
:108F90003C7A0020094A10B511684FF0FF3339B10F
:108FA0000C692CB1127CD20702D00A7F824201D810
:108FB000184610BD8877002010BD00003C7A0020C4
:108FC0000D4A10B511684FF0FF3461B10B6953B110
:108FD000127CD20707D00A7F8B7F521E934204DA9D
:108FE0005B1C8B7704E0204610BD18B10020887709
:108FF000002010BD8A77F6E73C7A00200D4A10B5B4
:1090000011684FF0FF3349B10C693CB1127CD207B3
:1090100004D08A7F22B1521E8A7705E0184610BD1F
:1090200020B1087F401E8877002010BD002088777F
:10903000F4E700003C7A0020F0B5274CADB0206882
:10904000F8B1217CC9071CD0E16839B142682B9284
:1090500080682C902BA888470020E0602068026977
:109060006AB3017F8DF80010817F8DF80110417F78
:109070008DF80210416801918168029100216B46D0
:109080000FE04FF0FF302DB0F0BD00BF01EB410607
:1090900002EBC60603EB81053768EF607669491C71
:1090A000EE659DF800508D4201DD1429EEDBC168AC
:1090B00009B11846884721689DF802004877206862
:1090C000816931B141682B9181682C9181692BA80C
:1090D00088470020D7E700003C7A00202DE9F047C0
:1090E0008946050004D000240C264FF01C0826E019
:1090F0004FF0FF30BDE8F087286806EB4417C159F0
:1091000000EB4410FFF738F8010006D0B9F1000F6A
:1091100014D0286800EB44100EE0286808EB4411D6
:10912000415859B1C059884740B1B9F1000F05D035
:109130002868032100EB44104A469047641CA88825
:10914000A042D9DC0020D5E72DE9FC415FEA000808
:1091500006D00020CDE90000481C0E78541E1FE008
:109160004FF0FF30BDE8FC8132466946FEF7D4FE81
:109170000746DDE900010A0642EA1021C5B2A81936
:10918000C9B2A0420ED87019241A4046F9F72AFA3B
:1091900028B10189A94202D13946FCF703FF7819A9
:1091A000B442E1D80020DDE770B550EA010215D0E5
:1091B00000220C2483880BE0056804EB4216AD59AD
:1091C0008D4203D1006800EB421004E0521C92B2C1
:1091D0009342F1D80020817AC90700D1002070BDE8
:1091E000F0B54FF0FF3618B311B300241AE000BFFA
:1091F00001EB44139D690DB15D691DB99D7A25F0A0
:1092000010059D729D7AEF0702D125F002059D722F
:109210001D691DB99D7A25F004059D72DB683BB17F
:10922000641CA4B29442E3D3016082800020F0BDAC
:109230003046F0BD70B5002320B119B184880A68AA
:10924000A24210D9002070BD056804EB4216AD5D46
:10925000ED0705D0006800EB4213521C0A6006E0DF
:10926000521C0A6000E00A248588AA42ECD3184602
:1092700070BD2DE9F84306000C4606D04FF00208F9
:10928000601C81F8008000251BE00020BDE8F88309
:109290003168042202EB45128B5A082202EB451278
:1092A0008A5ACDF8008063F31F22D317FDF733FCF1
:1092B0000746306800EB45113846FCF706FF384496
:1092C0006D1CB188A942E3DC001BDFE710B54FF04D
:1092D000FF3420B1FDF79EF908B1002010BD2046F3
:1092E00010BD00002DE9F0478246052A01D2052273
:1092F00002E0FA2A00D9FA22174D002000EB4003C1
:1093000005EB83039B7A934222D300EB400305EBEA
:10931000830300261C7A8CB10924A9460CE000BF07
:1093200004EB440709EB87052D1F641EB5E8801187
:10933000A5E8801105F8186C8442F1DC0120187250
:109340005E72D981C3F810A099819A72BDE8F08746
:10935000401C0A28D2DBF9E74C08002010B5002099
:109360000F490346FF240870C1F8040003EB4302D1
:1093700001EB82025B1C10725072D08110619081EF
:1093800094720A2BF2DB002201EBC203521CA3F8F9
:109390008200C3F88400A3F88000052AF4DB10BD26
:1093A0004C08002070B51E4C00212078002835D0D4
:1093B0006068401C606010E0027A52B1828942B15C
:1093C000521E1204120C828103D1C28982810122B1
:1093D0004272491CC9B20A2906D201EB410004EBD2
:1093E00080000269002AE7D1002511E0B0F8801062
:1093F00051B1491E0904090CA0F8801004D1B0F83D
:109400008210A0F8801090476D1CEDB2052D05D29A
:1094100004EBC500D0F88420002AE7D170BD00001D
:109420004C0800200E4C01200026207000200FE088
:10943000297A49B1697A39B100EB400004EB800028
:10944000006980476E72F1E7401CC0B20A28EDD275
:1094500000EB400104EB810529690029E6D0E7E72C
:109460004C0800202DE9F04706685FEA010807462E
:109470002BD04146384603F0D5F9022846D3411C8B
:1094800045D0B169814242D84546706900283ED036
:1094900030784FF0FF3904281ED045455FD1B069C0
:1094A0006C1CA04200D802242146384603F0BAF9C9
:1094B00001282CD0411C2AD080B3306902284ED319
:1094C000B16981424BD9054649E0356915B1B069AA
:1094D000A842DAD80125D8E701222946304602F011
:1094E00009FE040062D0601C60D001231A462146A8
:1094F0003046FFF7A1F8022808D0012809D0B8F1BA
:10950000000F08D0F979022909D010E00120BDE848
:10951000F0874846FBE70221F97143E01EE0691C31
:109520008C423FD0B968691AB9610321F97108F119
:1095300001018C4206D1F96909B1491C00E0022100
:10954000F9612FE0F869012500B9FD612246414625
:10955000384602F0B6FD30BBFD6129E0A4B92C46C7
:10956000B069641CA04202D80224022D0AD321460D
:10957000384603F057F938B10128C8D0411CC6D08D
:10958000AC42EDD10020C2E74A462146304607F002
:10959000E3FD40B9B8F100000AD00146224630464A
:1095A00007F0DAFD20B1012811D001242046AEE7F2
:1095B000346170690028F9D0B169891E8842F5D8F4
:1095C000401E7061707940F001007071EEE74C460A
:1095D000ECE700002DE9FC5F824608680190DAF8AC
:1095E00000000E460025C7684FF4803801A808F037
:1095F00028FD411C3BD0404503D3010C27F8151032
:109600006D1C84B2202C1CD32F2C10D05C2C0ED0BF
:10961000802C04D2214676A0F7F750F938BBFF2DF5
:1096200025D227F815406D1CE0E7401C01900198F9
:1096300001782F29F9D05C29F7D00024C8B220285E
:1096400000D204240198306009E000BF07EB450018
:1096500030F8020C202801D02E2802D16D1E002DDA
:10966000F4D1002027F815000DB1002603E00620F4
:10967000BDE8FC9F761C37F816002028FAD016B9F2
:1096800038882E2803D144F0030400E06D1E2DB16C
:1096900007EB450030F8020C2E28F7D120220B21D1
:1096A0000AF14000F7F763FA4FF000084FF0080B9B
:1096B000CDF8008037F8160006F101065FEA0009D0
:1096C00024D0B9F1200F04D0B9F12E0F04D1AE424D
:1096D00002D044F00304EDE70098584501D2AE42B1
:1096E00019D1BBF10B0F0FD0AE4201D044F00304EF
:1096F0000CD84FF0080000904FEA88602E464FF0DB
:109700000B0B4FEA1068D5E744F003049AF84000C9
:10971000E52849D04BE04846B9F1800F08D344F022
:10972000020402F073FC4FF46A7102F037FC8146C8
:10973000B9F1FF0F13D90099ABF10100814204D3B5
:1097400044F00304CDF800B0B4E700984FEA1922C2
:10975000504480F840200098401C00901BE0B9F174
:10976000000F04D0014625A0F7F7A8F820B14FF06C
:109770005F0944F003040EE0A9F14100192801D863
:1097800048F00208A9F16100192804D8413048F0D6
:1097900001081FFA80F9009A0AEB020181F8409053
:1097A0000098401C009085E705218AF84010BBF125
:1097B000080F03D14FEA88604FEA1068C8F38100B0
:1097C000032803D06FEA0800800701D144F00204A7
:1097D000A00709D45FEAC87001D044F010045FEA22
:1097E000487001D544F008048AF84B4000203FE758
:1097F0002A3A3C3E7C223F7F000000002B2C3B3D60
:109800005B5D00002DE9FF4F81B09B466A46012158
:10981000019800F076FC00287DD108264FF03F0922
:10982000F101009F03E0700010F0FF0606D006FB78
:1098300009F0B7FBF0F08842F5D806B9FF264FF4DF
:1098400000715846F7F79BF90BF5DF754FF0000AEA
:109850004C465DE0029951F82A80B8F1640F09D8AE
:1098600001D1384605E04FF06400B7FBF0F000FB93
:1098700008F0804604EB0800B84201D8A04201D2AB
:10988000A7EB0408B8F1000F44D0214605F1080009
:1098900008F0C4FA414605F10C0008F0BFFAB4FB29
:1098A000F9F2B2FBF6F303982871B4FBF9FC09FB5B
:1098B00006F1B4FBF1F006FB132209FB1C4C6A70A5
:1098C000C02303EA90020CF1010C42EA0C02AA70D8
:1098D000E87004EB0800441EB4FBF9FCBCFBF6F294
:1098E000B4FBF9F8B4FBF1F106FB12CC09FB18420A
:1098F00003EA9103521C85F805C01343AB71E9716B
:109900000AF1010A10350446BAF1040F02D20CB173
:10991000BC429FD300E00DE04AF655210BF5FF70E5
:1099200008F078FA012300225946019800F03FFC24
:10993000002800D0012005B0BDE8F08F2DE9F05FD0
:10994000894605464021F7F71AF985202870C0207E
:109950004024002685F8200037464FF00108B24623
:109960004FF0C10B05F804B0641C05F804A0641C9A
:10997000B8F1000F06D039F816005FEA000801D0F0
:10998000761CF6B22819414608F044FAA41CE006F9
:10999000EED17F1C39F81600FFB20028E2D185F81D
:1099A00023607F1C6F70484609F071FC014605F189
:1099B0002400BDE8F05F08F02DBA812803D3FE280B
:1099C00001D801207047002070470000014908605D
:1099D00070470000100000204FF47A71484300F0F7
:1099E00001B8000070B54FF0E02400226569094914
:1099F000A36909684843A1699942FCD002D2A3EB4C
:109A0000010302E0A5EB010633441A440B468242EF
:109A1000F1D370BD100000202DE9F0410F4604463F
:109A20000021066800F014FBE8B900253046A16B60
:109A300007F006F8B8B931780429E16B097803D04A
:109A4000E52905D021B107E041F3C011491C03D03D
:109A50006D1CBD420AD000E000250121204600F027
:109A6000FFF80028E2D0042800D10720BDE8F081EB
:109A70002DE9F0470C46054608F0BCFAA8BB214684
:109A80002846FEF7AAFE064628624FF4007705F145
:109A90003C0039468046F7F794F86889BC01B4EB7E
:109AA000402F04D9440200E06408BC421ED920467D
:109AB00002F034FA5FEA0009F6D0BC4216D921461A
:109AC000F7F75DF8670A002400E03C446889A0428B
:109AD00007D9321968783B46494600F068FB0028F0
:109AE000F3D0484602F01EFA0FE011E001270024EF
:109AF00000E03C446889A04207D9321968783B46A7
:109B0000414600F054FB0028F3D06889A04202D0FF
:109B10000120BDE8F0870020FBE72DE9F05F044657
:109B20000021056800F094FA00284CD12878042818
:109B30000CD0FF264FF0FF38B146C4F84C802846C1
:109B4000A16B06F07DFF07004ED13EE0E86809F00A
:109B50009EFB82462FE0A86B243006F082FC504525
:109B600029D1A86B40264FF0000990F8238017E018
:109B7000F00600D1B61CA86B304406F072FC02F06F
:109B800045FAE968074631F8190002F03FFA8742C2
:109B90000AD1A8F1010000F0FF0809F10109B61C83
:109BA000B8F1000FE4D102E0B8F1000F03D1E96889
:109BB00031F8190030B10021204600F0B3F85FEA17
:109BC000000BC8D05846BDE8F09FE16B087850B153
:109BD000CA7AE52802F03F02A27135D0130704D5F6
:109BE0000F2A31D105E0042738E00F2A01D0DEB179
:109BF0001FE094F84B20520629D4420606D5226B6A
:109C0000E26400F0BF0091F80D900646B04208D122
:109C10004A7B4A4505D1E868FEF7ECFD08B1761E9F
:109C200000E0FF26F6B212E0084608F06DF948455C
:109C300014D094F84B00C00706D10B2204F1400168
:109C4000E06BF6F757FE48B1FF26C4F84C800021C0
:109C5000204600F005F807003FF471AF3846B2E740
:109C60002DE9F04707680446066B387820368946A8
:109C700004280AD04FF400104FF00008B04238D941
:109C8000A06B28B1F10506D044E04FF08050F3E717
:109C90000420BDE8F087401CA063616B29B178897E
:109CA000401E10EA562F05D034E03889B0EB561F1D
:109CB0001FD92FE0204602F0B5FD054601281DD929
:109CC000681C14D0B869A8421ED8B9F1000F10D092
:109CD0002046616BFFF7C6FB05000DD0012D0DD0AE
:109CE000681C04D029463846FFF7C2FE40B1012067
:109CF000CFE7C4F83880CBE70720CAE70220C8E7DF
:109D0000E07940F00400E071294638466563FEF7CB
:109D100064FDA063C6F3080038443C302663E0636A
:109D20000020B6E72DE9F0470426FF2489460546C2
:109D3000A04607685FE0384606F082FE06005ED166
:109D4000E96B087898B13A78042A12D0CA7AE528E3
:109D500002F03F02AA7108D02E2806D022F020037C
:109D6000082B1BD0B446CC451BD0FF2433E004267F
:109D700045E0B9F1000F02D0832842D02BE08528BE
:109D800029D1286BE864284606F0D6FB060036D1B8
:109D9000B86B007900F03F00A87132E04FF0010C81
:109DA000E1E70F2A01D014BB1CE0420606D591F86A
:109DB0000D8000F0BF002A6B0446EA64A04208D17F
:109DC0004A7B424505D1F86807F08CF908B1641E5A
:109DD00000E0FF24E4B200212846FFF741FF06001F
:109DE00009D00CE0084608F08FF8404509D04FF044
:109DF000FF30E86405E0A96B00299CD10EB100207A
:109E0000A8633046BDE8F0872DE9F04F04460568A9
:109E100090F84B0099B010F0A00F03D0062019B0B5
:109E2000BDE8F08F0026E86800E0761C30F81610D8
:109E30000029FAD12878042819D004F1400004F14F
:109E4000400807C88DE807009DF80B00C1076BD0DC
:109E5000402084F84B000127BBB269464046EA68BF
:109E600002F092FC2046FFF758FEE8BB51E00F20BD
:109E70000E36B6FBF0F6B61C31462046FFF7CCFD99
:109E80000028CCD171422022206B02EB4111084402
:109E9000E064E079410736D520F00400E071204607
:109EA00002F0F8F80028BAD1421E2046616B02F099
:109EB00008F90028B3D1A06828B3214604A806F009
:109EC0001EFB0028ABD16889D4E904234102521853
:109ED00043F10003C4E90423A86B383007F0A6FF60
:109EE000D4E90423A86B00E016E0283007F09EFFB9
:109EF000E079A96B40F0010081F8210004A807F087
:109F0000CEFF00288BD1E968A86BFFF717FD002072
:109F100085E77F1C642F9FD3642F0FD00428F7D1CF
:109F20009DF80B0084F84B009DF80B00800707D5C7
:109F30000D200C36B6FBF0F77F1C02E007206EE721
:109F4000012739462046FFF767FD06007CD17F1EBA
:109F500004975ED0216B784201EB4011204600F05F
:109F600077F8060070D1404607F0CEFF4FF6FF7B32
:109F700006902846A16B06F063FD060064D1E868F0
:109F800005900498D4F83C90C0B20390069989F8E3
:109F90000D100F2189F80B10002189F80C1009F120
:109FA0001A0007F037FF0398DFF8A0A0401E00EB6F
:109FB000800101EBC008002701E05E4504D0059850
:109FC00030F8186008F101081AF8070031464844D3
:109FD00007F020FF06B95E467F1C0D2FEDD35E45CE
:109FE00005D0059830F8180008B1039803E00398ED
:109FF00040F04000039089F8000001202871002102
:10A000002046FFF72DFE06001ED10498401E049046
:10A01000AFD12846A16B06F013FD060014D154F809
:10A020003C0F2021F6F7ABFD206861680160A16854
:10A030004160A1890181A17B8172E07B216800F0F0
:10A0400018000873012028713046E8E648700108BE
:10A050002DE9F041066805460F463078042806D001
:10A060004FF40010B8423CD9F8063AD102E04FF064
:10A070008050F7E72F63AC6834B93078032807D3F2
:10A080000020F46AE8711CB170894FEA402812E0A0
:10A090003089B0EB571F24D9F06A12E0284602F04D
:10A0A000C1FB0446401C1AD0022C1AD3B069A0424E
:10A0B00017D9A7EB080747452146EFD23046FEF7F0
:10A0C0008CFBC5E90D4060B100EB5720A863C7F3D6
:10A0D000080030443C30E8630020BDE8F0810120F6
:10A0E000FBE70220F9E710B510B1012803D104E025
:10A0F00007F044FC18B1012010BD06F021FE00203D
:10A1000010BD10B514464FF40072082318B1012891
:10A1100010D0012010BD21B1012906D002290FD194
:10A1200001E0002010BD2260FBE707F0DCFB0FE040
:10A13000042010BD0029F4D0012907D0022903D042
:10A140000329F5D12380ECE72280EAE742F2991057
:10A150002060E6E72DE9F0411C0015460E4605D0CB
:10A1600030B1012812D00120BDE8F0810420FBE7C6
:10A170001A4604E0022801D007F000FC22462946D6
:10A18000304607F089FC0028F4D10CE04FF400774A
:10A1900069023A46304606F057FE641E05F1010595
:10A1A00006F50076F4D10020DEE7002070472DE9A7
:10A1B000F0411C0015460E4605D030B1012810D0E4
:10A1C0000120BDE8F0810420FBE71A4602E007F019
:10A1D000D5FB22462946304607F078FD0028F6D107
:10A1E0000CE04FF4007769023A46304606F0B8FEBC
:10A1F000641E05F1010506F50076F4D10020E0E7C4
:10A20000F0B585B0070007D11F4840F2FB12036884
:10A21000A3B11E491EA09847224D0024052695F89B
:10A22000F000002819D000F045FA00BF04EB4410FC
:10A23000411991F85100012812D017E01348CDE9D7
:10A240000302009212A118A3CDE9013103461FA217
:10A2500027A1002000F082F8FEE705B03046F0BDEF
:10A260001E2238463231F6F7B4FB30B1641CE4B23A
:10A27000052CDBD300F044FAEFE704EB441028444C
:10A2800090F83160F6E7000000050020D26F010869
:10A2900074616720213D202828766F6964202A296F
:10A2A00030290000807500202825732920686173FB
:10A2B00020617373657274206661696C65642061E6
:10A2C000742025733A256C642E0000002E2E5C4D00
:10A2D0006964646C65776172655C456173794C6F24
:10A2E000676765725C7372635C656C6F672E630091
:10A2F000656C6F67000000002DE9F041164D0020ED
:10A3000095F8F010012925D000F050FA060021D16F
:10A31000012000F0DFF9002785F8F37085F8F4706C
:10A32000052000F051FA00244FEA070804EB44101E
:10A33000471907F132001F21F6F721FC641C87F84A
:10A340003180E4B287F85180052CEFD3012085F8E5
:10A35000F0003046BDE8F081807500200FB42DE993
:10A36000F04F06468BB08B460846F6F713FB0024E9
:10A370000A940746A0460994059406940794089405
:10A38000052E08D9A44840F265220368002B7DD031
:10A39000A249A3A09847A94D95F8F100002876D0CE
:10A3A0002878B04273D35846FFF72AFFB0426ED3E5
:10A3B000A946691C5846F6F78BFA002867D00DF1BC
:10A3C000680A00F077F90121304602F0C5FAA5F5D8
:10A3D000807540B190482946001D50F8262020463F
:10A3E00000F0F6FA04460221304602F0B5FAC8B190
:10A3F00029195A46204600F0EBFA04440F2F0BD8D7
:10A40000C7F10F01202205A8F6F7B1FB291905AA0B
:10A41000204600F0DDFA0444291989A2204600F004
:10A42000D7FA04441C21304602F096FA00284BD09B
:10A43000291984A2204600F0CBFA044404213046B6
:10A4400002F08AFA90B100F081F9024629192046FB
:10A4500000F0BEFA04441821304602F07DFA28B11B
:10A46000291977A2204600F0B3FA044408213046A7
:10A4700002F072FAA8B100F053F9024629192046F9
:10A4800000F0A6FA04441021304601E023E0BEE0CB
:10A4900002F062FA28B1291969A2204600F098FA60
:10A4A00004441021304602F057FA38B100F048F960
:10A4B00002462919204600F08BFA0444291962A2A9
:10A4C000204600F085FA044420213046169A02F016
:10A4D000A7FAE0B90EE05148CDE90302009250A17D
:10A4E0005AA3CDE90131034661A26AA10020FFF71A
:10A4F00035FFFEE740213046179A02F091FA30B955
:10A5000080213046189A02F094FA002856D0291972
:10A5100062A2204600F05CFA044420213046169ADC
:10A5200002F07EFAD0B129192046169A00F050FAAE
:10A53000044440213046179A02F072FA10B12919EA
:10A5400057A207E080213046189A02F072FA28B12B
:10A5500029193BA2204600F03BFA044480213046F2
:10A56000189A02F066FAB8B14EA2052109A8189B04
:10A57000F5F7B0FF291909AA204600F029FA04448A
:10A5800040213046179A02F04BFA28B129192CA223
:10A59000204600F01DFA044440213046179A02F08C
:10A5A0003FFA28B129192046179A00F011FA0444FD
:10A5B00029193DA2204600F00BFA0444C4F580712D
:10A5C00028195346199AF5F749FF04444FF480724D
:10A5D000944204D8002802DBA01C904200D9FE243B
:10A5E00099F8200040B1154905F804802031A1F503
:10A5F0009070F6F76DF940B129192CA2204600F0B1
:10A60000E7F901192A4800F0D3F800F079F80BB007
:10A61000BDE8F00F5DF814FB00050020EA6F0108AB
:10A620006C6576656C203C3D20454C4F475F4C5631
:10A630004C5F564552424F53450000008075002044
:10A64000200000005B0000005D2000002825732929
:10A650002068617320617373657274206661696C30
:10A6600065642061742025733A256C642E00000017
:10A670002E2E5C4D6964646C65776172655C456122
:10A6800073794C6F676765725C7372635C656C6F3E
:10A69000672E6300656C6F670000000028000000F3
:10A6A0003A000000256C6400290000000D0A00003B
:10A6B0008074002070B5064C012594F8F20020B19A
:10A6C00000F07EF884F8F45070BD84F8F35070BD4B
:10A6D000807500200949002881F8F2000DD0074854
:10A6E00091F8F41090F8F30019B1002805D100F0AA
:10A6F00069B8002801D000F063B870478075002069
:10A7000070B5064C002594F8F20020B100F05AF81C
:10A7100084F8F45070BD84F8F35070BD807500204B
:10A7200010B503A210210548F5F7D4FE034810BD6B
:10A7300053544D33324631303300000088760020C8
:10A7400000A070476D61696E000000001CB5F8F74D
:10A750007FFC4FF47A71B0FBF1F04FF46161B0FB14
:10A76000F1F11822B1FBF2F302FB13133C21B0FB11
:10A77000F1F2B2FBF1F401FB1422B0FBF1F401FBA6
:10A780001400CDE9002003A210210748F5F7A2FE2E
:10A7900005481CBD2530326C753A2530326C753A4F
:10A7A0002530326C7500000078760020002070475C
:10A7B000024601A0F5F76CBE252E2A7300000000AA
:10A7C00072B6704762B6704710B586B00446052869
:10A7D00007D90D4840F26312036833B10B490CA04E
:10A7E00098471248047006B010BD0848CDE903022E
:10A7F000009207A10EA3CDE90131034615A21EA1C7
:10A800000020FFF7ABFDFEE700050020A66F010862
:10A810006C6576656C203C3D20454C4F475F4C563F
:10A820004C5F564552424F53450000008075002052
:10A830002825732920686173206173736572742001
:10A840006661696C65642061742025733A256C64C7
:10A850002E0000002E2E5C4D6964646C6577617279
:10A86000655C456173794C6F676765725C73726391
:10A870005C656C6F672E6300656C6F67000000009D
:10A8800030B585B00D460446052807D90E484FF46B
:10A89000A37203684BB10D490DA09847134800EB14
:10A8A0008400C0F8D85005B030BD0848CDE9030297
:10A8B000009207A10EA3CDE90131034615A21EA106
:10A8C0000020FFF74BFDFEE700050020896F01081F
:10A8D0006C6576656C203C3D20454C4F475F4C567F
:10A8E0004C5F564552424F53450000008075002092
:10A8F0002825732920686173206173736572742041
:10A900006661696C65642061742025733A256C6406
:10A910002E0000002E2E5C4D6964646C65776172B8
:10A92000655C456173794C6F676765725C737263D0
:10A930005C656C6F672E6300656C6F6700000000DC
:10A940000EB50A4890F8F01000290DD0012180F8CA
:10A95000F11007A208A1F2208DE80700104B11A208
:10A9600019A10320FFF7FAFC0EBD0000807500203E
:10A97000322E322E39390000456173794C6F67678A
:10A9800065722056257320697320696E6974696148
:10A990006C697A6520737563636573732E000000BC
:10A9A0005C6F01082E2E5C4D6964646C6577617282
:10A9B000655C456173794C6F676765725C73726340
:10A9C0005C656C6F672E6300656C6F67000000004C
:10A9D0002DE9F043DFF88C90DFF88C8085B00D0016
:10A9E00006461446174606D1D8F800302BB11A2275
:10A9F00049461EA098477CB12CE01CA202921A2066
:10AA0000CDE903901AA3CDE90003164B21A22CA196
:10AA10000020FFF7A3FCFEE7D8F8003023B11B228B
:10AA2000104929A0984715E027A202921B20CDE9E2
:10AA300003900FA3CDE900030A4B16A220A100202A
:10AA4000FFF78CFCFEE73146761CFF2905D805F898
:10AA5000010B641C20780028F5D105B0E01BBDE88F
:10AA6000F083000022700108000500206473740068
:10AA700028257329206861732061737365727420BF
:10AA80006661696C65642061742025733A256C6485
:10AA90002E0000002E2E5C4D6964646C6577617237
:10AAA000655C456173794C6F676765725C7372634F
:10AAB0005C656C6F675F7574696C732E6300000072
:10AAC000656C6F6700000000737263007CB50D4613
:10AAD00000211446009101AA694600F037F80028C9
:10AAE0000AD10199009A8B6949899B1E4B435143B6
:10AAF0005A0849082A6021607CBD000070B50B4DE2
:10AB000000244FF40F763146002006F063F845F834
:10AB1000240018B1641CE4B2022CF4D305F0A2FDA9
:10AB2000022C01D1002800D0012070BD1C0500209E
:10AB300038B5044601F038F9002806D169462046A8
:10AB400008F06FFB002800D1206038BD2DE9F743E5
:10AB50008EB014468946002269460EA805F09CFD79
:10AB600007007AD1009820600098D0E90514A21E51
:10AB7000914202D8C9F800106FE001780025012940
:10AB800005D004291AD00026D0F828803DE0022400
:10AB90000290214602A801F045FE411C03D0012885
:10ABA00003D020B104E0012757E0022755E06D1CD7
:10ABB0000098641C80698442EBD346E00026A41E02
:10ABC000D0F8348000E046B9414608F10108009809
:10ABD00005F036FF070040D1009A0821901990F83F
:10ABE0003C00C043C0B207E000F0010340081D4430
:10ABF000491EA4F1010401D0002CF5D1761CC6F346
:10AC00000806002CDFD120E03EB9414608F10108DA
:10AC1000009805F015FF07001FD100980178304417
:10AC2000022900F13C0004D005F020FC000106D010
:10AC300006E005F016FC00B96D1CB61C01E06D1CA9
:10AC4000361DC6F30806641EDED1C9F80050009810
:10AC50004561417941F00101417111B03846BDE8CB
:10AC6000F08300002DE9FF4FA7B0994690460C46AF
:10AC700027A801F0E7FE002803DA0B202BB0BDE87F
:10AC8000F08FFE49002751F8201001B10F70C0B2BB
:10AC90000790FFF728FAC10701D00320EEE740072D
:10ACA00001D50A20EAE704B9F54C4FF40045606885
:10ACB000109030B910AA03210798FFF722FA1098D4
:10ACC00020B1A84202D8411E084201D001201090B4
:10ACD00020784FF4007600F00F001790607801465E
:10ACE000401E012801D8084600E001200E90A0680F
:10ACF000411EA94205D21021B0FBF1F201FB120165
:10AD000001B130460B90E068B0F1807F02D8411E5F
:10AD1000084200D00020B0FBF6F5B9FBF6F05FEA80
:10AD2000000915D05FEA080405D14FEA492001F077
:10AD3000F5F804000CD000208346139013AA0121DB
:10AD40000798FFF7DEF950B1B8F1000F02D004E028
:10AD5000112093E7204601F0E5F801208EE71798CF
:10AD6000000706D413983F2803D93F384FF03F0B14
:10AD700013901398802807D2B8F1000F02D1204613
:10AD800001F0D0F80E2079E717994A07BD4911D58F
:10AD9000179A02F007034FF08062042B03D0904211
:10ADA00001D2802D09D901440F91B0F5805FE3D322
:10ADB000FDB126E0802D00D98025179A4FF6F57E4B
:10ADC0009207179A4FEAC27205D52AB901444FF08B
:10ADD000030A0F9150E322B101444FF0020A0F9190
:10ADE00042E3B8F1000F02D1204601F09BF8132096
:10ADF00044E70825B0F5002F03D34025904200D347
:10AE0000AD000BF120011291B0FBF5F1890001F2C8
:10AE10000721B1FBF6F2129906920A4410990A44EE
:10AE2000491E521E8A43A2EB0B0108921491B1EB0A
:10AE3000500FA1D2401AB0FBF5F01C9010289BD304
:10AE40009149884298D8C01DC0080E90401E05FB4D
:10AE500006006902B0FBF1F01E9005FB002019907E
:10AE600000200390074682460B900D9016900AE052
:10AE70000B9840B101282CD00D9880B21A900D98F3
:10AE8000384487B22CE0384601F0C0F880B21A90FE
:10AE9000B84202D07F1CBFB224E0012001E00D982F
:10AEA000401C0D90384401900004000C07D001981C
:10AEB00080B201F0ABF8019989B28842EFD00D98C9
:10AEC000802804D34FF6FF701A90022009E0012079
:10AED0000B901A977F1C0D98BFB2401E0D9001D1A8
:10AEE00000200B901A98C0B204F80A00039908F0E9
:10AEF000EDF901461A9804EB0A02000A507008F0B6
:10AF0000E5F9039016980AF1020A801C16901FB109
:10AF100009FB06F05045ABD10AEB0600401EB0FB22
:10AF2000F6F0824603462146199A0798FFF73FF943
:10AF300000287FF409AF1998002F50444FF0000A01
:10AF4000199095D1169805FB06F1401E05FB0600E9
:10AF5000B0FBF1F01F9001202090089819900E98F6
:10AF600009FB06F73044401EB0FBF6FADDE91E018E
:10AF70000844401C1B9039462046F5F700FE00208F
:10AF80001B990DE004EBD00200F0070C11780123AF
:10AF900003FA0CF3194311701B99491E401C1B91B5
:10AFA00011B1B7EBD00FEDD850464946CA4500D98C
:10AFB0000846034601902146199A0798FFF7F7F8CB
:10AFC0000028B6D10199199808441990AAEB0100FC
:10AFD0005FEA000ACFD11298199006980B900020D2
:10AFE0001A901B900D9039462046F5F7C8FD1A9827
:10AFF0004FF0000A10BB20466FF0070106F00EFF6D
:10B00000201D4FF0FF3106F009FF02204FF0080A23
:10B010001A9013E01B98012802D91A99491C01E0E3
:10B020004FF0FF3104EB0A0006F0F8FE1A980AF11F
:10B03000040A401C1A901B98401E1B901B9810B1CC
:10B040005745E7D80BE00D9803280AD20D991EA8A2
:10B0500050F821001B90481C0D901B9808B15745D3
:10B06000ECD80B994846494500D808468246034625
:10B070002146199A0798FFF79AF807E0280500205B
:10B08000847001080000215AFDFFFF7F002898D13D
:10B090001998504419900B98B0EB0A000B90A2D16C
:10B0A00039462046F5F76BFD83202070812084F817
:10B0B0002000022104F1340006F0B0FE04F1380053
:10B0C0000E9906F0ABFE822084F8400004F14400A3
:10B0D000039906F0A3FE1E9904F15400891C0C90FC
:10B0E00006F09CFE04F158001699159006F096FEA5
:10B0F000DDE91E01014408982F4605FB0100199067
:10B1000048464F4500D83846824603462146199A9C
:10B110000798FFF74CF80028B9D131462046F5F7DB
:10B120002EFD1998B7EB0A0750441990E8D100207A
:10B13000019004F14000249008301299D9462390E0
:10B14000A1EB0900269004F150001B900C301D90DB
:10B15000001D1A90001D0A90001D259031462046C2
:10B16000F5F70DFDFBA000270168216041686160D3
:10B17000008920812020A0725A463B46249806F080
:10B1800055FE0023139A239806F050FE26991B982B
:10B1900006F044FE06990C9806F040FEDDE9141016
:10B1A00006F03CFEDDE91C1006F038FEDDE91E016C
:10B1B0000144891C1A9806F031FE0F990A9806F08E
:10B1C0002DFE4FF48071259806F024FE84F86C70F3
:10B1D000304604E094F86C10491C84F86C10400868
:10B1E000F8D184F86D702F4605E000BF94F86D002B
:10B1F000401C84F86D007F08F8D1012084F86E00AF
:10B20000802084F86F004FF6EB6104F1780006F0BF
:10B2100001FE4AF6552A514604F5FF7006F0FAFD84
:10B220000020039005E06A2F42D06B2F3ED0702F94
:10B230003AD0E05D039908F049F87F1C0390B742CB
:10B24000F1D34A4609F10109012321460798FEF787
:10B25000AEFF00287FF478AD31462046F5F78FFC2D
:10B26000A0195146801E06F0D5FD4FF0010A0027B7
:10B270000399E05D7F1C08F029F80390B742F7D3EB
:10B280004A4609F10109012321460798FEF78FFF7D
:10B290000028DFD10AF1010ABAF1090FE7D33146DC
:10B2A0002046F5F76CFC19E07127C2E76C27BAE776
:10B2B0006B27B8E7E05D7F1C039908F007F803905F
:10B2C000B742F7D34A4609F10109012321460798FD
:10B2D000FEF76DFF0028BDD10AF1010ABAF10B0F8C
:10B2E0004FF00007E6D3E019039906F097FD3F1DE4
:10B2F000B742F8D34A4609F10109012321460798CC
:10B30000FEF755FF0028A5D10198401C01900228A6
:10B31000FFF424AF02E200BF00214FEA504C0127A6
:10B320008F4B01E07F00491C33F811200AB16245C0
:10B33000F8D9B0FBF7F106EB8102D21DB2FBF6F2B1
:10B3400006922022039200220D9271457FF614ADE1
:10B35000844A91423FF610AD2CE000BF804A0021A4
:10B3600001274FEA103C0E3A01E07F00491C32F8F9
:10B3700011300BB16345F8D9B0FBF7F140F6F57227
:10B38000914203D9042202EB410107E001EB4101A4
:10B390000322491C4FF0010A02EB51013144491EBE
:10B3A000B1FBF6F10691012103910B994901B1FB23
:10B3B000F6F10D91039A0BEB020112910D9A8B1885
:10B3C0000E9A069901FB023210995318491E5B1E12
:10B3D0008B43991ABAF1030F2DD00E9BB1FBF3FCEE
:10B3E00003FB1C1333B1039B5B1C0393129B5B1C7D
:10B3F000491E12930E9BB1FBF3F306991944069173
:10B4000002EB0712A2EB0B018142A3D803990E9A1B
:10B41000431A069901FB12320D99511AB1FBF7F14B
:10B420001C91BAF1030F0DD0BAF1020F13D0BAF18B
:10B43000010F2FD033E0039B0B440393129B19445D
:10B440001291DDE71C99714529D8002D7FF494AC49
:10B450007D0811D190E41C99714511D93DB9402165
:10B46000B1EB470F03D37D002F0085D176E7179905
:10B47000890709D54FF0030A2F007FF45AAF4BE735
:10B4800040F6F57291420AD8002DE3D17D00802D5F
:10B49000EAD971E41C9840F6F5718842DAD8314651
:10B4A0002046F5F76CFB30A00168216041686160BF
:10B4B000008920813020A072314604F10B0006F093
:10B4C000A9FC6773039881B204F10E0006F0A2FC98
:10B4D0000E982074BAF1030F0FD00B9881B204F1CB
:10B4E000110006F097FC1399B1F5803F07D289B29D
:10B4F00004F1130006F08EFC05E00020EEE704F1F5
:10B50000200006F08BFCF82060753F2104F1180044
:10B5100006F080FCFF2104F11A0006F07BFC59467E
:10B5200004F11C0006F07AFC29250F99BAF1030FEB
:10B530003BD004F1270006F071FC069881B204F1BB
:10B54000160006F067FC802084F8240084F826505A
:10B5500013220FE0EB7690455846415420202000FE
:10B5600076700108F5FFFF0FEBFE904D53444F53EB
:10B57000352E300082A104F12B0000BFF5F780FAD0
:10B580004AF6552504F5FF702946019006F042FC65
:10B5900001235A4621460798FEF709FE00287FF44A
:10B5A000D3ABBAF1030F22D052E004F1430006F00E
:10B5B00035FC04F12400069906F030FC022104F168
:10B5C0002C0006F02BFC012104F1300006F022FCD7
:10B5D000062104F1320006F01DFC802084F84000B2
:10B5E00084F8425013226BA104F14700C6E70123FF
:10B5F0000BF1060221460798FEF7D9FD3146204699
:10B60000F5F7BDFA6849204606F008FC674904F5DD
:10B61000F27006F003FC1C9904F5F470491E06F064
:10B62000FDFB022104F5F67006F0F8FB29460198AF
:10B6300006F0F0FB01230BF1070221460798FEF705
:10B64000B6FD01230BF1010221460798FEF7AFFD7D
:10B6500009FB06F12046F5F792FA0020DDF848B024
:10B6600025E000BFBAF1030F2FD0BAF1010F3BD094
:10B670006FF007014FEA040006F0D0FB069D484634
:10B680004D4500D82846034601905A462146079862
:10B69000FEF78DFD00287FF457AB31462046F5F7C5
:10B6A0006EFA01998B446D1AE9D10498401C014649
:10B6B00004900E988142D5D3BAF1030F00D00D9FAC
:10B6C00048464F4512D9054611E06FF00701204664
:10B6D00006F0A4FB4FF0FF31201D06F09FFB6FF03A
:10B6E000704104F10800C7E73149C3E73D462B46E6
:10B6F0005A4621460798FEF75AFD0028CBD1AB44A5
:10B700007F1BDDD1BAF1040F08D0BAF1030F07D0C7
:10B710001398B0F5803F05D3062207E0072205E025
:10B720000C2203E0BAF1020F12D001221798000791
:10B7300017D41398219000202290234621A907981E
:10B74000FEF760F805000CD0B8F1000F02D004E05D
:10B750000422EBE7204600F0E5FB28462BB0BDE8CD
:10B76000F08F002211460798FEF7CBFC002892D1FB
:10B77000B8F1000F02D1204600F0D4FB0020EDE725
:10B780004E4F204E414D4520202020464154202040
:10B79000202020004E4F204E414D452020202046A5
:10B7A0004154333220202000525261417272416173
:10B7B000F8FFFF0017B581B0144602980090684664
:10B7C00001F040F9002802DA0B2004B010BD0B4A4A
:10B7D000002352F8201011B142F820300B7001996B
:10B7E00019B148700B7042F820102CB1002201A949
:10B7F00002A804F051FFE8E70020E6E72805002052
:10B800002DE9F74F9CB005000BD002F03F06324601
:10B8100069461DA804F040FF04004FF0000A04D060
:10B8200030E109201FB0BDE8F08F00982860009833
:10B8300004904FF48C6000F071FB5FEA00090CD0BB
:10B84000009809F50071C0F80C90816304A81D9957
:10B8500000F098FC040002D006E01120E2E79DF819
:10B860005B00000600D5062416F01C0F7ED04CB1FC
:10B87000042C03D104A8FEF7C7FA044646F00806D4
:10B880005CB1E4E0700701D50824E0E09DF8160003
:10B8900010F0110F01D00724F1E0300768D50098AF
:10B8A0007D4F4FF0200800784FF0010B042829D07D
:10B8B000139839460E3006F0B1FA1398394616300F
:10B8C00006F0ACFA1399009804F006FE13990746A7
:10B8D000002281F80B801399009806F0CCFA139897
:10B8E00000211C3006F09AFA009880F804B0F7B3F3
:10B8F000D0F820800022394604A805F0F5FC0400A9
:10B9000037D0A4E00021284601F022FA00981E2139
:10B91000806B801CF5F733F900981A21806B263074
:10B92000F5F72DF900983946826B82F80480806B18
:10B93000083006F073FA00983946806B0C3006F038
:10B940006DFA009904A8896B81F821B006F0A7FA76
:10B9500004007CD1A96851B10022284605F0C4FC3E
:10B960000446A8680099401E08610AE00BE019E04F
:10B970001AE04146009805F063F8044600987F1EDF
:10B9800007616CB163E0ECBB9DF81600C10601D500
:10B9900004245CE0B10703D5C00701D0072456E0BA
:10B9A000300701D546F040060098016AA964139952
:10B9B000E964017804292FD0139904F08DFDA86063
:10B9C00013981C3004F052FDC5E9040AC5F850A0D4
:10B9D00000990020C988A98085F8306085F831A0D9
:10B9E000C5F844A0C5E90E0005F154004FF40071FC
:10B9F0008346F5F7E6F8B0064AD5D5E9046756EA76
:10BA0000070000E023E043D0C5E90E670098A9686D
:10BA100040894002804613E004A9284601F098F9C5
:10BA2000D4E7284600F0FEFE0146012800D8022493
:10BA3000481C00D101244046361A67EB0A0724B996
:10BA40000246921B7AEB0700EBD3296424B14846E7
:10BA500000F068FAB4B917E0F00519D00098FCF7C7
:10BA6000BCFE98B1710A41EAC7510A186A6400988D
:10BA7000012359464078FEF76DFB48B10124484642
:10BA800000F050FAC5F800A02046CBE60224F6E705
:10BA9000484600F047FAF7E70000215A2DE9FF5F1A
:10BAA0008846002699461546044603A91E6007F0FD
:10BAB000B8FB00281BD194F83100002817D194F866
:10BAC0003000C00712D0D4E90E02D4E90431181AAC
:10BAD00004F1540361EB020102930127431BB346B7
:10BAE0004FF0020AB14100D2054695E0072004B0AC
:10BAF000BDE8F09F208FC00572D1D4E90E230398D2
:10BB0000560A46EAC3564089401E064013D152EAFF
:10BB1000030005D0206D28B12046FCF745FE05E066
:10BB2000A06803E02046216C00F07CFE02281BD3B5
:10BB3000411C4ED02064216C0398FCF74EFE98B156
:10BB400030440090680A019026D003993218488941
:10BB5000824201D9801B01904878DDE900234146EB
:10BB6000FEF7F8FAA8BB03E084F831A00220BEE794
:10BB700094F8300000060CD5616C0098081A019901
:10BB8000884206D208EB40204FF400720299F4F785
:10BB900077FF0198460231E0626C009882421DD026
:10BBA00094F8300000060CD50398012302994078E0
:10BBB000FEF7FDFA68B994F8300000F07F0084F8D1
:10BBC000300003980123009A40780299FEF7C2FAE8
:10BBD00020B184F83170012089E701E000986064A9
:10BBE000208FC0F30800C0F50076AE4200D92E4683
:10BBF0000119324640465431F4F742FFD9F80000AB
:10BC0000AD1B8119C9F80010D4E90E10891940EB59
:10BC10000B00C4E90E10B044002D7FF46BAF002080
:10BC200065E70000F1B59EB0022269461EA804F047
:10BC300033FD002860D100984FF4803701AE0078C2
:10BC4000042806D020220B213046F4F790FF002470
:10BC500049E018213046F4F7B4FF00241DE01EA887
:10BC600006F0EFF90546B84209D3681C43D00A2C08
:10BC700041D2290C06EB440006F0CCF8641CD5B385
:10BC800029464848F4F71AFEA8BB0B2C33D2A9B2B8
:10BC900006EB440006F0BEF8641C1E9800782028CD
:10BCA000DDD232E01EA806F0CCF9B84223D200F073
:10BCB000ADF94FF46A7100F071F905001BD001462F
:10BCC0003848C01FF4F7FAFDA8B9FF2D01D90A20A2
:10BCD00000E00B20A0420ED9FF2D02D9280A3055D2
:10BCE000641C3555641C1E9800782028DAD29DF813
:10BCF0000400E52803D106201FB0F0BD641E24B166
:10BD0000301910F8010C2028F8D000980890002075
:10BD100001460A9008A8FEF79BF90028ECD1012102
:10BD200008A8FDF7FFFF0125B0B10428E4D10020E9
:10BD3000002CE1D0012108A8FDF76EFE0028DBD120
:10BD400020211798F4F71BFF00980078042825D0CD
:10BD500017990820C87204E00098007804280CD0D5
:10BD6000A4B117980199016002994160BDF80C10C7
:10BD700001819DF80E1081720BE01798162201A91F
:10BD800044701798801CF4F77BFE02E01799E520B9
:10BD900008700098057106F0C5F8ADE71799832083
:10BDA0000870EAE75C700108F0B597B0044601A995
:10BDB00007F037FA050021D194F8300041061DD56F
:10BDC000000611D50198626C0123407804F15401FA
:10BDD000FEF7EDF910B1012017B0F0BD94F8300076
:10BDE00000F07F0084F8300001984B4E0178042960
:10BDF00005D0A16C04F024FE050065D089E0204642
:10BE000000F048F905005ED1421E2046216C00F08A
:10BE100058F905007DD14FF48C6000F07FF80700E1
:10BE20000BD0019807F50071C7608163214602A815
:10BE300004F065FB050002D042E01120CCE7019838
:10BE4000816B0A7942F020020A71E179826B41F03C
:10BE5000010182F82110806BA168343005F0DEFF0B
:10BE6000D4E904230198806B383005F0DFFFD4E972
:10BE700004230198806B283005F0D8FF01983146E3
:10BE8000806B0C3005F0CAFF01980025816B4D7561
:10BE9000816BCD75806B2946103005F0BFFF01988E
:10BEA000806B057602A805F0FAFF050008D101981D
:10BEB00006F038F8054614F8300F00F0BF00207087
:10BEC000384600F02FF824E0E56C2946E87A40F087
:10BED0002000E872A268206805F0CDFF05F11C0083
:10BEE000216905F09BFF314605F1160005F096FF2C
:10BEF000002105F1120005F08DFF0198012101716B
:10BF000006F010F8054694F8300000F0BF0084F801
:10BF10003000284660E700000000215A014600205A
:10BF200004F058BE0146002004F028BE2DE9F84F69
:10BF300019490546802DD1F805004FEA500902D273
:10BF40002846BDE8F88F4FF0FF32002702EB990832
:10BF500010268A46A8EB070007EB5004DAF8011018
:10BF600009EB840001440422684604F06DFFBDF82B
:10BF70000000A84209D001D2274600E0A046A6F161
:10BF800001063604360CE5D103E016B1BDF8020017
:10BF9000D7E70020D5E70000187800202DE9F84FFA
:10BFA00007464FF00009802802D2B8B2BDE8F88FEA
:10BFB00015484FF0FF320026D0F80510102502EB8F
:10BFC000D1088246A8EB060006EB5004DAF801100F
:10BFD00009EB840001440422684604F035FFBDF8F3
:10BFE0000000B84209D001D2264600E0A046A5F1E3
:10BFF00001052D042D0CE5D103E015B1BDF80200BB
:10C00000D4E70020D2E700001878002030B5B0F562
:10C01000803F1FD280B2B0F5805F01D21B4900E0A3
:10C020001B4931F8022B002A14D0904212D331F868
:10C03000024B230AE4B21519854221D9092B09D2F2
:10C04000DFE803F005090E10121416181A00801A02
:10C0500031F8100030BD811A01F00101401A0DE0E5
:10C0600010380BE0203809E0303807E01A3805E0D6
:10C07000083003E0503801E0A0F5E35080B230BD55
:10C08000002BCED101EB4401CBE7000094700108F6
:10C090008672010870B50446C07903280FD1A669DD
:10C0A000A56808E06A1C2946206805F055F80028B4
:10C0B00006D16D1C761E002EF4D10020E071002008
:10C0C00070BD70B5044616460D46C0690FE00128E4
:10C0D00002D92A1A921C00E03246291A491C20680B
:10C0E00005F03AF8002804D1E069401EE06100281C
:10C0F000EDD170BD2DE9F047064680698D1E801E8A
:10C100009146A84200D800252C46A84600274FF4A7
:10C11000007A706B00EB1431304604F091FC18B1DA
:10C120004FF0FF30BDE8F08704F007020120904097
:10C13000B269C4F3C801C0B25346921E06EB010CAB
:10C14000641C9CF83CC00CEA000C4006000E9442B3
:10C1500002D3002420461946BCF1000F05D0A046AA
:10C160000027AC4207D10020DCE77F1C4F45F8D107
:10C1700008F10200D6E70028E0D10120491C9942CD
:10C18000DCD3C6E773B504460568019801E0401C9E
:10C19000019001782F29FAD05C29F8D00020A06006
:10C1A000E06101980078202807D2802084F84B00B5
:10C1B00000212046FDF74CFF7CBD01A92046FDF77C
:10C1C00009FA0028F8D194F84B602046FDF7A5FC49
:10C1D00028B10428F0D17107EED405207CBD710789
:10C1E000FCD4A079C006F8D52878042809D0208E80
:10C1F000C0F30800411928463C3104F06DF9A060F5
:10C20000DBE72146084600F0A3FDD6E770B50C4EEB
:10C210000C4D0024641CE4B221223146094804F08C
:10C2200013FE2878AA2809D01420FDF7D5FB0A2C84
:10C23000F0D32878AA2801D0012070BD002070BD5D
:10C24000333343001878002008B5FFF7DFFF0028DC
:10C250002CD017A000E020A0F4F71AF905F07EFB1F
:10C260000028F8D125A0F4F713F94FF47840009096
:10C270002FA310225A21142000F00CF9010010D035
:10C280002CA0F4F705F935A0F4F702F93FA0F4F774
:10C29000FFF845A0F4F7FCF84AA0F4F7F9F850A02D
:10C2A00000E056A0BDE80840F4F7F2B808BD000071
:10C2B000E5AD97E5BA93E7BCBAE5A4B1EFBC8CE570
:10C2C000BC80E5A78BE69BB4E696B0E5AD97E5BAF2
:10C2D000932E2E2E0D0A00005344E58DA1E78AB659
:10C2E000E68081E5BC82E5B8B8EFBC8CE9878DE8D3
:10C2F000AF95E4B8AD2E2E2E0D0A00005344E58D07
:10C30000A1E78AB6E68081E6ADA3E5B8B8EFBC8CBC
:10C31000E5BC80E5A78BE69BB4E696B0E5AD97E576
:10C32000BA93E69687E4BBB62E2E2E0D0A000000C7
:10C33000303A0000E5AD97E5BA93E69BB4E696B0D7
:10C34000E5A4B1E8B4A5EFBC8CE99499E8AFAFE7F8
:10C35000A0813A2025640D0A00000000E8AFB7E68E
:10C36000A380E69FA55344E58DA1E4B8ADE698AF60
:10C37000E590A6E5AD98E59CA8E4BBA5E4B88BE6FE
:10C380009687E4BBB63A0D0A000000002D202F531B
:10C39000595354454D2F464F4E542F554E49474201
:10C3A0004B2E42494E0D0A002D202F535953544510
:10C3B0004D2F464F4E542F47424B31322E464F4E53
:10C3C0000D0A00002D202F53595354454D2F464F31
:10C3D0004E542F47424B31362E464F4E0D0A000029
:10C3E0002D202F53595354454D2F464F4E542F4710
:10C3F000424B32342E464F4E0D0A0000E5AD97E514
:10C40000BA93E69BB4E696B0E68890E58A9F210D44
:10C410000A0000002DE9FE430646DDE90A851446C0
:10C420008946184607F02AFC0746404607F026FCD6
:10C43000394607F00DFB144907F034FC0746134852
:10C44000394607F0C7FB1CD011A0CDE9004004EB32
:10C45000440006EB5000029580B24FF4A073F02226
:10C46000494603F028FF384607F0E8FBC2B2642AC9
:10C4700000D96422032349463046CDE9004503F044
:10C48000E1FEBDE8FE8300000000C84200007F43DB
:10C49000250000002DE9FF4F85B06E48FF21129E58
:10C4A00001704FF0000891466421404604F092FB71
:10C4B00003904FF48051002004F08CFB05464FF4AC
:10C4C0001671002004F086FB0746BDB10398A8B1A1
:10C4D000A7B1DFF884A1002408990398F4F736FA8D
:10C4E0005AF824100398F4F7BFFA0122384603994A
:10C4F000FFF786F990B148F0800813E03946002034
:10C5000004F03CFB0020039904F038FB294600208E
:10C5100004F034FB052009B0BDE8F08F641CA4B220
:10C52000042CD9D33946002004F028FBB8F1000FC1
:10C5300079D14AA1CDF80090CDE90116DDE90501D8
:10C540004FF4A073F02203F0B6FE002409EB89003B
:10C550000599800040F2173B01EB5007CDE90046FA
:10C56000B8B25B464A460699FFF754FF204606F0EC
:10C57000CAFF3F4A3F4B06F0DDFE0C22CDE9000129
:10C5800007F092FC06F092FF01464FF480522846D5
:10C5900004F05AFC00204FF4806100BF55F82020C1
:10C5A000521C03D1401C80B28842F7D3884205D088
:10C5B000DDE9000106F07AFF04F01CFB641CA4B264
:10C5C0005C45CBD3DFF890B000240BF1100B00BF1B
:10C5D0005BF82400CDF80090CDE90106DDE9050106
:10C5E0004FF4A073F02203F066FE08990398F4F765
:10C5F000ADF95AF824100398F4F736FAE0B2CDE911
:10C600000006B8B24A46039B069900F037F858B1C5
:10C610002946002004F0B2FA0020039904F0AEFA93
:10C62000641CE0B277E70AE0641CA4B2042CCFD308
:10C630000848AA21212201700F4904F091FC002032
:10C64000039904F09BFA2946002004F097FA40462B
:10C6500061E7000018780020447301084572617397
:10C66000696E6720736563746F72732E2E2E2000BF
:10C67000CDCCCCCCCCCC9040333343002DE9FF4F14
:10C68000002483B01F462646A0464FF4167120466C
:10C69000DDF840B004F09EFA050001D14FF001082A
:10C6A0004FF4805A5146002004F094FA5FEA0009E2
:10C6B00001D14FF00108012239462846FFF7A0F8C2
:10C6C000070044D1B8F1000F41D127495FEA0B00C0
:10C6D00007D001280BD002280CD0BBF1030F13D1D7
:10C6E0000BE0224C41F8014F286948600CE051F8FA
:10C6F000010F04E051F8090F01E051F8110F4A68E9
:10C7000084188C602869C860D04602AB424649460E
:10C710002846FFF7C3F9070016D13119BDF80820E4
:10C72000484604F01DFCBDF808000DF10C0A064453
:10C730001198CDE900609AE807002B69FFF76AFEBF
:10C74000BDF808004045E0D02846FEF7F1F929463B
:10C75000002004F013FA4946002004F00FFA07B055
:10C760003846BDE8F08F00001878002054334300AD
:10C7700004490A685206FCD5024AC1B2121D116072
:10C7800070470000003801402DE9FC41064608686A
:10C7900030604868706008893081887AB072052BF3
:10C7A00012D91F4C0CE00021921C1D46034665F374
:10C7B0005F034008DD0300D56340491C1029F4D312
:10C7C00010880028EFD19BB207246D4603F00F00BC
:10C7D0001B093030392800D9C01D2855641E01D0EE
:10C7E000002BF3D17E2028550027A4F1010806E094
:10C7F000FDF7E3F810B1474506D07F1C7F1CA74228
:10C8000002D2F05D2028F3D1082C02D2285D641CEE
:10C8100000E02020F0557F1C082FF5D3BDE8FC81F7
:10C82000211001002DE9F04106680C46022973D35E
:10C83000B169A14270D932784FF0FF35012A09D091
:10C84000022A2CD0E90D01EA8407032A36D0042AF3
:10C850007ED141E0B06A04EB540700EB572130462B
:10C8600004F0EEF8002874D1C7F3080030447F1CB0
:10C8700090F83C80B06A00EB5721304604F0E0F8B5
:10C8800048BBC7F30800304490F83C1048EA012048
:10C89000E10701D005095CE0C0F30B0559E0B06A7F
:10C8A00000EB1421304604F0CBF8A0B9E0B206EB5F
:10C8B00040003C3003F0D5FD05464AE0B06A00EB8D
:10C8C000D411304604F0BCF828B9B8193C3003F054
:10C8D000CDFD20F070453CE0D0E9041251EA02039E
:10C8E00001D083680BB9C379B3B98368E31A491ED1
:10C8F00042F1FF32490A41EAC2517289B1FBF2FCAE
:10C90000C1796FF00042022907D003290DD0022916
:10C910001ED0C06920B90DE01AE0634518D801D1D6
:10C92000154616E004F1010513E081699942F0D93A
:10C93000651C0EE0B06A00EBD411304604F080F8BC
:10C9400038B9B8193C3003F091FD20F0004500E003
:10C9500001252846BDE8F08130B585B00D46044676
:10C96000052807D9104840F22E32036863B10F49F9
:10C970000FA09847154800EB8400D0F8D800284055
:10C9800000D0012005B030BD0848CDE90302009277
:10C9900007A10FA3CDE90131034616A21EA1002075
:10C9A000FDF7DCFCFEE7000000050020F66F010843
:10C9B0006C6576656C203C3D20454C4F475F4C567E
:10C9C0004C5F564552424F53450000008075002091
:10C9D0002825732920686173206173736572742040
:10C9E0006661696C65642061742025733A256C6406
:10C9F0002E0000002E2E5C4D6964646C65776172B8
:10CA0000655C456173794C6F676765725C737263CF
:10CA10005C656C6F672E6300656C6F6700000000DB
:10CA200010B522B1FFF798FF08B1012010BD00201A
:10CA300010BD10B522B1FFF78FFF08B1012010BD66
:10CA4000002010BD10B5016803460A004FF0FF3406
:10CA50000FD000BF11F8010B20280ED33A28F9D1CE
:10CA600010783038092804D8921C8A4201D1022853
:10CA700001DB204610BD196010BD002010BD000074
:10CA80000649292807D201F10C02097802EBC000FF
:10CA900050F821007047486870470000940000205B
:10CAA00070B5134D4FF40064002221462846F6F776
:10CAB000CAFA0220FCF796FF0122160331462846E7
:10CAC000F6F7C1FA0220FCF78DFF00223146284616
:10CAD000F6F7B9FA0220FCF785FF01222146284625
:10CAE000F6F7B1FABDE870400220FCF77BBF00000A
:10CAF00000100140154810B5816986B041F0100161
:10CB00008161816901F010010491816941F0100196
:10CB1000816180690E4C00F0100004904FF4805049
:10CB20000090012001900290032003906946204666
:10CB3000F6F788F9E014009011200190694620462C
:10CB4000F6F780F900F0B0F806B010BD0010024012
:10CB50000010014070B50E4C0122D1022046F6F7BC
:10CB600072FA0220FCF73EFF0122150329462046F7
:10CB7000F6F769FA0220FCF735FF00222946204625
:10CB8000F6F761FABDE870400220FCF72BBF000009
:10CB9000001001402DE9F0470024174E804625463D
:10CBA0004FF400694FF480576006040E01223946A5
:10CBB0003046F6F748FA0220FCF714FF49463046A3
:10CBC000F6F73CFA08B1641CE4B20022394630465C
:10CBD000F6F739FA0220FCF705FF6D1CEDB2082DBF
:10CBE000E2D3B8F1000F04D0FFF75AFF2046BDE8AA
:10CBF000F087FFF7AFFFF9E7001001402DE9F041A2
:10CC0000154F002405464FF40068BE14280601D5D0
:10CC1000012200E0002241463846F6F714FA0220CD
:10CC2000FCF7E0FE012231463846F6F70CFA022006
:10CC3000FCF7D8FE002231463846F6F704FA6806BB
:10CC4000641C050EE4B2082CE0D341463846BDE82A
:10CC5000F0410122F6F7F7B90010014070B501224A
:10CC6000104DD40221462846F6F7EDF901221603AD
:10CC700031462846F6F7E7F90220FCF7B3FE00221A
:10CC800021462846F6F7DFF90220FCF7ABFE00222A
:10CC900031462846F6F7D7F9BDE870400220FCF788
:10CCA000A1BE00000010014070B50E4D4FF40064AD
:10CCB000002221462846F6F7C6F90220FCF792FE2C
:10CCC000012211032846F6F7BEF90220FCF78AFE7E
:10CCD000012221462846F6F7B6F9BDE87040022049
:10CCE000FCF780BE001001402DE9F0410122174EF3
:10CCF0000024D702254639463046F6F7A4F902202B
:10CD0000FCF770FE4FF48058012241463046F6F79A
:10CD10009AF90220FCF766FE07E0641CE4B2FA2CE4
:10CD200003D9FFF7C1FF012505E039463046F6F784
:10CD300085F90028F1D1002241463046F6F783F903
:10CD40000220FCF74FFE2846BDE8F08100100140AC
:10CD500070B50568044649B1886820620869CA79D7
:10CD600020F0FF0010436062C86CA062A86B3430F2
:10CD700003F07CFBA060A86B383003F082FBC4E9B1
:10CD80000401A86B90F8210000F00200E07100207F
:10CD9000E06170BD0148F6F782BA0000740B002014
:10CDA000044A034B1360C2E901011046F6F748BA82
:10CDB00000300040740B002070B506460F48002478
:10CDC0000188458820464D43214603F037F903F09A
:10CDD00039FB0B494FF48070086140040861094831
:10CDE0004FF40002802303E006600A610B61641CBB
:10CDF000AC42F9D34FF40070086170BDF408002014
:10CE0000001001400C0C01402DE9F04F38492C2650
:10CE10000A46887192884FF4305A4FF4285B41F6E5
:10CE2000631E2B274FF02A0C4FF0F00845F21059E3
:10CE30004FF448754FF4A0744FF4F07358B10C8060
:10CE4000A1F802804A4530D1A1F808A0A1F80AB0A3
:10CE50003802888141E0A1F800804C804A4507D122
:10CE6000A1F808A0A1F80AB04FF42C50888105E081
:10CE700072450E8105D14F81A1F80CC00B804D8009
:10CE800002E0A1F80AC08F81A2F5A640103803D0B5
:10CE9000A2F5EE40963801D10C804B80A2F51840E7
:10CEA00006381FD10B804D801CE0724511D0A2F5D1
:10CEB000184006380DD00E81A1F80AC0A1F80C70F8
:10CEC000A2F5A64010380BD0A2F5EE40963807D058
:10CED00008E00E81A1F80AC08F810D804B80EFE73A
:10CEE0000B804C80BDE8F04F002002F0E5BF000051
:10CEF000F40800202DE9FF4F80460025144603204A
:10CF000082B00F46A0EB440651E0381B81B208EB1B
:10CF1000050A01901FFA8AF0059A00F09BF8781B29
:10CF2000009081B208EB04091FFA89F0059A00F01D
:10CF300091F807EB050B1FFA8BF11FFA89F0059AA0
:10CF400000F088F807EB04091FFA89F11FFA8AF04C
:10CF5000059A00F07FF8A8EB050A1FFA89F11FFA7D
:10CF60008AF0059A00F076F8A8EB04091FFA8BF115
:10CF70001FFA89F0059A00F06DF80198059A81B2C0
:10CF80001FFA8AF000F066F80098059A81B21FFA3D
:10CF900089F000F05FF86D1C002E03DA06EB8506C1
:10CFA000B61D04E0281B06EB8006641E0A36A54267
:10CFB000ABDD06B0BDE8F08F2DE9FE4F161ACDE9C6
:10CFC00000104FF000085D1A47464FF0FF30002E6A
:10CFD00002DD4FF0010102E003D14FF000018B466A
:10CFE00002E08346C6F10006002D02DD4FF001008D
:10CFF00002E003D14FF00000824602E08246C5F114
:10D000000005AE4201DD344600E02C46601C4FF0C6
:10D010000009029019E000980C9A81B2019880B240
:10D0200000F018F8B0442F44A04504DD0198A8EBA7
:10D03000040858440190A74203DD00983F1B504468
:10D04000009009F101001FFA80F902998945E2DD9B
:10D05000BDE8FE8F10B5144602F0F0FF03F0F2F9C0
:10D06000A0B2BDE8104003F0BDB92DE9F8411D465E
:10D07000079C1646884607460B460094FFF79CFF20
:10D080003A462B46414610460094FFF795FF2B4643
:10D090003246194638460094FFF78EFF32462B463B
:10D0A000414610460094FFF787FFBDE8F88110B5B0
:10D0B000CF2003F0AFF9002003F094F9C12003F072
:10D0C00091F9302003F08EF9ED2003F0A3F96420EC
:10D0D00003F088F9032003F085F9122003F082F9A8
:10D0E000812003F07FF9E82003F094F9852003F014
:10D0F00079F9102003F076F97A2003F073F9CB2048
:10D1000003F088F9392003F06DF92C2003F06AF957
:10D11000002003F067F9342003F064F9022003F0E3
:10D1200061F9F72003F076F9202003F05BF9EA209B
:10D1300003F070F9002003F055F9002003F052F9D4
:10D14000C02003F067F91B2003F04CF9C12003F065
:10D1500061F9012003F046F9C52003F05BF93020A6
:10D1600003F040F9302003F03DF9C72003F052F9F5
:10D17000B72003F037F9362003F04CF9482003F0CC
:10D1800031F93A2003F046F9552003F02BF9B1208C
:10D1900003F040F9002003F025F91A2003F022F9EA
:10D1A000B62003F037F90A2003F01CF9A22003F09F
:10D1B00019F9F22003F02EF9002003F013F92620CC
:10D1C00003F028F9012003F00DF9E02003F022F923
:10D1D0000F2003F007F92A2003F004F9282003F0B8
:10D1E00001F9082003F0FEF80E2003F0FBF80820F8
:10D1F00003F0F8F8542003F0F5F8A92003F0F2F852
:10D20000432003F0EFF80A2003F0ECF80F2003F0BE
:10D21000E9F8002003F0E6F8002003F0E3F800202E
:10D2200003F0E0F8002003F0DDF8E12003F0F2F86D
:10D23000002003F0D7F8152003F0D4F8172003F0EE
:10D24000D1F8072003F0CEF8112003F0CBF8062028
:10D2500003F0C8F82B2003F0C5F8562003F0C2F8FD
:10D260003C2003F0BFF8052003F0BCF8102003F0C9
:10D27000B9F80F2003F0B6F83F2003F0B3F83F20D1
:10D2800003F0B0F80F2003F0ADF82B2003F0C2F844
:10D29000002003F0A7F8002003F0A4F8012003F019
:10D2A000A1F83F2003F09EF82A2003F0B3F80020F5
:10D2B00003F098F8002003F095F8002003F092F8AE
:10D2C000EF2003F08FF8112003F0A4F87820FCF78A
:10D2D00083FBBDE81040292003F09CB810B5FF2067
:10D2E00003F098F8FF2003F07DF8982003F07AF817
:10D2F000062003F077F8BC2003F08CF8012003F03F
:10D3000071F80F2003F06EF8612003F06BF8FF2036
:10D3100003F068F8012003F065F8012003F062F8DB
:10D320000B2003F05FF8102003F05CF8372003F0C7
:10D3300059F8632003F056F8FF2003F053F8FF205C
:10D3400003F050F8012003F04DF8012003F04AF8F3
:10D35000002003F047F8002003F044F8FF2003F01A
:10D3600041F8522003F03EF8012003F03BF8002082
:10D3700003F038F8402003F035F8BD2003F04AF8F8
:10D38000012003F02FF8232003F02CF8452003F0B0
:10D3900029F8672003F026F8012003F023F8232062
:10D3A00003F020F8452003F01DF8672003F01AF879
:10D3B000BE2003F02FF8002003F014F8012003F042
:10D3C00011F8AB2003F00EF8602003F00BF82220D8
:10D3D00003F008F8222003F005F8222003F002F8F9
:10D3E000222002F0FFFF222002F0FCFFC72003F002
:10D3F00011F8362002F0F6FFED2003F00BF87F2045
:10D4000002F0F0FF0F2002F0EDFFC02003F002F861
:10D410000F2002F0E7FF0B2002F0E4FF0A2002F0E9
:10D42000E1FFFC2002F0F6FF082002F0DBFFDF2026
:10D4300002F0F0FF002002F0D5FF002002F0D2FF42
:10D44000002002F0CFFF002002F0CCFF002002F00D
:10D45000C9FF202002F0C6FFF32002F0DBFF74209A
:10D4600002F0C0FFB42002F0D5FF002002F0BAFFA6
:10D47000002002F0B7FF002002F0B4FFF72002F016
:10D48000C9FF822002F0AEFFB12002F0C3FF0020EE
:10D4900002F0A8FF132002F0A5FF132002F0A2FF64
:10D4A000F22002F0B7FF802002F09CFF042002F07F
:10D4B00099FF402002F096FF282002F093FFC12040
:10D4C00002F0A8FF172002F08DFF882002F08AFFEB
:10D4D000882002F087FF202002F084FFE02002F085
:10D4E00099FF002002F07EFF0A2002F07BFF12204D
:10D4F00002F078FF102002F075FF0E2002F072FF9C
:10D50000202002F06FFFCC2002F06CFF072002F019
:10D5100069FF062002F066FF0B2002F063FF0E2079
:10D5200002F060FF0F2002F05DFF0D2002F05AFFB5
:10D53000152002F057FF102002F054FF002002F0E7
:10D5400051FFE12002F066FF002002F04BFF0B20AC
:10D5500002F048FF132002F045FF0D2002F042FFC9
:10D560000E2002F03FFF1B2002F03CFF712002F072
:10D5700039FF062002F036FF062002F033FF0A20B2
:10D5800002F030FF0F2002F02DFF0E2002F02AFFE4
:10D590000F2002F027FF152002F024FF0C2002F0DC
:10D5A00021FF002002F01EFF2A2002F033FF00209E
:10D5B00002F018FF002002F015FF012002F012FF18
:10D5C000DF2002F00FFF2B2002F024FF002002F0EA
:10D5D00009FF002002F006FF032002F003FF1F20D6
:10D5E00002F000FF3A2002F015FF552002F0FAFE8B
:10D5F000362002F00FFF002002F0F4FE112002F0AE
:10D6000009FF7820FCF7E8F9292002F003FF142035
:10D61000FCF7E2F9BDE810402C2002F0FBBE10B58B
:10D62000ED2002F0F7FE012002F0DCFEFE2002F009
:10D63000D9FEEE2002F0EEFEDE2002F0D3FE212025
:10D6400002F0D0FEF12002F0E5FE012002F0CAFE59
:10D65000DF2002F0DFFE102002F0C4FEC42002F042
:10D66000D9FE8F2002F0BEFEC62002F0D3FE0020BD
:10D6700002F0B8FEE22002F0B5FEE22002F0B2FEB7
:10D68000E22002F0AFFEBF2002F0C4FEAA2002F0AA
:10D69000A9FEB02002F0BEFE0D2002F0A3FE002085
:10D6A00002F0A0FE0D2002F09DFE002002F09AFE86
:10D6B000112002F097FE002002F094FE192002F0E3
:10D6C00091FE002002F08EFE212002F08BFE002051
:10D6D00002F088FE2D2002F085FE002002F082FE7E
:10D6E0003D2002F07FFE002002F07CFE5D2002F073
:10D6F00079FE002002F076FE5D2002F073FE00202D
:10D7000002F070FEB12002F085FE802002F06AFE79
:10D71000002002F067FE8B2002F064FE002002F081
:10D7200061FE962002F05EFE002002F05BFEB22059
:10D7300002F070FE002002F055FE002002F052FEC2
:10D74000022002F04FFE002002F04CFE032002F007
:10D7500049FE002002F046FEB32002F05BFE0020EE
:10D7600002F040FE002002F03DFE002002F03AFEF2
:10D77000002002F037FE002002F034FE002002F00C
:10D7800031FE002002F02EFE002002F02BFE0020D1
:10D7900002F028FE002002F025FE002002F022FE0A
:10D7A000002002F01FFE002002F01CFE002002F00C
:10D7B00019FE002002F016FE002002F013FE0020E9
:10D7C00002F010FE002002F00DFE002002F00AFE22
:10D7D000002002F007FE002002F004FE002002F00C
:10D7E00001FE002002F0FEFD002002F0FBFDB4204F
:10D7F00002F010FE8B2002F0F5FD002002F0F2FD99
:10D80000962002F0EFFD002002F0ECFDA12002F0D6
:10D81000E9FD002002F0E6FDB52002F0FBFD02204C
:10D8200002F0E0FD002002F0DDFD032002F0DAFD51
:10D83000002002F0D7FD042002F0D4FD002002F009
:10D84000D1FDB62002F0E6FD002002F0CBFD002065
:10D8500002F0C8FDB72002F0DDFD002002F0C2FD9D
:10D86000002002F0BFFD3F2002F0BCFD002002F0CE
:10D87000B9FD5E2002F0B6FD002002F0B3FD642089
:10D8800002F0B0FD002002F0ADFD8C2002F0AAFDF8
:10D89000002002F0A7FDAC2002F0A4FD002002F061
:10D8A000A1FDDC2002F09EFD002002F09BFD702017
:10D8B00002F098FD002002F095FD902002F092FD0C
:10D8C000002002F08FFDEB2002F08CFD002002F022
:10D8D00089FDDC2002F086FD002002F083FDB820E7
:10D8E00002F098FD002002F07DFD002002F07AFD9C
:10D8F000002002F077FD002002F074FD002002F00D
:10D9000071FD002002F06EFD002002F06BFD002092
:10D9100002F068FDBA2002F07DFD242002F062FDD5
:10D92000002002F05FFD002002F05CFD002002F00C
:10D9300059FDC12002F06EFD202002F053FD0020B1
:10D9400002F050FD542002F04DFD002002F04AFD8F
:10D95000FF2002F047FD002002F044FDC22002F04B
:10D9600059FD0A2002F03EFD002002F03BFD04209C
:10D9700002F038FD002002F035FDC32002F04AFD20
:10D980003C2002F02FFD002002F02CFD3A2002F096
:10D9900029FD002002F026FD392002F023FD0020A1
:10D9A00002F020FD372002F01DFD002002F01AFDDC
:10D9B0003C2002F017FD002002F014FD362002F09A
:10D9C00011FD002002F00EFD322002F00BFD0020C0
:10D9D00002F008FD2F2002F005FD002002F002FDFC
:10D9E0002C2002F0FFFC002002F0FCFC292002F0B9
:10D9F000F9FC002002F0F6FC262002F0F3FC0020E7
:10DA000002F0F0FC242002F0EDFC002002F0EAFC21
:10DA1000242002F0E7FC002002F0E4FC232002F0C6
:10DA2000E1FC002002F0DEFC3C2002F0DBFC0020E8
:10DA300002F0D8FC362002F0D5FC002002F0D2FC27
:10DA4000322002F0CFFC002002F0CCFC2F2002F0AC
:10DA5000C9FC002002F0C6FC2C2002F0C3FC002010
:10DA600002F0C0FC292002F0BDFC002002F0BAFC4C
:10DA7000262002F0B7FC002002F0B4FC242002F0C3
:10DA8000B1FC002002F0AEFC242002F0ABFC002030
:10DA900002F0A8FC232002F0A5FC002002F0A2FC6A
:10DAA000C42002F0B7FC622002F09CFC002002F0CF
:10DAB00099FC052002F096FC002002F093FC8420E3
:10DAC00002F090FC002002F08DFCF02002F08AFCB5
:10DAD000002002F087FC182002F084FC002002F0F5
:10DAE00081FCA42002F07EFC002002F07BFC1820C8
:10DAF00002F078FC002002F075FC502002F072FC6D
:10DB0000002002F06FFC0C2002F06CFC002002F000
:10DB100069FC172002F066FC002002F063FC9520EF
:10DB200002F060FC002002F05DFCF32002F05AFCE1
:10DB3000002002F057FCE62002F054FC002002F026
:10DB400051FCC52002F066FC322002F04BFC0020A4
:10DB500002F048FC442002F045FC002002F042FCA8
:10DB6000652002F03FFC002002F03CFC762002F031
:10DB700039FC002002F036FC882002F033FC002043
:10DB800002F030FCC62002F045FC202002F02AFC06
:10DB9000002002F027FC172002F024FC002002F0F5
:10DBA00021FC012002F01EFC002002F01BFCC7201B
:10DBB00002F030FC002002F015FC002002F012FC04
:10DBC000002002F00FFC002002F00CFCC82002F044
:10DBD00021FC002002F006FC002002F003FC0020E3
:10DBE00002F000FC002002F0FDFBC92002F012FC54
:10DBF000002002F0F7FB002002F0F4FB002002F00E
:10DC0000F1FB002002F0EEFB002002F0EBFB002015
:10DC100002F0E8FB002002F0E5FB002002F0E2FB4E
:10DC2000002002F0DFFB002002F0DCFB002002F00D
:10DC3000D9FB002002F0D6FB002002F0D3FB00202D
:10DC400002F0D0FB002002F0CDFB002002F0CAFB66
:10DC5000E02002F0DFFB162002F0C4FB002002F0FF
:10DC6000C1FB1C2002F0BEFB002002F0BBFB212008
:10DC700002F0B8FB002002F0B5FB362002F0B2FB48
:10DC8000002002F0AFFB462002F0ACFB002002F0C7
:10DC9000A9FB522002F0A6FB002002F0A3FB6420A7
:10DCA00002F0A0FB002002F09DFB7A2002F09AFB1C
:10DCB000002002F097FB8B2002F094FB002002F082
:10DCC00091FB992002F08EFB002002F08BFBA82034
:10DCD00002F088FB002002F085FBB92002F082FBF5
:10DCE000002002F07FFBC42002F07CFB002002F049
:10DCF00079FBCA2002F076FB002002F073FBD220F1
:10DD000002F070FB002002F06DFBD92002F06AFBEC
:10DD1000002002F067FBE02002F064FB002002F02C
:10DD200061FBF32002F05EFB002002F05BFBE120D0
:10DD300002F070FB162002F055FB002002F052FBAF
:10DD40001C2002F04FFB002002F04CFB222002F0CE
:10DD500049FB002002F046FB362002F043FB002086
:10DD600002F040FB452002F03DFB002002F03AFBB0
:10DD7000522002F037FB002002F034FB642002F056
:10DD800031FB002002F02EFB7A2002F02BFB00205A
:10DD900002F028FB8B2002F025FB002002F022FB82
:10DDA000992002F01FFB002002F01CFBA82002F0CB
:10DDB00019FB002002F016FBB92002F013FB002033
:10DDC00002F010FBC42002F00DFB002002F00AFB61
:10DDD000CA2002F007FB002002F004FBD22002F070
:10DDE00001FB002002F0FEFAD82002F0FBFA00202E
:10DDF00002F0F8FAE02002F0F5FA002002F0F2FA60
:10DE0000F32002F0EFFA002002F0ECFAE22002F038
:10DE100001FB052002F0E6FA002002F0E3FA0B20F5
:10DE200002F0E0FA002002F0DDFA1B2002F0DAFA3C
:10DE3000002002F0D7FA342002F0D4FA002002F0D9
:10DE4000D1FA442002F0CEFA002002F0CBFA4F20A3
:10DE500002F0C8FA002002F0C5FA612002F0C2FA0E
:10DE6000002002F0BFFA792002F0BCFA002002F094
:10DE7000B9FA882002F0B6FA002002F0B3FA97202F
:10DE800002F0B0FA002002F0ADFAA62002F0AAFAE1
:10DE9000002002F0A7FAB72002F0A4FA002002F056
:10DEA000A1FAC22002F09EFA002002F09BFAC720DD
:10DEB00002F098FA002002F095FAD12002F092FACE
:10DEC000002002F08FFAD62002F08CFA002002F037
:10DED00089FADD2002F086FA002002F083FAF320AE
:10DEE00002F080FA002002F07DFAE32002F092FABC
:10DEF000052002F077FA002002F074FA0A2002F0FE
:10DF000071FA002002F06EFA1C2002F06BFA002079
:10DF100002F068FA332002F065FA002002F062FA9B
:10DF2000442002F05FFA002002F05CFA502002F078
:10DF300059FA002002F056FA622002F053FA00204B
:10DF400002F050FA782002F04DFA002002F04AFA6E
:10DF5000882002F047FA002002F044FA972002F0ED
:10DF600041FA002002F03EFAA62002F03BFA00201F
:10DF700002F038FAB72002F035FA002002F032FA47
:10DF8000C22002F02FFA002002F02CFAC72002F083
:10DF900029FA002002F026FAD12002F023FA00200C
:10DFA00002F020FAD52002F01DFA002002F01AFA41
:10DFB000DD2002F017FA002002F014FAF32002F03C
:10DFC00011FA002002F00EFAE42002F023FA0120F8
:10DFD00002F008FA002002F005FA012002F002FA2D
:10DFE000002002F0FFF9022002F0FCF9002002F00C
:10DFF000F9F92A2002F0F6F9002002F0F3F93C20AA
:10E0000002F0F0F9002002F0EDF94B2002F0EAF9FD
:10E01000002002F0E7F95D2002F0E4F9002002F0B0
:10E02000E1F9742002F0DEF9002002F0DBF984202F
:10E0300002F0D8F9002002F0D5F9932002F0D2F9CD
:10E04000002002F0CFF9A22002F0CCF9002002F06B
:10E05000C9F9B32002F0C6F9002002F0C3F9BE20CE
:10E0600002F0C0F9002002F0BDF9C42002F0BAF9B4
:10E07000002002F0B7F9CD2002F0B4F9002002F040
:10E08000B1F9D32002F0AEF9002002F0ABF9DD20A7
:10E0900002F0A8F9002002F0A5F9F32002F0A2F99D
:10E0A000002002F09FF9E52002F0B4F9002002F010
:10E0B00099F9002002F096F9002002F093F900206F
:10E0C00002F090F9022002F08DF9002002F08AF9A6
:10E0D000292002F087F9002002F084F93C2002F0A8
:10E0E00081F9002002F07EF94B2002F07BF900203C
:10E0F00002F078F95D2002F075F9002002F072F963
:10E10000742002F06FF9002002F06CF9842002F014
:10E1100069F9002002F066F9932002F063F900200B
:10E1200002F060F9A22002F05DF9002002F05AF935
:10E13000B32002F057F9002002F054F9BE2002F09B
:10E1400051F9002002F04EF9C42002F04BF90020F2
:10E1500002F048F9CD2002F045F9002002F042F922
:10E16000D32002F03FF9002002F03CF9DC2002F05D
:10E1700039F9002002F036F9F32002F033F90020DB
:10E1800002F030F9E62002F045F9112002F02AF9F8
:10E19000002002F027F9342002F024F9002002F0D8
:10E1A00021F9562002F01EF9002002F01BF976201A
:10E1B00002F018F9002002F015F9772002F012F9A8
:10E1C000002002F00FF9662002F00CF9002002F0A6
:10E1D00009F9882002F006F9002002F003F99920DD
:10E1E00002F000F9002002F0FDF8BB2002F0FAF87E
:10E1F000002002F0F7F8992002F0F4F8002002F075
:10E20000F1F8662002F0EEF8002002F0EBF855205D
:10E2100002F0E8F8002002F0E5F8552002F0E2F8FC
:10E22000002002F0DFF8452002F0DCF8002002F0C8
:10E23000D9F8432002F0D6F8002002F0D3F84420A9
:10E2400002F0D0F8002002F0CDF8E72002F0E2F86A
:10E25000322002F0C7F8002002F0C4F8552002F086
:10E26000C1F8002002F0BEF8762002F0BBF80020D2
:10E2700002F0B8F8662002F0B5F8002002F0B2F81B
:10E28000672002F0AFF8002002F0ACF8672002F03F
:10E29000A9F8002002F0A6F8872002F0A3F80020D9
:10E2A00002F0A0F8992002F09DF8002002F09AF800
:10E2B000BB2002F097F8002002F094F8992002F0B9
:10E2C00091F8002002F08EF8772002F08BF8002001
:10E2D00002F088F8442002F085F8002002F082F86D
:10E2E000562002F07FF8002002F07CF8232002F094
:10E2F00079F8002002F076F8332002F073F800205D
:10E3000002F070F8452002F06DF8002002F06AF883
:10E31000E82002F07FF8002002F064F8002002F00C
:10E3200061F8992002F05EF8002002F05BF8872087
:10E3300002F058F8002002F055F8882002F052F858
:10E34000002002F04FF8772002F04CF8002002F095
:10E3500049F8662002F046F8002002F043F88820D1
:10E3600002F040F8002002F03DF8AA2002F03AF84E
:10E37000002002F037F8BB2002F034F8002002F051
:10E3800031F8992002F02EF8002002F02BF86620D8
:10E3900002F028F8002002F025F8552002F022F8BB
:10E3A000002002F01FF8552002F01CF8002002F0B7
:10E3B00019F8442002F016F8002002F013F8442067
:10E3C00002F010F8002002F00DF8552002F00AF8D3
:10E3D000002002F007F8E92002F01CF8AA2002F061
:10E3E00001F8002001F0FEFF002001F0FBFF0020FB
:10E3F00001F0F8FF002002F00DF8AA2001F0F2FF72
:10E40000CF2002F007F8002001F0ECFF002001F01F
:10E41000E9FF002001F0E6FF002001F0E3FF00200B
:10E4200001F0E0FF002001F0DDFF002001F0DAFF45
:10E43000002001F0D7FF002001F0D4FF002001F000
:10E44000D1FF002001F0CEFF002001F0CBFF002023
:10E4500001F0C8FF002001F0C5FF002001F0C2FF5D
:10E46000002001F0BFFF002001F0BCFFF02001F010
:10E47000D1FF002001F0B6FF502001F0B3FF0020D3
:10E4800001F0B0FF002001F0ADFF002001F0AAFF75
:10E49000F32001F0BFFF002001F0A4FFF92001F0FC
:10E4A000B9FF062001F09EFF102001F09BFF2920FC
:10E4B00001F098FF002001F095FF3A2001F0AAFF3B
:10E4C000552001F08FFF112001F0A4FF6420FBF71D
:10E4D00083FA292001F09EFF352001F09BFF0020E8
:10E4E00001F080FF512001F095FFFF2001F07AFF3D
:10E4F000532001F08FFF2C2001F074FF552001F014
:10E5000089FF822001F06EFFBDE810402C2001F051
:10E5100081BF2DE9F05F4FF470455521284601F089
:10E5200097FF6E1CAA21304601F092FFAF1C5221CA
:10E53000384601F08DFF4FF203080821404601F0F4
:10E5400087FF4FF204090121484601F081FF4FF493
:10E5500036443421204601F07BFF3421601C01F059
:10E5600077FF3421A01C01F073FF4FF4304A0D21D6
:10E57000504601F06DFF4BF2010B0D21584601F0A2
:10E5800067FF0D214BF2020001F062FF24214FF4DE
:10E59000374001F05DFF24214BF2017001F058FF7C
:10E5A00024214BF2027001F053FF0D214FF4314052
:10E5B00001F04EFF0D214BF2011001F049FF0D213A
:10E5C0004BF2021001F044FF24214FF4384001F0D7
:10E5D0003FFF24214BF6010001F03AFF24214BF6C6
:10E5E000020001F035FF00214FF4324001F030FF0E
:10E5F00024214FF4394001F02BFF24214BF6011068
:10E6000001F026FF24214BF6021001F021FF052125
:10E610004FF4334001F01CFF05214BF2013001F0B3
:10E6200017FF05214BF2023001F012FF34214FF4A5
:10E630003A4001F00DFF34214BF6012001F008FFB4
:10E6400034214BF6022001F003FF0B214FF435403B
:10E6500001F0FEFE0B214BF2015001F0F9FE0B21FF
:10E660004BF2025001F0F4FE00214FF43C4001F067
:10E67000EFFEA3214BF6014001F0EAFE00214BF62C
:10E68000024001F0E5FE00214FF43D4001F0E0FEC4
:10E69000A3214BF6015001F0DBFE00214BF60250A6
:10E6A00001F0D6FE00214FF43E4001F0D1FE3721AB
:10E6B0004BF6016001F0CCFE00214FF4514001F017
:10E6C000C7FE37214DF2011001F0C2FE00214DF2CC
:10E6D000021001F0BDFE53214DF2031001F0B8FE0F
:10E6E00000214DF2041001F0B3FE79214DF2051026
:10E6F00001F0AEFE00214DF2061001F0A9FE9721B7
:10E700004DF2071001F0A4FE00214DF2081001F0B7
:10E710009FFEB1214DF2091001F09AFE00214DF249
:10E720000A1001F095FED5214DF20B1001F090FE7C
:10E7300000214DF20C1001F08BFEF4214DF20D1072
:10E7400001F086FE01214DF20E1001F081FE232121
:10E750004DF20F1001F07CFE01214DF2101001F07E
:10E7600077FE49214DF2111001F072FE01214DF2A8
:10E77000121001F06DFE87214DF2131001F068FEBA
:10E7800001214DF2141001F063FEB6214DF2151077
:10E7900001F05EFE02214DF2161001F059FE00213B
:10E7A0004DF2171001F054FE02214DF2181001F045
:10E7B0004FFE3B214DF2191001F04AFE02214DF2AD
:10E7C0001A1001F045FE3D214DF21B1001F040FEF4
:10E7D00002214DF21C1001F03BFE75214DF21D107F
:10E7E00001F036FE02214DF21E1001F031FEB12182
:10E7F0004DF21F1001F02CFE02214DF2201001F00D
:10E8000027FED5214DF2211001F022FE03214DF209
:10E81000221001F01DFE09214DF2231001F018FE17
:10E8200003214DF2241001F013FE28214DF2251092
:10E8300001F00EFE03214DF2261001F009FE5221D7
:10E840004DF2271001F004FE03214DF2281001F0D3
:10E85000FFFD6B214DF2291001F0FAFD03214DF26D
:10E860002A1001F0F5FD8D214DF22B1001F0F0FD85
:10E8700003214DF22C1001F0EBFDA2214DF22D10E1
:10E8800001F0E6FD03214DF22E1001F0E1FDBB2168
:10E890004DF22F1001F0DCFD03214DF2301001F09C
:10E8A000D7FDC1214DF2311001F0D2FD03214DF20F
:10E8B000321001F0CDFDC1214DF2331001F0C8FD41
:10E8C00000214FF4524001F0C3FD37214DF20120E9
:10E8D00001F0BEFD00214DF2022001F0B9FD5321EF
:10E8E0004DF2032001F0B4FD00214DF2042001F0AF
:10E8F000AFFD79214DF2052001F0AAFD00214DF276
:10E90000062001F0A5FD97214DF2072001F0A0FDA2
:10E9100000214DF2082001F09BFDB1214DF20920AC
:10E9200001F096FD00214DF20A2001F091FDD52164
:10E930004DF20B2001F08CFD00214DF20C2001F076
:10E9400087FDF4214DF20D2001F082FD01214DF2F1
:10E950000E2001F07DFD23214DF20F2001F078FD06
:10E9600001214DF2102001F073FD49214DF21120DB
:10E9700001F06EFD01214DF2122001F069FD8721A9
:10E980004DF2132001F064FD01214DF2142001F03D
:10E990005FFDB6214DF2152001F05AFD02214DF226
:10E9A000162001F055FD00214DF2172001F050FD19
:10E9B00002214DF2182001F04BFD3B214DF21920B0
:10E9C00001F046FD02214DF21A2001F041FD3D21EA
:10E9D0004DF21B2001F03CFD02214DF21C2001F004
:10E9E00037FD75214DF21D2001F032FD02214DF25F
:10E9F0001E2001F02DFDB1214DF21F2001F028FD58
:10EA000002214DF2202001F023FDD5214DF22120DD
:10EA100001F01EFD03214DF2222001F019FD092114
:10EA20004DF2232001F014FD03214DF2242001F0CA
:10EA30000FFD28214DF2252001F00AFD03214DF2A2
:10EA4000262001F005FD52214DF2272001F000FDA6
:10EA500003214DF2282001F0FBFC6B214DF229200F
:10EA600001F0F6FC03214DF22A2001F0F1FC8D218A
:10EA70004DF22B2001F0ECFC03214DF22C2001F093
:10EA8000E7FCA2214DF22D2001F0E2FC03214DF222
:10EA90002E2001F0DDFCBB214DF22F2001F0D8FC2F
:10EAA00003214DF2302001F0D3FCC1214DF2312081
:10EAB00001F0CEFC03214DF2322001F0C9FCC1214E
:10EAC0004DF2332001F0C4FC00214FF4534001F01B
:10EAD000BFFC37214DF2013001F0BAFC00214DF2AC
:10EAE000023001F0B5FC53214DF2033001F0B0FCCF
:10EAF00000214DF2043001F0ABFC79214DF20530DC
:10EB000001F0A6FC00214DF2063001F0A1FC972196
:10EB10004DF2073001F09CFC00214DF2083001F06D
:10EB200097FCB1214DF2093001F092FC00214DF229
:10EB30000A3001F08DFCD5214DF20B3001F088FC3C
:10EB400000214DF20C3001F083FCF4214DF20D3028
:10EB500001F07EFC01214DF20E3001F079FC232101
:10EB60004DF20F3001F074FC01214DF2103001F034
:10EB70006FFC49214DF2113001F06AFC01214DF288
:10EB8000123001F065FC87214DF2133001F060FC7A
:10EB900001214DF2143001F05BFCB6214DF215302D
:10EBA00001F056FC02214DF2163001F051FC00211B
:10EBB0004DF2173001F04CFC02214DF2183001F0FB
:10EBC00047FC3B214DF2193001F042FC02214DF28D
:10EBD0001A3001F03DFC3D214DF21B3001F038FCB4
:10EBE00002214DF21C3001F033FC75214DF21D3035
:10EBF00001F02EFC02214DF21E3001F029FCB12162
:10EC00004DF21F3001F024FC02214DF2203001F0C2
:10EC10001FFCD5214DF2213001F01AFC03214DF2E9
:10EC2000223001F015FC09214DF2233001F010FCD7
:10EC300003214DF2243001F00BFC28214DF2253048
:10EC400001F006FC03214DF2263001F001FC5221B7
:10EC50004DF2273001F0FCFB03214DF2283001F08A
:10EC6000F7FB6B214DF2293001F0F2FB03214DF24D
:10EC70002A3001F0EDFB8D214DF22B3001F0E8FB45
:10EC800003214DF22C3001F0E3FBA2214DF22D3097
:10EC900001F0DEFB03214DF22E3001F0D9FBBB2148
:10ECA0004DF22F3001F0D4FB03214DF2303001F052
:10ECB000CFFBC1214DF2313001F0CAFB03214DF2EF
:10ECC000323001F0C5FBC1214DF2333001F0C0FB01
:10ECD00000214FF4544001F0BBFB37214DF20140BD
:10ECE00001F0B6FB00214DF2024001F0B1FB5321CF
:10ECF0004DF2034001F0ACFB00214DF2044001F065
:10ED0000A7FB79214DF2054001F0A2FB00214DF255
:10ED1000064001F09DFB97214DF2074001F098FB62
:10ED200000214DF2084001F093FBB1214DF2094062
:10ED300001F08EFB00214DF20A4001F089FBD52144
:10ED40004DF20B4001F084FB00214DF20C4001F02C
:10ED50007FFBF4214DF20D4001F07AFB01214DF2D1
:10ED60000E4001F075FB23214DF20F4001F070FBC6
:10ED700001214DF2104001F06BFB49214DF2114091
:10ED800001F066FB01214DF2124001F061FB872189
:10ED90004DF2134001F05CFB01214DF2144001F0F3
:10EDA00057FBB6214DF2154001F052FB02214DF206
:10EDB000164001F04DFB00214DF2174001F048FBD9
:10EDC00002214DF2184001F043FB3B214DF2194066
:10EDD00001F03EFB02214DF21A4001F039FB3D21CA
:10EDE0004DF21B4001F034FB02214DF21C4001F0BA
:10EDF0002FFB75214DF21D4001F02AFB02214DF23F
:10EE00001E4001F025FBB1214DF21F4001F020FB17
:10EE100002214DF2204001F01BFBD5214DF2214093
:10EE200001F016FB03214DF2224001F011FB0921F4
:10EE30004DF2234001F00CFB03214DF2244001F080
:10EE400007FB28214DF2254001F002FB03214DF282
:10EE5000264001F0FDFA52214DF2274001F0F8FA68
:10EE600003214DF2284001F0F3FA6B214DF22940C5
:10EE700001F0EEFA03214DF22A4001F0E9FA8D216A
:10EE80004DF22B4001F0E4FA03214DF22C4001F049
:10EE9000DFFAA2214DF22D4001F0DAFA03214DF202
:10EEA0002E4001F0D5FABB214DF22F4001F0D0FAEF
:10EEB00003214DF2304001F0CBFAC1214DF2314037
:10EEC00001F0C6FA03214DF2324001F0C1FAC1212E
:10EED0004DF2334001F0BCFA00214FF4554001F0EF
:10EEE000B7FA37214DF2015001F0B2FA00214DF28C
:10EEF000025001F0ADFA53214DF2035001F0A8FA8F
:10EF000000214DF2045001F0A3FA79214DF2055091
:10EF100001F09EFA00214DF2065001F099FA972176
:10EF20004DF2075001F094FA00214DF2085001F023
:10EF30008FFAB1214DF2095001F08AFA00214DF209
:10EF40000A5001F085FAD5214DF20B5001F080FAFC
:10EF500000214DF20C5001F07BFAF4214DF20D50DE
:10EF600001F076FA01214DF20E5001F071FA2321E1
:10EF70004DF20F5001F06CFA01214DF2105001F0EA
:10EF800067FA49214DF2115001F062FA01214DF268
:10EF9000125001F05DFA87214DF2135001F058FA3A
:10EFA00001214DF2145001F053FAB6214DF21550E3
:10EFB00001F04EFA02214DF2165001F049FA0021FB
:10EFC0004DF2175001F044FA02214DF2185001F0B1
:10EFD0003FFA3B214DF2195001F03AFA02214DF26D
:10EFE0001A5001F035FA3D214DF21B5001F030FA74
:10EFF00002214DF21C5001F02BFA75214DF21D50EB
:10F0000001F026FA02214DF21E5001F021FAB12141
:10F010004DF21F5001F01CFA02214DF2205001F078
:10F0200017FAD5214DF2215001F012FA03214DF2C9
:10F03000225001F00DFA09214DF2235001F008FA97
:10F0400003214DF2245001F003FA28214DF22550FE
:10F0500001F0FEF903214DF2265001F0F9F9522199
:10F060004DF2275001F0F4F903214DF2285001F040
:10F07000EFF96B214DF2295001F0EAF903214DF22D
:10F080002A5001F0E5F98D214DF22B5001F0E0F905
:10F0900003214DF22C5001F0DBF9A2214DF22D504D
:10F0A00001F0D6F903214DF22E5001F0D1F9BB2128
:10F0B0004DF22F5001F0CCF903214DF2305001F008
:10F0C000C7F9C1214DF2315001F0C2F903214DF2CF
:10F0D000325001F0BDF9C1214DF2335001F0B8F9C1
:10F0E00000214FF4564001F0B3F937214DF2016091
:10F0F00001F0AEF900214DF2026001F0A9F95321AF
:10F100004DF2036001F0A4F900214DF2046001F01A
:10F110009FF979214DF2056001F09AF900214DF235
:10F12000066001F095F997214DF2076001F090F922
:10F1300000214DF2086001F08BF9B1214DF2096018
:10F1400001F086F900214DF20A6001F081F9D52124
:10F150004DF20B6001F07CF900214DF20C6001F0E2
:10F1600077F9F4214DF20D6001F072F901214DF2B1
:10F170000E6001F06DF923214DF20F6001F068F986
:10F1800001214DF2106001F063F949214DF2116047
:10F1900001F05EF901214DF2126001F059F9872169
:10F1A0004DF2136001F054F901214DF2146001F0A9
:10F1B0004FF9B6214DF2156001F04AF902214DF2E6
:10F1C000166001F045F900214DF2176001F040F999
:10F1D00002214DF2186001F03BF93B214DF219601C
:10F1E00001F036F902214DF21A6001F031F93D21AA
:10F1F0004DF21B6001F02CF902214DF21C6001F070
:10F2000027F975214DF21D6001F022F902214DF21E
:10F210001E6001F01DF9B1214DF21F6001F018F9D7
:10F2200002214DF2206001F013F9D5214DF2216049
:10F2300001F00EF903214DF2226001F009F90921D4
:10F240004DF2236001F004F903214DF2246001F036
:10F25000FFF828214DF2256001F0FAF803214DF264
:10F26000266001F0F5F852214DF2276001F0F0F828
:10F2700003214DF2286001F0EBF86B214DF229607B
:10F2800001F0E6F803214DF22A6001F0E1F88D214A
:10F290004DF22B6001F0DCF803214DF22C6001F0FF
:10F2A000D7F8A2214DF22D6001F0D2F803214DF2E2
:10F2B0002E6001F0CDF8BB214DF22F6001F0C8F8AF
:10F2C00003214DF2306001F0C3F8C1214DF23160ED
:10F2D00001F0BEF803214DF2326001F0B9F8C1210E
:10F2E0004DF2336001F0B4F85521284601F0B0F832
:10F2F000AA21304601F0ACF85221384601F0A8F8B6
:10F300000821404601F0A4F80021484601F0A0F889
:10F310000021504601F09CF80521584601F098F86C
:10F3200002214BF2020001F093F805214BF2030099
:10F3300001F08EF802214BF2040001F089F8082157
:10F34000204601F085F850214FF4354001F080F857
:10F350000521204601F07CF800214FF4374001F0F0
:10F3600077F800214BF2017001F072F801214FF49F
:10F37000384001F06DF805214BF6010001F068F806
:10F3800005214BF6020001F063F805214BF603005E
:10F3900001F05EF802214FF43C4001F059F80021E1
:10F3A0004BF6014001F054F800214BF6024001F009
:10F3B0004FF803214FF44C4001F04AF800214CF67D
:10F3C000014001F045F800214CF6024001F040F800
:10F3D00001214FF43D4001F03BF884214BF60150F0
:10F3E00001F036F807214BF6025001F031F83121D7
:10F3F0004BF6035001F02CF800214BF6045001F0BD
:10F4000027F801214FF43A4001F022F8AA214FF4E5
:10F410007F4001F01DF855214FF6017001F018F8FA
:10F4200025214FF6027001F013F801214FF6037009
:10F4300001F00EF840214FF4585001F009F8002176
:10F440004FF4545001F004F805214FF4685000F0D7
:10F45000FFFF4FF4885000F0DDFF7820FAF7BCFA88
:10F460004FF4245000F0D6FF0A20FAF7B5FABDE8B1
:10F47000F05F4FF4305000F0CDBF10B5E22000F047
:10F48000C9FF1D2000F0AEFF022000F0ABFF0420FA
:10F4900000F0A8FF6420FAF7A5FAE02000F0BAFF18
:10F4A000012000F09FFF0A20FAF796FAE02000F012
:10F4B000B1FF032000F096FF0C20FAF78DFA01202F
:10F4C00000F0A8FF0A20FAF787FAE62000F0A2FF72
:10F4D0002F2000F087FFFF2000F084FFFF2000F0C6
:10F4E00081FFB02000F096FF202000F07BFF00207D
:10F4F00000F078FF032000F075FF40F21F3000F0AD
:10F5000071FF012000F06EFF40F2DF1000F06AFF93
:10F51000002000F067FFB42000F07CFF042000F022
:10F5200061FF40F21F4000F05DFF002000F05AFF35
:10F530002E2000F057FF002000F054FF002000F0C4
:10F5400051FF002000F04EFF002000F04BFFB620DE
:10F5500000F060FF022000F045FF4FF4037000F060
:10F5600041FF002000F03EFF172000F03BFF152078
:10F5700000F038FF002000F035FF002000F032FFDF
:10F58000F02000F047FF032000F02CFF292000F0BE
:10F5900041FFD02000F03EFF002000F023FFBE20FE
:10F5A00000F038FF052000F01DFFFE2000F01AFFDC
:10F5B000012000F017FF002000F014FF002000F0F1
:10F5C00011FF002000F00EFFB82000F023FF032001
:10F5D00000F008FF012000F005FFBA2000F01AFF3C
:10F5E000BDE81040012000F0FDBE10B5112000F074
:10F5F00011FF7820FAF7F0F9362000F00BFF002019
:10F6000000F0F0FE3A2000F005FF052000F0EAFED1
:10F61000B22000F0FFFE0C2000F0E4FE0C2000F011
:10F62000E1FE002000F0DEFE332000F0DBFE3320A0
:10F6300000F0D8FEB72000F0EDFE352000F0D2FE3D
:10F64000BB2000F0E7FE322000F0CCFEC02000F02E
:10F65000E1FE0C2000F0C6FEC22000F0DBFE01201F
:10F6600000F0C0FEC32000F0D5FE102000F0BAFE6E
:10F67000C42000F0CFFE202000F0B4FEC62000F031
:10F68000C9FE0F2000F0AEFED02000F0C3FEA42083
:10F6900000F0A8FEA12000F0A5FEE02000F0BAFED8
:10F6A000D02000F09FFE002000F09CFE022000F021
:10F6B00099FE072000F096FE0A2000F093FE282015
:10F6C00000F090FE322000F08DFE442000F08AFE13
:10F6D000422000F087FE062000F084FE0E2000F09D
:10F6E00081FE122000F07EFE142000F07BFE172029
:10F6F00000F078FEE12000F08DFED02000F072FED8
:10F70000002000F06FFE022000F06CFE072000F0E9
:10F7100069FE0A2000F066FE282000F063FE31201A
:10F7200000F060FE542000F05DFE472000F05AFE1D
:10F730000E2000F057FE1C2000F054FE172000F0B1
:10F7400051FE1B2000F04EFE1E2000F04BFE2A2032
:10F7500000F060FE002000F045FE002000F042FEB8
:10F76000002000F03FFEEF2000F03CFE2B2000F0D8
:10F7700051FE002000F036FE002000F033FE012094
:10F7800000F030FE3F2000F02DFEBDE810402920A3
:10F7900000F040BE10B5112000F03CFE7820FAF7D2
:10F7A0001BF9362000F036FE482000F01BFE3A2000
:10F7B00000F030FE552000F015FEF02000F02AFE8B
:10F7C000C32000F00FFEF02000F024FE962000F091
:10F7D00009FEB42000F01EFE012000F003FEB6205A
:10F7E00000F018FE0A2000F0FDFDA22000F0FAFD56
:10F7F000B72000F00FFEC62000F0F4FDB92000F0A5
:10F8000009FE022000F0EEFDE02000F0EBFDC0203C
:10F8100000F000FE802000F0E5FD162000F0E2FD83
:10F82000C12000F0F7FD192000F0DCFDC22000F03F
:10F83000F1FDA72000F0D6FDC52000F0EBFD16205D
:10F8400000F0D0FDE82000F0E5FD402000F0CAFD0A
:10F850008A2000F0C7FD002000F0C4FD002000F069
:10F86000C1FD292000F0BEFD192000F0BBFDA52040
:10F8700000F0B8FD332000F0B5FDE02000F0CAFD37
:10F88000F02000F0AFFD072000F0ACFD0D2000F0EF
:10F89000A9FD042000F0A6FD052000F0A3FD142022
:10F8A00000F0A0FD362000F09DFD542000F09AFDF0
:10F8B0004C2000F097FD382000F094FD132000F05C
:10F8C00091FD142000F08EFD2E2000F08BFD3420E1
:10F8D00000F088FDE12000F09DFDF02000F082FDA9
:10F8E000102000F07FFD142000F07CFD0E2000F0C1
:10F8F00079FD0C2000F076FD082000F073FD352026
:10F9000000F070FD442000F06DFD4C2000F06AFD19
:10F91000262000F067FD102000F064FD122000F0AA
:10F9200061FD2C2000F05EFD322000F05BFDF02038
:10F9300000F070FD3C2000F055FDF02000F06AFD65
:10F94000692000F04FFD7820FAF746F8212000F0FA
:10F9500061FDBDE81040292000F05CBD2DE9F043B9
:10F960008146A2EB0900401C1F4686B20C46DDF81A
:10F970001C8011E02146484600F060FB00F062FD6B
:10F98000002505E01FFA88F000F02CFD6D1CADB2DB
:10F99000B542F7D3641CA4B2BC42EBD9BDE8F083F6
:10F9A0002DE9F04FDF488BB0816941F01001816192
:10F9B000816901F010010091816941F010018161BC
:10F9C000816901F010010091816941F010018161AC
:10F9D000816901F010010091816941F0100181619C
:10F9E000816901F010010091816941F0100181618C
:10F9F000816901F010010091816941F00801816184
:10FA0000816901F008010091816941F00101816182
:10FA1000806900F001000090C348416821F0E06176
:10FA200041F000714160471501260320CDE90860CF
:10FA3000CDE90676BD4C06A92046F3F703FA4FF050
:10FA4000800806A92046CDF81880F3F7FBF94FF09F
:10FA5000400906A92046CDF81890F3F7F3F94FF4C2
:10FA6000807A06A92046CDF818A0F3F7EBF9201507
:10FA7000CDE9060606A92046F3F7E4F94FF6FF752F
:10FA8000CDE9065606A9AA48F3F7DCF9C4F81080B8
:10FA9000C4F810902761C4F810A0A5480C30056088
:10FAA000A448401EFDD2D32000F0B4FC00F096F92B
:10FAB000A14CA08000F092F9A08000F08FF905EA37
:10FAC0000020A08000F08AF9A18849F2413708435C
:10FAD000A08045F2103847F2967945F2105A49F65F
:10FAE000060B47F28976B8427DD0042000F092FCE4
:10FAF00000F074F9A08000F071F9A08000F06EF9B8
:10FB000005EA0020A08000F069F9A1880843A0F56B
:10FB10000541A080523967D0B04264D0D42000F0B3
:10FB200079FC00F05BF9A08000F058F9A08000F0AB
:10FB300055F905EA0020A08000F050F9A18808439B
:10FB4000A080404571D0D32000F064FC00F046F95D
:10FB5000A08000F043F9A08000F040F905EA002001
:10FB6000A08000F03BF9A1880843A08048455CD004
:10FB700055214FF4704000F06BFCAA214FF20100B8
:10FB800000F066FC52214FF2020000F061FC0821F7
:10FB90004FF2030000F05CFC01214FF2040000F082
:10FBA00057FC4FF4454000F035FC00F017F905EA2A
:10FBB0000020A0804CF2015000F02CFC00F00EF967
:10FBC000A1880843A0800520F9F706FFA1885145C8
:10FBD0002BD0D32000F01EFC00F000F9A08000F034
:10FBE000FDF8A08001E020E025E000F0F7F805EA4C
:10FBF0000020A08000F0F2F8A1880843A0805845BA
:10FC000013D0A12000F006FC00F0E8F8A08000F07E
:10FC1000E5F805EA0020A08000F0E0F8A18808439C
:10FC2000A0F5AE41A080613907D0A088B04208D1CC
:10FC3000FFF7DBFC27E0A680FAE741F66310A0801F
:10FC40001CE0B84202D1FDF732FA1CE0404502D177
:10FC5000FDF7E5FC17E0484502D1FFF79BFD12E0F8
:10FC6000504502D1FEF755FC0DE0584502D1FDF795
:10FC700035FB08E0A0F5C851633904D1FFF7FDFB5F
:10FC8000642000F089FB0020FDF7BEF8A188A1F5F3
:10FC9000EE408938B14236D00CDCA1F5C85063384B
:10FCA00039D000F25360B0F5804030D0B0F5007F1D
:10FCB0000BD12EE00D2830D000F58960B0F5005052
:10FCC00023D0A0F58060C53829D01CA06288238885
:10FCD00002AD059285E80B001AA140F2D530CDE9BE
:10FCE0000001224B22A229A10320FAF737FB0F497A
:10FCF0004FF4806008612648008880B2FDF75CF808
:10FD00000BB0BDE8F08F23A0E0E724A0DEE725A03C
:10FD1000DCE726A0DAE727A0D8E728A0D6E729A0C5
:10FD2000D4E7000000100240000001400010014034
:10FD3000000C0140FFFF0100F4080020556E6B6EBF
:10FD40006F776E004C43443A2025732C2049443A87
:10FD5000203078253034582C205265736F6C7574C0
:10FD6000696F6E3A2025647825640000106F0108E1
:10FD70002E2E5C447269766572735C4253505C4C03
:10FD800043445C6C63642E63000000004C434400F9
:10FD9000F80200205354373738390000494C4939AC
:10FDA000333431004E543335333130004E54333513
:10FDB00035313000535344313936330053543737DB
:10FDC00039360000494C49393830360002460120A6
:10FDD00000E05043491EC9B2FBD27047F0B585B070
:10FDE0004FF6FF7501AA002001240326009582E842
:10FDF0005100124F69463846F3F724F810482102A3
:10FE0000016149040161C91001610221491EFDD24D
:10FE10000A4908310968ADF8101040210161C90094
:10FE20000161CDE90054CDE9024669463846F3F751
:10FE300009F8BDF8100005B0F0BD0000000C01404D
:10FE40000010014070B51B4C2288824202D96288A2
:10FE50008A4201D8002070BD00F0F0F8A088A0F51B
:10FE6000AA41103920D02E2000F0D4FAFFF7B6FFB7
:10FE7000A188A1F5C852633AEDD0FFF7AFFF054660
:10FE8000A088A0F5EE41963911D0FFF7A7FFE9B29F
:10FE90004FF6FF7202EA012125EA6212890A42EA5C
:10FEA000411141EAD02070BD4FF43850DCE72846BC
:10FEB00070BD0000F4080020F0B55F4C002521461D
:10FEC000A279898841F66317012A01D01AB10CE0A2
:10FED000B94202D109E0B94207D1082805D2DFE8CA
:10FEE00000F0161812140C19100E082812D2DFE8B0
:10FEF00000F0110406080A0C0E1080250AE04025C7
:10FF000008E0C02506E0202504E0602502E0A025E9
:10FF100000E0E025362045F21056B14200D1000243
:10FF2000A1F51342413A07D0A1F5EE42893A03D038
:10FF3000A1F5EE42963A01D145F00805294600F0B8
:10FF400087FAA188B9420AD0A8062088628802D51B
:10FF5000904202D303E0904201D922806080608900
:10FF6000B14240D100F056FA002000F03BFA60891F
:10FF7000401C80B200F04EFA002000F033FA608995
:10FF8000801C80B200F046FA2088401EC0F30F208B
:10FF900000F028FA6089C01C80B200F03BFA20789B
:10FFA000401EC0B200F01EFAA08900F033FA002013
:10FFB00000F018FAA089401C80B200F02BFA002053
:10FFC00000F010FAA089801C80B200F023FA60884B
:10FFD000401EC0F30F2000F005FAA089C01C80B2BB
:10FFE00000F018FA21E000F015FA002000F0FAF90C
:10FFF000002000F0F7F92088401EC0F30F2000F029
:020000040801F1
:10000000F1F92078401EC0B200F0ECF9A08900F0B0
:1000100001FA002000F0E6F9002000F0E3F9608822
:10002000401EC0F30F2000F0DDF9A078BDE8F040DD
:10003000401EC0B200F0D6B9F40800202DE9F0410E
:100040003B4C0E460546070AA1882046A1F5C8523A
:1000500040894FEA1628633A16D0A1F5AA42103A11
:100060004CD000F0D7F9384600F0BCF9E8B200F007
:10007000B9F9A08900F0CEF9404600F0B3F9F0B22A
:10008000BDE8F04100F0AEB9A17931B300F0C2F99A
:10009000384600F0A7F9E8B200F0A4F92088401E25
:1000A000C0F30F2000F09EF92078401E5FFA80F028
:1000B00000F098F9A08900F0ADF9404600F092F9FF
:1000C000F0B200F08FF96088401EC0F30F2000F0FE
:1000D00089F9A078401EC0B2D2E72188491B491E89
:1000E0008DB200F097F9002000F07CF9002000F0BC
:1000F00079F9280A00F076F9E8B2D9E700F08AF930
:10010000384600F06FF96089401C80B200F082F937
:10011000E8B200F067F9A08900F07CF9404600F0F1
:1001200061F9A089401C80B200F074F9A7E70000D3
:10013000F408002000B528B1012804D0022806D018
:10014000032806D00020FCF75FFE002005E0002019
:1001500000E00120FCF758FE03205DF804EBFFF7F8
:10016000ABBE00002DE9FF4F1D460C468B465807DD
:1001700000D0012000EBD50069084843203A00F088
:10018000FF0AD0B20C2D0AD0102D0ED0182D10D091
:10019000202D49D1254901EB8016002041E024495A
:1001A00000EB400001EB8006F7E7224901EB001667
:1001B000F3E700EBC001204800EB8106EDE700BF4C
:1001C00016F808704FF00009380601D50E9A03E0C2
:1001D0000D9828B91948026821460098FCF73AFFA3
:1001E0007806070E1648641CA4B24088A0421BD9AA
:1001F000A4EB0B00A8420AD100985C46401C80B2D8
:1002000000900F480188009881420DD906E009F15D
:10021000010000F0FF09B9F1080FD5D308F1010082
:10022000C0B280465045CBD3BDE8FF8F5057010880
:10023000903F010804440108F4490108F802002035
:10024000F40800202DE9FF4F83B00026DDE910BA45
:100250001D4681463446B0464FEA5B0726E0281B20
:10026000401EC1B20A20FFF7B1FD0599B1FBF0F0C5
:100270000A21B0FBF1F201FB120026B9691E8C4283
:1002800001DA38B101263030C2B207FB049080B2E7
:100290005B4604E007FB049080B25B462022CDE978
:1002A000008A0499FFF75EFF641CE4B2AC42D6D327
:1002B00007B0BDE8F08F2DE9FC4F044600F0FF09C0
:1002C00010190D46DDE90BB61FFA80F8581987B2F0
:1002D0004FF0000A13E0444503D305EB0B004C46F6
:1002E00085B2BD4210D20D985B46CDE900A02946EB
:1002F0002046FFF737FF04EB5B0084B2761C3278B0
:10030000A2F120005E28E6D9BDE8FC8F2DE9FF4F61
:1003100083B08146DDE911BA10984FF000081E46FF
:1003200044460BF0010547082EE0301B401EC1B2C9
:100330000A20FFF74BFD0599B1FBF0F00A21B0FB55
:10034000F1F201FB1200B8F1000F05D1711E8C42D1
:1003500002DA50B14FF001083030C2B2CDE9005A94
:1003600007FB049080B2109B09E0CDE9005A5FEAD8
:100370000B6007FB0490109B80B20AD530220499D1
:10038000FFF7F0FE641CE4B2B442CED307B0BDE880
:10039000F08F2022F3E7000010B50446BE2000F0E5
:1003A00039F8052000F01EF8204603F0ACF84FF0B5
:1003B00066320B4B03F0F6F803F078F880B200F0E9
:1003C00011F8012000F00EF8FF2000F00BF80020DB
:1003D00000F008F8BDE81040002000F003B800006D
:1003E0006666044001B509484FF480710161490413
:1003F0000161BDF80010064A11604FF4000101616F
:10040000802101614115016108BD0000001001401B
:100410000C0C014001B509484FF0807101614900A1
:100420000161BDF80010064A11604FF4000101613E
:10043000802101614115016108BD000000100140EB
:100440000C0C014001480089FFF7E4BFF4080020CC
:1004500010B50C46FFF7DEFF2046BDE81040FFF761
:10046000C1BF4178007840EA01207047C1788278A6
:1004700042EA01214278007842EA012140EA012063
:10048000704710B5C17983790A0E43EA012112023F
:1004900042EA11624379120243EA012142EA1162FF
:1004A0000379120243EA012142EA1162C37812027F
:1004B00043EA0121837842EA116243EA01211302EF
:1004C00043EA11630A02417800780A43190241EABB
:1004D000126140EA022010BD70B506460D4601F1DA
:1004E0001A00FFF7BEFF04463078032805D105F156
:1004F0001400FFF7B6FF44EA0044204670BD10B573
:10050000044608682060086AA06091F82400E07141
:10051000486A20F0FF020020C4E90420E061896AF3
:100520002046E164F9F794FD002804D12046BDE897
:10053000104000F001B810BD2DE9F04104460068FC
:10054000A16B856B00F07CFA002845D1E16B08783F
:10055000852840D120222846F0F792FA6878460193
:10056000A6F140002036B0F5007F34D800212046A7
:10057000F9F776FB04282ED000282DD1A16B206836
:1005800000F05EFA002827D1E16B0878C02822D15C
:10059000202205F12000F0F773FA95F823000F21CF
:1005A0002C30B0FBF1F0B6EB401F14D340274FF4D2
:1005B000187800212046F9F753FB04280BD00028B7
:1005C0000AD1A16B206800F03BFA002804D1E16B4E
:1005D0000878C12802D00220BDE8F081474503D247
:1005E000E8192022F0F74CFA2037B742E1D347450B
:1005F00008D8284602F031FE0446A81CFFF731FF58
:100600008442E8D10020E7E7F2F758FEF7F786F9D1
:10061000F4F7ACFDF4F7D0FDF4F740FEF4F768FE14
:10062000F4F75EFDF4F784FDF4F714FEF4F7FAFD39
:10063000F4F7E2FDF7F7D6F9F7F7B4F9F7F7EEF9C3
:10064000FEE7000010B5064C0020216800F096FA85
:10065000D4F87811BDE81040002000F08FBA0000F7
:100660009876002010B54FF41671002000F0B2FA11
:10067000084C4FF400712060002000F0ABFAC4F881
:100680007801216811B108B1002010BDFFF7DAFF31
:10069000012010BD987600202DE9FF47002617465F
:1006A0000D460E60FCF7CEF9002803DA0B2004B0EB
:1006B000BDE8F087DC4951F8204094B12C602078E7
:1006C00007F0FE0520B16078F9F76FFDC1070AD089
:1006D0002670B0466078F9F706FDC10708D0032000
:1006E000E5E70C20E3E70DB1400704D40020DEE786
:1006F0001DB1400701D50A20D9E700212046F7F7B0
:10070000D9FF02281BD100264FEA0D0504EB061085
:1007100000F20220FFF7AAFE45F82600761C042E00
:10072000F4D3002655F8261029B12046F7F7C2FF6A
:10073000022801D203E00320761C042EF2D3042801
:100740007ED002287DD2256A4FF400764FF0FF3A22
:1007500001280CD004F14700FFF783FEB04270D1AE
:1007600004F15200FFF77DFE00286BD0AAE00B20B9
:1007700002E0401C402806D2211891F83C100029C4
:10078000F7D040285DD304F1A400FFF76AFEB0F56E
:10079000807FE4D194F8A800012707FA00F0B04266
:1007A000DDD104F18400FFF76CFEC14610EB0508B3
:1007B00041EB0906012EC5D204F19000FFF756FE69
:1007C000E06194F8AA00E07001283AD194F8A900F9
:1007D00087403804000C608133D004F19800FFF7A3
:1007E00045FE9249074688422BD8B81C6562A06135
:1007F00004F19400FFF73AFE2844206304F18C00D2
:10080000FFF734FE2844A0626089216B78434D468F
:100810000A1849EB0500B8EB0201864111D304F137
:100820009C00FFF723FE00263746E0626089B8424D
:1008300007D92046E16AF7F7D0FFC119204602E048
:1008400026E033E03AE000F0FBF808BB7F1CA0197B
:1008500090F83C00812804D02036F605F60DF6D13C
:10086000E4E7A0195030FFF701FE064602281DD329
:10087000A069B0421AD96289216BB01E02FB001038
:100880006063A06A00EBD611204600F0D9F808B1E9
:1008900001200CE706F07F0004EB80003C30FFF7FE
:1008A000E5FD411C03D0761C8642EAD06AE0C4F81C
:1008B00014A0C4F810A065710426ACE004F1600037
:1008C000FFF7D4FDE06194F84C70E770012F01D080
:1008D000022F57D1474394F849006081B0B3411EBD
:1008E00008424FD104F14D00FFF7BBFD2081000706
:1008F00048D104F14F00FFF7B4FD060004D104F124
:100900005C00FFF7B3FD064604F14A00FFF7A9FDBE
:10091000010037D02389C81900EB1312964231D356
:10092000B01A6689B0FBF6F080B1DFF804C100268A
:10093000604500D803264FF6F57C604500D80226B6
:1009400040F6F57C604502D8012601E01AE0CEB100
:10095000801C2A4422632944A061C4E90951032E62
:1009600012D07BB13944E162022E1ED000F00101A9
:1009700000EB400001EB5000E16900F2FF10B1EB29
:10098000502F14D20D2092E604F16600FFF769FDA6
:100990000028F7D120890028F4D104F16800FFF77E
:1009A00065FDE062A0698000E6E74000E4E7C4F886
:1009B00014A08020C4F810A06071032E2BD104F184
:1009C0006C00FFF74EFD012825D1691C204600F080
:1009D00037F800BB84F8058004F13C00FFF746FDC2
:1009E0001449884217D104F50870FFF73FFD1249FA
:1009F000884210D104F50E70FFF738FD0F49884288
:100A000009D104F50970FFF731FD606104F50A7042
:100A1000FFF72CFD206104492670091F0888401C3F
:100A20000880E08062E6000028050020FDFFFF7FCF
:100A3000F5FFFF0F5252614172724161000055AAE9
:100A400070B50446006A0D460026A8420FD0204625
:100A500001F0D0FA06000AD1607801232A4604F199
:100A60003C01F9F777FB08B1751E01262562304677
:100A700070BD000030B504460748084D002150F80D
:100A80002400420005EB8400C06800F06FF80120EC
:100A90002919087430BD0000506F0108EC040020D3
:100AA0002DE9F041204E0446002530190F46007C08
:100AB00010B93168204688474FF0FF327FB31B4B97
:100AC00053F82410B7FBF1F0B7FBF1FC01FB1C71EC
:100AD00001B1401C1549091F51F82410491E21D4A9
:100AE00006EB8406D6F80C7037F811C0BCF1000F85
:100AF00005D00025854213D1002285B208E06D1C87
:100B0000F8E700BFF76801EB020C521C27F81C50F5
:100B10008242F7D353F824004843BDE8F08101E056
:100B2000491EE1D51046F8E7EC040020546F010897
:100B300010B50C4B0C4C002253F82030114604EB3E
:100B4000800005E0C46834F8114004B1521C491C0F
:100B50008B42F7D84FF47A704243B2FBF3F080B285
:100B600010BD0000506F0108EC04002002E000BF3F
:100B700000F8011B521EFBD270470000F0B40029A0
:100B800022D0124B03EB80029468091B1C18247CB2
:100B900084B10F4B53F820308B4215D90C4B1B1FDF
:100BA00053F82000B1FBF0F1D06830F8113000208C
:100BB000044607E01968F0BC0847D5680E18401CC9
:100BC00025F816409842F8DBF0BC7047EC04002092
:100BD000586F010810B50446FFF762FF411C05D0AD
:100BE000034901EB84018968084410BD002010BD51
:100BF000EC04002070B5040300F000FA00F0A8F93E
:100C00000A4D002204212846F2F71DFA202001F0A7
:100C1000D7F8204600F082F9012204212846F2F795
:100C200012FABDE8704000F093B9000000080140DE
:100C30001A484EF614720088811A90421ED011DCB8
:100C400000F6EA50B0F5C04026D0B0F5B05F1FD036
:100C50006FF4B05140181DD0A0F2FC60B0F5004F09
:100C600008D109E001290BD002290BD003290BD0B0
:100C700004290BD00AA070470DA0704710A0704740
:100C800013A0704716A0704719A070471CA07047AA
:100C90001FA0704722A0704725A07047380300208E
:100CA000556E6B6E6F776E20466C61736800000046
:100CB0005732355138302028314D4229000000008C
:100CC0005732355131362028324D4229000000007C
:100CD0005732355133322028344D4229000000006C
:100CE0005732355136342028384D42290000000053
:100CF00057323551313238202831364D42290000E3
:100D000057323551323536202833324D42290000D2
:100D1000425932355136342028384D4229000000DE
:100D20004259323551313238202831364D4229006E
:100D30004E4D32355136342028384D4229000000BE
:100D400070B5294888B0816941F0040181618069EA
:100D5000264D00F00400009004200490012005902E
:100D600006900320079004A92846F2F76BF80122A9
:100D700004212846F2F767F900F0EEFF002001F0A9
:100D80002FF800F085F81A4EA0F56F411839308021
:100D900019D1032000F0A0F80446C00713D100F0D9
:100DA0002DF944F00201032000F07AF90022042119
:100DB0002846F2F748F9B72001F002F80122042191
:100DC0002846F2F740F9FFF733FF318809A248239C
:100DD000CDE90032CDE902010D4B0EA217A103208F
:100DE000F9F7BCFA08B070BD0010024000080140DD
:100DF000380300204E4F5220466C6173683A20251C
:100E0000732C2049443A20307825303458000000B3
:100E1000416F01082E2E5C447269766572735C42E4
:100E200053505C4E4F52464C4153485C6273705F66
:100E30006E6F72666C6173682E6300004E4F52468F
:100E40004C415348000000002DE9F0410F4F15467A
:100E50000C460646002204213846F2F7F4F8032037
:100E600000F0AEFF204600F059F8002405E0FF2016
:100E700000F0A6FF3055641CA4B2AC42F7D338464C
:100E8000BDE8F04101220421F2F7DDB8000801407D
:100E900070B5104D002204212846F2F7D4F89020B6
:100EA00000F08EFF002000F08BFF002000F088FF94
:100EB000002000F085FFFF2000F082FF0402FF20E9
:100EC00000F07EFF0443012204212846F2F7BBF81C
:100ED000204670BD0008014070B5012803D00228EB
:100EE00003D0032803D0052402E0352400E01524B4
:100EF000094D002204212846F2F7A5F8204600F00B
:100F00005FFFFF2000F05CFF044601220421284619
:100F1000F2F799F8204670BD0008014010B504466C
:100F20000A480088A0F56F41183902D1200E00F060
:100F300047FFC4F3074000F043FFC4F3072000F06D
:100F40003FFFE0B2BDE8104000F03ABF3803002098
:100F500010B50120FFF7C0FFC007FAD110BD000097
:100F60002DE9F05FC1F30B06DFF88C800F0BC6F59F
:100F70008054894682461546A24200D81446390359
:100F80008B464FF480524046FFF75EFF002006E09C
:100F9000321818F80210FF2903D1401C80B2A04279
:100FA000F6D3A04222D23846FFF724FE002006E006
:100FB0001AF800208319401C08F8032080B2A042D0
:100FC000F6D359464FF480524FEA080000F02AF851
:100FD000A5420FD0281BA244A144002685B24FF49D
:100FE00080547F1CA542CAD82C46C8E722464946F1
:100FF0005046EBE7BDE8F09F380F002010B5084CD5
:10100000002204212046F2F71EF8062000F0D8FE48
:1010100020460122BDE810400421F2F714B8000078
:10102000000801402DE9F0478046C8B2C0F5807441
:101030000E461546A24200D81446DFF860904FF4E1
:10104000807A00BFFFF7DAFF002204214846F1F75B
:10105000FAFF022000F0B4FE3046FFF75FFF0027E2
:1010600006E000BF18F8070000F0AAFE7F1CBFB220
:10107000A742F7D3012204214846F1F7E4FFFFF726
:1010800067FFA54208D0281BA044264485B25446D9
:10109000A542D7D82C46D5E7BDE8F0870008014027
:1010A00070B50E46012803D0022803D0032803D0D0
:1010B000012402E0312400E01124094D0022042122
:1010C0002846F1F7C0FF204600F07AFE304600F0D7
:1010D00077FE2846BDE8704001220421F1F7B3BF36
:1010E000000801402DE9F04781460E4601F11A0043
:1010F000FFF7B7F930BB3078012420F04000401EE4
:1011000000EB8001DFF84C8001EBC00500274FF6B3
:10111000FF7A00BF18F807003044FFF7A2F934B196
:10112000FF2D0FD829F8150004466D1C01E050452D
:1011300008D17F1C0D2FEDD33078400608D53CB187
:10114000FF2D02D90020BDE8F087002129F81510F5
:101150000120F8E7487001082DE9F04702261746FC
:101160000D46044602296FD3A069A8426CD92078A5
:101170004FF00109012806D0022838D0032846D0B4
:10118000042861D143E0A16A05EB550801EB582121
:101190002046FFF755FC060056D1C8F3080020444E
:1011A0003C3008F10108E90704D00178FAB262F393
:1011B0001F1100E03946017084F80490A16A2046AE
:1011C00001EB5821FFF73CFC06003DD1C8F30800B5
:1011D00020443C30E90702D0C7F3071105E001784D
:1011E000C7F3032201F0F001114301702AE0A06A65
:1011F00000EB15212046FFF723FC060024D1E8B2BE
:1012000004EB4000B9B23C3000F004FE1AE0A06AE2
:1012100000EBD5112046FFF713FC060014D140F275
:10122000FF1000EA8500217805193C35042905D016
:101230002846FFF71BF967F31B0007462846394687
:1012400000F0ECFD84F804903046BDE8F0870068BB
:10125000704700007FB5124C1048002520604720E1
:10126000C4E9010542F21070C4E903052046F3F712
:1012700083F80120CDE900500320CDE9025004227B
:1012800069462046F2F7E6FF04212046F3F7D6F838
:101290002068C16841F00101C1607FBD000C0040C1
:1012A000E00D002030B50F4900200C78620617D5FC
:1012B0004A686FEA1225D3B2EDB29D420BD153B901
:1012C000C2F307436FEA1262D2B29A4203D1180006
:1012D00001D0220604D424F040020A7000224A7091
:1012E00030BD0000280300202DE9F047884605683E
:1012F000174606468A46C14602295ED3A86940457C
:101300005BD96FB12878042802D1F079022807D080
:101310004FF0FF3239462846FFF71EFF00284DD117
:1013200041463046FBF77EFA040031D0012C44D010
:10133000601C50D02878042806D000224146284658
:10134000FFF70AFF002839D1D5E90501891E884237
:1013500005D2401C6861687940F00100687109F1AC
:101360000100A04201D1A1460EE02878042809D14D
:10137000A9EB0A02514600232846521CF7F75CF9F4
:1013800000281BD1A146CA46A869A0464045C7D837
:101390002878042829D12FB1F079022528B1032813
:1013A0001BD022E00020F0711FE0B4680EE021465F
:1013B0003046FBF737FA022802D20220BDE8F08758
:1013C000411C08D0611C884202D1641CBC42EED191
:1013D000BC4209D009E00120F0E7B068B84204D867
:1013E000B1690844B84200D3F5710020E6E7000077
:1013F000F0B5891EDDE9055449B2002903DC0C3142
:10140000401E49B280B26426B0FBF6F7461E40F299
:101410006D1C06FB0CF606EB9006F61B4FF4C87726
:10142000B0FBF7F0064440F26F1041430C2091FBF3
:10143000F0F01D303044521E07491044084400EBC0
:10144000400003EBC000C0EB001005EB8000C0EBD8
:10145000001004EB8000F0BDC606F5FF2DE9FE4F3D
:1014600033A107C98DE80700344800683349091DD6
:101470000968DFF8CC8001EB0047B7FBF8F431488E
:10148000314D0188A1422DD0048040F2B2764FF454
:10149000B77A4FF4B6790CE0304600F069F920B124
:1014A000544508D3A4F5B77401E0A4F26D14761C7A
:1014B000B6B24C45F0D8AE800026E9460CE0A888CC
:1014C00000F056F908B1012E2ED019F80600A042FE
:1014D00004D8241A761CB6B21C2CF0D2761CAE713D
:1014E000641CEC71B7FBF8F008FB10704FF46161FD
:1014F000B0FBF1F22A70B0FBF1F201FB12033C22C7
:10150000B3FBF2F36B70B0FBF1F301FB1300B0FB24
:10151000F2F102FB1100A870EA79A979A88800F01D
:1015200015F82872BDE8FE8F1D2CD7D31D3CD1E7DE
:101530001F1C1F1E1F1E1F1F1E1F1E1F18280040BE
:101540008051010010030020680B002010B5032912
:1015500003D20C31401EC9B280B24B1C02EB4101D8
:1015600003EB43030524B3FBF4F36422B0FBF2F274
:101570001944014401EB9001891A4FF4C872B0FB81
:10158000F2F008440721401C90FBF1F201FB12002D
:10159000C0B210BDFEB53F4CE06940F08050E06144
:1015A000E06900F080500090E06940F00060E06188
:1015B000E06900F000600090F1F710FF002000F0FB
:1015C000EBF8054634A04221CDE900103B4B3CA28C
:1015D000029543A10420F8F7C1FE226A41A14320ED
:1015E0008DE80700354B36A23DA10420F8F7B6FE82
:1015F000414C4048002620604FF0FF30C4E901060E
:101600002046F2F73FFA08B10120FEBD3BA0582169
:10161000CDE90010294B2AA2029531A10420F8F748
:101620009DFEA5F5A040503818D0A5F5A040513832
:1016300014D03DA15B20CDE90001204B20A228A1C0
:101640000220F8F78BFE1E20CDE900060F231A2298
:10165000082140F2E97000F0E1F809E03BA16020C8
:10166000CDE90001154B16A21DA10320F8F776FE67
:101670002068016841F0010101600022022103207D
:10168000F1F77AFE0320F1F769FEFFF7E7FE00208D
:10169000FEBD000000100240424B503020626566E3
:1016A0006F72652048414C5F5254435F496E6974C4
:1016B000203D20307825303458000000196F010893
:1016C0002E2E5C447269766572735C4253505C5294
:1016D00054435C6273705F7274632E630000000099
:1016E0005254430042444352203D20307825303844
:1016F0005800000000280040540B00204368656338
:101700006B696E6720424B503020616674657220B1
:1017100048414C5F5254435F496E6974203D20300C
:101720007825303458000000424B503020696E76E6
:10173000616C69642C2073657474696E67206465DC
:101740006661756C742074696D650000424B5030A1
:101750002076616C69642C206B656570696E67200A
:101760006578697374696E672074696D650000003F
:10177000810705D16421B0FBF1F201FB120141B9EF
:101780004FF4C871B0FBF1F201FB120008B1002068
:10179000704701207047000010B5411C0248F2F765
:1017A00061F980B210BD0000540B00207CB5DDE96A
:1017B0000645CDE90045FFF71BFE04461448C16904
:1017C00041F08051C161C16901F080510091C1694E
:1017D00041F00061C161C06900F000600090F1F764
:1017E000FDFD0C49086840F010000860094AA0B2ED
:1017F00020321060200C121F1060086820F01000CA
:1018000008600548006841688906FCD500207CBD59
:101810000010024004280040540B00207CB5DDE994
:101820000645CDE90045FFF7E3FD04461448C169CC
:1018300041F08051C161C16901F080510091C169DD
:1018400041F00061C161C06900F000600090F1F7F3
:10185000C5FD0C49086840F010000860094AA0B2B4
:1018600018321060200C121F1060086820F0100061
:1018700008600548006841688906FCD500207CBDE9
:101880000010024004280040540B002070B50C46A4
:101890000546F1F7A3FD2246691CBDE870400148EA
:1018A000F2F7E8B8540B002010B5012208210448D3
:1018B000F1F7C9FBBDE81040FF2000F081BA00003D
:1018C0000008014070B505460021092000F062F9CA
:1018D000040004D11021284600F010F90446FFF757
:1018E000E3FF204670BD1FB56846FFF7EBFF10B160
:1018F000002004B010BD9DF800100120B0EB911F36
:101900000DD19DF809109DF8082001EB02219DF8EA
:10191000072000EB0240084400048009E9E79DF835
:1019200005009DF80A1000F00F0000EBD1109DF8A3
:1019300009109DF8072001F0030100EB41019DF81B
:101940000800800900EB82009DF8062002F00302E7
:1019500000EB8220401CC91F8840CAE770B51424E0
:1019600000218D2000F016F9050002D0641EE4B2BB
:10197000F6D2FFF799FF284670BD00002DE9F84325
:1019800000F054F9072000F02BFA0024FF2000F0AB
:1019900017FA641CA4B20A2CF8D3142500210846B7
:1019A00000F0F8F80446012802D06D1EADB2F5D261
:1019B000384D4FF00009012C85F800905ED14FF4AE
:1019C000D571082000F0E6F84FF47A7801280AD0A3
:1019D0000021A92000F0DEF84646012839D802206F
:1019E0002870A92738E000266F46FF2000F0E8F9AC
:1019F000B855761CB6B2042EF7D39DF80200012824
:101A00003CD19DF80300AA2838D146464FF08048C3
:101A10004146A92000F0BEF8040002D0761EB6B2FE
:101A2000F6D25EB300213A2000F0B4F830BB0026B5
:101A3000FF2000F0C5F9B855761CB6B2042EF7D3D6
:101A40009DF80000400601D5062000E00420287023
:101A500014E00120287007460021384600F09AF86B
:101A6000040002D0761EB6B2F6D22EB14FF4007149
:101A7000102000F08FF808B185F80090FFF714FFF0
:101A8000002000F0ADF9287810B10020BDE8F883FF
:101A90002046FBE73A0300202DE9F04105461648B1
:101AA00014460078062800D049024FF40076012C35
:101AB00017D0122000F06EF83146284600F01EF8CC
:101AC0000746641E05F5007501D0002FF4D00021F3
:101AD0000C2000F05FF800BFFFF7E6FE3846BDE8D7
:101AE000F081112000F056F80700F5D13146284664
:101AF00000F004F80746EFE73A0300202DE9F04133
:101B00000E460546FE274FF6FF7401E0641EA4B2A0
:101B1000FF2000F055F9B84202D0002CF6D100E0C9
:101B200034B90120BDE8F08100F04AF905F8010B55
:101B3000761EB6B24FF0FF00F6D200F041F9FF205A
:101B400000F03EF90020EDE770B50C46054600F0C8
:101B5000ADF8D8B9204600F033F9FD2C18D0002498
:101B60004FF40076285D00F02BF9641CA4B2B44257
:101B7000F8D3FF2000F024F9FF2000F021F9FF2026
:101B800000F01EF900F01F00052801D0012070BDF3
:101B9000002070BD70B5044601260D46000607D52D
:101BA00004F07F0400213720FFF7F4FF01280ED84E
:101BB0000C2C0DD0FFF778FE002208211A48F1F70F
:101BC00042FA00F073F818B1FFF76EFEFF2070BD07
:101BD00044F0400000F0F4F8280E00F0F1F8C5F3EE
:101BE000074000F0EDF8C5F3072000F0E9F8E8B28F
:101BF00000F0E6F83CB1082C07D0304600F0E0F8E1
